{
  "_format": "hh-sol-artifact-1",
  "contractName": "UserSummaryFactory",
  "sourceName": "contracts/user/UserSummaryFactory.sol",
  "abi": [
    {
      "anonymous": false,
      "inputs": [
        {
          "indexed": true,
          "internalType": "address",
          "name": "_userSummary",
          "type": "address"
        },
        {
          "indexed": true,
          "internalType": "uint256",
          "name": "index",
          "type": "uint256"
        },
        {
          "indexed": true,
          "internalType": "address",
          "name": "universalAddress",
          "type": "address"
        }
      ],
      "name": "UserSummaryCreated",
      "type": "event"
    },
    {
      "inputs": [
        {
          "internalType": "uint256",
          "name": "",
          "type": "uint256"
        }
      ],
      "name": "_userSummaries",
      "outputs": [
        {
          "internalType": "contract UserSummary",
          "name": "",
          "type": "address"
        }
      ],
      "stateMutability": "view",
      "type": "function"
    },
    {
      "inputs": [
        {
          "internalType": "address",
          "name": "universalAddress",
          "type": "address"
        }
      ],
      "name": "createUserSummary",
      "outputs": [
        {
          "internalType": "address",
          "name": "",
          "type": "address"
        }
      ],
      "stateMutability": "nonpayable",
      "type": "function"
    }
  ],
  "bytecode": "0x608060405234801561001057600080fd5b50612720806100206000396000f3fe608060405234801561001057600080fd5b50600436106100365760003560e01c8063074a68f61461003b578063c64c2c311461006a575b600080fd5b61004e6100493660046101a7565b61007d565b6040516001600160a01b03909116815260200160405180910390f35b61004e610078366004610177565b6100a7565b6000818154811061008d57600080fd5b6000918252602090912001546001600160a01b0316905081565b600080826040516100b79061016a565b6001600160a01b039091168152602001604051809103906000f0801580156100e3573d6000803e3d6000fd5b50600080546001810182558180527f290decd9548b62a8d60345a988386fc84ba6bc95484008f6362f93160ef3e5630180546001600160a01b0319166001600160a01b03848116918217909255825460405194955091871693919290917fd8caca208900b580ecfabb87af6fb1be62fd6486df520f965033d95004a879d19190a492915050565b61252a806101c183390190565b60006020828403121561018957600080fd5b81356001600160a01b03811681146101a057600080fd5b9392505050565b6000602082840312156101b957600080fd5b503591905056fe608060405234801561001057600080fd5b506040516200252a3803806200252a83398101604081905261003191610056565b600080546001600160a01b0319166001600160a01b0392909216919091179055610086565b60006020828403121561006857600080fd5b81516001600160a01b038116811461007f57600080fd5b9392505050565b61249480620000966000396000f3fe608060405234801561001057600080fd5b50600436106100885760003560e01c8063787422d21161005b578063787422d2146100db5780638da5cb5b146100ee578063a9e38d801461011d578063fb41fadf1461013057600080fd5b806315f715421461008d578063569c3218146100a2578063614b24e9146100b557806375580e15146100c8575b600080fd5b6100a061009b36600461223c565b610143565b005b6100a06100b036600461223c565b6105eb565b6100a06100c336600461225d565b610a7a565b6100a06100d636600461223c565b610ed5565b6100a06100e936600461223c565b611364565b600054610101906001600160a01b031681565b6040516001600160a01b03909116815260200160405180910390f35b6100a061012b36600461223c565b6117f3565b6100a061013e36600461223c565b611c82565b338061016a5760405162461bcd60e51b81526004016101619061228f565b60405180910390fd5b600081905060008054906101000a90046001600160a01b03166001600160a01b0316816001600160a01b0316638da5cb5b6040518163ffffffff1660e01b815260040160206040518083038186803b1580156101c557600080fd5b505afa1580156101d9573d6000803e3d6000fd5b505050506040513d601f19601f820116820180604052508101906101fd919061212d565b6001600160a01b031614806102a6575060008054906101000a90046001600160a01b03166001600160a01b0316816001600160a01b0316634d547ada6040518163ffffffff1660e01b815260040160206040518083038186803b15801561026357600080fd5b505afa158015610277573d6000803e3d6000fd5b505050506040513d601f19601f8201168201806040525081019061029b919061212d565b6001600160a01b0316145b6102c25760405162461bcd60e51b81526004016101619061235f565b6004816001600160a01b031663c6ee20d26040518163ffffffff1660e01b815260040160206040518083038186803b1580156102fd57600080fd5b505afa158015610311573d6000803e3d6000fd5b505050506040513d601f19601f82011682018060405250810190610335919061221b565b60048111156103465761034661241c565b14806103d357506002816001600160a01b031663c6ee20d26040518163ffffffff1660e01b815260040160206040518083038186803b15801561038857600080fd5b505afa15801561039c573d6000803e3d6000fd5b505050506040513d601f19601f820116820180604052508101906103c0919061221b565b60048111156103d1576103d161241c565b145b6103ef5760405162461bcd60e51b8152600401610161906122db565b6000816001600160a01b03166380f556056040518163ffffffff1660e01b815260040160206040518083038186803b15801561042a57600080fd5b505afa15801561043e573d6000803e3d6000fd5b505050506040513d601f19601f82011682018060405250810190610462919061212d565b90506000816001600160a01b03166350d4d1f76040518163ffffffff1660e01b815260040160206040518083038186803b15801561049f57600080fd5b505afa1580156104b3573d6000803e3d6000fd5b505050506040513d601f19601f820116820180604052508101906104d79190612276565b81101561058657836001600160a01b0316826001600160a01b03166336e114fc6040518163ffffffff1660e01b815260040160006040518083038186803b15801561052157600080fd5b505afa158015610535573d6000803e3d6000fd5b505050506040513d6000823e601f3d908101601f1916820160405261055d919081019061214f565b828151811061056e5761056e612432565b60200260200101516001600160a01b03161415610088575b50600184600181111561059b5761059b61241c565b14156105bb57600580549060006105b1836123d4565b91905055506105e5565b60008460018111156105cf576105cf61241c565b14156105e557600180549060006105b1836123d4565b50505050565b33806106095760405162461bcd60e51b81526004016101619061228f565b600081905060008054906101000a90046001600160a01b03166001600160a01b0316816001600160a01b0316638da5cb5b6040518163ffffffff1660e01b815260040160206040518083038186803b15801561066457600080fd5b505afa158015610678573d6000803e3d6000fd5b505050506040513d601f19601f8201168201806040525081019061069c919061212d565b6001600160a01b03161480610745575060008054906101000a90046001600160a01b03166001600160a01b0316816001600160a01b0316634d547ada6040518163ffffffff1660e01b815260040160206040518083038186803b15801561070257600080fd5b505afa158015610716573d6000803e3d6000fd5b505050506040513d601f19601f8201168201806040525081019061073a919061212d565b6001600160a01b0316145b6107615760405162461bcd60e51b81526004016101619061235f565b6004816001600160a01b031663c6ee20d26040518163ffffffff1660e01b815260040160206040518083038186803b15801561079c57600080fd5b505afa1580156107b0573d6000803e3d6000fd5b505050506040513d601f19601f820116820180604052508101906107d4919061221b565b60048111156107e5576107e561241c565b148061087257506002816001600160a01b031663c6ee20d26040518163ffffffff1660e01b815260040160206040518083038186803b15801561082757600080fd5b505afa15801561083b573d6000803e3d6000fd5b505050506040513d601f19601f8201168201806040525081019061085f919061221b565b60048111156108705761087061241c565b145b61088e5760405162461bcd60e51b8152600401610161906122db565b6000816001600160a01b03166380f556056040518163ffffffff1660e01b815260040160206040518083038186803b1580156108c957600080fd5b505afa1580156108dd573d6000803e3d6000fd5b505050506040513d601f19601f82011682018060405250810190610901919061212d565b90506000816001600160a01b03166350d4d1f76040518163ffffffff1660e01b815260040160206040518083038186803b15801561093e57600080fd5b505afa158015610952573d6000803e3d6000fd5b505050506040513d601f19601f820116820180604052508101906109769190612276565b811015610a2557836001600160a01b0316826001600160a01b03166336e114fc6040518163ffffffff1660e01b815260040160006040518083038186803b1580156109c057600080fd5b505afa1580156109d4573d6000803e3d6000fd5b505050506040513d6000823e601f3d908101601f191682016040526109fc919081019061214f565b8281518110610a0d57610a0d612432565b60200260200101516001600160a01b03161415610088575b506001846001811115610a3a57610a3a61241c565b1415610a5057600680549060006105b1836123d4565b6000846001811115610a6457610a6461241c565b14156105e557600280549060006105b1836123d4565b3380610a985760405162461bcd60e51b81526004016101619061228f565b600081905060008054906101000a90046001600160a01b03166001600160a01b0316816001600160a01b0316638da5cb5b6040518163ffffffff1660e01b815260040160206040518083038186803b158015610af357600080fd5b505afa158015610b07573d6000803e3d6000fd5b505050506040513d601f19601f82011682018060405250810190610b2b919061212d565b6001600160a01b03161480610bd4575060008054906101000a90046001600160a01b03166001600160a01b0316816001600160a01b0316634d547ada6040518163ffffffff1660e01b815260040160206040518083038186803b158015610b9157600080fd5b505afa158015610ba5573d6000803e3d6000fd5b505050506040513d601f19601f82011682018060405250810190610bc9919061212d565b6001600160a01b0316145b610bf05760405162461bcd60e51b81526004016101619061235f565b6004816001600160a01b031663c6ee20d26040518163ffffffff1660e01b815260040160206040518083038186803b158015610c2b57600080fd5b505afa158015610c3f573d6000803e3d6000fd5b505050506040513d601f19601f82011682018060405250810190610c63919061221b565b6004811115610c7457610c7461241c565b1480610d0157506002816001600160a01b031663c6ee20d26040518163ffffffff1660e01b815260040160206040518083038186803b158015610cb657600080fd5b505afa158015610cca573d6000803e3d6000fd5b505050506040513d601f19601f82011682018060405250810190610cee919061221b565b6004811115610cff57610cff61241c565b145b610d1d5760405162461bcd60e51b8152600401610161906122db565b6000816001600160a01b03166380f556056040518163ffffffff1660e01b815260040160206040518083038186803b158015610d5857600080fd5b505afa158015610d6c573d6000803e3d6000fd5b505050506040513d601f19601f82011682018060405250810190610d90919061212d565b90506000816001600160a01b03166350d4d1f76040518163ffffffff1660e01b815260040160206040518083038186803b158015610dcd57600080fd5b505afa158015610de1573d6000803e3d6000fd5b505050506040513d601f19601f82011682018060405250810190610e059190612276565b811015610eb457836001600160a01b0316826001600160a01b03166336e114fc6040518163ffffffff1660e01b815260040160006040518083038186803b158015610e4f57600080fd5b505afa158015610e63573d6000803e3d6000fd5b505050506040513d6000823e601f3d908101601f19168201604052610e8b919081019061214f565b8281518110610e9c57610e9c612432565b60200260200101516001600160a01b03161415610088575b508360046000016000828254610eca91906123bc565b909155505050505050565b3380610ef35760405162461bcd60e51b81526004016101619061228f565b600081905060008054906101000a90046001600160a01b03166001600160a01b0316816001600160a01b0316638da5cb5b6040518163ffffffff1660e01b815260040160206040518083038186803b158015610f4e57600080fd5b505afa158015610f62573d6000803e3d6000fd5b505050506040513d601f19601f82011682018060405250810190610f86919061212d565b6001600160a01b0316148061102f575060008054906101000a90046001600160a01b03166001600160a01b0316816001600160a01b0316634d547ada6040518163ffffffff1660e01b815260040160206040518083038186803b158015610fec57600080fd5b505afa158015611000573d6000803e3d6000fd5b505050506040513d601f19601f82011682018060405250810190611024919061212d565b6001600160a01b0316145b61104b5760405162461bcd60e51b81526004016101619061235f565b6004816001600160a01b031663c6ee20d26040518163ffffffff1660e01b815260040160206040518083038186803b15801561108657600080fd5b505afa15801561109a573d6000803e3d6000fd5b505050506040513d601f19601f820116820180604052508101906110be919061221b565b60048111156110cf576110cf61241c565b148061115c57506002816001600160a01b031663c6ee20d26040518163ffffffff1660e01b815260040160206040518083038186803b15801561111157600080fd5b505afa158015611125573d6000803e3d6000fd5b505050506040513d601f19601f82011682018060405250810190611149919061221b565b600481111561115a5761115a61241c565b145b6111785760405162461bcd60e51b8152600401610161906122db565b6000816001600160a01b03166380f556056040518163ffffffff1660e01b815260040160206040518083038186803b1580156111b357600080fd5b505afa1580156111c7573d6000803e3d6000fd5b505050506040513d601f19601f820116820180604052508101906111eb919061212d565b90506000816001600160a01b03166350d4d1f76040518163ffffffff1660e01b815260040160206040518083038186803b15801561122857600080fd5b505afa15801561123c573d6000803e3d6000fd5b505050506040513d601f19601f820116820180604052508101906112609190612276565b81101561130f57836001600160a01b0316826001600160a01b03166336e114fc6040518163ffffffff1660e01b815260040160006040518083038186803b1580156112aa57600080fd5b505afa1580156112be573d6000803e3d6000fd5b505050506040513d6000823e601f3d908101601f191682016040526112e6919081019061214f565b82815181106112f7576112f7612432565b60200260200101516001600160a01b03161415610088575b5060018460018111156113245761132461241c565b141561133a57600780549060006105b1836123eb565b600084600181111561134e5761134e61241c565b14156105e557600380549060006105b1836123eb565b33806113825760405162461bcd60e51b81526004016101619061228f565b600081905060008054906101000a90046001600160a01b03166001600160a01b0316816001600160a01b0316638da5cb5b6040518163ffffffff1660e01b815260040160206040518083038186803b1580156113dd57600080fd5b505afa1580156113f1573d6000803e3d6000fd5b505050506040513d601f19601f82011682018060405250810190611415919061212d565b6001600160a01b031614806114be575060008054906101000a90046001600160a01b03166001600160a01b0316816001600160a01b0316634d547ada6040518163ffffffff1660e01b815260040160206040518083038186803b15801561147b57600080fd5b505afa15801561148f573d6000803e3d6000fd5b505050506040513d601f19601f820116820180604052508101906114b3919061212d565b6001600160a01b0316145b6114da5760405162461bcd60e51b81526004016101619061235f565b6004816001600160a01b031663c6ee20d26040518163ffffffff1660e01b815260040160206040518083038186803b15801561151557600080fd5b505afa158015611529573d6000803e3d6000fd5b505050506040513d601f19601f8201168201806040525081019061154d919061221b565b600481111561155e5761155e61241c565b14806115eb57506002816001600160a01b031663c6ee20d26040518163ffffffff1660e01b815260040160206040518083038186803b1580156115a057600080fd5b505afa1580156115b4573d6000803e3d6000fd5b505050506040513d601f19601f820116820180604052508101906115d8919061221b565b60048111156115e9576115e961241c565b145b6116075760405162461bcd60e51b8152600401610161906122db565b6000816001600160a01b03166380f556056040518163ffffffff1660e01b815260040160206040518083038186803b15801561164257600080fd5b505afa158015611656573d6000803e3d6000fd5b505050506040513d601f19601f8201168201806040525081019061167a919061212d565b90506000816001600160a01b03166350d4d1f76040518163ffffffff1660e01b815260040160206040518083038186803b1580156116b757600080fd5b505afa1580156116cb573d6000803e3d6000fd5b505050506040513d601f19601f820116820180604052508101906116ef9190612276565b81101561179e57836001600160a01b0316826001600160a01b03166336e114fc6040518163ffffffff1660e01b815260040160006040518083038186803b15801561173957600080fd5b505afa15801561174d573d6000803e3d6000fd5b505050506040513d6000823e601f3d908101601f19168201604052611775919081019061214f565b828151811061178657611786612432565b60200260200101516001600160a01b03161415610088575b5060018460018111156117b3576117b361241c565b14156117c957600580549060006105b1836123eb565b60008460018111156117dd576117dd61241c565b14156105e557600180549060006105b1836123eb565b33806118115760405162461bcd60e51b81526004016101619061228f565b600081905060008054906101000a90046001600160a01b03166001600160a01b0316816001600160a01b0316638da5cb5b6040518163ffffffff1660e01b815260040160206040518083038186803b15801561186c57600080fd5b505afa158015611880573d6000803e3d6000fd5b505050506040513d601f19601f820116820180604052508101906118a4919061212d565b6001600160a01b0316148061194d575060008054906101000a90046001600160a01b03166001600160a01b0316816001600160a01b0316634d547ada6040518163ffffffff1660e01b815260040160206040518083038186803b15801561190a57600080fd5b505afa15801561191e573d6000803e3d6000fd5b505050506040513d601f19601f82011682018060405250810190611942919061212d565b6001600160a01b0316145b6119695760405162461bcd60e51b81526004016101619061235f565b6004816001600160a01b031663c6ee20d26040518163ffffffff1660e01b815260040160206040518083038186803b1580156119a457600080fd5b505afa1580156119b8573d6000803e3d6000fd5b505050506040513d601f19601f820116820180604052508101906119dc919061221b565b60048111156119ed576119ed61241c565b1480611a7a57506002816001600160a01b031663c6ee20d26040518163ffffffff1660e01b815260040160206040518083038186803b158015611a2f57600080fd5b505afa158015611a43573d6000803e3d6000fd5b505050506040513d601f19601f82011682018060405250810190611a67919061221b565b6004811115611a7857611a7861241c565b145b611a965760405162461bcd60e51b8152600401610161906122db565b6000816001600160a01b03166380f556056040518163ffffffff1660e01b815260040160206040518083038186803b158015611ad157600080fd5b505afa158015611ae5573d6000803e3d6000fd5b505050506040513d601f19601f82011682018060405250810190611b09919061212d565b90506000816001600160a01b03166350d4d1f76040518163ffffffff1660e01b815260040160206040518083038186803b158015611b4657600080fd5b505afa158015611b5a573d6000803e3d6000fd5b505050506040513d601f19601f82011682018060405250810190611b7e9190612276565b811015611c2d57836001600160a01b0316826001600160a01b03166336e114fc6040518163ffffffff1660e01b815260040160006040518083038186803b158015611bc857600080fd5b505afa158015611bdc573d6000803e3d6000fd5b505050506040513d6000823e601f3d908101601f19168201604052611c04919081019061214f565b8281518110611c1557611c15612432565b60200260200101516001600160a01b03161415610088575b506001846001811115611c4257611c4261241c565b1415611c5857600780549060006105b1836123d4565b6000846001811115611c6c57611c6c61241c565b14156105e557600380549060006105b1836123d4565b3380611ca05760405162461bcd60e51b81526004016101619061228f565b600081905060008054906101000a90046001600160a01b03166001600160a01b0316816001600160a01b0316638da5cb5b6040518163ffffffff1660e01b815260040160206040518083038186803b158015611cfb57600080fd5b505afa158015611d0f573d6000803e3d6000fd5b505050506040513d601f19601f82011682018060405250810190611d33919061212d565b6001600160a01b03161480611ddc575060008054906101000a90046001600160a01b03166001600160a01b0316816001600160a01b0316634d547ada6040518163ffffffff1660e01b815260040160206040518083038186803b158015611d9957600080fd5b505afa158015611dad573d6000803e3d6000fd5b505050506040513d601f19601f82011682018060405250810190611dd1919061212d565b6001600160a01b0316145b611df85760405162461bcd60e51b81526004016101619061235f565b6004816001600160a01b031663c6ee20d26040518163ffffffff1660e01b815260040160206040518083038186803b158015611e3357600080fd5b505afa158015611e47573d6000803e3d6000fd5b505050506040513d601f19601f82011682018060405250810190611e6b919061221b565b6004811115611e7c57611e7c61241c565b1480611f0957506002816001600160a01b031663c6ee20d26040518163ffffffff1660e01b815260040160206040518083038186803b158015611ebe57600080fd5b505afa158015611ed2573d6000803e3d6000fd5b505050506040513d601f19601f82011682018060405250810190611ef6919061221b565b6004811115611f0757611f0761241c565b145b611f255760405162461bcd60e51b8152600401610161906122db565b6000816001600160a01b03166380f556056040518163ffffffff1660e01b815260040160206040518083038186803b158015611f6057600080fd5b505afa158015611f74573d6000803e3d6000fd5b505050506040513d601f19601f82011682018060405250810190611f98919061212d565b90506000816001600160a01b03166350d4d1f76040518163ffffffff1660e01b815260040160206040518083038186803b158015611fd557600080fd5b505afa158015611fe9573d6000803e3d6000fd5b505050506040513d601f19601f8201168201806040525081019061200d9190612276565b8110156120bc57836001600160a01b0316826001600160a01b03166336e114fc6040518163ffffffff1660e01b815260040160006040518083038186803b15801561205757600080fd5b505afa15801561206b573d6000803e3d6000fd5b505050506040513d6000823e601f3d908101601f19168201604052612093919081019061214f565b82815181106120a4576120a4612432565b60200260200101516001600160a01b03161415610088575b5060018460018111156120d1576120d161241c565b14156120e757600680549060006105b1836123eb565b60008460018111156120fb576120fb61241c565b14156105e557600280549060006105b1836123eb565b80516001600160a01b038116811461212857600080fd5b919050565b60006020828403121561213f57600080fd5b61214882612111565b9392505050565b6000602080838503121561216257600080fd5b825167ffffffffffffffff8082111561217a57600080fd5b818501915085601f83011261218e57600080fd5b8151818111156121a0576121a0612448565b8060051b604051601f19603f830116810181811085821117156121c5576121c5612448565b604052828152858101935084860182860187018a10156121e457600080fd5b600095505b8386101561220e576121fa81612111565b8552600195909501949386019386016121e9565b5098975050505050505050565b60006020828403121561222d57600080fd5b81516005811061214857600080fd5b60006020828403121561224e57600080fd5b81356002811061214857600080fd5b60006020828403121561226f57600080fd5b5035919050565b60006020828403121561228857600080fd5b5051919050565b6020808252602c908201527f546865206d61726b65742063616c6c6572206d757374206e6f7420626520612060408201526b6e756c6c206164647265737360a01b606082015260800190565b602080825260609082018190527f546869732066756e6374696f6e2063616e206f6e6c792062652063616c6c656460408301527f20627920612072656c6174696f6e7368697020696e2074686520617070726f76908201527f6564206f72206177616974696e67207375626d697373696f6e2073746174652e608082015260a00190565b60208082526038908201527f55736572206d7573742062652074686520656d706c6f796572206f7220776f7260408201527f6b6572206f6620746869732072656c6174696f6e736869700000000000000000606082015260800190565b600082198211156123cf576123cf612406565b500190565b6000816123e3576123e3612406565b506000190190565b60006000198214156123ff576123ff612406565b5060010190565b634e487b7160e01b600052601160045260246000fd5b634e487b7160e01b600052602160045260246000fd5b634e487b7160e01b600052603260045260246000fd5b634e487b7160e01b600052604160045260246000fdfea2646970667358221220fb321b0cffac7dfe6dbdd600d9270f378dfd38155f6f9fdce6deb979b9b03d1564736f6c63430008070033a2646970667358221220bab414b696f22ea86b150b4a61dee6851794335bdd14f6b70c0b5f8835dfee8c64736f6c63430008070033",
  "linkReferences": {},
  "deployedLinkReferences": {}
}