{
    "contractName": "Market",
    "abi": [
        {
            "inputs": [
                {
                    "internalType": "string",
                    "name": "marketName",
                    "type": "string"
                },
                {
                    "internalType": "enum MarketLib.MarketType",
                    "name": "marketType",
                    "type": "uint8"
                }
            ],
            "stateMutability": "nonpayable",
            "type": "constructor"
        },
        {
            "anonymous": false,
            "inputs": [
                {
                    "indexed": true,
                    "internalType": "address",
                    "name": "marketAddress",
                    "type": "address"
                },
                {
                    "indexed": true,
                    "internalType": "string",
                    "name": "marketName",
                    "type": "string"
                }
            ],
            "name": "MarketPaused",
            "type": "event"
        },
        {
            "anonymous": false,
            "inputs": [
                {
                    "indexed": true,
                    "internalType": "address",
                    "name": "marketAddress",
                    "type": "address"
                },
                {
                    "indexed": true,
                    "internalType": "string",
                    "name": "marketName",
                    "type": "string"
                }
            ],
            "name": "MarketResumed",
            "type": "event"
        },
        {
            "anonymous": false,
            "inputs": [
                {
                    "indexed": true,
                    "internalType": "address",
                    "name": "previousOwner",
                    "type": "address"
                },
                {
                    "indexed": true,
                    "internalType": "address",
                    "name": "newOwner",
                    "type": "address"
                }
            ],
            "name": "OwnershipTransferred",
            "type": "event"
        },
        {
            "anonymous": false,
            "inputs": [
                {
                    "indexed": false,
                    "internalType": "address",
                    "name": "account",
                    "type": "address"
                }
            ],
            "name": "Paused",
            "type": "event"
        },
        {
            "anonymous": false,
            "inputs": [
                {
                    "indexed": false,
                    "internalType": "address",
                    "name": "account",
                    "type": "address"
                }
            ],
            "name": "Unpaused",
            "type": "event"
        },
        {
            "anonymous": false,
            "inputs": [
                {
                    "indexed": true,
                    "internalType": "address",
                    "name": "owner",
                    "type": "address"
                },
                {
                    "indexed": true,
                    "internalType": "address",
                    "name": "relationship",
                    "type": "address"
                },
                {
                    "indexed": true,
                    "internalType": "address",
                    "name": "marketAddress",
                    "type": "address"
                }
            ],
            "name": "WorkRelationshipCreated",
            "type": "event"
        },
        {
            "anonymous": false,
            "inputs": [
                {
                    "indexed": true,
                    "internalType": "address",
                    "name": "owner",
                    "type": "address"
                },
                {
                    "indexed": true,
                    "internalType": "address",
                    "name": "relationship",
                    "type": "address"
                }
            ],
            "name": "WorkRelationshipEnded",
            "type": "event"
        },
        {
            "inputs": [],
            "name": "_marketName",
            "outputs": [
                {
                    "internalType": "string",
                    "name": "",
                    "type": "string"
                }
            ],
            "stateMutability": "view",
            "type": "function"
        },
        {
            "inputs": [],
            "name": "_marketStatus",
            "outputs": [
                {
                    "internalType": "enum MarketLib.MarketStatus",
                    "name": "",
                    "type": "uint8"
                }
            ],
            "stateMutability": "view",
            "type": "function"
        },
        {
            "inputs": [],
            "name": "_marketType",
            "outputs": [
                {
                    "internalType": "enum MarketLib.MarketType",
                    "name": "",
                    "type": "uint8"
                }
            ],
            "stateMutability": "view",
            "type": "function"
        },
        {
            "inputs": [],
            "name": "_requiredIndustryWeight",
            "outputs": [
                {
                    "internalType": "uint256",
                    "name": "",
                    "type": "uint256"
                }
            ],
            "stateMutability": "view",
            "type": "function"
        },
        {
            "inputs": [],
            "name": "_requiredReputation",
            "outputs": [
                {
                    "internalType": "uint256",
                    "name": "",
                    "type": "uint256"
                }
            ],
            "stateMutability": "view",
            "type": "function"
        },
        {
            "inputs": [
                {
                    "internalType": "enum Evaluation.ContractType",
                    "name": "_contractType",
                    "type": "uint8"
                },
                {
                    "internalType": "string",
                    "name": "taskMetadataPointer",
                    "type": "string"
                }
            ],
            "name": "createJob",
            "outputs": [],
            "stateMutability": "nonpayable",
            "type": "function"
        },
        {
            "inputs": [],
            "name": "getMarketState",
            "outputs": [
                {
                    "internalType": "bool",
                    "name": "",
                    "type": "bool"
                }
            ],
            "stateMutability": "view",
            "type": "function"
        },
        {
            "inputs": [],
            "name": "getNumJobs",
            "outputs": [
                {
                    "internalType": "uint256",
                    "name": "",
                    "type": "uint256"
                }
            ],
            "stateMutability": "view",
            "type": "function"
        },
        {
            "inputs": [],
            "name": "getWorkRelationships",
            "outputs": [
                {
                    "internalType": "contract WorkRelationship[]",
                    "name": "",
                    "type": "address[]"
                }
            ],
            "stateMutability": "view",
            "type": "function"
        },
        {
            "inputs": [],
            "name": "owner",
            "outputs": [
                {
                    "internalType": "address",
                    "name": "",
                    "type": "address"
                }
            ],
            "stateMutability": "view",
            "type": "function"
        },
        {
            "inputs": [],
            "name": "pauseMarket",
            "outputs": [],
            "stateMutability": "nonpayable",
            "type": "function"
        },
        {
            "inputs": [],
            "name": "paused",
            "outputs": [
                {
                    "internalType": "bool",
                    "name": "",
                    "type": "bool"
                }
            ],
            "stateMutability": "view",
            "type": "function"
        },
        {
            "inputs": [],
            "name": "renounceOwnership",
            "outputs": [],
            "stateMutability": "nonpayable",
            "type": "function"
        },
        {
            "inputs": [],
            "name": "resumeMarket",
            "outputs": [],
            "stateMutability": "nonpayable",
            "type": "function"
        },
        {
            "inputs": [
                {
                    "internalType": "address",
                    "name": "newOwner",
                    "type": "address"
                }
            ],
            "name": "transferOwnership",
            "outputs": [],
            "stateMutability": "nonpayable",
            "type": "function"
        }
    ],
    "bytecode": "60806040523480156200001157600080fd5b50604051620032de380380620032de8339810160408190526200003491620001a7565b6200003f336200009c565b600180546001600160a81b0319163360ff60a01b191617905581516200006d906002906020850190620000ec565b506003805482919060ff1916600183818111156200008f576200008f620002d5565b0217905550505062000301565b600080546001600160a01b038381166001600160a01b0319831681178455604051919092169283917f8be0079c531659141344cd1fd0a4f28419497f9722a3daafe3b4186f6b6457e09190a35050565b828054620000fa9062000298565b90600052602060002090601f0160209004810192826200011e576000855562000169565b82601f106200013957805160ff191683800117855562000169565b8280016001018555821562000169579182015b82811115620001695782518255916020019190600101906200014c565b50620001779291506200017b565b5090565b5b808211156200017757600081556001016200017c565b805160028110620001a257600080fd5b919050565b60008060408385031215620001bb57600080fd5b82516001600160401b0380821115620001d357600080fd5b818501915085601f830112620001e857600080fd5b815181811115620001fd57620001fd620002eb565b604051601f8201601f19908116603f01168101908382118183101715620002285762000228620002eb565b816040528281526020935088848487010111156200024557600080fd5b600091505b828210156200026957848201840151818301850152908301906200024a565b828211156200027b5760008484830101525b95506200028d91505085820162000192565b925050509250929050565b600181811c90821680620002ad57607f821691505b60208210811415620002cf57634e487b7160e01b600052602260045260246000fd5b50919050565b634e487b7160e01b600052602160045260246000fd5b634e487b7160e01b600052604160045260246000fd5b612fcd80620003116000396000f3fe60806040523480156200001157600080fd5b5060043610620001095760003560e01c80637e0c00ed11620000a3578063a03738dc116200006e578063a03738dc14620001f9578063c143521f1462000203578063d8165743146200020d578063f2fde38b146200022057600080fd5b80637e0c00ed14620001bc578063838069f714620001c55780638da5cb5b14620001d35780639319106b14620001ef57600080fd5b80635c975abb11620000e45780635c975abb146200015d5780636039c8d7146200017c578063715018a614620001955780637cf63de9146200019f57600080fd5b8063036202a7146200010e5780630f091637146200012757806336e114fc1462000144575b600080fd5b620001256200011f366004620007e9565b62000237565b005b6200013160045481565b6040519081526020015b60405180910390f35b6200014e62000307565b6040516200013b91906200094a565b600154600160a01b900460ff165b60405190151581526020016200013b565b620001866200036b565b6040516200013b9190620009ae565b6200012562000401565b600354620001ad9060ff1681565b6040516200013b919062000999565b60075462000131565b600654620001ad9060ff1681565b6000546040516001600160a01b0390911681526020016200013b565b6200012562000445565b62000125620004eb565b6200013160055481565b600154600160a01b900460ff166200016b565b6200012562000231366004620007b7565b6200058d565b33806200024357600080fd5b60008184846040516200025690620007a9565b62000264939291906200090c565b604051809103906000f08015801562000281573d6000803e3d6000fd5b506007805460018101825560009182527fa66cc928b5edb82af9bd49922954155ab7b0942694bea4ce44661d9a8736c6880180546001600160a01b0319166001600160a01b0384811691821790925560405193945030939092918616917f43af47c504a2f23934b1a816cd86633559721bf26c3656844bdde3edd4719e1391a450505050565b606060078054806020026020016040519081016040528092919081815260200182805480156200036157602002820191906000526020600020905b81546001600160a01b0316815260019091019060200180831162000342575b5050505050905090565b600280546200037a90620009f8565b80601f0160208091040260200160405190810160405280929190818152602001828054620003a890620009f8565b8015620003f95780601f10620003cd57610100808354040283529160200191620003f9565b820191906000526020600020905b815481529060010190602001808311620003db57829003601f168201915b505050505081565b6000546001600160a01b03163314620004375760405162461bcd60e51b81526004016200042e90620009c3565b60405180910390fd5b6200044360006200062f565b565b6000546001600160a01b03163314620004725760405162461bcd60e51b81526004016200042e90620009c3565b60015433906001600160a01b031681146200048c57600080fd5b60035460ff166000816001811115620004a957620004a962000a35565b14620004b457600080fd5b60065460ff166000816001811115620004d157620004d162000a35565b14620004dc57600080fd5b620004e66200067f565b505050565b6000546001600160a01b03163314620005185760405162461bcd60e51b81526004016200042e90620009c3565b60015433906001600160a01b031681146200053257600080fd5b60035460ff1660008160018111156200054f576200054f62000a35565b146200055a57600080fd5b60065460ff16600181600181111562000577576200057762000a35565b14156200058357600080fd5b620004e66200071e565b6000546001600160a01b03163314620005ba5760405162461bcd60e51b81526004016200042e90620009c3565b6001600160a01b038116620006215760405162461bcd60e51b815260206004820152602660248201527f4f776e61626c653a206e6577206f776e657220697320746865207a65726f206160448201526564647265737360d01b60648201526084016200042e565b6200062c816200062f565b50565b600080546001600160a01b038381166001600160a01b0319831681178455604051919092169283917f8be0079c531659141344cd1fd0a4f28419497f9722a3daafe3b4186f6b6457e09190a35050565b600154600160a01b900460ff16620006d15760405162461bcd60e51b815260206004820152601460248201527314185d5cd8589b194e881b9bdd081c185d5cd95960621b60448201526064016200042e565b6001805460ff60a01b191690557f5db9ee0a495bf2e6ff9c91a7834c1ba4fdd244a5e8aa4e537bd38aeae4b073aa335b6040516001600160a01b03909116815260200160405180910390a1565b600154600160a01b900460ff16156200076d5760405162461bcd60e51b815260206004820152601060248201526f14185d5cd8589b194e881c185d5cd95960821b60448201526064016200042e565b6001805460ff60a01b1916600160a01b1790557f62e78cea01bee320cd4e420270b5ea74000d11b0c9f74754ebdbfc544b05a258620007013390565b6125178062000a8183390190565b600060208284031215620007ca57600080fd5b81356001600160a01b0381168114620007e257600080fd5b9392505050565b60008060408385031215620007fd57600080fd5b8235600281106200080d57600080fd5b9150602083013567ffffffffffffffff808211156200082b57600080fd5b818501915085601f8301126200084057600080fd5b81358181111562000855576200085562000a4b565b604051601f8201601f19908116603f0116810190838211818310171562000880576200088062000a4b565b816040528281528860208487010111156200089a57600080fd5b8260208601602083013760006020848301015280955050505050509250929050565b6000815180845260005b81811015620008e457602081850181015186830182015201620008c6565b81811115620008f7576000602083870101525b50601f01601f19169290920160200192915050565b6001600160a01b0384168152620009238362000a61565b826020820152606060408201526000620009416060830184620008bc565b95945050505050565b6020808252825182820181905260009190848201906040850190845b818110156200098d5783516001600160a01b03168352928401929184019160010162000966565b50909695505050505050565b60208101620009a88362000a61565b91905290565b602081526000620007e26020830184620008bc565b6020808252818101527f4f776e61626c653a2063616c6c6572206973206e6f7420746865206f776e6572604082015260600190565b600181811c9082168062000a0d57607f821691505b6020821081141562000a2f57634e487b7160e01b600052602260045260246000fd5b50919050565b634e487b7160e01b600052602160045260246000fd5b634e487b7160e01b600052604160045260246000fd5b600281106200062c57634e487b7160e01b600052602160045260246000fdfe60a06040819052600060808190526200001b91600291620000ee565b506040805160208101918290526000908190526200003c91600391620000ee565b503480156200004a57600080fd5b5060405162002517380380620025178339810160408190526200006d9162000194565b600180546001600160a01b0385166001600160a01b031991821617825560008054909116905560048054849260ff60a81b1990911690600160a81b908490811115620000bd57620000bd620002e9565b02179055506004805460ff60a01b191690558051620000e4906002906020840190620000ee565b5050505062000315565b828054620000fc90620002ac565b90600052602060002090601f0160209004810192826200012057600085556200016b565b82601f106200013b57805160ff19168380011785556200016b565b828001600101855582156200016b579182015b828111156200016b5782518255916020019190600101906200014e565b50620001799291506200017d565b5090565b5b808211156200017957600081556001016200017e565b600080600060608486031215620001aa57600080fd5b83516001600160a01b0381168114620001c257600080fd5b8093505060208085015160028110620001da57600080fd5b60408601519093506001600160401b0380821115620001f857600080fd5b818701915087601f8301126200020d57600080fd5b815181811115620002225762000222620002ff565b604051601f8201601f19908116603f011681019083821181831017156200024d576200024d620002ff565b816040528281528a868487010111156200026657600080fd5b600093505b828410156200028a57848401860151818501870152928501926200026b565b828411156200029c5760008684830101525b8096505050505050509250925092565b600181811c90821680620002c157607f821691505b60208210811415620002e357634e487b7160e01b600052602260045260246000fd5b50919050565b634e487b7160e01b600052602160045260246000fd5b634e487b7160e01b600052604160045260246000fd5b6121f280620003256000396000f3fe608060405260043610620001135760003560e01c80639b15bf8811620000a1578063d8a845cf116200006c578063d8a845cf14620002f4578063df502c6b146200030c578063e6e885931462000324578063ec3a47901462000356578063f74cc701146200037b57600080fd5b80639b15bf88146200026c578063a7f7dca91462000283578063b4fedc1114620002aa578063cb2ef6f714620002c257600080fd5b80635cdcf07511620000e25780635cdcf07514620001c55780635db28c6614620001ea57806396d6d69614620002115780639aed0c17146200024757600080fd5b806306e3fa9d14620001185780632a705703146200013f57806335e9281914620001615780634d547ada1462000186575b600080fd5b3480156200012557600080fd5b506200013d6200013736600462001044565b620003a0565b005b3480156200014c57600080fd5b506200013d6200015e36600462001044565b50565b3480156200016e57600080fd5b506200013d620001803660046200100b565b620003d6565b3480156200019357600080fd5b50600054620001a8906001600160a01b031681565b6040516001600160a01b0390911681526020015b60405180910390f35b348015620001d257600080fd5b506200013d620001e436600462000e5d565b6200044c565b348015620001f757600080fd5b5062000202620004b2565b604051620001bc9190620010e2565b3480156200021e57600080fd5b50620002366200023036600462000ec2565b6200057a565b6040519015158152602001620001bc565b3480156200025457600080fd5b506200013d6200026636600462000fe2565b62000609565b6200013d6200027d36600462000e84565b620006b2565b3480156200029057600080fd5b506200029b60055481565b604051908152602001620001bc565b348015620002b757600080fd5b506200013d62000a08565b348015620002cf57600080fd5b50600454620002e590600160a81b900460ff1681565b604051620001bc9190620010ae565b3480156200030157600080fd5b506200013d62000acc565b3480156200031957600080fd5b506200020262000ba9565b3480156200033157600080fd5b506004546200034790600160a01b900460ff1681565b604051620001bc9190620010cb565b3480156200036357600080fd5b506200013d620003753660046200100b565b62000c3f565b3480156200038857600080fd5b506200013d6200039a36600462000f99565b62000c85565b6001546001600160a01b031633146200015e5760405162461bcd60e51b8152600401620003cd90620010f7565b60405180910390fd5b6000546001600160a01b03163314620004035760405162461bcd60e51b8152600401620003cd9062001140565b600580600454600160a01b900460ff1660058111156200042757620004276200121b565b146200043257600080fd5b81516200044790600390602085019062000cfd565b505050565b60048054604051632ed9c42160e11b81526001600160a01b0384811693820193909352911690635db3884290602401600060405180830381600087803b1580156200049657600080fd5b505af1158015620004ab573d6000803e3d6000fd5b5050505050565b6001546060906001600160a01b03163314620004e25760405162461bcd60e51b8152600401620003cd90620010f7565b60038054620004f190620011c8565b80601f01602080910402602001604051908101604052809291908181526020018280546200051f90620011c8565b8015620005705780601f10620005445761010080835404028352916020019162000570565b820191906000526020600020905b8154815290600101906020018083116200055257829003601f168201915b5050505050905090565b600080836001600160a01b0316635d5f221f846040518263ffffffff1660e01b8152600401620005ab91906200118a565b602060405180830381600087803b158015620005c657600080fd5b505af1158015620005db573d6000803e3d6000fd5b505050506040513d601f19601f8201168201806040525081019062000601919062000f79565b949350505050565b6000546001600160a01b03163314620006365760405162461bcd60e51b8152600401620003cd9062001140565b600480546040516353318a8760e01b815291820186905260ff8516602483015260448201849052606482018390526001600160a01b0316906353318a87906084015b600060405180830381600087803b1580156200069357600080fd5b505af1158015620006a8573d6000803e3d6000fd5b5050505050505050565b6001600454600160a81b900460ff166001811115620006d557620006d56200121b565b14156200083c57600080600454600160a01b900460ff1660058111156200070057620007006200121b565b146200070b57600080fd5b6001600160a01b0383166200071f57600080fd5b346200072a57600080fd5b600080546001600160a01b0319166001600160a01b03858116919091179091556001546040518592919091169034908590620007669062000d8c565b6001600160a01b039485168152928416602084015260408301919091529091166060820152608001604051809103906000f080158015620007ab573d6000803e3d6000fd5b5060048054600560a01b6001600160a81b03199091166001600160a01b0393841617179081905516620007e257620007e262001205565b6000546001600160a01b0384811691161462000802576200080262001205565b6005600454600160a01b900460ff1660058111156200082557620008256200121b565b1462000835576200083562001205565b50620008af565b6001546001600160a01b03163314620008af5760405162461bcd60e51b815260206004820152602e60248201527f43616c6c6572206973206e6f74206f776e657220616e6420636f6e747261637460448201526d1034b9903737ba10333630b9b41760911b6064820152608401620003cd565b600080600454600160a01b900460ff166005811115620008d357620008d36200121b565b14620008de57600080fd5b6001600160a01b038316620008f257600080fd5b34620008fd57600080fd5b600080546001600160a01b0319166001600160a01b03858116919091179091556001546040518592919091169034908590620009399062000d8c565b6001600160a01b039485168152928416602084015260408301919091529091166060820152608001604051809103906000f0801580156200097e573d6000803e3d6000fd5b5060048054600560a01b6001600160a81b03199091166001600160a01b0393841617179081905516620009b557620009b562001205565b6000546001600160a01b03848116911614620009d557620009d562001205565b6005600454600160a01b900460ff166005811115620009f857620009f86200121b565b1462000447576200044762001205565b6001546001600160a01b0316331462000a355760405162461bcd60e51b8152600401620003cd90620010f7565b6003600454600160a01b900460ff16600581111562000a585762000a586200121b565b141562000ab75760405162461bcd60e51b815260206004820152602660248201527f546869732072656c6174696f6e7368697020697320616c726561647920636f6d6044820152651c1b195d195960d21b6064820152608401620003cd565b6004805460ff60a01b1916600360a01b179055565b6000546001600160a01b0316331462000af95760405162461bcd60e51b8152600401620003cd9062001140565b6003600454600160a01b900460ff16600581111562000b1c5762000b1c6200121b565b141562000b2857600080fd5b6003600454600160a01b900460ff16600581111562000b4b5762000b4b6200121b565b141562000b5757600080fd5b600080546001600160a01b03191690556004805460ff60a01b191690556000600454600160a01b900460ff16600581111562000b975762000b976200121b565b1462000ba75762000ba762001205565b565b6002805462000bb890620011c8565b80601f016020809104026020016040519081016040528092919081815260200182805462000be690620011c8565b801562000c375780601f1062000c0b5761010080835404028352916020019162000c37565b820191906000526020600020905b81548152906001019060200180831162000c1957829003601f168201915b505050505081565b6001546001600160a01b0316331462000c6c5760405162461bcd60e51b8152600401620003cd90620010f7565b805162000c8190600290602084019062000cfd565b5050565b6001546001600160a01b0316331462000cb25760405162461bcd60e51b8152600401620003cd90620010f7565b600480546040516325b0db0f60e01b81528615159281019290925260ff8516602483015260448201849052606482018390526001600160a01b0316906325b0db0f9060840162000678565b82805462000d0b90620011c8565b90600052602060002090601f01602090048101928262000d2f576000855562000d7a565b82601f1062000d4a57805160ff191683800117855562000d7a565b8280016001018555821562000d7a579182015b8281111562000d7a57825182559160200191906001019062000d5d565b5062000d8892915062000d9a565b5090565b610f50806200126d83390190565b5b8082111562000d88576000815560010162000d9b565b600082601f83011262000dc357600080fd5b813567ffffffffffffffff8082111562000de15762000de162001231565b604051601f8301601f19908116603f0116810190828211818310171562000e0c5762000e0c62001231565b8160405283815286602085880101111562000e2657600080fd5b836020870160208301376000602085830101528094505050505092915050565b803560ff8116811462000e5857600080fd5b919050565b60006020828403121562000e7057600080fd5b813562000e7d8162001247565b9392505050565b6000806040838503121562000e9857600080fd5b823562000ea58162001247565b9150602083013562000eb78162001247565b809150509250929050565b6000806040838503121562000ed657600080fd5b823562000ee38162001247565b9150602083013567ffffffffffffffff8082111562000f0157600080fd5b908401906060828703121562000f1657600080fd5b60405160608101818110838211171562000f345762000f3462001231565b60405282358281111562000f4757600080fd5b62000f558882860162000db1565b82525060208301356020820152604083013560408201528093505050509250929050565b60006020828403121562000f8c57600080fd5b815162000e7d816200125d565b6000806000806080858703121562000fb057600080fd5b843562000fbd816200125d565b935062000fcd6020860162000e46565b93969395505050506040820135916060013590565b6000806000806080858703121562000ff957600080fd5b8435935062000fcd6020860162000e46565b6000602082840312156200101e57600080fd5b813567ffffffffffffffff8111156200103657600080fd5b620006018482850162000db1565b6000602082840312156200105757600080fd5b5035919050565b6000815180845260005b81811015620010865760208185018101518683018201520162001068565b8181111562001099576000602083870101525b50601f01601f19169290920160200192915050565b6020810160028310620010c557620010c56200121b565b91905290565b6020810160068310620010c557620010c56200121b565b60208152600062000e7d60208301846200105e565b60208082526029908201527f576f726b52656c6174696f6e736869703a2063616c6c6572206973206e6f74206040820152683a34329037bbb732b960b91b606082015260800190565b6020808252602a908201527f576f726b52656c6174696f6e736869703a2063616c6c6572206973206e6f74206040820152693a3432903bb7b935b2b960b11b606082015260800190565b602081526000825160606020840152620011a860808401826200105e565b905060208401516040840152604084015160608401528091505092915050565b600181811c90821680620011dd57607f821691505b60208210811415620011ff57634e487b7160e01b600052602260045260246000fd5b50919050565b634e487b7160e01b600052600160045260246000fd5b634e487b7160e01b600052602160045260246000fd5b634e487b7160e01b600052604160045260246000fd5b6001600160a01b03811681146200015e57600080fd5b80151581146200015e57600080fdfe61010060405234801561001157600080fd5b50604051610f50380380610f5083398101604081905261003091610224565b838383836001600160a01b03831661007f5760405162461bcd60e51b815260206004820152600d60248201526c34b73b30b634b21037bbb732b960991b60448201526064015b60405180910390fd5b6001600160a01b0381166100d55760405162461bcd60e51b815260206004820152601960248201527f696e76616c69642064616920746f6b656e2061646472657373000000000000006044820152606401610076565b6040805180820182526006815265657363726f7760d01b6020918201528151808301835260018152603160f81b9082015281517f8b73c3c69bb8fe3d512ecc4cf759cc79239f7b179b0ffacaa9a75d522b39400f918101919091527f5c24c10d65ac9aa9e0f7f63d96fe83c89107fae52b4ef778334c906c1ec5c1ed918101919091527fc89efdaa54c0f20c7adf612882df0950f5a951637e0307cdcb4c672f298b8bc660608201524660ff811660808301523060a08301529060c00160408051808303601f1901815291905280516020909101206080525060e091909152606091821b6001600160601b031990811660c0529290911b90911660a052600080546001600160b01b031916620100006001600160a01b039390931692909202919091176101001790555061027192505050565b80516001600160a01b038116811461021f57600080fd5b919050565b6000806000806080858703121561023a57600080fd5b61024385610208565b935061025160208601610208565b92506040850151915061026660608601610208565b905092959194509250565b60805160a05160601c60c05160601c60e051610c536102fd600039600081816101bc01526107dc015260008181610250015281816102f50152818161045901528181610733015281816107b40152610863015260008181610122015281816104ca015281816105fa015261068b015260008181610229015281816103ad01526105ac0152610c536000f3fe608060405234801561001057600080fd5b50600436106100cf5760003560e01c80635db388421161008c57806396118e441161006657806396118e44146101fd578063bfce14ea14610224578063c7c4ff461461024b578063cefd6c211461027257600080fd5b80635db38842146101a45780637df38c5b146101b757806385209ee0146101de57600080fd5b806301162b93146100d4578063200d2ed2146100e757806325b0db0f1461010a57806338af3eed1461011d5780633c86f6f31461015c57806353318a8714610191575b600080fd5b6100e56100e2366004610a45565b50565b005b6000546100f49060ff1681565b6040516101019190610bcd565b60405180910390f35b6100e5610118366004610a75565b610285565b6101447f000000000000000000000000000000000000000000000000000000000000000081565b6040516001600160a01b039091168152602001610101565b6101837ffa5e0016fb62b8dffda8fd95249d438edcffd3689b40ac3b4281d4cf710609ae81565b604051908152602001610101565b6100e561019f366004610abe565b6104f6565b6100e56101b2366004610a45565b6100e2565b6101837f000000000000000000000000000000000000000000000000000000000000000081565b6000546101f090610100900460ff1681565b6040516101019190610bb3565b6101837f62b607caa4d4e7fcbd31bf4c033cd30888b536567fadc83710fdf15f8d5cfc9e81565b6101837f000000000000000000000000000000000000000000000000000000000000000081565b6101447f000000000000000000000000000000000000000000000000000000000000000081565b6100e5610280366004610afd565b610706565b60018060005460ff16600381111561029f5761029f610c07565b146102ea5760405162461bcd60e51b8152602060048201526016602482015275119b881b9bdd081c1c995cd95b9d1b1e481d985b1a5960521b60448201526064015b60405180910390fd5b336001600160a01b037f000000000000000000000000000000000000000000000000000000000000000016146103535760405162461bcd60e51b815260206004820152600e60248201526d2bb937b733903932bb34b2bbb2b960911b60448201526064016102e1565b604080517ffa5e0016fb62b8dffda8fd95249d438edcffd3689b40ac3b4281d4cf710609ae6020808301919091528715158284015282518083038401815260608301909352825192019190912061190160f01b60808301527f0000000000000000000000000000000000000000000000000000000000000000608283015260a282015260009060c20160408051601f1981840301815282825280516020918201206000845290830180835281905260ff8816918301919091526060820186905260808201859052915060019060a0016020604051602081039080840390855afa158015610444573d6000803e3d6000fd5b505050602060405103516001600160a01b03167f00000000000000000000000000000000000000000000000000000000000000006001600160a01b0316146104bf5760405162461bcd60e51b815260206004820152600e60248201526d1a5b9d985b1a590b5c195c9b5a5d60921b60448201526064016102e1565b85156104ee576104ee7f00000000000000000000000000000000000000000000000000000000000000006108fe565b505050505050565b60008060005460ff16600381111561051057610510610c07565b146105565760405162461bcd60e51b8152602060048201526016602482015275119b881b9bdd081c1c995cd95b9d1b1e481d985b1a5960521b60448201526064016102e1565b604080517f62b607caa4d4e7fcbd31bf4c033cd30888b536567fadc83710fdf15f8d5cfc9e60208083019190915281830188905282518083038401815260608301845280519082012061190160f01b60808401527f0000000000000000000000000000000000000000000000000000000000000000608284015260a2808401919091528351808403909101815260c290920190925280519101206001600160a01b037f00000000000000000000000000000000000000000000000000000000000000001661062357600080fd5b60408051600081526020810180835283905260ff871691810191909152606081018590526080810184905260019060a0016020604051602081039080840390855afa158015610676573d6000803e3d6000fd5b505050602060405103516001600160a01b03167f00000000000000000000000000000000000000000000000000000000000000006001600160a01b0316146106f15760405162461bcd60e51b815260206004820152600e60248201526d1a5b9d985b1a590b5c195c9b5a5d60921b60448201526064016102e1565b50506000805460ff1916600117905550505050565b6000546040516323f2ebc360e21b8152620100009091046001600160a01b031690638fcbaf0c9061076a907f00000000000000000000000000000000000000000000000000000000000000009030908d908d906001908e908e908e90600401610b6a565b600060405180830381600087803b15801561078457600080fd5b505af1158015610798573d6000803e3d6000fd5b505060005460405163f2d5d56b60e01b81526001600160a01b037f0000000000000000000000000000000000000000000000000000000000000000811660048301527f0000000000000000000000000000000000000000000000000000000000000000602483015262010000909204909116925063f2d5d56b9150604401600060405180830381600087803b15801561083057600080fd5b505af1158015610844573d6000803e3d6000fd5b50506000546201000090046001600160a01b03169150638fcbaf0c90507f00000000000000000000000000000000000000000000000000000000000000003061088e8c6001610be1565b8b60008989896040518963ffffffff1660e01b81526004016108b7989796959493929190610b6a565b600060405180830381600087803b1580156108d157600080fd5b505af11580156108e5573d6000803e3d6000fd5b50506000805461ff001916905550505050505050505050565b6001600160a01b03811661091157600080fd5b6001600160a01b038116158015610934576000805460ff19166003179055610942565b6000805460ff191660021790555b80610a2b576000546040516370a0823160e01b8152306004820152620100009091046001600160a01b03169063b753a98c90849083906370a082319060240160206040518083038186803b15801561099957600080fd5b505afa1580156109ad573d6000803e3d6000fd5b505050506040513d601f19601f820116820180604052508101906109d19190610ae4565b6040516001600160e01b031960e085901b1681526001600160a01b0390921660048301526024820152604401600060405180830381600087803b158015610a1757600080fd5b505af11580156104ee573d6000803e3d6000fd5b5050565b803560ff81168114610a4057600080fd5b919050565b600060208284031215610a5757600080fd5b81356001600160a01b0381168114610a6e57600080fd5b9392505050565b60008060008060808587031215610a8b57600080fd5b84358015158114610a9b57600080fd5b9350610aa960208601610a2f565b93969395505050506040820135916060013590565b60008060008060808587031215610ad457600080fd5b84359350610aa960208601610a2f565b600060208284031215610af657600080fd5b5051919050565b600080600080600080600080610100898b031215610b1a57600080fd5b8835975060208901359650610b3160408a01610a2f565b95506060890135945060808901359350610b4d60a08a01610a2f565b925060c0890135915060e089013590509295985092959890939650565b6001600160a01b039889168152969097166020870152604086019490945260608501929092521515608084015260ff1660a083015260c082015260e08101919091526101000190565b6020810160028310610bc757610bc7610c07565b91905290565b6020810160048310610bc757610bc7610c07565b60008219821115610c0257634e487b7160e01b600052601160045260246000fd5b500190565b634e487b7160e01b600052602160045260246000fdfea26469706673582212200aed3f35bdc8dc6abac7133a7c7fad62649db12fc3987daa926aaab00d9ab30764736f6c63430008070033a2646970667358221220b64138e639703ff8ff92de9725bc5907347fe879c9c1ddc8f4ff68d32cae96d464736f6c63430008070033a26469706673582212209e5154b2358f13298445e37ced06e3ff5fd965e0bddfc95b2af35a92b352ed8a64736f6c63430008070033",
    "sourcePath": "/Volumes/GLYPH-3TB/git/opportunity-core/src/contracts/market/Market.sol",
    "compiler": {
        "name": "solc",
        "version": "0.8.7+commit.e28d00a7"
    },
    "functionHashes": {
        "_marketName()": "6039c8d7",
        "_marketStatus()": "838069f7",
        "_marketType()": "7cf63de9",
        "_requiredIndustryWeight()": "c143521f",
        "_requiredReputation()": "0f091637",
        "createJob(uint8,string)": "036202a7",
        "getMarketState()": "d8165743",
        "getNumJobs()": "7e0c00ed",
        "getWorkRelationships()": "36e114fc",
        "owner()": "8da5cb5b",
        "pauseMarket()": "a03738dc",
        "paused()": "5c975abb",
        "renounceOwnership()": "715018a6",
        "resumeMarket()": "9319106b",
        "transferOwnership(address)": "f2fde38b"
    },
    "gasEstimates": {
        "creation": {
            "codeDepositCost": "2447400",
            "executionCost": "infinite",
            "totalCost": "infinite"
        },
        "external": {
            "_marketName()": "infinite",
            "_marketStatus()": "2425",
            "_marketType()": "2469",
            "_requiredIndustryWeight()": "2328",
            "_requiredReputation()": "2330",
            "createJob(uint8,string)": "infinite",
            "getMarketState()": "2387",
            "getNumJobs()": "2304",
            "getWorkRelationships()": "infinite",
            "owner()": "2368",
            "pauseMarket()": "36272",
            "paused()": "2333",
            "renounceOwnership()": "28181",
            "resumeMarket()": "36307",
            "transferOwnership(address)": "28362"
        },
        "internal": {
            "destroyMarket()": "infinite"
        }
    }
}