{
    "contractName": "Dai",
    "abi": [
        {
            "inputs": [
                {
                    "internalType": "uint256",
                    "name": "chainId_",
                    "type": "uint256"
                }
            ],
            "stateMutability": "nonpayable",
            "type": "constructor"
        },
        {
            "anonymous": false,
            "inputs": [
                {
                    "indexed": true,
                    "internalType": "address",
                    "name": "src",
                    "type": "address"
                },
                {
                    "indexed": true,
                    "internalType": "address",
                    "name": "guy",
                    "type": "address"
                },
                {
                    "indexed": false,
                    "internalType": "uint256",
                    "name": "wad",
                    "type": "uint256"
                }
            ],
            "name": "Approval",
            "type": "event"
        },
        {
            "anonymous": false,
            "inputs": [
                {
                    "indexed": true,
                    "internalType": "address",
                    "name": "src",
                    "type": "address"
                },
                {
                    "indexed": true,
                    "internalType": "address",
                    "name": "dst",
                    "type": "address"
                },
                {
                    "indexed": false,
                    "internalType": "uint256",
                    "name": "wad",
                    "type": "uint256"
                }
            ],
            "name": "Transfer",
            "type": "event"
        },
        {
            "inputs": [],
            "name": "DOMAIN_SEPARATOR",
            "outputs": [
                {
                    "internalType": "bytes32",
                    "name": "",
                    "type": "bytes32"
                }
            ],
            "stateMutability": "view",
            "type": "function"
        },
        {
            "inputs": [],
            "name": "PERMIT_TYPEHASH",
            "outputs": [
                {
                    "internalType": "bytes32",
                    "name": "",
                    "type": "bytes32"
                }
            ],
            "stateMutability": "view",
            "type": "function"
        },
        {
            "inputs": [
                {
                    "internalType": "address",
                    "name": "",
                    "type": "address"
                },
                {
                    "internalType": "address",
                    "name": "",
                    "type": "address"
                }
            ],
            "name": "allowance",
            "outputs": [
                {
                    "internalType": "uint256",
                    "name": "",
                    "type": "uint256"
                }
            ],
            "stateMutability": "view",
            "type": "function"
        },
        {
            "inputs": [
                {
                    "internalType": "address",
                    "name": "usr",
                    "type": "address"
                },
                {
                    "internalType": "uint256",
                    "name": "wad",
                    "type": "uint256"
                }
            ],
            "name": "approve",
            "outputs": [
                {
                    "internalType": "bool",
                    "name": "",
                    "type": "bool"
                }
            ],
            "stateMutability": "nonpayable",
            "type": "function"
        },
        {
            "inputs": [
                {
                    "internalType": "address",
                    "name": "",
                    "type": "address"
                }
            ],
            "name": "balanceOf",
            "outputs": [
                {
                    "internalType": "uint256",
                    "name": "",
                    "type": "uint256"
                }
            ],
            "stateMutability": "view",
            "type": "function"
        },
        {
            "inputs": [
                {
                    "internalType": "address",
                    "name": "usr",
                    "type": "address"
                },
                {
                    "internalType": "uint256",
                    "name": "wad",
                    "type": "uint256"
                }
            ],
            "name": "burn",
            "outputs": [],
            "stateMutability": "nonpayable",
            "type": "function"
        },
        {
            "inputs": [],
            "name": "decimals",
            "outputs": [
                {
                    "internalType": "uint8",
                    "name": "",
                    "type": "uint8"
                }
            ],
            "stateMutability": "view",
            "type": "function"
        },
        {
            "inputs": [
                {
                    "internalType": "address",
                    "name": "guy",
                    "type": "address"
                }
            ],
            "name": "deny",
            "outputs": [],
            "stateMutability": "nonpayable",
            "type": "function"
        },
        {
            "inputs": [
                {
                    "internalType": "address",
                    "name": "usr",
                    "type": "address"
                },
                {
                    "internalType": "uint256",
                    "name": "wad",
                    "type": "uint256"
                }
            ],
            "name": "mint",
            "outputs": [],
            "stateMutability": "nonpayable",
            "type": "function"
        },
        {
            "inputs": [
                {
                    "internalType": "address",
                    "name": "src",
                    "type": "address"
                },
                {
                    "internalType": "address",
                    "name": "dst",
                    "type": "address"
                },
                {
                    "internalType": "uint256",
                    "name": "wad",
                    "type": "uint256"
                }
            ],
            "name": "move",
            "outputs": [],
            "stateMutability": "nonpayable",
            "type": "function"
        },
        {
            "inputs": [],
            "name": "name",
            "outputs": [
                {
                    "internalType": "string",
                    "name": "",
                    "type": "string"
                }
            ],
            "stateMutability": "view",
            "type": "function"
        },
        {
            "inputs": [
                {
                    "internalType": "address",
                    "name": "",
                    "type": "address"
                }
            ],
            "name": "nonces",
            "outputs": [
                {
                    "internalType": "uint256",
                    "name": "",
                    "type": "uint256"
                }
            ],
            "stateMutability": "view",
            "type": "function"
        },
        {
            "inputs": [
                {
                    "internalType": "address",
                    "name": "holder",
                    "type": "address"
                },
                {
                    "internalType": "address",
                    "name": "spender",
                    "type": "address"
                },
                {
                    "internalType": "uint256",
                    "name": "nonce",
                    "type": "uint256"
                },
                {
                    "internalType": "uint256",
                    "name": "expiry",
                    "type": "uint256"
                },
                {
                    "internalType": "bool",
                    "name": "allowed",
                    "type": "bool"
                },
                {
                    "internalType": "uint8",
                    "name": "v",
                    "type": "uint8"
                },
                {
                    "internalType": "bytes32",
                    "name": "r",
                    "type": "bytes32"
                },
                {
                    "internalType": "bytes32",
                    "name": "s",
                    "type": "bytes32"
                }
            ],
            "name": "permit",
            "outputs": [],
            "stateMutability": "nonpayable",
            "type": "function"
        },
        {
            "inputs": [
                {
                    "internalType": "address",
                    "name": "usr",
                    "type": "address"
                },
                {
                    "internalType": "uint256",
                    "name": "wad",
                    "type": "uint256"
                }
            ],
            "name": "pull",
            "outputs": [],
            "stateMutability": "nonpayable",
            "type": "function"
        },
        {
            "inputs": [
                {
                    "internalType": "address",
                    "name": "usr",
                    "type": "address"
                },
                {
                    "internalType": "uint256",
                    "name": "wad",
                    "type": "uint256"
                }
            ],
            "name": "push",
            "outputs": [],
            "stateMutability": "nonpayable",
            "type": "function"
        },
        {
            "inputs": [
                {
                    "internalType": "address",
                    "name": "guy",
                    "type": "address"
                }
            ],
            "name": "rely",
            "outputs": [],
            "stateMutability": "nonpayable",
            "type": "function"
        },
        {
            "inputs": [],
            "name": "symbol",
            "outputs": [
                {
                    "internalType": "string",
                    "name": "",
                    "type": "string"
                }
            ],
            "stateMutability": "view",
            "type": "function"
        },
        {
            "inputs": [],
            "name": "totalSupply",
            "outputs": [
                {
                    "internalType": "uint256",
                    "name": "",
                    "type": "uint256"
                }
            ],
            "stateMutability": "view",
            "type": "function"
        },
        {
            "inputs": [
                {
                    "internalType": "address",
                    "name": "dst",
                    "type": "address"
                },
                {
                    "internalType": "uint256",
                    "name": "wad",
                    "type": "uint256"
                }
            ],
            "name": "transfer",
            "outputs": [
                {
                    "internalType": "bool",
                    "name": "",
                    "type": "bool"
                }
            ],
            "stateMutability": "nonpayable",
            "type": "function"
        },
        {
            "inputs": [
                {
                    "internalType": "address",
                    "name": "src",
                    "type": "address"
                },
                {
                    "internalType": "address",
                    "name": "dst",
                    "type": "address"
                },
                {
                    "internalType": "uint256",
                    "name": "wad",
                    "type": "uint256"
                }
            ],
            "name": "transferFrom",
            "outputs": [
                {
                    "internalType": "bool",
                    "name": "",
                    "type": "bool"
                }
            ],
            "stateMutability": "nonpayable",
            "type": "function"
        },
        {
            "inputs": [],
            "name": "version",
            "outputs": [
                {
                    "internalType": "string",
                    "name": "",
                    "type": "string"
                }
            ],
            "stateMutability": "view",
            "type": "function"
        },
        {
            "inputs": [
                {
                    "internalType": "address",
                    "name": "",
                    "type": "address"
                }
            ],
            "name": "wards",
            "outputs": [
                {
                    "internalType": "uint256",
                    "name": "",
                    "type": "uint256"
                }
            ],
            "stateMutability": "view",
            "type": "function"
        }
    ],
    "bytecode": "608060405234801561001057600080fd5b50604051610fd7380380610fd783398101604081905261002f9161011d565b336000908152602081815260409182902060019081905582518084018452600e81526d2230b49029ba30b13632b1b7b4b760911b9083015282518084018452908152603160f81b9082015281517f8b73c3c69bb8fe3d512ecc4cf759cc79239f7b179b0ffacaa9a75d522b39400f818301527f0b1461ddc0c1d5ded79a1db0f74dae949050a7c0b28728c724b24958c27a328b818401527fc89efdaa54c0f20c7adf612882df0950f5a951637e0307cdcb4c672f298b8bc6606082015260808101939093523060a0808501919091528251808503909101815260c09093019091528151910120600555610136565b60006020828403121561012f57600080fd5b5051919050565b610e92806101456000396000f3fe608060405234801561001057600080fd5b50600436106101425760003560e01c80637ecebe00116100b8578063a9059cbb1161007c578063a9059cbb14610331578063b753a98c14610344578063bb35783b14610357578063bf353dbb1461036a578063dd62ed3e1461038a578063f2d5d56b146103b557600080fd5b80637ecebe00146102a15780638fcbaf0c146102c157806395d89b41146102d45780639c52a7f1146102f65780639dc29fac1461031e57600080fd5b8063313ce5671161010a578063313ce567146101fe5780633644e5151461021857806340c10f191461022157806354fd4d501461023657806365fae35e1461025657806370a082311461028157600080fd5b806306fdde0314610147578063095ea7b31461018a57806318160ddd146101ad57806323b872dd146101c457806330adf81f146101d7575b600080fd5b6101746040518060400160405280600e81526020016d2230b49029ba30b13632b1b7b4b760911b81525081565b6040516101819190610da7565b60405180910390f35b61019d610198366004610d7d565b6103c8565b6040519015158152602001610181565b6101b660015481565b604051908152602001610181565b61019d6101d2366004610cb7565b610435565b6101b67fea2aa0a1be11a07ed86d755c93467f4f82362b452371d1ba94d1715123511acb81565b610206601281565b60405160ff9091168152602001610181565b6101b660055481565b61023461022f366004610d7d565b61065d565b005b610174604051806040016040528060018152602001603160f81b81525081565b610234610264366004610c69565b6001600160a01b0316600090815260208190526040902060019055565b6101b661028f366004610c69565b60026020526000908152604090205481565b6101b66102af366004610c69565b60046020526000908152604090205481565b6102346102cf366004610cf3565b6106ef565b6101746040518060400160405280600381526020016244414960e81b81525081565b610234610304366004610c69565b6001600160a01b0316600090815260208190526040812055565b61023461032c366004610d7d565b6109e2565b61019d61033f366004610d7d565b610bd7565b610234610352366004610d7d565b610beb565b610234610365366004610cb7565b610bfb565b6101b6610378366004610c69565b60006020819052908152604090205481565b6101b6610398366004610c84565b600360209081526000928352604080842090915290825290205481565b6102346103c3366004610d7d565b610c0c565b3360008181526003602090815260408083206001600160a01b038716808552925280832085905551919290917f8c5be1e5ebec7d5bd14f71427d1e84f3dd0314c0f7b2291e5b200ac8c7c3b925906104239086815260200190565b60405180910390a35060015b92915050565b6001600160a01b03831660009081526002602052604081205482111561049d5760405162461bcd60e51b81526020600482015260186024820152774461692f696e73756666696369656e742d62616c616e636560401b60448201526064015b60405180910390fd5b6001600160a01b03841633148015906104da57506001600160a01b0384166000908152600360209081526040808320338452909152902054600114155b156105a5576001600160a01b03841660009081526003602090815260408083203384529091529020548211156105525760405162461bcd60e51b815260206004820152601a60248201527f4461692f696e73756666696369656e742d616c6c6f77616e63650000000000006044820152606401610494565b6001600160a01b03841660009081526003602090815260408083203384529091529020546105809083610c17565b6001600160a01b03851660009081526003602090815260408083203384529091529020555b6001600160a01b0384166000908152600260205260409020546105c89083610c17565b6001600160a01b0380861660009081526002602052604080822093909355908516815220546105f79083610c32565b6001600160a01b0380851660008181526002602052604090819020939093559151908616907fddf252ad1be2c89b69c2b068fc378daa952ba7f163c4a11628f55a4df523b3ef9061064b9086815260200190565b60405180910390a35060019392505050565b6001600160a01b0382166000908152600260205260409020546106809082610c32565b6001600160a01b0383166000908152600260205260409020556001546106a69082610c32565b6001556040518181526001600160a01b038316906000907fddf252ad1be2c89b69c2b068fc378daa952ba7f163c4a11628f55a4df523b3ef906020015b60405180910390a35050565b600554604080517fea2aa0a1be11a07ed86d755c93467f4f82362b452371d1ba94d1715123511acb60208201526001600160a01b03808c169282019290925290891660608201526080810188905260a0810187905285151560c08201526000919060e0016040516020818303038152906040528051906020012060405160200161079092919061190160f01b81526002810192909252602282015260420190565b60408051601f19818403018152919052805160209091012090506001600160a01b0389166107f85760405162461bcd60e51b815260206004820152601560248201527404461692f696e76616c69642d616464726573732d3605c1b6044820152606401610494565b60408051600081526020810180835283905260ff861691810191909152606081018490526080810183905260019060a0016020604051602081039080840390855afa15801561084b573d6000803e3d6000fd5b505050602060405103516001600160a01b0316896001600160a01b0316146108aa5760405162461bcd60e51b815260206004820152601260248201527111185a4bda5b9d985b1a590b5c195c9b5a5d60721b6044820152606401610494565b8515806108b75750854211155b6108f85760405162461bcd60e51b815260206004820152601260248201527111185a4bdc195c9b5a5d0b595e1c1a5c995960721b6044820152606401610494565b6001600160a01b038916600090815260046020526040812080549161091c83610e2b565b9190505587146109625760405162461bcd60e51b81526020600482015260116024820152704461692f696e76616c69642d6e6f6e636560781b6044820152606401610494565b600085610970576000610973565b60015b6001600160a01b038b81166000818152600360209081526040808320948f16808452948252918290208590559051848152939450919290917f8c5be1e5ebec7d5bd14f71427d1e84f3dd0314c0f7b2291e5b200ac8c7c3b925910160405180910390a350505050505050505050565b6001600160a01b038216600090815260026020526040902054811115610a455760405162461bcd60e51b81526020600482015260186024820152774461692f696e73756666696369656e742d62616c616e636560401b6044820152606401610494565b6001600160a01b0382163314801590610a8257506001600160a01b0382166000908152600360209081526040808320338452909152902054600114155b15610b4d576001600160a01b0382166000908152600360209081526040808320338452909152902054811115610afa5760405162461bcd60e51b815260206004820152601a60248201527f4461692f696e73756666696369656e742d616c6c6f77616e63650000000000006044820152606401610494565b6001600160a01b0382166000908152600360209081526040808320338452909152902054610b289082610c17565b6001600160a01b03831660009081526003602090815260408083203384529091529020555b6001600160a01b038216600090815260026020526040902054610b709082610c17565b6001600160a01b038316600090815260026020526040902055600154610b969082610c17565b6001556040518181526000906001600160a01b038416907fddf252ad1be2c89b69c2b068fc378daa952ba7f163c4a11628f55a4df523b3ef906020016106e3565b6000610be4338484610435565b9392505050565b610bf6338383610435565b505050565b610c06838383610435565b50505050565b610bf6823383610435565b600082610c248382610e14565b915081111561042f57600080fd5b600082610c3f8382610dfc565b915081101561042f57600080fd5b80356001600160a01b0381168114610c6457600080fd5b919050565b600060208284031215610c7b57600080fd5b610be482610c4d565b60008060408385031215610c9757600080fd5b610ca083610c4d565b9150610cae60208401610c4d565b90509250929050565b600080600060608486031215610ccc57600080fd5b610cd584610c4d565b9250610ce360208501610c4d565b9150604084013590509250925092565b600080600080600080600080610100898b031215610d1057600080fd5b610d1989610c4d565b9750610d2760208a01610c4d565b9650604089013595506060890135945060808901358015158114610d4a57600080fd5b935060a089013560ff81168114610d6057600080fd5b979a969950949793969295929450505060c08201359160e0013590565b60008060408385031215610d9057600080fd5b610d9983610c4d565b946020939093013593505050565b600060208083528351808285015260005b81811015610dd457858101830151858201604001528201610db8565b81811115610de6576000604083870101525b50601f01601f1916929092016040019392505050565b60008219821115610e0f57610e0f610e46565b500190565b600082821015610e2657610e26610e46565b500390565b6000600019821415610e3f57610e3f610e46565b5060010190565b634e487b7160e01b600052601160045260246000fdfea2646970667358221220477e9bd022f92530ca0289d8159abf33f85c95e5c8ade9e013b34a5c52e409a164736f6c63430008070033",
    "sourcePath": "/Users/elijahhampton/git/opportunity-core/src/contracts/test/Dai.sol",
    "compiler": {
        "name": "solc",
        "version": "0.8.7+commit.e28d00a7"
    },
    "functionHashes": {
        "DOMAIN_SEPARATOR()": "3644e515",
        "PERMIT_TYPEHASH()": "30adf81f",
        "allowance(address,address)": "dd62ed3e",
        "approve(address,uint256)": "095ea7b3",
        "balanceOf(address)": "70a08231",
        "burn(address,uint256)": "9dc29fac",
        "decimals()": "313ce567",
        "deny(address)": "9c52a7f1",
        "mint(address,uint256)": "40c10f19",
        "move(address,address,uint256)": "bb35783b",
        "name()": "06fdde03",
        "nonces(address)": "7ecebe00",
        "permit(address,address,uint256,uint256,bool,uint8,bytes32,bytes32)": "8fcbaf0c",
        "pull(address,uint256)": "f2d5d56b",
        "push(address,uint256)": "b753a98c",
        "rely(address)": "65fae35e",
        "symbol()": "95d89b41",
        "totalSupply()": "18160ddd",
        "transfer(address,uint256)": "a9059cbb",
        "transferFrom(address,address,uint256)": "23b872dd",
        "version()": "54fd4d50",
        "wards(address)": "bf353dbb"
    },
    "gasEstimates": {
        "creation": {
            "codeDepositCost": "746000",
            "executionCost": "infinite",
            "totalCost": "infinite"
        },
        "external": {
            "DOMAIN_SEPARATOR()": "2340",
            "PERMIT_TYPEHASH()": "307",
            "allowance(address,address)": "infinite",
            "approve(address,uint256)": "24546",
            "balanceOf(address)": "2652",
            "burn(address,uint256)": "infinite",
            "decimals()": "227",
            "deny(address)": "5469",
            "mint(address,uint256)": "infinite",
            "move(address,address,uint256)": "infinite",
            "name()": "infinite",
            "nonces(address)": "2542",
            "permit(address,address,uint256,uint256,bool,uint8,bytes32,bytes32)": "infinite",
            "pull(address,uint256)": "infinite",
            "push(address,uint256)": "infinite",
            "rely(address)": "22597",
            "symbol()": "infinite",
            "totalSupply()": "2363",
            "transfer(address,uint256)": "infinite",
            "transferFrom(address,address,uint256)": "infinite",
            "version()": "infinite",
            "wards(address)": "2610"
        },
        "internal": {
            "add(uint256,uint256)": "123",
            "sub(uint256,uint256)": "120"
        }
    }
}