{
    "contractName": "Market",
    "abi": [
        {
            "inputs": [
                {
                    "internalType": "string",
                    "name": "marketName",
                    "type": "string"
                },
                {
                    "internalType": "enum MarketLib.MarketType",
                    "name": "marketType",
                    "type": "uint8"
                }
            ],
            "stateMutability": "nonpayable",
            "type": "constructor"
        },
        {
            "anonymous": false,
            "inputs": [
                {
                    "indexed": true,
                    "internalType": "address",
                    "name": "marketAddress",
                    "type": "address"
                },
                {
                    "indexed": true,
                    "internalType": "string",
                    "name": "marketName",
                    "type": "string"
                }
            ],
            "name": "MarketPaused",
            "type": "event"
        },
        {
            "anonymous": false,
            "inputs": [
                {
                    "indexed": true,
                    "internalType": "address",
                    "name": "marketAddress",
                    "type": "address"
                },
                {
                    "indexed": true,
                    "internalType": "string",
                    "name": "marketName",
                    "type": "string"
                }
            ],
            "name": "MarketResumed",
            "type": "event"
        },
        {
            "anonymous": false,
            "inputs": [
                {
                    "indexed": true,
                    "internalType": "address",
                    "name": "previousOwner",
                    "type": "address"
                },
                {
                    "indexed": true,
                    "internalType": "address",
                    "name": "newOwner",
                    "type": "address"
                }
            ],
            "name": "OwnershipTransferred",
            "type": "event"
        },
        {
            "anonymous": false,
            "inputs": [
                {
                    "indexed": false,
                    "internalType": "address",
                    "name": "account",
                    "type": "address"
                }
            ],
            "name": "Paused",
            "type": "event"
        },
        {
            "anonymous": false,
            "inputs": [
                {
                    "indexed": false,
                    "internalType": "address",
                    "name": "account",
                    "type": "address"
                }
            ],
            "name": "Unpaused",
            "type": "event"
        },
        {
            "anonymous": false,
            "inputs": [
                {
                    "indexed": true,
                    "internalType": "address",
                    "name": "owner",
                    "type": "address"
                },
                {
                    "indexed": true,
                    "internalType": "address",
                    "name": "relationship",
                    "type": "address"
                },
                {
                    "indexed": true,
                    "internalType": "address",
                    "name": "marketAddress",
                    "type": "address"
                }
            ],
            "name": "WorkRelationshipCreated",
            "type": "event"
        },
        {
            "anonymous": false,
            "inputs": [
                {
                    "indexed": true,
                    "internalType": "address",
                    "name": "owner",
                    "type": "address"
                },
                {
                    "indexed": true,
                    "internalType": "address",
                    "name": "relationship",
                    "type": "address"
                }
            ],
            "name": "WorkRelationshipEnded",
            "type": "event"
        },
        {
            "inputs": [],
            "name": "_marketName",
            "outputs": [
                {
                    "internalType": "string",
                    "name": "",
                    "type": "string"
                }
            ],
            "stateMutability": "view",
            "type": "function"
        },
        {
            "inputs": [],
            "name": "_marketStatus",
            "outputs": [
                {
                    "internalType": "enum MarketLib.MarketStatus",
                    "name": "",
                    "type": "uint8"
                }
            ],
            "stateMutability": "view",
            "type": "function"
        },
        {
            "inputs": [],
            "name": "_marketType",
            "outputs": [
                {
                    "internalType": "enum MarketLib.MarketType",
                    "name": "",
                    "type": "uint8"
                }
            ],
            "stateMutability": "view",
            "type": "function"
        },
        {
            "inputs": [],
            "name": "_requiredIndustryWeight",
            "outputs": [
                {
                    "internalType": "uint256",
                    "name": "",
                    "type": "uint256"
                }
            ],
            "stateMutability": "view",
            "type": "function"
        },
        {
            "inputs": [],
            "name": "_requiredReputation",
            "outputs": [
                {
                    "internalType": "uint256",
                    "name": "",
                    "type": "uint256"
                }
            ],
            "stateMutability": "view",
            "type": "function"
        },
        {
            "inputs": [
                {
                    "internalType": "address",
                    "name": "jobRequester",
                    "type": "address"
                },
                {
                    "internalType": "string",
                    "name": "taskMetadataPointer",
                    "type": "string"
                }
            ],
            "name": "createJob",
            "outputs": [],
            "stateMutability": "nonpayable",
            "type": "function"
        },
        {
            "inputs": [],
            "name": "getMarketState",
            "outputs": [
                {
                    "internalType": "bool",
                    "name": "",
                    "type": "bool"
                }
            ],
            "stateMutability": "view",
            "type": "function"
        },
        {
            "inputs": [],
            "name": "getNumJobs",
            "outputs": [
                {
                    "internalType": "uint256",
                    "name": "",
                    "type": "uint256"
                }
            ],
            "stateMutability": "view",
            "type": "function"
        },
        {
            "inputs": [],
            "name": "getWorkRelationships",
            "outputs": [
                {
                    "internalType": "contract WorkRelationship[]",
                    "name": "",
                    "type": "address[]"
                }
            ],
            "stateMutability": "view",
            "type": "function"
        },
        {
            "inputs": [],
            "name": "owner",
            "outputs": [
                {
                    "internalType": "address",
                    "name": "",
                    "type": "address"
                }
            ],
            "stateMutability": "view",
            "type": "function"
        },
        {
            "inputs": [],
            "name": "pauseMarket",
            "outputs": [],
            "stateMutability": "nonpayable",
            "type": "function"
        },
        {
            "inputs": [],
            "name": "paused",
            "outputs": [
                {
                    "internalType": "bool",
                    "name": "",
                    "type": "bool"
                }
            ],
            "stateMutability": "view",
            "type": "function"
        },
        {
            "inputs": [],
            "name": "renounceOwnership",
            "outputs": [],
            "stateMutability": "nonpayable",
            "type": "function"
        },
        {
            "inputs": [],
            "name": "resumeMarket",
            "outputs": [],
            "stateMutability": "nonpayable",
            "type": "function"
        },
        {
            "inputs": [
                {
                    "internalType": "address",
                    "name": "newOwner",
                    "type": "address"
                }
            ],
            "name": "transferOwnership",
            "outputs": [],
            "stateMutability": "nonpayable",
            "type": "function"
        }
    ],
    "bytecode": "60806040523480156200001157600080fd5b506040516200197838038062001978833981016040819052620000349162000199565b600080546001600160a01b031916339081178255604051909182917f8be0079c531659141344cd1fd0a4f28419497f9722a3daafe3b4186f6b6457e0908290a350600180546001600160a81b0319163360ff60a01b19161790558151620000a3906002906020850190620000de565b506003805482919060ff191660018381811115620000d157634e487b7160e01b600052602160045260246000fd5b02179055505050620002d7565b828054620000ec9062000284565b90600052602060002090601f0160209004810192826200011057600085556200015b565b82601f106200012b57805160ff19168380011785556200015b565b828001600101855582156200015b579182015b828111156200015b5782518255916020019190600101906200013e565b50620001699291506200016d565b5090565b5b808211156200016957600081556001016200016e565b8051600281106200019457600080fd5b919050565b60008060408385031215620001ac578182fd5b82516001600160401b0380821115620001c3578384fd5b818501915085601f830112620001d7578384fd5b815181811115620001ec57620001ec620002c1565b604051601f8201601f19908116603f01168101908382118183101715620002175762000217620002c1565b8160405282815260209350888484870101111562000233578687fd5b8691505b8282101562000256578482018401518183018501529083019062000237565b828211156200026757868484830101525b95506200027991505085820162000184565b925050509250929050565b600181811c908216806200029957607f821691505b60208210811415620002bb57634e487b7160e01b600052602260045260246000fd5b50919050565b634e487b7160e01b600052604160045260246000fd5b61169180620002e76000396000f3fe60806040523480156200001157600080fd5b5060043610620001095760003560e01c80637e0c00ed11620000a3578063a03738dc116200006e578063a03738dc14620001f9578063c143521f1462000203578063d8165743146200020d578063f2fde38b146200022057600080fd5b80637e0c00ed14620001bc578063838069f714620001c55780638da5cb5b14620001d35780639319106b14620001ef57600080fd5b80635c975abb11620000e45780635c975abb146200015d5780636039c8d7146200017c578063715018a614620001955780637cf63de9146200019f57600080fd5b80630f091637146200010e57806336e114fc146200012b5780633c6a1c671462000144575b600080fd5b6200011860045481565b6040519081526020015b60405180910390f35b6200013562000237565b604051620001229190620009ab565b6200015b6200015536600462000866565b6200029b565b005b600154600160a01b900460ff165b604051901515815260200162000122565b6200018662000370565b60405162000122919062000a0f565b6200015b62000406565b600354620001ad9060ff1681565b604051620001229190620009fa565b60075462000118565b600654620001ad9060ff1681565b6000546040516001600160a01b03909116815260200162000122565b6200015b62000486565b6200015b62000544565b6200011860055481565b600154600160a01b900460ff166200016b565b6200015b6200023136600462000842565b620005fe565b606060078054806020026020016040519081016040528092919081815260200182805480156200029157602002820191906000526020600020905b81546001600160a01b0316815260019091019060200180831162000272575b5050505050905090565b6001600160a01b038216620002af57600080fd5b60008282604051620002c19062000817565b620002ce9291906200097d565b604051809103906000f080158015620002eb573d6000803e3d6000fd5b506007805460018101825560009182527fa66cc928b5edb82af9bd49922954155ab7b0942694bea4ce44661d9a8736c6880180546001600160a01b0319166001600160a01b0384811691821790925560405193945030939092918716917f43af47c504a2f23934b1a816cd86633559721bf26c3656844bdde3edd4719e1391a4505050565b600280546200037f9062000a59565b80601f0160208091040260200160405190810160405280929190818152602001828054620003ad9062000a59565b8015620003fe5780601f10620003d257610100808354040283529160200191620003fe565b820191906000526020600020905b815481529060010190602001808311620003e057829003601f168201915b505050505081565b6000546001600160a01b031633146200043c5760405162461bcd60e51b8152600401620004339062000a24565b60405180910390fd5b600080546040516001600160a01b03909116907f8be0079c531659141344cd1fd0a4f28419497f9722a3daafe3b4186f6b6457e0908390a3600080546001600160a01b0319169055565b6000546001600160a01b03163314620004b35760405162461bcd60e51b8152600401620004339062000a24565b60015433906001600160a01b03168114620004cd57600080fd5b60035460ff166000816001811115620004f657634e487b7160e01b600052602160045260246000fd5b146200050157600080fd5b60065460ff1660008160018111156200052a57634e487b7160e01b600052602160045260246000fd5b146200053557600080fd5b6200053f620006ed565b505050565b6000546001600160a01b03163314620005715760405162461bcd60e51b8152600401620004339062000a24565b60015433906001600160a01b031681146200058b57600080fd5b60035460ff166000816001811115620005b457634e487b7160e01b600052602160045260246000fd5b14620005bf57600080fd5b60065460ff166001816001811115620005e857634e487b7160e01b600052602160045260246000fd5b1415620005f457600080fd5b6200053f6200078c565b6000546001600160a01b031633146200062b5760405162461bcd60e51b8152600401620004339062000a24565b6001600160a01b038116620006925760405162461bcd60e51b815260206004820152602660248201527f4f776e61626c653a206e6577206f776e657220697320746865207a65726f206160448201526564647265737360d01b606482015260840162000433565b600080546040516001600160a01b03808516939216917f8be0079c531659141344cd1fd0a4f28419497f9722a3daafe3b4186f6b6457e091a3600080546001600160a01b0319166001600160a01b0392909216919091179055565b600154600160a01b900460ff166200073f5760405162461bcd60e51b815260206004820152601460248201527314185d5cd8589b194e881b9bdd081c185d5cd95960621b604482015260640162000433565b6001805460ff60a01b191690557f5db9ee0a495bf2e6ff9c91a7834c1ba4fdd244a5e8aa4e537bd38aeae4b073aa335b6040516001600160a01b03909116815260200160405180910390a1565b600154600160a01b900460ff1615620007db5760405162461bcd60e51b815260206004820152601060248201526f14185d5cd8589b194e881c185d5cd95960821b604482015260640162000433565b6001805460ff60a01b1916600160a01b1790557f62e78cea01bee320cd4e420270b5ea74000d11b0c9f74754ebdbfc544b05a2586200076f3390565b610b8d8062000acf83390190565b80356001600160a01b03811681146200083d57600080fd5b919050565b60006020828403121562000854578081fd5b6200085f8262000825565b9392505050565b6000806040838503121562000879578081fd5b620008848362000825565b9150602083013567ffffffffffffffff80821115620008a1578283fd5b818501915085601f830112620008b5578283fd5b813581811115620008ca57620008ca62000a96565b604051601f8201601f19908116603f01168101908382118183101715620008f557620008f562000a96565b816040528281528860208487010111156200090e578586fd5b82602086016020830137856020848301015280955050505050509250929050565b60008151808452815b81811015620009565760208185018101518683018201520162000938565b81811115620009685782602083870101525b50601f01601f19169290920160200192915050565b6001600160a01b0383168152604060208201819052600090620009a3908301846200092f565b949350505050565b6020808252825182820181905260009190848201906040850190845b81811015620009ee5783516001600160a01b031683529284019291840191600101620009c7565b50909695505050505050565b6020810162000a098362000aac565b91905290565b6020815260006200085f60208301846200092f565b6020808252818101527f4f776e61626c653a2063616c6c6572206973206e6f7420746865206f776e6572604082015260600190565b600181811c9082168062000a6e57607f821691505b6020821081141562000a9057634e487b7160e01b600052602260045260246000fd5b50919050565b634e487b7160e01b600052604160045260246000fd5b6002811062000acb57634e487b7160e01b600052602160045260246000fd5b5056fe60a06040819052600060808190526200001b91600391620000b6565b506040805160208101918290526000908190526200003c91600491620000b6565b5060405162000b8d38038062000b8d8339810160408190526200005f916200015c565b6001600160a01b0382166200007357600080fd5b600280546001600160a01b0319166001600160a01b0384161790556005805460ff191690558051620000ad906003906020840190620000b6565b505050620002a8565b828054620000c49062000255565b90600052602060002090601f016020900481019282620000e8576000855562000133565b82601f106200010357805160ff191683800117855562000133565b8280016001018555821562000133579182015b828111156200013357825182559160200191906001019062000116565b506200014192915062000145565b5090565b5b8082111562000141576000815560010162000146565b600080604083850312156200016f578182fd5b82516001600160a01b038116811462000186578283fd5b602084810151919350906001600160401b0380821115620001a5578384fd5b818601915086601f830112620001b9578384fd5b815181811115620001ce57620001ce62000292565b604051601f8201601f19908116603f01168101908382118183101715620001f957620001f962000292565b81604052828152898684870101111562000211578687fd5b8693505b8284101562000234578484018601518185018701529285019262000215565b828411156200024557868684830101525b8096505050505050509250929050565b600181811c908216806200026a57607f821691505b602082108114156200028c57634e487b7160e01b600052602260045260246000fd5b50919050565b634e487b7160e01b600052604160045260246000fd5b6108d580620002b86000396000f3fe6080604052600436106100915760003560e01c8063cb18368711610059578063cb18368714610169578063df502c6b1461017c578063e6e8859314610191578063ec3a4790146101b8578063eebc6e3d146101d857600080fd5b806335e92819146100965780635db28c66146100b85780637843c0e4146100e35780638da5cb5b1461011b57806396d6d69614610139575b600080fd5b3480156100a257600080fd5b506100b66100b1366004610710565b6101f8565b005b3480156100c457600080fd5b506100cd610281565b6040516100da91906107b6565b60405180910390f35b3480156100ef57600080fd5b50600154610103906001600160a01b031681565b6040516001600160a01b0390911681526020016100da565b34801561012757600080fd5b506002546001600160a01b0316610103565b34801561014557600080fd5b5061015961015436600461064a565b61034c565b60405190151581526020016100da565b6100b6610177366004610629565b6103d5565b34801561018857600080fd5b506100cd610417565b34801561019d57600080fd5b506005546101ab9060ff1681565b6040516100da919061078e565b3480156101c457600080fd5b506100b66101d3366004610710565b6104a5565b3480156101e457600080fd5b50600054610103906001600160a01b031681565b6001546001600160a01b0316331461026a5760405162461bcd60e51b815260206004820152602a60248201527f576f726b52656c6174696f6e736869703a2063616c6c6572206973206e6f74206044820152693a3432903bb7b935b2b960b11b60648201526084015b60405180910390fd5b805161027d9060049060208401906104ed565b5050565b6060336102966002546001600160a01b031690565b6001600160a01b0316146102bc5760405162461bcd60e51b8152600401610261906107c9565b600480546102c99061084e565b80601f01602080910402602001604051908101604052809291908181526020018280546102f59061084e565b80156103425780601f1061031757610100808354040283529160200191610342565b820191906000526020600020905b81548152906001019060200180831161032557829003601f168201915b5050505050905090565b600080836001600160a01b0316635d5f221f846040518263ffffffff1660e01b815260040161037b9190610812565b602060405180830381600087803b15801561039557600080fd5b505af11580156103a9573d6000803e3d6000fd5b505050506040513d601f19601f820116820180604052508101906103cd91906106f0565b949350505050565b336001600160a01b038216146103ea57600080fd5b600180546001600160a01b0319166001600160a01b03831617905560058054600660ff1990911617905550565b600380546104249061084e565b80601f01602080910402602001604051908101604052809291908181526020018280546104509061084e565b801561049d5780601f106104725761010080835404028352916020019161049d565b820191906000526020600020905b81548152906001019060200180831161048057829003601f168201915b505050505081565b336104b86002546001600160a01b031690565b6001600160a01b0316146104de5760405162461bcd60e51b8152600401610261906107c9565b805161027d9060039060208401905b8280546104f99061084e565b90600052602060002090601f01602090048101928261051b5760008555610561565b82601f1061053457805160ff1916838001178555610561565b82800160010185558215610561579182015b82811115610561578251825591602001919060010190610546565b5061056d929150610571565b5090565b5b8082111561056d5760008155600101610572565b80356001600160a01b038116811461059d57600080fd5b919050565b600082601f8301126105b2578081fd5b813567ffffffffffffffff808211156105cd576105cd610889565b604051601f8301601f19908116603f011681019082821181831017156105f5576105f5610889565b8160405283815286602085880101111561060d578485fd5b8360208701602083013792830160200193909352509392505050565b60006020828403121561063a578081fd5b61064382610586565b9392505050565b6000806040838503121561065c578081fd5b61066583610586565b9150602083013567ffffffffffffffff80821115610681578283fd5b9084019060608287031215610694578283fd5b6040516060810181811083821117156106af576106af610889565b6040528235828111156106c0578485fd5b6106cc888286016105a2565b82525060208301356020820152604083013560408201528093505050509250929050565b600060208284031215610701578081fd5b81518015158114610643578182fd5b600060208284031215610721578081fd5b813567ffffffffffffffff811115610737578182fd5b6103cd848285016105a2565b60008151808452815b818110156107685760208185018101518683018201520161074c565b818111156107795782602083870101525b50601f01601f19169290920160200192915050565b60208101600783106107b057634e487b7160e01b600052602160045260246000fd5b91905290565b6020815260006106436020830184610743565b60208082526029908201527f576f726b52656c6174696f6e736869703a2063616c6c6572206973206e6f74206040820152683a34329037bbb732b960b91b606082015260800190565b60208152600082516060602084015261082e6080840182610743565b905060208401516040840152604084015160608401528091505092915050565b600181811c9082168061086257607f821691505b6020821081141561088357634e487b7160e01b600052602260045260246000fd5b50919050565b634e487b7160e01b600052604160045260246000fdfea2646970667358221220103fb3ab703dec9ce159cbe6b2422245a581a7810ecb726c36a4d1bc4cdd9ed664736f6c63430008040033a26469706673582212201843b2e09247fb27fbad4c6c96731ba39a4a65471592e7c80d9910ab20d6cc9064736f6c63430008040033",
    "sourcePath": "/Users/elijahhampton/Desktop/opportunity-core/src/contracts/market/Market.sol",
    "compiler": {
        "name": "solc",
        "version": "0.8.4+commit.c7e474f2"
    },
    "functionHashes": {
        "_marketName()": "6039c8d7",
        "_marketStatus()": "838069f7",
        "_marketType()": "7cf63de9",
        "_requiredIndustryWeight()": "c143521f",
        "_requiredReputation()": "0f091637",
        "createJob(address,string)": "3c6a1c67",
        "getMarketState()": "d8165743",
        "getNumJobs()": "7e0c00ed",
        "getWorkRelationships()": "36e114fc",
        "owner()": "8da5cb5b",
        "pauseMarket()": "a03738dc",
        "paused()": "5c975abb",
        "renounceOwnership()": "715018a6",
        "resumeMarket()": "9319106b",
        "transferOwnership(address)": "f2fde38b"
    },
    "gasEstimates": {
        "creation": {
            "codeDepositCost": "1155400",
            "executionCost": "infinite",
            "totalCost": "infinite"
        },
        "external": {
            "_marketName()": "infinite",
            "_marketStatus()": "1125",
            "_marketType()": "1169",
            "_requiredIndustryWeight()": "1028",
            "_requiredReputation()": "1008",
            "createJob(address,string)": "infinite",
            "getMarketState()": "1087",
            "getNumJobs()": "1004",
            "getWorkRelationships()": "infinite",
            "owner()": "1068",
            "pauseMarket()": "26372",
            "paused()": "1033",
            "renounceOwnership()": "24232",
            "resumeMarket()": "26407",
            "transferOwnership(address)": "24488"
        },
        "internal": {
            "destroyMarket()": "infinite"
        }
    }
}