{
    "contractName": "Market",
    "abi": [
        {
            "inputs": [
                {
                    "internalType": "string",
                    "name": "marketName",
                    "type": "string"
                },
                {
                    "internalType": "enum MarketLib.MarketType",
                    "name": "marketType",
                    "type": "uint8"
                }
            ],
            "stateMutability": "nonpayable",
            "type": "constructor"
        },
        {
            "anonymous": false,
            "inputs": [
                {
                    "indexed": true,
                    "internalType": "address",
                    "name": "marketAddress",
                    "type": "address"
                },
                {
                    "indexed": true,
                    "internalType": "string",
                    "name": "marketName",
                    "type": "string"
                },
                {
                    "indexed": true,
                    "internalType": "address",
                    "name": "workRelationship",
                    "type": "address"
                },
                {
                    "indexed": false,
                    "internalType": "uint256",
                    "name": "relationshipIndex",
                    "type": "uint256"
                }
            ],
            "name": "MarketObservingRelationship",
            "type": "event"
        },
        {
            "anonymous": false,
            "inputs": [
                {
                    "indexed": true,
                    "internalType": "address",
                    "name": "marketAddress",
                    "type": "address"
                },
                {
                    "indexed": true,
                    "internalType": "string",
                    "name": "marketName",
                    "type": "string"
                }
            ],
            "name": "MarketPaused",
            "type": "event"
        },
        {
            "anonymous": false,
            "inputs": [
                {
                    "indexed": true,
                    "internalType": "address",
                    "name": "marketAddress",
                    "type": "address"
                },
                {
                    "indexed": true,
                    "internalType": "string",
                    "name": "marketName",
                    "type": "string"
                }
            ],
            "name": "MarketResumed",
            "type": "event"
        },
        {
            "anonymous": false,
            "inputs": [
                {
                    "indexed": true,
                    "internalType": "address",
                    "name": "marketAddress",
                    "type": "address"
                },
                {
                    "indexed": true,
                    "internalType": "string",
                    "name": "marketName",
                    "type": "string"
                },
                {
                    "indexed": true,
                    "internalType": "address",
                    "name": "workRelationship",
                    "type": "address"
                }
            ],
            "name": "MarketUnObservingRelationship",
            "type": "event"
        },
        {
            "anonymous": false,
            "inputs": [
                {
                    "indexed": true,
                    "internalType": "address",
                    "name": "previousOwner",
                    "type": "address"
                },
                {
                    "indexed": true,
                    "internalType": "address",
                    "name": "newOwner",
                    "type": "address"
                }
            ],
            "name": "OwnershipTransferred",
            "type": "event"
        },
        {
            "anonymous": false,
            "inputs": [
                {
                    "indexed": false,
                    "internalType": "address",
                    "name": "account",
                    "type": "address"
                }
            ],
            "name": "Paused",
            "type": "event"
        },
        {
            "anonymous": false,
            "inputs": [
                {
                    "indexed": false,
                    "internalType": "address",
                    "name": "account",
                    "type": "address"
                }
            ],
            "name": "Unpaused",
            "type": "event"
        },
        {
            "inputs": [],
            "name": "_marketName",
            "outputs": [
                {
                    "internalType": "string",
                    "name": "",
                    "type": "string"
                }
            ],
            "stateMutability": "view",
            "type": "function"
        },
        {
            "inputs": [],
            "name": "_marketStatus",
            "outputs": [
                {
                    "internalType": "enum MarketLib.MarketStatus",
                    "name": "",
                    "type": "uint8"
                }
            ],
            "stateMutability": "view",
            "type": "function"
        },
        {
            "inputs": [],
            "name": "_marketType",
            "outputs": [
                {
                    "internalType": "enum MarketLib.MarketType",
                    "name": "",
                    "type": "uint8"
                }
            ],
            "stateMutability": "view",
            "type": "function"
        },
        {
            "inputs": [],
            "name": "_requiredIndustryWeight",
            "outputs": [
                {
                    "internalType": "uint256",
                    "name": "",
                    "type": "uint256"
                }
            ],
            "stateMutability": "view",
            "type": "function"
        },
        {
            "inputs": [],
            "name": "_requiredReputation",
            "outputs": [
                {
                    "internalType": "uint256",
                    "name": "",
                    "type": "uint256"
                }
            ],
            "stateMutability": "view",
            "type": "function"
        },
        {
            "inputs": [
                {
                    "internalType": "address",
                    "name": "newRelationship",
                    "type": "address"
                }
            ],
            "name": "addRelationship",
            "outputs": [],
            "stateMutability": "nonpayable",
            "type": "function"
        },
        {
            "inputs": [],
            "name": "getMarketState",
            "outputs": [
                {
                    "internalType": "bool",
                    "name": "",
                    "type": "bool"
                }
            ],
            "stateMutability": "view",
            "type": "function"
        },
        {
            "inputs": [],
            "name": "getWorkRelationships",
            "outputs": [
                {
                    "internalType": "address[]",
                    "name": "",
                    "type": "address[]"
                }
            ],
            "stateMutability": "view",
            "type": "function"
        },
        {
            "inputs": [],
            "name": "owner",
            "outputs": [
                {
                    "internalType": "address",
                    "name": "",
                    "type": "address"
                }
            ],
            "stateMutability": "view",
            "type": "function"
        },
        {
            "inputs": [],
            "name": "pauseMarket",
            "outputs": [],
            "stateMutability": "nonpayable",
            "type": "function"
        },
        {
            "inputs": [],
            "name": "paused",
            "outputs": [
                {
                    "internalType": "bool",
                    "name": "",
                    "type": "bool"
                }
            ],
            "stateMutability": "view",
            "type": "function"
        },
        {
            "inputs": [
                {
                    "internalType": "address",
                    "name": "relationship",
                    "type": "address"
                },
                {
                    "internalType": "uint256",
                    "name": "index",
                    "type": "uint256"
                }
            ],
            "name": "removeRelationship",
            "outputs": [],
            "stateMutability": "nonpayable",
            "type": "function"
        },
        {
            "inputs": [],
            "name": "renounceOwnership",
            "outputs": [],
            "stateMutability": "nonpayable",
            "type": "function"
        },
        {
            "inputs": [],
            "name": "resumeMarket",
            "outputs": [],
            "stateMutability": "nonpayable",
            "type": "function"
        },
        {
            "inputs": [
                {
                    "internalType": "address",
                    "name": "newOwner",
                    "type": "address"
                }
            ],
            "name": "transferOwnership",
            "outputs": [],
            "stateMutability": "nonpayable",
            "type": "function"
        }
    ],
    "bytecode": "60806040523480156200001157600080fd5b5060405162000dc338038062000dc3833981016040819052620000349162000199565b600080546001600160a01b031916339081178255604051909182917f8be0079c531659141344cd1fd0a4f28419497f9722a3daafe3b4186f6b6457e0908290a350600180546001600160a81b0319163360ff60a01b19161790558151620000a3906002906020850190620000de565b506003805482919060ff191660018381811115620000d157634e487b7160e01b600052602160045260246000fd5b02179055505050620002d7565b828054620000ec9062000284565b90600052602060002090601f0160209004810192826200011057600085556200015b565b82601f106200012b57805160ff19168380011785556200015b565b828001600101855582156200015b579182015b828111156200015b5782518255916020019190600101906200013e565b50620001699291506200016d565b5090565b5b808211156200016957600081556001016200016e565b8051600281106200019457600080fd5b919050565b60008060408385031215620001ac578182fd5b82516001600160401b0380821115620001c3578384fd5b818501915085601f830112620001d7578384fd5b815181811115620001ec57620001ec620002c1565b604051601f8201601f19908116603f01168101908382118183101715620002175762000217620002c1565b8160405282815260209350888484870101111562000233578687fd5b8691505b8282101562000256578482018401518183018501529083019062000237565b828211156200026757868484830101525b95506200027991505085820162000184565b925050509250929050565b600181811c908216806200029957607f821691505b60208210811415620002bb57634e487b7160e01b600052602260045260246000fd5b50919050565b634e487b7160e01b600052604160045260246000fd5b610adc80620002e76000396000f3fe608060405234801561001057600080fd5b50600436106100f55760003560e01c8063838069f711610097578063bb2c348411610066578063bb2c3484146101cd578063c143521f146101e0578063d8165743146101e9578063f2fde38b146101fb57600080fd5b8063838069f7146101955780638da5cb5b146101a25780639319106b146101bd578063a03738dc146101c557600080fd5b80636039c8d7116100d35780636039c8d714610149578063715018a61461015e57806379bda937146101685780637cf63de91461017b57600080fd5b80630f091637146100fa57806336e114fc146101165780635c975abb1461012b575b600080fd5b61010360045481565b6040519081526020015b60405180910390f35b61011e61020e565b60405161010d919061093e565b600154600160a01b900460ff165b604051901515815260200161010d565b610151610270565b60405161010d919061099e565b6101666102fe565b005b610166610176366004610859565b61037b565b6003546101889060ff1681565b60405161010d919061098b565b6006546101889060ff1681565b6000546040516001600160a01b03909116815260200161010d565b610166610440565b6101666104f4565b6101666101db36600461087a565b6105a4565b61010360055481565b600154600160a01b900460ff16610139565b610166610209366004610859565b61062e565b6060600780548060200260200160405190810160405280929190818152602001828054801561026657602002820191906000526020600020905b81546001600160a01b03168152600190910190602001808311610248575b5050505050905090565b6002805461027d90610a4a565b80601f01602080910402602001604051908101604052809291908181526020018280546102a990610a4a565b80156102f65780601f106102cb576101008083540402835291602001916102f6565b820191906000526020600020905b8154815290600101906020018083116102d957829003601f168201915b505050505081565b6000546001600160a01b031633146103315760405162461bcd60e51b8152600401610328906109f1565b60405180910390fd5b600080546040516001600160a01b03909116907f8be0079c531659141344cd1fd0a4f28419497f9722a3daafe3b4186f6b6457e0908390a3600080546001600160a01b0319169055565b6001600160a01b03811661038e57600080fd5b60075460009061039f906001610a26565b600780546001810182556000919091527fa66cc928b5edb82af9bd49922954155ab7b0942694bea4ce44661d9a8736c6880180546001600160a01b0319166001600160a01b03851690811790915560405191925090610400906002906108a3565b6040519081900381208382529030907f995ef0f2c501b2a2ca468ecea24670295c76824d1f4e27669e69318a4544b8fa9060200160405180910390a45050565b6000546001600160a01b0316331461046a5760405162461bcd60e51b8152600401610328906109f1565b60015433906001600160a01b0316811461048357600080fd5b60035460ff1660008160018111156104ab57634e487b7160e01b600052602160045260246000fd5b146104b557600080fd5b60065460ff1660008160018111156104dd57634e487b7160e01b600052602160045260246000fd5b146104e757600080fd5b6104ef610718565b505050565b6000546001600160a01b0316331461051e5760405162461bcd60e51b8152600401610328906109f1565b60015433906001600160a01b0316811461053757600080fd5b60035460ff16600081600181111561055f57634e487b7160e01b600052602160045260246000fd5b1461056957600080fd5b60065460ff16600181600181111561059157634e487b7160e01b600052602160045260246000fd5b141561059c57600080fd5b6104ef6107b5565b600781815481106105c557634e487b7160e01b600052603260045260246000fd5b600091825260209091200180546001600160a01b03191690556040516001600160a01b038316906105f8906002906108a3565b6040519081900381209030907f3a3eccfff146c0e9036261655797d1c38bbbd8083e812576116a6befa390038c90600090a45050565b6000546001600160a01b031633146106585760405162461bcd60e51b8152600401610328906109f1565b6001600160a01b0381166106bd5760405162461bcd60e51b815260206004820152602660248201527f4f776e61626c653a206e6577206f776e657220697320746865207a65726f206160448201526564647265737360d01b6064820152608401610328565b600080546040516001600160a01b03808516939216917f8be0079c531659141344cd1fd0a4f28419497f9722a3daafe3b4186f6b6457e091a3600080546001600160a01b0319166001600160a01b0392909216919091179055565b600154600160a01b900460ff166107685760405162461bcd60e51b815260206004820152601460248201527314185d5cd8589b194e881b9bdd081c185d5cd95960621b6044820152606401610328565b6001805460ff60a01b191690557f5db9ee0a495bf2e6ff9c91a7834c1ba4fdd244a5e8aa4e537bd38aeae4b073aa335b6040516001600160a01b03909116815260200160405180910390a1565b600154600160a01b900460ff16156108025760405162461bcd60e51b815260206004820152601060248201526f14185d5cd8589b194e881c185d5cd95960821b6044820152606401610328565b6001805460ff60a01b1916600160a01b1790557f62e78cea01bee320cd4e420270b5ea74000d11b0c9f74754ebdbfc544b05a2586107983390565b80356001600160a01b038116811461085457600080fd5b919050565b60006020828403121561086a578081fd5b6108738261083d565b9392505050565b6000806040838503121561088c578081fd5b6108958361083d565b946020939093013593505050565b600080835482600182811c9150808316806108bf57607f831692505b60208084108214156108df57634e487b7160e01b87526022600452602487fd5b8180156108f3576001811461090457610930565b60ff19861689528489019650610930565b60008a815260209020885b868110156109285781548b82015290850190830161090f565b505084890196505b509498975050505050505050565b6020808252825182820181905260009190848201906040850190845b8181101561097f5783516001600160a01b03168352928401929184019160010161095a565b50909695505050505050565b6020810161099883610a85565b91905290565b6000602080835283518082850152825b818110156109ca578581018301518582016040015282016109ae565b818111156109db5783604083870101525b50601f01601f1916929092016040019392505050565b6020808252818101527f4f776e61626c653a2063616c6c6572206973206e6f7420746865206f776e6572604082015260600190565b60008219821115610a4557634e487b7160e01b81526011600452602481fd5b500190565b600181811c90821680610a5e57607f821691505b60208210811415610a7f57634e487b7160e01b600052602260045260246000fd5b50919050565b60028110610aa357634e487b7160e01b600052602160045260246000fd5b5056fea26469706673582212203b952dcc7678b93c74d6da13d1875ad6173737e409f9474308af4dd1c90d352564736f6c63430008040033",
    "sourcePath": "/Users/elijahhampton/git/opportunity-core/src/contracts/market/Market.sol",
    "compiler": {
        "name": "solc",
        "version": "0.8.4+commit.c7e474f2"
    },
    "functionHashes": {
        "_marketName()": "6039c8d7",
        "_marketStatus()": "838069f7",
        "_marketType()": "7cf63de9",
        "_requiredIndustryWeight()": "c143521f",
        "_requiredReputation()": "0f091637",
        "addRelationship(address)": "79bda937",
        "getMarketState()": "d8165743",
        "getWorkRelationships()": "36e114fc",
        "owner()": "8da5cb5b",
        "pauseMarket()": "a03738dc",
        "paused()": "5c975abb",
        "removeRelationship(address,uint256)": "bb2c3484",
        "renounceOwnership()": "715018a6",
        "resumeMarket()": "9319106b",
        "transferOwnership(address)": "f2fde38b"
    },
    "gasEstimates": {
        "creation": {
            "codeDepositCost": "556000",
            "executionCost": "infinite",
            "totalCost": "infinite"
        },
        "external": {
            "_marketName()": "infinite",
            "_marketStatus()": "1103",
            "_marketType()": "1169",
            "_requiredIndustryWeight()": "1028",
            "_requiredReputation()": "1008",
            "addRelationship(address)": "infinite",
            "getMarketState()": "1087",
            "getWorkRelationships()": "infinite",
            "owner()": "1046",
            "pauseMarket()": "26439",
            "paused()": "1078",
            "removeRelationship(address,uint256)": "infinite",
            "renounceOwnership()": "24210",
            "resumeMarket()": "26385",
            "transferOwnership(address)": "24488"
        },
        "internal": {
            "destroyMarket()": "infinite"
        }
    }
}