{
  "contractName": "Dai",
  "abi": [
    {
      "inputs": [
        {
          "internalType": "uint256",
          "name": "chainId_",
          "type": "uint256"
        }
      ],
      "stateMutability": "nonpayable",
      "type": "constructor"
    },
    {
      "anonymous": false,
      "inputs": [
        {
          "indexed": true,
          "internalType": "address",
          "name": "src",
          "type": "address"
        },
        {
          "indexed": true,
          "internalType": "address",
          "name": "guy",
          "type": "address"
        },
        {
          "indexed": false,
          "internalType": "uint256",
          "name": "wad",
          "type": "uint256"
        }
      ],
      "name": "Approval",
      "type": "event"
    },
    {
      "anonymous": false,
      "inputs": [
        {
          "indexed": true,
          "internalType": "address",
          "name": "src",
          "type": "address"
        },
        {
          "indexed": true,
          "internalType": "address",
          "name": "dst",
          "type": "address"
        },
        {
          "indexed": false,
          "internalType": "uint256",
          "name": "wad",
          "type": "uint256"
        }
      ],
      "name": "Transfer",
      "type": "event"
    },
    {
      "inputs": [],
      "name": "DOMAIN_SEPARATOR",
      "outputs": [
        {
          "internalType": "bytes32",
          "name": "",
          "type": "bytes32"
        }
      ],
      "stateMutability": "view",
      "type": "function"
    },
    {
      "inputs": [],
      "name": "PERMIT_TYPEHASH",
      "outputs": [
        {
          "internalType": "bytes32",
          "name": "",
          "type": "bytes32"
        }
      ],
      "stateMutability": "view",
      "type": "function"
    },
    {
      "inputs": [
        {
          "internalType": "address",
          "name": "",
          "type": "address"
        },
        {
          "internalType": "address",
          "name": "",
          "type": "address"
        }
      ],
      "name": "allowance",
      "outputs": [
        {
          "internalType": "uint256",
          "name": "",
          "type": "uint256"
        }
      ],
      "stateMutability": "view",
      "type": "function"
    },
    {
      "inputs": [
        {
          "internalType": "address",
          "name": "",
          "type": "address"
        }
      ],
      "name": "balanceOf",
      "outputs": [
        {
          "internalType": "uint256",
          "name": "",
          "type": "uint256"
        }
      ],
      "stateMutability": "view",
      "type": "function"
    },
    {
      "inputs": [],
      "name": "decimals",
      "outputs": [
        {
          "internalType": "uint8",
          "name": "",
          "type": "uint8"
        }
      ],
      "stateMutability": "view",
      "type": "function"
    },
    {
      "inputs": [],
      "name": "name",
      "outputs": [
        {
          "internalType": "string",
          "name": "",
          "type": "string"
        }
      ],
      "stateMutability": "view",
      "type": "function"
    },
    {
      "inputs": [
        {
          "internalType": "address",
          "name": "",
          "type": "address"
        }
      ],
      "name": "nonces",
      "outputs": [
        {
          "internalType": "uint256",
          "name": "",
          "type": "uint256"
        }
      ],
      "stateMutability": "view",
      "type": "function"
    },
    {
      "inputs": [],
      "name": "symbol",
      "outputs": [
        {
          "internalType": "string",
          "name": "",
          "type": "string"
        }
      ],
      "stateMutability": "view",
      "type": "function"
    },
    {
      "inputs": [],
      "name": "totalSupply",
      "outputs": [
        {
          "internalType": "uint256",
          "name": "",
          "type": "uint256"
        }
      ],
      "stateMutability": "view",
      "type": "function"
    },
    {
      "inputs": [],
      "name": "version",
      "outputs": [
        {
          "internalType": "string",
          "name": "",
          "type": "string"
        }
      ],
      "stateMutability": "view",
      "type": "function"
    },
    {
      "inputs": [
        {
          "internalType": "address",
          "name": "",
          "type": "address"
        }
      ],
      "name": "wards",
      "outputs": [
        {
          "internalType": "uint256",
          "name": "",
          "type": "uint256"
        }
      ],
      "stateMutability": "view",
      "type": "function"
    },
    {
      "inputs": [
        {
          "internalType": "address",
          "name": "guy",
          "type": "address"
        }
      ],
      "name": "rely",
      "outputs": [],
      "stateMutability": "nonpayable",
      "type": "function"
    },
    {
      "inputs": [
        {
          "internalType": "address",
          "name": "guy",
          "type": "address"
        }
      ],
      "name": "deny",
      "outputs": [],
      "stateMutability": "nonpayable",
      "type": "function"
    },
    {
      "inputs": [
        {
          "internalType": "address",
          "name": "dst",
          "type": "address"
        },
        {
          "internalType": "uint256",
          "name": "wad",
          "type": "uint256"
        }
      ],
      "name": "transfer",
      "outputs": [
        {
          "internalType": "bool",
          "name": "",
          "type": "bool"
        }
      ],
      "stateMutability": "nonpayable",
      "type": "function"
    },
    {
      "inputs": [
        {
          "internalType": "address",
          "name": "src",
          "type": "address"
        },
        {
          "internalType": "address",
          "name": "dst",
          "type": "address"
        },
        {
          "internalType": "uint256",
          "name": "wad",
          "type": "uint256"
        }
      ],
      "name": "transferFrom",
      "outputs": [
        {
          "internalType": "bool",
          "name": "",
          "type": "bool"
        }
      ],
      "stateMutability": "nonpayable",
      "type": "function"
    },
    {
      "inputs": [
        {
          "internalType": "address",
          "name": "usr",
          "type": "address"
        },
        {
          "internalType": "uint256",
          "name": "wad",
          "type": "uint256"
        }
      ],
      "name": "mint",
      "outputs": [],
      "stateMutability": "nonpayable",
      "type": "function"
    },
    {
      "inputs": [
        {
          "internalType": "address",
          "name": "usr",
          "type": "address"
        },
        {
          "internalType": "uint256",
          "name": "wad",
          "type": "uint256"
        }
      ],
      "name": "burn",
      "outputs": [],
      "stateMutability": "nonpayable",
      "type": "function"
    },
    {
      "inputs": [
        {
          "internalType": "address",
          "name": "usr",
          "type": "address"
        },
        {
          "internalType": "uint256",
          "name": "wad",
          "type": "uint256"
        }
      ],
      "name": "approve",
      "outputs": [
        {
          "internalType": "bool",
          "name": "",
          "type": "bool"
        }
      ],
      "stateMutability": "nonpayable",
      "type": "function"
    },
    {
      "inputs": [
        {
          "internalType": "address",
          "name": "usr",
          "type": "address"
        },
        {
          "internalType": "uint256",
          "name": "wad",
          "type": "uint256"
        }
      ],
      "name": "push",
      "outputs": [],
      "stateMutability": "nonpayable",
      "type": "function"
    },
    {
      "inputs": [
        {
          "internalType": "address",
          "name": "usr",
          "type": "address"
        },
        {
          "internalType": "uint256",
          "name": "wad",
          "type": "uint256"
        }
      ],
      "name": "pull",
      "outputs": [],
      "stateMutability": "nonpayable",
      "type": "function"
    },
    {
      "inputs": [
        {
          "internalType": "address",
          "name": "src",
          "type": "address"
        },
        {
          "internalType": "address",
          "name": "dst",
          "type": "address"
        },
        {
          "internalType": "uint256",
          "name": "wad",
          "type": "uint256"
        }
      ],
      "name": "move",
      "outputs": [],
      "stateMutability": "nonpayable",
      "type": "function"
    },
    {
      "inputs": [
        {
          "internalType": "address",
          "name": "holder",
          "type": "address"
        },
        {
          "internalType": "address",
          "name": "spender",
          "type": "address"
        },
        {
          "internalType": "uint256",
          "name": "nonce",
          "type": "uint256"
        },
        {
          "internalType": "uint256",
          "name": "expiry",
          "type": "uint256"
        },
        {
          "internalType": "bool",
          "name": "allowed",
          "type": "bool"
        },
        {
          "internalType": "uint8",
          "name": "v",
          "type": "uint8"
        },
        {
          "internalType": "bytes32",
          "name": "r",
          "type": "bytes32"
        },
        {
          "internalType": "bytes32",
          "name": "s",
          "type": "bytes32"
        }
      ],
      "name": "permit",
      "outputs": [],
      "stateMutability": "nonpayable",
      "type": "function"
    }
  ],
  "bytecode": "0x60806040523480156200001157600080fd5b50604051620022ca380380620022ca833981810160405281019062000037919062000168565b60016000803373ffffffffffffffffffffffffffffffffffffffff1673ffffffffffffffffffffffffffffffffffffffff168152602001908152602001600020819055507f8b73c3c69bb8fe3d512ecc4cf759cc79239f7b179b0ffacaa9a75d522b39400f6040518060400160405280600e81526020017f44616920537461626c65636f696e000000000000000000000000000000000000815250805190602001206040518060400160405280600181526020017f31000000000000000000000000000000000000000000000000000000000000008152508051906020012083306040516020016200012e959493929190620001c7565b604051602081830303815290604052805190602001206005819055505062000286565b60008151905062000162816200026c565b92915050565b6000602082840312156200017b57600080fd5b60006200018b8482850162000151565b91505092915050565b6200019f8162000224565b82525050565b620001b08162000238565b82525050565b620001c18162000262565b82525050565b600060a082019050620001de6000830188620001a5565b620001ed6020830187620001a5565b620001fc6040830186620001a5565b6200020b6060830185620001b6565b6200021a608083018462000194565b9695505050505050565b6000620002318262000242565b9050919050565b6000819050919050565b600073ffffffffffffffffffffffffffffffffffffffff82169050919050565b6000819050919050565b620002778162000262565b81146200028357600080fd5b50565b61203480620002966000396000f3fe608060405234801561001057600080fd5b50600436106101425760003560e01c80637ecebe00116100b8578063a9059cbb1161007c578063a9059cbb14610365578063b753a98c14610395578063bb35783b146103b1578063bf353dbb146103cd578063dd62ed3e146103fd578063f2d5d56b1461042d57610142565b80637ecebe00146102c35780638fcbaf0c146102f357806395d89b411461030f5780639c52a7f11461032d5780639dc29fac1461034957610142565b8063313ce5671161010a578063313ce567146102015780633644e5151461021f57806340c10f191461023d57806354fd4d501461025957806365fae35e1461027757806370a082311461029357610142565b806306fdde0314610147578063095ea7b31461016557806318160ddd1461019557806323b872dd146101b357806330adf81f146101e3575b600080fd5b61014f610449565b60405161015c9190611b35565b60405180910390f35b61017f600480360381019061017a9190611833565b610482565b60405161018c9190611a59565b60405180910390f35b61019d610574565b6040516101aa9190611c37565b60405180910390f35b6101cd60048036038101906101c89190611732565b61057a565b6040516101da9190611a59565b60405180910390f35b6101eb610a0a565b6040516101f89190611a74565b60405180910390f35b610209610a31565b6040516102169190611c52565b60405180910390f35b610227610a36565b6040516102349190611a74565b60405180910390f35b61025760048036038101906102529190611833565b610a3c565b005b610261610bc5565b60405161026e9190611b35565b60405180910390f35b610291600480360381019061028c91906116cd565b610bfe565b005b6102ad60048036038101906102a891906116cd565b610cc6565b6040516102ba9190611c37565b60405180910390f35b6102dd60048036038101906102d891906116cd565b610cde565b6040516102ea9190611c37565b60405180910390f35b61030d60048036038101906103089190611781565b610cf6565b005b61031761108c565b6040516103249190611b35565b60405180910390f35b610347600480360381019061034291906116cd565b6110c5565b005b610363600480360381019061035e9190611833565b61118d565b005b61037f600480360381019061037a9190611833565b61159b565b60405161038c9190611a59565b60405180910390f35b6103af60048036038101906103aa9190611833565b6115b0565b005b6103cb60048036038101906103c69190611732565b6115c0565b005b6103e760048036038101906103e291906116cd565b6115d1565b6040516103f49190611c37565b60405180910390f35b610417600480360381019061041291906116f6565b6115e9565b6040516104249190611c37565b60405180910390f35b61044760048036038101906104429190611833565b61160e565b005b6040518060400160405280600e81526020017f44616920537461626c65636f696e00000000000000000000000000000000000081525081565b600081600360003373ffffffffffffffffffffffffffffffffffffffff1673ffffffffffffffffffffffffffffffffffffffff16815260200190815260200160002060008573ffffffffffffffffffffffffffffffffffffffff1673ffffffffffffffffffffffffffffffffffffffff168152602001908152602001600020819055508273ffffffffffffffffffffffffffffffffffffffff163373ffffffffffffffffffffffffffffffffffffffff167f8c5be1e5ebec7d5bd14f71427d1e84f3dd0314c0f7b2291e5b200ac8c7c3b925846040516105629190611c37565b60405180910390a36001905092915050565b60015481565b600081600260008673ffffffffffffffffffffffffffffffffffffffff1673ffffffffffffffffffffffffffffffffffffffff1681526020019081526020016000205410156105fe576040517f08c379a00000000000000000000000000000000000000000000000000000000081526004016105f590611bd7565b60405180910390fd5b3373ffffffffffffffffffffffffffffffffffffffff168473ffffffffffffffffffffffffffffffffffffffff16141580156106b757506001600360008673ffffffffffffffffffffffffffffffffffffffff1673ffffffffffffffffffffffffffffffffffffffff16815260200190815260200160002060003373ffffffffffffffffffffffffffffffffffffffff1673ffffffffffffffffffffffffffffffffffffffff1681526020019081526020016000205414155b156108825781600360008673ffffffffffffffffffffffffffffffffffffffff1673ffffffffffffffffffffffffffffffffffffffff16815260200190815260200160002060003373ffffffffffffffffffffffffffffffffffffffff1673ffffffffffffffffffffffffffffffffffffffff16815260200190815260200160002054101561077b576040517f08c379a000000000000000000000000000000000000000000000000000000000815260040161077290611bf7565b60405180910390fd5b610801600360008673ffffffffffffffffffffffffffffffffffffffff1673ffffffffffffffffffffffffffffffffffffffff16815260200190815260200160002060003373ffffffffffffffffffffffffffffffffffffffff1673ffffffffffffffffffffffffffffffffffffffff168152602001908152602001600020548361161e565b600360008673ffffffffffffffffffffffffffffffffffffffff1673ffffffffffffffffffffffffffffffffffffffff16815260200190815260200160002060003373ffffffffffffffffffffffffffffffffffffffff1673ffffffffffffffffffffffffffffffffffffffff168152602001908152602001600020819055505b6108cb600260008673ffffffffffffffffffffffffffffffffffffffff1673ffffffffffffffffffffffffffffffffffffffff168152602001908152602001600020548361161e565b600260008673ffffffffffffffffffffffffffffffffffffffff1673ffffffffffffffffffffffffffffffffffffffff16815260200190815260200160002081905550610957600260008573ffffffffffffffffffffffffffffffffffffffff1673ffffffffffffffffffffffffffffffffffffffff1681526020019081526020016000205483611641565b600260008573ffffffffffffffffffffffffffffffffffffffff1673ffffffffffffffffffffffffffffffffffffffff168152602001908152602001600020819055508273ffffffffffffffffffffffffffffffffffffffff168473ffffffffffffffffffffffffffffffffffffffff167fddf252ad1be2c89b69c2b068fc378daa952ba7f163c4a11628f55a4df523b3ef846040516109f79190611c37565b60405180910390a3600190509392505050565b7fea2aa0a1be11a07ed86d755c93467f4f82362b452371d1ba94d1715123511acb60001b81565b601281565b60055481565b60016000803373ffffffffffffffffffffffffffffffffffffffff1673ffffffffffffffffffffffffffffffffffffffff1681526020019081526020016000205414610abd576040517f08c379a0000000000000000000000000000000000000000000000000000000008152600401610ab490611b77565b60405180910390fd5b610b06600260008473ffffffffffffffffffffffffffffffffffffffff1673ffffffffffffffffffffffffffffffffffffffff1681526020019081526020016000205482611641565b600260008473ffffffffffffffffffffffffffffffffffffffff1673ffffffffffffffffffffffffffffffffffffffff16815260200190815260200160002081905550610b5560015482611641565b6001819055508173ffffffffffffffffffffffffffffffffffffffff16600073ffffffffffffffffffffffffffffffffffffffff167fddf252ad1be2c89b69c2b068fc378daa952ba7f163c4a11628f55a4df523b3ef83604051610bb99190611c37565b60405180910390a35050565b6040518060400160405280600181526020017f310000000000000000000000000000000000000000000000000000000000000081525081565b60016000803373ffffffffffffffffffffffffffffffffffffffff1673ffffffffffffffffffffffffffffffffffffffff1681526020019081526020016000205414610c7f576040517f08c379a0000000000000000000000000000000000000000000000000000000008152600401610c7690611b77565b60405180910390fd5b60016000808373ffffffffffffffffffffffffffffffffffffffff1673ffffffffffffffffffffffffffffffffffffffff1681526020019081526020016000208190555050565b60026020528060005260406000206000915090505481565b60046020528060005260406000206000915090505481565b60006005547fea2aa0a1be11a07ed86d755c93467f4f82362b452371d1ba94d1715123511acb60001b8a8a8a8a8a604051602001610d3996959493929190611a8f565b60405160208183030381529060405280519060200120604051602001610d60929190611a22565b604051602081830303815290604052805190602001209050600073ffffffffffffffffffffffffffffffffffffffff168973ffffffffffffffffffffffffffffffffffffffff161415610de8576040517f08c379a0000000000000000000000000000000000000000000000000000000008152600401610ddf90611bb7565b60405180910390fd5b60018185858560405160008152602001604052604051610e0b9493929190611af0565b6020604051602081039080840390855afa158015610e2d573d6000803e3d6000fd5b5050506020604051035173ffffffffffffffffffffffffffffffffffffffff168973ffffffffffffffffffffffffffffffffffffffff1614610ea4576040517f08c379a0000000000000000000000000000000000000000000000000000000008152600401610e9b90611c17565b60405180910390fd5b6000861480610eb35750854211155b610ef2576040517f08c379a0000000000000000000000000000000000000000000000000000000008152600401610ee990611b57565b60405180910390fd5b600460008a73ffffffffffffffffffffffffffffffffffffffff1673ffffffffffffffffffffffffffffffffffffffff1681526020019081526020016000206000815480929190610f4290611db0565b919050558714610f87576040517f08c379a0000000000000000000000000000000000000000000000000000000008152600401610f7e90611b97565b60405180910390fd5b600085610f95576000610f98565b60015b905080600360008c73ffffffffffffffffffffffffffffffffffffffff1673ffffffffffffffffffffffffffffffffffffffff16815260200190815260200160002060008b73ffffffffffffffffffffffffffffffffffffffff1673ffffffffffffffffffffffffffffffffffffffff168152602001908152602001600020819055508873ffffffffffffffffffffffffffffffffffffffff168a73ffffffffffffffffffffffffffffffffffffffff167f8c5be1e5ebec7d5bd14f71427d1e84f3dd0314c0f7b2291e5b200ac8c7c3b925836040516110789190611c37565b60405180910390a350505050505050505050565b6040518060400160405280600381526020017f444149000000000000000000000000000000000000000000000000000000000081525081565b60016000803373ffffffffffffffffffffffffffffffffffffffff1673ffffffffffffffffffffffffffffffffffffffff1681526020019081526020016000205414611146576040517f08c379a000000000000000000000000000000000000000000000000000000000815260040161113d90611b77565b60405180910390fd5b60008060008373ffffffffffffffffffffffffffffffffffffffff1673ffffffffffffffffffffffffffffffffffffffff1681526020019081526020016000208190555050565b80600260008473ffffffffffffffffffffffffffffffffffffffff1673ffffffffffffffffffffffffffffffffffffffff16815260200190815260200160002054101561120f576040517f08c379a000000000000000000000000000000000000000000000000000000000815260040161120690611bd7565b60405180910390fd5b3373ffffffffffffffffffffffffffffffffffffffff168273ffffffffffffffffffffffffffffffffffffffff16141580156112c857506001600360008473ffffffffffffffffffffffffffffffffffffffff1673ffffffffffffffffffffffffffffffffffffffff16815260200190815260200160002060003373ffffffffffffffffffffffffffffffffffffffff1673ffffffffffffffffffffffffffffffffffffffff1681526020019081526020016000205414155b156114935780600360008473ffffffffffffffffffffffffffffffffffffffff1673ffffffffffffffffffffffffffffffffffffffff16815260200190815260200160002060003373ffffffffffffffffffffffffffffffffffffffff1673ffffffffffffffffffffffffffffffffffffffff16815260200190815260200160002054101561138c576040517f08c379a000000000000000000000000000000000000000000000000000000000815260040161138390611bf7565b60405180910390fd5b611412600360008473ffffffffffffffffffffffffffffffffffffffff1673ffffffffffffffffffffffffffffffffffffffff16815260200190815260200160002060003373ffffffffffffffffffffffffffffffffffffffff1673ffffffffffffffffffffffffffffffffffffffff168152602001908152602001600020548261161e565b600360008473ffffffffffffffffffffffffffffffffffffffff1673ffffffffffffffffffffffffffffffffffffffff16815260200190815260200160002060003373ffffffffffffffffffffffffffffffffffffffff1673ffffffffffffffffffffffffffffffffffffffff168152602001908152602001600020819055505b6114dc600260008473ffffffffffffffffffffffffffffffffffffffff1673ffffffffffffffffffffffffffffffffffffffff168152602001908152602001600020548261161e565b600260008473ffffffffffffffffffffffffffffffffffffffff1673ffffffffffffffffffffffffffffffffffffffff1681526020019081526020016000208190555061152b6001548261161e565b600181905550600073ffffffffffffffffffffffffffffffffffffffff168273ffffffffffffffffffffffffffffffffffffffff167fddf252ad1be2c89b69c2b068fc378daa952ba7f163c4a11628f55a4df523b3ef8360405161158f9190611c37565b60405180910390a35050565b60006115a833848461057a565b905092915050565b6115bb33838361057a565b505050565b6115cb83838361057a565b50505050565b60006020528060005260406000206000915090505481565b6003602052816000526040600020602052806000526040600020600091509150505481565b61161982338361057a565b505050565b600082828461162d9190611cea565b915081111561163b57600080fd5b92915050565b60008282846116509190611c94565b915081101561165e57600080fd5b92915050565b60008135905061167381611f8b565b92915050565b60008135905061168881611fa2565b92915050565b60008135905061169d81611fb9565b92915050565b6000813590506116b281611fd0565b92915050565b6000813590506116c781611fe7565b92915050565b6000602082840312156116df57600080fd5b60006116ed84828501611664565b91505092915050565b6000806040838503121561170957600080fd5b600061171785828601611664565b925050602061172885828601611664565b9150509250929050565b60008060006060848603121561174757600080fd5b600061175586828701611664565b935050602061176686828701611664565b9250506040611777868287016116a3565b9150509250925092565b600080600080600080600080610100898b03121561179e57600080fd5b60006117ac8b828c01611664565b98505060206117bd8b828c01611664565b97505060406117ce8b828c016116a3565b96505060606117df8b828c016116a3565b95505060806117f08b828c01611679565b94505060a06118018b828c016116b8565b93505060c06118128b828c0161168e565b92505060e06118238b828c0161168e565b9150509295985092959890939650565b6000806040838503121561184657600080fd5b600061185485828601611664565b9250506020611865858286016116a3565b9150509250929050565b61187881611d1e565b82525050565b61188781611d30565b82525050565b61189681611d3c565b82525050565b6118ad6118a882611d3c565b611df9565b82525050565b60006118be82611c6d565b6118c88185611c78565b93506118d8818560208601611d7d565b6118e181611e32565b840191505092915050565b60006118f9601283611c78565b915061190482611e43565b602082019050919050565b600061191c600283611c89565b915061192782611e6c565b600282019050919050565b600061193f601283611c78565b915061194a82611e95565b602082019050919050565b6000611962601183611c78565b915061196d82611ebe565b602082019050919050565b6000611985601583611c78565b915061199082611ee7565b602082019050919050565b60006119a8601883611c78565b91506119b382611f10565b602082019050919050565b60006119cb601a83611c78565b91506119d682611f39565b602082019050919050565b60006119ee601283611c78565b91506119f982611f62565b602082019050919050565b611a0d81611d66565b82525050565b611a1c81611d70565b82525050565b6000611a2d8261190f565b9150611a39828561189c565b602082019150611a49828461189c565b6020820191508190509392505050565b6000602082019050611a6e600083018461187e565b92915050565b6000602082019050611a89600083018461188d565b92915050565b600060c082019050611aa4600083018961188d565b611ab1602083018861186f565b611abe604083018761186f565b611acb6060830186611a04565b611ad86080830185611a04565b611ae560a083018461187e565b979650505050505050565b6000608082019050611b05600083018761188d565b611b126020830186611a13565b611b1f604083018561188d565b611b2c606083018461188d565b95945050505050565b60006020820190508181036000830152611b4f81846118b3565b905092915050565b60006020820190508181036000830152611b70816118ec565b9050919050565b60006020820190508181036000830152611b9081611932565b9050919050565b60006020820190508181036000830152611bb081611955565b9050919050565b60006020820190508181036000830152611bd081611978565b9050919050565b60006020820190508181036000830152611bf08161199b565b9050919050565b60006020820190508181036000830152611c10816119be565b9050919050565b60006020820190508181036000830152611c30816119e1565b9050919050565b6000602082019050611c4c6000830184611a04565b92915050565b6000602082019050611c676000830184611a13565b92915050565b600081519050919050565b600082825260208201905092915050565b600081905092915050565b6000611c9f82611d66565b9150611caa83611d66565b9250827fffffffffffffffffffffffffffffffffffffffffffffffffffffffffffffffff03821115611cdf57611cde611e03565b5b828201905092915050565b6000611cf582611d66565b9150611d0083611d66565b925082821015611d1357611d12611e03565b5b828203905092915050565b6000611d2982611d46565b9050919050565b60008115159050919050565b6000819050919050565b600073ffffffffffffffffffffffffffffffffffffffff82169050919050565b6000819050919050565b600060ff82169050919050565b60005b83811015611d9b578082015181840152602081019050611d80565b83811115611daa576000848401525b50505050565b6000611dbb82611d66565b91507fffffffffffffffffffffffffffffffffffffffffffffffffffffffffffffffff821415611dee57611ded611e03565b5b600182019050919050565b6000819050919050565b7f4e487b7100000000000000000000000000000000000000000000000000000000600052601160045260246000fd5b6000601f19601f8301169050919050565b7f4461692f7065726d69742d657870697265640000000000000000000000000000600082015250565b7f1901000000000000000000000000000000000000000000000000000000000000600082015250565b7f4461692f6e6f742d617574686f72697a65640000000000000000000000000000600082015250565b7f4461692f696e76616c69642d6e6f6e6365000000000000000000000000000000600082015250565b7f4461692f696e76616c69642d616464726573732d300000000000000000000000600082015250565b7f4461692f696e73756666696369656e742d62616c616e63650000000000000000600082015250565b7f4461692f696e73756666696369656e742d616c6c6f77616e6365000000000000600082015250565b7f4461692f696e76616c69642d7065726d69740000000000000000000000000000600082015250565b611f9481611d1e565b8114611f9f57600080fd5b50565b611fab81611d30565b8114611fb657600080fd5b50565b611fc281611d3c565b8114611fcd57600080fd5b50565b611fd981611d66565b8114611fe457600080fd5b50565b611ff081611d70565b8114611ffb57600080fd5b5056fea2646970667358221220ef6504c6ab07a4f323ea48a88f4c0ef261e31bff7ec64bc2a9f1f280d39ff0ff64736f6c63430008040033",
  "immutableReferences": {},
  "source": "// SPDX-License-Identifier: AGPL-3.0-or-later\n\n// Copyright (C) 2017, 2018, 2019 dbrock, rain, mrchico\n\n// This program is free software: you can redistribute it and/or modify\n// it under the terms of the GNU Affero General Public License as published by\n// the Free Software Foundation, either version 3 of the License, or\n// (at your option) any later version.\n//\n// This program is distributed in the hope that it will be useful,\n// but WITHOUT ANY WARRANTY; without even the implied warranty of\n// MERCHANTABILITY or FITNESS FOR A PARTICULAR PURPOSE.  See the\n// GNU Affero General Public License for more details.\n//\n// You should have received a copy of the GNU Affero General Public License\n// along with this program.  If not, see <https://www.gnu.org/licenses/>.\n\npragma solidity >=0.5.12;\n\n// FIXME: This contract was altered compared to the production version.\n// It doesn't use LibNote anymore.\n// New deployments of this contract will need to include custom events (TO DO).\n\ncontract Dai {\n    // --- Auth ---\n    mapping (address => uint) public wards;\n    function rely(address guy) external auth { wards[guy] = 1; }\n    function deny(address guy) external auth { wards[guy] = 0; }\n    modifier auth {\n        require(wards[msg.sender] == 1, \"Dai/not-authorized\");\n        _;\n    }\n\n    // --- ERC20 Data ---\n    string  public constant name     = \"Dai Stablecoin\";\n    string  public constant symbol   = \"DAI\";\n    string  public constant version  = \"1\";\n    uint8   public constant decimals = 18;\n    uint256 public totalSupply;\n\n    mapping (address => uint)                      public balanceOf;\n    mapping (address => mapping (address => uint)) public allowance;\n    mapping (address => uint)                      public nonces;\n\n    event Approval(address indexed src, address indexed guy, uint wad);\n    event Transfer(address indexed src, address indexed dst, uint wad);\n\n    // --- Math ---\n    function add(uint x, uint y) internal pure returns (uint z) {\n        require((z = x + y) >= x);\n    }\n    function sub(uint x, uint y) internal pure returns (uint z) {\n        require((z = x - y) <= x);\n    }\n\n    // --- EIP712 niceties ---\n    bytes32 public DOMAIN_SEPARATOR;\n    // bytes32 public constant PERMIT_TYPEHASH = keccak256(\"Permit(address holder,address spender,uint256 nonce,uint256 expiry,bool allowed)\");\n    bytes32 public constant PERMIT_TYPEHASH = 0xea2aa0a1be11a07ed86d755c93467f4f82362b452371d1ba94d1715123511acb;\n\n    constructor(uint256 chainId_) public {\n        wards[msg.sender] = 1;\n        DOMAIN_SEPARATOR = keccak256(abi.encode(\n            keccak256(\"EIP712Domain(string name,string version,uint256 chainId,address verifyingContract)\"),\n            keccak256(bytes(name)),\n            keccak256(bytes(version)),\n            chainId_,\n            address(this)\n        ));\n    }\n\n    // --- Token ---\n    function transfer(address dst, uint wad) external returns (bool) {\n        return transferFrom(msg.sender, dst, wad);\n    }\n    function transferFrom(address src, address dst, uint wad)\n        public returns (bool)\n    {\n        require(balanceOf[src] >= wad, \"Dai/insufficient-balance\");\n        if (src != msg.sender && allowance[src][msg.sender] != uint(1)) {\n            require(allowance[src][msg.sender] >= wad, \"Dai/insufficient-allowance\");\n            allowance[src][msg.sender] = sub(allowance[src][msg.sender], wad);\n        }\n        balanceOf[src] = sub(balanceOf[src], wad);\n        balanceOf[dst] = add(balanceOf[dst], wad);\n        emit Transfer(src, dst, wad);\n        return true;\n    }\n    function mint(address usr, uint wad) external auth {\n        balanceOf[usr] = add(balanceOf[usr], wad);\n        totalSupply    = add(totalSupply, wad);\n        emit Transfer(address(0), usr, wad);\n    }\n    function burn(address usr, uint wad) external {\n        require(balanceOf[usr] >= wad, \"Dai/insufficient-balance\");\n        if (usr != msg.sender && allowance[usr][msg.sender] != uint(1)) {\n            require(allowance[usr][msg.sender] >= wad, \"Dai/insufficient-allowance\");\n            allowance[usr][msg.sender] = sub(allowance[usr][msg.sender], wad);\n        }\n        balanceOf[usr] = sub(balanceOf[usr], wad);\n        totalSupply    = sub(totalSupply, wad);\n        emit Transfer(usr, address(0), wad);\n    }\n    function approve(address usr, uint wad) external returns (bool) {\n        allowance[msg.sender][usr] = wad;\n        emit Approval(msg.sender, usr, wad);\n        return true;\n    }\n\n    // --- Alias ---\n    function push(address usr, uint wad) external {\n        transferFrom(msg.sender, usr, wad);\n    }\n    function pull(address usr, uint wad) external {\n        transferFrom(usr, msg.sender, wad);\n    }\n    function move(address src, address dst, uint wad) external {\n        transferFrom(src, dst, wad);\n    }\n\n    // --- Approve by signature ---\n    function permit(address holder, address spender, uint256 nonce, uint256 expiry,\n                    bool allowed, uint8 v, bytes32 r, bytes32 s) external\n    {\n        bytes32 digest =\n            keccak256(abi.encodePacked(\n                \"\\x19\\x01\",\n                DOMAIN_SEPARATOR,\n                keccak256(abi.encode(PERMIT_TYPEHASH,\n                                     holder,\n                                     spender,\n                                     nonce,\n                                     expiry,\n                                     allowed))\n        ));\n\n        require(holder != address(0), \"Dai/invalid-address-0\");\n        require(holder == ecrecover(digest, v, r, s), \"Dai/invalid-permit\");\n        require(expiry == 0 || block.timestamp <= expiry, \"Dai/permit-expired\");\n        require(nonce == nonces[holder]++, \"Dai/invalid-nonce\");\n        uint wad = allowed ? uint(1) : 0;\n        allowance[holder][spender] = wad;\n        emit Approval(holder, spender, wad);\n    }\n}",
  "sourcePath": "/Users/elijahhampton/Desktop/opportunity-core/src/contracts/test/Dai.sol",
  "compiler": {
    "name": "solc",
    "version": "0.8.4+commit.c7e474f2.Emscripten.clang"
  },
  "schemaVersion": "3.4.1",
  "updatedAt": "2021-06-08T15:27:12.317Z",
  "networkType": "ethereum",
  "devdoc": {
    "kind": "dev",
    "methods": {},
    "version": 1
  },
  "userdoc": {
    "kind": "user",
    "methods": {},
    "version": 1
  }
}