{
  "contractName": "DaiEscrow",
  "abi": [
    {
      "inputs": [
        {
          "internalType": "address",
          "name": "_depositor",
          "type": "address"
        },
        {
          "internalType": "uint256",
          "name": "_wad",
          "type": "uint256"
        },
        {
          "internalType": "address",
          "name": "_daiTokenAddress",
          "type": "address"
        }
      ],
      "stateMutability": "nonpayable",
      "type": "constructor"
    },
    {
      "inputs": [],
      "name": "REVIEW_TYPEHASH",
      "outputs": [
        {
          "internalType": "bytes32",
          "name": "",
          "type": "bytes32"
        }
      ],
      "stateMutability": "view",
      "type": "function"
    },
    {
      "inputs": [],
      "name": "SUBMIT_TYPEHASH",
      "outputs": [
        {
          "internalType": "bytes32",
          "name": "",
          "type": "bytes32"
        }
      ],
      "stateMutability": "view",
      "type": "function"
    },
    {
      "inputs": [],
      "name": "beneficiary",
      "outputs": [
        {
          "internalType": "address",
          "name": "",
          "type": "address"
        }
      ],
      "stateMutability": "view",
      "type": "function"
    },
    {
      "inputs": [],
      "name": "depositor",
      "outputs": [
        {
          "internalType": "address",
          "name": "",
          "type": "address"
        }
      ],
      "stateMutability": "view",
      "type": "function"
    },
    {
      "inputs": [],
      "name": "domain_separator",
      "outputs": [
        {
          "internalType": "bytes32",
          "name": "",
          "type": "bytes32"
        }
      ],
      "stateMutability": "view",
      "type": "function"
    },
    {
      "inputs": [],
      "name": "state",
      "outputs": [
        {
          "internalType": "enum DaiEscrow.ContractState",
          "name": "",
          "type": "uint8"
        }
      ],
      "stateMutability": "view",
      "type": "function"
    },
    {
      "inputs": [],
      "name": "status",
      "outputs": [
        {
          "internalType": "enum DaiEscrow.Status",
          "name": "",
          "type": "uint8"
        }
      ],
      "stateMutability": "view",
      "type": "function"
    },
    {
      "inputs": [
        {
          "internalType": "address",
          "name": "",
          "type": "address"
        }
      ],
      "name": "storedFunds",
      "outputs": [
        {
          "internalType": "uint256",
          "name": "",
          "type": "uint256"
        }
      ],
      "stateMutability": "view",
      "type": "function"
    },
    {
      "inputs": [],
      "name": "wad",
      "outputs": [
        {
          "internalType": "uint256",
          "name": "",
          "type": "uint256"
        }
      ],
      "stateMutability": "view",
      "type": "function"
    },
    {
      "inputs": [
        {
          "internalType": "uint256",
          "name": "nonce",
          "type": "uint256"
        },
        {
          "internalType": "uint256",
          "name": "expiry",
          "type": "uint256"
        },
        {
          "internalType": "uint8",
          "name": "v",
          "type": "uint8"
        },
        {
          "internalType": "bytes32",
          "name": "r",
          "type": "bytes32"
        },
        {
          "internalType": "bytes32",
          "name": "s",
          "type": "bytes32"
        }
      ],
      "name": "initialize",
      "outputs": [],
      "stateMutability": "nonpayable",
      "type": "function"
    },
    {
      "inputs": [
        {
          "internalType": "address payable",
          "name": "_beneficiary",
          "type": "address"
        },
        {
          "internalType": "uint256",
          "name": "_stakedReputation",
          "type": "uint256"
        }
      ],
      "name": "assignNewBeneficiary",
      "outputs": [],
      "stateMutability": "nonpayable",
      "type": "function"
    },
    {
      "inputs": [
        {
          "internalType": "bytes32",
          "name": "_submission",
          "type": "bytes32"
        },
        {
          "internalType": "uint8",
          "name": "_v",
          "type": "uint8"
        },
        {
          "internalType": "bytes32",
          "name": "_r",
          "type": "bytes32"
        },
        {
          "internalType": "bytes32",
          "name": "_s",
          "type": "bytes32"
        }
      ],
      "name": "submit",
      "outputs": [],
      "stateMutability": "nonpayable",
      "type": "function"
    },
    {
      "inputs": [
        {
          "internalType": "bool",
          "name": "_approve",
          "type": "bool"
        },
        {
          "internalType": "uint8",
          "name": "_v",
          "type": "uint8"
        },
        {
          "internalType": "bytes32",
          "name": "_r",
          "type": "bytes32"
        },
        {
          "internalType": "bytes32",
          "name": "_s",
          "type": "bytes32"
        }
      ],
      "name": "review",
      "outputs": [],
      "stateMutability": "nonpayable",
      "type": "function"
    },
    {
      "inputs": [],
      "name": "getExchangeStatus",
      "outputs": [
        {
          "internalType": "enum DaiEscrow.Status",
          "name": "",
          "type": "uint8"
        }
      ],
      "stateMutability": "nonpayable",
      "type": "function"
    },
    {
      "inputs": [],
      "name": "getExchangeState",
      "outputs": [
        {
          "internalType": "enum DaiEscrow.ContractState",
          "name": "",
          "type": "uint8"
        }
      ],
      "stateMutability": "nonpayable",
      "type": "function"
    }
  ],
  "bytecode": "0x60e060405234801561001057600080fd5b50604051610f46380380610f4683398101604081905261002f91610263565b6001600160a01b0383166100a65760405162461bcd60e51b815260206004820152603360248201527f4465706f7369746f7220616464726573732063616e6e6f74206265203020776860448201527232b71031b932b0ba34b7339032b9b1b937bb9760691b60648201526084015b60405180910390fd5b6001600160a01b0381166101185760405162461bcd60e51b815260206004820152603360248201527f44616920746f6b656e20616464726573732063616e6e6f74206265203020776860448201527232b71031b932b0ba34b7339032b9b1b937bb9760691b606482015260840161009d565b604080518082018252600a81526944616920457363726f7760b01b6020918201528151808301835260018152603160f81b9082015281517f8b73c3c69bb8fe3d512ecc4cf759cc79239f7b179b0ffacaa9a75d522b39400f918101919091527f0bdbe35568d399a0401d60d11c76785045fec8c775dcb34589d4a0b9d540700d918101919091527fc89efdaa54c0f20c7adf612882df0950f5a951637e0307cdcb4c672f298b8bc660608201524660ff811660808301523060a08301529060c00160408051601f198184030181529190528051602090910120608052506001600160601b031960609390931b9290921660a05260c0526002805461010061ff00196001600160a01b0394909416620100000293909316610100600160b01b03199091161791909117905561029f565b80516001600160a01b038116811461025e57600080fd5b919050565b60008060006060848603121561027857600080fd5b61028184610247565b92506020840151915061029660408501610247565b90509250925092565b60805160a05160601c60c051610c3d610309600039600081816101d601526106f401526000818161027b015281816103ae0152818161064b015281816106cc0152818161077b0152610815015260008181610242015281816104b301526105b30152610c3d6000f3fe608060405234801561001057600080fd5b50600436106100f55760003560e01c80637df38c5b11610097578063bfce14ea11610066578063bfce14ea1461023d578063c19d93fb14610264578063c7c4ff4614610276578063d8a431071461029d57600080fd5b80637df38c5b146101d157806396118e44146101f8578063b01dcb311461021f578063bad453cf1461022a57600080fd5b806338af3eed116100d357806338af3eed146101455780633c86f6f31461017057806353318a87146101a557806360d98201146101b857600080fd5b8063200d2ed2146100fa578063227d64541461011d57806325b0db0f14610132575b600080fd5b6002546101079060ff1681565b6040516101149190610b35565b60405180910390f35b61013061012b3660046109d7565b6102bd565b005b610130610140366004610a03565b6103ac565b600054610158906001600160a01b031681565b6040516001600160a01b039091168152602001610114565b6101977ffa5e0016fb62b8dffda8fd95249d438edcffd3689b40ac3b4281d4cf710609ae81565b604051908152602001610114565b6101306101b3366004610a4c565b610526565b600254610100900460ff165b6040516101149190610b1b565b6101977f000000000000000000000000000000000000000000000000000000000000000081565b6101977f62b607caa4d4e7fcbd31bf4c033cd30888b536567fadc83710fdf15f8d5cfc9e81565b60025460ff16610107565b610130610238366004610a8b565b61061e565b6101977f000000000000000000000000000000000000000000000000000000000000000081565b6002546101c490610100900460ff1681565b6101587f000000000000000000000000000000000000000000000000000000000000000081565b6101976102ab3660046109b3565b60016020526000908152604090205481565b60008060025460ff1660038111156102d7576102d7610bd9565b146102fd5760405162461bcd60e51b81526004016102f490610b49565b60405180910390fd5b6001600160a01b0383166103795760405162461bcd60e51b815260206004820152603f60248201527f42656e65666963696172792063616e6e6f74206265203078206164647265737360448201527f207768656e2061737369676e696e67206e65772062656e65666963696172790060648201526084016102f4565b600080546001600160a01b0319166001600160a01b038516179055600280546001919060ff191682800217905550505050565b7f00000000000000000000000000000000000000000000000000000000000000006001600160a01b031633146104245760405162461bcd60e51b815260206004820181905260248201527f4f776e65722063616e206f6e6c79207265736f6c766520636f6e74726163742e60448201526064016102f4565b60028060025460ff16600381111561043e5761043e610bd9565b1461045b5760405162461bcd60e51b81526004016102f490610b49565b604080517ffa5e0016fb62b8dffda8fd95249d438edcffd3689b40ac3b4281d4cf710609ae602080830191909152871580158385015283518084038501815260608401855280519083012061190160f01b60808501527f0000000000000000000000000000000000000000000000000000000000000000608285015260a2808501919091528451808503909101815260c290930190935281519101209061050957610504610813565b61051e565b600280546001919060ff191682805b02179055505b505050505050565b60018060025460ff16600381111561054057610540610bd9565b1461055d5760405162461bcd60e51b81526004016102f490610b49565b604080517f62b607caa4d4e7fcbd31bf4c033cd30888b536567fadc83710fdf15f8d5cfc9e60208083019190915281830188905282518083038401815260608301845280519082012061190160f01b60808401527f0000000000000000000000000000000000000000000000000000000000000000608284015260a2808401919091528351808403909101815260c290920190925280519101206000546001600160a01b031661060c57600080fd5b60028054819060ff1916600182610518565b6002546040516323f2ebc360e21b8152620100009091046001600160a01b031690638fcbaf0c90610682907f00000000000000000000000000000000000000000000000000000000000000009030908a908a906001908b908b908b90600401610ad2565b600060405180830381600087803b15801561069c57600080fd5b505af11580156106b0573d6000803e3d6000fd5b505060025460405163f2d5d56b60e01b81526001600160a01b037f0000000000000000000000000000000000000000000000000000000000000000811660048301527f0000000000000000000000000000000000000000000000000000000000000000602483015262010000909204909116925063f2d5d56b9150604401600060405180830381600087803b15801561074857600080fd5b505af115801561075c573d6000803e3d6000fd5b50506002546201000090046001600160a01b03169150638fcbaf0c90507f0000000000000000000000000000000000000000000000000000000000000000306107a6896001610bb3565b8860008989896040518963ffffffff1660e01b81526004016107cf989796959493929190610ad2565b600060405180830381600087803b1580156107e957600080fd5b505af11580156107fd573d6000803e3d6000fd5b50506002805461ffff1916905550505050505050565b7f00000000000000000000000000000000000000000000000000000000000000006001600160a01b0316331461088b5760405162461bcd60e51b815260206004820181905260248201527f4f776e65722063616e206f6e6c79207265736f6c766520636f6e74726163742e60448201526064016102f4565b6000546001600160a01b03166108a057600080fd5b6002546000546040516370a0823160e01b81523060048201526001600160a01b036201000090930483169263b753a98c92169083906370a082319060240160206040518083038186803b1580156108f657600080fd5b505afa15801561090a573d6000803e3d6000fd5b505050506040513d601f19601f8201168201806040525081019061092e9190610a72565b6040516001600160e01b031960e085901b1681526001600160a01b0390921660048301526024820152604401600060405180830381600087803b15801561097457600080fd5b505af1158015610988573d6000803e3d6000fd5b50506002805461ffff19166102031790555050565b803560ff811681146109ae57600080fd5b919050565b6000602082840312156109c557600080fd5b81356109d081610bef565b9392505050565b600080604083850312156109ea57600080fd5b82356109f581610bef565b946020939093013593505050565b60008060008060808587031215610a1957600080fd5b84358015158114610a2957600080fd5b9350610a376020860161099d565b93969395505050506040820135916060013590565b60008060008060808587031215610a6257600080fd5b84359350610a376020860161099d565b600060208284031215610a8457600080fd5b5051919050565b600080600080600060a08688031215610aa357600080fd5b8535945060208601359350610aba6040870161099d565b94979396509394606081013594506080013592915050565b6001600160a01b039889168152969097166020870152604086019490945260608501929092521515608084015260ff1660a083015260c082015260e08101919091526101000190565b6020810160038310610b2f57610b2f610bd9565b91905290565b6020810160048310610b2f57610b2f610bd9565b60208082526044908201527f43616e6e6f7420696e766f6b65207468697320657363726f772066756e63746960408201527f6f6e2077697468207468652063757272656e7420636f6e7472616374207374616060820152633a3ab99760e11b608082015260a00190565b60008219821115610bd457634e487b7160e01b600052601160045260246000fd5b500190565b634e487b7160e01b600052602160045260246000fd5b6001600160a01b0381168114610c0457600080fd5b5056fea2646970667358221220437a53c14200a33c638f54b4c6858d653b513529c97a5637651843b21ed8d6aa64736f6c63430008070033",
  "immutableReferences": {
    "487": [
      {
        "length": 32,
        "start": 578
      },
      {
        "length": 32,
        "start": 1203
      },
      {
        "length": 32,
        "start": 1459
      }
    ],
    "491": [
      {
        "length": 32,
        "start": 635
      },
      {
        "length": 32,
        "start": 942
      },
      {
        "length": 32,
        "start": 1611
      },
      {
        "length": 32,
        "start": 1740
      },
      {
        "length": 32,
        "start": 1915
      },
      {
        "length": 32,
        "start": 2069
      }
    ],
    "493": [
      {
        "length": 32,
        "start": 470
      },
      {
        "length": 32,
        "start": 1780
      }
    ]
  },
  "source": "//SPDX-License-Identifier: Unlicense\npragma solidity 0.8.7;\n\nimport \"../user/UserSummary.sol\";\n\n/// Dai Token Interface\ninterface DaiToken {\n    function permit(\n        address holder,\n        address spender,\n        uint256 nonce,\n        uint256 expiry,\n        bool allowed,\n        uint8 v,\n        bytes32 r,\n        bytes32 s\n    ) \n    external;\n\n    function pull(address usr, uint wad) external;\n    function push(address usr, uint wad) external;\n    function approve(address usr, uint wad) external returns (bool);\n    function totalSupply() external view returns (uint256);\n\tfunction balanceOf(address account) external view returns (uint256);\n\tfunction allowance(address owner, address spender) external view returns (uint256);\n\tfunction transfer(address recipient, uint256 amount) external returns (bool);\n}\n\n// / @author Vypo Mouse (Forked and modified by Elijah Hampton) - https://forum.openzeppelin.com/t/feedback-on-dai-escrow-contract-that-reimburses-a-relayer-using-uniswap/2771\n// / @title DaiEscrow\n// / @notice Holds Dai tokens in escrow until the buyer and seller agree to\n// /         release them.\n// / @dev First construct the contract, specifying the buyer and seller addresses.\n// /      Then `initialize` the contract with signatures for Dai's `permit`. This\n// /      transfers Dai from the buyer to the escrow contract.\n// /\n// /      When the seller has completed their responsibilities, the seller\n// /      calls `submit` on their behalf.\n// /\n// /      Once `submit` has been called, the buyer has ~30 days to call `review`.\n// /      If the buyer does not call `review`, anyone may call `reviewPastDue` to\n// /      release the funds to the seller.\n// /\n// /      When `review` is called, the buyer may choose to approve the submission\n// /      or not approve it. If the submission is approved, the funds are released\n// /      to the seller. If the buyer does not approve, the funds are locked\n// /      forever.\ncontract DaiEscrow {\n  enum Status {\n        AwaitingWorker,\n        AwaitingSubmission,\n        AwaitingReview,\n        Approved\n    }\n\n  enum ContractState {\n      Initialized,\n      Uninitialized,\n      Locked\n  }\n\n    // keccak256(\"Review(bool _approve)\")\n    bytes32 public constant REVIEW_TYPEHASH = 0xfa5e0016fb62b8dffda8fd95249d438edcffd3689b40ac3b4281d4cf710609ae;\n    // keccak256(\"Submit(bytes32 _submission)\")\n    bytes32 public constant SUBMIT_TYPEHASH = 0x62b607caa4d4e7fcbd31bf4c033cd30888b536567fadc83710fdf15f8d5cfc9e;\n    bytes32 public immutable domain_separator;\n\n    address public beneficiary;\n    address immutable public depositor;\n\n    uint immutable public wad;\n\n    mapping(address => uint256) public storedFunds;\n\n    Status public status;\n    ContractState public state;\n\n    DaiToken daiToken;\n    \n    modifier onlyOwner() {\n        require(depositor == msg.sender, \"Owner can only resolve contract.\");\n        _;\n    }\n\n    modifier onlyWhen(Status _status) \n    {\n        require(status == _status, \"Cannot invoke this escrow function with the current contract status.\");\n        _;\n    }\n\n    constructor (\n        address _depositor,\n        uint _wad,\n        address _daiTokenAddress\n    ) \n    {\n        require(_depositor != address(0), \"Depositor address cannot be 0 when creating escrow.\");\n        require(_daiTokenAddress != address(0), \"Dai token address cannot be 0 when creating escrow.\");\n        uint8 chain_id;\n\n        assembly {\n            chain_id := chainid()\n        }\n\n        domain_separator = keccak256(abi.encode(\n            keccak256(\"EIP712Domain(string name,string version,uint256 chainId,address verifyingContract)\"),\n            keccak256(bytes(\"Dai Escrow\")),\n            keccak256(bytes(\"1\")),\n            chain_id,\n            address(this)\n        ));\n\n        depositor = _depositor;\n        wad = _wad;\n        daiToken = DaiToken(_daiTokenAddress);\n        state = ContractState.Uninitialized;\n    }\n\n    function initialize(\n        uint256 nonce,\n        uint256 expiry,\n        uint8 v,\n        bytes32 r,\n        bytes32 s\n        ) \n        external \n    {\n        // Unlock buyer's Dai balance to transfer `wad` to this contract.\n        daiToken.permit(depositor, address(this), nonce, expiry, true, v, r, s);\n\n        // Transfer Dai from `buyer` to this contract.\n        daiToken.pull(depositor, wad);\n\n        // Relock Dai balance of `buyer`.\n        daiToken.permit(depositor, address(this), nonce + 1, expiry, false, v, r, s);\n\n        status = Status.AwaitingWorker;\n        state = ContractState.Initialized;\n    }\n\n    function assignNewBeneficiary(\n        address payable _beneficiary, \n        uint256 _stakedReputation\n        ) \n        external \n        onlyWhen(Status.AwaitingWorker)\n    {\n        require(_beneficiary != address(0), \"Beneficiary cannot be 0x address when assigning new beneficiary\");\n\n        beneficiary = _beneficiary;\n        \n        //stake the workers reputation by the required amount\n        //TODO: Need to revert if the user cannot fulfill the reputation requirements\n        //UserSummary userSummary = UserSummary(_beneficiary);\n        //userSummary.stakeReputation(beneficiary, _stakedReputation);\n\n        status = Status.AwaitingSubmission;\n    }\n\n    function submit(\n        bytes32 _submission,\n        uint8 _v,\n        bytes32 _r,\n        bytes32 _s\n        ) \n        external \n        onlyWhen(Status.AwaitingSubmission) \n    {\n        bytes32 digest = keccak256(abi.encodePacked(\n            \"\\x19\\x01\",\n            domain_separator,\n            keccak256(abi.encode(SUBMIT_TYPEHASH, _submission))\n        ));\n\n        require(beneficiary != address(0));\n        //require(beneficiary == ecrecover(digest, _v, _r, _s), \"invalid-permit\");\n\n        status = Status.AwaitingReview;\n    }\n\n    function resolve() \n        internal\n        onlyOwner\n    {\n        require(beneficiary != address(0));\n\n        daiToken.push(beneficiary, daiToken.balanceOf(address(this)));\n        status = Status.Approved;\n        state = ContractState.Locked;\n    }\n\n       function review(\n        bool _approve,\n        uint8 _v,\n        bytes32 _r,\n        bytes32 _s\n        ) \n        external \n        onlyOwner\n        onlyWhen(Status.AwaitingReview) \n    {\n        bytes32 digest = keccak256(abi.encodePacked(\n            \"\\x19\\x01\",\n            domain_separator,\n            keccak256(abi.encode(REVIEW_TYPEHASH, _approve))\n        ));\n\n        //require(depositor == ecrecover(digest, _v, _r, _s), \"invalid-permit\");\n\n        if (_approve) {\n            resolve();\n        } else {\n            status = Status.AwaitingSubmission;\n        }\n    }\n\n    function getExchangeStatus() \n        public \n        returns (Status)\n    {\n        return status;\n    }\n    \n    function getExchangeState() \n        public \n        returns (ContractState)\n    {\n        return state;\n    }\n}",
  "sourcePath": "/Users/elijahhampton/Desktop/opportunity-core/src/contracts/exchange/DaiEscrow.sol",
  "compiler": {
    "name": "solc",
    "version": "0.8.7+commit.e28d00a7.Emscripten.clang"
  },
  "schemaVersion": "3.4.3",
  "updatedAt": "2021-10-10T17:41:11.407Z",
  "devdoc": {
    "kind": "dev",
    "methods": {},
    "version": 1
  },
  "userdoc": {
    "kind": "user",
    "methods": {},
    "version": 1
  }
}