{
  "contractName": "DaiEscrow",
  "abi": [
    {
      "inputs": [
        {
          "internalType": "address",
          "name": "_beneficiary",
          "type": "address"
        },
        {
          "internalType": "address",
          "name": "_depositor",
          "type": "address"
        },
        {
          "internalType": "uint256",
          "name": "_wad",
          "type": "uint256"
        },
        {
          "internalType": "address",
          "name": "_daiTokenAddress",
          "type": "address"
        }
      ],
      "stateMutability": "nonpayable",
      "type": "constructor"
    },
    {
      "inputs": [],
      "name": "REVIEW_TYPEHASH",
      "outputs": [
        {
          "internalType": "bytes32",
          "name": "",
          "type": "bytes32"
        }
      ],
      "stateMutability": "view",
      "type": "function"
    },
    {
      "inputs": [],
      "name": "SUBMIT_TYPEHASH",
      "outputs": [
        {
          "internalType": "bytes32",
          "name": "",
          "type": "bytes32"
        }
      ],
      "stateMutability": "view",
      "type": "function"
    },
    {
      "inputs": [],
      "name": "beneficiary",
      "outputs": [
        {
          "internalType": "address",
          "name": "",
          "type": "address"
        }
      ],
      "stateMutability": "view",
      "type": "function"
    },
    {
      "inputs": [],
      "name": "contractState",
      "outputs": [
        {
          "internalType": "enum DaiEscrow.ContractState",
          "name": "",
          "type": "uint8"
        }
      ],
      "stateMutability": "view",
      "type": "function"
    },
    {
      "inputs": [],
      "name": "depositor",
      "outputs": [
        {
          "internalType": "address",
          "name": "",
          "type": "address"
        }
      ],
      "stateMutability": "view",
      "type": "function"
    },
    {
      "inputs": [],
      "name": "domain_separator",
      "outputs": [
        {
          "internalType": "bytes32",
          "name": "",
          "type": "bytes32"
        }
      ],
      "stateMutability": "view",
      "type": "function"
    },
    {
      "inputs": [],
      "name": "status",
      "outputs": [
        {
          "internalType": "enum DaiEscrow.Status",
          "name": "",
          "type": "uint8"
        }
      ],
      "stateMutability": "view",
      "type": "function"
    },
    {
      "inputs": [],
      "name": "wad",
      "outputs": [
        {
          "internalType": "uint256",
          "name": "",
          "type": "uint256"
        }
      ],
      "stateMutability": "view",
      "type": "function"
    },
    {
      "inputs": [
        {
          "internalType": "uint256",
          "name": "nonce",
          "type": "uint256"
        },
        {
          "internalType": "uint256",
          "name": "expiry",
          "type": "uint256"
        },
        {
          "internalType": "uint8",
          "name": "v_allow",
          "type": "uint8"
        },
        {
          "internalType": "bytes32",
          "name": "r_allow",
          "type": "bytes32"
        },
        {
          "internalType": "bytes32",
          "name": "s_allow",
          "type": "bytes32"
        },
        {
          "internalType": "uint8",
          "name": "v_deny",
          "type": "uint8"
        },
        {
          "internalType": "bytes32",
          "name": "r_deny",
          "type": "bytes32"
        },
        {
          "internalType": "bytes32",
          "name": "s_deny",
          "type": "bytes32"
        }
      ],
      "name": "initialize",
      "outputs": [],
      "stateMutability": "nonpayable",
      "type": "function"
    },
    {
      "inputs": [
        {
          "internalType": "bytes32",
          "name": "_submission",
          "type": "bytes32"
        },
        {
          "internalType": "uint8",
          "name": "_v",
          "type": "uint8"
        },
        {
          "internalType": "bytes32",
          "name": "_r",
          "type": "bytes32"
        },
        {
          "internalType": "bytes32",
          "name": "_s",
          "type": "bytes32"
        }
      ],
      "name": "submit",
      "outputs": [],
      "stateMutability": "nonpayable",
      "type": "function"
    },
    {
      "inputs": [
        {
          "internalType": "bool",
          "name": "_approve",
          "type": "bool"
        },
        {
          "internalType": "uint8",
          "name": "_v",
          "type": "uint8"
        },
        {
          "internalType": "bytes32",
          "name": "_r",
          "type": "bytes32"
        },
        {
          "internalType": "bytes32",
          "name": "_s",
          "type": "bytes32"
        }
      ],
      "name": "review",
      "outputs": [],
      "stateMutability": "nonpayable",
      "type": "function"
    },
    {
      "inputs": [
        {
          "internalType": "address",
          "name": "callee",
          "type": "address"
        }
      ],
      "name": "updateStatus",
      "outputs": [],
      "stateMutability": "nonpayable",
      "type": "function"
    }
  ],
  "bytecode": "0x61010060405234801561001157600080fd5b50604051610f19380380610f198339810160408190526100309161021b565b6001600160a01b03831661007b5760405162461bcd60e51b815260206004820152600d60248201526c34b73b30b634b21037bbb732b960991b60448201526064015b60405180910390fd5b6001600160a01b0381166100d15760405162461bcd60e51b815260206004820152601960248201527f696e76616c69642064616920746f6b656e2061646472657373000000000000006044820152606401610072565b6040805180820182526006815265657363726f7760d01b6020918201528151808301835260018152603160f81b9082015281517f8b73c3c69bb8fe3d512ecc4cf759cc79239f7b179b0ffacaa9a75d522b39400f918101919091527f5c24c10d65ac9aa9e0f7f63d96fe83c89107fae52b4ef778334c906c1ec5c1ed918101919091527fc89efdaa54c0f20c7adf612882df0950f5a951637e0307cdcb4c672f298b8bc660608201524660ff811660808301523060a08301529060c00160408051808303601f1901815291905280516020909101206080525060e091909152606091821b6001600160601b031990811660c0529290911b90911660a052600080546001600160b01b031916620100006001600160a01b03939093169290920291909117610100179055610268565b80516001600160a01b038116811461021657600080fd5b919050565b6000806000806080858703121561023157600080fd5b61023a856101ff565b9350610248602086016101ff565b92506040850151915061025d606086016101ff565b905092959194509250565b60805160a05160601c60c05160601c60e051610c256102f46000396000818161018e01526107ae015260008181610222015281816102c70152818161042b015281816107050152818161078601526108350152600081816101070152818161049c015281816105cc015261065d0152600081816101fb0152818161037f015261057e0152610c256000f3fe608060405234801561001057600080fd5b50600436106100b45760003560e01c80637df38c5b116100715780637df38c5b1461018957806385209ee0146101b057806396118e44146101cf578063bfce14ea146101f6578063c7c4ff461461021d578063cefd6c211461024457600080fd5b806301162b93146100b9578063200d2ed2146100cc57806325b0db0f146100ef57806338af3eed146101025780633c86f6f31461014157806353318a8714610176575b600080fd5b6100ca6100c7366004610a17565b50565b005b6000546100d99060ff1681565b6040516100e69190610b9f565b60405180910390f35b6100ca6100fd366004610a47565b610257565b6101297f000000000000000000000000000000000000000000000000000000000000000081565b6040516001600160a01b0390911681526020016100e6565b6101687ffa5e0016fb62b8dffda8fd95249d438edcffd3689b40ac3b4281d4cf710609ae81565b6040519081526020016100e6565b6100ca610184366004610a90565b6104c8565b6101687f000000000000000000000000000000000000000000000000000000000000000081565b6000546101c290610100900460ff1681565b6040516100e69190610b85565b6101687f62b607caa4d4e7fcbd31bf4c033cd30888b536567fadc83710fdf15f8d5cfc9e81565b6101687f000000000000000000000000000000000000000000000000000000000000000081565b6101297f000000000000000000000000000000000000000000000000000000000000000081565b6100ca610252366004610acf565b6106d8565b60018060005460ff16600381111561027157610271610bd9565b146102bc5760405162461bcd60e51b8152602060048201526016602482015275119b881b9bdd081c1c995cd95b9d1b1e481d985b1a5960521b60448201526064015b60405180910390fd5b336001600160a01b037f000000000000000000000000000000000000000000000000000000000000000016146103255760405162461bcd60e51b815260206004820152600e60248201526d2bb937b733903932bb34b2bbb2b960911b60448201526064016102b3565b604080517ffa5e0016fb62b8dffda8fd95249d438edcffd3689b40ac3b4281d4cf710609ae6020808301919091528715158284015282518083038401815260608301909352825192019190912061190160f01b60808301527f0000000000000000000000000000000000000000000000000000000000000000608283015260a282015260009060c20160408051601f1981840301815282825280516020918201206000845290830180835281905260ff8816918301919091526060820186905260808201859052915060019060a0016020604051602081039080840390855afa158015610416573d6000803e3d6000fd5b505050602060405103516001600160a01b03167f00000000000000000000000000000000000000000000000000000000000000006001600160a01b0316146104915760405162461bcd60e51b815260206004820152600e60248201526d1a5b9d985b1a590b5c195c9b5a5d60921b60448201526064016102b3565b85156104c0576104c07f00000000000000000000000000000000000000000000000000000000000000006108d0565b505050505050565b60008060005460ff1660038111156104e2576104e2610bd9565b146105285760405162461bcd60e51b8152602060048201526016602482015275119b881b9bdd081c1c995cd95b9d1b1e481d985b1a5960521b60448201526064016102b3565b604080517f62b607caa4d4e7fcbd31bf4c033cd30888b536567fadc83710fdf15f8d5cfc9e60208083019190915281830188905282518083038401815260608301845280519082012061190160f01b60808401527f0000000000000000000000000000000000000000000000000000000000000000608284015260a2808401919091528351808403909101815260c290920190925280519101206001600160a01b037f0000000000000000000000000000000000000000000000000000000000000000166105f557600080fd5b60408051600081526020810180835283905260ff871691810191909152606081018590526080810184905260019060a0016020604051602081039080840390855afa158015610648573d6000803e3d6000fd5b505050602060405103516001600160a01b03167f00000000000000000000000000000000000000000000000000000000000000006001600160a01b0316146106c35760405162461bcd60e51b815260206004820152600e60248201526d1a5b9d985b1a590b5c195c9b5a5d60921b60448201526064016102b3565b50506000805460ff1916600117905550505050565b6000546040516323f2ebc360e21b8152620100009091046001600160a01b031690638fcbaf0c9061073c907f00000000000000000000000000000000000000000000000000000000000000009030908d908d906001908e908e908e90600401610b3c565b600060405180830381600087803b15801561075657600080fd5b505af115801561076a573d6000803e3d6000fd5b505060005460405163f2d5d56b60e01b81526001600160a01b037f0000000000000000000000000000000000000000000000000000000000000000811660048301527f0000000000000000000000000000000000000000000000000000000000000000602483015262010000909204909116925063f2d5d56b9150604401600060405180830381600087803b15801561080257600080fd5b505af1158015610816573d6000803e3d6000fd5b50506000546201000090046001600160a01b03169150638fcbaf0c90507f0000000000000000000000000000000000000000000000000000000000000000306108608c6001610bb3565b8b60008989896040518963ffffffff1660e01b8152600401610889989796959493929190610b3c565b600060405180830381600087803b1580156108a357600080fd5b505af11580156108b7573d6000803e3d6000fd5b50506000805461ff001916905550505050505050505050565b6001600160a01b0381166108e357600080fd5b6001600160a01b038116158015610906576000805460ff19166003179055610914565b6000805460ff191660021790555b806109fd576000546040516370a0823160e01b8152306004820152620100009091046001600160a01b03169063b753a98c90849083906370a082319060240160206040518083038186803b15801561096b57600080fd5b505afa15801561097f573d6000803e3d6000fd5b505050506040513d601f19601f820116820180604052508101906109a39190610ab6565b6040516001600160e01b031960e085901b1681526001600160a01b0390921660048301526024820152604401600060405180830381600087803b1580156109e957600080fd5b505af11580156104c0573d6000803e3d6000fd5b5050565b803560ff81168114610a1257600080fd5b919050565b600060208284031215610a2957600080fd5b81356001600160a01b0381168114610a4057600080fd5b9392505050565b60008060008060808587031215610a5d57600080fd5b84358015158114610a6d57600080fd5b9350610a7b60208601610a01565b93969395505050506040820135916060013590565b60008060008060808587031215610aa657600080fd5b84359350610a7b60208601610a01565b600060208284031215610ac857600080fd5b5051919050565b600080600080600080600080610100898b031215610aec57600080fd5b8835975060208901359650610b0360408a01610a01565b95506060890135945060808901359350610b1f60a08a01610a01565b925060c0890135915060e089013590509295985092959890939650565b6001600160a01b039889168152969097166020870152604086019490945260608501929092521515608084015260ff1660a083015260c082015260e08101919091526101000190565b6020810160028310610b9957610b99610bd9565b91905290565b6020810160048310610b9957610b99610bd9565b60008219821115610bd457634e487b7160e01b600052601160045260246000fd5b500190565b634e487b7160e01b600052602160045260246000fdfea2646970667358221220d168f38c186f0c494a039fc72065f1ce5562247c641200348438315e9ff3db7564736f6c63430008070033",
  "immutableReferences": {
    "462": [
      {
        "length": 32,
        "start": 507
      },
      {
        "length": 32,
        "start": 895
      },
      {
        "length": 32,
        "start": 1406
      }
    ],
    "464": [
      {
        "length": 32,
        "start": 263
      },
      {
        "length": 32,
        "start": 1180
      },
      {
        "length": 32,
        "start": 1484
      },
      {
        "length": 32,
        "start": 1629
      }
    ],
    "466": [
      {
        "length": 32,
        "start": 546
      },
      {
        "length": 32,
        "start": 711
      },
      {
        "length": 32,
        "start": 1067
      },
      {
        "length": 32,
        "start": 1797
      },
      {
        "length": 32,
        "start": 1926
      },
      {
        "length": 32,
        "start": 2101
      }
    ],
    "468": [
      {
        "length": 32,
        "start": 398
      },
      {
        "length": 32,
        "start": 1966
      }
    ]
  },
  "source": "//SPDX-License-Identifier: Unlicense\npragma solidity 0.8.7;\n\n/// Dai Token Interface\ninterface DaiToken {\n    function balanceOf(address tokenOwner) external view returns (uint256);\n\n    function permit(\n        address holder,\n        address spender,\n        uint256 nonce,\n        uint256 expiry,\n        bool allowed,\n        uint8 v,\n        bytes32 r,\n        bytes32 s\n    ) external;\n\n    function pull(address usr, uint wad) external;\n    function push(address usr, uint wad) external;\n    function approve(address usr, uint wad) external returns (bool);\n}\n\n// / @author Vypo Mouse (Forked and modified by Elijah Hampton) - https://forum.openzeppelin.com/t/feedback-on-dai-escrow-contract-that-reimburses-a-relayer-using-uniswap/2771\n// / @title DaiEscrow\n// / @notice Holds Dai tokens in escrow until the buyer and seller agree to\n// /         release them.\n// / @dev First construct the contract, specifying the buyer and seller addresses.\n// /      Then `initialize` the contract with signatures for Dai's `permit`. This\n// /      transfers Dai from the buyer to the escrow contract.\n// /\n// /      When the seller has completed their responsibilities, the seller\n// /      calls `submit` on their behalf.\n// /\n// /      Once `submit` has been called, the buyer has ~30 days to call `review`.\n// /      If the buyer does not call `review`, anyone may call `reviewPastDue` to\n// /      release the funds to the seller.\n// /\n// /      When `review` is called, the buyer may choose to approve the submission\n// /      or not approve it. If the submission is approved, the funds are released\n// /      to the seller. If the buyer does not approve, the funds are locked\n// /      forever.\ncontract DaiEscrow {\n  enum Status {\n        AwaitingSubmission,\n        AwaitingReview,\n        Complete,\n        Locked\n    }\n\n  enum ContractState {\n      Initialized,\n      Uninitialized\n  }\n\n    // keccak256(\"Review(bool _approve)\")\n    bytes32 public constant REVIEW_TYPEHASH = 0xfa5e0016fb62b8dffda8fd95249d438edcffd3689b40ac3b4281d4cf710609ae;\n\n    // keccak256(\"Submit(bytes32 _submission)\")\n    bytes32 public constant SUBMIT_TYPEHASH = 0x62b607caa4d4e7fcbd31bf4c033cd30888b536567fadc83710fdf15f8d5cfc9e;\n\n    bytes32 public immutable domain_separator;\n\n    address immutable public beneficiary;\n    address immutable public depositor;\n\n    uint immutable public wad;\n\n    Status public status;\n    ContractState public contractState;\n\n    DaiToken daiToken;\n\n    modifier onlyWhen(Status _status) {\n        require(status == _status, \"Fn not presently valid\");\n        _;\n    }\n\n    constructor(\n        address _beneficiary,\n        address _depositor,\n        uint _wad,\n        address _daiTokenAddress\n    ) {\n        require(_depositor != address(0), \"invalid owner\");\n        //require(_beneficiary != address(0), \"invalid worker\");\n        require(_daiTokenAddress != address(0), \"invalid dai token address\");\n\n        uint8 chain_id;\n        assembly {\n            chain_id := chainid()\n        }\n\n        domain_separator = keccak256(abi.encode(\n            keccak256(\"EIP712Domain(string name,string version,uint256 chainId,address verifyingContract)\"),\n            keccak256(bytes(\"escrow\")),\n            keccak256(bytes(\"1\")),\n            chain_id,\n            address(this)\n        ));\n\n        wad = _wad;\n        depositor = _depositor;\n        beneficiary = _beneficiary;\n        status = Status.AwaitingSubmission;\n        contractState = ContractState.Uninitialized;\n        daiToken = DaiToken(_daiTokenAddress);\n    }\n\n    function initialize(\n        uint256 nonce,\n        uint256 expiry,\n        uint8 v_allow,\n        bytes32 r_allow,\n        bytes32 s_allow,\n        uint8 v_deny,\n        bytes32 r_deny,\n        bytes32 s_deny\n    ) external {\n\n        // Unlock buyer's Dai balance to transfer `wad` to this contract.\n        daiToken.permit(depositor, address(this), nonce, expiry, true, v_allow, r_allow, s_allow);\n\n        // Transfer Dai from `buyer` to this contract.\n        daiToken.pull(depositor, wad);\n\n        // Relock Dai balance of `buyer`.\n        daiToken.permit(depositor, address(this), nonce + 1, expiry, false, v_deny, r_deny, s_deny);\n        contractState = ContractState.Initialized;\n    }\n\n    function submit(\n        bytes32 _submission,\n        uint8 _v,\n        bytes32 _r,\n        bytes32 _s\n    ) external onlyWhen(Status.AwaitingSubmission) {\n        bytes32 digest = keccak256(abi.encodePacked(\n            \"\\x19\\x01\",\n            domain_separator,\n            keccak256(abi.encode(SUBMIT_TYPEHASH, _submission))\n        ));\n\n        require(beneficiary != address(0));\n        require(beneficiary == ecrecover(digest, _v, _r, _s), \"invalid-permit\");\n\n        status = Status.AwaitingReview;\n    }\n\n    function review(\n        bool _approve,\n        uint8 _v,\n        bytes32 _r,\n        bytes32 _s\n    ) external onlyWhen(Status.AwaitingReview) {\n        require(msg.sender == depositor, \"Wrong reviewer\");\n        bytes32 digest = keccak256(abi.encodePacked(\n            \"\\x19\\x01\",\n            domain_separator,\n            keccak256(abi.encode(REVIEW_TYPEHASH, _approve))\n        ));\n\n        require(depositor == ecrecover(digest, _v, _r, _s), \"invalid-permit\");\n\n        if (_approve) {\n            resolve(beneficiary);\n        }\n    }\n\n    function resolve(address dai_target) private {\n        require(dai_target != address(0));\n        bool locked = dai_target == address(0);\n\n        if (locked) {\n            status = Status.Locked;\n        } else {\n            status = Status.Complete;\n        }\n\n        if (!locked) {\n            daiToken.push(dai_target, daiToken.balanceOf(address(this)));\n        }\n    }\n\n   /* function cancel() external view {\n        require(status == Status.AwaitingWad || status == Status.Complete, \"wrong status\");\n    } */\n    \n    function updateStatus(address callee) public {\n        \n    }\n}",
  "sourcePath": "/Volumes/GLYPH-3TB/git/opportunity-core/src/contracts/exchange/DaiEscrow.sol",
  "compiler": {
    "name": "solc",
    "version": "0.8.7+commit.e28d00a7.Emscripten.clang"
  },
  "schemaVersion": "3.4.3",
  "updatedAt": "2021-09-06T17:18:52.119Z",
  "devdoc": {
    "kind": "dev",
    "methods": {},
    "version": 1
  },
  "userdoc": {
    "kind": "user",
    "methods": {},
    "version": 1
  }
}