{
  "contractName": "DaiEscrow",
  "abi": [
    {
      "inputs": [
        {
          "internalType": "address",
          "name": "_depositor",
          "type": "address"
        },
        {
          "internalType": "uint256",
          "name": "_wad",
          "type": "uint256"
        },
        {
          "internalType": "address",
          "name": "_daiTokenAddress",
          "type": "address"
        }
      ],
      "stateMutability": "nonpayable",
      "type": "constructor"
    },
    {
      "inputs": [],
      "name": "REVIEW_TYPEHASH",
      "outputs": [
        {
          "internalType": "bytes32",
          "name": "",
          "type": "bytes32"
        }
      ],
      "stateMutability": "view",
      "type": "function"
    },
    {
      "inputs": [],
      "name": "SUBMIT_TYPEHASH",
      "outputs": [
        {
          "internalType": "bytes32",
          "name": "",
          "type": "bytes32"
        }
      ],
      "stateMutability": "view",
      "type": "function"
    },
    {
      "inputs": [],
      "name": "beneficiary",
      "outputs": [
        {
          "internalType": "address",
          "name": "",
          "type": "address"
        }
      ],
      "stateMutability": "view",
      "type": "function"
    },
    {
      "inputs": [],
      "name": "contractState",
      "outputs": [
        {
          "internalType": "enum DaiEscrow.ContractState",
          "name": "",
          "type": "uint8"
        }
      ],
      "stateMutability": "view",
      "type": "function"
    },
    {
      "inputs": [],
      "name": "depositor",
      "outputs": [
        {
          "internalType": "address",
          "name": "",
          "type": "address"
        }
      ],
      "stateMutability": "view",
      "type": "function"
    },
    {
      "inputs": [],
      "name": "domain_separator",
      "outputs": [
        {
          "internalType": "bytes32",
          "name": "",
          "type": "bytes32"
        }
      ],
      "stateMutability": "view",
      "type": "function"
    },
    {
      "inputs": [],
      "name": "status",
      "outputs": [
        {
          "internalType": "enum DaiEscrow.Status",
          "name": "",
          "type": "uint8"
        }
      ],
      "stateMutability": "view",
      "type": "function"
    },
    {
      "inputs": [
        {
          "internalType": "address",
          "name": "",
          "type": "address"
        }
      ],
      "name": "storedFunds",
      "outputs": [
        {
          "internalType": "uint256",
          "name": "",
          "type": "uint256"
        }
      ],
      "stateMutability": "view",
      "type": "function"
    },
    {
      "inputs": [],
      "name": "wad",
      "outputs": [
        {
          "internalType": "uint256",
          "name": "",
          "type": "uint256"
        }
      ],
      "stateMutability": "view",
      "type": "function"
    },
    {
      "inputs": [
        {
          "internalType": "address payable",
          "name": "_beneficiary",
          "type": "address"
        },
        {
          "internalType": "uint256",
          "name": "_stakedReputation",
          "type": "uint256"
        }
      ],
      "name": "assignNewBeneficiary",
      "outputs": [],
      "stateMutability": "nonpayable",
      "type": "function"
    },
    {
      "inputs": [
        {
          "internalType": "uint256",
          "name": "nonce",
          "type": "uint256"
        },
        {
          "internalType": "uint256",
          "name": "expiry",
          "type": "uint256"
        },
        {
          "internalType": "uint8",
          "name": "v",
          "type": "uint8"
        },
        {
          "internalType": "bytes32",
          "name": "r",
          "type": "bytes32"
        },
        {
          "internalType": "bytes32",
          "name": "s",
          "type": "bytes32"
        }
      ],
      "name": "initialize",
      "outputs": [],
      "stateMutability": "nonpayable",
      "type": "function"
    },
    {
      "inputs": [
        {
          "internalType": "bytes32",
          "name": "_submission",
          "type": "bytes32"
        },
        {
          "internalType": "uint8",
          "name": "_v",
          "type": "uint8"
        },
        {
          "internalType": "bytes32",
          "name": "_r",
          "type": "bytes32"
        },
        {
          "internalType": "bytes32",
          "name": "_s",
          "type": "bytes32"
        }
      ],
      "name": "submit",
      "outputs": [],
      "stateMutability": "nonpayable",
      "type": "function"
    },
    {
      "inputs": [
        {
          "internalType": "bool",
          "name": "_approve",
          "type": "bool"
        },
        {
          "internalType": "uint8",
          "name": "_v",
          "type": "uint8"
        },
        {
          "internalType": "bytes32",
          "name": "_r",
          "type": "bytes32"
        },
        {
          "internalType": "bytes32",
          "name": "_s",
          "type": "bytes32"
        }
      ],
      "name": "review",
      "outputs": [],
      "stateMutability": "nonpayable",
      "type": "function"
    },
    {
      "inputs": [
        {
          "internalType": "address",
          "name": "callee",
          "type": "address"
        }
      ],
      "name": "updateStatus",
      "outputs": [],
      "stateMutability": "nonpayable",
      "type": "function"
    }
  ],
  "bytecode": "0x60e060405234801561001057600080fd5b50604051610fbe380380610fbe83398101604081905261002f91610210565b6001600160a01b03831661007a5760405162461bcd60e51b815260206004820152600d60248201526c34b73b30b634b21037bbb732b960991b60448201526064015b60405180910390fd5b6001600160a01b0381166100d05760405162461bcd60e51b815260206004820152601960248201527f696e76616c69642064616920746f6b656e2061646472657373000000000000006044820152606401610071565b604080518082018252600a81526944616920457363726f7760b01b6020918201528151808301835260018152603160f81b9082015281517f8b73c3c69bb8fe3d512ecc4cf759cc79239f7b179b0ffacaa9a75d522b39400f918101919091527f0bdbe35568d399a0401d60d11c76785045fec8c775dcb34589d4a0b9d540700d918101919091527fc89efdaa54c0f20c7adf612882df0950f5a951637e0307cdcb4c672f298b8bc660608201524660ff811660808301523060a08301529060c00160408051808303601f1901815291905280516020909101206080525060609290921b6001600160601b03191660a05260c052600280546001600160b01b031916620100006001600160a01b0393909316929092029190911761010017905561024c565b80516001600160a01b038116811461020b57600080fd5b919050565b60008060006060848603121561022557600080fd5b61022e846101f4565b925060208401519150610243604085016101f4565b90509250925092565b60805160a05160601c60c051610d086102b6600039600081816101c3015261088601526000818161026a015281816103f201528181610556015281816107dd0152818161085e015261090d015260008181610243015281816104aa01526106950152610d086000f3fe608060405234801561001057600080fd5b50600436106100ea5760003560e01c80637df38c5b1161008c578063bad453cf11610066578063bad453cf1461022b578063bfce14ea1461023e578063c7c4ff4614610265578063d8a431071461028c57600080fd5b80637df38c5b146101be57806385209ee0146101e557806396118e441461020457600080fd5b806325b0db0f116100c857806325b0db0f1461013857806338af3eed1461014b5780633c86f6f31461017657806353318a87146101ab57600080fd5b806301162b93146100ef578063200d2ed214610102578063227d645414610125575b600080fd5b6101006100fd366004610aeb565b50565b005b60025461010f9060ff1681565b60405161011c9190610c6d565b60405180910390f35b610100610133366004610b0f565b6102ac565b610100610146366004610b3b565b610387565b60005461015e906001600160a01b031681565b6040516001600160a01b03909116815260200161011c565b61019d7ffa5e0016fb62b8dffda8fd95249d438edcffd3689b40ac3b4281d4cf710609ae81565b60405190815260200161011c565b6101006101b9366004610b84565b6105df565b61019d7f000000000000000000000000000000000000000000000000000000000000000081565b6002546101f790610100900460ff1681565b60405161011c9190610c53565b61019d7f62b607caa4d4e7fcbd31bf4c033cd30888b536567fadc83710fdf15f8d5cfc9e81565b610100610239366004610bc3565b6107b0565b61019d7f000000000000000000000000000000000000000000000000000000000000000081565b61015e7f000000000000000000000000000000000000000000000000000000000000000081565b61019d61029a366004610aeb565b60016020526000908152604090205481565b600080546001600160a01b0319166001600160a01b03841690811790915561031b5760405162461bcd60e51b815260206004820181905260248201527f42656e65666963696172792063616e6e6f74206265203078206164647265737360448201526064015b60405180910390fd5b600054604051637f306ba160e01b81526001600160a01b039182166004820152602481018390528391821690637f306ba190604401600060405180830381600087803b15801561036a57600080fd5b505af115801561037e573d6000803e3d6000fd5b50505050505050565b60018060025460ff1660038111156103a1576103a1610ca7565b146103e75760405162461bcd60e51b8152602060048201526016602482015275119b881b9bdd081c1c995cd95b9d1b1e481d985b1a5960521b6044820152606401610312565b336001600160a01b037f000000000000000000000000000000000000000000000000000000000000000016146104505760405162461bcd60e51b815260206004820152600e60248201526d2bb937b733903932bb34b2bbb2b960911b6044820152606401610312565b604080517ffa5e0016fb62b8dffda8fd95249d438edcffd3689b40ac3b4281d4cf710609ae6020808301919091528715158284015282518083038401815260608301909352825192019190912061190160f01b60808301527f0000000000000000000000000000000000000000000000000000000000000000608283015260a282015260009060c20160408051601f1981840301815282825280516020918201206000845290830180835281905260ff8816918301919091526060820186905260808201859052915060019060a0016020604051602081039080840390855afa158015610541573d6000803e3d6000fd5b505050602060405103516001600160a01b03167f00000000000000000000000000000000000000000000000000000000000000006001600160a01b0316146105bc5760405162461bcd60e51b815260206004820152600e60248201526d1a5b9d985b1a590b5c195c9b5a5d60921b6044820152606401610312565b85156105d7576000546105d7906001600160a01b03166109a5565b505050505050565b60008060025460ff1660038111156105f9576105f9610ca7565b1461063f5760405162461bcd60e51b8152602060048201526016602482015275119b881b9bdd081c1c995cd95b9d1b1e481d985b1a5960521b6044820152606401610312565b604080517f62b607caa4d4e7fcbd31bf4c033cd30888b536567fadc83710fdf15f8d5cfc9e60208083019190915281830188905282518083038401815260608301845280519082012061190160f01b60808401527f0000000000000000000000000000000000000000000000000000000000000000608284015260a2808401919091528351808403909101815260c290920190925280519101206000546001600160a01b03166106ee57600080fd5b60408051600081526020810180835283905260ff871691810191909152606081018590526080810184905260019060a0016020604051602081039080840390855afa158015610741573d6000803e3d6000fd5b5050604051601f1901516000546001600160a01b03908116911614905061079b5760405162461bcd60e51b815260206004820152600e60248201526d1a5b9d985b1a590b5c195c9b5a5d60921b6044820152606401610312565b50506002805460ff1916600117905550505050565b6002546040516323f2ebc360e21b8152620100009091046001600160a01b031690638fcbaf0c90610814907f00000000000000000000000000000000000000000000000000000000000000009030908a908a906001908b908b908b90600401610c0a565b600060405180830381600087803b15801561082e57600080fd5b505af1158015610842573d6000803e3d6000fd5b505060025460405163f2d5d56b60e01b81526001600160a01b037f0000000000000000000000000000000000000000000000000000000000000000811660048301527f0000000000000000000000000000000000000000000000000000000000000000602483015262010000909204909116925063f2d5d56b9150604401600060405180830381600087803b1580156108da57600080fd5b505af11580156108ee573d6000803e3d6000fd5b50506002546201000090046001600160a01b03169150638fcbaf0c90507f000000000000000000000000000000000000000000000000000000000000000030610938896001610c81565b8860008989896040518963ffffffff1660e01b8152600401610961989796959493929190610c0a565b600060405180830381600087803b15801561097b57600080fd5b505af115801561098f573d6000803e3d6000fd5b50506002805461ff001916905550505050505050565b6001600160a01b0381166109b857600080fd5b6001600160a01b0381161580156109db576002805460ff191660031790556109e8565b6002805460ff1916811790555b80610ad1576002546040516370a0823160e01b8152306004820152620100009091046001600160a01b03169063b753a98c90849083906370a082319060240160206040518083038186803b158015610a3f57600080fd5b505afa158015610a53573d6000803e3d6000fd5b505050506040513d601f19601f82011682018060405250810190610a779190610baa565b6040516001600160e01b031960e085901b1681526001600160a01b0390921660048301526024820152604401600060405180830381600087803b158015610abd57600080fd5b505af11580156105d7573d6000803e3d6000fd5b5050565b803560ff81168114610ae657600080fd5b919050565b600060208284031215610afd57600080fd5b8135610b0881610cbd565b9392505050565b60008060408385031215610b2257600080fd5b8235610b2d81610cbd565b946020939093013593505050565b60008060008060808587031215610b5157600080fd5b84358015158114610b6157600080fd5b9350610b6f60208601610ad5565b93969395505050506040820135916060013590565b60008060008060808587031215610b9a57600080fd5b84359350610b6f60208601610ad5565b600060208284031215610bbc57600080fd5b5051919050565b600080600080600060a08688031215610bdb57600080fd5b8535945060208601359350610bf260408701610ad5565b94979396509394606081013594506080013592915050565b6001600160a01b039889168152969097166020870152604086019490945260608501929092521515608084015260ff1660a083015260c082015260e08101919091526101000190565b6020810160028310610c6757610c67610ca7565b91905290565b6020810160048310610c6757610c67610ca7565b60008219821115610ca257634e487b7160e01b600052601160045260246000fd5b500190565b634e487b7160e01b600052602160045260246000fd5b6001600160a01b03811681146100fd57600080fdfea26469706673582212200ac3f3bc4ba1f3618fdb88bc6570c4b56012cbd6975d236ce58a7bc9959c474364736f6c63430008070033",
  "immutableReferences": {
    "486": [
      {
        "length": 32,
        "start": 579
      },
      {
        "length": 32,
        "start": 1194
      },
      {
        "length": 32,
        "start": 1685
      }
    ],
    "490": [
      {
        "length": 32,
        "start": 618
      },
      {
        "length": 32,
        "start": 1010
      },
      {
        "length": 32,
        "start": 1366
      },
      {
        "length": 32,
        "start": 2013
      },
      {
        "length": 32,
        "start": 2142
      },
      {
        "length": 32,
        "start": 2317
      }
    ],
    "492": [
      {
        "length": 32,
        "start": 451
      },
      {
        "length": 32,
        "start": 2182
      }
    ]
  },
  "source": "//SPDX-License-Identifier: Unlicense\npragma solidity 0.8.7;\n\nimport \"../user/UserSummary.sol\";\n\n/// Dai Token Interface\ninterface DaiToken {\n    function permit(\n        address holder,\n        address spender,\n        uint256 nonce,\n        uint256 expiry,\n        bool allowed,\n        uint8 v,\n        bytes32 r,\n        bytes32 s\n    ) external;\n\n    function pull(address usr, uint wad) external;\n    function push(address usr, uint wad) external;\n    function approve(address usr, uint wad) external returns (bool);\n    function totalSupply() external view returns (uint256);\n\t    function balanceOf(address account) external view returns (uint256);\n\t    function allowance(address owner, address spender) external view returns (uint256);\n\t\n\t    function transfer(address recipient, uint256 amount) external returns (bool);\n}\n\n// / @author Vypo Mouse (Forked and modified by Elijah Hampton) - https://forum.openzeppelin.com/t/feedback-on-dai-escrow-contract-that-reimburses-a-relayer-using-uniswap/2771\n// / @title DaiEscrow\n// / @notice Holds Dai tokens in escrow until the buyer and seller agree to\n// /         release them.\n// / @dev First construct the contract, specifying the buyer and seller addresses.\n// /      Then `initialize` the contract with signatures for Dai's `permit`. This\n// /      transfers Dai from the buyer to the escrow contract.\n// /\n// /      When the seller has completed their responsibilities, the seller\n// /      calls `submit` on their behalf.\n// /\n// /      Once `submit` has been called, the buyer has ~30 days to call `review`.\n// /      If the buyer does not call `review`, anyone may call `reviewPastDue` to\n// /      release the funds to the seller.\n// /\n// /      When `review` is called, the buyer may choose to approve the submission\n// /      or not approve it. If the submission is approved, the funds are released\n// /      to the seller. If the buyer does not approve, the funds are locked\n// /      forever.\ncontract DaiEscrow {\n  enum Status {\n        AwaitingSubmission,\n        AwaitingReview,\n        Complete,\n        Locked\n    }\n\n  enum ContractState {\n      Initialized,\n      Uninitialized\n  }\n\n    // keccak256(\"Review(bool _approve)\")\n    bytes32 public constant REVIEW_TYPEHASH = 0xfa5e0016fb62b8dffda8fd95249d438edcffd3689b40ac3b4281d4cf710609ae;\n\n    // keccak256(\"Submit(bytes32 _submission)\")\n    bytes32 public constant SUBMIT_TYPEHASH = 0x62b607caa4d4e7fcbd31bf4c033cd30888b536567fadc83710fdf15f8d5cfc9e;\n\n    bytes32 public immutable domain_separator;\n\n    address public beneficiary;\n    address immutable public depositor;\n\n    uint immutable public wad;\n\n    mapping(address => uint256) public storedFunds;\n\n    Status public status;\n    ContractState public contractState;\n\n    DaiToken daiToken;\n\n    modifier onlyWhen(Status _status) {\n        require(status == _status, \"Fn not presently valid\");\n        _;\n    }\n\n    constructor(\n        address _depositor,\n        uint _wad,\n        address _daiTokenAddress\n    ) {\n        require(_depositor != address(0), \"invalid owner\");\n        require(_daiTokenAddress != address(0), \"invalid dai token address\");\n\n        uint8 chain_id;\n        assembly {\n            chain_id := chainid()\n        }\n\n        domain_separator = keccak256(abi.encode(\n            keccak256(\"EIP712Domain(string name,string version,uint256 chainId,address verifyingContract)\"),\n            keccak256(bytes(\"Dai Escrow\")),\n            keccak256(bytes(\"1\")),\n            chain_id,\n            address(this)\n        ));\n\n        depositor = _depositor;\n        wad = _wad;\n        status = Status.AwaitingSubmission;\n        contractState = ContractState.Uninitialized;\n        daiToken = DaiToken(_daiTokenAddress);\n    }\n\n    function assignNewBeneficiary(address payable _beneficiary, uint256 _stakedReputation) external {\n        beneficiary = _beneficiary;\n        require(_beneficiary != address(0), \"Beneficiary cannot be 0x address\");\n\n        //stake the workers reputation by the required amount\n        //TODO: Need to revert if the user cannot fulfill the reputation requirements\n        UserSummary userSummary = UserSummary(_beneficiary);\n        userSummary.stakeReputation(beneficiary, _stakedReputation);\n    }\n\n    function initialize(\n        uint256 nonce,\n        uint256 expiry,\n        uint8 v,\n        bytes32 r,\n        bytes32 s\n    ) external {\n        // Unlock buyer's Dai balance to transfer `wad` to this contract.\n        daiToken.permit(depositor, address(this), nonce, expiry, true, v, r, s);\n\n        // Transfer Dai from `buyer` to this contract.\n        daiToken.pull(depositor, wad);\n\n        // Relock Dai balance of `buyer`.\n        daiToken.permit(depositor, address(this), nonce + 1, expiry, false, v, r, s);\n\n        contractState = ContractState.Initialized;\n    }\n\n    function submit(\n        bytes32 _submission,\n       uint8 _v,\n        bytes32 _r,\n        bytes32 _s\n    ) external onlyWhen(Status.AwaitingSubmission) {\n        bytes32 digest = keccak256(abi.encodePacked(\n            \"\\x19\\x01\",\n            domain_separator,\n            keccak256(abi.encode(SUBMIT_TYPEHASH, _submission))\n        ));\n\n        require(beneficiary != address(0));\n        require(beneficiary == ecrecover(digest, _v, _r, _s), \"invalid-permit\");\n\n        status = Status.AwaitingReview;\n    }\n\n    function review(\n        bool _approve,\n       uint8 _v,\n        bytes32 _r,\n        bytes32 _s\n    ) external onlyWhen(Status.AwaitingReview) {\n        require(msg.sender == depositor, \"Wrong reviewer\");\n        bytes32 digest = keccak256(abi.encodePacked(\n            \"\\x19\\x01\",\n            domain_separator,\n            keccak256(abi.encode(REVIEW_TYPEHASH, _approve))\n        ));\n\n        require(depositor == ecrecover(digest, _v, _r, _s), \"invalid-permit\");\n\n        if (_approve) {\n            resolve(beneficiary);\n        }\n    }\n\n    function resolve(address dai_target) private {\n        require(dai_target != address(0));\n        bool locked = dai_target == address(0);\n\n        if (locked) {\n            status = Status.Locked;\n        } else {\n            status = Status.Complete;\n        }\n\n        if (!locked) {\n            daiToken.push(dai_target, daiToken.balanceOf(address(this)));\n        }\n    }\n\n   /* function cancel() external view {\n        require(status == Status.AwaitingWad || status == Status.Complete, \"wrong status\");\n    } */\n    \n    function updateStatus(address callee) public {\n        \n    }\n}",
  "sourcePath": "/Users/elijahhampton/Desktop/opportunity-core/src/contracts/exchange/DaiEscrow.sol",
  "compiler": {
    "name": "solc",
    "version": "0.8.7+commit.e28d00a7.Emscripten.clang"
  },
  "schemaVersion": "3.4.3",
  "updatedAt": "2021-09-20T01:30:14.269Z",
  "devdoc": {
    "kind": "dev",
    "methods": {},
    "version": 1
  },
  "userdoc": {
    "kind": "user",
    "methods": {},
    "version": 1
  }
}