{
  "contractName": "Dispute",
  "abi": [
    {
      "inputs": [],
      "stateMutability": "nonpayable",
      "type": "constructor"
    },
    {
      "anonymous": false,
      "inputs": [
        {
          "indexed": true,
          "internalType": "address",
          "name": "_submitter",
          "type": "address"
        },
        {
          "indexed": true,
          "internalType": "address",
          "name": "_aggressor",
          "type": "address"
        },
        {
          "indexed": true,
          "internalType": "address",
          "name": "_relationship",
          "type": "address"
        }
      ],
      "name": "DisputeCreated",
      "type": "event"
    },
    {
      "anonymous": false,
      "inputs": [
        {
          "indexed": true,
          "internalType": "address",
          "name": "_submitter",
          "type": "address"
        },
        {
          "indexed": true,
          "internalType": "address",
          "name": "_aggressor",
          "type": "address"
        },
        {
          "indexed": true,
          "internalType": "address",
          "name": "_relationship",
          "type": "address"
        }
      ],
      "name": "DisputeResolved",
      "type": "event"
    },
    {
      "inputs": [
        {
          "internalType": "address",
          "name": "submitter",
          "type": "address"
        },
        {
          "internalType": "address",
          "name": "aggressor",
          "type": "address"
        },
        {
          "internalType": "address",
          "name": "relationship",
          "type": "address"
        }
      ],
      "name": "createDispute",
      "outputs": [],
      "stateMutability": "nonpayable",
      "type": "function"
    },
    {
      "inputs": [
        {
          "internalType": "address",
          "name": "submitter",
          "type": "address"
        },
        {
          "internalType": "address",
          "name": "aggressor",
          "type": "address"
        },
        {
          "internalType": "address",
          "name": "relationship",
          "type": "address"
        }
      ],
      "name": "endDispute",
      "outputs": [],
      "stateMutability": "nonpayable",
      "type": "function"
    }
  ],
  "bytecode": "0x608060405234801561001057600080fd5b50610242806100206000396000f3fe608060405234801561001057600080fd5b50600436106100365760003560e01c80634b29f5841461003b578063d54462e214610057575b600080fd5b61005560048036038101906100509190610174565b610073565b005b610071600480360381019061006c9190610174565b6100e9565b005b8073ffffffffffffffffffffffffffffffffffffffff168273ffffffffffffffffffffffffffffffffffffffff168473ffffffffffffffffffffffffffffffffffffffff167fef5004fbc727a394eb47673cbdd28b705c06c6ad39410b806484757c2d1fd35460405160405180910390a4505050565b8073ffffffffffffffffffffffffffffffffffffffff168273ffffffffffffffffffffffffffffffffffffffff168473ffffffffffffffffffffffffffffffffffffffff167fcf0e0bbcefb39042e5649899e2165be4139caf7059547be7faf2cecf03fc753b60405160405180910390a4505050565b60008135905061016e816101f5565b92915050565b60008060006060848603121561018957600080fd5b60006101978682870161015f565b93505060206101a88682870161015f565b92505060406101b98682870161015f565b9150509250925092565b60006101ce826101d5565b9050919050565b600073ffffffffffffffffffffffffffffffffffffffff82169050919050565b6101fe816101c3565b811461020957600080fd5b5056fea2646970667358221220be39eb5e001175732d84e813ba289e5115bbc8af2e504b994d785de97e91be2364736f6c63430008040033",
  "immutableReferences": {},
  "source": "// SPDX-License-Identifier: MIT\n\npragma solidity 0.8.4;\n\nimport \"../exchange/WorkRelationship.sol\";\n\ncontract Dispute {\n    constructor() {}\n    event DisputeCreated(address indexed _submitter, address indexed _aggressor, address indexed _relationship);\n    event DisputeResolved(address indexed _submitter, address indexed _aggressor, address indexed _relationship);\n\n    function createDispute(address submitter, address aggressor, address relationship) external {\n        emit DisputeCreated(submitter, aggressor, relationship);\n    }\n    function endDispute(address submitter, address aggressor, address relationship) external {\n        emit DisputeResolved(submitter, aggressor, relationship);\n    }\n}",
  "sourcePath": "/Users/elijahhampton/Desktop/opportunity-core/src/contracts/dispute/Dispute.sol",
  "compiler": {
    "name": "solc",
    "version": "0.8.4+commit.c7e474f2.Emscripten.clang"
  },
  "schemaVersion": "3.4.1",
  "updatedAt": "2021-07-02T21:23:39.949Z",
  "networkType": "ethereum",
  "devdoc": {
    "kind": "dev",
    "methods": {},
    "version": 1
  },
  "userdoc": {
    "kind": "user",
    "methods": {},
    "version": 1
  }
}