{
  "contractName": "Dispute",
  "abi": [
    {
      "inputs": [],
      "stateMutability": "nonpayable",
      "type": "constructor"
    },
    {
      "anonymous": false,
      "inputs": [
        {
          "indexed": true,
          "internalType": "address",
          "name": "_submitter",
          "type": "address"
        },
        {
          "indexed": true,
          "internalType": "address",
          "name": "_aggressor",
          "type": "address"
        },
        {
          "indexed": true,
          "internalType": "address",
          "name": "_relationship",
          "type": "address"
        }
      ],
      "name": "DisputeCreated",
      "type": "event"
    },
    {
      "anonymous": false,
      "inputs": [
        {
          "indexed": true,
          "internalType": "address",
          "name": "_submitter",
          "type": "address"
        },
        {
          "indexed": true,
          "internalType": "address",
          "name": "_aggressor",
          "type": "address"
        },
        {
          "indexed": true,
          "internalType": "address",
          "name": "_relationship",
          "type": "address"
        }
      ],
      "name": "DisputeResolved",
      "type": "event"
    },
    {
      "inputs": [
        {
          "internalType": "address",
          "name": "submitter",
          "type": "address"
        },
        {
          "internalType": "address",
          "name": "aggressor",
          "type": "address"
        },
        {
          "internalType": "address",
          "name": "relationship",
          "type": "address"
        }
      ],
      "name": "createDispute",
      "outputs": [],
      "stateMutability": "nonpayable",
      "type": "function"
    },
    {
      "inputs": [
        {
          "internalType": "address",
          "name": "submitter",
          "type": "address"
        },
        {
          "internalType": "address",
          "name": "aggressor",
          "type": "address"
        },
        {
          "internalType": "address",
          "name": "relationship",
          "type": "address"
        }
      ],
      "name": "endDispute",
      "outputs": [],
      "stateMutability": "nonpayable",
      "type": "function"
    }
  ],
  "bytecode": "0x608060405234801561001057600080fd5b50610196806100206000396000f3fe608060405234801561001057600080fd5b50600436106100365760003560e01c80634b29f5841461003b578063d54462e214610050575b600080fd5b61004e61004936600461011d565b610063565b005b61004e61005e36600461011d565b6100b2565b806001600160a01b0316826001600160a01b0316846001600160a01b03167fef5004fbc727a394eb47673cbdd28b705c06c6ad39410b806484757c2d1fd35460405160405180910390a4505050565b806001600160a01b0316826001600160a01b0316846001600160a01b03167fcf0e0bbcefb39042e5649899e2165be4139caf7059547be7faf2cecf03fc753b60405160405180910390a4505050565b80356001600160a01b038116811461011857600080fd5b919050565b60008060006060848603121561013257600080fd5b61013b84610101565b925061014960208501610101565b915061015760408501610101565b9050925092509256fea264697066735822122082d0ec2c246f12298d83115e1ad4808223c557227a35aea7be98d80e519cc8bc64736f6c63430008070033",
  "immutableReferences": {},
  "source": "// SPDX-License-Identifier: MIT\n\npragma solidity 0.8.7;\n\nimport \"../exchange/WorkRelationship.sol\";\n\ncontract Dispute {\n    constructor() {}\n    event DisputeCreated(address indexed _submitter, address indexed _aggressor, address indexed _relationship);\n    event DisputeResolved(address indexed _submitter, address indexed _aggressor, address indexed _relationship);\n\n    function createDispute(address submitter, address aggressor, address relationship) external {\n        emit DisputeCreated(submitter, aggressor, relationship);\n    }\n    function endDispute(address submitter, address aggressor, address relationship) external {\n        emit DisputeResolved(submitter, aggressor, relationship);\n    }\n}",
  "sourcePath": "/Users/elijahhampton/Desktop/opportunity-core/src/contracts/dispute/Dispute.sol",
  "compiler": {
    "name": "solc",
    "version": "0.8.7+commit.e28d00a7.Emscripten.clang"
  },
  "schemaVersion": "3.4.3",
  "updatedAt": "2021-09-20T01:30:17.398Z",
  "networkType": "ethereum",
  "devdoc": {
    "kind": "dev",
    "methods": {},
    "version": 1
  },
  "userdoc": {
    "kind": "user",
    "methods": {},
    "version": 1
  }
}