{
  "contractName": "MarketFactory",
  "abi": [
    {
      "anonymous": false,
      "inputs": [
        {
          "indexed": true,
          "internalType": "contract Market",
          "name": "_market",
          "type": "address"
        },
        {
          "indexed": true,
          "internalType": "uint256",
          "name": "index",
          "type": "uint256"
        },
        {
          "indexed": false,
          "internalType": "address",
          "name": "owner",
          "type": "address"
        },
        {
          "indexed": false,
          "internalType": "string",
          "name": "marketName",
          "type": "string"
        },
        {
          "indexed": false,
          "internalType": "enum MarketLib.MarketType",
          "name": "marketType",
          "type": "uint8"
        }
      ],
      "name": "MarketCreated",
      "type": "event"
    },
    {
      "anonymous": false,
      "inputs": [
        {
          "indexed": true,
          "internalType": "address",
          "name": "_marketAddress",
          "type": "address"
        }
      ],
      "name": "MarketDestroyed",
      "type": "event"
    },
    {
      "inputs": [
        {
          "internalType": "string",
          "name": "marketName",
          "type": "string"
        },
        {
          "internalType": "enum MarketLib.MarketType",
          "name": "marketType",
          "type": "uint8"
        }
      ],
      "name": "createMarket",
      "outputs": [],
      "stateMutability": "nonpayable",
      "type": "function"
    },
    {
      "inputs": [
        {
          "internalType": "uint32",
          "name": "index",
          "type": "uint32"
        }
      ],
      "name": "destroyMarket",
      "outputs": [],
      "stateMutability": "nonpayable",
      "type": "function"
    },
    {
      "inputs": [],
      "name": "getNumMarkets",
      "outputs": [
        {
          "internalType": "uint256",
          "name": "",
          "type": "uint256"
        }
      ],
      "stateMutability": "view",
      "type": "function",
      "constant": true
    }
  ],
  "bytecode": "0x608060405234801561001057600080fd5b5061365b806100206000396000f3fe60806040523480156200001157600080fd5b5060043610620000465760003560e01c8063295c39a5146200004b57806394542cd6146200006d578063c2ca748b146200008d575b600080fd5b62000055620000ad565b6040516200006491906200044b565b60405180910390f35b6200008b600480360381019062000085919062000333565b620000b9565b005b620000ab6004803603810190620000a59190620002d9565b6200012a565b005b60008080549050905090565b60008163ffffffff1681548110620000fa577f4e487b7100000000000000000000000000000000000000000000000000000000600052603260045260246000fd5b9060005260206000200160006101000a81549073ffffffffffffffffffffffffffffffffffffffff021916905550565b600082826040516200013c906200022b565b6200014992919062000417565b604051809103906000f08015801562000166573d6000803e3d6000fd5b5090506000819080600181540180825580915050600190039060005260206000200160009091909190916101000a81548173ffffffffffffffffffffffffffffffffffffffff021916908373ffffffffffffffffffffffffffffffffffffffff1602179055506000805490508173ffffffffffffffffffffffffffffffffffffffff167febedd027e6e07d96bc5efbcb1c07e95295efa7ed8cf4df58968ff7ef7f7983d53386866040516200021e93929190620003d3565b60405180910390a3505050565b612f9f806200068783390190565b6000620002506200024a8462000491565b62000468565b9050828152602081018484840111156200026957600080fd5b620002768482856200055a565b509392505050565b6000813590506200028f816200065b565b92915050565b600082601f830112620002a757600080fd5b8135620002b984826020860162000239565b91505092915050565b600081359050620002d3816200066c565b92915050565b60008060408385031215620002ed57600080fd5b600083013567ffffffffffffffff8111156200030857600080fd5b620003168582860162000295565b925050602062000329858286016200027e565b9150509250929050565b6000602082840312156200034657600080fd5b60006200035684828501620002c2565b91505092915050565b6200036a81620004e3565b82525050565b6200037b8162000546565b82525050565b60006200038e82620004c7565b6200039a8185620004d2565b9350620003ac81856020860162000569565b620003b78162000633565b840191505092915050565b620003cd816200052c565b82525050565b6000606082019050620003ea60008301866200035f565b8181036020830152620003fe818562000381565b90506200040f604083018462000370565b949350505050565b6000604082019050818103600083015262000433818562000381565b905062000444602083018462000370565b9392505050565b6000602082019050620004626000830184620003c2565b92915050565b60006200047462000487565b90506200048282826200059f565b919050565b6000604051905090565b600067ffffffffffffffff821115620004af57620004ae62000604565b5b620004ba8262000633565b9050602081019050919050565b600081519050919050565b600082825260208201905092915050565b6000620004f0826200050c565b9050919050565b6000819050620005078262000644565b919050565b600073ffffffffffffffffffffffffffffffffffffffff82169050919050565b6000819050919050565b600063ffffffff82169050919050565b60006200055382620004f7565b9050919050565b82818337600083830152505050565b60005b83811015620005895780820151818401526020810190506200056c565b8381111562000599576000848401525b50505050565b620005aa8262000633565b810181811067ffffffffffffffff82111715620005cc57620005cb62000604565b5b80604052505050565b7f4e487b7100000000000000000000000000000000000000000000000000000000600052602160045260246000fd5b7f4e487b7100000000000000000000000000000000000000000000000000000000600052604160045260246000fd5b6000601f19601f8301169050919050565b60028110620006585762000657620005d5565b5b50565b600281106200066957600080fd5b50565b620006778162000536565b81146200068357600080fd5b5056fe60806040523480156200001157600080fd5b5060405162002f9f38038062002f9f8339818101604052810190620000379190620002f6565b600062000049620001b560201b60201c565b9050806000806101000a81548173ffffffffffffffffffffffffffffffffffffffff021916908373ffffffffffffffffffffffffffffffffffffffff1602179055508073ffffffffffffffffffffffffffffffffffffffff16600073ffffffffffffffffffffffffffffffffffffffff167f8be0079c531659141344cd1fd0a4f28419497f9722a3daafe3b4186f6b6457e060405160405180910390a35033600160006101000a81548173ffffffffffffffffffffffffffffffffffffffff021916908373ffffffffffffffffffffffffffffffffffffffff1602179055506000600160146101000a81548160ff02191690831515021790555081600290805190602001906200015b929190620001bd565b5080600360006101000a81548160ff02191690836001811115620001a8577f4e487b7100000000000000000000000000000000000000000000000000000000600052602160045260246000fd5b02179055505050620004d1565b600033905090565b828054620001cb90620003e5565b90600052602060002090601f016020900481019282620001ef57600085556200023b565b82601f106200020a57805160ff19168380011785556200023b565b828001600101855582156200023b579182015b828111156200023a5782518255916020019190600101906200021d565b5b5090506200024a91906200024e565b5090565b5b80821115620002695760008160009055506001016200024f565b5090565b6000620002846200027e8462000379565b62000350565b9050828152602081018484840111156200029d57600080fd5b620002aa848285620003af565b509392505050565b600081519050620002c381620004c0565b92915050565b600082601f830112620002db57600080fd5b8151620002ed8482602086016200026d565b91505092915050565b600080604083850312156200030a57600080fd5b600083015167ffffffffffffffff8111156200032557600080fd5b6200033385828601620002c9565b92505060206200034685828601620002b2565b9150509250929050565b60006200035c6200036f565b90506200036a82826200041b565b919050565b6000604051905090565b600067ffffffffffffffff82111562000397576200039662000480565b5b620003a282620004af565b9050602081019050919050565b60005b83811015620003cf578082015181840152602081019050620003b2565b83811115620003df576000848401525b50505050565b60006002820490506001821680620003fe57607f821691505b6020821081141562000415576200041462000451565b5b50919050565b6200042682620004af565b810181811067ffffffffffffffff8211171562000448576200044762000480565b5b80604052505050565b7f4e487b7100000000000000000000000000000000000000000000000000000000600052602260045260246000fd5b7f4e487b7100000000000000000000000000000000000000000000000000000000600052604160045260246000fd5b6000601f19601f8301169050919050565b60028110620004ce57600080fd5b50565b612abe80620004e16000396000f3fe60806040523480156200001157600080fd5b50600436106200010c5760003560e01c80637e0c00ed11620000a5578063a03738dc116200006f578063a03738dc1462000259578063c143521f1462000265578063d81657431462000287578063f2fde38b14620002a9576200010c565b80637e0c00ed14620001e7578063838069f714620002095780638da5cb5b146200022b5780639319106b146200024d576200010c565b80635c975abb11620000e75780635c975abb14620001755780636039c8d71462000197578063715018a614620001b95780637cf63de914620001c5576200010c565b80630f091637146200011157806336e114fc14620001335780633c6a1c671462000155575b600080fd5b6200011b620002c9565b6040516200012a91906200129c565b60405180910390f35b6200013d620002cf565b6040516200014c919062001175565b60405180910390f35b6200017360048036038101906200016d919062000f03565b6200035f565b005b6200017f620004b2565b6040516200018e919062001199565b60405180910390f35b620001a1620004c9565b604051620001b09190620011f0565b60405180910390f35b620001c36200055f565b005b620001cf620006a0565b604051620001de9190620011d3565b60405180910390f35b620001f1620006b3565b6040516200020091906200129c565b60405180910390f35b62000213620006c0565b604051620002229190620011b6565b60405180910390f35b62000235620006d3565b60405162000244919062001124565b60405180910390f35b62000257620006fc565b005b620002636200090a565b005b6200026f62000b18565b6040516200027e91906200129c565b60405180910390f35b6200029162000b1e565b604051620002a0919062001199565b60405180910390f35b620002c76004803603810190620002c1919062000ed7565b62000b2f565b005b60045481565b606060078054806020026020016040519081016040528092919081815260200182805480156200035557602002820191906000526020600020905b8160009054906101000a900473ffffffffffffffffffffffffffffffffffffffff1673ffffffffffffffffffffffffffffffffffffffff16815260200190600101908083116200030a575b5050505050905090565b600073ffffffffffffffffffffffffffffffffffffffff168273ffffffffffffffffffffffffffffffffffffffff1614156200039a57600080fd5b60008282604051620003ac9062000e40565b620003b992919062001141565b604051809103906000f080158015620003d6573d6000803e3d6000fd5b5090506007819080600181540180825580915050600190039060005260206000200160009091909190916101000a81548173ffffffffffffffffffffffffffffffffffffffff021916908373ffffffffffffffffffffffffffffffffffffffff1602179055503073ffffffffffffffffffffffffffffffffffffffff168173ffffffffffffffffffffffffffffffffffffffff168473ffffffffffffffffffffffffffffffffffffffff167f43af47c504a2f23934b1a816cd86633559721bf26c3656844bdde3edd4719e1360405160405180910390a4505050565b6000600160149054906101000a900460ff16905090565b60028054620004d89062001476565b80601f0160208091040260200160405190810160405280929190818152602001828054620005069062001476565b8015620005575780601f106200052b5761010080835404028352916020019162000557565b820191906000526020600020905b8154815290600101906020018083116200053957829003601f168201915b505050505081565b6200056962000ce2565b73ffffffffffffffffffffffffffffffffffffffff1662000589620006d3565b73ffffffffffffffffffffffffffffffffffffffff1614620005e2576040517f08c379a0000000000000000000000000000000000000000000000000000000008152600401620005d9906200127a565b60405180910390fd5b600073ffffffffffffffffffffffffffffffffffffffff1660008054906101000a900473ffffffffffffffffffffffffffffffffffffffff1673ffffffffffffffffffffffffffffffffffffffff167f8be0079c531659141344cd1fd0a4f28419497f9722a3daafe3b4186f6b6457e060405160405180910390a360008060006101000a81548173ffffffffffffffffffffffffffffffffffffffff021916908373ffffffffffffffffffffffffffffffffffffffff160217905550565b600360009054906101000a900460ff1681565b6000600780549050905090565b600660009054906101000a900460ff1681565b60008060009054906101000a900473ffffffffffffffffffffffffffffffffffffffff16905090565b6200070662000ce2565b73ffffffffffffffffffffffffffffffffffffffff1662000726620006d3565b73ffffffffffffffffffffffffffffffffffffffff16146200077f576040517f08c379a000000000000000000000000000000000000000000000000000000000815260040162000776906200127a565b60405180910390fd5b33600160009054906101000a900473ffffffffffffffffffffffffffffffffffffffff1673ffffffffffffffffffffffffffffffffffffffff168173ffffffffffffffffffffffffffffffffffffffff1614620007db57600080fd5b600360009054906101000a900460ff166000600181111562000826577f4e487b7100000000000000000000000000000000000000000000000000000000600052602160045260246000fd5b81600181111562000860577f4e487b7100000000000000000000000000000000000000000000000000000000600052602160045260246000fd5b146200086b57600080fd5b600660009054906101000a900460ff1660006001811115620008b6577f4e487b7100000000000000000000000000000000000000000000000000000000600052602160045260246000fd5b816001811115620008f0577f4e487b7100000000000000000000000000000000000000000000000000000000600052602160045260246000fd5b14620008fb57600080fd5b6200090562000cea565b505050565b6200091462000ce2565b73ffffffffffffffffffffffffffffffffffffffff1662000934620006d3565b73ffffffffffffffffffffffffffffffffffffffff16146200098d576040517f08c379a000000000000000000000000000000000000000000000000000000000815260040162000984906200127a565b60405180910390fd5b33600160009054906101000a900473ffffffffffffffffffffffffffffffffffffffff1673ffffffffffffffffffffffffffffffffffffffff168173ffffffffffffffffffffffffffffffffffffffff1614620009e957600080fd5b600360009054906101000a900460ff166000600181111562000a34577f4e487b7100000000000000000000000000000000000000000000000000000000600052602160045260246000fd5b81600181111562000a6e577f4e487b7100000000000000000000000000000000000000000000000000000000600052602160045260246000fd5b1462000a7957600080fd5b600660009054906101000a900460ff1660018081111562000ac3577f4e487b7100000000000000000000000000000000000000000000000000000000600052602160045260246000fd5b81600181111562000afd577f4e487b7100000000000000000000000000000000000000000000000000000000600052602160045260246000fd5b141562000b0957600080fd5b62000b1362000d95565b505050565b60055481565b600062000b2a620004b2565b905090565b62000b3962000ce2565b73ffffffffffffffffffffffffffffffffffffffff1662000b59620006d3565b73ffffffffffffffffffffffffffffffffffffffff161462000bb2576040517f08c379a000000000000000000000000000000000000000000000000000000000815260040162000ba9906200127a565b60405180910390fd5b600073ffffffffffffffffffffffffffffffffffffffff168173ffffffffffffffffffffffffffffffffffffffff16141562000c25576040517f08c379a000000000000000000000000000000000000000000000000000000000815260040162000c1c9062001236565b60405180910390fd5b8073ffffffffffffffffffffffffffffffffffffffff1660008054906101000a900473ffffffffffffffffffffffffffffffffffffffff1673ffffffffffffffffffffffffffffffffffffffff167f8be0079c531659141344cd1fd0a4f28419497f9722a3daafe3b4186f6b6457e060405160405180910390a3806000806101000a81548173ffffffffffffffffffffffffffffffffffffffff021916908373ffffffffffffffffffffffffffffffffffffffff16021790555050565b600033905090565b62000cf4620004b2565b62000d36576040517f08c379a000000000000000000000000000000000000000000000000000000000815260040162000d2d9062001214565b60405180910390fd5b6000600160146101000a81548160ff0219169083151502179055507f5db9ee0a495bf2e6ff9c91a7834c1ba4fdd244a5e8aa4e537bd38aeae4b073aa62000d7c62000ce2565b60405162000d8b919062001124565b60405180910390a1565b62000d9f620004b2565b1562000de2576040517f08c379a000000000000000000000000000000000000000000000000000000000815260040162000dd99062001258565b60405180910390fd5b60018060146101000a81548160ff0219169083151502179055507f62e78cea01bee320cd4e420270b5ea74000d11b0c9f74754ebdbfc544b05a25862000e2762000ce2565b60405162000e36919062001124565b60405180910390a1565b6113f6806200169383390190565b600062000e6562000e5f84620012e2565b620012b9565b90508281526020810184848401111562000e7e57600080fd5b62000e8b84828562001431565b509392505050565b60008135905062000ea48162001678565b92915050565b600082601f83011262000ebc57600080fd5b813562000ece84826020860162000e4e565b91505092915050565b60006020828403121562000eea57600080fd5b600062000efa8482850162000e93565b91505092915050565b6000806040838503121562000f1757600080fd5b600062000f278582860162000e93565b925050602083013567ffffffffffffffff81111562000f4557600080fd5b62000f538582860162000eaa565b9150509250929050565b600062000f6b838362001003565b60208301905092915050565b62000f82816200136d565b82525050565b600062000f958262001328565b62000fa181856200134b565b935062000fae8362001318565b8060005b8381101562000fe557815162000fc9888262000f5d565b975062000fd6836200133e565b92505060018101905062000fb2565b5085935050505092915050565b62000ffd8162001381565b82525050565b6200100e81620013e1565b82525050565b6200101f8162001409565b82525050565b62001030816200141d565b82525050565b6000620010438262001333565b6200104f81856200135c565b93506200106181856020860162001440565b6200106c816200156f565b840191505092915050565b6000620010866014836200135c565b9150620010938262001580565b602082019050919050565b6000620010ad6026836200135c565b9150620010ba82620015a9565b604082019050919050565b6000620010d46010836200135c565b9150620010e182620015f8565b602082019050919050565b6000620010fb6020836200135c565b9150620011088262001621565b602082019050919050565b6200111e81620013d7565b82525050565b60006020820190506200113b600083018462000f77565b92915050565b600060408201905062001158600083018562000f77565b81810360208301526200116c818462001036565b90509392505050565b6000602082019050818103600083015262001191818462000f88565b905092915050565b6000602082019050620011b0600083018462000ff2565b92915050565b6000602082019050620011cd600083018462001014565b92915050565b6000602082019050620011ea600083018462001025565b92915050565b600060208201905081810360008301526200120c818462001036565b905092915050565b600060208201905081810360008301526200122f8162001077565b9050919050565b6000602082019050818103600083015262001251816200109e565b9050919050565b600060208201905081810360008301526200127381620010c5565b9050919050565b600060208201905081810360008301526200129581620010ec565b9050919050565b6000602082019050620012b3600083018462001113565b92915050565b6000620012c5620012d8565b9050620012d38282620014ac565b919050565b6000604051905090565b600067ffffffffffffffff8211156200130057620012ff62001540565b5b6200130b826200156f565b9050602081019050919050565b6000819050602082019050919050565b600081519050919050565b600081519050919050565b6000602082019050919050565b600082825260208201905092915050565b600082825260208201905092915050565b60006200137a82620013b7565b9050919050565b60008115159050919050565b60008190506200139d826200164a565b919050565b6000819050620013b28262001661565b919050565b600073ffffffffffffffffffffffffffffffffffffffff82169050919050565b6000819050919050565b6000620013ee82620013f5565b9050919050565b60006200140282620013b7565b9050919050565b600062001416826200138d565b9050919050565b60006200142a82620013a2565b9050919050565b82818337600083830152505050565b60005b838110156200146057808201518184015260208101905062001443565b8381111562001470576000848401525b50505050565b600060028204905060018216806200148f57607f821691505b60208210811415620014a657620014a562001511565b5b50919050565b620014b7826200156f565b810181811067ffffffffffffffff82111715620014d957620014d862001540565b5b80604052505050565b7f4e487b7100000000000000000000000000000000000000000000000000000000600052602160045260246000fd5b7f4e487b7100000000000000000000000000000000000000000000000000000000600052602260045260246000fd5b7f4e487b7100000000000000000000000000000000000000000000000000000000600052604160045260246000fd5b6000601f19601f8301169050919050565b7f5061757361626c653a206e6f7420706175736564000000000000000000000000600082015250565b7f4f776e61626c653a206e6577206f776e657220697320746865207a65726f206160008201527f6464726573730000000000000000000000000000000000000000000000000000602082015250565b7f5061757361626c653a2070617573656400000000000000000000000000000000600082015250565b7f4f776e61626c653a2063616c6c6572206973206e6f7420746865206f776e6572600082015250565b600281106200165e576200165d620014e2565b5b50565b60028110620016755762001674620014e2565b5b50565b62001683816200136d565b81146200168f57600080fd5b5056fe608060405260405180602001604052806000815250600390805190602001906200002b92919062000168565b5060405180602001604052806000815250600490805190602001906200005392919062000168565b50604051620013f6380380620013f68339818101604052810190620000799190620002a1565b600073ffffffffffffffffffffffffffffffffffffffff168273ffffffffffffffffffffffffffffffffffffffff161415620000b457600080fd5b81600260006101000a81548173ffffffffffffffffffffffffffffffffffffffff021916908373ffffffffffffffffffffffffffffffffffffffff1602179055506000600560006101000a81548160ff0219169083600681111562000142577f4e487b7100000000000000000000000000000000000000000000000000000000600052602160045260246000fd5b021790555080600390805190602001906200015f92919062000168565b505050620004b9565b8280546200017690620003c4565b90600052602060002090601f0160209004810192826200019a5760008555620001e6565b82601f10620001b557805160ff1916838001178555620001e6565b82800160010185558215620001e6579182015b82811115620001e5578251825591602001919060010190620001c8565b5b509050620001f59190620001f9565b5090565b5b8082111562000214576000816000905550600101620001fa565b5090565b60006200022f620002298462000324565b620002fb565b9050828152602081018484840111156200024857600080fd5b620002558482856200038e565b509392505050565b6000815190506200026e816200049f565b92915050565b600082601f8301126200028657600080fd5b81516200029884826020860162000218565b91505092915050565b60008060408385031215620002b557600080fd5b6000620002c5858286016200025d565b925050602083015167ffffffffffffffff811115620002e357600080fd5b620002f18582860162000274565b9150509250929050565b6000620003076200031a565b9050620003158282620003fa565b919050565b6000604051905090565b600067ffffffffffffffff8211156200034257620003416200045f565b5b6200034d826200048e565b9050602081019050919050565b600062000367826200036e565b9050919050565b600073ffffffffffffffffffffffffffffffffffffffff82169050919050565b60005b83811015620003ae57808201518184015260208101905062000391565b83811115620003be576000848401525b50505050565b60006002820490506001821680620003dd57607f821691505b60208210811415620003f457620003f362000430565b5b50919050565b62000405826200048e565b810181811067ffffffffffffffff821117156200042757620004266200045f565b5b80604052505050565b7f4e487b7100000000000000000000000000000000000000000000000000000000600052602260045260246000fd5b7f4e487b7100000000000000000000000000000000000000000000000000000000600052604160045260246000fd5b6000601f19601f8301169050919050565b620004aa816200035a565b8114620004b657600080fd5b50565b610f2d80620004c96000396000f3fe6080604052600436106100915760003560e01c8063cb18368711610059578063cb1836871461017d578063df502c6b14610199578063e6e88593146101c4578063ec3a4790146101ef578063eebc6e3d1461021857610091565b806335e92819146100965780635db28c66146100bf5780637843c0e4146100ea5780638da5cb5b1461011557806396d6d69614610140575b600080fd5b3480156100a257600080fd5b506100bd60048036038101906100b89190610973565b610243565b005b3480156100cb57600080fd5b506100d46102ed565b6040516100e19190610b49565b60405180910390f35b3480156100f657600080fd5b506100ff6103f4565b60405161010c9190610af8565b60405180910390f35b34801561012157600080fd5b5061012a61041a565b6040516101379190610af8565b60405180910390f35b34801561014c57600080fd5b50610167600480360381019061016291906108f6565b610444565b6040516101749190610b13565b60405180910390f35b610197600480360381019061019291906108cd565b6104de565b005b3480156101a557600080fd5b506101ae610522565b6040516101bb9190610b49565b60405180910390f35b3480156101d057600080fd5b506101d96105b0565b6040516101e69190610b2e565b60405180910390f35b3480156101fb57600080fd5b5061021660048036038101906102119190610973565b6105c3565b005b34801561022457600080fd5b5061022d610652565b60405161023a9190610af8565b60405180910390f35b600160009054906101000a900473ffffffffffffffffffffffffffffffffffffffff1673ffffffffffffffffffffffffffffffffffffffff163373ffffffffffffffffffffffffffffffffffffffff16146102d3576040517f08c379a00000000000000000000000000000000000000000000000000000000081526004016102ca90610b8b565b60405180910390fd5b80600490805190602001906102e992919061070b565b5050565b60603373ffffffffffffffffffffffffffffffffffffffff1661030e61041a565b73ffffffffffffffffffffffffffffffffffffffff1614610364576040517f08c379a000000000000000000000000000000000000000000000000000000000815260040161035b90610b6b565b60405180910390fd5b6004805461037190610cff565b80601f016020809104026020016040519081016040528092919081815260200182805461039d90610cff565b80156103ea5780601f106103bf576101008083540402835291602001916103ea565b820191906000526020600020905b8154815290600101906020018083116103cd57829003601f168201915b5050505050905090565b600160009054906101000a900473ffffffffffffffffffffffffffffffffffffffff1681565b6000600260009054906101000a900473ffffffffffffffffffffffffffffffffffffffff16905090565b6000808373ffffffffffffffffffffffffffffffffffffffff16635d5f221f846040518263ffffffff1660e01b81526004016104809190610bab565b602060405180830381600087803b15801561049a57600080fd5b505af11580156104ae573d6000803e3d6000fd5b505050506040513d601f19601f820116820180604052508101906104d2919061094a565b90508091505092915050565b8073ffffffffffffffffffffffffffffffffffffffff163373ffffffffffffffffffffffffffffffffffffffff161461051657600080fd5b61051f81610676565b50565b6003805461052f90610cff565b80601f016020809104026020016040519081016040528092919081815260200182805461055b90610cff565b80156105a85780601f1061057d576101008083540402835291602001916105a8565b820191906000526020600020905b81548152906001019060200180831161058b57829003601f168201915b505050505081565b600560009054906101000a900460ff1681565b3373ffffffffffffffffffffffffffffffffffffffff166105e261041a565b73ffffffffffffffffffffffffffffffffffffffff1614610638576040517f08c379a000000000000000000000000000000000000000000000000000000000815260040161062f90610b6b565b60405180910390fd5b806003908051906020019061064e92919061070b565b5050565b60008054906101000a900473ffffffffffffffffffffffffffffffffffffffff1681565b80600160006101000a81548173ffffffffffffffffffffffffffffffffffffffff021916908373ffffffffffffffffffffffffffffffffffffffff1602179055506006600560006101000a81548160ff02191690836006811115610703577f4e487b7100000000000000000000000000000000000000000000000000000000600052602160045260246000fd5b021790555050565b82805461071790610cff565b90600052602060002090601f0160209004810192826107395760008555610780565b82601f1061075257805160ff1916838001178555610780565b82800160010185558215610780579182015b8281111561077f578251825591602001919060010190610764565b5b50905061078d9190610791565b5090565b5b808211156107aa576000816000905550600101610792565b5090565b60006107c16107bc84610bf2565b610bcd565b9050828152602081018484840111156107d957600080fd5b6107e4848285610cbd565b509392505050565b6000813590506107fb81610eb2565b92915050565b60008151905061081081610ec9565b92915050565b600082601f83011261082757600080fd5b81356108378482602086016107ae565b91505092915050565b60006060828403121561085257600080fd5b61085c6060610bcd565b9050600082013567ffffffffffffffff81111561087857600080fd5b61088484828501610816565b6000830152506020610898848285016108b8565b60208301525060406108ac848285016108b8565b60408301525092915050565b6000813590506108c781610ee0565b92915050565b6000602082840312156108df57600080fd5b60006108ed848285016107ec565b91505092915050565b6000806040838503121561090957600080fd5b6000610917858286016107ec565b925050602083013567ffffffffffffffff81111561093457600080fd5b61094085828601610840565b9150509250929050565b60006020828403121561095c57600080fd5b600061096a84828501610801565b91505092915050565b60006020828403121561098557600080fd5b600082013567ffffffffffffffff81111561099f57600080fd5b6109ab84828501610816565b91505092915050565b6109bd81610c50565b82525050565b6109cc81610c62565b82525050565b6109db81610cab565b82525050565b60006109ec82610c23565b6109f68185610c2e565b9350610a06818560208601610ccc565b610a0f81610def565b840191505092915050565b6000610a2582610c23565b610a2f8185610c3f565b9350610a3f818560208601610ccc565b610a4881610def565b840191505092915050565b6000610a60602983610c3f565b9150610a6b82610e00565b604082019050919050565b6000610a83602a83610c3f565b9150610a8e82610e4f565b604082019050919050565b60006060830160008301518482036000860152610ab682826109e1565b9150506020830151610acb6020860182610ae9565b506040830151610ade6040860182610ae9565b508091505092915050565b610af281610ca1565b82525050565b6000602082019050610b0d60008301846109b4565b92915050565b6000602082019050610b2860008301846109c3565b92915050565b6000602082019050610b4360008301846109d2565b92915050565b60006020820190508181036000830152610b638184610a1a565b905092915050565b60006020820190508181036000830152610b8481610a53565b9050919050565b60006020820190508181036000830152610ba481610a76565b9050919050565b60006020820190508181036000830152610bc58184610a99565b905092915050565b6000610bd7610be8565b9050610be38282610d31565b919050565b6000604051905090565b600067ffffffffffffffff821115610c0d57610c0c610dc0565b5b610c1682610def565b9050602081019050919050565b600081519050919050565b600082825260208201905092915050565b600082825260208201905092915050565b6000610c5b82610c81565b9050919050565b60008115159050919050565b6000819050610c7c82610e9e565b919050565b600073ffffffffffffffffffffffffffffffffffffffff82169050919050565b6000819050919050565b6000610cb682610c6e565b9050919050565b82818337600083830152505050565b60005b83811015610cea578082015181840152602081019050610ccf565b83811115610cf9576000848401525b50505050565b60006002820490506001821680610d1757607f821691505b60208210811415610d2b57610d2a610d91565b5b50919050565b610d3a82610def565b810181811067ffffffffffffffff82111715610d5957610d58610dc0565b5b80604052505050565b7f4e487b7100000000000000000000000000000000000000000000000000000000600052602160045260246000fd5b7f4e487b7100000000000000000000000000000000000000000000000000000000600052602260045260246000fd5b7f4e487b7100000000000000000000000000000000000000000000000000000000600052604160045260246000fd5b6000601f19601f8301169050919050565b7f576f726b52656c6174696f6e736869703a2063616c6c6572206973206e6f742060008201527f746865206f776e65720000000000000000000000000000000000000000000000602082015250565b7f576f726b52656c6174696f6e736869703a2063616c6c6572206973206e6f742060008201527f74686520776f726b657200000000000000000000000000000000000000000000602082015250565b60078110610eaf57610eae610d62565b5b50565b610ebb81610c50565b8114610ec657600080fd5b50565b610ed281610c62565b8114610edd57600080fd5b50565b610ee981610ca1565b8114610ef457600080fd5b5056fea2646970667358221220186d053c323df4e8b97f7db36bad729960634e9b2a1f94151201340e6db5d7c264736f6c63430008040033a264697066735822122080295ba18fdc0e9f3c68504f7a5ff52ec3ff447d535887fd809e1ac34b62f21764736f6c63430008040033a264697066735822122062010e87a4e3f03168e2e66ee6da4b0b4d8e6f6de9763df91cc7f854b0faad2964736f6c63430008040033",
  "immutableReferences": {},
  "source": "// SPDX-License-Identifier: MIT\n\npragma solidity 0.8.4;\n\nimport \"./Market.sol\";\nimport \"../libraries/MarketLib.sol\";\n\ncontract MarketFactory {\n    event MarketCreated(Market indexed _market, uint256 indexed index, address owner, string marketName, MarketLib.MarketType marketType);\n    event MarketDestroyed(address indexed _marketAddress);\n    Market[] private _createdMarkets;\n\n\n    /**\n     * Creates a user summary contract for each user based on their civic ID.\n     */\n     function createMarket(string memory marketName, MarketLib.MarketType marketType) external {\n        Market createdMarket = new Market(marketName, marketType);\n        _createdMarkets.push(createdMarket);\n        emit MarketCreated(createdMarket, _createdMarkets.length, msg.sender, marketName, marketType);\n    }\n\n    function destroyMarket(uint32 index) external {\n        delete _createdMarkets[index];\n    }\n\n    /**\n     *\n     */\n     function getNumMarkets() public view returns (uint256) {\n         return _createdMarkets.length;\n     }\n}\n",
  "sourcePath": "/Users/elijahhampton/Desktop/opportunity-core/src/contracts/market/MarketFactory.sol",
  "compiler": {
    "name": "solc",
    "version": "0.8.4+commit.c7e474f2.Emscripten.clang"
  },
  "schemaVersion": "3.4.1",
  "updatedAt": "2021-07-02T21:23:39.936Z",
  "networkType": "ethereum",
  "devdoc": {
    "kind": "dev",
    "methods": {},
    "version": 1
  },
  "userdoc": {
    "kind": "user",
    "methods": {
      "createMarket(string,uint8)": {
        "notice": "Creates a user summary contract for each user based on their civic ID."
      }
    },
    "version": 1
  }
}