{
  "contractName": "Market",
  "abi": [
    {
      "inputs": [
        {
          "internalType": "string",
          "name": "marketName",
          "type": "string"
        },
        {
          "internalType": "enum MarketLib.MarketType",
          "name": "marketType",
          "type": "uint8"
        }
      ],
      "stateMutability": "nonpayable",
      "type": "constructor"
    },
    {
      "anonymous": false,
      "inputs": [
        {
          "indexed": true,
          "internalType": "address",
          "name": "marketAddress",
          "type": "address"
        },
        {
          "indexed": true,
          "internalType": "string",
          "name": "marketName",
          "type": "string"
        }
      ],
      "name": "MarketPaused",
      "type": "event"
    },
    {
      "anonymous": false,
      "inputs": [
        {
          "indexed": true,
          "internalType": "address",
          "name": "marketAddress",
          "type": "address"
        },
        {
          "indexed": true,
          "internalType": "string",
          "name": "marketName",
          "type": "string"
        }
      ],
      "name": "MarketResumed",
      "type": "event"
    },
    {
      "anonymous": false,
      "inputs": [
        {
          "indexed": true,
          "internalType": "address",
          "name": "previousOwner",
          "type": "address"
        },
        {
          "indexed": true,
          "internalType": "address",
          "name": "newOwner",
          "type": "address"
        }
      ],
      "name": "OwnershipTransferred",
      "type": "event"
    },
    {
      "anonymous": false,
      "inputs": [
        {
          "indexed": false,
          "internalType": "address",
          "name": "account",
          "type": "address"
        }
      ],
      "name": "Paused",
      "type": "event"
    },
    {
      "anonymous": false,
      "inputs": [
        {
          "indexed": false,
          "internalType": "address",
          "name": "account",
          "type": "address"
        }
      ],
      "name": "Unpaused",
      "type": "event"
    },
    {
      "anonymous": false,
      "inputs": [
        {
          "indexed": true,
          "internalType": "address",
          "name": "owner",
          "type": "address"
        },
        {
          "indexed": true,
          "internalType": "address",
          "name": "relationship",
          "type": "address"
        },
        {
          "indexed": true,
          "internalType": "address",
          "name": "marketAddress",
          "type": "address"
        }
      ],
      "name": "WorkRelationshipCreated",
      "type": "event"
    },
    {
      "anonymous": false,
      "inputs": [
        {
          "indexed": true,
          "internalType": "address",
          "name": "owner",
          "type": "address"
        },
        {
          "indexed": true,
          "internalType": "address",
          "name": "relationship",
          "type": "address"
        }
      ],
      "name": "WorkRelationshipEnded",
      "type": "event"
    },
    {
      "inputs": [],
      "name": "_marketName",
      "outputs": [
        {
          "internalType": "string",
          "name": "",
          "type": "string"
        }
      ],
      "stateMutability": "view",
      "type": "function"
    },
    {
      "inputs": [],
      "name": "_marketStatus",
      "outputs": [
        {
          "internalType": "enum MarketLib.MarketStatus",
          "name": "",
          "type": "uint8"
        }
      ],
      "stateMutability": "view",
      "type": "function"
    },
    {
      "inputs": [],
      "name": "_marketType",
      "outputs": [
        {
          "internalType": "enum MarketLib.MarketType",
          "name": "",
          "type": "uint8"
        }
      ],
      "stateMutability": "view",
      "type": "function"
    },
    {
      "inputs": [],
      "name": "_requiredIndustryWeight",
      "outputs": [
        {
          "internalType": "uint256",
          "name": "",
          "type": "uint256"
        }
      ],
      "stateMutability": "view",
      "type": "function"
    },
    {
      "inputs": [],
      "name": "_requiredReputation",
      "outputs": [
        {
          "internalType": "uint256",
          "name": "",
          "type": "uint256"
        }
      ],
      "stateMutability": "view",
      "type": "function"
    },
    {
      "inputs": [],
      "name": "owner",
      "outputs": [
        {
          "internalType": "address",
          "name": "",
          "type": "address"
        }
      ],
      "stateMutability": "view",
      "type": "function"
    },
    {
      "inputs": [],
      "name": "paused",
      "outputs": [
        {
          "internalType": "bool",
          "name": "",
          "type": "bool"
        }
      ],
      "stateMutability": "view",
      "type": "function"
    },
    {
      "inputs": [],
      "name": "renounceOwnership",
      "outputs": [],
      "stateMutability": "nonpayable",
      "type": "function"
    },
    {
      "inputs": [
        {
          "internalType": "address",
          "name": "newOwner",
          "type": "address"
        }
      ],
      "name": "transferOwnership",
      "outputs": [],
      "stateMutability": "nonpayable",
      "type": "function"
    },
    {
      "inputs": [
        {
          "internalType": "address",
          "name": "taskOwner",
          "type": "address"
        },
        {
          "internalType": "enum Evaluation.ContractType",
          "name": "_contractType",
          "type": "uint8"
        },
        {
          "internalType": "string",
          "name": "taskMetadataPointer",
          "type": "string"
        },
        {
          "internalType": "uint256",
          "name": "_wad",
          "type": "uint256"
        },
        {
          "internalType": "address",
          "name": "_daiTokenAddress",
          "type": "address"
        }
      ],
      "name": "createJob",
      "outputs": [],
      "stateMutability": "nonpayable",
      "type": "function"
    },
    {
      "inputs": [],
      "name": "getNumJobs",
      "outputs": [
        {
          "internalType": "uint256",
          "name": "",
          "type": "uint256"
        }
      ],
      "stateMutability": "view",
      "type": "function"
    },
    {
      "inputs": [],
      "name": "pauseMarket",
      "outputs": [],
      "stateMutability": "nonpayable",
      "type": "function"
    },
    {
      "inputs": [],
      "name": "resumeMarket",
      "outputs": [],
      "stateMutability": "nonpayable",
      "type": "function"
    },
    {
      "inputs": [],
      "name": "getMarketState",
      "outputs": [
        {
          "internalType": "bool",
          "name": "",
          "type": "bool"
        }
      ],
      "stateMutability": "view",
      "type": "function"
    },
    {
      "inputs": [],
      "name": "getWorkRelationships",
      "outputs": [
        {
          "internalType": "contract WorkRelationship[]",
          "name": "",
          "type": "address[]"
        }
      ],
      "stateMutability": "view",
      "type": "function"
    }
  ],
  "bytecode": "0x60806040523480156200001157600080fd5b50604051620030bc380380620030bc8339810160408190526200003491620001a7565b6200003f336200009c565b600180546001600160a81b0319163360ff60a01b191617905581516200006d906002906020850190620000ec565b506003805482919060ff1916600183818111156200008f576200008f620002d5565b0217905550505062000301565b600080546001600160a01b038381166001600160a01b0319831681178455604051919092169283917f8be0079c531659141344cd1fd0a4f28419497f9722a3daafe3b4186f6b6457e09190a35050565b828054620000fa9062000298565b90600052602060002090601f0160209004810192826200011e576000855562000169565b82601f106200013957805160ff191683800117855562000169565b8280016001018555821562000169579182015b82811115620001695782518255916020019190600101906200014c565b50620001779291506200017b565b5090565b5b808211156200017757600081556001016200017c565b805160028110620001a257600080fd5b919050565b60008060408385031215620001bb57600080fd5b82516001600160401b0380821115620001d357600080fd5b818501915085601f830112620001e857600080fd5b815181811115620001fd57620001fd620002eb565b604051601f8201601f19908116603f01168101908382118183101715620002285762000228620002eb565b816040528281526020935088848487010111156200024557600080fd5b600091505b828210156200026957848201840151818301850152908301906200024a565b828211156200027b5760008484830101525b95506200028d91505085820162000192565b925050509250929050565b600181811c90821680620002ad57607f821691505b60208210811415620002cf57634e487b7160e01b600052602260045260246000fd5b50919050565b634e487b7160e01b600052602160045260246000fd5b634e487b7160e01b600052604160045260246000fd5b612dab80620003116000396000f3fe60806040523480156200001157600080fd5b5060043610620001095760003560e01c8063838069f711620000a3578063a4f8ddee116200006e578063a4f8ddee14620001ec578063c143521f1462000203578063d8165743146200020d578063f2fde38b146200022057600080fd5b8063838069f714620001ae5780638da5cb5b14620001bc5780639319106b14620001d8578063a03738dc14620001e257600080fd5b80636039c8d711620000e45780636039c8d71462000163578063715018a6146200017c5780637cf63de914620001885780637e0c00ed14620001a557600080fd5b80630f091637146200010e57806336e114fc146200012b5780635c975abb1462000144575b600080fd5b6200011860045481565b6040519081526020015b60405180910390f35b6200013562000237565b604051620001229190620009e6565b600154600160a01b900460ff165b604051901515815260200162000122565b6200016d6200029b565b60405162000122919062000a4a565b6200018662000331565b005b600354620001969060ff1681565b60405162000122919062000a35565b60075462000118565b600654620001969060ff1681565b6000546040516001600160a01b03909116815260200162000122565b6200018662000375565b620001866200041b565b62000186620001fd36600462000843565b620004bd565b6200011860055481565b600154600160a01b900460ff1662000152565b62000186620002313660046200081e565b620005d7565b606060078054806020026020016040519081016040528092919081815260200182805480156200029157602002820191906000526020600020905b81546001600160a01b0316815260019091019060200180831162000272575b5050505050905090565b60028054620002aa9062000a94565b80601f0160208091040260200160405190810160405280929190818152602001828054620002d89062000a94565b8015620003295780601f10620002fd5761010080835404028352916020019162000329565b820191906000526020600020905b8154815290600101906020018083116200030b57829003601f168201915b505050505081565b6000546001600160a01b03163314620003675760405162461bcd60e51b81526004016200035e9062000a5f565b60405180910390fd5b62000373600062000679565b565b6000546001600160a01b03163314620003a25760405162461bcd60e51b81526004016200035e9062000a5f565b60015433906001600160a01b03168114620003bc57600080fd5b60035460ff166000816001811115620003d957620003d962000ad1565b14620003e457600080fd5b60065460ff16600081600181111562000401576200040162000ad1565b146200040c57600080fd5b62000416620006c9565b505050565b6000546001600160a01b03163314620004485760405162461bcd60e51b81526004016200035e9062000a5f565b60015433906001600160a01b031681146200046257600080fd5b60035460ff1660008160018111156200047f576200047f62000ad1565b146200048a57600080fd5b60065460ff166001816001811115620004a757620004a762000ad1565b1415620004b357600080fd5b6200041662000768565b846001600160a01b0381166200050c5760405162461bcd60e51b815260206004820152601360248201527224b73b30b634b2103a30b9b59037bbb732b91760691b60448201526064016200035e565b600086868686866040516200052190620007f3565b6200053195949392919062000995565b604051809103906000f0801580156200054e573d6000803e3d6000fd5b506007805460018101825560009182527fa66cc928b5edb82af9bd49922954155ab7b0942694bea4ce44661d9a8736c6880180546001600160a01b0319166001600160a01b0384811691821790925560405193945030939092918616917f43af47c504a2f23934b1a816cd86633559721bf26c3656844bdde3edd4719e1391a450505050505050565b6000546001600160a01b03163314620006045760405162461bcd60e51b81526004016200035e9062000a5f565b6001600160a01b0381166200066b5760405162461bcd60e51b815260206004820152602660248201527f4f776e61626c653a206e6577206f776e657220697320746865207a65726f206160448201526564647265737360d01b60648201526084016200035e565b620006768162000679565b50565b600080546001600160a01b038381166001600160a01b0319831681178455604051919092169283917f8be0079c531659141344cd1fd0a4f28419497f9722a3daafe3b4186f6b6457e09190a35050565b600154600160a01b900460ff166200071b5760405162461bcd60e51b815260206004820152601460248201527314185d5cd8589b194e881b9bdd081c185d5cd95960621b60448201526064016200035e565b6001805460ff60a01b191690557f5db9ee0a495bf2e6ff9c91a7834c1ba4fdd244a5e8aa4e537bd38aeae4b073aa335b6040516001600160a01b03909116815260200160405180910390a1565b600154600160a01b900460ff1615620007b75760405162461bcd60e51b815260206004820152601060248201526f14185d5cd8589b194e881c185d5cd95960821b60448201526064016200035e565b6001805460ff60a01b1916600160a01b1790557f62e78cea01bee320cd4e420270b5ea74000d11b0c9f74754ebdbfc544b05a2586200074b3390565b6122598062000b1d83390190565b80356001600160a01b03811681146200081957600080fd5b919050565b6000602082840312156200083157600080fd5b6200083c8262000801565b9392505050565b600080600080600060a086880312156200085c57600080fd5b620008678662000801565b94506020860135600281106200087c57600080fd5b9350604086013567ffffffffffffffff808211156200089a57600080fd5b818801915088601f830112620008af57600080fd5b813581811115620008c457620008c462000ae7565b604051601f8201601f19908116603f01168101908382118183101715620008ef57620008ef62000ae7565b816040528281528b60208487010111156200090957600080fd5b82602086016020830137600060208483010152809750505050505060608601359150620009396080870162000801565b90509295509295909350565b6000815180845260005b818110156200096d576020818501810151868301820152016200094f565b8181111562000980576000602083870101525b50601f01601f19169290920160200192915050565b6001600160a01b038681168252600090620009b08762000afd565b86602084015260a06040840152620009cc60a084018762000945565b606084019590955292909216608090910152509392505050565b6020808252825182820181905260009190848201906040850190845b8181101562000a295783516001600160a01b03168352928401929184019160010162000a02565b50909695505050505050565b6020810162000a448362000afd565b91905290565b6020815260006200083c602083018462000945565b6020808252818101527f4f776e61626c653a2063616c6c6572206973206e6f7420746865206f776e6572604082015260600190565b600181811c9082168062000aa957607f821691505b6020821081141562000acb57634e487b7160e01b600052602260045260246000fd5b50919050565b634e487b7160e01b600052602160045260246000fd5b634e487b7160e01b600052604160045260246000fd5b600281106200067657634e487b7160e01b600052602160045260246000fdfe60c06040819052600060a08190526200001b916002916200019c565b506000600355604051620022593803806200225983398101604081905262000043916200026d565b81620000a95760405162461bcd60e51b815260206004820152602b60248201527f4d7573742073656e64206d6f7265207468616e20302064616920746f2074686960448201526a399031b7b73a3930b1ba1760a91b606482015260840160405180910390fd5b600180546001600160a01b0387166001600160a01b031991821617825560008054909116905560058054869261ff001990911690610100908490811115620000f557620000f5620003d0565b021790555060048290556005805460ff1916905582516200011e9060029060208601906200019c565b506001546040516000916001600160a01b0316908490849062000141906200022b565b6001600160a01b03938416815260208101929092529091166040820152606001604051809103906000f0801580156200017e573d6000803e3d6000fd5b5060601b6001600160601b03191660805250620003fc945050505050565b828054620001aa9062000393565b90600052602060002090601f016020900481019282620001ce576000855562000219565b82601f10620001e957805160ff191683800117855562000219565b8280016001018555821562000219579182015b8281111562000219578251825591602001919060010190620001fc565b506200022792915062000239565b5090565b610f6680620012f383390190565b5b808211156200022757600081556001016200023a565b80516001600160a01b03811681146200026857600080fd5b919050565b600080600080600060a086880312156200028657600080fd5b620002918662000250565b945060208087015160028110620002a757600080fd5b60408801519095506001600160401b0380821115620002c557600080fd5b818901915089601f830112620002da57600080fd5b815181811115620002ef57620002ef620003e6565b604051601f8201601f19908116603f011681019083821181831017156200031a576200031a620003e6565b816040528281528c868487010111156200033357600080fd5b600093505b8284101562000357578484018601518185018701529285019262000338565b82841115620003695760008684830101525b80985050505050505060608601519150620003876080870162000250565b90509295509295909350565b600181811c90821680620003a857607f821691505b60208210811415620003ca57634e487b7160e01b600052602260045260246000fd5b50919050565b634e487b7160e01b600052602160045260246000fd5b634e487b7160e01b600052604160045260246000fd5b60805160601c610eb66200043d6000396000818160ff015281816102cc015281816104a001528181610671015281816106e601526108b80152610eb66000f3fe608060405234801561001057600080fd5b50600436106100f55760003560e01c8063a7f7dca911610097578063df502c6b11610066578063df502c6b14610208578063e6e885931461021d578063ec3a47901461022a578063f74cc7011461023d57600080fd5b8063a7f7dca9146101c5578063cb2ef6f7146101ce578063d8a845cf146101ed578063dabd57a5146101f557600080fd5b80635db28c66116100d35780635db28c66146101665780638da5cb5b1461017c57806396d6d6961461018f5780639aed0c17146101b257600080fd5b80630f032a3f146100fa5780634d547ada1461013e5780635cdcf07514610151575b600080fd5b6101217f000000000000000000000000000000000000000000000000000000000000000081565b6040516001600160a01b0390911681526020015b60405180910390f35b600054610121906001600160a01b031681565b61016461015f366004610a5e565b610250565b005b61016e61032b565b604051908152602001610135565b600154610121906001600160a01b031681565b6101a261019d366004610aae565b610389565b6040519015158152602001610135565b6101646101c0366004610bbb565b610412565b61016e60045481565b6005546101e090610100900460ff1681565b6040516101359190610c63565b61016461050d565b610164610203366004610a82565b61058e565b610210610759565b6040516101359190610c76565b6005546101e09060ff1681565b610164610238366004610be1565b6107e7565b61016461024b366004610b77565b610860565b6000546001600160a01b031633146102835760405162461bcd60e51b815260040161027a90610d3c565b60405180910390fd5b6001546001600160a01b031633146102ad5760405162461bcd60e51b815260040161027a90610c89565b604051632ed9c42160e11b81526001600160a01b0382811660048301527f00000000000000000000000000000000000000000000000000000000000000001690635db3884290602401600060405180830381600087803b15801561031057600080fd5b505af1158015610324573d6000803e3d6000fd5b5050505050565b6001546000906001600160a01b031633146103585760405162461bcd60e51b815260040161027a90610c89565b6000546001600160a01b031633146103825760405162461bcd60e51b815260040161027a90610d3c565b5060035490565b600080836001600160a01b0316635d5f221f846040518263ffffffff1660e01b81526004016103b89190610d86565b602060405180830381600087803b1580156103d257600080fd5b505af11580156103e6573d6000803e3d6000fd5b505050506040513d601f19601f8201168201806040525081019061040a9190610b5a565b949350505050565b6000546001600160a01b0316331461043c5760405162461bcd60e51b815260040161027a90610d3c565b60018060055460ff16600181111561045657610456610e13565b146104735760405162461bcd60e51b815260040161027a90610cd2565b6040516353318a8760e01b81526004810186905260ff8516602482015260448101849052606481018390527f00000000000000000000000000000000000000000000000000000000000000006001600160a01b0316906353318a8790608401600060405180830381600087803b1580156104ec57600080fd5b505af1158015610500573d6000803e3d6000fd5b5050505061032485600355565b6000546001600160a01b031633146105375760405162461bcd60e51b815260040161027a90610d3c565b60018060055460ff16600181111561055157610551610e13565b1461056e5760405162461bcd60e51b815260040161027a90610cd2565b600080546001600160a01b03191690556005805460ff1916905550565b50565b6001546001600160a01b031633146105b85760405162461bcd60e51b815260040161027a90610c89565b6001600160a01b0382166106345760405162461bcd60e51b815260206004820152603760248201527f576f726b65722061646472657373206d757374206e6f7420626520302077686560448201527f6e2061737369676e696e67206e657720776f726b65722e000000000000000000606482015260840161027a565b600080546001600160a01b0319166001600160a01b0384811691821790925560405163089f591560e21b81526004810191909152602481018390527f00000000000000000000000000000000000000000000000000000000000000009091169063227d645490604401600060405180830381600087803b1580156106b757600080fd5b505af11580156106cb573d6000803e3d6000fd5b50506005805460ff1916600117905550506001600160a01b037f00000000000000000000000000000000000000000000000000000000000000001661071257610712610dfd565b6000546001600160a01b0383811691161461072f5761072f610dfd565b600160055460ff16600181111561074857610748610e13565b1461075557610755610dfd565b5050565b6002805461076690610dc2565b80601f016020809104026020016040519081016040528092919081815260200182805461079290610dc2565b80156107df5780601f106107b4576101008083540402835291602001916107df565b820191906000526020600020905b8154815290600101906020018083116107c257829003601f168201915b505050505081565b6001546001600160a01b031633146108115760405162461bcd60e51b815260040161027a90610c89565b60008060055460ff16600181111561082b5761082b610e13565b146108485760405162461bcd60e51b815260040161027a90610cd2565b815161085b906002906020850190610922565b505050565b6001546001600160a01b0316331461088a5760405162461bcd60e51b815260040161027a90610c89565b6040516325b0db0f60e01b8152841515600482015260ff8416602482015260448101839052606481018290527f00000000000000000000000000000000000000000000000000000000000000006001600160a01b0316906325b0db0f90608401600060405180830381600087803b15801561090457600080fd5b505af1158015610918573d6000803e3d6000fd5b5050505050505050565b82805461092e90610dc2565b90600052602060002090601f0160209004810192826109505760008555610996565b82601f1061096957805160ff1916838001178555610996565b82800160010185558215610996579182015b8281111561099657825182559160200191906001019061097b565b506109a29291506109a6565b5090565b5b808211156109a257600081556001016109a7565b600082601f8301126109cc57600080fd5b813567ffffffffffffffff808211156109e7576109e7610e29565b604051601f8301601f19908116603f01168101908282118183101715610a0f57610a0f610e29565b81604052838152866020858801011115610a2857600080fd5b836020870160208301376000602085830101528094505050505092915050565b803560ff81168114610a5957600080fd5b919050565b600060208284031215610a7057600080fd5b8135610a7b81610e5d565b9392505050565b60008060408385031215610a9557600080fd5b8235610aa081610e5d565b946020939093013593505050565b60008060408385031215610ac157600080fd5b8235610acc81610e5d565b9150602083013567ffffffffffffffff80821115610ae957600080fd5b9084019060608287031215610afd57600080fd5b604051606081018181108382111715610b1857610b18610e29565b604052823582811115610b2a57600080fd5b610b36888286016109bb565b82525060208301356020820152604083013560408201528093505050509250929050565b600060208284031215610b6c57600080fd5b8151610a7b81610e72565b60008060008060808587031215610b8d57600080fd5b8435610b9881610e72565b9350610ba660208601610a48565b93969395505050506040820135916060013590565b60008060008060808587031215610bd157600080fd5b84359350610ba660208601610a48565b600060208284031215610bf357600080fd5b813567ffffffffffffffff811115610c0a57600080fd5b61040a848285016109bb565b6000815180845260005b81811015610c3c57602081850181015186830182015201610c20565b81811115610c4e576000602083870101525b50601f01601f19169290920160200192915050565b60208101610c7083610e3f565b91905290565b602081526000610a7b6020830184610c16565b60208082526029908201527f576f726b52656c6174696f6e736869703a2063616c6c6572206973206e6f74206040820152683a34329037bbb732b960b91b606082015260800190565b60208082526044908201527f5468697320616374696f6e2063616e6e6f742062652063617272696564206f7560408201527f7420756e646572207468652063757272656e7420636f6e7472616374207374616060820152633a3ab99760e11b608082015260a00190565b6020808252602a908201527f576f726b52656c6174696f6e736869703a2063616c6c6572206973206e6f74206040820152693a3432903bb7b935b2b960b11b606082015260800190565b602081526000825160606020840152610da26080840182610c16565b905060208401516040840152604084015160608401528091505092915050565b600181811c90821680610dd657607f821691505b60208210811415610df757634e487b7160e01b600052602260045260246000fd5b50919050565b634e487b7160e01b600052600160045260246000fd5b634e487b7160e01b600052602160045260246000fd5b634e487b7160e01b600052604160045260246000fd5b6002811061058b57634e487b7160e01b600052602160045260246000fd5b6001600160a01b038116811461058b57600080fd5b801515811461058b57600080fdfea2646970667358221220ab7badf94f443706e25ab505adaace7ab0f7c488f9f1cc4cae6a596f5109036d64736f6c6343000807003360e060405234801561001057600080fd5b50604051610f66380380610f6683398101604081905261002f9161026a565b8282826001600160a01b0383166100a95760405162461bcd60e51b815260206004820152603360248201527f4465706f7369746f7220616464726573732063616e6e6f74206265203020776860448201527232b71031b932b0ba34b7339032b9b1b937bb9760691b60648201526084015b60405180910390fd5b6001600160a01b03811661011b5760405162461bcd60e51b815260206004820152603360248201527f44616920746f6b656e20616464726573732063616e6e6f74206265203020776860448201527232b71031b932b0ba34b7339032b9b1b937bb9760691b60648201526084016100a0565b604080518082018252600a81526944616920457363726f7760b01b6020918201528151808301835260018152603160f81b9082015281517f8b73c3c69bb8fe3d512ecc4cf759cc79239f7b179b0ffacaa9a75d522b39400f918101919091527f0bdbe35568d399a0401d60d11c76785045fec8c775dcb34589d4a0b9d540700d918101919091527fc89efdaa54c0f20c7adf612882df0950f5a951637e0307cdcb4c672f298b8bc660608201524660ff811660808301523060a08301529060c00160408051601f198184030181529190528051602090910120608052506001600160601b031960609390931b9290921660a05260c0526002805461010061ff00196001600160a01b0394909416620100000293909316610100600160b01b031990911617919091179055506102a6915050565b80516001600160a01b038116811461026557600080fd5b919050565b60008060006060848603121561027f57600080fd5b6102888461024e565b92506020840151915061029d6040850161024e565b90509250925092565b60805160a05160601c60c051610c56610310600039600081816101f20152610710015260008181610297015281816103ca01528181610667015281816106e801528181610797015261083101526000818161025e015281816104cf01526105cf0152610c566000f3fe608060405234801561001057600080fd5b50600436106101005760003560e01c80637df38c5b11610097578063bfce14ea11610066578063bfce14ea14610259578063c19d93fb14610280578063c7c4ff4614610292578063d8a43107146102b957600080fd5b80637df38c5b146101ed57806396118e4414610214578063b01dcb311461023b578063bad453cf1461024657600080fd5b80633c86f6f3116100d35780633c86f6f31461017b57806353318a87146101b05780635db38842146101c357806360d98201146101d457600080fd5b8063200d2ed214610105578063227d64541461012857806325b0db0f1461013d57806338af3eed14610150575b600080fd5b6002546101129060ff1681565b60405161011f9190610b51565b60405180910390f35b61013b6101363660046109f3565b6102d9565b005b61013b61014b366004610a1f565b6103c8565b600054610163906001600160a01b031681565b6040516001600160a01b03909116815260200161011f565b6101a27ffa5e0016fb62b8dffda8fd95249d438edcffd3689b40ac3b4281d4cf710609ae81565b60405190815260200161011f565b61013b6101be366004610a68565b610542565b61013b6101d13660046109cf565b50565b600254610100900460ff165b60405161011f9190610b37565b6101a27f000000000000000000000000000000000000000000000000000000000000000081565b6101a27f62b607caa4d4e7fcbd31bf4c033cd30888b536567fadc83710fdf15f8d5cfc9e81565b60025460ff16610112565b61013b610254366004610aa7565b61063a565b6101a27f000000000000000000000000000000000000000000000000000000000000000081565b6002546101e090610100900460ff1681565b6101637f000000000000000000000000000000000000000000000000000000000000000081565b6101a26102c73660046109cf565b60016020526000908152604090205481565b60008060025460ff1660038111156102f3576102f3610bf5565b146103195760405162461bcd60e51b815260040161031090610b65565b60405180910390fd5b6001600160a01b0383166103955760405162461bcd60e51b815260206004820152603f60248201527f42656e65666963696172792063616e6e6f74206265203078206164647265737360448201527f207768656e2061737369676e696e67206e65772062656e6566696369617279006064820152608401610310565b600080546001600160a01b0319166001600160a01b038516179055600280546001919060ff191682800217905550505050565b7f00000000000000000000000000000000000000000000000000000000000000006001600160a01b031633146104405760405162461bcd60e51b815260206004820181905260248201527f4f776e65722063616e206f6e6c79207265736f6c766520636f6e74726163742e6044820152606401610310565b60028060025460ff16600381111561045a5761045a610bf5565b146104775760405162461bcd60e51b815260040161031090610b65565b604080517ffa5e0016fb62b8dffda8fd95249d438edcffd3689b40ac3b4281d4cf710609ae602080830191909152871580158385015283518084038501815260608401855280519083012061190160f01b60808501527f0000000000000000000000000000000000000000000000000000000000000000608285015260a2808501919091528451808503909101815260c29093019093528151910120906105255761052061082f565b61053a565b600280546001919060ff191682805b02179055505b505050505050565b60018060025460ff16600381111561055c5761055c610bf5565b146105795760405162461bcd60e51b815260040161031090610b65565b604080517f62b607caa4d4e7fcbd31bf4c033cd30888b536567fadc83710fdf15f8d5cfc9e60208083019190915281830188905282518083038401815260608301845280519082012061190160f01b60808401527f0000000000000000000000000000000000000000000000000000000000000000608284015260a2808401919091528351808403909101815260c290920190925280519101206000546001600160a01b031661062857600080fd5b60028054819060ff1916600182610534565b6002546040516323f2ebc360e21b8152620100009091046001600160a01b031690638fcbaf0c9061069e907f00000000000000000000000000000000000000000000000000000000000000009030908a908a906001908b908b908b90600401610aee565b600060405180830381600087803b1580156106b857600080fd5b505af11580156106cc573d6000803e3d6000fd5b505060025460405163f2d5d56b60e01b81526001600160a01b037f0000000000000000000000000000000000000000000000000000000000000000811660048301527f0000000000000000000000000000000000000000000000000000000000000000602483015262010000909204909116925063f2d5d56b9150604401600060405180830381600087803b15801561076457600080fd5b505af1158015610778573d6000803e3d6000fd5b50506002546201000090046001600160a01b03169150638fcbaf0c90507f0000000000000000000000000000000000000000000000000000000000000000306107c2896001610bcf565b8860008989896040518963ffffffff1660e01b81526004016107eb989796959493929190610aee565b600060405180830381600087803b15801561080557600080fd5b505af1158015610819573d6000803e3d6000fd5b50506002805461ffff1916905550505050505050565b7f00000000000000000000000000000000000000000000000000000000000000006001600160a01b031633146108a75760405162461bcd60e51b815260206004820181905260248201527f4f776e65722063616e206f6e6c79207265736f6c766520636f6e74726163742e6044820152606401610310565b6000546001600160a01b03166108bc57600080fd5b6002546000546040516370a0823160e01b81523060048201526001600160a01b036201000090930483169263b753a98c92169083906370a082319060240160206040518083038186803b15801561091257600080fd5b505afa158015610926573d6000803e3d6000fd5b505050506040513d601f19601f8201168201806040525081019061094a9190610a8e565b6040516001600160e01b031960e085901b1681526001600160a01b0390921660048301526024820152604401600060405180830381600087803b15801561099057600080fd5b505af11580156109a4573d6000803e3d6000fd5b50506002805461ffff19166102031790555050565b803560ff811681146109ca57600080fd5b919050565b6000602082840312156109e157600080fd5b81356109ec81610c0b565b9392505050565b60008060408385031215610a0657600080fd5b8235610a1181610c0b565b946020939093013593505050565b60008060008060808587031215610a3557600080fd5b84358015158114610a4557600080fd5b9350610a53602086016109b9565b93969395505050506040820135916060013590565b60008060008060808587031215610a7e57600080fd5b84359350610a53602086016109b9565b600060208284031215610aa057600080fd5b5051919050565b600080600080600060a08688031215610abf57600080fd5b8535945060208601359350610ad6604087016109b9565b94979396509394606081013594506080013592915050565b6001600160a01b039889168152969097166020870152604086019490945260608501929092521515608084015260ff1660a083015260c082015260e08101919091526101000190565b6020810160038310610b4b57610b4b610bf5565b91905290565b6020810160048310610b4b57610b4b610bf5565b60208082526044908201527f43616e6e6f7420696e766f6b65207468697320657363726f772066756e63746960408201527f6f6e2077697468207468652063757272656e7420636f6e7472616374207374616060820152633a3ab99760e11b608082015260a00190565b60008219821115610bf057634e487b7160e01b600052601160045260246000fd5b500190565b634e487b7160e01b600052602160045260246000fd5b6001600160a01b03811681146101d157600080fdfea2646970667358221220fa00172cbfaadb4fed3ecbd8d1f0f8ad99e0e6e1395df8e517abb77dbd2d895d64736f6c63430008070033a2646970667358221220da14384b9ec30902bc9524a8c5b816cdab52fe8f84a59c0d280f9e8c157521a064736f6c63430008070033",
  "immutableReferences": {},
  "source": "// SPDX-License-Identifier: MIT\npragma solidity 0.8.7;\n\nimport \"../libraries/Evaluation.sol\";\nimport \"../exchange/WorkRelationship.sol\";\nimport \"../libraries/MarketLib.sol\";\nimport \"../control/Controllable.sol\";\nimport \"../../../node_modules/@openzeppelin/contracts/access/Ownable.sol\";\nimport \"../../../node_modules/@openzeppelin/contracts/security/Pausable.sol\";\n\ncontract Market is Ownable, Controllable, Pausable {\n    event MarketPaused(\n        address indexed marketAddress,\n        string indexed marketName\n    );\n    event MarketResumed(\n        address indexed marketAddress,\n        string indexed marketName\n    );\n    event WorkRelationshipCreated(\n        address indexed owner,\n        address indexed relationship,\n        address indexed marketAddress\n    );\n    event WorkRelationshipEnded(\n        address indexed owner,\n        address indexed relationship\n    );\n\n    string public _marketName;\n    MarketLib.MarketType public _marketType;\n    uint256 public _requiredReputation;\n    uint256 public _requiredIndustryWeight;\n    MarketLib.MarketStatus public _marketStatus;\n\n    WorkRelationship[] _createdJobs;\n\n    constructor(string memory marketName, MarketLib.MarketType marketType) {\n        _marketName = marketName;\n        _marketType = marketType;\n        // _requiredReputation = requiredReputation;\n        // _requiredIndustryWeight = requiredIndustryWeight;\n    }\n\n    /**\n     * Creates a user summary contract for each user based on their civic ID.\n     */\n    function createJob(\n        address taskOwner,\n        Evaluation.ContractType _contractType, \n        string memory taskMetadataPointer,\n        uint256 _wad,\n        address _daiTokenAddress\n    ) external {\n        address owner = taskOwner;\n        require(owner != address(0), \"Invalid task owner.\");\n        WorkRelationship createdJob =\n            new WorkRelationship(taskOwner, _contractType, taskMetadataPointer, _wad, _daiTokenAddress);\n        _createdJobs.push(createdJob);\n        emit WorkRelationshipCreated(\n            owner,\n            address(createdJob),\n            address(this)\n        );\n    }\n\n    /**\n     *\n     */\n    function getNumJobs() public view returns (uint256) {\n        return _createdJobs.length;\n    }\n\n    function pauseMarket()\n        external\n        onlyOwner\n        onlyGlobalController(msg.sender)\n        onlyDefaultMarkets(_marketType)\n        onlyNotPausedState(_marketStatus)\n    {\n        _pause();\n    }\n\n    function resumeMarket()\n        external\n        onlyOwner\n        onlyGlobalController(msg.sender)\n        onlyDefaultMarkets(_marketType)\n        onlyPausedState(_marketStatus)\n    {\n        _unpause();\n    }\n\n    function getMarketState() public view returns (bool) {\n        return paused();\n    }\n\n    function getWorkRelationships() external view returns (WorkRelationship[] memory) {\n        return _createdJobs;\n    }\n\n    function destroyMarket() internal onlyOwner {\n        //selfdestruct();\n    }\n}\n",
  "sourcePath": "/Users/elijahhampton/Desktop/opportunity-core/src/contracts/market/Market.sol",
  "compiler": {
    "name": "solc",
    "version": "0.8.7+commit.e28d00a7.Emscripten.clang"
  },
  "schemaVersion": "3.4.3",
  "updatedAt": "2021-10-10T17:41:15.045Z",
  "networkType": "ethereum",
  "devdoc": {
    "kind": "dev",
    "methods": {
      "owner()": {
        "details": "Returns the address of the current owner."
      },
      "paused()": {
        "details": "Returns true if the contract is paused, and false otherwise."
      },
      "renounceOwnership()": {
        "details": "Leaves the contract without owner. It will not be possible to call `onlyOwner` functions anymore. Can only be called by the current owner. NOTE: Renouncing ownership will leave the contract without an owner, thereby removing any functionality that is only available to the owner."
      },
      "transferOwnership(address)": {
        "details": "Transfers ownership of the contract to a new account (`newOwner`). Can only be called by the current owner."
      }
    },
    "version": 1
  },
  "userdoc": {
    "kind": "user",
    "methods": {
      "createJob(address,uint8,string,uint256,address)": {
        "notice": "Creates a user summary contract for each user based on their civic ID."
      }
    },
    "version": 1
  }
}