{
  "contractName": "Market",
  "abi": [
    {
      "inputs": [
        {
          "internalType": "string",
          "name": "marketName",
          "type": "string"
        },
        {
          "internalType": "enum MarketLib.MarketType",
          "name": "marketType",
          "type": "uint8"
        }
      ],
      "stateMutability": "nonpayable",
      "type": "constructor"
    },
    {
      "anonymous": false,
      "inputs": [
        {
          "indexed": true,
          "internalType": "address",
          "name": "marketAddress",
          "type": "address"
        },
        {
          "indexed": true,
          "internalType": "string",
          "name": "marketName",
          "type": "string"
        },
        {
          "indexed": true,
          "internalType": "address",
          "name": "workRelationship",
          "type": "address"
        }
      ],
      "name": "MarketObservingRelationship",
      "type": "event"
    },
    {
      "anonymous": false,
      "inputs": [
        {
          "indexed": true,
          "internalType": "address",
          "name": "marketAddress",
          "type": "address"
        },
        {
          "indexed": true,
          "internalType": "string",
          "name": "marketName",
          "type": "string"
        }
      ],
      "name": "MarketPaused",
      "type": "event"
    },
    {
      "anonymous": false,
      "inputs": [
        {
          "indexed": true,
          "internalType": "address",
          "name": "marketAddress",
          "type": "address"
        },
        {
          "indexed": true,
          "internalType": "string",
          "name": "marketName",
          "type": "string"
        }
      ],
      "name": "MarketResumed",
      "type": "event"
    },
    {
      "anonymous": false,
      "inputs": [
        {
          "indexed": true,
          "internalType": "address",
          "name": "marketAddress",
          "type": "address"
        },
        {
          "indexed": true,
          "internalType": "string",
          "name": "marketName",
          "type": "string"
        },
        {
          "indexed": true,
          "internalType": "address",
          "name": "workRelationship",
          "type": "address"
        }
      ],
      "name": "MarketUnObservingRelationship",
      "type": "event"
    },
    {
      "anonymous": false,
      "inputs": [
        {
          "indexed": true,
          "internalType": "address",
          "name": "previousOwner",
          "type": "address"
        },
        {
          "indexed": true,
          "internalType": "address",
          "name": "newOwner",
          "type": "address"
        }
      ],
      "name": "OwnershipTransferred",
      "type": "event"
    },
    {
      "anonymous": false,
      "inputs": [
        {
          "indexed": false,
          "internalType": "address",
          "name": "account",
          "type": "address"
        }
      ],
      "name": "Paused",
      "type": "event"
    },
    {
      "anonymous": false,
      "inputs": [
        {
          "indexed": false,
          "internalType": "address",
          "name": "account",
          "type": "address"
        }
      ],
      "name": "Unpaused",
      "type": "event"
    },
    {
      "inputs": [],
      "name": "_marketName",
      "outputs": [
        {
          "internalType": "string",
          "name": "",
          "type": "string"
        }
      ],
      "stateMutability": "view",
      "type": "function"
    },
    {
      "inputs": [],
      "name": "_marketStatus",
      "outputs": [
        {
          "internalType": "enum MarketLib.MarketStatus",
          "name": "",
          "type": "uint8"
        }
      ],
      "stateMutability": "view",
      "type": "function"
    },
    {
      "inputs": [],
      "name": "_marketType",
      "outputs": [
        {
          "internalType": "enum MarketLib.MarketType",
          "name": "",
          "type": "uint8"
        }
      ],
      "stateMutability": "view",
      "type": "function"
    },
    {
      "inputs": [],
      "name": "_requiredIndustryWeight",
      "outputs": [
        {
          "internalType": "uint256",
          "name": "",
          "type": "uint256"
        }
      ],
      "stateMutability": "view",
      "type": "function"
    },
    {
      "inputs": [],
      "name": "_requiredReputation",
      "outputs": [
        {
          "internalType": "uint256",
          "name": "",
          "type": "uint256"
        }
      ],
      "stateMutability": "view",
      "type": "function"
    },
    {
      "inputs": [],
      "name": "owner",
      "outputs": [
        {
          "internalType": "address",
          "name": "",
          "type": "address"
        }
      ],
      "stateMutability": "view",
      "type": "function"
    },
    {
      "inputs": [],
      "name": "paused",
      "outputs": [
        {
          "internalType": "bool",
          "name": "",
          "type": "bool"
        }
      ],
      "stateMutability": "view",
      "type": "function"
    },
    {
      "inputs": [],
      "name": "renounceOwnership",
      "outputs": [],
      "stateMutability": "nonpayable",
      "type": "function"
    },
    {
      "inputs": [
        {
          "internalType": "address",
          "name": "newOwner",
          "type": "address"
        }
      ],
      "name": "transferOwnership",
      "outputs": [],
      "stateMutability": "nonpayable",
      "type": "function"
    },
    {
      "inputs": [
        {
          "internalType": "address",
          "name": "newRelationship",
          "type": "address"
        }
      ],
      "name": "addRelationship",
      "outputs": [],
      "stateMutability": "nonpayable",
      "type": "function"
    },
    {
      "inputs": [],
      "name": "pauseMarket",
      "outputs": [],
      "stateMutability": "nonpayable",
      "type": "function"
    },
    {
      "inputs": [],
      "name": "resumeMarket",
      "outputs": [],
      "stateMutability": "nonpayable",
      "type": "function"
    },
    {
      "inputs": [],
      "name": "getMarketState",
      "outputs": [
        {
          "internalType": "bool",
          "name": "",
          "type": "bool"
        }
      ],
      "stateMutability": "view",
      "type": "function"
    },
    {
      "inputs": [],
      "name": "getWorkRelationships",
      "outputs": [
        {
          "internalType": "address[]",
          "name": "",
          "type": "address[]"
        }
      ],
      "stateMutability": "view",
      "type": "function"
    }
  ],
  "bytecode": "0x60806040523480156200001157600080fd5b506040516200186c3803806200186c8339818101604052810190620000379190620002f6565b600062000049620001b560201b60201c565b9050806000806101000a81548173ffffffffffffffffffffffffffffffffffffffff021916908373ffffffffffffffffffffffffffffffffffffffff1602179055508073ffffffffffffffffffffffffffffffffffffffff16600073ffffffffffffffffffffffffffffffffffffffff167f8be0079c531659141344cd1fd0a4f28419497f9722a3daafe3b4186f6b6457e060405160405180910390a35033600160006101000a81548173ffffffffffffffffffffffffffffffffffffffff021916908373ffffffffffffffffffffffffffffffffffffffff1602179055506000600160146101000a81548160ff02191690831515021790555081600290805190602001906200015b929190620001bd565b5080600360006101000a81548160ff02191690836001811115620001a8577f4e487b7100000000000000000000000000000000000000000000000000000000600052602160045260246000fd5b0217905550505062000492565b600033905090565b828054620001cb90620003ed565b90600052602060002090601f016020900481019282620001ef57600085556200023b565b82601f106200020a57805160ff19168380011785556200023b565b828001600101855582156200023b579182015b828111156200023a5782518255916020019190600101906200021d565b5b5090506200024a91906200024e565b5090565b5b80821115620002695760008160009055506001016200024f565b5090565b6000620002846200027e8462000384565b62000350565b9050828152602081018484840111156200029d57600080fd5b620002aa848285620003b7565b509392505050565b600081519050620002c38162000481565b92915050565b600082601f830112620002db57600080fd5b8151620002ed8482602086016200026d565b91505092915050565b600080604083850312156200030a57600080fd5b600083015167ffffffffffffffff8111156200032557600080fd5b6200033385828601620002c9565b92505060206200034685828601620002b2565b9150509250929050565b6000604051905081810181811067ffffffffffffffff821117156200037a576200037962000452565b5b8060405250919050565b600067ffffffffffffffff821115620003a257620003a162000452565b5b601f19601f8301169050602081019050919050565b60005b83811015620003d7578082015181840152602081019050620003ba565b83811115620003e7576000848401525b50505050565b600060028204905060018216806200040657607f821691505b602082108114156200041d576200041c62000423565b5b50919050565b7f4e487b7100000000000000000000000000000000000000000000000000000000600052602260045260246000fd5b7f4e487b7100000000000000000000000000000000000000000000000000000000600052604160045260246000fd5b600281106200048f57600080fd5b50565b6113ca80620004a26000396000f3fe608060405234801561001057600080fd5b50600436106100ea5760003560e01c8063838069f71161008c578063a03738dc11610066578063a03738dc146101f1578063c143521f146101fb578063d816574314610219578063f2fde38b14610237576100ea565b8063838069f7146101ab5780638da5cb5b146101c95780639319106b146101e7576100ea565b80636039c8d7116100c85780636039c8d714610149578063715018a61461016757806379bda937146101715780637cf63de91461018d576100ea565b80630f091637146100ef57806336e114fc1461010d5780635c975abb1461012b575b600080fd5b6100f7610253565b604051610104919061115f565b60405180910390f35b610115610259565b604051610122919061104a565b60405180910390f35b6101336102e7565b604051610140919061106c565b60405180910390f35b6101516102fe565b60405161015e91906110bd565b60405180910390f35b61016f61038c565b005b61018b60048036038101906101869190610d41565b6104c6565b005b6101956105d7565b6040516101a291906110a2565b60405180910390f35b6101b36105ea565b6040516101c09190611087565b60405180910390f35b6101d16105fd565b6040516101de919061102f565b60405180910390f35b6101ef610626565b005b6101f9610824565b005b610203610a22565b604051610210919061115f565b60405180910390f35b610221610a28565b60405161022e919061106c565b60405180910390f35b610251600480360381019061024c9190610d41565b610a37565b005b60045481565b606060078054806020026020016040519081016040528092919081815260200182805480156102dd57602002820191906000526020600020905b8160009054906101000a900473ffffffffffffffffffffffffffffffffffffffff1673ffffffffffffffffffffffffffffffffffffffff1681526020019060010190808311610293575b5050505050905090565b6000600160149054906101000a900460ff16905090565b6002805461030b906112b4565b80601f0160208091040260200160405190810160405280929190818152602001828054610337906112b4565b80156103845780601f1061035957610100808354040283529160200191610384565b820191906000526020600020905b81548152906001019060200180831161036757829003601f168201915b505050505081565b610394610be0565b73ffffffffffffffffffffffffffffffffffffffff166103b26105fd565b73ffffffffffffffffffffffffffffffffffffffff1614610408576040517f08c379a00000000000000000000000000000000000000000000000000000000081526004016103ff9061113f565b60405180910390fd5b600073ffffffffffffffffffffffffffffffffffffffff1660008054906101000a900473ffffffffffffffffffffffffffffffffffffffff1673ffffffffffffffffffffffffffffffffffffffff167f8be0079c531659141344cd1fd0a4f28419497f9722a3daafe3b4186f6b6457e060405160405180910390a360008060006101000a81548173ffffffffffffffffffffffffffffffffffffffff021916908373ffffffffffffffffffffffffffffffffffffffff160217905550565b600073ffffffffffffffffffffffffffffffffffffffff168173ffffffffffffffffffffffffffffffffffffffff16141561050057600080fd5b6007819080600181540180825580915050600190039060005260206000200160009091909190916101000a81548173ffffffffffffffffffffffffffffffffffffffff021916908373ffffffffffffffffffffffffffffffffffffffff1602179055508073ffffffffffffffffffffffffffffffffffffffff1660026040516105899190611018565b60405180910390203073ffffffffffffffffffffffffffffffffffffffff167f468383fd00b84717a9b26fdb0dc1c91ee119987255bf19a7b96016f9f3f1ee3660405160405180910390a450565b600360009054906101000a900460ff1681565b600660009054906101000a900460ff1681565b60008060009054906101000a900473ffffffffffffffffffffffffffffffffffffffff16905090565b61062e610be0565b73ffffffffffffffffffffffffffffffffffffffff1661064c6105fd565b73ffffffffffffffffffffffffffffffffffffffff16146106a2576040517f08c379a00000000000000000000000000000000000000000000000000000000081526004016106999061113f565b60405180910390fd5b33600160009054906101000a900473ffffffffffffffffffffffffffffffffffffffff1673ffffffffffffffffffffffffffffffffffffffff168173ffffffffffffffffffffffffffffffffffffffff16146106fd57600080fd5b600360009054906101000a900460ff1660006001811115610747577f4e487b7100000000000000000000000000000000000000000000000000000000600052602160045260246000fd5b816001811115610780577f4e487b7100000000000000000000000000000000000000000000000000000000600052602160045260246000fd5b1461078a57600080fd5b600660009054906101000a900460ff16600060018111156107d4577f4e487b7100000000000000000000000000000000000000000000000000000000600052602160045260246000fd5b81600181111561080d577f4e487b7100000000000000000000000000000000000000000000000000000000600052602160045260246000fd5b1461081757600080fd5b61081f610be8565b505050565b61082c610be0565b73ffffffffffffffffffffffffffffffffffffffff1661084a6105fd565b73ffffffffffffffffffffffffffffffffffffffff16146108a0576040517f08c379a00000000000000000000000000000000000000000000000000000000081526004016108979061113f565b60405180910390fd5b33600160009054906101000a900473ffffffffffffffffffffffffffffffffffffffff1673ffffffffffffffffffffffffffffffffffffffff168173ffffffffffffffffffffffffffffffffffffffff16146108fb57600080fd5b600360009054906101000a900460ff1660006001811115610945577f4e487b7100000000000000000000000000000000000000000000000000000000600052602160045260246000fd5b81600181111561097e577f4e487b7100000000000000000000000000000000000000000000000000000000600052602160045260246000fd5b1461098857600080fd5b600660009054906101000a900460ff166001808111156109d1577f4e487b7100000000000000000000000000000000000000000000000000000000600052602160045260246000fd5b816001811115610a0a577f4e487b7100000000000000000000000000000000000000000000000000000000600052602160045260246000fd5b1415610a1557600080fd5b610a1d610c8a565b505050565b60055481565b6000610a326102e7565b905090565b610a3f610be0565b73ffffffffffffffffffffffffffffffffffffffff16610a5d6105fd565b73ffffffffffffffffffffffffffffffffffffffff1614610ab3576040517f08c379a0000000000000000000000000000000000000000000000000000000008152600401610aaa9061113f565b60405180910390fd5b600073ffffffffffffffffffffffffffffffffffffffff168173ffffffffffffffffffffffffffffffffffffffff161415610b23576040517f08c379a0000000000000000000000000000000000000000000000000000000008152600401610b1a906110ff565b60405180910390fd5b8073ffffffffffffffffffffffffffffffffffffffff1660008054906101000a900473ffffffffffffffffffffffffffffffffffffffff1673ffffffffffffffffffffffffffffffffffffffff167f8be0079c531659141344cd1fd0a4f28419497f9722a3daafe3b4186f6b6457e060405160405180910390a3806000806101000a81548173ffffffffffffffffffffffffffffffffffffffff021916908373ffffffffffffffffffffffffffffffffffffffff16021790555050565b600033905090565b610bf06102e7565b610c2f576040517f08c379a0000000000000000000000000000000000000000000000000000000008152600401610c26906110df565b60405180910390fd5b6000600160146101000a81548160ff0219169083151502179055507f5db9ee0a495bf2e6ff9c91a7834c1ba4fdd244a5e8aa4e537bd38aeae4b073aa610c73610be0565b604051610c80919061102f565b60405180910390a1565b610c926102e7565b15610cd2576040517f08c379a0000000000000000000000000000000000000000000000000000000008152600401610cc99061111f565b60405180910390fd5b60018060146101000a81548160ff0219169083151502179055507f62e78cea01bee320cd4e420270b5ea74000d11b0c9f74754ebdbfc544b05a258610d15610be0565b604051610d22919061102f565b60405180910390a1565b600081359050610d3b8161137d565b92915050565b600060208284031215610d5357600080fd5b6000610d6184828501610d2c565b91505092915050565b6000610d768383610d82565b60208301905092915050565b610d8b816111ef565b82525050565b610d9a816111ef565b82525050565b6000610dab8261119f565b610db581856111c2565b9350610dc08361117a565b8060005b83811015610df1578151610dd88882610d6a565b9750610de3836111b5565b925050600181019050610dc4565b5085935050505092915050565b610e0781611201565b82525050565b610e168161125d565b82525050565b610e258161126f565b82525050565b6000610e36826111aa565b610e4081856111d3565b9350610e50818560208601611281565b610e5981611344565b840191505092915050565b60008154610e71816112b4565b610e7b81866111e4565b94506001821660008114610e965760018114610ea757610eda565b60ff19831686528186019350610eda565b610eb08561118a565b60005b83811015610ed257815481890152600182019150602081019050610eb3565b838801955050505b50505092915050565b6000610ef06014836111d3565b91507f5061757361626c653a206e6f74207061757365640000000000000000000000006000830152602082019050919050565b6000610f306026836111d3565b91507f4f776e61626c653a206e6577206f776e657220697320746865207a65726f206160008301527f64647265737300000000000000000000000000000000000000000000000000006020830152604082019050919050565b6000610f966010836111d3565b91507f5061757361626c653a20706175736564000000000000000000000000000000006000830152602082019050919050565b6000610fd66020836111d3565b91507f4f776e61626c653a2063616c6c6572206973206e6f7420746865206f776e65726000830152602082019050919050565b61101281611253565b82525050565b60006110248284610e64565b915081905092915050565b60006020820190506110446000830184610d91565b92915050565b600060208201905081810360008301526110648184610da0565b905092915050565b60006020820190506110816000830184610dfe565b92915050565b600060208201905061109c6000830184610e0d565b92915050565b60006020820190506110b76000830184610e1c565b92915050565b600060208201905081810360008301526110d78184610e2b565b905092915050565b600060208201905081810360008301526110f881610ee3565b9050919050565b6000602082019050818103600083015261111881610f23565b9050919050565b6000602082019050818103600083015261113881610f89565b9050919050565b6000602082019050818103600083015261115881610fc9565b9050919050565b60006020820190506111746000830184611009565b92915050565b6000819050602082019050919050565b60008190508160005260206000209050919050565b600081519050919050565b600081519050919050565b6000602082019050919050565b600082825260208201905092915050565b600082825260208201905092915050565b600081905092915050565b60006111fa82611233565b9050919050565b60008115159050919050565b600081905061121b82611355565b919050565b600081905061122e82611369565b919050565b600073ffffffffffffffffffffffffffffffffffffffff82169050919050565b6000819050919050565b60006112688261120d565b9050919050565b600061127a82611220565b9050919050565b60005b8381101561129f578082015181840152602081019050611284565b838111156112ae576000848401525b50505050565b600060028204905060018216806112cc57607f821691505b602082108114156112e0576112df611315565b5b50919050565b7f4e487b7100000000000000000000000000000000000000000000000000000000600052602160045260246000fd5b7f4e487b7100000000000000000000000000000000000000000000000000000000600052602260045260246000fd5b6000601f19601f8301169050919050565b60028110611366576113656112e6565b5b50565b6002811061137a576113796112e6565b5b50565b611386816111ef565b811461139157600080fd5b5056fea2646970667358221220cd37fb36674d30ccc73c3312ee55cc4ab72fdfe8d54806576d597c7dab6df0d964736f6c63430008000033",
  "immutableReferences": {},
  "source": "// SPDX-License-Identifier: MIT\n\npragma solidity ^0.8.0;\n\nimport \"@openzeppelin/contracts/access/Ownable.sol\";\nimport \"@openzeppelin/contracts/security/Pausable.sol\";\nimport \"../libraries/Evaluation.sol\";\nimport \"../exchange/WorkRelationship.sol\";\nimport \"../libraries/MarketLib.sol\";\nimport \"../control/Controllable.sol\";\n\ncontract Market is Ownable, Controllable, Pausable {\nevent MarketObservingRelationship(address indexed marketAddress, string indexed marketName, address indexed workRelationship);\nevent MarketUnObservingRelationship(address indexed marketAddress, string indexed marketName, address indexed workRelationship);\nevent MarketPaused(address indexed marketAddress, string indexed marketName);\nevent MarketResumed(address indexed marketAddress, string indexed marketName);\n\nstring public _marketName;\nMarketLib.MarketType public _marketType;\nuint256 public _requiredReputation;\nuint256 public _requiredIndustryWeight;\nMarketLib.MarketStatus public _marketStatus;\n\naddress[] private _workRelationships;\n\nconstructor(string memory marketName, MarketLib.MarketType marketType) {\n    _marketName = marketName;\n    _marketType = marketType;\n   // _requiredReputation = requiredReputation;\n   // _requiredIndustryWeight = requiredIndustryWeight;\n}\n\nfunction addRelationship(address newRelationship) external {\n    require(newRelationship != address(0));\n    _workRelationships.push(newRelationship);\n    emit MarketObservingRelationship(address(this), _marketName, newRelationship);\n}\n\nfunction pauseMarket() external onlyOwner onlyGlobalController(msg.sender) onlyDefaultMarkets(_marketType) onlyNotPausedState(_marketStatus) {\n    _pause();\n}\n\nfunction resumeMarket() external onlyOwner onlyGlobalController(msg.sender) onlyDefaultMarkets(_marketType) onlyPausedState(_marketStatus) {\n    _unpause();\n}\n\nfunction getMarketState() public view returns(bool) { return paused(); }\n\nfunction getWorkRelationships() external view returns(address[] memory) { return _workRelationships; }\n\nfunction destroyMarket() internal onlyOwner {\n    //selfdestruct(); \n}\n}\n",
  "sourcePath": "/Users/elijahhampton/git/opportunity-core/src/contracts/market/Market.sol",
  "compiler": {
    "name": "solc",
    "version": "0.8.0+commit.c7dfd78e.Emscripten.clang"
  },
  "schemaVersion": "3.4.1",
  "updatedAt": "2021-05-18T01:40:24.385Z",
  "devdoc": {
    "kind": "dev",
    "methods": {
      "owner()": {
        "details": "Returns the address of the current owner."
      },
      "paused()": {
        "details": "Returns true if the contract is paused, and false otherwise."
      },
      "renounceOwnership()": {
        "details": "Leaves the contract without owner. It will not be possible to call `onlyOwner` functions anymore. Can only be called by the current owner. NOTE: Renouncing ownership will leave the contract without an owner, thereby removing any functionality that is only available to the owner."
      },
      "transferOwnership(address)": {
        "details": "Transfers ownership of the contract to a new account (`newOwner`). Can only be called by the current owner."
      }
    },
    "version": 1
  },
  "userdoc": {
    "kind": "user",
    "methods": {},
    "version": 1
  }
}