{
  "contractName": "MarketFactory",
  "abi": [
    {
      "inputs": [],
      "stateMutability": "nonpayable",
      "type": "constructor"
    },
    {
      "anonymous": false,
      "inputs": [
        {
          "indexed": true,
          "internalType": "contract Market",
          "name": "_market",
          "type": "address"
        },
        {
          "indexed": true,
          "internalType": "uint256",
          "name": "index",
          "type": "uint256"
        },
        {
          "indexed": false,
          "internalType": "address",
          "name": "_marketAddress",
          "type": "address"
        }
      ],
      "name": "MarketCreated",
      "type": "event"
    },
    {
      "inputs": [
        {
          "internalType": "string",
          "name": "marketName",
          "type": "string"
        },
        {
          "internalType": "enum MarketUtil.MarketType",
          "name": "marketType",
          "type": "uint8"
        },
        {
          "internalType": "uint256",
          "name": "requiredReputation",
          "type": "uint256"
        },
        {
          "internalType": "uint256",
          "name": "requiredIndustryWeight",
          "type": "uint256"
        }
      ],
      "name": "createMarket",
      "outputs": [],
      "stateMutability": "nonpayable",
      "type": "function"
    },
    {
      "inputs": [],
      "name": "getNumMarkets",
      "outputs": [
        {
          "internalType": "uint256",
          "name": "",
          "type": "uint256"
        }
      ],
      "stateMutability": "view",
      "type": "function"
    }
  ],
  "bytecode": "0x608060405234801561001057600080fd5b50611a85806100206000396000f3fe60806040523480156200001157600080fd5b50600436106200003a5760003560e01c80630eada7d3146200003f578063295c39a5146200005f575b600080fd5b6200005d60048036038101906200005791906200023e565b62000081565b005b6200006962000184565b604051620000789190620003a8565b60405180910390f35b600084848484604051620000959062000190565b620000a4949392919062000354565b604051809103906000f080158015620000c1573d6000803e3d6000fd5b5090506000819080600181540180825580915050600190039060005260206000200160009091909190916101000a81548173ffffffffffffffffffffffffffffffffffffffff021916908373ffffffffffffffffffffffffffffffffffffffff1602179055506000805490508173ffffffffffffffffffffffffffffffffffffffff167f8263f983d31825e2fcfa4ff69822ca37ec7846c9c6a84da9b59ae29d8e43ddab3060405162000175919062000337565b60405180910390a35050505050565b60008080549050905090565b6114aa80620005a683390190565b6000620001b5620001af84620003f9565b620003c5565b905082815260208101848484011115620001ce57600080fd5b620001db848285620004af565b509392505050565b600081359050620001f4816200057a565b92915050565b600082601f8301126200020c57600080fd5b81356200021e8482602086016200019e565b91505092915050565b60008135905062000238816200058b565b92915050565b600080600080608085870312156200025557600080fd5b600085013567ffffffffffffffff8111156200027057600080fd5b6200027e87828801620001fa565b94505060206200029187828801620001e3565b9350506040620002a48782880162000227565b9250506060620002b78782880162000227565b91505092959194509250565b620002ce8162000448565b82525050565b620002df816200049b565b82525050565b6000620002f2826200042c565b620002fe818562000437565b935062000310818560208601620004be565b6200031b8162000552565b840191505092915050565b620003318162000491565b82525050565b60006020820190506200034e6000830184620002c3565b92915050565b60006080820190508181036000830152620003708187620002e5565b9050620003816020830186620002d4565b62000390604083018562000326565b6200039f606083018462000326565b95945050505050565b6000602082019050620003bf600083018462000326565b92915050565b6000604051905081810181811067ffffffffffffffff82111715620003ef57620003ee62000523565b5b8060405250919050565b600067ffffffffffffffff82111562000417576200041662000523565b5b601f19601f8301169050602081019050919050565b600081519050919050565b600082825260208201905092915050565b6000620004558262000471565b9050919050565b60008190506200046c8262000563565b919050565b600073ffffffffffffffffffffffffffffffffffffffff82169050919050565b6000819050919050565b6000620004a8826200045c565b9050919050565b82818337600083830152505050565b60005b83811015620004de578082015181840152602081019050620004c1565b83811115620004ee576000848401525b50505050565b7f4e487b7100000000000000000000000000000000000000000000000000000000600052602160045260246000fd5b7f4e487b7100000000000000000000000000000000000000000000000000000000600052604160045260246000fd5b6000601f19601f8301169050919050565b60028110620005775762000576620004f4565b5b50565b600281106200058857600080fd5b50565b620005968162000491565b8114620005a257600080fd5b5056fe60806040523480156200001157600080fd5b50604051620014aa380380620014aa8339818101604052810190620000379190620003be565b6000620000496200023d60201b60201c565b9050806000806101000a81548173ffffffffffffffffffffffffffffffffffffffff021916908373ffffffffffffffffffffffffffffffffffffffff1602179055508073ffffffffffffffffffffffffffffffffffffffff16600073ffffffffffffffffffffffffffffffffffffffff167f8be0079c531659141344cd1fd0a4f28419497f9722a3daafe3b4186f6b6457e060405160405180910390a35033600160006101000a81548173ffffffffffffffffffffffffffffffffffffffff021916908373ffffffffffffffffffffffffffffffffffffffff1602179055506000600160146101000a81548160ff02191690831515021790555083600290805190602001906200015b9291906200026e565b5082600360006101000a81548160ff02191690836001811115620001a8577f4e487b7100000000000000000000000000000000000000000000000000000000600052602160045260246000fd5b02179055508160048190555080600581905550620001cb6200024560201b60201c565b73ffffffffffffffffffffffffffffffffffffffff163073ffffffffffffffffffffffffffffffffffffffff167fa3338e7d56c8ad2fd672ca237b0efc97d3f2df1d9d9ca4d0be309138e05e13a284846040516200022b92919062000454565b60405180910390a350505050620005e7565b600033905090565b60008060009054906101000a900473ffffffffffffffffffffffffffffffffffffffff16905090565b8280546200027c9062000528565b90600052602060002090601f016020900481019282620002a05760008555620002ec565b82601f10620002bb57805160ff1916838001178555620002ec565b82800160010185558215620002ec579182015b82811115620002eb578251825591602001919060010190620002ce565b5b509050620002fb9190620002ff565b5090565b5b808211156200031a57600081600090555060010162000300565b5090565b6000620003356200032f84620004b5565b62000481565b9050828152602081018484840111156200034e57600080fd5b6200035b848285620004f2565b509392505050565b6000815190506200037481620005bc565b92915050565b600082601f8301126200038c57600080fd5b81516200039e8482602086016200031e565b91505092915050565b600081519050620003b881620005cd565b92915050565b60008060008060808587031215620003d557600080fd5b600085015167ffffffffffffffff811115620003f057600080fd5b620003fe878288016200037a565b9450506020620004118782880162000363565b93505060406200042487828801620003a7565b92505060606200043787828801620003a7565b91505092959194509250565b6200044e81620004e8565b82525050565b60006040820190506200046b600083018562000443565b6200047a602083018462000443565b9392505050565b6000604051905081810181811067ffffffffffffffff82111715620004ab57620004aa6200058d565b5b8060405250919050565b600067ffffffffffffffff821115620004d357620004d26200058d565b5b601f19601f8301169050602081019050919050565b6000819050919050565b60005b8381101562000512578082015181840152602081019050620004f5565b8381111562000522576000848401525b50505050565b600060028204905060018216806200054157607f821691505b602082108114156200055857620005576200055e565b5b50919050565b7f4e487b7100000000000000000000000000000000000000000000000000000000600052602260045260246000fd5b7f4e487b7100000000000000000000000000000000000000000000000000000000600052604160045260246000fd5b60028110620005ca57600080fd5b50565b620005d881620004e8565b8114620005e457600080fd5b50565b610eb380620005f76000396000f3fe608060405234801561001057600080fd5b50600436106100885760003560e01c80639319106b1161005b5780639319106b146100ef578063a03738dc146100f9578063d816574314610103578063f2fde38b1461012157610088565b80635c975abb1461008d578063715018a6146100ab57806379bda937146100b55780638da5cb5b146100d1575b600080fd5b61009561013d565b6040516100a29190610cfb565b60405180910390f35b6100b3610154565b005b6100cf60048036038101906100ca9190610add565b61028e565b005b6100d961039f565b6040516100e69190610ce0565b60405180910390f35b6100f76103c8565b005b6101016105c6565b005b61010b6107c4565b6040516101189190610cfb565b60405180910390f35b61013b60048036038101906101369190610add565b6107d3565b005b6000600160149054906101000a900460ff16905090565b61015c61097c565b73ffffffffffffffffffffffffffffffffffffffff1661017a61039f565b73ffffffffffffffffffffffffffffffffffffffff16146101d0576040517f08c379a00000000000000000000000000000000000000000000000000000000081526004016101c790610d76565b60405180910390fd5b600073ffffffffffffffffffffffffffffffffffffffff1660008054906101000a900473ffffffffffffffffffffffffffffffffffffffff1673ffffffffffffffffffffffffffffffffffffffff167f8be0079c531659141344cd1fd0a4f28419497f9722a3daafe3b4186f6b6457e060405160405180910390a360008060006101000a81548173ffffffffffffffffffffffffffffffffffffffff021916908373ffffffffffffffffffffffffffffffffffffffff160217905550565b600073ffffffffffffffffffffffffffffffffffffffff168173ffffffffffffffffffffffffffffffffffffffff1614156102c857600080fd5b6007819080600181540180825580915050600190039060005260206000200160009091909190916101000a81548173ffffffffffffffffffffffffffffffffffffffff021916908373ffffffffffffffffffffffffffffffffffffffff1602179055508073ffffffffffffffffffffffffffffffffffffffff1660026040516103519190610cc9565b60405180910390203073ffffffffffffffffffffffffffffffffffffffff167f468383fd00b84717a9b26fdb0dc1c91ee119987255bf19a7b96016f9f3f1ee3660405160405180910390a450565b60008060009054906101000a900473ffffffffffffffffffffffffffffffffffffffff16905090565b6103d061097c565b73ffffffffffffffffffffffffffffffffffffffff166103ee61039f565b73ffffffffffffffffffffffffffffffffffffffff1614610444576040517f08c379a000000000000000000000000000000000000000000000000000000000815260040161043b90610d76565b60405180910390fd5b33600160009054906101000a900473ffffffffffffffffffffffffffffffffffffffff1673ffffffffffffffffffffffffffffffffffffffff168173ffffffffffffffffffffffffffffffffffffffff161461049f57600080fd5b600360009054906101000a900460ff16600060018111156104e9577f4e487b7100000000000000000000000000000000000000000000000000000000600052602160045260246000fd5b816001811115610522577f4e487b7100000000000000000000000000000000000000000000000000000000600052602160045260246000fd5b1461052c57600080fd5b600660009054906101000a900460ff1660006001811115610576577f4e487b7100000000000000000000000000000000000000000000000000000000600052602160045260246000fd5b8160018111156105af577f4e487b7100000000000000000000000000000000000000000000000000000000600052602160045260246000fd5b146105b957600080fd5b6105c1610984565b505050565b6105ce61097c565b73ffffffffffffffffffffffffffffffffffffffff166105ec61039f565b73ffffffffffffffffffffffffffffffffffffffff1614610642576040517f08c379a000000000000000000000000000000000000000000000000000000000815260040161063990610d76565b60405180910390fd5b33600160009054906101000a900473ffffffffffffffffffffffffffffffffffffffff1673ffffffffffffffffffffffffffffffffffffffff168173ffffffffffffffffffffffffffffffffffffffff161461069d57600080fd5b600360009054906101000a900460ff16600060018111156106e7577f4e487b7100000000000000000000000000000000000000000000000000000000600052602160045260246000fd5b816001811115610720577f4e487b7100000000000000000000000000000000000000000000000000000000600052602160045260246000fd5b1461072a57600080fd5b600660009054906101000a900460ff16600180811115610773577f4e487b7100000000000000000000000000000000000000000000000000000000600052602160045260246000fd5b8160018111156107ac577f4e487b7100000000000000000000000000000000000000000000000000000000600052602160045260246000fd5b14156107b757600080fd5b6107bf610a26565b505050565b60006107ce61013d565b905090565b6107db61097c565b73ffffffffffffffffffffffffffffffffffffffff166107f961039f565b73ffffffffffffffffffffffffffffffffffffffff161461084f576040517f08c379a000000000000000000000000000000000000000000000000000000000815260040161084690610d76565b60405180910390fd5b600073ffffffffffffffffffffffffffffffffffffffff168173ffffffffffffffffffffffffffffffffffffffff1614156108bf576040517f08c379a00000000000000000000000000000000000000000000000000000000081526004016108b690610d36565b60405180910390fd5b8073ffffffffffffffffffffffffffffffffffffffff1660008054906101000a900473ffffffffffffffffffffffffffffffffffffffff1673ffffffffffffffffffffffffffffffffffffffff167f8be0079c531659141344cd1fd0a4f28419497f9722a3daafe3b4186f6b6457e060405160405180910390a3806000806101000a81548173ffffffffffffffffffffffffffffffffffffffff021916908373ffffffffffffffffffffffffffffffffffffffff16021790555050565b600033905090565b61098c61013d565b6109cb576040517f08c379a00000000000000000000000000000000000000000000000000000000081526004016109c290610d16565b60405180910390fd5b6000600160146101000a81548160ff0219169083151502179055507f5db9ee0a495bf2e6ff9c91a7834c1ba4fdd244a5e8aa4e537bd38aeae4b073aa610a0f61097c565b604051610a1c9190610ce0565b60405180910390a1565b610a2e61013d565b15610a6e576040517f08c379a0000000000000000000000000000000000000000000000000000000008152600401610a6590610d56565b60405180910390fd5b60018060146101000a81548160ff0219169083151502179055507f62e78cea01bee320cd4e420270b5ea74000d11b0c9f74754ebdbfc544b05a258610ab161097c565b604051610abe9190610ce0565b60405180910390a1565b600081359050610ad781610e66565b92915050565b600060208284031215610aef57600080fd5b6000610afd84828501610ac8565b91505092915050565b610b0f81610dc7565b82525050565b610b1e81610dd9565b82525050565b60008154610b3181610e05565b610b3b8186610dbc565b94506001821660008114610b565760018114610b6757610b9a565b60ff19831686528186019350610b9a565b610b7085610d96565b60005b83811015610b9257815481890152600182019150602081019050610b73565b838801955050505b50505092915050565b6000610bb0601483610dab565b91507f5061757361626c653a206e6f74207061757365640000000000000000000000006000830152602082019050919050565b6000610bf0602683610dab565b91507f4f776e61626c653a206e6577206f776e657220697320746865207a65726f206160008301527f64647265737300000000000000000000000000000000000000000000000000006020830152604082019050919050565b6000610c56601083610dab565b91507f5061757361626c653a20706175736564000000000000000000000000000000006000830152602082019050919050565b6000610c96602083610dab565b91507f4f776e61626c653a2063616c6c6572206973206e6f7420746865206f776e65726000830152602082019050919050565b6000610cd58284610b24565b915081905092915050565b6000602082019050610cf56000830184610b06565b92915050565b6000602082019050610d106000830184610b15565b92915050565b60006020820190508181036000830152610d2f81610ba3565b9050919050565b60006020820190508181036000830152610d4f81610be3565b9050919050565b60006020820190508181036000830152610d6f81610c49565b9050919050565b60006020820190508181036000830152610d8f81610c89565b9050919050565b60008190508160005260206000209050919050565b600082825260208201905092915050565b600081905092915050565b6000610dd282610de5565b9050919050565b60008115159050919050565b600073ffffffffffffffffffffffffffffffffffffffff82169050919050565b60006002820490506001821680610e1d57607f821691505b60208210811415610e3157610e30610e37565b5b50919050565b7f4e487b7100000000000000000000000000000000000000000000000000000000600052602260045260246000fd5b610e6f81610dc7565b8114610e7a57600080fd5b5056fea264697066735822122087a5a45f8232615443a45aeff4b1d64efd0ca6459301fb1137f5304dea36e27a64736f6c63430008000033a26469706673582212203721358fc5a4a36b4d383e4e16d107c708fa0ce675399e322d6c2ea1fe62ff0764736f6c63430008000033",
  "immutableReferences": {},
  "source": "// SPDX-License-Identifier: MIT\n\npragma solidity ^0.8.0;\n\nimport \"./Market.sol\";\nimport \"../libraries/Market.sol\";\n\ncontract MarketFactory {\n    event MarketCreated(Market indexed _market, uint256 indexed index, address _marketAddress);\n    Market[] private _createdMarkets;\n\n    constructor() {}\n\n    /**\n     * Creates a user summary contract for each user based on their civic ID.\n     */\n     function createMarket(string memory marketName, MarketUtil.MarketType marketType, uint256 requiredReputation, uint256 requiredIndustryWeight) external {\n        Market createdMarket = new Market(marketName, marketType, requiredReputation, requiredIndustryWeight);\n        _createdMarkets.push(createdMarket);\n        emit MarketCreated(createdMarket, _createdMarkets.length, address(this));\n    }\n\n    /**\n     *\n     */\n     function getNumMarkets() public view returns (uint256) {\n         return _createdMarkets.length;\n     }\n}\n",
  "sourcePath": "/Users/elijahhampton/Desktop/opportunity-core/src/contracts/market/MarketFactory.sol",
  "compiler": {
    "name": "solc",
    "version": "0.8.0+commit.c7dfd78e.Emscripten.clang"
  },
  "schemaVersion": "3.3.4",
  "updatedAt": "2021-04-29T18:41:06.935Z",
  "devdoc": {
    "kind": "dev",
    "methods": {},
    "version": 1
  },
  "userdoc": {
    "kind": "user",
    "methods": {
      "createMarket(string,uint8,uint256,uint256)": {
        "notice": "Creates a user summary contract for each user based on their civic ID."
      }
    },
    "version": 1
  }
}