{
  "contractName": "Market",
  "abi": [
    {
      "inputs": [
        {
          "internalType": "string",
          "name": "marketName",
          "type": "string"
        },
        {
          "internalType": "enum MarketLib.MarketType",
          "name": "marketType",
          "type": "uint8"
        }
      ],
      "stateMutability": "nonpayable",
      "type": "constructor"
    },
    {
      "anonymous": false,
      "inputs": [
        {
          "indexed": true,
          "internalType": "address",
          "name": "marketAddress",
          "type": "address"
        },
        {
          "indexed": true,
          "internalType": "string",
          "name": "marketName",
          "type": "string"
        },
        {
          "indexed": true,
          "internalType": "address",
          "name": "workRelationship",
          "type": "address"
        },
        {
          "indexed": false,
          "internalType": "uint256",
          "name": "relationshipIndex",
          "type": "uint256"
        }
      ],
      "name": "MarketObservingRelationship",
      "type": "event"
    },
    {
      "anonymous": false,
      "inputs": [
        {
          "indexed": true,
          "internalType": "address",
          "name": "marketAddress",
          "type": "address"
        },
        {
          "indexed": true,
          "internalType": "string",
          "name": "marketName",
          "type": "string"
        }
      ],
      "name": "MarketPaused",
      "type": "event"
    },
    {
      "anonymous": false,
      "inputs": [
        {
          "indexed": true,
          "internalType": "address",
          "name": "marketAddress",
          "type": "address"
        },
        {
          "indexed": true,
          "internalType": "string",
          "name": "marketName",
          "type": "string"
        }
      ],
      "name": "MarketResumed",
      "type": "event"
    },
    {
      "anonymous": false,
      "inputs": [
        {
          "indexed": true,
          "internalType": "address",
          "name": "marketAddress",
          "type": "address"
        },
        {
          "indexed": true,
          "internalType": "string",
          "name": "marketName",
          "type": "string"
        },
        {
          "indexed": true,
          "internalType": "address",
          "name": "workRelationship",
          "type": "address"
        }
      ],
      "name": "MarketUnObservingRelationship",
      "type": "event"
    },
    {
      "anonymous": false,
      "inputs": [
        {
          "indexed": true,
          "internalType": "address",
          "name": "previousOwner",
          "type": "address"
        },
        {
          "indexed": true,
          "internalType": "address",
          "name": "newOwner",
          "type": "address"
        }
      ],
      "name": "OwnershipTransferred",
      "type": "event"
    },
    {
      "anonymous": false,
      "inputs": [
        {
          "indexed": false,
          "internalType": "address",
          "name": "account",
          "type": "address"
        }
      ],
      "name": "Paused",
      "type": "event"
    },
    {
      "anonymous": false,
      "inputs": [
        {
          "indexed": false,
          "internalType": "address",
          "name": "account",
          "type": "address"
        }
      ],
      "name": "Unpaused",
      "type": "event"
    },
    {
      "inputs": [],
      "name": "_marketName",
      "outputs": [
        {
          "internalType": "string",
          "name": "",
          "type": "string"
        }
      ],
      "stateMutability": "view",
      "type": "function"
    },
    {
      "inputs": [],
      "name": "_marketStatus",
      "outputs": [
        {
          "internalType": "enum MarketLib.MarketStatus",
          "name": "",
          "type": "uint8"
        }
      ],
      "stateMutability": "view",
      "type": "function"
    },
    {
      "inputs": [],
      "name": "_marketType",
      "outputs": [
        {
          "internalType": "enum MarketLib.MarketType",
          "name": "",
          "type": "uint8"
        }
      ],
      "stateMutability": "view",
      "type": "function"
    },
    {
      "inputs": [],
      "name": "_requiredIndustryWeight",
      "outputs": [
        {
          "internalType": "uint256",
          "name": "",
          "type": "uint256"
        }
      ],
      "stateMutability": "view",
      "type": "function"
    },
    {
      "inputs": [],
      "name": "_requiredReputation",
      "outputs": [
        {
          "internalType": "uint256",
          "name": "",
          "type": "uint256"
        }
      ],
      "stateMutability": "view",
      "type": "function"
    },
    {
      "inputs": [],
      "name": "owner",
      "outputs": [
        {
          "internalType": "address",
          "name": "",
          "type": "address"
        }
      ],
      "stateMutability": "view",
      "type": "function"
    },
    {
      "inputs": [],
      "name": "paused",
      "outputs": [
        {
          "internalType": "bool",
          "name": "",
          "type": "bool"
        }
      ],
      "stateMutability": "view",
      "type": "function"
    },
    {
      "inputs": [],
      "name": "renounceOwnership",
      "outputs": [],
      "stateMutability": "nonpayable",
      "type": "function"
    },
    {
      "inputs": [
        {
          "internalType": "address",
          "name": "newOwner",
          "type": "address"
        }
      ],
      "name": "transferOwnership",
      "outputs": [],
      "stateMutability": "nonpayable",
      "type": "function"
    },
    {
      "inputs": [
        {
          "internalType": "address",
          "name": "newRelationship",
          "type": "address"
        }
      ],
      "name": "addRelationship",
      "outputs": [],
      "stateMutability": "nonpayable",
      "type": "function"
    },
    {
      "inputs": [
        {
          "internalType": "address",
          "name": "relationship",
          "type": "address"
        },
        {
          "internalType": "uint256",
          "name": "index",
          "type": "uint256"
        }
      ],
      "name": "removeRelationship",
      "outputs": [],
      "stateMutability": "nonpayable",
      "type": "function"
    },
    {
      "inputs": [],
      "name": "pauseMarket",
      "outputs": [],
      "stateMutability": "nonpayable",
      "type": "function"
    },
    {
      "inputs": [],
      "name": "resumeMarket",
      "outputs": [],
      "stateMutability": "nonpayable",
      "type": "function"
    },
    {
      "inputs": [],
      "name": "getMarketState",
      "outputs": [
        {
          "internalType": "bool",
          "name": "",
          "type": "bool"
        }
      ],
      "stateMutability": "view",
      "type": "function"
    },
    {
      "inputs": [],
      "name": "getWorkRelationships",
      "outputs": [
        {
          "internalType": "address[]",
          "name": "",
          "type": "address[]"
        }
      ],
      "stateMutability": "view",
      "type": "function"
    }
  ],
  "bytecode": "0x60806040523480156200001157600080fd5b5060405162001aed38038062001aed8339818101604052810190620000379190620002f6565b600062000049620001b560201b60201c565b9050806000806101000a81548173ffffffffffffffffffffffffffffffffffffffff021916908373ffffffffffffffffffffffffffffffffffffffff1602179055508073ffffffffffffffffffffffffffffffffffffffff16600073ffffffffffffffffffffffffffffffffffffffff167f8be0079c531659141344cd1fd0a4f28419497f9722a3daafe3b4186f6b6457e060405160405180910390a35033600160006101000a81548173ffffffffffffffffffffffffffffffffffffffff021916908373ffffffffffffffffffffffffffffffffffffffff1602179055506000600160146101000a81548160ff02191690831515021790555081600290805190602001906200015b929190620001bd565b5080600360006101000a81548160ff02191690836001811115620001a8577f4e487b7100000000000000000000000000000000000000000000000000000000600052602160045260246000fd5b02179055505050620004d1565b600033905090565b828054620001cb90620003e5565b90600052602060002090601f016020900481019282620001ef57600085556200023b565b82601f106200020a57805160ff19168380011785556200023b565b828001600101855582156200023b579182015b828111156200023a5782518255916020019190600101906200021d565b5b5090506200024a91906200024e565b5090565b5b80821115620002695760008160009055506001016200024f565b5090565b6000620002846200027e8462000379565b62000350565b9050828152602081018484840111156200029d57600080fd5b620002aa848285620003af565b509392505050565b600081519050620002c381620004c0565b92915050565b600082601f830112620002db57600080fd5b8151620002ed8482602086016200026d565b91505092915050565b600080604083850312156200030a57600080fd5b600083015167ffffffffffffffff8111156200032557600080fd5b6200033385828601620002c9565b92505060206200034685828601620002b2565b9150509250929050565b60006200035c6200036f565b90506200036a82826200041b565b919050565b6000604051905090565b600067ffffffffffffffff82111562000397576200039662000480565b5b620003a282620004af565b9050602081019050919050565b60005b83811015620003cf578082015181840152602081019050620003b2565b83811115620003df576000848401525b50505050565b60006002820490506001821680620003fe57607f821691505b6020821081141562000415576200041462000451565b5b50919050565b6200042682620004af565b810181811067ffffffffffffffff8211171562000448576200044762000480565b5b80604052505050565b7f4e487b7100000000000000000000000000000000000000000000000000000000600052602260045260246000fd5b7f4e487b7100000000000000000000000000000000000000000000000000000000600052604160045260246000fd5b6000601f19601f8301169050919050565b60028110620004ce57600080fd5b50565b61160c80620004e16000396000f3fe608060405234801561001057600080fd5b50600436106100f55760003560e01c8063838069f711610097578063bb2c348411610066578063bb2c348414610206578063c143521f14610222578063d816574314610240578063f2fde38b1461025e576100f5565b8063838069f7146101b65780638da5cb5b146101d45780639319106b146101f2578063a03738dc146101fc576100f5565b80636039c8d7116100d35780636039c8d714610154578063715018a61461017257806379bda9371461017c5780637cf63de914610198576100f5565b80630f091637146100fa57806336e114fc146101185780635c975abb14610136575b600080fd5b61010261027a565b60405161010f919061123b565b60405180910390f35b610120610280565b60405161012d9190611126565b60405180910390f35b61013e61030e565b60405161014b9190611148565b60405180910390f35b61015c610325565b6040516101699190611199565b60405180910390f35b61017a6103b3565b005b61019660048036038101906101919190610e7b565b6104ed565b005b6101a0610620565b6040516101ad919061117e565b60405180910390f35b6101be610633565b6040516101cb9190611163565b60405180910390f35b6101dc610646565b6040516101e9919061110b565b60405180910390f35b6101fa61066f565b005b61020461086d565b005b610220600480360381019061021b9190610ea4565b610a6b565b005b61022a610b47565b604051610237919061123b565b60405180910390f35b610248610b4d565b6040516102559190611148565b60405180910390f35b61027860048036038101906102739190610e7b565b610b5c565b005b60045481565b6060600780548060200260200160405190810160405280929190818152602001828054801561030457602002820191906000526020600020905b8160009054906101000a900473ffffffffffffffffffffffffffffffffffffffff1673ffffffffffffffffffffffffffffffffffffffff16815260200190600101908083116102ba575b5050505050905090565b6000600160149054906101000a900460ff16905090565b60028054610332906113e6565b80601f016020809104026020016040519081016040528092919081815260200182805461035e906113e6565b80156103ab5780601f10610380576101008083540402835291602001916103ab565b820191906000526020600020905b81548152906001019060200180831161038e57829003601f168201915b505050505081565b6103bb610d05565b73ffffffffffffffffffffffffffffffffffffffff166103d9610646565b73ffffffffffffffffffffffffffffffffffffffff161461042f576040517f08c379a00000000000000000000000000000000000000000000000000000000081526004016104269061121b565b60405180910390fd5b600073ffffffffffffffffffffffffffffffffffffffff1660008054906101000a900473ffffffffffffffffffffffffffffffffffffffff1673ffffffffffffffffffffffffffffffffffffffff167f8be0079c531659141344cd1fd0a4f28419497f9722a3daafe3b4186f6b6457e060405160405180910390a360008060006101000a81548173ffffffffffffffffffffffffffffffffffffffff021916908373ffffffffffffffffffffffffffffffffffffffff160217905550565b600073ffffffffffffffffffffffffffffffffffffffff168173ffffffffffffffffffffffffffffffffffffffff16141561052757600080fd5b6000600160078054905061053b91906112cb565b90506007829080600181540180825580915050600190039060005260206000200160009091909190916101000a81548173ffffffffffffffffffffffffffffffffffffffff021916908373ffffffffffffffffffffffffffffffffffffffff1602179055508173ffffffffffffffffffffffffffffffffffffffff1660026040516105c691906110f4565b60405180910390203073ffffffffffffffffffffffffffffffffffffffff167f995ef0f2c501b2a2ca468ecea24670295c76824d1f4e27669e69318a4544b8fa84604051610614919061123b565b60405180910390a45050565b600360009054906101000a900460ff1681565b600660009054906101000a900460ff1681565b60008060009054906101000a900473ffffffffffffffffffffffffffffffffffffffff16905090565b610677610d05565b73ffffffffffffffffffffffffffffffffffffffff16610695610646565b73ffffffffffffffffffffffffffffffffffffffff16146106eb576040517f08c379a00000000000000000000000000000000000000000000000000000000081526004016106e29061121b565b60405180910390fd5b33600160009054906101000a900473ffffffffffffffffffffffffffffffffffffffff1673ffffffffffffffffffffffffffffffffffffffff168173ffffffffffffffffffffffffffffffffffffffff161461074657600080fd5b600360009054906101000a900460ff1660006001811115610790577f4e487b7100000000000000000000000000000000000000000000000000000000600052602160045260246000fd5b8160018111156107c9577f4e487b7100000000000000000000000000000000000000000000000000000000600052602160045260246000fd5b146107d357600080fd5b600660009054906101000a900460ff166000600181111561081d577f4e487b7100000000000000000000000000000000000000000000000000000000600052602160045260246000fd5b816001811115610856577f4e487b7100000000000000000000000000000000000000000000000000000000600052602160045260246000fd5b1461086057600080fd5b610868610d0d565b505050565b610875610d05565b73ffffffffffffffffffffffffffffffffffffffff16610893610646565b73ffffffffffffffffffffffffffffffffffffffff16146108e9576040517f08c379a00000000000000000000000000000000000000000000000000000000081526004016108e09061121b565b60405180910390fd5b33600160009054906101000a900473ffffffffffffffffffffffffffffffffffffffff1673ffffffffffffffffffffffffffffffffffffffff168173ffffffffffffffffffffffffffffffffffffffff161461094457600080fd5b600360009054906101000a900460ff166000600181111561098e577f4e487b7100000000000000000000000000000000000000000000000000000000600052602160045260246000fd5b8160018111156109c7577f4e487b7100000000000000000000000000000000000000000000000000000000600052602160045260246000fd5b146109d157600080fd5b600660009054906101000a900460ff16600180811115610a1a577f4e487b7100000000000000000000000000000000000000000000000000000000600052602160045260246000fd5b816001811115610a53577f4e487b7100000000000000000000000000000000000000000000000000000000600052602160045260246000fd5b1415610a5e57600080fd5b610a66610daf565b505050565b60078181548110610aa5577f4e487b7100000000000000000000000000000000000000000000000000000000600052603260045260246000fd5b9060005260206000200160006101000a81549073ffffffffffffffffffffffffffffffffffffffff02191690558173ffffffffffffffffffffffffffffffffffffffff166002604051610af891906110f4565b60405180910390203073ffffffffffffffffffffffffffffffffffffffff167f3a3eccfff146c0e9036261655797d1c38bbbd8083e812576116a6befa390038c60405160405180910390a45050565b60055481565b6000610b5761030e565b905090565b610b64610d05565b73ffffffffffffffffffffffffffffffffffffffff16610b82610646565b73ffffffffffffffffffffffffffffffffffffffff1614610bd8576040517f08c379a0000000000000000000000000000000000000000000000000000000008152600401610bcf9061121b565b60405180910390fd5b600073ffffffffffffffffffffffffffffffffffffffff168173ffffffffffffffffffffffffffffffffffffffff161415610c48576040517f08c379a0000000000000000000000000000000000000000000000000000000008152600401610c3f906111db565b60405180910390fd5b8073ffffffffffffffffffffffffffffffffffffffff1660008054906101000a900473ffffffffffffffffffffffffffffffffffffffff1673ffffffffffffffffffffffffffffffffffffffff167f8be0079c531659141344cd1fd0a4f28419497f9722a3daafe3b4186f6b6457e060405160405180910390a3806000806101000a81548173ffffffffffffffffffffffffffffffffffffffff021916908373ffffffffffffffffffffffffffffffffffffffff16021790555050565b600033905090565b610d1561030e565b610d54576040517f08c379a0000000000000000000000000000000000000000000000000000000008152600401610d4b906111bb565b60405180910390fd5b6000600160146101000a81548160ff0219169083151502179055507f5db9ee0a495bf2e6ff9c91a7834c1ba4fdd244a5e8aa4e537bd38aeae4b073aa610d98610d05565b604051610da5919061110b565b60405180910390a1565b610db761030e565b15610df7576040517f08c379a0000000000000000000000000000000000000000000000000000000008152600401610dee906111fb565b60405180910390fd5b60018060146101000a81548160ff0219169083151502179055507f62e78cea01bee320cd4e420270b5ea74000d11b0c9f74754ebdbfc544b05a258610e3a610d05565b604051610e47919061110b565b60405180910390a1565b600081359050610e60816115a8565b92915050565b600081359050610e75816115bf565b92915050565b600060208284031215610e8d57600080fd5b6000610e9b84828501610e51565b91505092915050565b60008060408385031215610eb757600080fd5b6000610ec585828601610e51565b9250506020610ed685828601610e66565b9150509250929050565b6000610eec8383610ef8565b60208301905092915050565b610f0181611321565b82525050565b610f1081611321565b82525050565b6000610f218261127b565b610f2b818561129e565b9350610f3683611256565b8060005b83811015610f67578151610f4e8882610ee0565b9750610f5983611291565b925050600181019050610f3a565b5085935050505092915050565b610f7d81611333565b82525050565b610f8c8161138f565b82525050565b610f9b816113a1565b82525050565b6000610fac82611286565b610fb681856112af565b9350610fc68185602086016113b3565b610fcf816114a5565b840191505092915050565b60008154610fe7816113e6565b610ff181866112c0565b9450600182166000811461100c576001811461101d57611050565b60ff19831686528186019350611050565b61102685611266565b60005b8381101561104857815481890152600182019150602081019050611029565b838801955050505b50505092915050565b60006110666014836112af565b9150611071826114b6565b602082019050919050565b60006110896026836112af565b9150611094826114df565b604082019050919050565b60006110ac6010836112af565b91506110b78261152e565b602082019050919050565b60006110cf6020836112af565b91506110da82611557565b602082019050919050565b6110ee81611385565b82525050565b60006111008284610fda565b915081905092915050565b60006020820190506111206000830184610f07565b92915050565b600060208201905081810360008301526111408184610f16565b905092915050565b600060208201905061115d6000830184610f74565b92915050565b60006020820190506111786000830184610f83565b92915050565b60006020820190506111936000830184610f92565b92915050565b600060208201905081810360008301526111b38184610fa1565b905092915050565b600060208201905081810360008301526111d481611059565b9050919050565b600060208201905081810360008301526111f48161107c565b9050919050565b600060208201905081810360008301526112148161109f565b9050919050565b60006020820190508181036000830152611234816110c2565b9050919050565b600060208201905061125060008301846110e5565b92915050565b6000819050602082019050919050565b60008190508160005260206000209050919050565b600081519050919050565b600081519050919050565b6000602082019050919050565b600082825260208201905092915050565b600082825260208201905092915050565b600081905092915050565b60006112d682611385565b91506112e183611385565b9250827fffffffffffffffffffffffffffffffffffffffffffffffffffffffffffffffff0382111561131657611315611418565b5b828201905092915050565b600061132c82611365565b9050919050565b60008115159050919050565b600081905061134d82611580565b919050565b600081905061136082611594565b919050565b600073ffffffffffffffffffffffffffffffffffffffff82169050919050565b6000819050919050565b600061139a8261133f565b9050919050565b60006113ac82611352565b9050919050565b60005b838110156113d15780820151818401526020810190506113b6565b838111156113e0576000848401525b50505050565b600060028204905060018216806113fe57607f821691505b6020821081141561141257611411611476565b5b50919050565b7f4e487b7100000000000000000000000000000000000000000000000000000000600052601160045260246000fd5b7f4e487b7100000000000000000000000000000000000000000000000000000000600052602160045260246000fd5b7f4e487b7100000000000000000000000000000000000000000000000000000000600052602260045260246000fd5b6000601f19601f8301169050919050565b7f5061757361626c653a206e6f7420706175736564000000000000000000000000600082015250565b7f4f776e61626c653a206e6577206f776e657220697320746865207a65726f206160008201527f6464726573730000000000000000000000000000000000000000000000000000602082015250565b7f5061757361626c653a2070617573656400000000000000000000000000000000600082015250565b7f4f776e61626c653a2063616c6c6572206973206e6f7420746865206f776e6572600082015250565b6002811061159157611590611447565b5b50565b600281106115a5576115a4611447565b5b50565b6115b181611321565b81146115bc57600080fd5b50565b6115c881611385565b81146115d357600080fd5b5056fea26469706673582212201119b4af858b88b66019671070ad797450166da0cf33a885aad5a4bce9e2012c64736f6c63430008040033",
  "immutableReferences": {},
  "source": "// SPDX-License-Identifier: MIT\n\npragma solidity 0.8.4;\n\nimport \"@openzeppelin/contracts/access/Ownable.sol\";\nimport \"@openzeppelin/contracts/security/Pausable.sol\";\nimport \"../libraries/Evaluation.sol\";\nimport \"../exchange/WorkRelationship.sol\";\nimport \"../libraries/MarketLib.sol\";\nimport \"../control/Controllable.sol\";\n\ncontract Market is Ownable, Controllable, Pausable {\nevent MarketObservingRelationship(address indexed marketAddress, string indexed marketName, address indexed workRelationship, uint256 relationshipIndex);\nevent MarketUnObservingRelationship(address indexed marketAddress, string indexed marketName, address indexed workRelationship);\nevent MarketPaused(address indexed marketAddress, string indexed marketName);\nevent MarketResumed(address indexed marketAddress, string indexed marketName);\n\nstring public _marketName;\nMarketLib.MarketType public _marketType;\nuint256 public _requiredReputation;\nuint256 public _requiredIndustryWeight;\nMarketLib.MarketStatus public _marketStatus;\n\naddress[] private _workRelationships;\n\nconstructor(string memory marketName, MarketLib.MarketType marketType) {\n    _marketName = marketName;\n    _marketType = marketType;\n   // _requiredReputation = requiredReputation;\n   // _requiredIndustryWeight = requiredIndustryWeight;\n}\n\nfunction addRelationship(address newRelationship) external {\n    require(newRelationship != address(0));\n    uint256 relationshipIndex = _workRelationships.length + 1;\n    _workRelationships.push(newRelationship);\n    emit MarketObservingRelationship(address(this), _marketName, newRelationship, relationshipIndex);\n}\n\nfunction removeRelationship(address relationship, uint256 index) external {\n    delete _workRelationships[index];\n    emit MarketUnObservingRelationship(address(this), _marketName, relationship);\n}\n\nfunction pauseMarket() external onlyOwner onlyGlobalController(msg.sender) onlyDefaultMarkets(_marketType) onlyNotPausedState(_marketStatus) {\n    _pause();\n}\n\nfunction resumeMarket() external onlyOwner onlyGlobalController(msg.sender) onlyDefaultMarkets(_marketType) onlyPausedState(_marketStatus) {\n    _unpause();\n}\n\nfunction getMarketState() public view returns(bool) { return paused(); }\n\nfunction getWorkRelationships() external view returns(address[] memory) { return _workRelationships; }\n\nfunction destroyMarket() internal onlyOwner {\n    //selfdestruct(); \n}\n}\n",
  "sourcePath": "/Users/elijahhampton/Desktop/opportunity-core/src/contracts/market/Market.sol",
  "compiler": {
    "name": "solc",
    "version": "0.8.4+commit.c7e474f2.Emscripten.clang"
  },
  "schemaVersion": "3.4.1",
  "updatedAt": "2021-06-09T23:30:16.463Z",
  "devdoc": {
    "kind": "dev",
    "methods": {
      "owner()": {
        "details": "Returns the address of the current owner."
      },
      "paused()": {
        "details": "Returns true if the contract is paused, and false otherwise."
      },
      "renounceOwnership()": {
        "details": "Leaves the contract without owner. It will not be possible to call `onlyOwner` functions anymore. Can only be called by the current owner. NOTE: Renouncing ownership will leave the contract without an owner, thereby removing any functionality that is only available to the owner."
      },
      "transferOwnership(address)": {
        "details": "Transfers ownership of the contract to a new account (`newOwner`). Can only be called by the current owner."
      }
    },
    "version": 1
  },
  "userdoc": {
    "kind": "user",
    "methods": {},
    "version": 1
  }
}