{
  "contractName": "Market",
  "abi": [
    {
      "inputs": [
        {
          "internalType": "string",
          "name": "marketName",
          "type": "string"
        },
        {
          "internalType": "enum MarketLib.MarketType",
          "name": "marketType",
          "type": "uint8"
        }
      ],
      "stateMutability": "nonpayable",
      "type": "constructor"
    },
    {
      "anonymous": false,
      "inputs": [
        {
          "indexed": true,
          "internalType": "address",
          "name": "marketAddress",
          "type": "address"
        },
        {
          "indexed": true,
          "internalType": "string",
          "name": "marketName",
          "type": "string"
        }
      ],
      "name": "MarketPaused",
      "type": "event"
    },
    {
      "anonymous": false,
      "inputs": [
        {
          "indexed": true,
          "internalType": "address",
          "name": "marketAddress",
          "type": "address"
        },
        {
          "indexed": true,
          "internalType": "string",
          "name": "marketName",
          "type": "string"
        }
      ],
      "name": "MarketResumed",
      "type": "event"
    },
    {
      "anonymous": false,
      "inputs": [
        {
          "indexed": true,
          "internalType": "address",
          "name": "previousOwner",
          "type": "address"
        },
        {
          "indexed": true,
          "internalType": "address",
          "name": "newOwner",
          "type": "address"
        }
      ],
      "name": "OwnershipTransferred",
      "type": "event"
    },
    {
      "anonymous": false,
      "inputs": [
        {
          "indexed": false,
          "internalType": "address",
          "name": "account",
          "type": "address"
        }
      ],
      "name": "Paused",
      "type": "event"
    },
    {
      "anonymous": false,
      "inputs": [
        {
          "indexed": false,
          "internalType": "address",
          "name": "account",
          "type": "address"
        }
      ],
      "name": "Unpaused",
      "type": "event"
    },
    {
      "anonymous": false,
      "inputs": [
        {
          "indexed": true,
          "internalType": "address",
          "name": "owner",
          "type": "address"
        },
        {
          "indexed": true,
          "internalType": "address",
          "name": "relationship",
          "type": "address"
        },
        {
          "indexed": true,
          "internalType": "address",
          "name": "marketAddress",
          "type": "address"
        }
      ],
      "name": "WorkRelationshipCreated",
      "type": "event"
    },
    {
      "anonymous": false,
      "inputs": [
        {
          "indexed": true,
          "internalType": "address",
          "name": "owner",
          "type": "address"
        },
        {
          "indexed": true,
          "internalType": "address",
          "name": "relationship",
          "type": "address"
        }
      ],
      "name": "WorkRelationshipEnded",
      "type": "event"
    },
    {
      "inputs": [],
      "name": "_marketName",
      "outputs": [
        {
          "internalType": "string",
          "name": "",
          "type": "string"
        }
      ],
      "stateMutability": "view",
      "type": "function"
    },
    {
      "inputs": [],
      "name": "_marketStatus",
      "outputs": [
        {
          "internalType": "enum MarketLib.MarketStatus",
          "name": "",
          "type": "uint8"
        }
      ],
      "stateMutability": "view",
      "type": "function"
    },
    {
      "inputs": [],
      "name": "_marketType",
      "outputs": [
        {
          "internalType": "enum MarketLib.MarketType",
          "name": "",
          "type": "uint8"
        }
      ],
      "stateMutability": "view",
      "type": "function"
    },
    {
      "inputs": [],
      "name": "_requiredIndustryWeight",
      "outputs": [
        {
          "internalType": "uint256",
          "name": "",
          "type": "uint256"
        }
      ],
      "stateMutability": "view",
      "type": "function"
    },
    {
      "inputs": [],
      "name": "_requiredReputation",
      "outputs": [
        {
          "internalType": "uint256",
          "name": "",
          "type": "uint256"
        }
      ],
      "stateMutability": "view",
      "type": "function"
    },
    {
      "inputs": [],
      "name": "owner",
      "outputs": [
        {
          "internalType": "address",
          "name": "",
          "type": "address"
        }
      ],
      "stateMutability": "view",
      "type": "function"
    },
    {
      "inputs": [],
      "name": "paused",
      "outputs": [
        {
          "internalType": "bool",
          "name": "",
          "type": "bool"
        }
      ],
      "stateMutability": "view",
      "type": "function"
    },
    {
      "inputs": [],
      "name": "renounceOwnership",
      "outputs": [],
      "stateMutability": "nonpayable",
      "type": "function"
    },
    {
      "inputs": [
        {
          "internalType": "address",
          "name": "newOwner",
          "type": "address"
        }
      ],
      "name": "transferOwnership",
      "outputs": [],
      "stateMutability": "nonpayable",
      "type": "function"
    },
    {
      "inputs": [
        {
          "internalType": "enum Evaluation.ContractType",
          "name": "_contractType",
          "type": "uint8"
        },
        {
          "internalType": "string",
          "name": "taskMetadataPointer",
          "type": "string"
        }
      ],
      "name": "createJob",
      "outputs": [],
      "stateMutability": "nonpayable",
      "type": "function"
    },
    {
      "inputs": [],
      "name": "getNumJobs",
      "outputs": [
        {
          "internalType": "uint256",
          "name": "",
          "type": "uint256"
        }
      ],
      "stateMutability": "view",
      "type": "function"
    },
    {
      "inputs": [],
      "name": "pauseMarket",
      "outputs": [],
      "stateMutability": "nonpayable",
      "type": "function"
    },
    {
      "inputs": [],
      "name": "resumeMarket",
      "outputs": [],
      "stateMutability": "nonpayable",
      "type": "function"
    },
    {
      "inputs": [],
      "name": "getMarketState",
      "outputs": [
        {
          "internalType": "bool",
          "name": "",
          "type": "bool"
        }
      ],
      "stateMutability": "view",
      "type": "function"
    },
    {
      "inputs": [],
      "name": "getWorkRelationships",
      "outputs": [
        {
          "internalType": "contract WorkRelationship[]",
          "name": "",
          "type": "address[]"
        }
      ],
      "stateMutability": "view",
      "type": "function"
    }
  ],
  "bytecode": "0x60806040523480156200001157600080fd5b506040516200318c3803806200318c8339810160408190526200003491620001a7565b6200003f336200009c565b600180546001600160a81b0319163360ff60a01b191617905581516200006d906002906020850190620000ec565b506003805482919060ff1916600183818111156200008f576200008f620002d5565b0217905550505062000301565b600080546001600160a01b038381166001600160a01b0319831681178455604051919092169283917f8be0079c531659141344cd1fd0a4f28419497f9722a3daafe3b4186f6b6457e09190a35050565b828054620000fa9062000298565b90600052602060002090601f0160209004810192826200011e576000855562000169565b82601f106200013957805160ff191683800117855562000169565b8280016001018555821562000169579182015b82811115620001695782518255916020019190600101906200014c565b50620001779291506200017b565b5090565b5b808211156200017757600081556001016200017c565b805160028110620001a257600080fd5b919050565b60008060408385031215620001bb57600080fd5b82516001600160401b0380821115620001d357600080fd5b818501915085601f830112620001e857600080fd5b815181811115620001fd57620001fd620002eb565b604051601f8201601f19908116603f01168101908382118183101715620002285762000228620002eb565b816040528281526020935088848487010111156200024557600080fd5b600091505b828210156200026957848201840151818301850152908301906200024a565b828211156200027b5760008484830101525b95506200028d91505085820162000192565b925050509250929050565b600181811c90821680620002ad57607f821691505b60208210811415620002cf57634e487b7160e01b600052602260045260246000fd5b50919050565b634e487b7160e01b600052602160045260246000fd5b634e487b7160e01b600052604160045260246000fd5b612e7b80620003116000396000f3fe60806040523480156200001157600080fd5b5060043610620001095760003560e01c80637e0c00ed11620000a3578063a03738dc116200006e578063a03738dc14620001f9578063c143521f1462000203578063d8165743146200020d578063f2fde38b146200022057600080fd5b80637e0c00ed14620001bc578063838069f714620001c55780638da5cb5b14620001d35780639319106b14620001ef57600080fd5b80635c975abb11620000e45780635c975abb146200015d5780636039c8d7146200017c578063715018a614620001955780637cf63de9146200019f57600080fd5b8063036202a7146200010e5780630f091637146200012757806336e114fc1462000144575b600080fd5b620001256200011f366004620007e9565b62000237565b005b6200013160045481565b6040519081526020015b60405180910390f35b6200014e62000307565b6040516200013b91906200094a565b600154600160a01b900460ff165b60405190151581526020016200013b565b620001866200036b565b6040516200013b9190620009ae565b6200012562000401565b600354620001ad9060ff1681565b6040516200013b919062000999565b60075462000131565b600654620001ad9060ff1681565b6000546040516001600160a01b0390911681526020016200013b565b6200012562000445565b62000125620004eb565b6200013160055481565b600154600160a01b900460ff166200016b565b6200012562000231366004620007b7565b6200058d565b33806200024357600080fd5b60008184846040516200025690620007a9565b62000264939291906200090c565b604051809103906000f08015801562000281573d6000803e3d6000fd5b506007805460018101825560009182527fa66cc928b5edb82af9bd49922954155ab7b0942694bea4ce44661d9a8736c6880180546001600160a01b0319166001600160a01b0384811691821790925560405193945030939092918616917f43af47c504a2f23934b1a816cd86633559721bf26c3656844bdde3edd4719e1391a450505050565b606060078054806020026020016040519081016040528092919081815260200182805480156200036157602002820191906000526020600020905b81546001600160a01b0316815260019091019060200180831162000342575b5050505050905090565b600280546200037a90620009f8565b80601f0160208091040260200160405190810160405280929190818152602001828054620003a890620009f8565b8015620003f95780601f10620003cd57610100808354040283529160200191620003f9565b820191906000526020600020905b815481529060010190602001808311620003db57829003601f168201915b505050505081565b6000546001600160a01b03163314620004375760405162461bcd60e51b81526004016200042e90620009c3565b60405180910390fd5b6200044360006200062f565b565b6000546001600160a01b03163314620004725760405162461bcd60e51b81526004016200042e90620009c3565b60015433906001600160a01b031681146200048c57600080fd5b60035460ff166000816001811115620004a957620004a962000a35565b14620004b457600080fd5b60065460ff166000816001811115620004d157620004d162000a35565b14620004dc57600080fd5b620004e66200067f565b505050565b6000546001600160a01b03163314620005185760405162461bcd60e51b81526004016200042e90620009c3565b60015433906001600160a01b031681146200053257600080fd5b60035460ff1660008160018111156200054f576200054f62000a35565b146200055a57600080fd5b60065460ff16600181600181111562000577576200057762000a35565b14156200058357600080fd5b620004e66200071e565b6000546001600160a01b03163314620005ba5760405162461bcd60e51b81526004016200042e90620009c3565b6001600160a01b038116620006215760405162461bcd60e51b815260206004820152602660248201527f4f776e61626c653a206e6577206f776e657220697320746865207a65726f206160448201526564647265737360d01b60648201526084016200042e565b6200062c816200062f565b50565b600080546001600160a01b038381166001600160a01b0319831681178455604051919092169283917f8be0079c531659141344cd1fd0a4f28419497f9722a3daafe3b4186f6b6457e09190a35050565b600154600160a01b900460ff16620006d15760405162461bcd60e51b815260206004820152601460248201527314185d5cd8589b194e881b9bdd081c185d5cd95960621b60448201526064016200042e565b6001805460ff60a01b191690557f5db9ee0a495bf2e6ff9c91a7834c1ba4fdd244a5e8aa4e537bd38aeae4b073aa335b6040516001600160a01b03909116815260200160405180910390a1565b600154600160a01b900460ff16156200076d5760405162461bcd60e51b815260206004820152601060248201526f14185d5cd8589b194e881c185d5cd95960821b60448201526064016200042e565b6001805460ff60a01b1916600160a01b1790557f62e78cea01bee320cd4e420270b5ea74000d11b0c9f74754ebdbfc544b05a258620007013390565b6123c58062000a8183390190565b600060208284031215620007ca57600080fd5b81356001600160a01b0381168114620007e257600080fd5b9392505050565b60008060408385031215620007fd57600080fd5b8235600281106200080d57600080fd5b9150602083013567ffffffffffffffff808211156200082b57600080fd5b818501915085601f8301126200084057600080fd5b81358181111562000855576200085562000a4b565b604051601f8201601f19908116603f0116810190838211818310171562000880576200088062000a4b565b816040528281528860208487010111156200089a57600080fd5b8260208601602083013760006020848301015280955050505050509250929050565b6000815180845260005b81811015620008e457602081850181015186830182015201620008c6565b81811115620008f7576000602083870101525b50601f01601f19169290920160200192915050565b6001600160a01b0384168152620009238362000a61565b826020820152606060408201526000620009416060830184620008bc565b95945050505050565b6020808252825182820181905260009190848201906040850190845b818110156200098d5783516001600160a01b03168352928401929184019160010162000966565b50909695505050505050565b60208101620009a88362000a61565b91905290565b602081526000620007e26020830184620008bc565b6020808252818101527f4f776e61626c653a2063616c6c6572206973206e6f7420746865206f776e6572604082015260600190565b600181811c9082168062000a0d57607f821691505b6020821081141562000a2f57634e487b7160e01b600052602260045260246000fd5b50919050565b634e487b7160e01b600052602160045260246000fd5b634e487b7160e01b600052604160045260246000fd5b600281106200062c57634e487b7160e01b600052602160045260246000fdfe60a06040819052600060808190526200001b91600291620000ee565b506040805160208101918290526000908190526200003c91600391620000ee565b503480156200004a57600080fd5b50604051620023c5380380620023c58339810160408190526200006d9162000194565b600180546001600160a01b0385166001600160a01b031991821617825560008054909116905560048054849260ff60a81b1990911690600160a81b908490811115620000bd57620000bd620002e9565b02179055506004805460ff60a01b191690558051620000e4906002906020840190620000ee565b5050505062000315565b828054620000fc90620002ac565b90600052602060002090601f0160209004810192826200012057600085556200016b565b82601f106200013b57805160ff19168380011785556200016b565b828001600101855582156200016b579182015b828111156200016b5782518255916020019190600101906200014e565b50620001799291506200017d565b5090565b5b808211156200017957600081556001016200017e565b600080600060608486031215620001aa57600080fd5b83516001600160a01b0381168114620001c257600080fd5b8093505060208085015160028110620001da57600080fd5b60408601519093506001600160401b0380821115620001f857600080fd5b818701915087601f8301126200020d57600080fd5b815181811115620002225762000222620002ff565b604051601f8201601f19908116603f011681019083821181831017156200024d576200024d620002ff565b816040528281528a868487010111156200026657600080fd5b600093505b828410156200028a57848401860151818501870152928501926200026b565b828411156200029c5760008684830101525b8096505050505050509250925092565b600181811c90821680620002c157607f821691505b60208210811415620002e357634e487b7160e01b600052602260045260246000fd5b50919050565b634e487b7160e01b600052602160045260246000fd5b634e487b7160e01b600052604160045260246000fd5b6120a080620003256000396000f3fe60806040523480156200001157600080fd5b5060043610620001095760003560e01c8063a924b62911620000a3578063df502c6b116200006e578063df502c6b146200022a578063e6e885931462000234578063ec3a47901462000258578063f74cc701146200026f57600080fd5b8063a924b62914620001db578063b4fedc1114620001f2578063cb2ef6f714620001fc578063d8a845cf146200022057600080fd5b80635cdcf07511620000e45780635cdcf075146200016c5780635db28c66146200018357806396d6d696146200019c5780639aed0c1714620001c457600080fd5b80632a705703146200010e57806335e9281914620001245780634d547ada146200013b575b600080fd5b620001226200011f36600462000ef6565b50565b005b620001226200013536600462000ebd565b62000286565b6000546200014f906001600160a01b031681565b6040516001600160a01b0390911681526020015b60405180910390f35b620001226200017d36600462000d06565b62000305565b6200018d6200036b565b60405162000163919062000f94565b620001b3620001ad36600462000d74565b62000433565b604051901515815260200162000163565b62000122620001d536600462000e94565b620004c2565b62000122620001ec36600462000d2d565b6200056b565b62000122620008b1565b6004546200021190600160a81b900460ff1681565b60405162000163919062000f60565b6200012262000975565b6200018d62000a52565b6004546200024990600160a01b900460ff1681565b60405162000163919062000f7d565b620001226200026936600462000ebd565b62000ae8565b620001226200028036600462000e4b565b62000b2e565b6000546001600160a01b03163314620002bc5760405162461bcd60e51b8152600401620002b39062000ff2565b60405180910390fd5b600580600454600160a01b900460ff166005811115620002e057620002e0620010cd565b14620002eb57600080fd5b81516200030090600390602085019062000ba6565b505050565b60048054604051632ed9c42160e11b81526001600160a01b0384811693820193909352911690635db3884290602401600060405180830381600087803b1580156200034f57600080fd5b505af115801562000364573d6000803e3d6000fd5b5050505050565b6001546060906001600160a01b031633146200039b5760405162461bcd60e51b8152600401620002b39062000fa9565b60038054620003aa906200107a565b80601f0160208091040260200160405190810160405280929190818152602001828054620003d8906200107a565b8015620004295780601f10620003fd5761010080835404028352916020019162000429565b820191906000526020600020905b8154815290600101906020018083116200040b57829003601f168201915b5050505050905090565b600080836001600160a01b0316635d5f221f846040518263ffffffff1660e01b81526004016200046491906200103c565b602060405180830381600087803b1580156200047f57600080fd5b505af115801562000494573d6000803e3d6000fd5b505050506040513d601f19601f82011682018060405250810190620004ba919062000e2b565b949350505050565b6000546001600160a01b03163314620004ef5760405162461bcd60e51b8152600401620002b39062000ff2565b600480546040516353318a8760e01b815291820186905260ff8516602483015260448201849052606482018390526001600160a01b0316906353318a87906084015b600060405180830381600087803b1580156200054c57600080fd5b505af115801562000561573d6000803e3d6000fd5b5050505050505050565b6001600454600160a81b900460ff1660018111156200058e576200058e620010cd565b1415620006ea57600080600454600160a01b900460ff166005811115620005b957620005b9620010cd565b14620005c457600080fd5b6001600160a01b038416620005d857600080fd5b600080546001600160a01b0319166001600160a01b03868116919091179091556001546040518692919091169085908590620006149062000c35565b6001600160a01b039485168152928416602084015260408301919091529091166060820152608001604051809103906000f08015801562000659573d6000803e3d6000fd5b5060048054600560a01b6001600160a81b03199091166001600160a01b0393841617179081905516620006905762000690620010b7565b6000546001600160a01b03858116911614620006b057620006b0620010b7565b6005600454600160a01b900460ff166005811115620006d357620006d3620010cd565b14620006e357620006e3620010b7565b506200075d565b6001546001600160a01b031633146200075d5760405162461bcd60e51b815260206004820152602e60248201527f43616c6c6572206973206e6f74206f776e657220616e6420636f6e747261637460448201526d1034b9903737ba10333630b9b41760911b6064820152608401620002b3565b600080600454600160a01b900460ff166005811115620007815762000781620010cd565b146200078c57600080fd5b6001600160a01b038416620007a057600080fd5b600080546001600160a01b0319166001600160a01b03868116919091179091556001546040518692919091169085908590620007dc9062000c35565b6001600160a01b039485168152928416602084015260408301919091529091166060820152608001604051809103906000f08015801562000821573d6000803e3d6000fd5b5060048054600560a01b6001600160a81b03199091166001600160a01b0393841617179081905516620008585762000858620010b7565b6000546001600160a01b03858116911614620008785762000878620010b7565b6005600454600160a01b900460ff1660058111156200089b576200089b620010cd565b14620008ab57620008ab620010b7565b50505050565b6001546001600160a01b03163314620008de5760405162461bcd60e51b8152600401620002b39062000fa9565b6003600454600160a01b900460ff166005811115620009015762000901620010cd565b1415620009605760405162461bcd60e51b815260206004820152602660248201527f546869732072656c6174696f6e7368697020697320616c726561647920636f6d6044820152651c1b195d195960d21b6064820152608401620002b3565b6004805460ff60a01b1916600360a01b179055565b6000546001600160a01b03163314620009a25760405162461bcd60e51b8152600401620002b39062000ff2565b6003600454600160a01b900460ff166005811115620009c557620009c5620010cd565b1415620009d157600080fd5b6003600454600160a01b900460ff166005811115620009f457620009f4620010cd565b141562000a0057600080fd5b600080546001600160a01b03191690556004805460ff60a01b191690556000600454600160a01b900460ff16600581111562000a405762000a40620010cd565b1462000a505762000a50620010b7565b565b6002805462000a61906200107a565b80601f016020809104026020016040519081016040528092919081815260200182805462000a8f906200107a565b801562000ae05780601f1062000ab45761010080835404028352916020019162000ae0565b820191906000526020600020905b81548152906001019060200180831162000ac257829003601f168201915b505050505081565b6001546001600160a01b0316331462000b155760405162461bcd60e51b8152600401620002b39062000fa9565b805162000b2a90600290602084019062000ba6565b5050565b6001546001600160a01b0316331462000b5b5760405162461bcd60e51b8152600401620002b39062000fa9565b600480546040516325b0db0f60e01b81528615159281019290925260ff8516602483015260448201849052606482018390526001600160a01b0316906325b0db0f9060840162000531565b82805462000bb4906200107a565b90600052602060002090601f01602090048101928262000bd8576000855562000c23565b82601f1062000bf357805160ff191683800117855562000c23565b8280016001018555821562000c23579182015b8281111562000c2357825182559160200191906001019062000c06565b5062000c3192915062000c43565b5090565b610f4c806200111f83390190565b5b8082111562000c31576000815560010162000c44565b600082601f83011262000c6c57600080fd5b813567ffffffffffffffff8082111562000c8a5762000c8a620010e3565b604051601f8301601f19908116603f0116810190828211818310171562000cb55762000cb5620010e3565b8160405283815286602085880101111562000ccf57600080fd5b836020870160208301376000602085830101528094505050505092915050565b803560ff8116811462000d0157600080fd5b919050565b60006020828403121562000d1957600080fd5b813562000d2681620010f9565b9392505050565b60008060006060848603121562000d4357600080fd5b833562000d5081620010f9565b925060208401359150604084013562000d6981620010f9565b809150509250925092565b6000806040838503121562000d8857600080fd5b823562000d9581620010f9565b9150602083013567ffffffffffffffff8082111562000db357600080fd5b908401906060828703121562000dc857600080fd5b60405160608101818110838211171562000de65762000de6620010e3565b60405282358281111562000df957600080fd5b62000e078882860162000c5a565b82525060208301356020820152604083013560408201528093505050509250929050565b60006020828403121562000e3e57600080fd5b815162000d26816200110f565b6000806000806080858703121562000e6257600080fd5b843562000e6f816200110f565b935062000e7f6020860162000cef565b93969395505050506040820135916060013590565b6000806000806080858703121562000eab57600080fd5b8435935062000e7f6020860162000cef565b60006020828403121562000ed057600080fd5b813567ffffffffffffffff81111562000ee857600080fd5b620004ba8482850162000c5a565b60006020828403121562000f0957600080fd5b5035919050565b6000815180845260005b8181101562000f385760208185018101518683018201520162000f1a565b8181111562000f4b576000602083870101525b50601f01601f19169290920160200192915050565b602081016002831062000f775762000f77620010cd565b91905290565b602081016006831062000f775762000f77620010cd565b60208152600062000d26602083018462000f10565b60208082526029908201527f576f726b52656c6174696f6e736869703a2063616c6c6572206973206e6f74206040820152683a34329037bbb732b960b91b606082015260800190565b6020808252602a908201527f576f726b52656c6174696f6e736869703a2063616c6c6572206973206e6f74206040820152693a3432903bb7b935b2b960b11b606082015260800190565b6020815260008251606060208401526200105a608084018262000f10565b905060208401516040840152604084015160608401528091505092915050565b600181811c908216806200108f57607f821691505b60208210811415620010b157634e487b7160e01b600052602260045260246000fd5b50919050565b634e487b7160e01b600052600160045260246000fd5b634e487b7160e01b600052602160045260246000fd5b634e487b7160e01b600052604160045260246000fd5b6001600160a01b03811681146200011f57600080fd5b80151581146200011f57600080fdfe61010060405234801561001157600080fd5b50604051610f4c380380610f4c8339810160408190526100309161021f565b838383836001600160a01b03831661007f5760405162461bcd60e51b815260206004820152600d60248201526c34b73b30b634b21037bbb732b960991b60448201526064015b60405180910390fd5b6001600160a01b0381166100d55760405162461bcd60e51b815260206004820152601960248201527f696e76616c69642064616920746f6b656e2061646472657373000000000000006044820152606401610076565b6040805180820182526006815265657363726f7760d01b6020918201528151808301835260018152603160f81b9082015281517f8b73c3c69bb8fe3d512ecc4cf759cc79239f7b179b0ffacaa9a75d522b39400f918101919091527f5c24c10d65ac9aa9e0f7f63d96fe83c89107fae52b4ef778334c906c1ec5c1ed918101919091527fc89efdaa54c0f20c7adf612882df0950f5a951637e0307cdcb4c672f298b8bc660608201524660ff811660808301523060a08301529060c00160408051808303601f1901815291905280516020909101206080525060e091909152606091821b6001600160601b031990811660c0529290911b90911660a052600080546001600160a81b0319166101006001600160a01b0393909316929092029190911790555061026c92505050565b80516001600160a01b038116811461021a57600080fd5b919050565b6000806000806080858703121561023557600080fd5b61023e85610203565b935061024c60208601610203565b92506040850151915061026160608601610203565b905092959194509250565b60805160a05160601c60c05160601c60e051610c5b6102f1600039600081816101bc0152610750015260008181610231015281816103b4015281816106aa0152818161072801526107d5015260008181610122015281816104250152818161052c01526105bd01526000818161020a0152818161030801526104de0152610c5b6000f3fe608060405234801561001057600080fd5b50600436106100cf5760003560e01c80635db388421161008c578063bfce14ea11610066578063bfce14ea14610205578063c7c4ff461461022c578063cefd6c2114610253578063ea8a1af01461026657600080fd5b80635db38842146101a45780637df38c5b146101b757806396118e44146101de57600080fd5b806301162b93146100d4578063200d2ed2146100e757806325b0db0f1461010a57806338af3eed1461011d5780633c86f6f31461015c57806353318a8714610191575b600080fd5b6100e56100e2366004610a23565b50565b005b6000546100f49060ff1681565b6040516101019190610b91565b60405180910390f35b6100e5610118366004610a53565b61026e565b6101447f000000000000000000000000000000000000000000000000000000000000000081565b6040516001600160a01b039091168152602001610101565b6101837ffa5e0016fb62b8dffda8fd95249d438edcffd3689b40ac3b4281d4cf710609ae81565b604051908152602001610101565b6100e561019f366004610a9c565b610451565b6100e56101b2366004610a23565b6100e2565b6101837f000000000000000000000000000000000000000000000000000000000000000081565b6101837f62b607caa4d4e7fcbd31bf4c033cd30888b536567fadc83710fdf15f8d5cfc9e81565b6101837f000000000000000000000000000000000000000000000000000000000000000081565b6101447f000000000000000000000000000000000000000000000000000000000000000081565b6100e5610261366004610adb565b610638565b6100e5610866565b60028060005460ff16600481111561028857610288610c0f565b146102ae5760405162461bcd60e51b81526004016102a590610bb9565b60405180910390fd5b604080517ffa5e0016fb62b8dffda8fd95249d438edcffd3689b40ac3b4281d4cf710609ae6020808301919091528715158284015282518083038401815260608301909352825192019190912061190160f01b60808301527f0000000000000000000000000000000000000000000000000000000000000000608283015260a282015260009060c20160408051601f1981840301815282825280516020918201206000845290830180835281905260ff8816918301919091526060820186905260808201859052915060019060a0016020604051602081039080840390855afa15801561039f573d6000803e3d6000fd5b505050602060405103516001600160a01b03167f00000000000000000000000000000000000000000000000000000000000000006001600160a01b03161461041a5760405162461bcd60e51b815260206004820152600e60248201526d1a5b9d985b1a590b5c195c9b5a5d60921b60448201526064016102a5565b8515610449576104497f00000000000000000000000000000000000000000000000000000000000000006108dd565b505050505050565b60018060005460ff16600481111561046b5761046b610c0f565b146104885760405162461bcd60e51b81526004016102a590610bb9565b604080517f62b607caa4d4e7fcbd31bf4c033cd30888b536567fadc83710fdf15f8d5cfc9e60208083019190915281830188905282518083038401815260608301845280519082012061190160f01b60808401527f0000000000000000000000000000000000000000000000000000000000000000608284015260a2808401919091528351808403909101815260c290920190925280519101206001600160a01b037f00000000000000000000000000000000000000000000000000000000000000001661055557600080fd5b60408051600081526020810180835283905260ff871691810191909152606081018590526080810184905260019060a0016020604051602081039080840390855afa1580156105a8573d6000803e3d6000fd5b505050602060405103516001600160a01b03167f00000000000000000000000000000000000000000000000000000000000000006001600160a01b0316146106235760405162461bcd60e51b815260206004820152600e60248201526d1a5b9d985b1a590b5c195c9b5a5d60921b60448201526064016102a5565b50506000805460ff1916600217905550505050565b60008060005460ff16600481111561065257610652610c0f565b1461066f5760405162461bcd60e51b81526004016102a590610bb9565b60008054600160ff199091168117918290556040516323f2ebc360e21b81526101009092046001600160a01b031691638fcbaf0c916106de917f00000000000000000000000000000000000000000000000000000000000000009130918f918f918f908f908f90600401610b48565b600060405180830381600087803b1580156106f857600080fd5b505af115801561070c573d6000803e3d6000fd5b505060005460405163f2d5d56b60e01b81526001600160a01b037f0000000000000000000000000000000000000000000000000000000000000000811660048301527f00000000000000000000000000000000000000000000000000000000000000006024830152610100909204909116925063f2d5d56b9150604401600060405180830381600087803b1580156107a357600080fd5b505af11580156107b7573d6000803e3d6000fd5b505060005461010090046001600160a01b03169150638fcbaf0c90507f0000000000000000000000000000000000000000000000000000000000000000306108008d6001610be9565b8c60008a8a8a6040518963ffffffff1660e01b8152600401610829989796959493929190610b48565b600060405180830381600087803b15801561084357600080fd5b505af1158015610857573d6000803e3d6000fd5b50505050505050505050505050565b6000805460ff16600481111561087e5761087e610c0f565b14806108a05750600360005460ff16600481111561089e5761089e610c0f565b145b6108db5760405162461bcd60e51b815260206004820152600c60248201526b77726f6e672073746174757360a01b60448201526064016102a5565b565b6001600160a01b0381166108f057600080fd5b6001600160a01b038116158015610913576000805460ff19166004179055610921565b6000805460ff191660031790555b80610a09576000546040516370a0823160e01b81523060048201526101009091046001600160a01b03169063b753a98c90849083906370a082319060240160206040518083038186803b15801561097757600080fd5b505afa15801561098b573d6000803e3d6000fd5b505050506040513d601f19601f820116820180604052508101906109af9190610ac2565b6040516001600160e01b031960e085901b1681526001600160a01b0390921660048301526024820152604401600060405180830381600087803b1580156109f557600080fd5b505af1158015610449573d6000803e3d6000fd5b5050565b803560ff81168114610a1e57600080fd5b919050565b600060208284031215610a3557600080fd5b81356001600160a01b0381168114610a4c57600080fd5b9392505050565b60008060008060808587031215610a6957600080fd5b84358015158114610a7957600080fd5b9350610a8760208601610a0d565b93969395505050506040820135916060013590565b60008060008060808587031215610ab257600080fd5b84359350610a8760208601610a0d565b600060208284031215610ad457600080fd5b5051919050565b600080600080600080600080610100898b031215610af857600080fd5b8835975060208901359650610b0f60408a01610a0d565b95506060890135945060808901359350610b2b60a08a01610a0d565b925060c0890135915060e089013590509295985092959890939650565b6001600160a01b039889168152969097166020870152604086019490945260608501929092521515608084015260ff1660a083015260c082015260e08101919091526101000190565b6020810160058310610bb357634e487b7160e01b600052602160045260246000fd5b91905290565b602080825260169082015275119b881b9bdd081c1c995cd95b9d1b1e481d985b1a5960521b604082015260600190565b60008219821115610c0a57634e487b7160e01b600052601160045260246000fd5b500190565b634e487b7160e01b600052602160045260246000fdfea26469706673582212200dfb7d4879f0c54293a2c77d28f59b47457f108afb2639ea88aa8009dbf01f6f64736f6c63430008070033a2646970667358221220565576616b112eaa2077d5cc0db20ded8539f33c3a9997be4d66ddca2c5141eb64736f6c63430008070033a2646970667358221220c5f78c9ff1efb4b64e10b0258eef37acfe1497d1c8d984e948e091a58dca585364736f6c63430008070033",
  "immutableReferences": {},
  "source": "// SPDX-License-Identifier: MIT\npragma solidity 0.8.7;\n\nimport \"../libraries/Evaluation.sol\";\nimport \"../exchange/WorkRelationship.sol\";\nimport \"../libraries/MarketLib.sol\";\nimport \"../control/Controllable.sol\";\nimport \"../../../node_modules/@openzeppelin/contracts/access/Ownable.sol\";\nimport \"../../../node_modules/@openzeppelin/contracts/security/Pausable.sol\";\n\ncontract Market is Ownable, Controllable, Pausable {\n    event MarketPaused(\n        address indexed marketAddress,\n        string indexed marketName\n    );\n    event MarketResumed(\n        address indexed marketAddress,\n        string indexed marketName\n    );\n    event WorkRelationshipCreated(\n        address indexed owner,\n        address indexed relationship,\n        address indexed marketAddress\n    );\n    event WorkRelationshipEnded(\n        address indexed owner,\n        address indexed relationship\n    );\n\n    string public _marketName;\n    MarketLib.MarketType public _marketType;\n    uint256 public _requiredReputation;\n    uint256 public _requiredIndustryWeight;\n    MarketLib.MarketStatus public _marketStatus;\n\n    WorkRelationship[] _createdJobs;\n\n    constructor(string memory marketName, MarketLib.MarketType marketType) {\n        _marketName = marketName;\n        _marketType = marketType;\n        // _requiredReputation = requiredReputation;\n        // _requiredIndustryWeight = requiredIndustryWeight;\n    }\n\n    /**\n     * Creates a user summary contract for each user based on their civic ID.\n     */\n    function createJob(Evaluation.ContractType _contractType, string memory taskMetadataPointer\n    ) external {\n        address owner = msg.sender;\n        require(owner!= address(0));\n        WorkRelationship createdJob =\n            new WorkRelationship(owner, _contractType, taskMetadataPointer);\n        _createdJobs.push(createdJob);\n        emit WorkRelationshipCreated(\n            owner,\n            address(createdJob),\n            address(this)\n        );\n    }\n\n    /**\n     *\n     */\n    function getNumJobs() public view returns (uint256) {\n        return _createdJobs.length;\n    }\n\n    function pauseMarket()\n        external\n        onlyOwner\n        onlyGlobalController(msg.sender)\n        onlyDefaultMarkets(_marketType)\n        onlyNotPausedState(_marketStatus)\n    {\n        _pause();\n    }\n\n    function resumeMarket()\n        external\n        onlyOwner\n        onlyGlobalController(msg.sender)\n        onlyDefaultMarkets(_marketType)\n        onlyPausedState(_marketStatus)\n    {\n        _unpause();\n    }\n\n    function getMarketState() public view returns (bool) {\n        return paused();\n    }\n\n    function getWorkRelationships() external view returns (WorkRelationship[] memory) {\n        return _createdJobs;\n    }\n\n    function destroyMarket() internal onlyOwner {\n        //selfdestruct();\n    }\n}\n",
  "sourcePath": "/Users/elijahhampton/git/opportunity-core/src/contracts/market/Market.sol",
  "compiler": {
    "name": "solc",
    "version": "0.8.7+commit.e28d00a7.Emscripten.clang"
  },
  "schemaVersion": "3.4.1",
  "updatedAt": "2021-08-30T00:38:08.511Z",
  "networkType": "ethereum",
  "devdoc": {
    "kind": "dev",
    "methods": {
      "owner()": {
        "details": "Returns the address of the current owner."
      },
      "paused()": {
        "details": "Returns true if the contract is paused, and false otherwise."
      },
      "renounceOwnership()": {
        "details": "Leaves the contract without owner. It will not be possible to call `onlyOwner` functions anymore. Can only be called by the current owner. NOTE: Renouncing ownership will leave the contract without an owner, thereby removing any functionality that is only available to the owner."
      },
      "transferOwnership(address)": {
        "details": "Transfers ownership of the contract to a new account (`newOwner`). Can only be called by the current owner."
      }
    },
    "version": 1
  },
  "userdoc": {
    "kind": "user",
    "methods": {
      "createJob(uint8,string)": {
        "notice": "Creates a user summary contract for each user based on their civic ID."
      }
    },
    "version": 1
  }
}