{
  "contractName": "MarketFactory",
  "abi": [
    {
      "anonymous": false,
      "inputs": [
        {
          "indexed": true,
          "internalType": "contract Market",
          "name": "_market",
          "type": "address"
        },
        {
          "indexed": true,
          "internalType": "uint256",
          "name": "index",
          "type": "uint256"
        },
        {
          "indexed": false,
          "internalType": "address",
          "name": "owner",
          "type": "address"
        },
        {
          "indexed": false,
          "internalType": "string",
          "name": "marketName",
          "type": "string"
        },
        {
          "indexed": false,
          "internalType": "enum MarketLib.MarketType",
          "name": "marketType",
          "type": "uint8"
        }
      ],
      "name": "MarketCreated",
      "type": "event"
    },
    {
      "anonymous": false,
      "inputs": [
        {
          "indexed": true,
          "internalType": "address",
          "name": "_marketAddress",
          "type": "address"
        }
      ],
      "name": "MarketDestroyed",
      "type": "event"
    },
    {
      "inputs": [
        {
          "internalType": "string",
          "name": "marketName",
          "type": "string"
        },
        {
          "internalType": "enum MarketLib.MarketType",
          "name": "marketType",
          "type": "uint8"
        }
      ],
      "name": "createMarket",
      "outputs": [],
      "stateMutability": "nonpayable",
      "type": "function"
    },
    {
      "inputs": [
        {
          "internalType": "uint32",
          "name": "index",
          "type": "uint32"
        }
      ],
      "name": "destroyMarket",
      "outputs": [],
      "stateMutability": "nonpayable",
      "type": "function"
    },
    {
      "inputs": [],
      "name": "getNumMarkets",
      "outputs": [
        {
          "internalType": "uint256",
          "name": "",
          "type": "uint256"
        }
      ],
      "stateMutability": "view",
      "type": "function",
      "constant": true
    }
  ],
  "bytecode": "0x608060405234801561001057600080fd5b506121a9806100206000396000f3fe60806040523480156200001157600080fd5b5060043610620000465760003560e01c8063295c39a5146200004b57806394542cd6146200006d578063c2ca748b146200008d575b600080fd5b62000055620000ad565b6040516200006491906200044b565b60405180910390f35b6200008b600480360381019062000085919062000333565b620000b9565b005b620000ab6004803603810190620000a59190620002d9565b6200012a565b005b60008080549050905090565b60008163ffffffff1681548110620000fa577f4e487b7100000000000000000000000000000000000000000000000000000000600052603260045260246000fd5b9060005260206000200160006101000a81549073ffffffffffffffffffffffffffffffffffffffff021916905550565b600082826040516200013c906200022b565b6200014992919062000417565b604051809103906000f08015801562000166573d6000803e3d6000fd5b5090506000819080600181540180825580915050600190039060005260206000200160009091909190916101000a81548173ffffffffffffffffffffffffffffffffffffffff021916908373ffffffffffffffffffffffffffffffffffffffff1602179055506000805490508173ffffffffffffffffffffffffffffffffffffffff167febedd027e6e07d96bc5efbcb1c07e95295efa7ed8cf4df58968ff7ef7f7983d53386866040516200021e93929190620003d3565b60405180910390a3505050565b611aed806200068783390190565b6000620002506200024a8462000491565b62000468565b9050828152602081018484840111156200026957600080fd5b620002768482856200055a565b509392505050565b6000813590506200028f816200065b565b92915050565b600082601f830112620002a757600080fd5b8135620002b984826020860162000239565b91505092915050565b600081359050620002d3816200066c565b92915050565b60008060408385031215620002ed57600080fd5b600083013567ffffffffffffffff8111156200030857600080fd5b620003168582860162000295565b925050602062000329858286016200027e565b9150509250929050565b6000602082840312156200034657600080fd5b60006200035684828501620002c2565b91505092915050565b6200036a81620004e3565b82525050565b6200037b8162000546565b82525050565b60006200038e82620004c7565b6200039a8185620004d2565b9350620003ac81856020860162000569565b620003b78162000633565b840191505092915050565b620003cd816200052c565b82525050565b6000606082019050620003ea60008301866200035f565b8181036020830152620003fe818562000381565b90506200040f604083018462000370565b949350505050565b6000604082019050818103600083015262000433818562000381565b905062000444602083018462000370565b9392505050565b6000602082019050620004626000830184620003c2565b92915050565b60006200047462000487565b90506200048282826200059f565b919050565b6000604051905090565b600067ffffffffffffffff821115620004af57620004ae62000604565b5b620004ba8262000633565b9050602081019050919050565b600081519050919050565b600082825260208201905092915050565b6000620004f0826200050c565b9050919050565b6000819050620005078262000644565b919050565b600073ffffffffffffffffffffffffffffffffffffffff82169050919050565b6000819050919050565b600063ffffffff82169050919050565b60006200055382620004f7565b9050919050565b82818337600083830152505050565b60005b83811015620005895780820151818401526020810190506200056c565b8381111562000599576000848401525b50505050565b620005aa8262000633565b810181811067ffffffffffffffff82111715620005cc57620005cb62000604565b5b80604052505050565b7f4e487b7100000000000000000000000000000000000000000000000000000000600052602160045260246000fd5b7f4e487b7100000000000000000000000000000000000000000000000000000000600052604160045260246000fd5b6000601f19601f8301169050919050565b60028110620006585762000657620005d5565b5b50565b600281106200066957600080fd5b50565b620006778162000536565b81146200068357600080fd5b5056fe60806040523480156200001157600080fd5b5060405162001aed38038062001aed8339818101604052810190620000379190620002f6565b600062000049620001b560201b60201c565b9050806000806101000a81548173ffffffffffffffffffffffffffffffffffffffff021916908373ffffffffffffffffffffffffffffffffffffffff1602179055508073ffffffffffffffffffffffffffffffffffffffff16600073ffffffffffffffffffffffffffffffffffffffff167f8be0079c531659141344cd1fd0a4f28419497f9722a3daafe3b4186f6b6457e060405160405180910390a35033600160006101000a81548173ffffffffffffffffffffffffffffffffffffffff021916908373ffffffffffffffffffffffffffffffffffffffff1602179055506000600160146101000a81548160ff02191690831515021790555081600290805190602001906200015b929190620001bd565b5080600360006101000a81548160ff02191690836001811115620001a8577f4e487b7100000000000000000000000000000000000000000000000000000000600052602160045260246000fd5b02179055505050620004d1565b600033905090565b828054620001cb90620003e5565b90600052602060002090601f016020900481019282620001ef57600085556200023b565b82601f106200020a57805160ff19168380011785556200023b565b828001600101855582156200023b579182015b828111156200023a5782518255916020019190600101906200021d565b5b5090506200024a91906200024e565b5090565b5b80821115620002695760008160009055506001016200024f565b5090565b6000620002846200027e8462000379565b62000350565b9050828152602081018484840111156200029d57600080fd5b620002aa848285620003af565b509392505050565b600081519050620002c381620004c0565b92915050565b600082601f830112620002db57600080fd5b8151620002ed8482602086016200026d565b91505092915050565b600080604083850312156200030a57600080fd5b600083015167ffffffffffffffff8111156200032557600080fd5b6200033385828601620002c9565b92505060206200034685828601620002b2565b9150509250929050565b60006200035c6200036f565b90506200036a82826200041b565b919050565b6000604051905090565b600067ffffffffffffffff82111562000397576200039662000480565b5b620003a282620004af565b9050602081019050919050565b60005b83811015620003cf578082015181840152602081019050620003b2565b83811115620003df576000848401525b50505050565b60006002820490506001821680620003fe57607f821691505b6020821081141562000415576200041462000451565b5b50919050565b6200042682620004af565b810181811067ffffffffffffffff8211171562000448576200044762000480565b5b80604052505050565b7f4e487b7100000000000000000000000000000000000000000000000000000000600052602260045260246000fd5b7f4e487b7100000000000000000000000000000000000000000000000000000000600052604160045260246000fd5b6000601f19601f8301169050919050565b60028110620004ce57600080fd5b50565b61160c80620004e16000396000f3fe608060405234801561001057600080fd5b50600436106100f55760003560e01c8063838069f711610097578063bb2c348411610066578063bb2c348414610206578063c143521f14610222578063d816574314610240578063f2fde38b1461025e576100f5565b8063838069f7146101b65780638da5cb5b146101d45780639319106b146101f2578063a03738dc146101fc576100f5565b80636039c8d7116100d35780636039c8d714610154578063715018a61461017257806379bda9371461017c5780637cf63de914610198576100f5565b80630f091637146100fa57806336e114fc146101185780635c975abb14610136575b600080fd5b61010261027a565b60405161010f919061123b565b60405180910390f35b610120610280565b60405161012d9190611126565b60405180910390f35b61013e61030e565b60405161014b9190611148565b60405180910390f35b61015c610325565b6040516101699190611199565b60405180910390f35b61017a6103b3565b005b61019660048036038101906101919190610e7b565b6104ed565b005b6101a0610620565b6040516101ad919061117e565b60405180910390f35b6101be610633565b6040516101cb9190611163565b60405180910390f35b6101dc610646565b6040516101e9919061110b565b60405180910390f35b6101fa61066f565b005b61020461086d565b005b610220600480360381019061021b9190610ea4565b610a6b565b005b61022a610b47565b604051610237919061123b565b60405180910390f35b610248610b4d565b6040516102559190611148565b60405180910390f35b61027860048036038101906102739190610e7b565b610b5c565b005b60045481565b6060600780548060200260200160405190810160405280929190818152602001828054801561030457602002820191906000526020600020905b8160009054906101000a900473ffffffffffffffffffffffffffffffffffffffff1673ffffffffffffffffffffffffffffffffffffffff16815260200190600101908083116102ba575b5050505050905090565b6000600160149054906101000a900460ff16905090565b60028054610332906113e6565b80601f016020809104026020016040519081016040528092919081815260200182805461035e906113e6565b80156103ab5780601f10610380576101008083540402835291602001916103ab565b820191906000526020600020905b81548152906001019060200180831161038e57829003601f168201915b505050505081565b6103bb610d05565b73ffffffffffffffffffffffffffffffffffffffff166103d9610646565b73ffffffffffffffffffffffffffffffffffffffff161461042f576040517f08c379a00000000000000000000000000000000000000000000000000000000081526004016104269061121b565b60405180910390fd5b600073ffffffffffffffffffffffffffffffffffffffff1660008054906101000a900473ffffffffffffffffffffffffffffffffffffffff1673ffffffffffffffffffffffffffffffffffffffff167f8be0079c531659141344cd1fd0a4f28419497f9722a3daafe3b4186f6b6457e060405160405180910390a360008060006101000a81548173ffffffffffffffffffffffffffffffffffffffff021916908373ffffffffffffffffffffffffffffffffffffffff160217905550565b600073ffffffffffffffffffffffffffffffffffffffff168173ffffffffffffffffffffffffffffffffffffffff16141561052757600080fd5b6000600160078054905061053b91906112cb565b90506007829080600181540180825580915050600190039060005260206000200160009091909190916101000a81548173ffffffffffffffffffffffffffffffffffffffff021916908373ffffffffffffffffffffffffffffffffffffffff1602179055508173ffffffffffffffffffffffffffffffffffffffff1660026040516105c691906110f4565b60405180910390203073ffffffffffffffffffffffffffffffffffffffff167f995ef0f2c501b2a2ca468ecea24670295c76824d1f4e27669e69318a4544b8fa84604051610614919061123b565b60405180910390a45050565b600360009054906101000a900460ff1681565b600660009054906101000a900460ff1681565b60008060009054906101000a900473ffffffffffffffffffffffffffffffffffffffff16905090565b610677610d05565b73ffffffffffffffffffffffffffffffffffffffff16610695610646565b73ffffffffffffffffffffffffffffffffffffffff16146106eb576040517f08c379a00000000000000000000000000000000000000000000000000000000081526004016106e29061121b565b60405180910390fd5b33600160009054906101000a900473ffffffffffffffffffffffffffffffffffffffff1673ffffffffffffffffffffffffffffffffffffffff168173ffffffffffffffffffffffffffffffffffffffff161461074657600080fd5b600360009054906101000a900460ff1660006001811115610790577f4e487b7100000000000000000000000000000000000000000000000000000000600052602160045260246000fd5b8160018111156107c9577f4e487b7100000000000000000000000000000000000000000000000000000000600052602160045260246000fd5b146107d357600080fd5b600660009054906101000a900460ff166000600181111561081d577f4e487b7100000000000000000000000000000000000000000000000000000000600052602160045260246000fd5b816001811115610856577f4e487b7100000000000000000000000000000000000000000000000000000000600052602160045260246000fd5b1461086057600080fd5b610868610d0d565b505050565b610875610d05565b73ffffffffffffffffffffffffffffffffffffffff16610893610646565b73ffffffffffffffffffffffffffffffffffffffff16146108e9576040517f08c379a00000000000000000000000000000000000000000000000000000000081526004016108e09061121b565b60405180910390fd5b33600160009054906101000a900473ffffffffffffffffffffffffffffffffffffffff1673ffffffffffffffffffffffffffffffffffffffff168173ffffffffffffffffffffffffffffffffffffffff161461094457600080fd5b600360009054906101000a900460ff166000600181111561098e577f4e487b7100000000000000000000000000000000000000000000000000000000600052602160045260246000fd5b8160018111156109c7577f4e487b7100000000000000000000000000000000000000000000000000000000600052602160045260246000fd5b146109d157600080fd5b600660009054906101000a900460ff16600180811115610a1a577f4e487b7100000000000000000000000000000000000000000000000000000000600052602160045260246000fd5b816001811115610a53577f4e487b7100000000000000000000000000000000000000000000000000000000600052602160045260246000fd5b1415610a5e57600080fd5b610a66610daf565b505050565b60078181548110610aa5577f4e487b7100000000000000000000000000000000000000000000000000000000600052603260045260246000fd5b9060005260206000200160006101000a81549073ffffffffffffffffffffffffffffffffffffffff02191690558173ffffffffffffffffffffffffffffffffffffffff166002604051610af891906110f4565b60405180910390203073ffffffffffffffffffffffffffffffffffffffff167f3a3eccfff146c0e9036261655797d1c38bbbd8083e812576116a6befa390038c60405160405180910390a45050565b60055481565b6000610b5761030e565b905090565b610b64610d05565b73ffffffffffffffffffffffffffffffffffffffff16610b82610646565b73ffffffffffffffffffffffffffffffffffffffff1614610bd8576040517f08c379a0000000000000000000000000000000000000000000000000000000008152600401610bcf9061121b565b60405180910390fd5b600073ffffffffffffffffffffffffffffffffffffffff168173ffffffffffffffffffffffffffffffffffffffff161415610c48576040517f08c379a0000000000000000000000000000000000000000000000000000000008152600401610c3f906111db565b60405180910390fd5b8073ffffffffffffffffffffffffffffffffffffffff1660008054906101000a900473ffffffffffffffffffffffffffffffffffffffff1673ffffffffffffffffffffffffffffffffffffffff167f8be0079c531659141344cd1fd0a4f28419497f9722a3daafe3b4186f6b6457e060405160405180910390a3806000806101000a81548173ffffffffffffffffffffffffffffffffffffffff021916908373ffffffffffffffffffffffffffffffffffffffff16021790555050565b600033905090565b610d1561030e565b610d54576040517f08c379a0000000000000000000000000000000000000000000000000000000008152600401610d4b906111bb565b60405180910390fd5b6000600160146101000a81548160ff0219169083151502179055507f5db9ee0a495bf2e6ff9c91a7834c1ba4fdd244a5e8aa4e537bd38aeae4b073aa610d98610d05565b604051610da5919061110b565b60405180910390a1565b610db761030e565b15610df7576040517f08c379a0000000000000000000000000000000000000000000000000000000008152600401610dee906111fb565b60405180910390fd5b60018060146101000a81548160ff0219169083151502179055507f62e78cea01bee320cd4e420270b5ea74000d11b0c9f74754ebdbfc544b05a258610e3a610d05565b604051610e47919061110b565b60405180910390a1565b600081359050610e60816115a8565b92915050565b600081359050610e75816115bf565b92915050565b600060208284031215610e8d57600080fd5b6000610e9b84828501610e51565b91505092915050565b60008060408385031215610eb757600080fd5b6000610ec585828601610e51565b9250506020610ed685828601610e66565b9150509250929050565b6000610eec8383610ef8565b60208301905092915050565b610f0181611321565b82525050565b610f1081611321565b82525050565b6000610f218261127b565b610f2b818561129e565b9350610f3683611256565b8060005b83811015610f67578151610f4e8882610ee0565b9750610f5983611291565b925050600181019050610f3a565b5085935050505092915050565b610f7d81611333565b82525050565b610f8c8161138f565b82525050565b610f9b816113a1565b82525050565b6000610fac82611286565b610fb681856112af565b9350610fc68185602086016113b3565b610fcf816114a5565b840191505092915050565b60008154610fe7816113e6565b610ff181866112c0565b9450600182166000811461100c576001811461101d57611050565b60ff19831686528186019350611050565b61102685611266565b60005b8381101561104857815481890152600182019150602081019050611029565b838801955050505b50505092915050565b60006110666014836112af565b9150611071826114b6565b602082019050919050565b60006110896026836112af565b9150611094826114df565b604082019050919050565b60006110ac6010836112af565b91506110b78261152e565b602082019050919050565b60006110cf6020836112af565b91506110da82611557565b602082019050919050565b6110ee81611385565b82525050565b60006111008284610fda565b915081905092915050565b60006020820190506111206000830184610f07565b92915050565b600060208201905081810360008301526111408184610f16565b905092915050565b600060208201905061115d6000830184610f74565b92915050565b60006020820190506111786000830184610f83565b92915050565b60006020820190506111936000830184610f92565b92915050565b600060208201905081810360008301526111b38184610fa1565b905092915050565b600060208201905081810360008301526111d481611059565b9050919050565b600060208201905081810360008301526111f48161107c565b9050919050565b600060208201905081810360008301526112148161109f565b9050919050565b60006020820190508181036000830152611234816110c2565b9050919050565b600060208201905061125060008301846110e5565b92915050565b6000819050602082019050919050565b60008190508160005260206000209050919050565b600081519050919050565b600081519050919050565b6000602082019050919050565b600082825260208201905092915050565b600082825260208201905092915050565b600081905092915050565b60006112d682611385565b91506112e183611385565b9250827fffffffffffffffffffffffffffffffffffffffffffffffffffffffffffffffff0382111561131657611315611418565b5b828201905092915050565b600061132c82611365565b9050919050565b60008115159050919050565b600081905061134d82611580565b919050565b600081905061136082611594565b919050565b600073ffffffffffffffffffffffffffffffffffffffff82169050919050565b6000819050919050565b600061139a8261133f565b9050919050565b60006113ac82611352565b9050919050565b60005b838110156113d15780820151818401526020810190506113b6565b838111156113e0576000848401525b50505050565b600060028204905060018216806113fe57607f821691505b6020821081141561141257611411611476565b5b50919050565b7f4e487b7100000000000000000000000000000000000000000000000000000000600052601160045260246000fd5b7f4e487b7100000000000000000000000000000000000000000000000000000000600052602160045260246000fd5b7f4e487b7100000000000000000000000000000000000000000000000000000000600052602260045260246000fd5b6000601f19601f8301169050919050565b7f5061757361626c653a206e6f7420706175736564000000000000000000000000600082015250565b7f4f776e61626c653a206e6577206f776e657220697320746865207a65726f206160008201527f6464726573730000000000000000000000000000000000000000000000000000602082015250565b7f5061757361626c653a2070617573656400000000000000000000000000000000600082015250565b7f4f776e61626c653a2063616c6c6572206973206e6f7420746865206f776e6572600082015250565b6002811061159157611590611447565b5b50565b600281106115a5576115a4611447565b5b50565b6115b181611321565b81146115bc57600080fd5b50565b6115c881611385565b81146115d357600080fd5b5056fea26469706673582212203944a9295501066fb5806e871cabb58297658939fa7b4036ea1090f201f8d27c64736f6c63430008040033a2646970667358221220779b642e94eea1b99c0e433aaf9bd42cc9079a39cf74db6d2ad54d78ae0bc34d64736f6c63430008040033",
  "immutableReferences": {},
  "source": "// SPDX-License-Identifier: MIT\n\npragma solidity 0.8.4;\n\nimport \"./Market.sol\";\nimport \"../libraries/MarketLib.sol\";\n\ncontract MarketFactory {\n    event MarketCreated(Market indexed _market, uint256 indexed index, address owner, string marketName, MarketLib.MarketType marketType);\n    event MarketDestroyed(address indexed _marketAddress);\n    Market[] private _createdMarkets;\n\n\n    /**\n     * Creates a user summary contract for each user based on their civic ID.\n     */\n     function createMarket(string memory marketName, MarketLib.MarketType marketType) external {\n        Market createdMarket = new Market(marketName, marketType);\n        _createdMarkets.push(createdMarket);\n        emit MarketCreated(createdMarket, _createdMarkets.length, msg.sender, marketName, marketType);\n    }\n\n    function destroyMarket(uint32 index) external {\n        delete _createdMarkets[index];\n    }\n\n    /**\n     *\n     */\n     function getNumMarkets() public view returns (uint256) {\n         return _createdMarkets.length;\n     }\n}\n",
  "sourcePath": "/Users/elijahhampton/Desktop/opportunity-core/src/contracts/market/MarketFactory.sol",
  "compiler": {
    "name": "solc",
    "version": "0.8.4+commit.c7e474f2.Emscripten.clang"
  },
  "schemaVersion": "3.4.1",
  "updatedAt": "2021-06-08T15:27:12.283Z",
  "networkType": "ethereum",
  "devdoc": {
    "kind": "dev",
    "methods": {},
    "version": 1
  },
  "userdoc": {
    "kind": "user",
    "methods": {
      "createMarket(string,uint8)": {
        "notice": "Creates a user summary contract for each user based on their civic ID."
      }
    },
    "version": 1
  }
}