{
  "contractName": "Market",
  "abi": [
    {
      "inputs": [
        {
          "internalType": "string",
          "name": "marketName",
          "type": "string"
        },
        {
          "internalType": "enum MarketLib.MarketType",
          "name": "marketType",
          "type": "uint8"
        }
      ],
      "stateMutability": "nonpayable",
      "type": "constructor"
    },
    {
      "anonymous": false,
      "inputs": [
        {
          "indexed": true,
          "internalType": "address",
          "name": "marketAddress",
          "type": "address"
        },
        {
          "indexed": true,
          "internalType": "string",
          "name": "marketName",
          "type": "string"
        }
      ],
      "name": "MarketPaused",
      "type": "event"
    },
    {
      "anonymous": false,
      "inputs": [
        {
          "indexed": true,
          "internalType": "address",
          "name": "marketAddress",
          "type": "address"
        },
        {
          "indexed": true,
          "internalType": "string",
          "name": "marketName",
          "type": "string"
        }
      ],
      "name": "MarketResumed",
      "type": "event"
    },
    {
      "anonymous": false,
      "inputs": [
        {
          "indexed": true,
          "internalType": "address",
          "name": "previousOwner",
          "type": "address"
        },
        {
          "indexed": true,
          "internalType": "address",
          "name": "newOwner",
          "type": "address"
        }
      ],
      "name": "OwnershipTransferred",
      "type": "event"
    },
    {
      "anonymous": false,
      "inputs": [
        {
          "indexed": false,
          "internalType": "address",
          "name": "account",
          "type": "address"
        }
      ],
      "name": "Paused",
      "type": "event"
    },
    {
      "anonymous": false,
      "inputs": [
        {
          "indexed": false,
          "internalType": "address",
          "name": "account",
          "type": "address"
        }
      ],
      "name": "Unpaused",
      "type": "event"
    },
    {
      "anonymous": false,
      "inputs": [
        {
          "indexed": true,
          "internalType": "address",
          "name": "owner",
          "type": "address"
        },
        {
          "indexed": true,
          "internalType": "address",
          "name": "relationship",
          "type": "address"
        },
        {
          "indexed": true,
          "internalType": "address",
          "name": "marketAddress",
          "type": "address"
        }
      ],
      "name": "WorkRelationshipCreated",
      "type": "event"
    },
    {
      "anonymous": false,
      "inputs": [
        {
          "indexed": true,
          "internalType": "address",
          "name": "owner",
          "type": "address"
        },
        {
          "indexed": true,
          "internalType": "address",
          "name": "relationship",
          "type": "address"
        }
      ],
      "name": "WorkRelationshipEnded",
      "type": "event"
    },
    {
      "inputs": [],
      "name": "_marketName",
      "outputs": [
        {
          "internalType": "string",
          "name": "",
          "type": "string"
        }
      ],
      "stateMutability": "view",
      "type": "function"
    },
    {
      "inputs": [],
      "name": "_marketStatus",
      "outputs": [
        {
          "internalType": "enum MarketLib.MarketStatus",
          "name": "",
          "type": "uint8"
        }
      ],
      "stateMutability": "view",
      "type": "function"
    },
    {
      "inputs": [],
      "name": "_marketType",
      "outputs": [
        {
          "internalType": "enum MarketLib.MarketType",
          "name": "",
          "type": "uint8"
        }
      ],
      "stateMutability": "view",
      "type": "function"
    },
    {
      "inputs": [],
      "name": "_requiredIndustryWeight",
      "outputs": [
        {
          "internalType": "uint256",
          "name": "",
          "type": "uint256"
        }
      ],
      "stateMutability": "view",
      "type": "function"
    },
    {
      "inputs": [],
      "name": "_requiredReputation",
      "outputs": [
        {
          "internalType": "uint256",
          "name": "",
          "type": "uint256"
        }
      ],
      "stateMutability": "view",
      "type": "function"
    },
    {
      "inputs": [],
      "name": "owner",
      "outputs": [
        {
          "internalType": "address",
          "name": "",
          "type": "address"
        }
      ],
      "stateMutability": "view",
      "type": "function"
    },
    {
      "inputs": [],
      "name": "paused",
      "outputs": [
        {
          "internalType": "bool",
          "name": "",
          "type": "bool"
        }
      ],
      "stateMutability": "view",
      "type": "function"
    },
    {
      "inputs": [],
      "name": "renounceOwnership",
      "outputs": [],
      "stateMutability": "nonpayable",
      "type": "function"
    },
    {
      "inputs": [
        {
          "internalType": "address",
          "name": "newOwner",
          "type": "address"
        }
      ],
      "name": "transferOwnership",
      "outputs": [],
      "stateMutability": "nonpayable",
      "type": "function"
    },
    {
      "inputs": [
        {
          "internalType": "address",
          "name": "taskOwner",
          "type": "address"
        },
        {
          "internalType": "enum Evaluation.ContractType",
          "name": "_contractType",
          "type": "uint8"
        },
        {
          "internalType": "string",
          "name": "taskMetadataPointer",
          "type": "string"
        },
        {
          "internalType": "uint256",
          "name": "_wad",
          "type": "uint256"
        },
        {
          "internalType": "address",
          "name": "_daiTokenAddress",
          "type": "address"
        }
      ],
      "name": "createJob",
      "outputs": [],
      "stateMutability": "nonpayable",
      "type": "function"
    },
    {
      "inputs": [],
      "name": "getNumJobs",
      "outputs": [
        {
          "internalType": "uint256",
          "name": "",
          "type": "uint256"
        }
      ],
      "stateMutability": "view",
      "type": "function"
    },
    {
      "inputs": [],
      "name": "pauseMarket",
      "outputs": [],
      "stateMutability": "nonpayable",
      "type": "function"
    },
    {
      "inputs": [],
      "name": "resumeMarket",
      "outputs": [],
      "stateMutability": "nonpayable",
      "type": "function"
    },
    {
      "inputs": [],
      "name": "getMarketState",
      "outputs": [
        {
          "internalType": "bool",
          "name": "",
          "type": "bool"
        }
      ],
      "stateMutability": "view",
      "type": "function"
    },
    {
      "inputs": [],
      "name": "getWorkRelationships",
      "outputs": [
        {
          "internalType": "contract WorkRelationship[]",
          "name": "",
          "type": "address[]"
        }
      ],
      "stateMutability": "view",
      "type": "function"
    }
  ],
  "bytecode": "0x60806040523480156200001157600080fd5b506040516200336d3803806200336d8339810160408190526200003491620001a7565b6200003f336200009c565b600180546001600160a81b0319163360ff60a01b191617905581516200006d906002906020850190620000ec565b506003805482919060ff1916600183818111156200008f576200008f620002d5565b0217905550505062000301565b600080546001600160a01b038381166001600160a01b0319831681178455604051919092169283917f8be0079c531659141344cd1fd0a4f28419497f9722a3daafe3b4186f6b6457e09190a35050565b828054620000fa9062000298565b90600052602060002090601f0160209004810192826200011e576000855562000169565b82601f106200013957805160ff191683800117855562000169565b8280016001018555821562000169579182015b82811115620001695782518255916020019190600101906200014c565b50620001779291506200017b565b5090565b5b808211156200017757600081556001016200017c565b805160028110620001a257600080fd5b919050565b60008060408385031215620001bb57600080fd5b82516001600160401b0380821115620001d357600080fd5b818501915085601f830112620001e857600080fd5b815181811115620001fd57620001fd620002eb565b604051601f8201601f19908116603f01168101908382118183101715620002285762000228620002eb565b816040528281526020935088848487010111156200024557600080fd5b600091505b828210156200026957848201840151818301850152908301906200024a565b828211156200027b5760008484830101525b95506200028d91505085820162000192565b925050509250929050565b600181811c90821680620002ad57607f821691505b60208210811415620002cf57634e487b7160e01b600052602260045260246000fd5b50919050565b634e487b7160e01b600052602160045260246000fd5b634e487b7160e01b600052604160045260246000fd5b61305c80620003116000396000f3fe60806040523480156200001157600080fd5b5060043610620001095760003560e01c8063838069f711620000a3578063a4f8ddee116200006e578063a4f8ddee14620001ec578063c143521f1462000203578063d8165743146200020d578063f2fde38b146200022057600080fd5b8063838069f714620001ae5780638da5cb5b14620001bc5780639319106b14620001d8578063a03738dc14620001e257600080fd5b80636039c8d711620000e45780636039c8d71462000163578063715018a6146200017c5780637cf63de914620001885780637e0c00ed14620001a557600080fd5b80630f091637146200010e57806336e114fc146200012b5780635c975abb1462000144575b600080fd5b6200011860045481565b6040519081526020015b60405180910390f35b6200013562000237565b604051620001229190620009e6565b600154600160a01b900460ff165b604051901515815260200162000122565b6200016d6200029b565b60405162000122919062000a4a565b6200018662000331565b005b600354620001969060ff1681565b60405162000122919062000a35565b60075462000118565b600654620001969060ff1681565b6000546040516001600160a01b03909116815260200162000122565b6200018662000375565b620001866200041b565b62000186620001fd36600462000843565b620004bd565b6200011860055481565b600154600160a01b900460ff1662000152565b62000186620002313660046200081e565b620005d7565b606060078054806020026020016040519081016040528092919081815260200182805480156200029157602002820191906000526020600020905b81546001600160a01b0316815260019091019060200180831162000272575b5050505050905090565b60028054620002aa9062000a94565b80601f0160208091040260200160405190810160405280929190818152602001828054620002d89062000a94565b8015620003295780601f10620002fd5761010080835404028352916020019162000329565b820191906000526020600020905b8154815290600101906020018083116200030b57829003601f168201915b505050505081565b6000546001600160a01b03163314620003675760405162461bcd60e51b81526004016200035e9062000a5f565b60405180910390fd5b62000373600062000679565b565b6000546001600160a01b03163314620003a25760405162461bcd60e51b81526004016200035e9062000a5f565b60015433906001600160a01b03168114620003bc57600080fd5b60035460ff166000816001811115620003d957620003d962000ad1565b14620003e457600080fd5b60065460ff16600081600181111562000401576200040162000ad1565b146200040c57600080fd5b62000416620006c9565b505050565b6000546001600160a01b03163314620004485760405162461bcd60e51b81526004016200035e9062000a5f565b60015433906001600160a01b031681146200046257600080fd5b60035460ff1660008160018111156200047f576200047f62000ad1565b146200048a57600080fd5b60065460ff166001816001811115620004a757620004a762000ad1565b1415620004b357600080fd5b6200041662000768565b846001600160a01b0381166200050c5760405162461bcd60e51b815260206004820152601360248201527224b73b30b634b2103a30b9b59037bbb732b91760691b60448201526064016200035e565b600086868686866040516200052190620007f3565b6200053195949392919062000995565b604051809103906000f0801580156200054e573d6000803e3d6000fd5b506007805460018101825560009182527fa66cc928b5edb82af9bd49922954155ab7b0942694bea4ce44661d9a8736c6880180546001600160a01b0319166001600160a01b0384811691821790925560405193945030939092918616917f43af47c504a2f23934b1a816cd86633559721bf26c3656844bdde3edd4719e1391a450505050505050565b6000546001600160a01b03163314620006045760405162461bcd60e51b81526004016200035e9062000a5f565b6001600160a01b0381166200066b5760405162461bcd60e51b815260206004820152602660248201527f4f776e61626c653a206e6577206f776e657220697320746865207a65726f206160448201526564647265737360d01b60648201526084016200035e565b620006768162000679565b50565b600080546001600160a01b038381166001600160a01b0319831681178455604051919092169283917f8be0079c531659141344cd1fd0a4f28419497f9722a3daafe3b4186f6b6457e09190a35050565b600154600160a01b900460ff166200071b5760405162461bcd60e51b815260206004820152601460248201527314185d5cd8589b194e881b9bdd081c185d5cd95960621b60448201526064016200035e565b6001805460ff60a01b191690557f5db9ee0a495bf2e6ff9c91a7834c1ba4fdd244a5e8aa4e537bd38aeae4b073aa335b6040516001600160a01b03909116815260200160405180910390a1565b600154600160a01b900460ff1615620007b75760405162461bcd60e51b815260206004820152601060248201526f14185d5cd8589b194e881c185d5cd95960821b60448201526064016200035e565b6001805460ff60a01b1916600160a01b1790557f62e78cea01bee320cd4e420270b5ea74000d11b0c9f74754ebdbfc544b05a2586200074b3390565b61250a8062000b1d83390190565b80356001600160a01b03811681146200081957600080fd5b919050565b6000602082840312156200083157600080fd5b6200083c8262000801565b9392505050565b600080600080600060a086880312156200085c57600080fd5b620008678662000801565b94506020860135600281106200087c57600080fd5b9350604086013567ffffffffffffffff808211156200089a57600080fd5b818801915088601f830112620008af57600080fd5b813581811115620008c457620008c462000ae7565b604051601f8201601f19908116603f01168101908382118183101715620008ef57620008ef62000ae7565b816040528281528b60208487010111156200090957600080fd5b82602086016020830137600060208483010152809750505050505060608601359150620009396080870162000801565b90509295509295909350565b6000815180845260005b818110156200096d576020818501810151868301820152016200094f565b8181111562000980576000602083870101525b50601f01601f19169290920160200192915050565b6001600160a01b038681168252600090620009b08762000afd565b86602084015260a06040840152620009cc60a084018762000945565b606084019590955292909216608090910152509392505050565b6020808252825182820181905260009190848201906040850190845b8181101562000a295783516001600160a01b03168352928401929184019160010162000a02565b50909695505050505050565b6020810162000a448362000afd565b91905290565b6020815260006200083c602083018462000945565b6020808252818101527f4f776e61626c653a2063616c6c6572206973206e6f7420746865206f776e6572604082015260600190565b600181811c9082168062000aa957607f821691505b6020821081141562000acb57634e487b7160e01b600052602260045260246000fd5b50919050565b634e487b7160e01b600052602160045260246000fd5b634e487b7160e01b600052604160045260246000fd5b600281106200067657634e487b7160e01b600052602160045260246000fdfe60c06040819052600060a08190526200001b91600291620001b3565b506040805160208101918290526000908190526200003c91600391620001b3565b506040516200250a3803806200250a8339810160408190526200005f9162000284565b81620000c55760405162461bcd60e51b815260206004820152602b60248201527f4d7573742073656e64206d6f7265207468616e20302064616920746f2074686960448201526a399031b7b73a3930b1ba1760a91b606482015260840160405180910390fd5b600180546001600160a01b0387166001600160a01b031991821617825560008054909116905560048054869261ff001990911690610100908490811115620001115762000111620003e7565b02179055506004805460ff19169055825162000135906002906020860190620001b3565b506001546040516000916001600160a01b03169084908490620001589062000242565b6001600160a01b03938416815260208101929092529091166040820152606001604051809103906000f08015801562000195573d6000803e3d6000fd5b5060601b6001600160601b0319166080525062000413945050505050565b828054620001c190620003aa565b90600052602060002090601f016020900481019282620001e5576000855562000230565b82601f106200020057805160ff191683800117855562000230565b8280016001018555821562000230579182015b828111156200023057825182559160200191906001019062000213565b506200023e92915062000250565b5090565b610fe3806200152783390190565b5b808211156200023e576000815560010162000251565b80516001600160a01b03811681146200027f57600080fd5b919050565b600080600080600060a086880312156200029d57600080fd5b620002a88662000267565b945060208087015160028110620002be57600080fd5b60408801519095506001600160401b0380821115620002dc57600080fd5b818901915089601f830112620002f157600080fd5b815181811115620003065762000306620003fd565b604051601f8201601f19908116603f01168101908382118183101715620003315762000331620003fd565b816040528281528c868487010111156200034a57600080fd5b600093505b828410156200036e57848401860151818501870152928501926200034f565b82841115620003805760008684830101525b809850505050505050606086015191506200039e6080870162000267565b90509295509295909350565b600181811c90821680620003bf57607f821691505b60208210811415620003e157634e487b7160e01b600052602260045260246000fd5b50919050565b634e487b7160e01b600052602160045260246000fd5b634e487b7160e01b600052604160045260246000fd5b60805160601c6110c46200046360003960008181610140015281816103800152818161057c015281816107980152818161080d01528181610942015281816109b70152610b4d01526110c46000f3fe608060405234801561001057600080fd5b50600436106101215760003560e01c80639aed0c17116100ad578063dabd57a511610071578063dabd57a51461026d578063df502c6b14610280578063e6e8859314610288578063ec3a4790146102a2578063f74cc701146102b557600080fd5b80639aed0c1714610214578063a7f7dca914610227578063b4fedc111461023e578063cb2ef6f714610246578063d8a845cf1461026557600080fd5b80634d547ada116100f45780634d547ada146101a35780635cdcf075146101b65780635db28c66146101c95780638da5cb5b146101de57806396d6d696146101f157600080fd5b806306e3fa9d146101265780630f032a3f1461013b5780632a7057031461017f57806335e9281914610190575b600080fd5b610139610134366004610e78565b6102c8565b005b6101627f000000000000000000000000000000000000000000000000000000000000000081565b6040516001600160a01b0390911681526020015b60405180910390f35b61013961018d366004610e78565b50565b61013961019e366004610e43565b6102fb565b600054610162906001600160a01b031681565b6101396101c4366004610cc0565b610361565b6101d16103df565b6040516101769190610f0c565b600154610162906001600160a01b031681565b6102046101ff366004610d10565b61049c565b6040519015158152602001610176565b610139610222366004610e1d565b610525565b61023060055481565b604051908152602001610176565b6101396105e7565b60045461025890610100900460ff1681565b6040516101769190610ede565b610139610696565b61013961027b366004610ce4565b610724565b6101d1610a2a565b6004546102959060ff1681565b6040516101769190610ef8565b6101396102b0366004610e43565b610ab8565b6101396102c3366004610dd9565b610af5565b6001546001600160a01b0316331461018d5760405162461bcd60e51b81526004016102f290610f1f565b60405180910390fd5b6000546001600160a01b031633146103255760405162461bcd60e51b81526004016102f290610f68565b60058060045460ff16600581111561033f5761033f61103f565b1461034957600080fd5b815161035c906003906020850190610b84565b505050565b604051632ed9c42160e11b81526001600160a01b0382811660048301527f00000000000000000000000000000000000000000000000000000000000000001690635db3884290602401600060405180830381600087803b1580156103c457600080fd5b505af11580156103d8573d6000803e3d6000fd5b5050505050565b6001546060906001600160a01b0316331461040c5760405162461bcd60e51b81526004016102f290610f1f565b6003805461041990610fee565b80601f016020809104026020016040519081016040528092919081815260200182805461044590610fee565b80156104925780601f1061046757610100808354040283529160200191610492565b820191906000526020600020905b81548152906001019060200180831161047557829003601f168201915b5050505050905090565b600080836001600160a01b0316635d5f221f846040518263ffffffff1660e01b81526004016104cb9190610fb2565b602060405180830381600087803b1580156104e557600080fd5b505af11580156104f9573d6000803e3d6000fd5b505050506040513d601f19601f8201168201806040525081019061051d9190610dbc565b949350505050565b6000546001600160a01b0316331461054f5760405162461bcd60e51b81526004016102f290610f68565b6040516353318a8760e01b81526004810185905260ff8416602482015260448101839052606481018290527f00000000000000000000000000000000000000000000000000000000000000006001600160a01b0316906353318a87906084015b600060405180830381600087803b1580156105c957600080fd5b505af11580156105dd573d6000803e3d6000fd5b5050505050505050565b6001546001600160a01b031633146106115760405162461bcd60e51b81526004016102f290610f1f565b600360045460ff16600581111561062a5761062a61103f565b14156106875760405162461bcd60e51b815260206004820152602660248201527f546869732072656c6174696f6e7368697020697320616c726561647920636f6d6044820152651c1b195d195960d21b60648201526084016102f2565b6004805460ff19166003179055565b6000546001600160a01b031633146106c05760405162461bcd60e51b81526004016102f290610f68565b600360045460ff1660058111156106d9576106d961103f565b14156106e457600080fd5b600360045460ff1660058111156106fd576106fd61103f565b141561070857600080fd5b600080546001600160a01b03191690556004805460ff19169055565b6001600454610100900460ff1660018111156107425761074261103f565b1415610881576001600160a01b03821661075b57600080fd5b600080546001600160a01b0319166001600160a01b0384811691821790925560405163089f591560e21b81526004810191909152602481018390527f00000000000000000000000000000000000000000000000000000000000000009091169063227d645490604401600060405180830381600087803b1580156107de57600080fd5b505af11580156107f2573d6000803e3d6000fd5b50506004805460ff1916600517905550506001600160a01b037f00000000000000000000000000000000000000000000000000000000000000001661083957610839611029565b6000546001600160a01b0383811691161461085657610856611029565b600560045460ff16600581111561086f5761086f61103f565b1461087c5761087c611029565b6108f2565b6001546001600160a01b031633146108f25760405162461bcd60e51b815260206004820152602e60248201527f43616c6c6572206973206e6f74206f776e657220616e6420636f6e747261637460448201526d1034b9903737ba10333630b9b41760911b60648201526084016102f2565b6001600160a01b03821661090557600080fd5b600080546001600160a01b0319166001600160a01b0384811691821790925560405163089f591560e21b81526004810191909152602481018390527f00000000000000000000000000000000000000000000000000000000000000009091169063227d645490604401600060405180830381600087803b15801561098857600080fd5b505af115801561099c573d6000803e3d6000fd5b50506004805460ff1916600517905550506001600160a01b037f0000000000000000000000000000000000000000000000000000000000000000166109e3576109e3611029565b6000546001600160a01b03838116911614610a0057610a00611029565b600560045460ff166005811115610a1957610a1961103f565b14610a2657610a26611029565b5050565b60028054610a3790610fee565b80601f0160208091040260200160405190810160405280929190818152602001828054610a6390610fee565b8015610ab05780601f10610a8557610100808354040283529160200191610ab0565b820191906000526020600020905b815481529060010190602001808311610a9357829003601f168201915b505050505081565b6001546001600160a01b03163314610ae25760405162461bcd60e51b81526004016102f290610f1f565b8051610a26906002906020840190610b84565b6001546001600160a01b03163314610b1f5760405162461bcd60e51b81526004016102f290610f1f565b6040516325b0db0f60e01b8152841515600482015260ff8416602482015260448101839052606481018290527f00000000000000000000000000000000000000000000000000000000000000006001600160a01b0316906325b0db0f906084016105af565b828054610b9090610fee565b90600052602060002090601f016020900481019282610bb25760008555610bf8565b82601f10610bcb57805160ff1916838001178555610bf8565b82800160010185558215610bf8579182015b82811115610bf8578251825591602001919060010190610bdd565b50610c04929150610c08565b5090565b5b80821115610c045760008155600101610c09565b600082601f830112610c2e57600080fd5b813567ffffffffffffffff80821115610c4957610c49611055565b604051601f8301601f19908116603f01168101908282118183101715610c7157610c71611055565b81604052838152866020858801011115610c8a57600080fd5b836020870160208301376000602085830101528094505050505092915050565b803560ff81168114610cbb57600080fd5b919050565b600060208284031215610cd257600080fd5b8135610cdd8161106b565b9392505050565b60008060408385031215610cf757600080fd5b8235610d028161106b565b946020939093013593505050565b60008060408385031215610d2357600080fd5b8235610d2e8161106b565b9150602083013567ffffffffffffffff80821115610d4b57600080fd5b9084019060608287031215610d5f57600080fd5b604051606081018181108382111715610d7a57610d7a611055565b604052823582811115610d8c57600080fd5b610d9888828601610c1d565b82525060208301356020820152604083013560408201528093505050509250929050565b600060208284031215610dce57600080fd5b8151610cdd81611080565b60008060008060808587031215610def57600080fd5b8435610dfa81611080565b9350610e0860208601610caa565b93969395505050506040820135916060013590565b60008060008060808587031215610e3357600080fd5b84359350610e0860208601610caa565b600060208284031215610e5557600080fd5b813567ffffffffffffffff811115610e6c57600080fd5b61051d84828501610c1d565b600060208284031215610e8a57600080fd5b5035919050565b6000815180845260005b81811015610eb757602081850181015186830182015201610e9b565b81811115610ec9576000602083870101525b50601f01601f19169290920160200192915050565b6020810160028310610ef257610ef261103f565b91905290565b6020810160068310610ef257610ef261103f565b602081526000610cdd6020830184610e91565b60208082526029908201527f576f726b52656c6174696f6e736869703a2063616c6c6572206973206e6f74206040820152683a34329037bbb732b960b91b606082015260800190565b6020808252602a908201527f576f726b52656c6174696f6e736869703a2063616c6c6572206973206e6f74206040820152693a3432903bb7b935b2b960b11b606082015260800190565b602081526000825160606020840152610fce6080840182610e91565b905060208401516040840152604084015160608401528091505092915050565b600181811c9082168061100257607f821691505b6020821081141561102357634e487b7160e01b600052602260045260246000fd5b50919050565b634e487b7160e01b600052600160045260246000fd5b634e487b7160e01b600052602160045260246000fd5b634e487b7160e01b600052604160045260246000fd5b6001600160a01b038116811461018d57600080fd5b801515811461018d57600080fdfea2646970667358221220fa3655e6b5eb9bf13acaab613f9bce3faf54edb299ffca639108e419ec4fdbe464736f6c6343000807003360e060405234801561001057600080fd5b50604051610fe3380380610fe383398101604081905261002f91610217565b8282826001600160a01b03831661007d5760405162461bcd60e51b815260206004820152600d60248201526c34b73b30b634b21037bbb732b960991b60448201526064015b60405180910390fd5b6001600160a01b0381166100d35760405162461bcd60e51b815260206004820152601960248201527f696e76616c69642064616920746f6b656e2061646472657373000000000000006044820152606401610074565b604080518082018252600a81526944616920457363726f7760b01b6020918201528151808301835260018152603160f81b9082015281517f8b73c3c69bb8fe3d512ecc4cf759cc79239f7b179b0ffacaa9a75d522b39400f918101919091527f0bdbe35568d399a0401d60d11c76785045fec8c775dcb34589d4a0b9d540700d918101919091527fc89efdaa54c0f20c7adf612882df0950f5a951637e0307cdcb4c672f298b8bc660608201524660ff811660808301523060a08301529060c00160408051808303601f1901815291905280516020909101206080525060609290921b6001600160601b03191660a05260c052600280546001600160b01b031916620100006001600160a01b0393909316929092029190911761010017905550610253915050565b80516001600160a01b038116811461021257600080fd5b919050565b60008060006060848603121561022c57600080fd5b610235846101fb565b92506020840151915061024a604085016101fb565b90509250925092565b60805160a05160601c60c051610d266102bd600039600081816101e101526108a40152600081816102880152818161041001528181610574015281816107fb0152818161087c015261092b015260008181610261015281816104c801526106b30152610d266000f3fe608060405234801561001057600080fd5b50600436106100f55760003560e01c80635db3884211610097578063bad453cf11610066578063bad453cf14610249578063bfce14ea1461025c578063c7c4ff4614610283578063d8a43107146102aa57600080fd5b80635db38842146101c95780637df38c5b146101dc57806385209ee01461020357806396118e441461022257600080fd5b806325b0db0f116100d357806325b0db0f1461014357806338af3eed146101565780633c86f6f31461018157806353318a87146101b657600080fd5b806301162b93146100fa578063200d2ed21461010d578063227d645414610130575b600080fd5b61010b610108366004610b09565b50565b005b60025461011a9060ff1681565b6040516101279190610c8b565b60405180910390f35b61010b61013e366004610b2d565b6102ca565b61010b610151366004610b59565b6103a5565b600054610169906001600160a01b031681565b6040516001600160a01b039091168152602001610127565b6101a87ffa5e0016fb62b8dffda8fd95249d438edcffd3689b40ac3b4281d4cf710609ae81565b604051908152602001610127565b61010b6101c4366004610ba2565b6105fd565b61010b6101d7366004610b09565b610108565b6101a87f000000000000000000000000000000000000000000000000000000000000000081565b60025461021590610100900460ff1681565b6040516101279190610c71565b6101a87f62b607caa4d4e7fcbd31bf4c033cd30888b536567fadc83710fdf15f8d5cfc9e81565b61010b610257366004610be1565b6107ce565b6101a87f000000000000000000000000000000000000000000000000000000000000000081565b6101697f000000000000000000000000000000000000000000000000000000000000000081565b6101a86102b8366004610b09565b60016020526000908152604090205481565b600080546001600160a01b0319166001600160a01b0384169081179091556103395760405162461bcd60e51b815260206004820181905260248201527f42656e65666963696172792063616e6e6f74206265203078206164647265737360448201526064015b60405180910390fd5b600054604051637f306ba160e01b81526001600160a01b039182166004820152602481018390528391821690637f306ba190604401600060405180830381600087803b15801561038857600080fd5b505af115801561039c573d6000803e3d6000fd5b50505050505050565b60018060025460ff1660038111156103bf576103bf610cc5565b146104055760405162461bcd60e51b8152602060048201526016602482015275119b881b9bdd081c1c995cd95b9d1b1e481d985b1a5960521b6044820152606401610330565b336001600160a01b037f0000000000000000000000000000000000000000000000000000000000000000161461046e5760405162461bcd60e51b815260206004820152600e60248201526d2bb937b733903932bb34b2bbb2b960911b6044820152606401610330565b604080517ffa5e0016fb62b8dffda8fd95249d438edcffd3689b40ac3b4281d4cf710609ae6020808301919091528715158284015282518083038401815260608301909352825192019190912061190160f01b60808301527f0000000000000000000000000000000000000000000000000000000000000000608283015260a282015260009060c20160408051601f1981840301815282825280516020918201206000845290830180835281905260ff8816918301919091526060820186905260808201859052915060019060a0016020604051602081039080840390855afa15801561055f573d6000803e3d6000fd5b505050602060405103516001600160a01b03167f00000000000000000000000000000000000000000000000000000000000000006001600160a01b0316146105da5760405162461bcd60e51b815260206004820152600e60248201526d1a5b9d985b1a590b5c195c9b5a5d60921b6044820152606401610330565b85156105f5576000546105f5906001600160a01b03166109c3565b505050505050565b60008060025460ff16600381111561061757610617610cc5565b1461065d5760405162461bcd60e51b8152602060048201526016602482015275119b881b9bdd081c1c995cd95b9d1b1e481d985b1a5960521b6044820152606401610330565b604080517f62b607caa4d4e7fcbd31bf4c033cd30888b536567fadc83710fdf15f8d5cfc9e60208083019190915281830188905282518083038401815260608301845280519082012061190160f01b60808401527f0000000000000000000000000000000000000000000000000000000000000000608284015260a2808401919091528351808403909101815260c290920190925280519101206000546001600160a01b031661070c57600080fd5b60408051600081526020810180835283905260ff871691810191909152606081018590526080810184905260019060a0016020604051602081039080840390855afa15801561075f573d6000803e3d6000fd5b5050604051601f1901516000546001600160a01b0390811691161490506107b95760405162461bcd60e51b815260206004820152600e60248201526d1a5b9d985b1a590b5c195c9b5a5d60921b6044820152606401610330565b50506002805460ff1916600117905550505050565b6002546040516323f2ebc360e21b8152620100009091046001600160a01b031690638fcbaf0c90610832907f00000000000000000000000000000000000000000000000000000000000000009030908a908a906001908b908b908b90600401610c28565b600060405180830381600087803b15801561084c57600080fd5b505af1158015610860573d6000803e3d6000fd5b505060025460405163f2d5d56b60e01b81526001600160a01b037f0000000000000000000000000000000000000000000000000000000000000000811660048301527f0000000000000000000000000000000000000000000000000000000000000000602483015262010000909204909116925063f2d5d56b9150604401600060405180830381600087803b1580156108f857600080fd5b505af115801561090c573d6000803e3d6000fd5b50506002546201000090046001600160a01b03169150638fcbaf0c90507f000000000000000000000000000000000000000000000000000000000000000030610956896001610c9f565b8860008989896040518963ffffffff1660e01b815260040161097f989796959493929190610c28565b600060405180830381600087803b15801561099957600080fd5b505af11580156109ad573d6000803e3d6000fd5b50506002805461ff001916905550505050505050565b6001600160a01b0381166109d657600080fd5b6001600160a01b0381161580156109f9576002805460ff19166003179055610a06565b6002805460ff1916811790555b80610aef576002546040516370a0823160e01b8152306004820152620100009091046001600160a01b03169063b753a98c90849083906370a082319060240160206040518083038186803b158015610a5d57600080fd5b505afa158015610a71573d6000803e3d6000fd5b505050506040513d601f19601f82011682018060405250810190610a959190610bc8565b6040516001600160e01b031960e085901b1681526001600160a01b0390921660048301526024820152604401600060405180830381600087803b158015610adb57600080fd5b505af11580156105f5573d6000803e3d6000fd5b5050565b803560ff81168114610b0457600080fd5b919050565b600060208284031215610b1b57600080fd5b8135610b2681610cdb565b9392505050565b60008060408385031215610b4057600080fd5b8235610b4b81610cdb565b946020939093013593505050565b60008060008060808587031215610b6f57600080fd5b84358015158114610b7f57600080fd5b9350610b8d60208601610af3565b93969395505050506040820135916060013590565b60008060008060808587031215610bb857600080fd5b84359350610b8d60208601610af3565b600060208284031215610bda57600080fd5b5051919050565b600080600080600060a08688031215610bf957600080fd5b8535945060208601359350610c1060408701610af3565b94979396509394606081013594506080013592915050565b6001600160a01b039889168152969097166020870152604086019490945260608501929092521515608084015260ff1660a083015260c082015260e08101919091526101000190565b6020810160028310610c8557610c85610cc5565b91905290565b6020810160048310610c8557610c85610cc5565b60008219821115610cc057634e487b7160e01b600052601160045260246000fd5b500190565b634e487b7160e01b600052602160045260246000fd5b6001600160a01b038116811461010857600080fdfea2646970667358221220684477f4f6b9471033a643524cc14e936dd4d9ebb49ec3df8643885032b5d1d464736f6c63430008070033a26469706673582212206a072fd6d03eb20dac4a3f734b60739f08383cad2bfa3ad06c0e9f188437826f64736f6c63430008070033",
  "immutableReferences": {},
  "source": "// SPDX-License-Identifier: MIT\npragma solidity 0.8.7;\n\nimport \"../libraries/Evaluation.sol\";\nimport \"../exchange/WorkRelationship.sol\";\nimport \"../libraries/MarketLib.sol\";\nimport \"../control/Controllable.sol\";\nimport \"../../../node_modules/@openzeppelin/contracts/access/Ownable.sol\";\nimport \"../../../node_modules/@openzeppelin/contracts/security/Pausable.sol\";\n\ncontract Market is Ownable, Controllable, Pausable {\n    event MarketPaused(\n        address indexed marketAddress,\n        string indexed marketName\n    );\n    event MarketResumed(\n        address indexed marketAddress,\n        string indexed marketName\n    );\n    event WorkRelationshipCreated(\n        address indexed owner,\n        address indexed relationship,\n        address indexed marketAddress\n    );\n    event WorkRelationshipEnded(\n        address indexed owner,\n        address indexed relationship\n    );\n\n    string public _marketName;\n    MarketLib.MarketType public _marketType;\n    uint256 public _requiredReputation;\n    uint256 public _requiredIndustryWeight;\n    MarketLib.MarketStatus public _marketStatus;\n\n    WorkRelationship[] _createdJobs;\n\n    constructor(string memory marketName, MarketLib.MarketType marketType) {\n        _marketName = marketName;\n        _marketType = marketType;\n        // _requiredReputation = requiredReputation;\n        // _requiredIndustryWeight = requiredIndustryWeight;\n    }\n\n    /**\n     * Creates a user summary contract for each user based on their civic ID.\n     */\n    function createJob(\n        address taskOwner,\n        Evaluation.ContractType _contractType, \n        string memory taskMetadataPointer,\n        uint256 _wad,\n        address _daiTokenAddress\n    ) external {\n        address owner = taskOwner;\n        require(owner != address(0), \"Invalid task owner.\");\n        WorkRelationship createdJob =\n            new WorkRelationship(taskOwner, _contractType, taskMetadataPointer, _wad, _daiTokenAddress);\n        _createdJobs.push(createdJob);\n        emit WorkRelationshipCreated(\n            owner,\n            address(createdJob),\n            address(this)\n        );\n    }\n\n    /**\n     *\n     */\n    function getNumJobs() public view returns (uint256) {\n        return _createdJobs.length;\n    }\n\n    function pauseMarket()\n        external\n        onlyOwner\n        onlyGlobalController(msg.sender)\n        onlyDefaultMarkets(_marketType)\n        onlyNotPausedState(_marketStatus)\n    {\n        _pause();\n    }\n\n    function resumeMarket()\n        external\n        onlyOwner\n        onlyGlobalController(msg.sender)\n        onlyDefaultMarkets(_marketType)\n        onlyPausedState(_marketStatus)\n    {\n        _unpause();\n    }\n\n    function getMarketState() public view returns (bool) {\n        return paused();\n    }\n\n    function getWorkRelationships() external view returns (WorkRelationship[] memory) {\n        return _createdJobs;\n    }\n\n    function destroyMarket() internal onlyOwner {\n        //selfdestruct();\n    }\n}\n",
  "sourcePath": "/Users/elijahhampton/Desktop/opportunity-core/src/contracts/market/Market.sol",
  "compiler": {
    "name": "solc",
    "version": "0.8.7+commit.e28d00a7.Emscripten.clang"
  },
  "schemaVersion": "3.4.3",
  "updatedAt": "2021-09-20T01:30:17.359Z",
  "networkType": "ethereum",
  "devdoc": {
    "kind": "dev",
    "methods": {
      "owner()": {
        "details": "Returns the address of the current owner."
      },
      "paused()": {
        "details": "Returns true if the contract is paused, and false otherwise."
      },
      "renounceOwnership()": {
        "details": "Leaves the contract without owner. It will not be possible to call `onlyOwner` functions anymore. Can only be called by the current owner. NOTE: Renouncing ownership will leave the contract without an owner, thereby removing any functionality that is only available to the owner."
      },
      "transferOwnership(address)": {
        "details": "Transfers ownership of the contract to a new account (`newOwner`). Can only be called by the current owner."
      }
    },
    "version": 1
  },
  "userdoc": {
    "kind": "user",
    "methods": {
      "createJob(address,uint8,string,uint256,address)": {
        "notice": "Creates a user summary contract for each user based on their civic ID."
      }
    },
    "version": 1
  }
}