{
  "contractName": "Market",
  "abi": [
    {
      "inputs": [
        {
          "internalType": "string",
          "name": "marketName",
          "type": "string"
        },
        {
          "internalType": "enum MarketLib.MarketType",
          "name": "marketType",
          "type": "uint8"
        }
      ],
      "stateMutability": "nonpayable",
      "type": "constructor"
    },
    {
      "anonymous": false,
      "inputs": [
        {
          "indexed": true,
          "internalType": "address",
          "name": "marketAddress",
          "type": "address"
        },
        {
          "indexed": true,
          "internalType": "string",
          "name": "marketName",
          "type": "string"
        }
      ],
      "name": "MarketPaused",
      "type": "event"
    },
    {
      "anonymous": false,
      "inputs": [
        {
          "indexed": true,
          "internalType": "address",
          "name": "marketAddress",
          "type": "address"
        },
        {
          "indexed": true,
          "internalType": "string",
          "name": "marketName",
          "type": "string"
        }
      ],
      "name": "MarketResumed",
      "type": "event"
    },
    {
      "anonymous": false,
      "inputs": [
        {
          "indexed": true,
          "internalType": "address",
          "name": "previousOwner",
          "type": "address"
        },
        {
          "indexed": true,
          "internalType": "address",
          "name": "newOwner",
          "type": "address"
        }
      ],
      "name": "OwnershipTransferred",
      "type": "event"
    },
    {
      "anonymous": false,
      "inputs": [
        {
          "indexed": false,
          "internalType": "address",
          "name": "account",
          "type": "address"
        }
      ],
      "name": "Paused",
      "type": "event"
    },
    {
      "anonymous": false,
      "inputs": [
        {
          "indexed": false,
          "internalType": "address",
          "name": "account",
          "type": "address"
        }
      ],
      "name": "Unpaused",
      "type": "event"
    },
    {
      "anonymous": false,
      "inputs": [
        {
          "indexed": true,
          "internalType": "address",
          "name": "owner",
          "type": "address"
        },
        {
          "indexed": true,
          "internalType": "address",
          "name": "relationship",
          "type": "address"
        },
        {
          "indexed": true,
          "internalType": "address",
          "name": "marketAddress",
          "type": "address"
        }
      ],
      "name": "WorkRelationshipCreated",
      "type": "event"
    },
    {
      "anonymous": false,
      "inputs": [
        {
          "indexed": true,
          "internalType": "address",
          "name": "owner",
          "type": "address"
        },
        {
          "indexed": true,
          "internalType": "address",
          "name": "relationship",
          "type": "address"
        }
      ],
      "name": "WorkRelationshipEnded",
      "type": "event"
    },
    {
      "inputs": [],
      "name": "_marketName",
      "outputs": [
        {
          "internalType": "string",
          "name": "",
          "type": "string"
        }
      ],
      "stateMutability": "view",
      "type": "function",
      "constant": true
    },
    {
      "inputs": [],
      "name": "_marketStatus",
      "outputs": [
        {
          "internalType": "enum MarketLib.MarketStatus",
          "name": "",
          "type": "uint8"
        }
      ],
      "stateMutability": "view",
      "type": "function",
      "constant": true
    },
    {
      "inputs": [],
      "name": "_marketType",
      "outputs": [
        {
          "internalType": "enum MarketLib.MarketType",
          "name": "",
          "type": "uint8"
        }
      ],
      "stateMutability": "view",
      "type": "function",
      "constant": true
    },
    {
      "inputs": [],
      "name": "_requiredIndustryWeight",
      "outputs": [
        {
          "internalType": "uint256",
          "name": "",
          "type": "uint256"
        }
      ],
      "stateMutability": "view",
      "type": "function",
      "constant": true
    },
    {
      "inputs": [],
      "name": "_requiredReputation",
      "outputs": [
        {
          "internalType": "uint256",
          "name": "",
          "type": "uint256"
        }
      ],
      "stateMutability": "view",
      "type": "function",
      "constant": true
    },
    {
      "inputs": [],
      "name": "owner",
      "outputs": [
        {
          "internalType": "address",
          "name": "",
          "type": "address"
        }
      ],
      "stateMutability": "view",
      "type": "function",
      "constant": true
    },
    {
      "inputs": [],
      "name": "paused",
      "outputs": [
        {
          "internalType": "bool",
          "name": "",
          "type": "bool"
        }
      ],
      "stateMutability": "view",
      "type": "function",
      "constant": true
    },
    {
      "inputs": [],
      "name": "renounceOwnership",
      "outputs": [],
      "stateMutability": "nonpayable",
      "type": "function"
    },
    {
      "inputs": [
        {
          "internalType": "address",
          "name": "newOwner",
          "type": "address"
        }
      ],
      "name": "transferOwnership",
      "outputs": [],
      "stateMutability": "nonpayable",
      "type": "function"
    },
    {
      "inputs": [
        {
          "internalType": "address",
          "name": "jobRequester",
          "type": "address"
        },
        {
          "internalType": "string",
          "name": "taskMetadataPointer",
          "type": "string"
        }
      ],
      "name": "createJob",
      "outputs": [],
      "stateMutability": "nonpayable",
      "type": "function"
    },
    {
      "inputs": [],
      "name": "getNumJobs",
      "outputs": [
        {
          "internalType": "uint256",
          "name": "",
          "type": "uint256"
        }
      ],
      "stateMutability": "view",
      "type": "function",
      "constant": true
    },
    {
      "inputs": [],
      "name": "pauseMarket",
      "outputs": [],
      "stateMutability": "nonpayable",
      "type": "function"
    },
    {
      "inputs": [],
      "name": "resumeMarket",
      "outputs": [],
      "stateMutability": "nonpayable",
      "type": "function"
    },
    {
      "inputs": [],
      "name": "getMarketState",
      "outputs": [
        {
          "internalType": "bool",
          "name": "",
          "type": "bool"
        }
      ],
      "stateMutability": "view",
      "type": "function",
      "constant": true
    },
    {
      "inputs": [],
      "name": "getWorkRelationships",
      "outputs": [
        {
          "internalType": "contract WorkRelationship[]",
          "name": "",
          "type": "address[]"
        }
      ],
      "stateMutability": "view",
      "type": "function",
      "constant": true
    }
  ],
  "bytecode": "0x60806040523480156200001157600080fd5b5060405162002eb838038062002eb88339818101604052810190620000379190620002f6565b600062000049620001b560201b60201c565b9050806000806101000a81548173ffffffffffffffffffffffffffffffffffffffff021916908373ffffffffffffffffffffffffffffffffffffffff1602179055508073ffffffffffffffffffffffffffffffffffffffff16600073ffffffffffffffffffffffffffffffffffffffff167f8be0079c531659141344cd1fd0a4f28419497f9722a3daafe3b4186f6b6457e060405160405180910390a35033600160006101000a81548173ffffffffffffffffffffffffffffffffffffffff021916908373ffffffffffffffffffffffffffffffffffffffff1602179055506000600160146101000a81548160ff02191690831515021790555081600290805190602001906200015b929190620001bd565b5080600360006101000a81548160ff02191690836001811115620001a8577f4e487b7100000000000000000000000000000000000000000000000000000000600052602160045260246000fd5b02179055505050620004d1565b600033905090565b828054620001cb90620003e5565b90600052602060002090601f016020900481019282620001ef57600085556200023b565b82601f106200020a57805160ff19168380011785556200023b565b828001600101855582156200023b579182015b828111156200023a5782518255916020019190600101906200021d565b5b5090506200024a91906200024e565b5090565b5b80821115620002695760008160009055506001016200024f565b5090565b6000620002846200027e8462000379565b62000350565b9050828152602081018484840111156200029d57600080fd5b620002aa848285620003af565b509392505050565b600081519050620002c381620004c0565b92915050565b600082601f830112620002db57600080fd5b8151620002ed8482602086016200026d565b91505092915050565b600080604083850312156200030a57600080fd5b600083015167ffffffffffffffff8111156200032557600080fd5b6200033385828601620002c9565b92505060206200034685828601620002b2565b9150509250929050565b60006200035c6200036f565b90506200036a82826200041b565b919050565b6000604051905090565b600067ffffffffffffffff82111562000397576200039662000480565b5b620003a282620004af565b9050602081019050919050565b60005b83811015620003cf578082015181840152602081019050620003b2565b83811115620003df576000848401525b50505050565b60006002820490506001821680620003fe57607f821691505b6020821081141562000415576200041462000451565b5b50919050565b6200042682620004af565b810181811067ffffffffffffffff8211171562000448576200044762000480565b5b80604052505050565b7f4e487b7100000000000000000000000000000000000000000000000000000000600052602260045260246000fd5b7f4e487b7100000000000000000000000000000000000000000000000000000000600052604160045260246000fd5b6000601f19601f8301169050919050565b60028110620004ce57600080fd5b50565b6129d780620004e16000396000f3fe60806040523480156200001157600080fd5b50600436106200010c5760003560e01c80637e0c00ed11620000a5578063a03738dc116200006f578063a03738dc1462000259578063c143521f1462000265578063d81657431462000287578063f2fde38b14620002a9576200010c565b80637e0c00ed14620001e7578063838069f714620002095780638da5cb5b146200022b5780639319106b146200024d576200010c565b80635c975abb11620000e75780635c975abb14620001755780636039c8d71462000197578063715018a614620001b95780637cf63de914620001c5576200010c565b80630f091637146200011157806336e114fc14620001335780633c6a1c671462000155575b600080fd5b6200011b620002c9565b6040516200012a91906200129c565b60405180910390f35b6200013d620002cf565b6040516200014c919062001175565b60405180910390f35b6200017360048036038101906200016d919062000f03565b6200035f565b005b6200017f620004b2565b6040516200018e919062001199565b60405180910390f35b620001a1620004c9565b604051620001b09190620011f0565b60405180910390f35b620001c36200055f565b005b620001cf620006a0565b604051620001de9190620011d3565b60405180910390f35b620001f1620006b3565b6040516200020091906200129c565b60405180910390f35b62000213620006c0565b604051620002229190620011b6565b60405180910390f35b62000235620006d3565b60405162000244919062001124565b60405180910390f35b62000257620006fc565b005b620002636200090a565b005b6200026f62000b18565b6040516200027e91906200129c565b60405180910390f35b6200029162000b1e565b604051620002a0919062001199565b60405180910390f35b620002c76004803603810190620002c1919062000ed7565b62000b2f565b005b60045481565b606060078054806020026020016040519081016040528092919081815260200182805480156200035557602002820191906000526020600020905b8160009054906101000a900473ffffffffffffffffffffffffffffffffffffffff1673ffffffffffffffffffffffffffffffffffffffff16815260200190600101908083116200030a575b5050505050905090565b600073ffffffffffffffffffffffffffffffffffffffff168273ffffffffffffffffffffffffffffffffffffffff1614156200039a57600080fd5b60008282604051620003ac9062000e40565b620003b992919062001141565b604051809103906000f080158015620003d6573d6000803e3d6000fd5b5090506007819080600181540180825580915050600190039060005260206000200160009091909190916101000a81548173ffffffffffffffffffffffffffffffffffffffff021916908373ffffffffffffffffffffffffffffffffffffffff1602179055503073ffffffffffffffffffffffffffffffffffffffff168173ffffffffffffffffffffffffffffffffffffffff168473ffffffffffffffffffffffffffffffffffffffff167f43af47c504a2f23934b1a816cd86633559721bf26c3656844bdde3edd4719e1360405160405180910390a4505050565b6000600160149054906101000a900460ff16905090565b60028054620004d89062001476565b80601f0160208091040260200160405190810160405280929190818152602001828054620005069062001476565b8015620005575780601f106200052b5761010080835404028352916020019162000557565b820191906000526020600020905b8154815290600101906020018083116200053957829003601f168201915b505050505081565b6200056962000ce2565b73ffffffffffffffffffffffffffffffffffffffff1662000589620006d3565b73ffffffffffffffffffffffffffffffffffffffff1614620005e2576040517f08c379a0000000000000000000000000000000000000000000000000000000008152600401620005d9906200127a565b60405180910390fd5b600073ffffffffffffffffffffffffffffffffffffffff1660008054906101000a900473ffffffffffffffffffffffffffffffffffffffff1673ffffffffffffffffffffffffffffffffffffffff167f8be0079c531659141344cd1fd0a4f28419497f9722a3daafe3b4186f6b6457e060405160405180910390a360008060006101000a81548173ffffffffffffffffffffffffffffffffffffffff021916908373ffffffffffffffffffffffffffffffffffffffff160217905550565b600360009054906101000a900460ff1681565b6000600780549050905090565b600660009054906101000a900460ff1681565b60008060009054906101000a900473ffffffffffffffffffffffffffffffffffffffff16905090565b6200070662000ce2565b73ffffffffffffffffffffffffffffffffffffffff1662000726620006d3565b73ffffffffffffffffffffffffffffffffffffffff16146200077f576040517f08c379a000000000000000000000000000000000000000000000000000000000815260040162000776906200127a565b60405180910390fd5b33600160009054906101000a900473ffffffffffffffffffffffffffffffffffffffff1673ffffffffffffffffffffffffffffffffffffffff168173ffffffffffffffffffffffffffffffffffffffff1614620007db57600080fd5b600360009054906101000a900460ff166000600181111562000826577f4e487b7100000000000000000000000000000000000000000000000000000000600052602160045260246000fd5b81600181111562000860577f4e487b7100000000000000000000000000000000000000000000000000000000600052602160045260246000fd5b146200086b57600080fd5b600660009054906101000a900460ff1660006001811115620008b6577f4e487b7100000000000000000000000000000000000000000000000000000000600052602160045260246000fd5b816001811115620008f0577f4e487b7100000000000000000000000000000000000000000000000000000000600052602160045260246000fd5b14620008fb57600080fd5b6200090562000cea565b505050565b6200091462000ce2565b73ffffffffffffffffffffffffffffffffffffffff1662000934620006d3565b73ffffffffffffffffffffffffffffffffffffffff16146200098d576040517f08c379a000000000000000000000000000000000000000000000000000000000815260040162000984906200127a565b60405180910390fd5b33600160009054906101000a900473ffffffffffffffffffffffffffffffffffffffff1673ffffffffffffffffffffffffffffffffffffffff168173ffffffffffffffffffffffffffffffffffffffff1614620009e957600080fd5b600360009054906101000a900460ff166000600181111562000a34577f4e487b7100000000000000000000000000000000000000000000000000000000600052602160045260246000fd5b81600181111562000a6e577f4e487b7100000000000000000000000000000000000000000000000000000000600052602160045260246000fd5b1462000a7957600080fd5b600660009054906101000a900460ff1660018081111562000ac3577f4e487b7100000000000000000000000000000000000000000000000000000000600052602160045260246000fd5b81600181111562000afd577f4e487b7100000000000000000000000000000000000000000000000000000000600052602160045260246000fd5b141562000b0957600080fd5b62000b1362000d95565b505050565b60055481565b600062000b2a620004b2565b905090565b62000b3962000ce2565b73ffffffffffffffffffffffffffffffffffffffff1662000b59620006d3565b73ffffffffffffffffffffffffffffffffffffffff161462000bb2576040517f08c379a000000000000000000000000000000000000000000000000000000000815260040162000ba9906200127a565b60405180910390fd5b600073ffffffffffffffffffffffffffffffffffffffff168173ffffffffffffffffffffffffffffffffffffffff16141562000c25576040517f08c379a000000000000000000000000000000000000000000000000000000000815260040162000c1c9062001236565b60405180910390fd5b8073ffffffffffffffffffffffffffffffffffffffff1660008054906101000a900473ffffffffffffffffffffffffffffffffffffffff1673ffffffffffffffffffffffffffffffffffffffff167f8be0079c531659141344cd1fd0a4f28419497f9722a3daafe3b4186f6b6457e060405160405180910390a3806000806101000a81548173ffffffffffffffffffffffffffffffffffffffff021916908373ffffffffffffffffffffffffffffffffffffffff16021790555050565b600033905090565b62000cf4620004b2565b62000d36576040517f08c379a000000000000000000000000000000000000000000000000000000000815260040162000d2d9062001214565b60405180910390fd5b6000600160146101000a81548160ff0219169083151502179055507f5db9ee0a495bf2e6ff9c91a7834c1ba4fdd244a5e8aa4e537bd38aeae4b073aa62000d7c62000ce2565b60405162000d8b919062001124565b60405180910390a1565b62000d9f620004b2565b1562000de2576040517f08c379a000000000000000000000000000000000000000000000000000000000815260040162000dd99062001258565b60405180910390fd5b60018060146101000a81548160ff0219169083151502179055507f62e78cea01bee320cd4e420270b5ea74000d11b0c9f74754ebdbfc544b05a25862000e2762000ce2565b60405162000e36919062001124565b60405180910390a1565b61130f806200169383390190565b600062000e6562000e5f84620012e2565b620012b9565b90508281526020810184848401111562000e7e57600080fd5b62000e8b84828562001431565b509392505050565b60008135905062000ea48162001678565b92915050565b600082601f83011262000ebc57600080fd5b813562000ece84826020860162000e4e565b91505092915050565b60006020828403121562000eea57600080fd5b600062000efa8482850162000e93565b91505092915050565b6000806040838503121562000f1757600080fd5b600062000f278582860162000e93565b925050602083013567ffffffffffffffff81111562000f4557600080fd5b62000f538582860162000eaa565b9150509250929050565b600062000f6b838362001003565b60208301905092915050565b62000f82816200136d565b82525050565b600062000f958262001328565b62000fa181856200134b565b935062000fae8362001318565b8060005b8381101562000fe557815162000fc9888262000f5d565b975062000fd6836200133e565b92505060018101905062000fb2565b5085935050505092915050565b62000ffd8162001381565b82525050565b6200100e81620013e1565b82525050565b6200101f8162001409565b82525050565b62001030816200141d565b82525050565b6000620010438262001333565b6200104f81856200135c565b93506200106181856020860162001440565b6200106c816200156f565b840191505092915050565b6000620010866014836200135c565b9150620010938262001580565b602082019050919050565b6000620010ad6026836200135c565b9150620010ba82620015a9565b604082019050919050565b6000620010d46010836200135c565b9150620010e182620015f8565b602082019050919050565b6000620010fb6020836200135c565b9150620011088262001621565b602082019050919050565b6200111e81620013d7565b82525050565b60006020820190506200113b600083018462000f77565b92915050565b600060408201905062001158600083018562000f77565b81810360208301526200116c818462001036565b90509392505050565b6000602082019050818103600083015262001191818462000f88565b905092915050565b6000602082019050620011b0600083018462000ff2565b92915050565b6000602082019050620011cd600083018462001014565b92915050565b6000602082019050620011ea600083018462001025565b92915050565b600060208201905081810360008301526200120c818462001036565b905092915050565b600060208201905081810360008301526200122f8162001077565b9050919050565b6000602082019050818103600083015262001251816200109e565b9050919050565b600060208201905081810360008301526200127381620010c5565b9050919050565b600060208201905081810360008301526200129581620010ec565b9050919050565b6000602082019050620012b3600083018462001113565b92915050565b6000620012c5620012d8565b9050620012d38282620014ac565b919050565b6000604051905090565b600067ffffffffffffffff8211156200130057620012ff62001540565b5b6200130b826200156f565b9050602081019050919050565b6000819050602082019050919050565b600081519050919050565b600081519050919050565b6000602082019050919050565b600082825260208201905092915050565b600082825260208201905092915050565b60006200137a82620013b7565b9050919050565b60008115159050919050565b60008190506200139d826200164a565b919050565b6000819050620013b28262001661565b919050565b600073ffffffffffffffffffffffffffffffffffffffff82169050919050565b6000819050919050565b6000620013ee82620013f5565b9050919050565b60006200140282620013b7565b9050919050565b600062001416826200138d565b9050919050565b60006200142a82620013a2565b9050919050565b82818337600083830152505050565b60005b838110156200146057808201518184015260208101905062001443565b8381111562001470576000848401525b50505050565b600060028204905060018216806200148f57607f821691505b60208210811415620014a657620014a562001511565b5b50919050565b620014b7826200156f565b810181811067ffffffffffffffff82111715620014d957620014d862001540565b5b80604052505050565b7f4e487b7100000000000000000000000000000000000000000000000000000000600052602160045260246000fd5b7f4e487b7100000000000000000000000000000000000000000000000000000000600052602260045260246000fd5b7f4e487b7100000000000000000000000000000000000000000000000000000000600052604160045260246000fd5b6000601f19601f8301169050919050565b7f5061757361626c653a206e6f7420706175736564000000000000000000000000600082015250565b7f4f776e61626c653a206e6577206f776e657220697320746865207a65726f206160008201527f6464726573730000000000000000000000000000000000000000000000000000602082015250565b7f5061757361626c653a2070617573656400000000000000000000000000000000600082015250565b7f4f776e61626c653a2063616c6c6572206973206e6f7420746865206f776e6572600082015250565b600281106200165e576200165d620014e2565b5b50565b60028110620016755762001674620014e2565b5b50565b62001683816200136d565b81146200168f57600080fd5b5056fe608060405260405180602001604052806000815250600390805190602001906200002b92919062000176565b5060405180602001604052806000815250600490805190602001906200005392919062000176565b503480156200006157600080fd5b506040516200130f3803806200130f8339818101604052810190620000879190620002af565b600073ffffffffffffffffffffffffffffffffffffffff168273ffffffffffffffffffffffffffffffffffffffff161415620000c257600080fd5b81600260006101000a81548173ffffffffffffffffffffffffffffffffffffffff021916908373ffffffffffffffffffffffffffffffffffffffff1602179055506000600560006101000a81548160ff0219169083600681111562000150577f4e487b7100000000000000000000000000000000000000000000000000000000600052602160045260246000fd5b021790555080600390805190602001906200016d92919062000176565b505050620004c7565b8280546200018490620003d2565b90600052602060002090601f016020900481019282620001a85760008555620001f4565b82601f10620001c357805160ff1916838001178555620001f4565b82800160010185558215620001f4579182015b82811115620001f3578251825591602001919060010190620001d6565b5b50905062000203919062000207565b5090565b5b808211156200022257600081600090555060010162000208565b5090565b60006200023d620002378462000332565b62000309565b9050828152602081018484840111156200025657600080fd5b620002638482856200039c565b509392505050565b6000815190506200027c81620004ad565b92915050565b600082601f8301126200029457600080fd5b8151620002a684826020860162000226565b91505092915050565b60008060408385031215620002c357600080fd5b6000620002d3858286016200026b565b925050602083015167ffffffffffffffff811115620002f157600080fd5b620002ff8582860162000282565b9150509250929050565b60006200031562000328565b905062000323828262000408565b919050565b6000604051905090565b600067ffffffffffffffff82111562000350576200034f6200046d565b5b6200035b826200049c565b9050602081019050919050565b600062000375826200037c565b9050919050565b600073ffffffffffffffffffffffffffffffffffffffff82169050919050565b60005b83811015620003bc5780820151818401526020810190506200039f565b83811115620003cc576000848401525b50505050565b60006002820490506001821680620003eb57607f821691505b602082108114156200040257620004016200043e565b5b50919050565b62000413826200049c565b810181811067ffffffffffffffff821117156200043557620004346200046d565b5b80604052505050565b7f4e487b7100000000000000000000000000000000000000000000000000000000600052602260045260246000fd5b7f4e487b7100000000000000000000000000000000000000000000000000000000600052604160045260246000fd5b6000601f19601f8301169050919050565b620004b88162000368565b8114620004c457600080fd5b50565b610e3880620004d76000396000f3fe608060405234801561001057600080fd5b50600436106100935760003560e01c806393e3806c1161006657806393e3806c1461010e578063df502c6b1461012a578063e6e8859314610148578063ec3a479014610166578063eebc6e3d1461018257610093565b806335e92819146100985780635db28c66146100b45780637843c0e4146100d25780638da5cb5b146100f0575b600080fd5b6100b260048036038101906100ad91906108a8565b6101a0565b005b6100bc61024a565b6040516100c99190610a54565b60405180910390f35b6100da610351565b6040516100e79190610a1e565b60405180910390f35b6100f8610377565b6040516101059190610a1e565b60405180910390f35b6101286004803603810190610123919061082b565b6103a1565b005b61013261047b565b60405161013f9190610a54565b60405180910390f35b610150610509565b60405161015d9190610a39565b60405180910390f35b610180600480360381019061017b91906108a8565b61051c565b005b61018a6105ab565b6040516101979190610a1e565b60405180910390f35b600160009054906101000a900473ffffffffffffffffffffffffffffffffffffffff1673ffffffffffffffffffffffffffffffffffffffff163373ffffffffffffffffffffffffffffffffffffffff1614610230576040517f08c379a000000000000000000000000000000000000000000000000000000000815260040161022790610a96565b60405180910390fd5b8060049080519060200190610246929190610669565b5050565b60603373ffffffffffffffffffffffffffffffffffffffff1661026b610377565b73ffffffffffffffffffffffffffffffffffffffff16146102c1576040517f08c379a00000000000000000000000000000000000000000000000000000000081526004016102b890610a76565b60405180910390fd5b600480546102ce90610c0a565b80601f01602080910402602001604051908101604052809291908181526020018280546102fa90610c0a565b80156103475780601f1061031c57610100808354040283529160200191610347565b820191906000526020600020905b81548152906001019060200180831161032a57829003601f168201915b5050505050905090565b600160009054906101000a900473ffffffffffffffffffffffffffffffffffffffff1681565b6000600260009054906101000a900473ffffffffffffffffffffffffffffffffffffffff16905090565b3373ffffffffffffffffffffffffffffffffffffffff166103c0610377565b73ffffffffffffffffffffffffffffffffffffffff1614610416576040517f08c379a000000000000000000000000000000000000000000000000000000000815260040161040d90610a76565b60405180910390fd5b600061042283836105cf565b9050600115158115151461043557600080fd5b82600160006101000a81548173ffffffffffffffffffffffffffffffffffffffff021916908373ffffffffffffffffffffffffffffffffffffffff160217905550505050565b6003805461048890610c0a565b80601f01602080910402602001604051908101604052809291908181526020018280546104b490610c0a565b80156105015780601f106104d657610100808354040283529160200191610501565b820191906000526020600020905b8154815290600101906020018083116104e457829003601f168201915b505050505081565b600560009054906101000a900460ff1681565b3373ffffffffffffffffffffffffffffffffffffffff1661053b610377565b73ffffffffffffffffffffffffffffffffffffffff1614610591576040517f08c379a000000000000000000000000000000000000000000000000000000000815260040161058890610a76565b60405180910390fd5b80600390805190602001906105a7929190610669565b5050565b60008054906101000a900473ffffffffffffffffffffffffffffffffffffffff1681565b6000808373ffffffffffffffffffffffffffffffffffffffff16635d5f221f846040518263ffffffff1660e01b815260040161060b9190610ab6565b602060405180830381600087803b15801561062557600080fd5b505af1158015610639573d6000803e3d6000fd5b505050506040513d601f19601f8201168201806040525081019061065d919061087f565b90508091505092915050565b82805461067590610c0a565b90600052602060002090601f01602090048101928261069757600085556106de565b82601f106106b057805160ff19168380011785556106de565b828001600101855582156106de579182015b828111156106dd5782518255916020019190600101906106c2565b5b5090506106eb91906106ef565b5090565b5b808211156107085760008160009055506001016106f0565b5090565b600061071f61071a84610afd565b610ad8565b90508281526020810184848401111561073757600080fd5b610742848285610bc8565b509392505050565b60008135905061075981610dbd565b92915050565b60008151905061076e81610dd4565b92915050565b600082601f83011261078557600080fd5b813561079584826020860161070c565b91505092915050565b6000606082840312156107b057600080fd5b6107ba6060610ad8565b9050600082013567ffffffffffffffff8111156107d657600080fd5b6107e284828501610774565b60008301525060206107f684828501610816565b602083015250604061080a84828501610816565b60408301525092915050565b60008135905061082581610deb565b92915050565b6000806040838503121561083e57600080fd5b600061084c8582860161074a565b925050602083013567ffffffffffffffff81111561086957600080fd5b6108758582860161079e565b9150509250929050565b60006020828403121561089157600080fd5b600061089f8482850161075f565b91505092915050565b6000602082840312156108ba57600080fd5b600082013567ffffffffffffffff8111156108d457600080fd5b6108e084828501610774565b91505092915050565b6108f281610b5b565b82525050565b61090181610bb6565b82525050565b600061091282610b2e565b61091c8185610b39565b935061092c818560208601610bd7565b61093581610cfa565b840191505092915050565b600061094b82610b2e565b6109558185610b4a565b9350610965818560208601610bd7565b61096e81610cfa565b840191505092915050565b6000610986602983610b4a565b915061099182610d0b565b604082019050919050565b60006109a9602a83610b4a565b91506109b482610d5a565b604082019050919050565b600060608301600083015184820360008601526109dc8282610907565b91505060208301516109f16020860182610a0f565b506040830151610a046040860182610a0f565b508091505092915050565b610a1881610bac565b82525050565b6000602082019050610a3360008301846108e9565b92915050565b6000602082019050610a4e60008301846108f8565b92915050565b60006020820190508181036000830152610a6e8184610940565b905092915050565b60006020820190508181036000830152610a8f81610979565b9050919050565b60006020820190508181036000830152610aaf8161099c565b9050919050565b60006020820190508181036000830152610ad081846109bf565b905092915050565b6000610ae2610af3565b9050610aee8282610c3c565b919050565b6000604051905090565b600067ffffffffffffffff821115610b1857610b17610ccb565b5b610b2182610cfa565b9050602081019050919050565b600081519050919050565b600082825260208201905092915050565b600082825260208201905092915050565b6000610b6682610b8c565b9050919050565b60008115159050919050565b6000819050610b8782610da9565b919050565b600073ffffffffffffffffffffffffffffffffffffffff82169050919050565b6000819050919050565b6000610bc182610b79565b9050919050565b82818337600083830152505050565b60005b83811015610bf5578082015181840152602081019050610bda565b83811115610c04576000848401525b50505050565b60006002820490506001821680610c2257607f821691505b60208210811415610c3657610c35610c9c565b5b50919050565b610c4582610cfa565b810181811067ffffffffffffffff82111715610c6457610c63610ccb565b5b80604052505050565b7f4e487b7100000000000000000000000000000000000000000000000000000000600052602160045260246000fd5b7f4e487b7100000000000000000000000000000000000000000000000000000000600052602260045260246000fd5b7f4e487b7100000000000000000000000000000000000000000000000000000000600052604160045260246000fd5b6000601f19601f8301169050919050565b7f576f726b52656c6174696f6e736869703a2063616c6c6572206973206e6f742060008201527f746865206f776e65720000000000000000000000000000000000000000000000602082015250565b7f576f726b52656c6174696f6e736869703a2063616c6c6572206973206e6f742060008201527f74686520776f726b657200000000000000000000000000000000000000000000602082015250565b60078110610dba57610db9610c6d565b5b50565b610dc681610b5b565b8114610dd157600080fd5b50565b610ddd81610b6d565b8114610de857600080fd5b50565b610df481610bac565b8114610dff57600080fd5b5056fea2646970667358221220793b928b34e61d8984f3d6e8d8a3577ff06b1ab605dd46e524dcb2c321cde72e64736f6c63430008040033a2646970667358221220b096fcf665810c5626364119bcf1e164cf36aa34125c6dd7ebaa6b2e8c54c38a64736f6c63430008040033",
  "immutableReferences": {},
  "source": "// SPDX-License-Identifier: MIT\n\npragma solidity 0.8.4;\n\nimport \"@openzeppelin/contracts/access/Ownable.sol\";\nimport \"@openzeppelin/contracts/security/Pausable.sol\";\nimport \"../libraries/Evaluation.sol\";\nimport \"../exchange/WorkRelationship.sol\";\nimport \"../libraries/MarketLib.sol\";\nimport \"../control/Controllable.sol\";\n\ncontract Market is Ownable, Controllable, Pausable {\n    event MarketPaused(\n        address indexed marketAddress,\n        string indexed marketName\n    );\n    event MarketResumed(\n        address indexed marketAddress,\n        string indexed marketName\n    );\n    event WorkRelationshipCreated(\n        address indexed owner,\n        address indexed relationship,\n        address indexed marketAddress\n    );\n    event WorkRelationshipEnded(\n        address indexed owner,\n        address indexed relationship\n    );\n\n    string public _marketName;\n    MarketLib.MarketType public _marketType;\n    uint256 public _requiredReputation;\n    uint256 public _requiredIndustryWeight;\n    MarketLib.MarketStatus public _marketStatus;\n\n    WorkRelationship[] _createdJobs;\n\n    constructor(string memory marketName, MarketLib.MarketType marketType) {\n        _marketName = marketName;\n        _marketType = marketType;\n        // _requiredReputation = requiredReputation;\n        // _requiredIndustryWeight = requiredIndustryWeight;\n    }\n\n    /**\n     * Creates a user summary contract for each user based on their civic ID.\n     */\n    function createJob(address jobRequester, string memory taskMetadataPointer\n    ) external {\n        require(jobRequester != address(0));\n        WorkRelationship createdJob =\n            new WorkRelationship(jobRequester, taskMetadataPointer);\n        _createdJobs.push(createdJob);\n        emit WorkRelationshipCreated(\n            jobRequester,\n            address(createdJob),\n            address(this)\n        );\n    }\n\n    /**\n     *\n     */\n    function getNumJobs() public view returns (uint256) {\n        return _createdJobs.length;\n    }\n\n    function pauseMarket()\n        external\n        onlyOwner\n        onlyGlobalController(msg.sender)\n        onlyDefaultMarkets(_marketType)\n        onlyNotPausedState(_marketStatus)\n    {\n        _pause();\n    }\n\n    function resumeMarket()\n        external\n        onlyOwner\n        onlyGlobalController(msg.sender)\n        onlyDefaultMarkets(_marketType)\n        onlyPausedState(_marketStatus)\n    {\n        _unpause();\n    }\n\n    function getMarketState() public view returns (bool) {\n        return paused();\n    }\n\n    function getWorkRelationships() external view returns (WorkRelationship[] memory) {\n        return _createdJobs;\n    }\n\n    function destroyMarket() internal onlyOwner {\n        //selfdestruct();\n    }\n}\n",
  "sourcePath": "/Users/elijahhampton/Desktop/opportunity-core/src/contracts/market/Market.sol",
  "compiler": {
    "name": "solc",
    "version": "0.8.4+commit.c7e474f2.Emscripten.clang"
  },
  "schemaVersion": "3.4.1",
  "updatedAt": "2021-06-23T02:55:44.794Z",
  "networkType": "ethereum",
  "devdoc": {
    "kind": "dev",
    "methods": {
      "owner()": {
        "details": "Returns the address of the current owner."
      },
      "paused()": {
        "details": "Returns true if the contract is paused, and false otherwise."
      },
      "renounceOwnership()": {
        "details": "Leaves the contract without owner. It will not be possible to call `onlyOwner` functions anymore. Can only be called by the current owner. NOTE: Renouncing ownership will leave the contract without an owner, thereby removing any functionality that is only available to the owner."
      },
      "transferOwnership(address)": {
        "details": "Transfers ownership of the contract to a new account (`newOwner`). Can only be called by the current owner."
      }
    },
    "version": 1
  },
  "userdoc": {
    "kind": "user",
    "methods": {
      "createJob(address,string)": {
        "notice": "Creates a user summary contract for each user based on their civic ID."
      }
    },
    "version": 1
  }
}