{
  "contractName": "MultiPartyOwneable",
  "abi": [
    {
      "inputs": [
        {
          "internalType": "address",
          "name": "newWorker",
          "type": "address"
        }
      ],
      "stateMutability": "nonpayable",
      "type": "constructor"
    },
    {
      "anonymous": false,
      "inputs": [
        {
          "indexed": true,
          "internalType": "address",
          "name": "previousWorker",
          "type": "address"
        },
        {
          "indexed": true,
          "internalType": "address",
          "name": "newWorker",
          "type": "address"
        }
      ],
      "name": "OwnershipTransferred",
      "type": "event"
    },
    {
      "inputs": [],
      "name": "owner",
      "outputs": [
        {
          "internalType": "address",
          "name": "",
          "type": "address"
        }
      ],
      "stateMutability": "view",
      "type": "function"
    },
    {
      "inputs": [],
      "name": "worker",
      "outputs": [
        {
          "internalType": "address",
          "name": "",
          "type": "address"
        }
      ],
      "stateMutability": "view",
      "type": "function"
    },
    {
      "inputs": [],
      "name": "renounceOwnership",
      "outputs": [],
      "stateMutability": "nonpayable",
      "type": "function"
    },
    {
      "inputs": [
        {
          "internalType": "address",
          "name": "newWorker",
          "type": "address"
        }
      ],
      "name": "transferOwnership",
      "outputs": [],
      "stateMutability": "nonpayable",
      "type": "function"
    }
  ],
  "bytecode": "0x608060405234801561001057600080fd5b506040516106d23803806106d283398181016040528101906100329190610166565b600061004261014960201b60201c565b9050806000806101000a81548173ffffffffffffffffffffffffffffffffffffffff021916908373ffffffffffffffffffffffffffffffffffffffff16021790555081600160006101000a81548173ffffffffffffffffffffffffffffffffffffffff021916908373ffffffffffffffffffffffffffffffffffffffff160217905550600160009054906101000a900473ffffffffffffffffffffffffffffffffffffffff1673ffffffffffffffffffffffffffffffffffffffff16600073ffffffffffffffffffffffffffffffffffffffff167f8be0079c531659141344cd1fd0a4f28419497f9722a3daafe3b4186f6b6457e060405160405180910390a350506101d8565b600033905090565b600081519050610160816101c1565b92915050565b60006020828403121561017857600080fd5b600061018684828501610151565b91505092915050565b600061019a826101a1565b9050919050565b600073ffffffffffffffffffffffffffffffffffffffff82169050919050565b6101ca8161018f565b81146101d557600080fd5b50565b6104eb806101e76000396000f3fe608060405234801561001057600080fd5b506004361061004c5760003560e01c80634d547ada14610051578063715018a61461006f5780638da5cb5b14610079578063f2fde38b14610097575b600080fd5b6100596100b3565b60405161006691906103f7565b60405180910390f35b6100776100dd565b005b61008161021a565b60405161008e91906103f7565b60405180910390f35b6100b160048036038101906100ac919061039c565b610243565b005b6000600160009054906101000a900473ffffffffffffffffffffffffffffffffffffffff16905090565b6100e56100b3565b73ffffffffffffffffffffffffffffffffffffffff166101036100b3565b73ffffffffffffffffffffffffffffffffffffffff1614610159576040517f08c379a000000000000000000000000000000000000000000000000000000000815260040161015090610412565b60405180910390fd5b600073ffffffffffffffffffffffffffffffffffffffff16600160009054906101000a900473ffffffffffffffffffffffffffffffffffffffff1673ffffffffffffffffffffffffffffffffffffffff167f8be0079c531659141344cd1fd0a4f28419497f9722a3daafe3b4186f6b6457e060405160405180910390a36000600160006101000a81548173ffffffffffffffffffffffffffffffffffffffff021916908373ffffffffffffffffffffffffffffffffffffffff160217905550565b60008060009054906101000a900473ffffffffffffffffffffffffffffffffffffffff16905090565b61024b61037f565b73ffffffffffffffffffffffffffffffffffffffff1661026961021a565b73ffffffffffffffffffffffffffffffffffffffff16146102bf576040517f08c379a00000000000000000000000000000000000000000000000000000000081526004016102b690610412565b60405180910390fd5b8073ffffffffffffffffffffffffffffffffffffffff16600160009054906101000a900473ffffffffffffffffffffffffffffffffffffffff1673ffffffffffffffffffffffffffffffffffffffff167f8be0079c531659141344cd1fd0a4f28419497f9722a3daafe3b4186f6b6457e060405160405180910390a380600160006101000a81548173ffffffffffffffffffffffffffffffffffffffff021916908373ffffffffffffffffffffffffffffffffffffffff16021790555050565b600033905090565b6000813590506103968161049e565b92915050565b6000602082840312156103ae57600080fd5b60006103bc84828501610387565b91505092915050565b6103ce81610443565b82525050565b60006103e1602083610432565b91506103ec82610475565b602082019050919050565b600060208201905061040c60008301846103c5565b92915050565b6000602082019050818103600083015261042b816103d4565b9050919050565b600082825260208201905092915050565b600061044e82610455565b9050919050565b600073ffffffffffffffffffffffffffffffffffffffff82169050919050565b7f4f776e61626c653a2063616c6c6572206973206e6f7420746865206f776e6572600082015250565b6104a781610443565b81146104b257600080fd5b5056fea26469706673582212207bdb187d71d63a55ffca28808f5269a49fec0a60334e64c4cddf3316d017612b64736f6c63430008040033",
  "immutableReferences": {},
  "source": "// SPDX-License-Identifier: MIT\n\npragma solidity 0.8.4;\n\nimport \"@openzeppelin/contracts/utils/Context.sol\";\n/**\n * @dev Contract module which provides a basic access control mechanism, where\n * there is a requester (an owner) and a worker (another owner) that can be granted exclusive access to\n * specific functions.\n *\n * By default, the requester account will be the one that deploys the contract.  This can never be changed, however\n * the ownership of the second owner (the worker) can later be changed with transferOwnership.\n *\n * This module is used through inheritance. It will make available the modifier\n * `onlyContractOwner` and `onlyContractWorker` which can be applied to your functions to restrict their use to\n * their respective owners.\n */\ncontract MultiPartyOwneable is Context {\n\n    event OwnershipTransferred(address indexed previousWorker, address indexed newWorker);\n\n    address private _owner; //Requester\n    address private _worker; // Worker\n    /**\n     * @dev Initializes the contract setting the deployer as the initial owner.\n     */\n    constructor (address newWorker) {\n        address msgSender = _msgSender();\n        _owner = msgSender;\n        _worker = newWorker;\n\n        emit OwnershipTransferred(address(0), _worker);\n    }\n\n    /**\n     * @dev Returns the address of the current owner.\n     */\n    function owner() public view virtual returns (address) {\n        return _owner;\n    }\n\n    /**\n     * @dev Returns the address of the current owner.\n     */\n    function worker() public view virtual returns (address) {\n        return _worker;\n    }\n\n    /**\n     * @dev Throws if called by any account other than the owner.\n     */\n    modifier onlyOwner() {\n        require(owner() == _msgSender(), \"Ownable: caller is not the owner\");\n        _;\n    }\n\n    /**\n     * @dev Throws if called by any account other than the owner.\n     */\n    modifier onlyWorker() {\n        require(worker() == worker(), \"Ownable: caller is not the owner\");\n        _;\n    }\n\n    /**\n     * @dev Leaves the contract without owner. It will not be possible to call\n     * `onlyOwner` functions anymore. Can only be called by the current owner.\n     *\n     * NOTE: Renouncing ownership will leave the contract without an owner,\n     * thereby removing any functionality that is only available to the owner.\n     */\n    function renounceOwnership() public virtual onlyWorker {\n        emit OwnershipTransferred(_worker, address(0));\n        _worker = address(0);\n    }\n\n    /**\n     * @dev Transfers ownership of the contract to a new account (`newOwner`).\n     * Can only be called by the current owner.\n     */\n    function transferOwnership(address newWorker) public virtual onlyOwner {\n        //We allow the contract to be transferred to address (0) to\n        //signify there is no current worker for the contract\n        //require(newWorker != address(0), \"Ownable: new owner is the zero address\");\n        emit OwnershipTransferred(_worker, newWorker);\n        _worker = newWorker;\n    }\n}\n",
  "sourcePath": "/Users/elijahhampton/Desktop/opportunity-core/src/contracts/exchange/MultiPartyOwneable.sol",
  "compiler": {
    "name": "solc",
    "version": "0.8.4+commit.c7e474f2.Emscripten.clang"
  },
  "schemaVersion": "3.4.1",
  "updatedAt": "2021-06-08T15:27:12.310Z",
  "networkType": "ethereum",
  "devdoc": {
    "details": "Contract module which provides a basic access control mechanism, where there is a requester (an owner) and a worker (another owner) that can be granted exclusive access to specific functions. By default, the requester account will be the one that deploys the contract.  This can never be changed, however the ownership of the second owner (the worker) can later be changed with transferOwnership. This module is used through inheritance. It will make available the modifier `onlyContractOwner` and `onlyContractWorker` which can be applied to your functions to restrict their use to their respective owners.",
    "kind": "dev",
    "methods": {
      "constructor": {
        "details": "Initializes the contract setting the deployer as the initial owner."
      },
      "owner()": {
        "details": "Returns the address of the current owner."
      },
      "renounceOwnership()": {
        "details": "Leaves the contract without owner. It will not be possible to call `onlyOwner` functions anymore. Can only be called by the current owner. NOTE: Renouncing ownership will leave the contract without an owner, thereby removing any functionality that is only available to the owner."
      },
      "transferOwnership(address)": {
        "details": "Transfers ownership of the contract to a new account (`newOwner`). Can only be called by the current owner."
      },
      "worker()": {
        "details": "Returns the address of the current owner."
      }
    },
    "version": 1
  },
  "userdoc": {
    "kind": "user",
    "methods": {},
    "version": 1
  }
}