{
  "contractName": "Pausable",
  "abi": [
    {
      "inputs": [
        {
          "internalType": "address",
          "name": "contractOwner",
          "type": "address"
        }
      ],
      "stateMutability": "nonpayable",
      "type": "constructor"
    },
    {
      "inputs": [
        {
          "internalType": "bool",
          "name": "paused",
          "type": "bool"
        }
      ],
      "name": "setPaused",
      "outputs": [],
      "stateMutability": "nonpayable",
      "type": "function"
    }
  ],
  "bytecode": "0x608060405260008060006101000a81548160ff02191690831515021790555034801561002a57600080fd5b50604051610343380380610343833981810160405281019061004c91906100c2565b60008060006101000a81548160ff02191690831515021790555080600060016101000a81548173ffffffffffffffffffffffffffffffffffffffff021916908373ffffffffffffffffffffffffffffffffffffffff16021790555050610134565b6000815190506100bc8161011d565b92915050565b6000602082840312156100d457600080fd5b60006100e2848285016100ad565b91505092915050565b60006100f6826100fd565b9050919050565b600073ffffffffffffffffffffffffffffffffffffffff82169050919050565b610126816100eb565b811461013157600080fd5b50565b610200806101436000396000f3fe608060405234801561001057600080fd5b506004361061002b5760003560e01c806316c38b3c14610030575b600080fd5b61004a6004803603810190610045919061010d565b61004c565b005b3373ffffffffffffffffffffffffffffffffffffffff16600060019054906101000a900473ffffffffffffffffffffffffffffffffffffffff1673ffffffffffffffffffffffffffffffffffffffff16146100dc576040517f08c379a00000000000000000000000000000000000000000000000000000000081526004016100d390610176565b60405180910390fd5b806000806101000a81548160ff02191690831515021790555050565b600081359050610107816101b3565b92915050565b60006020828403121561011f57600080fd5b600061012d848285016100f8565b91505092915050565b6000610143601783610196565b91507f43616c6c6572206973206e6f7420746865206f776e65720000000000000000006000830152602082019050919050565b6000602082019050818103600083015261018f81610136565b9050919050565b600082825260208201905092915050565b60008115159050919050565b6101bc816101a7565b81146101c757600080fd5b5056fea2646970667358221220f15264a90b42f1dafa6b9e9e05aa8b044891dd7e4d2a0d413bc211a7a7bc601164736f6c63430008000033",
  "immutableReferences": {},
  "source": "// SPDX-License-Identifier: MIT\n\npragma solidity ^0.8.0;\n\ncontract Pausable {\n    bool _isPaused = false;\n    address private _owner;\n\n    constructor(address contractOwner) {\n        _isPaused = false;\n        _owner = contractOwner;\n    }\n\n        /**\n     * @dev Throws if called by any account other than the owner.\n     */\n    modifier onlyOwner() {\n        require(_owner == msg.sender, \"Caller is not the owner\");\n        _;\n    }\n\n\n    modifier onlyNotPausedState {\n        require(_isPaused == false);\n        _;\n    }\n\n    modifier onlyPausedState {\n        require(_isPaused == true);\n        _;\n    }\n\n    function setPaused(bool paused) public onlyOwner {\n        _isPaused = paused;\n    }\n}",
  "sourcePath": "/Users/elijahhampton/Desktop/opportunity-core/src/contracts/Pausable.sol",
  "compiler": {
    "name": "solc",
    "version": "0.8.0+commit.c7dfd78e.Emscripten.clang"
  },
  "schemaVersion": "3.3.4",
  "updatedAt": "2021-04-28T01:58:47.278Z",
  "devdoc": {
    "kind": "dev",
    "methods": {},
    "version": 1
  },
  "userdoc": {
    "kind": "user",
    "methods": {},
    "version": 1
  }
}