{
  "contractName": "TimeLocked",
  "abi": [
    {
      "inputs": [
        {
          "internalType": "bool",
          "name": "isTimeLocked",
          "type": "bool"
        }
      ],
      "stateMutability": "nonpayable",
      "type": "constructor"
    },
    {
      "anonymous": false,
      "inputs": [],
      "name": "DisableTimeLock",
      "type": "event"
    },
    {
      "anonymous": false,
      "inputs": [],
      "name": "EnableTimeLock",
      "type": "event"
    },
    {
      "anonymous": false,
      "inputs": [],
      "name": "LockExpired",
      "type": "event"
    },
    {
      "inputs": [],
      "name": "lock",
      "outputs": [],
      "stateMutability": "nonpayable",
      "type": "function"
    },
    {
      "inputs": [],
      "name": "unlock",
      "outputs": [],
      "stateMutability": "nonpayable",
      "type": "function"
    },
    {
      "inputs": [],
      "name": "lockExpired",
      "outputs": [],
      "stateMutability": "nonpayable",
      "type": "function"
    }
  ],
  "bytecode": "0x608060405234801561001057600080fd5b5060405161022b38038061022b83398181016040528101906100329190610066565b806000806101000a81548160ff021916908315150217905550506100b2565b6000815190506100608161009b565b92915050565b60006020828403121561007857600080fd5b600061008684828501610051565b91505092915050565b60008115159050919050565b6100a48161008f565b81146100af57600080fd5b50565b61016a806100c16000396000f3fe608060405234801561001057600080fd5b50600436106100415760003560e01c8063a69df4b514610046578063bb025a3f14610050578063f83d08ba1461005a575b600080fd5b61004e610064565b005b6100586100b1565b005b6100626100e7565b005b6000151560008054906101000a900460ff161515141561008357600080fd5b7f13477b657794f46ff2a7bbc09c2dc3e14ef9e4f8a63bc3cc2947f47c77fe96c460405160405180910390a1565b6100b9610064565b7ff6fafba06fce0f92ac193f1d0d3d7f06fd88e14fa56d41426b4af16dc950aee660405160405180910390a1565b6001151560008054906101000a900460ff161515141561010657600080fd5b7feda38312398f1ac3ee206b595e658bb4e2b17edb6024056f3ac109c22d3a482a60405160405180910390a156fea2646970667358221220589a531c494cba0ce1e4773781bc636f96a7cdf6da82e75e84ec611b55faac6964736f6c63430008000033",
  "immutableReferences": {},
  "source": "// SPDX-License-Identifier: MIT\n\npragma solidity ^0.8.0;\n\ncontract TimeLocked {\n    event EnableTimeLock();\n    event DisableTimeLock();\n    event LockExpired();\n\n    bool private _lockStatus;\n\n    constructor(bool isTimeLocked) {\n        _lockStatus = isTimeLocked;\n    }\n\n    function lock() public {\n        require(_lockStatus != true);\n        emit EnableTimeLock();\n    }\n\n    function unlock() public {\n        require(_lockStatus != false);\n        emit DisableTimeLock();\n    }\n\n    function lockExpired() public {\n        unlock();\n        emit LockExpired();\n    }\n}",
  "sourcePath": "/Users/elijahhampton/git/opportunity-core/src/contracts/TimeLocked.sol",
  "compiler": {
    "name": "solc",
    "version": "0.8.0+commit.c7dfd78e.Emscripten.clang"
  },
  "schemaVersion": "3.4.1",
  "updatedAt": "2021-05-18T01:40:24.368Z",
  "devdoc": {
    "kind": "dev",
    "methods": {},
    "version": 1
  },
  "userdoc": {
    "kind": "user",
    "methods": {},
    "version": 1
  }
}