{
  "contractName": "UserRegistration",
  "abi": [
    {
      "inputs": [],
      "stateMutability": "nonpayable",
      "type": "constructor"
    },
    {
      "anonymous": false,
      "inputs": [
        {
          "indexed": true,
          "internalType": "address",
          "name": "universalAddress",
          "type": "address"
        }
      ],
      "name": "UserAssignedTrueIdentification",
      "type": "event"
    },
    {
      "anonymous": false,
      "inputs": [
        {
          "indexed": true,
          "internalType": "string",
          "name": "uniqueHash",
          "type": "string"
        },
        {
          "indexed": true,
          "internalType": "address",
          "name": "universalAddress",
          "type": "address"
        }
      ],
      "name": "UserRegistered",
      "type": "event"
    },
    {
      "inputs": [
        {
          "internalType": "string",
          "name": "uniqueHash",
          "type": "string"
        },
        {
          "internalType": "address",
          "name": "newUniversalAddress",
          "type": "address"
        }
      ],
      "name": "registerNewUser",
      "outputs": [
        {
          "internalType": "bool",
          "name": "",
          "type": "bool"
        }
      ],
      "stateMutability": "nonpayable",
      "type": "function"
    },
    {
      "inputs": [
        {
          "internalType": "string",
          "name": "uniqueHash",
          "type": "string"
        }
      ],
      "name": "getUniversalAddress",
      "outputs": [
        {
          "internalType": "address",
          "name": "",
          "type": "address"
        }
      ],
      "stateMutability": "view",
      "type": "function",
      "constant": true
    },
    {
      "inputs": [
        {
          "internalType": "address",
          "name": "universalAddress",
          "type": "address"
        }
      ],
      "name": "getTrueIdentification",
      "outputs": [
        {
          "internalType": "address",
          "name": "",
          "type": "address"
        }
      ],
      "stateMutability": "view",
      "type": "function",
      "constant": true
    }
  ],
  "bytecode": "0x608060405234801561001057600080fd5b50336000806101000a81548173ffffffffffffffffffffffffffffffffffffffff021916908373ffffffffffffffffffffffffffffffffffffffff16021790555061227a806100606000396000f3fe608060405234801561001057600080fd5b50600436106100415760003560e01c80636bd51ce2146100465780637479601b14610076578063ad3b6693146100a6575b600080fd5b610060600480360381019061005b91906104d2565b6100d6565b60405161006d9190610606565b60405180910390f35b610090600480360381019061008b9190610513565b61011e565b60405161009d9190610621565b60405180910390f35b6100c060048036038101906100bb9190610480565b61020e565b6040516100cd9190610606565b60405180910390f35b60006001826040516100e891906105ef565b908152602001604051809103902060009054906101000a900473ffffffffffffffffffffffffffffffffffffffff169050919050565b60008061012b8484610277565b9050600015158115151461013e57600080fd5b600060405161014c906103e1565b604051809103906000f080158015610168573d6000803e3d6000fd5b50905060008173ffffffffffffffffffffffffffffffffffffffff16631e7ea431876040518263ffffffff1660e01b81526004016101a6919061063c565b602060405180830381600087803b1580156101c057600080fd5b505af11580156101d4573d6000803e3d6000fd5b505050506040513d601f19601f820116820180604052508101906101f891906104a9565b90506102048582610306565b5050505092915050565b6000600260008373ffffffffffffffffffffffffffffffffffffffff1673ffffffffffffffffffffffffffffffffffffffff16815260200190815260200160002060009054906101000a900473ffffffffffffffffffffffffffffffffffffffff169050919050565b6000801515610285846103cf565b15151461029157600080fd5b6000151560011515146102a357600080fd5b816001846040516102b491906105ef565b908152602001604051809103902060006101000a81548173ffffffffffffffffffffffffffffffffffffffff021916908373ffffffffffffffffffffffffffffffffffffffff16021790555092915050565b60008273ffffffffffffffffffffffffffffffffffffffff167ff5bc24e02a40efc25aa4589cefe6f344869db2e7fba258d0afeed27dd86d21c360405160405180910390a281600260008573ffffffffffffffffffffffffffffffffffffffff1673ffffffffffffffffffffffffffffffffffffffff16815260200190815260200160002060006101000a81548173ffffffffffffffffffffffffffffffffffffffff021916908373ffffffffffffffffffffffffffffffffffffffff16021790555092915050565b60006103da826103cf565b9050919050565b611a61806107e483390190565b60006104016103fc84610683565b61065e565b90508281526020810184848401111561041957600080fd5b610424848285610719565b509392505050565b60008135905061043b816107cc565b92915050565b600081519050610450816107cc565b92915050565b600082601f83011261046757600080fd5b81356104778482602086016103ee565b91505092915050565b60006020828403121561049257600080fd5b60006104a08482850161042c565b91505092915050565b6000602082840312156104bb57600080fd5b60006104c984828501610441565b91505092915050565b6000602082840312156104e457600080fd5b600082013567ffffffffffffffff8111156104fe57600080fd5b61050a84828501610456565b91505092915050565b6000806040838503121561052657600080fd5b600083013567ffffffffffffffff81111561054057600080fd5b61054c85828601610456565b925050602061055d8582860161042c565b9150509250929050565b610570816106db565b82525050565b61057f816106ed565b82525050565b6000610590826106b4565b61059a81856106bf565b93506105aa818560208601610728565b6105b3816107bb565b840191505092915050565b60006105c9826106b4565b6105d381856106d0565b93506105e3818560208601610728565b80840191505092915050565b60006105fb82846105be565b915081905092915050565b600060208201905061061b6000830184610567565b92915050565b60006020820190506106366000830184610576565b92915050565b600060208201905081810360008301526106568184610585565b905092915050565b6000610668610679565b9050610674828261075b565b919050565b6000604051905090565b600067ffffffffffffffff82111561069e5761069d61078c565b5b6106a7826107bb565b9050602081019050919050565b600081519050919050565b600082825260208201905092915050565b600081905092915050565b60006106e6826106f9565b9050919050565b60008115159050919050565b600073ffffffffffffffffffffffffffffffffffffffff82169050919050565b82818337600083830152505050565b60005b8381101561074657808201518184015260208101905061072b565b83811115610755576000848401525b50505050565b610764826107bb565b810181811067ffffffffffffffff821117156107835761078261078c565b5b80604052505050565b7f4e487b7100000000000000000000000000000000000000000000000000000000600052604160045260246000fd5b6000601f19601f8301169050919050565b6107d5816106db565b81146107e057600080fd5b5056fe608060405234801561001057600080fd5b50611a41806100206000396000f3fe60806040523480156200001157600080fd5b50600436106200003a5760003560e01c80631e7ea431146200003f5780636101579c1462000075575b600080fd5b6200005d6004803603810190620000579190620002e0565b62000097565b6040516200006c919062000388565b60405180910390f35b6200007f62000211565b6040516200008e9190620003c9565b60405180910390f35b60008082604051620000a9906200021d565b620000b59190620003a5565b604051809103906000f080158015620000d2573d6000803e3d6000fd5b5090506000805490508173ffffffffffffffffffffffffffffffffffffffff167f1762bfd94f025a6c436d21288b439881cfef6b3834e1b6197855c0211e04227b60405160405180910390a36000819080600181540180825580915050600190039060005260206000200160009091909190916101000a81548173ffffffffffffffffffffffffffffffffffffffff021916908373ffffffffffffffffffffffffffffffffffffffff16021790555060008173ffffffffffffffffffffffffffffffffffffffff166332a2c5d06040518163ffffffff1660e01b815260040160206040518083038186803b158015620001ca57600080fd5b505afa158015620001df573d6000803e3d6000fd5b505050506040513d601f19601f82011682018060405250810190620002059190620002b4565b90508092505050919050565b60008080549050905090565b611497806200057583390190565b6000620002426200023c846200040f565b620003e6565b9050828152602081018484840111156200025b57600080fd5b620002688482856200049f565b509392505050565b60008151905062000281816200055a565b92915050565b600082601f8301126200029957600080fd5b8135620002ab8482602086016200022b565b91505092915050565b600060208284031215620002c757600080fd5b6000620002d78482850162000270565b91505092915050565b600060208284031215620002f357600080fd5b600082013567ffffffffffffffff8111156200030e57600080fd5b6200031c8482850162000287565b91505092915050565b620003308162000461565b82525050565b6000620003438262000445565b6200034f818562000450565b935062000361818560208601620004ae565b6200036c8162000549565b840191505092915050565b620003828162000495565b82525050565b60006020820190506200039f600083018462000325565b92915050565b60006020820190508181036000830152620003c1818462000336565b905092915050565b6000602082019050620003e0600083018462000377565b92915050565b6000620003f262000405565b9050620004008282620004e4565b919050565b6000604051905090565b600067ffffffffffffffff8211156200042d576200042c6200051a565b5b620004388262000549565b9050602081019050919050565b600081519050919050565b600082825260208201905092915050565b60006200046e8262000475565b9050919050565b600073ffffffffffffffffffffffffffffffffffffffff82169050919050565b6000819050919050565b82818337600083830152505050565b60005b83811015620004ce578082015181840152602081019050620004b1565b83811115620004de576000848401525b50505050565b620004ef8262000549565b810181811067ffffffffffffffff821117156200051157620005106200051a565b5b80604052505050565b7f4e487b7100000000000000000000000000000000000000000000000000000000600052604160045260246000fd5b6000601f19601f8301169050919050565b620005658162000461565b81146200057157600080fd5b5056fe60806040523480156200001157600080fd5b506040516200149738038062001497833981810160405281019062000037919062000196565b80600090805190602001906200004f92919062000074565b506001808190555060006006600001819055506000600960000181905550506200034b565b828054620000829062000270565b90600052602060002090601f016020900481019282620000a65760008555620000f2565b82601f10620000c157805160ff1916838001178555620000f2565b82800160010185558215620000f2579182015b82811115620000f1578251825591602001919060010190620000d4565b5b50905062000101919062000105565b5090565b5b808211156200012057600081600090555060010162000106565b5090565b60006200013b620001358462000204565b620001db565b9050828152602081018484840111156200015457600080fd5b620001618482856200023a565b509392505050565b600082601f8301126200017b57600080fd5b81516200018d84826020860162000124565b91505092915050565b600060208284031215620001a957600080fd5b600082015167ffffffffffffffff811115620001c457600080fd5b620001d28482850162000169565b91505092915050565b6000620001e7620001fa565b9050620001f58282620002a6565b919050565b6000604051905090565b600067ffffffffffffffff8211156200022257620002216200030b565b5b6200022d826200033a565b9050602081019050919050565b60005b838110156200025a5780820151818401526020810190506200023d565b838111156200026a576000848401525b50505050565b600060028204905060018216806200028957607f821691505b60208210811415620002a0576200029f620002dc565b5b50919050565b620002b1826200033a565b810181811067ffffffffffffffff82111715620002d357620002d26200030b565b5b80604052505050565b7f4e487b7100000000000000000000000000000000000000000000000000000000600052602260045260246000fd5b7f4e487b7100000000000000000000000000000000000000000000000000000000600052604160045260246000fd5b6000601f19601f8301169050919050565b61113c806200035b6000396000f3fe608060405234801561001057600080fd5b50600436106100575760003560e01c806332a2c5d01461005c5780635a0aa0391461007a5780635d5f221f146100965780636f61c744146100c65780637c108333146100e6575b600080fd5b610064610102565b6040516100719190610d46565b60405180910390f35b610094600480360381019061008f9190610b32565b61010a565b005b6100b060048036038101906100ab9190610af1565b610248565b6040516100bd9190610da6565b60405180910390f35b6100ce61024f565b6040516100dd93929190610d61565b60405180910390f35b61010060048036038101906100fb9190610ac8565b6103da565b005b600030905090565b806000805461011890610f77565b80601f016020809104026020016040519081016040528092919081815260200182805461014490610f77565b80156101915780601f1061016657610100808354040283529160200191610191565b820191906000526020600020905b81548152906001019060200180831161017457829003601f168201915b50505050506101a08282610478565b6101a957600080fd5b83600260008201518160000190805190602001906101c8929190610702565b5060208201518160010190805190602001906101e5929190610762565b5060408201518160020160006101000a81548160ff021916908360ff1602179055509050507fffd08c3243342938c0b652021dcfcf53eaf5da92af5d1d4435d1f505df88f8d3600060405161023a9190610dc1565b60405180910390a150505050565b6000919050565b6060806000600260000160026001016002800160009054906101000a900460ff1682805480602002602001604051908101604052809291908181526020016000905b8282101561033d5783829060005260206000200180546102b090610f77565b80601f01602080910402602001604051908101604052809291908181526020018280546102dc90610f77565b80156103295780601f106102fe57610100808354040283529160200191610329565b820191906000526020600020905b81548152906001019060200180831161030c57829003601f168201915b505050505081526020019060010190610291565b50505050925081805461034f90610f77565b80601f016020809104026020016040519081016040528092919081815260200182805461037b90610f77565b80156103c85780601f1061039d576101008083540402835291602001916103c8565b820191906000526020600020905b8154815290600101906020018083116103ab57829003601f168201915b50505050509150925092509250909192565b6005819080600181540180825580915050600190039060005260206000200160009091909190916101000a81548173ffffffffffffffffffffffffffffffffffffffff021916908373ffffffffffffffffffffffffffffffffffffffff1602179055507fffd08c3243342938c0b652021dcfcf53eaf5da92af5d1d4435d1f505df88f8d3600060405161046d9190610dc1565b60405180910390a150565b600080610485848461048e565b14905092915050565b600080839050600083905060008251905080825110156104ad57815190505b60005b818110156106a8578281815181106104f1577f4e487b7100000000000000000000000000000000000000000000000000000000600052603260045260246000fd5b602001015160f81c60f81b7effffffffffffffffffffffffffffffffffffffffffffffffffffffffffffff1916848281518110610557577f4e487b7100000000000000000000000000000000000000000000000000000000600052603260045260246000fd5b602001015160f81c60f81b7effffffffffffffffffffffffffffffffffffffffffffffffffffffffffffff191610156105b6577fffffffffffffffffffffffffffffffffffffffffffffffffffffffffffffffff9450505050506106fc565b8281815181106105ef577f4e487b7100000000000000000000000000000000000000000000000000000000600052603260045260246000fd5b602001015160f81c60f81b7effffffffffffffffffffffffffffffffffffffffffffffffffffffffffffff1916848281518110610655577f4e487b7100000000000000000000000000000000000000000000000000000000600052603260045260246000fd5b602001015160f81c60f81b7effffffffffffffffffffffffffffffffffffffffffffffffffffffffffffff191611156106955760019450505050506106fc565b80806106a090610fda565b9150506104b0565b508151835110156106de577fffffffffffffffffffffffffffffffffffffffffffffffffffffffffffffffff93505050506106fc565b8151835111156106f457600193505050506106fc565b600093505050505b92915050565b828054828255906000526020600020908101928215610751579160200282015b82811115610750578251829080519060200190610740929190610762565b5091602001919060010190610722565b5b50905061075e91906107e8565b5090565b82805461076e90610f77565b90600052602060002090601f01602090048101928261079057600085556107d7565b82601f106107a957805160ff19168380011785556107d7565b828001600101855582156107d7579182015b828111156107d65782518255916020019190600101906107bb565b5b5090506107e4919061080c565b5090565b5b8082111561080857600081816107ff9190610829565b506001016107e9565b5090565b5b8082111561082557600081600090555060010161080d565b5090565b50805461083590610f77565b6000825580601f106108475750610866565b601f016020900490600052602060002090810190610865919061080c565b5b50565b600061087c61087784610e08565b610de3565b9050808382526020820190508285602086028201111561089b57600080fd5b60005b858110156108e557813567ffffffffffffffff8111156108bd57600080fd5b8086016108ca898261096c565b8552602085019450602084019350505060018101905061089e565b5050509392505050565b60006109026108fd84610e34565b610de3565b90508281526020810184848401111561091a57600080fd5b610925848285610f35565b509392505050565b60008135905061093c816110c1565b92915050565b600082601f83011261095357600080fd5b8135610963848260208601610869565b91505092915050565b600082601f83011261097d57600080fd5b813561098d8482602086016108ef565b91505092915050565b6000606082840312156109a857600080fd5b6109b26060610de3565b9050600082013567ffffffffffffffff8111156109ce57600080fd5b6109da8482850161096c565b60008301525060206109ee84828501610a9e565b6020830152506040610a0284828501610a9e565b60408301525092915050565b600060608284031215610a2057600080fd5b610a2a6060610de3565b9050600082013567ffffffffffffffff811115610a4657600080fd5b610a5284828501610942565b600083015250602082013567ffffffffffffffff811115610a7257600080fd5b610a7e8482850161096c565b6020830152506040610a9284828501610ab3565b60408301525092915050565b600081359050610aad816110d8565b92915050565b600081359050610ac2816110ef565b92915050565b600060208284031215610ada57600080fd5b6000610ae88482850161092d565b91505092915050565b600060208284031215610b0357600080fd5b600082013567ffffffffffffffff811115610b1d57600080fd5b610b2984828501610996565b91505092915050565b60008060408385031215610b4557600080fd5b600083013567ffffffffffffffff811115610b5f57600080fd5b610b6b85828601610a0e565b925050602083013567ffffffffffffffff811115610b8857600080fd5b610b948582860161096c565b9150509250929050565b6000610baa8383610c45565b905092915050565b610bbb81610ee0565b82525050565b6000610bcc82610e8a565b610bd68185610ead565b935083602082028501610be885610e65565b8060005b85811015610c245784840389528151610c058582610b9e565b9450610c1083610ea0565b925060208a01995050600181019050610bec565b50829750879550505050505092915050565b610c3f81610ef2565b82525050565b6000610c5082610e95565b610c5a8185610ebe565b9350610c6a818560208601610f44565b610c73816110b0565b840191505092915050565b6000610c8982610e95565b610c938185610ecf565b9350610ca3818560208601610f44565b610cac816110b0565b840191505092915050565b60008154610cc481610f77565b610cce8186610ecf565b94506001821660008114610ce95760018114610cfb57610d2e565b60ff1983168652602086019350610d2e565b610d0485610e75565b60005b83811015610d2657815481890152600182019150602081019050610d07565b808801955050505b50505092915050565b610d4081610f28565b82525050565b6000602082019050610d5b6000830184610bb2565b92915050565b60006060820190508181036000830152610d7b8186610bc1565b90508181036020830152610d8f8185610c7e565b9050610d9e6040830184610d37565b949350505050565b6000602082019050610dbb6000830184610c36565b92915050565b60006020820190508181036000830152610ddb8184610cb7565b905092915050565b6000610ded610dfe565b9050610df98282610fa9565b919050565b6000604051905090565b600067ffffffffffffffff821115610e2357610e22611081565b5b602082029050602081019050919050565b600067ffffffffffffffff821115610e4f57610e4e611081565b5b610e58826110b0565b9050602081019050919050565b6000819050602082019050919050565b60008190508160005260206000209050919050565b600081519050919050565b600081519050919050565b6000602082019050919050565b600082825260208201905092915050565b600082825260208201905092915050565b600082825260208201905092915050565b6000610eeb82610efe565b9050919050565b60008115159050919050565b600073ffffffffffffffffffffffffffffffffffffffff82169050919050565b6000819050919050565b600060ff82169050919050565b82818337600083830152505050565b60005b83811015610f62578082015181840152602081019050610f47565b83811115610f71576000848401525b50505050565b60006002820490506001821680610f8f57607f821691505b60208210811415610fa357610fa2611052565b5b50919050565b610fb2826110b0565b810181811067ffffffffffffffff82111715610fd157610fd0611081565b5b80604052505050565b6000610fe582610f1e565b91507fffffffffffffffffffffffffffffffffffffffffffffffffffffffffffffffff82141561101857611017611023565b5b600182019050919050565b7f4e487b7100000000000000000000000000000000000000000000000000000000600052601160045260246000fd5b7f4e487b7100000000000000000000000000000000000000000000000000000000600052602260045260246000fd5b7f4e487b7100000000000000000000000000000000000000000000000000000000600052604160045260246000fd5b6000601f19601f8301169050919050565b6110ca81610ee0565b81146110d557600080fd5b50565b6110e181610f1e565b81146110ec57600080fd5b50565b6110f881610f28565b811461110357600080fd5b5056fea26469706673582212207e236eb11869d54b01fed48dac5a9a433e31ad929734139826c7d266ff96409964736f6c63430008040033a264697066735822122044a17c261581fed426c07bdf575cebf6e5b182e34964f8a833be715b496d69f564736f6c63430008040033a2646970667358221220c76de862b864ea9622bf2e86bd53657f6bf029cff7c8f4c470607c9e9a610d9f64736f6c63430008040033",
  "immutableReferences": {},
  "source": "// SPDX-License-Identifier: MIT\n\npragma solidity 0.8.4;\n\nimport \"./UserSummaryFactory.sol\";\n\nimport \"../control/Controllable.sol\";\n\ncontract UserRegistration is Controllable { //FU SUV\n\n    //maps a unique authentication hash address to a universal generated address\n    mapping(string => address) private _universalAddress;\n\n    // Mapping of universal address to summary contract address\n    mapping(address => address) private _trueIdentifcations;\n\n    event UserRegistered(string indexed uniqueHash, address indexed universalAddress);\n    event UserAssignedTrueIdentification(address indexed universalAddress);\n\n    constructor() {}\n\n    /**\n     * registerNewUser\n     * Registers a new user to the platform based on their uniqueHash.\n     * @param uniqueHash Hash returned from civic identity wallet\n     * @param newUniversalAddress Universal user address\n     */\n     function registerNewUser(string memory uniqueHash, address newUniversalAddress) external returns(bool) {\n        bool hasAssignedUniversalAddressResult = assignUniversalAddress(uniqueHash, newUniversalAddress);\n        require(hasAssignedUniversalAddressResult == false);\n\n        UserSummaryFactory factory = new UserSummaryFactory();\n        address userSummaryContractAddress = factory.createUserSummary(uniqueHash);\n\n        assignTrueUserIdentification(newUniversalAddress, userSummaryContractAddress);\n     }\n\n     function getUniversalAddress(string memory uniqueHash) view external returns(address) {\n         return _universalAddress[uniqueHash];\n     }\n\n    /**\n     * assignTrueUserIdentification\n     */\n    function assignTrueUserIdentification(address universalAddress, address summaryContractAddress) internal returns(bool) {\n        emit UserAssignedTrueIdentification(universalAddress);\n        _trueIdentifcations[universalAddress] = summaryContractAddress;\n    }\n\n    /**\n     * assignUniversalAddress\n     * Maps a users civic id to the universal address for the platform.\n     * @param uniqueHash Hash returned from civic identity wallet\n     * @param newUniversalAddress Universal user address\n     */\n    function assignUniversalAddress(string memory uniqueHash, address newUniversalAddress) internal returns(bool) {\n        //require this address not to already have a universal address\n        require(hasUniversalAddress(uniqueHash) == false);\n        //require there to not be a universal address at this index\n        require(true == false);\n\n        //assign the civic address to a new universal address\n        _universalAddress[uniqueHash] = newUniversalAddress; \n    }\n\n    /**\n     * hasUniversalAddress\n     * Returns Checks to see if a user has a universal address or not.\n     * @param uniqueHash Hash returned from civic identity wallet\n     * @return bool based on if a user has a universal address or not.\n     */\n    function hasUniversalAddress(string memory uniqueHash) internal view returns(bool) {\n        return hasUniversalAddress(uniqueHash);\n    }\n\n    function getTrueIdentification(address universalAddress) external view returns(address) {\n        return _trueIdentifcations[universalAddress];\n    }\n\n    \n}",
  "sourcePath": "/Users/elijahhampton/Desktop/opportunity-core/src/contracts/user/UserRegistration.sol",
  "compiler": {
    "name": "solc",
    "version": "0.8.4+commit.c7e474f2.Emscripten.clang"
  },
  "schemaVersion": "3.4.1",
  "updatedAt": "2021-06-23T02:55:44.785Z",
  "networkType": "ethereum",
  "devdoc": {
    "kind": "dev",
    "methods": {
      "registerNewUser(string,address)": {
        "params": {
          "newUniversalAddress": "Universal user address",
          "uniqueHash": "Hash returned from civic identity wallet"
        }
      }
    },
    "version": 1
  },
  "userdoc": {
    "kind": "user",
    "methods": {
      "registerNewUser(string,address)": {
        "notice": "registerNewUser Registers a new user to the platform based on their uniqueHash."
      }
    },
    "version": 1
  }
}