{
  "contractName": "UserSummary",
  "abi": [
    {
      "inputs": [
        {
          "internalType": "string",
          "name": "_civicIDIn",
          "type": "string"
        }
      ],
      "stateMutability": "nonpayable",
      "type": "constructor"
    },
    {
      "anonymous": false,
      "inputs": [
        {
          "indexed": true,
          "internalType": "address",
          "name": "previousOwner",
          "type": "address"
        },
        {
          "indexed": true,
          "internalType": "address",
          "name": "newOwner",
          "type": "address"
        }
      ],
      "name": "OwnershipTransferred",
      "type": "event"
    },
    {
      "inputs": [],
      "name": "owner",
      "outputs": [
        {
          "internalType": "address",
          "name": "",
          "type": "address"
        }
      ],
      "stateMutability": "view",
      "type": "function"
    },
    {
      "inputs": [],
      "name": "renounceOwnership",
      "outputs": [],
      "stateMutability": "nonpayable",
      "type": "function"
    },
    {
      "inputs": [
        {
          "internalType": "address",
          "name": "newOwner",
          "type": "address"
        }
      ],
      "name": "transferOwnership",
      "outputs": [],
      "stateMutability": "nonpayable",
      "type": "function"
    },
    {
      "inputs": [],
      "name": "getUserProfile",
      "outputs": [
        {
          "internalType": "string[]",
          "name": "",
          "type": "string[]"
        },
        {
          "internalType": "string",
          "name": "",
          "type": "string"
        },
        {
          "internalType": "string",
          "name": "",
          "type": "string"
        },
        {
          "internalType": "uint8",
          "name": "",
          "type": "uint8"
        }
      ],
      "stateMutability": "view",
      "type": "function"
    },
    {
      "inputs": [],
      "name": "signProfile",
      "outputs": [],
      "stateMutability": "nonpayable",
      "type": "function"
    }
  ],
  "bytecode": "0x60806040523480156200001157600080fd5b5060405162000fbd38038062000fbd8339818101604052810190620000379190620003eb565b600062000049620001ec60201b60201c565b9050806000806101000a81548173ffffffffffffffffffffffffffffffffffffffff021916908373ffffffffffffffffffffffffffffffffffffffff1602179055508073ffffffffffffffffffffffffffffffffffffffff16600073ffffffffffffffffffffffffffffffffffffffff167f8be0079c531659141344cd1fd0a4f28419497f9722a3daafe3b4186f6b6457e060405160405180910390a3508060019080519060200190620000ff929190620001f4565b506001600281905550600067ffffffffffffffff8111156200014a577f4e487b7100000000000000000000000000000000000000000000000000000000600052604160045260246000fd5b6040519080825280602002602001820160405280156200017f57816020015b6060815260200190600190039081620001695790505b50600460000190805190602001906200019a92919062000285565b506040518060200160405280600081525060046001019080519060200190620001c5929190620001f4565b506000600460030160006101000a81548160ff021916908360ff1602179055505062000561565b600033905090565b8280546200020290620004cd565b90600052602060002090601f01602090048101928262000226576000855562000272565b82601f106200024157805160ff191683800117855562000272565b8280016001018555821562000272579182015b828111156200027157825182559160200191906001019062000254565b5b509050620002819190620002ec565b5090565b828054828255906000526020600020908101928215620002d9579160200282015b82811115620002d8578251829080519060200190620002c7929190620001f4565b5091602001919060010190620002a6565b5b509050620002e891906200030b565b5090565b5b8082111562000307576000816000905550600101620002ed565b5090565b5b808211156200032f576000818162000325919062000333565b506001016200030c565b5090565b5080546200034190620004cd565b6000825580601f1062000355575062000376565b601f016020900490600052602060002090810190620003759190620002ec565b5b50565b6000620003906200038a8462000464565b62000430565b905082815260208101848484011115620003a957600080fd5b620003b684828562000497565b509392505050565b600082601f830112620003d057600080fd5b8151620003e284826020860162000379565b91505092915050565b600060208284031215620003fe57600080fd5b600082015167ffffffffffffffff8111156200041957600080fd5b6200042784828501620003be565b91505092915050565b6000604051905081810181811067ffffffffffffffff821117156200045a576200045962000532565b5b8060405250919050565b600067ffffffffffffffff82111562000482576200048162000532565b5b601f19601f8301169050602081019050919050565b60005b83811015620004b75780820151818401526020810190506200049a565b83811115620004c7576000848401525b50505050565b60006002820490506001821680620004e657607f821691505b60208210811415620004fd57620004fc62000503565b5b50919050565b7f4e487b7100000000000000000000000000000000000000000000000000000000600052602260045260246000fd5b7f4e487b7100000000000000000000000000000000000000000000000000000000600052604160045260246000fd5b610a4c80620005716000396000f3fe608060405234801561001057600080fd5b50600436106100575760003560e01c80636f61c7441461005c578063715018a61461007d5780638da5cb5b14610087578063aae58b7d146100a5578063f2fde38b146100af575b600080fd5b6100646100cb565b604051610074949392919061081b565b60405180910390f35b6100856102ed565b005b61008f610427565b60405161009c9190610800565b60405180910390f35b6100ad610450565b005b6100c960048036038101906100c49190610618565b610452565b005b60608060606000600460000160046001016004600201600460030160009054906101000a900460ff1683805480602002602001604051908101604052809291908181526020016000905b828210156101c15783829060005260206000200180546101349061098d565b80601f01602080910402602001604051908101604052809291908181526020018280546101609061098d565b80156101ad5780601f10610182576101008083540402835291602001916101ad565b820191906000526020600020905b81548152906001019060200180831161019057829003601f168201915b505050505081526020019060010190610115565b5050505093508280546101d39061098d565b80601f01602080910402602001604051908101604052809291908181526020018280546101ff9061098d565b801561024c5780601f106102215761010080835404028352916020019161024c565b820191906000526020600020905b81548152906001019060200180831161022f57829003601f168201915b5050505050925081805461025f9061098d565b80601f016020809104026020016040519081016040528092919081815260200182805461028b9061098d565b80156102d85780601f106102ad576101008083540402835291602001916102d8565b820191906000526020600020905b8154815290600101906020018083116102bb57829003601f168201915b50505050509150935093509350935090919293565b6102f56105fb565b73ffffffffffffffffffffffffffffffffffffffff16610313610427565b73ffffffffffffffffffffffffffffffffffffffff1614610369576040517f08c379a000000000000000000000000000000000000000000000000000000000815260040161036090610895565b60405180910390fd5b600073ffffffffffffffffffffffffffffffffffffffff1660008054906101000a900473ffffffffffffffffffffffffffffffffffffffff1673ffffffffffffffffffffffffffffffffffffffff167f8be0079c531659141344cd1fd0a4f28419497f9722a3daafe3b4186f6b6457e060405160405180910390a360008060006101000a81548173ffffffffffffffffffffffffffffffffffffffff021916908373ffffffffffffffffffffffffffffffffffffffff160217905550565b60008060009054906101000a900473ffffffffffffffffffffffffffffffffffffffff16905090565b565b61045a6105fb565b73ffffffffffffffffffffffffffffffffffffffff16610478610427565b73ffffffffffffffffffffffffffffffffffffffff16146104ce576040517f08c379a00000000000000000000000000000000000000000000000000000000081526004016104c590610895565b60405180910390fd5b600073ffffffffffffffffffffffffffffffffffffffff168173ffffffffffffffffffffffffffffffffffffffff16141561053e576040517f08c379a000000000000000000000000000000000000000000000000000000000815260040161053590610875565b60405180910390fd5b8073ffffffffffffffffffffffffffffffffffffffff1660008054906101000a900473ffffffffffffffffffffffffffffffffffffffff1673ffffffffffffffffffffffffffffffffffffffff167f8be0079c531659141344cd1fd0a4f28419497f9722a3daafe3b4186f6b6457e060405160405180910390a3806000806101000a81548173ffffffffffffffffffffffffffffffffffffffff021916908373ffffffffffffffffffffffffffffffffffffffff16021790555050565b600033905090565b600081359050610612816109ff565b92915050565b60006020828403121561062a57600080fd5b600061063884828501610603565b91505092915050565b600061064d83836106d9565b905092915050565b61065e8161091b565b82525050565b600061066f826108c5565b61067981856108e8565b93508360208202850161068b856108b5565b8060005b858110156106c757848403895281516106a88582610641565b94506106b3836108db565b925060208a0199505060018101905061068f565b50829750879550505050505092915050565b60006106e4826108d0565b6106ee81856108f9565b93506106fe81856020860161095a565b610707816109ee565b840191505092915050565b600061071d826108d0565b610727818561090a565b935061073781856020860161095a565b610740816109ee565b840191505092915050565b600061075860268361090a565b91507f4f776e61626c653a206e6577206f776e657220697320746865207a65726f206160008301527f64647265737300000000000000000000000000000000000000000000000000006020830152604082019050919050565b60006107be60208361090a565b91507f4f776e61626c653a2063616c6c6572206973206e6f7420746865206f776e65726000830152602082019050919050565b6107fa8161094d565b82525050565b60006020820190506108156000830184610655565b92915050565b600060808201905081810360008301526108358187610664565b905081810360208301526108498186610712565b9050818103604083015261085d8185610712565b905061086c60608301846107f1565b95945050505050565b6000602082019050818103600083015261088e8161074b565b9050919050565b600060208201905081810360008301526108ae816107b1565b9050919050565b6000819050602082019050919050565b600081519050919050565b600081519050919050565b6000602082019050919050565b600082825260208201905092915050565b600082825260208201905092915050565b600082825260208201905092915050565b60006109268261092d565b9050919050565b600073ffffffffffffffffffffffffffffffffffffffff82169050919050565b600060ff82169050919050565b60005b8381101561097857808201518184015260208101905061095d565b83811115610987576000848401525b50505050565b600060028204905060018216806109a557607f821691505b602082108114156109b9576109b86109bf565b5b50919050565b7f4e487b7100000000000000000000000000000000000000000000000000000000600052602260045260246000fd5b6000601f19601f8301169050919050565b610a088161091b565b8114610a1357600080fd5b5056fea264697066735822122093c50b4872f7c6f50e31e3f36d75e8e630f29143e50b6288dce8e33f36c8e7de64736f6c63430008000033",
  "immutableReferences": {},
  "source": "// SPDX-License-Identifier: MIT\n\npragma solidity ^0.8.0;\n\nimport \"./interface/IUserSummary.sol\";\nimport \"@openzeppelin/contracts/access/Ownable.sol\";\n\ncontract UserSummary is IUserSummary, Ownable {\n    string private _civicID;\n    uint private _userReputation;\n    mapping(string => address) private _userTaskList;\n\n    Profile private _userProfile;\n    TaskGeneralDescription private _userTaskGeneralDescription;\n\n    constructor(string memory _civicIDIn) {\n        _civicID = _civicIDIn;\n        _userReputation = 1;\n        _userProfile.skills = new string[](0);\n        _userProfile.profession = \"\";\n        _userProfile.activityLevel = 0;\n    }\n\n    function getUserProfile() external view override returns(string[] memory, string memory, string memory, uint8) {\n        return (_userProfile.skills, _userProfile.profession, _userProfile.digitalSignature, _userProfile.activityLevel);\n    }\n\n    function signProfile() external override {}\n}",
  "sourcePath": "/Users/elijahhampton/Desktop/opportunity-core/src/contracts/user/UserSummary.sol",
  "compiler": {
    "name": "solc",
    "version": "0.8.0+commit.c7dfd78e.Emscripten.clang"
  },
  "schemaVersion": "3.3.4",
  "updatedAt": "2021-04-16T23:33:25.662Z",
  "devdoc": {
    "kind": "dev",
    "methods": {
      "owner()": {
        "details": "Returns the address of the current owner."
      },
      "renounceOwnership()": {
        "details": "Leaves the contract without owner. It will not be possible to call `onlyOwner` functions anymore. Can only be called by the current owner. NOTE: Renouncing ownership will leave the contract without an owner, thereby removing any functionality that is only available to the owner."
      },
      "transferOwnership(address)": {
        "details": "Transfers ownership of the contract to a new account (`newOwner`). Can only be called by the current owner."
      }
    },
    "version": 1
  },
  "userdoc": {
    "kind": "user",
    "methods": {},
    "version": 1
  }
}