{
  "contractName": "UserSummary",
  "abi": [
    {
      "inputs": [
        {
          "internalType": "string",
          "name": "_uniqueHashIn",
          "type": "string"
        }
      ],
      "stateMutability": "nonpayable",
      "type": "constructor"
    },
    {
      "anonymous": false,
      "inputs": [
        {
          "indexed": false,
          "internalType": "string",
          "name": "uniqueHash",
          "type": "string"
        }
      ],
      "name": "UserSummaryUpdate",
      "type": "event"
    },
    {
      "inputs": [],
      "name": "getUserProfile",
      "outputs": [
        {
          "internalType": "string[]",
          "name": "",
          "type": "string[]"
        },
        {
          "internalType": "string",
          "name": "",
          "type": "string"
        },
        {
          "internalType": "uint8",
          "name": "",
          "type": "uint8"
        }
      ],
      "stateMutability": "view",
      "type": "function"
    },
    {
      "inputs": [
        {
          "internalType": "address",
          "name": "market",
          "type": "address"
        }
      ],
      "name": "createMarket",
      "outputs": [],
      "stateMutability": "nonpayable",
      "type": "function"
    },
    {
      "inputs": [
        {
          "components": [
            {
              "internalType": "string[]",
              "name": "skills",
              "type": "string[]"
            },
            {
              "internalType": "string",
              "name": "profession",
              "type": "string"
            },
            {
              "internalType": "uint8",
              "name": "activityLevel",
              "type": "uint8"
            }
          ],
          "internalType": "struct IUserSummary.Profile",
          "name": "updatedProfile",
          "type": "tuple"
        },
        {
          "internalType": "string",
          "name": "uniqueHash",
          "type": "string"
        }
      ],
      "name": "updateProfile",
      "outputs": [],
      "stateMutability": "nonpayable",
      "type": "function"
    },
    {
      "inputs": [],
      "name": "getContractAddress",
      "outputs": [
        {
          "internalType": "address",
          "name": "",
          "type": "address"
        }
      ],
      "stateMutability": "view",
      "type": "function"
    },
    {
      "inputs": [
        {
          "components": [
            {
              "internalType": "string",
              "name": "industry",
              "type": "string"
            },
            {
              "internalType": "uint256",
              "name": "industrylevel",
              "type": "uint256"
            },
            {
              "internalType": "uint256",
              "name": "reputation",
              "type": "uint256"
            }
          ],
          "internalType": "struct Evaluation.EvaluationState",
          "name": "evaluationState",
          "type": "tuple"
        }
      ],
      "name": "evaluateUser",
      "outputs": [
        {
          "internalType": "bool",
          "name": "",
          "type": "bool"
        }
      ],
      "stateMutability": "nonpayable",
      "type": "function"
    }
  ],
  "bytecode": "0x60806040523480156200001157600080fd5b506040516200125c3803806200125c833981810160405281019062000037919062000196565b80600090805190602001906200004f92919062000074565b506001808190555060006006600001819055506000600960000181905550506200030c565b828054620000829062000278565b90600052602060002090601f016020900481019282620000a65760008555620000f2565b82601f10620000c157805160ff1916838001178555620000f2565b82800160010185558215620000f2579182015b82811115620000f1578251825591602001919060010190620000d4565b5b50905062000101919062000105565b5090565b5b808211156200012057600081600090555060010162000106565b5090565b60006200013b62000135846200020f565b620001db565b9050828152602081018484840111156200015457600080fd5b6200016184828562000242565b509392505050565b600082601f8301126200017b57600080fd5b81516200018d84826020860162000124565b91505092915050565b600060208284031215620001a957600080fd5b600082015167ffffffffffffffff811115620001c457600080fd5b620001d28482850162000169565b91505092915050565b6000604051905081810181811067ffffffffffffffff82111715620002055762000204620002dd565b5b8060405250919050565b600067ffffffffffffffff8211156200022d576200022c620002dd565b5b601f19601f8301169050602081019050919050565b60005b838110156200026257808201518184015260208101905062000245565b8381111562000272576000848401525b50505050565b600060028204905060018216806200029157607f821691505b60208210811415620002a857620002a7620002ae565b5b50919050565b7f4e487b7100000000000000000000000000000000000000000000000000000000600052602260045260246000fd5b7f4e487b7100000000000000000000000000000000000000000000000000000000600052604160045260246000fd5b610f40806200031c6000396000f3fe608060405234801561001057600080fd5b50600436106100575760003560e01c806332a2c5d01461005c5780635a0aa0391461007a5780635d5f221f146100965780636f61c744146100c65780637c108333146100e6575b600080fd5b610064610102565b6040516100719190610b89565b60405180910390f35b610094600480360381019061008f919061093c565b61010a565b005b6100b060048036038101906100ab91906108fb565b6102c7565b6040516100bd9190610be9565b60405180910390f35b6100ce6102ce565b6040516100dd93929190610ba4565b60405180910390f35b61010060048036038101906100fb91906108a9565b610459565b005b600030905090565b806000805461011890610e0d565b80601f016020809104026020016040519081016040528092919081815260200182805461014490610e0d565b80156101915780601f1061016657610100808354040283529160200191610191565b820191906000526020600020905b81548152906001019060200180831161017457829003601f168201915b505050505073__StringUtils___________________________6346bdca9a83836040518363ffffffff1660e01b81526004016101cf929190610c04565b60206040518083038186803b1580156101e757600080fd5b505af41580156101fb573d6000803e3d6000fd5b505050506040513d601f19601f8201168201806040525081019061021f91906108d2565b61022857600080fd5b83600260008201518160000190805190602001906102479291906104f7565b506020820151816001019080519060200190610264929190610557565b5060408201518160020160006101000a81548160ff021916908360ff1602179055509050507fffd08c3243342938c0b652021dcfcf53eaf5da92af5d1d4435d1f505df88f8d360006040516102b99190610c3b565b60405180910390a150505050565b6000919050565b6060806000600260000160026001016002800160009054906101000a900460ff1682805480602002602001604051908101604052809291908181526020016000905b828210156103bc57838290600052602060002001805461032f90610e0d565b80601f016020809104026020016040519081016040528092919081815260200182805461035b90610e0d565b80156103a85780601f1061037d576101008083540402835291602001916103a8565b820191906000526020600020905b81548152906001019060200180831161038b57829003601f168201915b505050505081526020019060010190610310565b5050505092508180546103ce90610e0d565b80601f01602080910402602001604051908101604052809291908181526020018280546103fa90610e0d565b80156104475780601f1061041c57610100808354040283529160200191610447565b820191906000526020600020905b81548152906001019060200180831161042a57829003601f168201915b50505050509150925092509250909192565b6005819080600181540180825580915050600190039060005260206000200160009091909190916101000a81548173ffffffffffffffffffffffffffffffffffffffff021916908373ffffffffffffffffffffffffffffffffffffffff1602179055507fffd08c3243342938c0b652021dcfcf53eaf5da92af5d1d4435d1f505df88f8d360006040516104ec9190610c3b565b60405180910390a150565b828054828255906000526020600020908101928215610546579160200282015b82811115610545578251829080519060200190610535929190610557565b5091602001919060010190610517565b5b50905061055391906105dd565b5090565b82805461056390610e0d565b90600052602060002090601f01602090048101928261058557600085556105cc565b82601f1061059e57805160ff19168380011785556105cc565b828001600101855582156105cc579182015b828111156105cb5782518255916020019190600101906105b0565b5b5090506105d99190610601565b5090565b5b808211156105fd57600081816105f4919061061e565b506001016105de565b5090565b5b8082111561061a576000816000905550600101610602565b5090565b50805461062a90610e0d565b6000825580601f1061063c575061065b565b601f01602090049060005260206000209081019061065a9190610601565b5b50565b600061067161066c84610c8e565b610c5d565b9050808382526020820190508260005b858110156106b15781358501610697888261074d565b845260208401935060208301925050600181019050610681565b5050509392505050565b60006106ce6106c984610cba565b610c5d565b9050828152602081018484840111156106e657600080fd5b6106f1848285610dcb565b509392505050565b60008135905061070881610eae565b92915050565b600082601f83011261071f57600080fd5b813561072f84826020860161065e565b91505092915050565b60008151905061074781610ec5565b92915050565b600082601f83011261075e57600080fd5b813561076e8482602086016106bb565b91505092915050565b60006060828403121561078957600080fd5b6107936060610c5d565b9050600082013567ffffffffffffffff8111156107af57600080fd5b6107bb8482850161074d565b60008301525060206107cf8482850161087f565b60208301525060406107e38482850161087f565b60408301525092915050565b60006060828403121561080157600080fd5b61080b6060610c5d565b9050600082013567ffffffffffffffff81111561082757600080fd5b6108338482850161070e565b600083015250602082013567ffffffffffffffff81111561085357600080fd5b61085f8482850161074d565b602083015250604061087384828501610894565b60408301525092915050565b60008135905061088e81610edc565b92915050565b6000813590506108a381610ef3565b92915050565b6000602082840312156108bb57600080fd5b60006108c9848285016106f9565b91505092915050565b6000602082840312156108e457600080fd5b60006108f284828501610738565b91505092915050565b60006020828403121561090d57600080fd5b600082013567ffffffffffffffff81111561092757600080fd5b61093384828501610777565b91505092915050565b6000806040838503121561094f57600080fd5b600083013567ffffffffffffffff81111561096957600080fd5b610975858286016107ef565b925050602083013567ffffffffffffffff81111561099257600080fd5b61099e8582860161074d565b9150509250929050565b60006109b48383610a4f565b905092915050565b6109c581610d76565b82525050565b60006109d682610d0f565b6109e08185610d32565b9350836020820285016109f285610cea565b8060005b85811015610a2e5784840389528151610a0f85826109a8565b9450610a1a83610d25565b925060208a019950506001810190506109f6565b50829750879550505050505092915050565b610a4981610d88565b82525050565b6000610a5a82610d1a565b610a648185610d43565b9350610a74818560208601610dda565b610a7d81610e9d565b840191505092915050565b6000610a9382610d1a565b610a9d8185610d54565b9350610aad818560208601610dda565b610ab681610e9d565b840191505092915050565b6000610acc82610d1a565b610ad68185610d65565b9350610ae6818560208601610dda565b610aef81610e9d565b840191505092915050565b60008154610b0781610e0d565b610b118186610d54565b94506001821660008114610b2c5760018114610b3e57610b71565b60ff1983168652602086019350610b71565b610b4785610cfa565b60005b83811015610b6957815481890152600182019150602081019050610b4a565b808801955050505b50505092915050565b610b8381610dbe565b82525050565b6000602082019050610b9e60008301846109bc565b92915050565b60006060820190508181036000830152610bbe81866109cb565b90508181036020830152610bd28185610a88565b9050610be16040830184610b7a565b949350505050565b6000602082019050610bfe6000830184610a40565b92915050565b60006040820190508181036000830152610c1e8185610ac1565b90508181036020830152610c328184610ac1565b90509392505050565b60006020820190508181036000830152610c558184610afa565b905092915050565b6000604051905081810181811067ffffffffffffffff82111715610c8457610c83610e6e565b5b8060405250919050565b600067ffffffffffffffff821115610ca957610ca8610e6e565b5b602082029050602081019050919050565b600067ffffffffffffffff821115610cd557610cd4610e6e565b5b601f19601f8301169050602081019050919050565b6000819050602082019050919050565b60008190508160005260206000209050919050565b600081519050919050565b600081519050919050565b6000602082019050919050565b600082825260208201905092915050565b600082825260208201905092915050565b600082825260208201905092915050565b600082825260208201905092915050565b6000610d8182610d94565b9050919050565b60008115159050919050565b600073ffffffffffffffffffffffffffffffffffffffff82169050919050565b6000819050919050565b600060ff82169050919050565b82818337600083830152505050565b60005b83811015610df8578082015181840152602081019050610ddd565b83811115610e07576000848401525b50505050565b60006002820490506001821680610e2557607f821691505b60208210811415610e3957610e38610e3f565b5b50919050565b7f4e487b7100000000000000000000000000000000000000000000000000000000600052602260045260246000fd5b7f4e487b7100000000000000000000000000000000000000000000000000000000600052604160045260246000fd5b6000601f19601f8301169050919050565b610eb781610d76565b8114610ec257600080fd5b50565b610ece81610d88565b8114610ed957600080fd5b50565b610ee581610db4565b8114610ef057600080fd5b50565b610efc81610dbe565b8114610f0757600080fd5b5056fea2646970667358221220a48ecf2309cf274c422fde54ac257979272236f12eb7cd4d3033761042a542ec64736f6c63430008000033",
  "immutableReferences": {},
  "source": "// SPDX-License-Identifier: MIT\n\npragma solidity ^0.8.0;\n\nimport \"./interface/IUserSummary.sol\";\nimport \"../market/Market.sol\";\nimport \"@openzeppelin/contracts/access/Ownable.sol\";\n\n\ncontract UserSummary is IUserSummary {\n    event UserSummaryUpdate(string uniqueHash);\n\n    string private _uniqueHash;\n    uint256 private _userReputation;\n\n    Profile private _userProfile;\n    address[] private createdMarkets;\n    WorkerTaskGeneralDescription private _workerTaskGeneralDescription;\n    RequesterTaskGeneralDescription private _requesterTaskGeneralDescription;\n\n    constructor(string memory _uniqueHashIn) {\n        _uniqueHash = _uniqueHashIn;\n        _userReputation = 1;\n\n        _workerTaskGeneralDescription.taskCompleted = 0;\n        _requesterTaskGeneralDescription.taskAssigned = 0;\n    }\n\n   /**\n     *\n     */\n    function getUserProfile() external view override returns (string[] memory, string memory, uint8) {\n        return (_userProfile.skills, _userProfile.profession, _userProfile.activityLevel);\n    }\n\n   /**\n     *\n     */\n    function createMarket(address market) external {\n        createdMarkets.push(market);\n        emit UserSummaryUpdate(_uniqueHash);\n    }\n\n    /**\n     *\n     */\n    function updateProfile(Profile memory updatedProfile, string memory uniqueHash) external override onlyAuthenticatedUser(uniqueHash, _uniqueHash) {\n        _userProfile = updatedProfile;\n        emit UserSummaryUpdate(_uniqueHash);\n    }\n\n   /**\n     *\n     */\n    function getContractAddress() public view returns(address) {\n        return address(this);\n    }\n\n    /**\n     *\n     */\n    function evaluateUser(Evaluation.EvaluationState memory evaluationState) external override returns(bool) {}\n}\n",
  "sourcePath": "/Users/elijahhampton/Desktop/opportunity-core/src/contracts/user/UserSummary.sol",
  "compiler": {
    "name": "solc",
    "version": "0.8.0+commit.c7dfd78e.Emscripten.clang"
  },
  "schemaVersion": "3.3.4",
  "updatedAt": "2021-04-29T18:41:06.945Z",
  "devdoc": {
    "kind": "dev",
    "methods": {},
    "version": 1
  },
  "userdoc": {
    "kind": "user",
    "methods": {},
    "version": 1
  }
}