{
  "contractName": "UserSummaryFactory",
  "abi": [
    {
      "inputs": [],
      "stateMutability": "nonpayable",
      "type": "constructor"
    },
    {
      "anonymous": false,
      "inputs": [
        {
          "indexed": true,
          "internalType": "contract UserSummary",
          "name": "_userSummary",
          "type": "address"
        },
        {
          "indexed": true,
          "internalType": "uint256",
          "name": "index",
          "type": "uint256"
        },
        {
          "indexed": true,
          "internalType": "address",
          "name": "universalAddress",
          "type": "address"
        }
      ],
      "name": "UserSummaryCreated",
      "type": "event"
    },
    {
      "inputs": [
        {
          "internalType": "address",
          "name": "universalAddress",
          "type": "address"
        }
      ],
      "name": "createUserSummary",
      "outputs": [
        {
          "internalType": "address",
          "name": "",
          "type": "address"
        }
      ],
      "stateMutability": "nonpayable",
      "type": "function"
    },
    {
      "inputs": [],
      "name": "getNumUserSummaries",
      "outputs": [
        {
          "internalType": "uint256",
          "name": "",
          "type": "uint256"
        }
      ],
      "stateMutability": "view",
      "type": "function",
      "constant": true
    }
  ],
  "bytecode": "0x608060405234801561001057600080fd5b50610b17806100206000396000f3fe608060405234801561001057600080fd5b50600436106100365760003560e01c80636101579c1461003b578063c64c2c3114610051575b600080fd5b6000546040519081526020015b60405180910390f35b61006461005f36600461014c565b61007c565b6040516001600160a01b039091168152602001610048565b6000808260405161008c9061013f565b6001600160a01b039091168152602001604051809103906000f0801580156100b8573d6000803e3d6000fd5b50600080546001810182558180527f290decd9548b62a8d60345a988386fc84ba6bc95484008f6362f93160ef3e5630180546001600160a01b0319166001600160a01b03848116918217909255825460405194955091871693919290917fd8caca208900b580ecfabb87af6fb1be62fd6486df520f965033d95004a879d19190a492915050565b6109658061017d83390190565b60006020828403121561015e57600080fd5b81356001600160a01b038116811461017557600080fd5b939250505056fe608060405234801561001057600080fd5b5060405161096538038061096583398101604081905261002f91610060565b600080546001600160a01b0319166001600160a01b0392909216919091178155600180556006819055600955610090565b60006020828403121561007257600080fd5b81516001600160a01b038116811461008957600080fd5b9392505050565b6108c68061009f6000396000f3fe608060405234801561001057600080fd5b506004361061004c5760003560e01c80635d5f221f146100515780636f61c7441461007a5780637c108333146100915780637ca97e8c146100a6575b600080fd5b61006561005f366004610559565b50600090565b60405190151581526020015b60405180910390f35b6100826100b9565b60405161007193929190610764565b6100a461009f366004610537565b610237565b005b6100a46100b43660046105dd565b6102bf565b60045460028054604080516020808402820181019092528281526060948594600094909360039360ff90931692918591879084015b8282101561019a57838290600052602060002001805461010d9061083f565b80601f01602080910402602001604051908101604052809291908181526020018280546101399061083f565b80156101865780601f1061015b57610100808354040283529160200191610186565b820191906000526020600020905b81548152906001019060200180831161016957829003601f168201915b5050505050815260200190600101906100ee565b5050505092508180546101ac9061083f565b80601f01602080910402602001604051908101604052809291908181526020018280546101d89061083f565b80156102255780601f106101fa57610100808354040283529160200191610225565b820191906000526020600020905b81548152906001019060200180831161020857829003601f168201915b50505050509150925092509250909192565b6005805460018101825560009182527f036b6384b5eca791c62761152d0c79bb0604c104a5fb6f4eb0703f3154bb3db00180546001600160a01b0319166001600160a01b03848116919091179091559054604051911681527ffa002e39398e157a85a81542dea7f10c5aaf2806e9a9b75191aaf82eb1917b349060200160405180910390a150565b8151805183916002916102d991839160209091019061034e565b5060208281015180516102f292600185019201906103ab565b50604091820151600291909101805460ff191660ff909216919091179055516001600160a01b03821681527ffa002e39398e157a85a81542dea7f10c5aaf2806e9a9b75191aaf82eb1917b349060200160405180910390a15050565b82805482825590600052602060002090810192821561039b579160200282015b8281111561039b578251805161038b9184916020909101906103ab565b509160200191906001019061036e565b506103a792915061042b565b5090565b8280546103b79061083f565b90600052602060002090601f0160209004810192826103d9576000855561041f565b82601f106103f257805160ff191683800117855561041f565b8280016001018555821561041f579182015b8281111561041f578251825591602001919060010190610404565b506103a7929150610448565b808211156103a757600061043f828261045d565b5060010161042b565b5b808211156103a75760008155600101610449565b5080546104699061083f565b6000825580601f10610479575050565b601f0160209004906000526020600020908101906104979190610448565b50565b80356001600160a01b03811681146104b157600080fd5b919050565b600082601f8301126104c757600080fd5b813567ffffffffffffffff8111156104e1576104e161087a565b6104f4601f8201601f191660200161080e565b81815284602083860101111561050957600080fd5b816020850160208301376000918101602001919091529392505050565b803560ff811681146104b157600080fd5b60006020828403121561054957600080fd5b6105528261049a565b9392505050565b60006020828403121561056b57600080fd5b813567ffffffffffffffff8082111561058357600080fd5b908301906060828603121561059757600080fd5b61059f6107e5565b8235828111156105ae57600080fd5b6105ba878286016104b6565b825250602083013560208201526040830135604082015280935050505092915050565b600080604083850312156105f057600080fd5b823567ffffffffffffffff8082111561060857600080fd5b908401906060828703121561061c57600080fd5b6106246107e5565b82358281111561063357600080fd5b8301601f8101881361064457600080fd5b80356020848211156106585761065861087a565b8160051b61066782820161080e565b8381528281019085840183870185018e101561068257600080fd5b600093505b858410156106c15780358981111561069e57600080fd5b6106ac8f87838b01016104b6565b84525060019390930192918401918401610687565b5086525050858101359250848311156106d957600080fd5b6106e58a8488016104b6565b818501526106f560408701610526565b6040850152839750610708818a0161049a565b96505050505050509250929050565b6000815180845260005b8181101561073d57602081850181015186830182015201610721565b8181111561074f576000602083870101525b50601f01601f19169290920160200192915050565b6000606082016060835280865180835260808501915060808160051b8601019250602080890160005b838110156107bb57607f198887030185526107a9868351610717565b9550938201939082019060010161078d565b5050858403818701525050506107d18186610717565b91505060ff83166040830152949350505050565b6040516060810167ffffffffffffffff811182821017156108085761080861087a565b60405290565b604051601f8201601f1916810167ffffffffffffffff811182821017156108375761083761087a565b604052919050565b600181811c9082168061085357607f821691505b6020821081141561087457634e487b7160e01b600052602260045260246000fd5b50919050565b634e487b7160e01b600052604160045260246000fdfea26469706673582212209d1693fba9fe3ff9697121f63d16b107d741a21267b985f1f1bccc8e7fcb557764736f6c63430008070033a26469706673582212207a0d5b5f7f2ea0dbdbee43d836c8e4da94a62476f4c130fd153a6e49499b3b1464736f6c63430008070033",
  "immutableReferences": {},
  "source": "// SPDX-License-Identifier: MIT\n\npragma solidity 0.8.7;\n\nimport \"./UserSummary.sol\";\n\ncontract UserSummaryFactory {\n    event UserSummaryCreated(UserSummary indexed _userSummary, uint256 indexed index, address indexed universalAddress);\n    UserSummary[] private _userSummaries;\n\n    constructor() {}\n\n    /**\n     * Creates a user summary contract for each user based on their civic ID.\n     */\n     function createUserSummary(address universalAddress) external returns(address) {\n        UserSummary userSummary = new UserSummary(universalAddress);\n        _userSummaries.push(userSummary);\n\n        emit UserSummaryCreated(userSummary, _userSummaries.length, universalAddress);\n        return address(userSummary);\n    }\n\n    /**\n     *\n     */\n     function getNumUserSummaries() public view returns (uint256) {\n         return _userSummaries.length;\n     }\n}\n",
  "sourcePath": "/Volumes/GLYPH-3TB/git/opportunity-core/src/contracts/user/UserSummaryFactory.sol",
  "compiler": {
    "name": "solc",
    "version": "0.8.7+commit.e28d00a7.Emscripten.clang"
  },
  "schemaVersion": "3.4.3",
  "updatedAt": "2021-09-06T17:19:25.815Z",
  "networkType": "ethereum",
  "devdoc": {
    "kind": "dev",
    "methods": {},
    "version": 1
  },
  "userdoc": {
    "kind": "user",
    "methods": {
      "createUserSummary(address)": {
        "notice": "Creates a user summary contract for each user based on their civic ID."
      }
    },
    "version": 1
  }
}