{
  "contractName": "UserRegistration",
  "abi": [
    {
      "inputs": [],
      "stateMutability": "nonpayable",
      "type": "constructor"
    },
    {
      "anonymous": false,
      "inputs": [
        {
          "indexed": true,
          "internalType": "address",
          "name": "universalAddress",
          "type": "address"
        }
      ],
      "name": "UserAssignedTrueIdentification",
      "type": "event"
    },
    {
      "anonymous": false,
      "inputs": [
        {
          "indexed": true,
          "internalType": "string",
          "name": "uniqueHash",
          "type": "string"
        },
        {
          "indexed": true,
          "internalType": "address",
          "name": "universalAddress",
          "type": "address"
        }
      ],
      "name": "UserRegistered",
      "type": "event"
    },
    {
      "inputs": [
        {
          "internalType": "string",
          "name": "uniqueHash",
          "type": "string"
        },
        {
          "internalType": "address",
          "name": "newUniversalAddress",
          "type": "address"
        }
      ],
      "name": "registerNewUser",
      "outputs": [
        {
          "internalType": "bool",
          "name": "",
          "type": "bool"
        }
      ],
      "stateMutability": "nonpayable",
      "type": "function"
    },
    {
      "inputs": [
        {
          "internalType": "string",
          "name": "uniqueHash",
          "type": "string"
        }
      ],
      "name": "getUniversalAddress",
      "outputs": [
        {
          "internalType": "address",
          "name": "",
          "type": "address"
        }
      ],
      "stateMutability": "view",
      "type": "function"
    },
    {
      "inputs": [
        {
          "internalType": "address",
          "name": "universalAddress",
          "type": "address"
        }
      ],
      "name": "getTrueIdentification",
      "outputs": [
        {
          "internalType": "address",
          "name": "",
          "type": "address"
        }
      ],
      "stateMutability": "view",
      "type": "function"
    }
  ],
  "bytecode": "0x608060405234801561001057600080fd5b50336000806101000a81548173ffffffffffffffffffffffffffffffffffffffff021916908373ffffffffffffffffffffffffffffffffffffffff160217905550611fa0806100606000396000f3fe608060405234801561001057600080fd5b50600436106100415760003560e01c80636bd51ce2146100465780637479601b14610076578063ad3b6693146100a6575b600080fd5b610060600480360381019061005b91906104d2565b6100d6565b60405161006d9190610606565b60405180910390f35b610090600480360381019061008b9190610513565b61011e565b60405161009d9190610621565b60405180910390f35b6100c060048036038101906100bb9190610480565b61020e565b6040516100cd9190610606565b60405180910390f35b60006001826040516100e891906105ef565b908152602001604051809103902060009054906101000a900473ffffffffffffffffffffffffffffffffffffffff169050919050565b60008061012b8484610277565b9050600015158115151461013e57600080fd5b600060405161014c906103e1565b604051809103906000f080158015610168573d6000803e3d6000fd5b50905060008173ffffffffffffffffffffffffffffffffffffffff16631e7ea431876040518263ffffffff1660e01b81526004016101a6919061063c565b602060405180830381600087803b1580156101c057600080fd5b505af11580156101d4573d6000803e3d6000fd5b505050506040513d601f19601f820116820180604052508101906101f891906104a9565b90506102048582610306565b5050505092915050565b6000600260008373ffffffffffffffffffffffffffffffffffffffff1673ffffffffffffffffffffffffffffffffffffffff16815260200190815260200160002060009054906101000a900473ffffffffffffffffffffffffffffffffffffffff169050919050565b6000801515610285846103cf565b15151461029157600080fd5b6000151560011515146102a357600080fd5b816001846040516102b491906105ef565b908152602001604051809103902060006101000a81548173ffffffffffffffffffffffffffffffffffffffff021916908373ffffffffffffffffffffffffffffffffffffffff16021790555092915050565b60008273ffffffffffffffffffffffffffffffffffffffff167ff5bc24e02a40efc25aa4589cefe6f344869db2e7fba258d0afeed27dd86d21c360405160405180910390a281600260008573ffffffffffffffffffffffffffffffffffffffff1673ffffffffffffffffffffffffffffffffffffffff16815260200190815260200160002060006101000a81548173ffffffffffffffffffffffffffffffffffffffff021916908373ffffffffffffffffffffffffffffffffffffffff16021790555092915050565b60006103da826103cf565b9050919050565b6117ad806107be83390190565b60006104016103fc8461068f565b61065e565b90508281526020810184848401111561041957600080fd5b610424848285610724565b509392505050565b60008135905061043b816107a6565b92915050565b600081519050610450816107a6565b92915050565b600082601f83011261046757600080fd5b81356104778482602086016103ee565b91505092915050565b60006020828403121561049257600080fd5b60006104a08482850161042c565b91505092915050565b6000602082840312156104bb57600080fd5b60006104c984828501610441565b91505092915050565b6000602082840312156104e457600080fd5b600082013567ffffffffffffffff8111156104fe57600080fd5b61050a84828501610456565b91505092915050565b6000806040838503121561052657600080fd5b600083013567ffffffffffffffff81111561054057600080fd5b61054c85828601610456565b925050602061055d8582860161042c565b9150509250929050565b610570816106e6565b82525050565b61057f816106f8565b82525050565b6000610590826106bf565b61059a81856106ca565b93506105aa818560208601610733565b6105b381610795565b840191505092915050565b60006105c9826106bf565b6105d381856106db565b93506105e3818560208601610733565b80840191505092915050565b60006105fb82846105be565b915081905092915050565b600060208201905061061b6000830184610567565b92915050565b60006020820190506106366000830184610576565b92915050565b600060208201905081810360008301526106568184610585565b905092915050565b6000604051905081810181811067ffffffffffffffff8211171561068557610684610766565b5b8060405250919050565b600067ffffffffffffffff8211156106aa576106a9610766565b5b601f19601f8301169050602081019050919050565b600081519050919050565b600082825260208201905092915050565b600081905092915050565b60006106f182610704565b9050919050565b60008115159050919050565b600073ffffffffffffffffffffffffffffffffffffffff82169050919050565b82818337600083830152505050565b60005b83811015610751578082015181840152602081019050610736565b83811115610760576000848401525b50505050565b7f4e487b7100000000000000000000000000000000000000000000000000000000600052604160045260246000fd5b6000601f19601f8301169050919050565b6107af816106e6565b81146107ba57600080fd5b5056fe608060405234801561001057600080fd5b5061178d806100206000396000f3fe608060405234801561001057600080fd5b50600436106100365760003560e01c80631e7ea4311461003b5780636101579c1461006b575b600080fd5b610055600480360381019061005091906102b9565b610089565b6040516100629190610351565b60405180910390f35b6100736101fa565b604051610080919061038e565b60405180910390f35b6000808260405161009990610206565b6100a3919061036c565b604051809103906000f0801580156100bf573d6000803e3d6000fd5b5090506000805490508173ffffffffffffffffffffffffffffffffffffffff167f1762bfd94f025a6c436d21288b439881cfef6b3834e1b6197855c0211e04227b60405160405180910390a36000819080600181540180825580915050600190039060005260206000200160009091909190916101000a81548173ffffffffffffffffffffffffffffffffffffffff021916908373ffffffffffffffffffffffffffffffffffffffff16021790555060008173ffffffffffffffffffffffffffffffffffffffff166332a2c5d06040518163ffffffff1660e01b815260040160206040518083038186803b1580156101b657600080fd5b505afa1580156101ca573d6000803e3d6000fd5b505050506040513d601f19601f820116820180604052508101906101ee9190610290565b90508092505050919050565b60008080549050905090565b61125c806104fc83390190565b6000610226610221846103da565b6103a9565b90508281526020810184848401111561023e57600080fd5b610249848285610462565b509392505050565b600081519050610260816104e4565b92915050565b600082601f83011261027757600080fd5b8135610287848260208601610213565b91505092915050565b6000602082840312156102a257600080fd5b60006102b084828501610251565b91505092915050565b6000602082840312156102cb57600080fd5b600082013567ffffffffffffffff8111156102e557600080fd5b6102f184828501610266565b91505092915050565b61030381610426565b82525050565b60006103148261040a565b61031e8185610415565b935061032e818560208601610471565b610337816104d3565b840191505092915050565b61034b81610458565b82525050565b600060208201905061036660008301846102fa565b92915050565b600060208201905081810360008301526103868184610309565b905092915050565b60006020820190506103a36000830184610342565b92915050565b6000604051905081810181811067ffffffffffffffff821117156103d0576103cf6104a4565b5b8060405250919050565b600067ffffffffffffffff8211156103f5576103f46104a4565b5b601f19601f8301169050602081019050919050565b600081519050919050565b600082825260208201905092915050565b600061043182610438565b9050919050565b600073ffffffffffffffffffffffffffffffffffffffff82169050919050565b6000819050919050565b82818337600083830152505050565b60005b8381101561048f578082015181840152602081019050610474565b8381111561049e576000848401525b50505050565b7f4e487b7100000000000000000000000000000000000000000000000000000000600052604160045260246000fd5b6000601f19601f8301169050919050565b6104ed81610426565b81146104f857600080fd5b5056fe60806040523480156200001157600080fd5b506040516200125c3803806200125c833981810160405281019062000037919062000196565b80600090805190602001906200004f92919062000074565b506001808190555060006006600001819055506000600960000181905550506200030c565b828054620000829062000278565b90600052602060002090601f016020900481019282620000a65760008555620000f2565b82601f10620000c157805160ff1916838001178555620000f2565b82800160010185558215620000f2579182015b82811115620000f1578251825591602001919060010190620000d4565b5b50905062000101919062000105565b5090565b5b808211156200012057600081600090555060010162000106565b5090565b60006200013b62000135846200020f565b620001db565b9050828152602081018484840111156200015457600080fd5b6200016184828562000242565b509392505050565b600082601f8301126200017b57600080fd5b81516200018d84826020860162000124565b91505092915050565b600060208284031215620001a957600080fd5b600082015167ffffffffffffffff811115620001c457600080fd5b620001d28482850162000169565b91505092915050565b6000604051905081810181811067ffffffffffffffff82111715620002055762000204620002dd565b5b8060405250919050565b600067ffffffffffffffff8211156200022d576200022c620002dd565b5b601f19601f8301169050602081019050919050565b60005b838110156200026257808201518184015260208101905062000245565b8381111562000272576000848401525b50505050565b600060028204905060018216806200029157607f821691505b60208210811415620002a857620002a7620002ae565b5b50919050565b7f4e487b7100000000000000000000000000000000000000000000000000000000600052602260045260246000fd5b7f4e487b7100000000000000000000000000000000000000000000000000000000600052604160045260246000fd5b610f40806200031c6000396000f3fe608060405234801561001057600080fd5b50600436106100575760003560e01c806332a2c5d01461005c5780635a0aa0391461007a5780635d5f221f146100965780636f61c744146100c65780637c108333146100e6575b600080fd5b610064610102565b6040516100719190610b89565b60405180910390f35b610094600480360381019061008f919061093c565b61010a565b005b6100b060048036038101906100ab91906108fb565b6102c7565b6040516100bd9190610be9565b60405180910390f35b6100ce6102ce565b6040516100dd93929190610ba4565b60405180910390f35b61010060048036038101906100fb91906108a9565b610459565b005b600030905090565b806000805461011890610e0d565b80601f016020809104026020016040519081016040528092919081815260200182805461014490610e0d565b80156101915780601f1061016657610100808354040283529160200191610191565b820191906000526020600020905b81548152906001019060200180831161017457829003601f168201915b505050505073__StringUtils___________________________6346bdca9a83836040518363ffffffff1660e01b81526004016101cf929190610c04565b60206040518083038186803b1580156101e757600080fd5b505af41580156101fb573d6000803e3d6000fd5b505050506040513d601f19601f8201168201806040525081019061021f91906108d2565b61022857600080fd5b83600260008201518160000190805190602001906102479291906104f7565b506020820151816001019080519060200190610264929190610557565b5060408201518160020160006101000a81548160ff021916908360ff1602179055509050507fffd08c3243342938c0b652021dcfcf53eaf5da92af5d1d4435d1f505df88f8d360006040516102b99190610c3b565b60405180910390a150505050565b6000919050565b6060806000600260000160026001016002800160009054906101000a900460ff1682805480602002602001604051908101604052809291908181526020016000905b828210156103bc57838290600052602060002001805461032f90610e0d565b80601f016020809104026020016040519081016040528092919081815260200182805461035b90610e0d565b80156103a85780601f1061037d576101008083540402835291602001916103a8565b820191906000526020600020905b81548152906001019060200180831161038b57829003601f168201915b505050505081526020019060010190610310565b5050505092508180546103ce90610e0d565b80601f01602080910402602001604051908101604052809291908181526020018280546103fa90610e0d565b80156104475780601f1061041c57610100808354040283529160200191610447565b820191906000526020600020905b81548152906001019060200180831161042a57829003601f168201915b50505050509150925092509250909192565b6005819080600181540180825580915050600190039060005260206000200160009091909190916101000a81548173ffffffffffffffffffffffffffffffffffffffff021916908373ffffffffffffffffffffffffffffffffffffffff1602179055507fffd08c3243342938c0b652021dcfcf53eaf5da92af5d1d4435d1f505df88f8d360006040516104ec9190610c3b565b60405180910390a150565b828054828255906000526020600020908101928215610546579160200282015b82811115610545578251829080519060200190610535929190610557565b5091602001919060010190610517565b5b50905061055391906105dd565b5090565b82805461056390610e0d565b90600052602060002090601f01602090048101928261058557600085556105cc565b82601f1061059e57805160ff19168380011785556105cc565b828001600101855582156105cc579182015b828111156105cb5782518255916020019190600101906105b0565b5b5090506105d99190610601565b5090565b5b808211156105fd57600081816105f4919061061e565b506001016105de565b5090565b5b8082111561061a576000816000905550600101610602565b5090565b50805461062a90610e0d565b6000825580601f1061063c575061065b565b601f01602090049060005260206000209081019061065a9190610601565b5b50565b600061067161066c84610c8e565b610c5d565b9050808382526020820190508260005b858110156106b15781358501610697888261074d565b845260208401935060208301925050600181019050610681565b5050509392505050565b60006106ce6106c984610cba565b610c5d565b9050828152602081018484840111156106e657600080fd5b6106f1848285610dcb565b509392505050565b60008135905061070881610eae565b92915050565b600082601f83011261071f57600080fd5b813561072f84826020860161065e565b91505092915050565b60008151905061074781610ec5565b92915050565b600082601f83011261075e57600080fd5b813561076e8482602086016106bb565b91505092915050565b60006060828403121561078957600080fd5b6107936060610c5d565b9050600082013567ffffffffffffffff8111156107af57600080fd5b6107bb8482850161074d565b60008301525060206107cf8482850161087f565b60208301525060406107e38482850161087f565b60408301525092915050565b60006060828403121561080157600080fd5b61080b6060610c5d565b9050600082013567ffffffffffffffff81111561082757600080fd5b6108338482850161070e565b600083015250602082013567ffffffffffffffff81111561085357600080fd5b61085f8482850161074d565b602083015250604061087384828501610894565b60408301525092915050565b60008135905061088e81610edc565b92915050565b6000813590506108a381610ef3565b92915050565b6000602082840312156108bb57600080fd5b60006108c9848285016106f9565b91505092915050565b6000602082840312156108e457600080fd5b60006108f284828501610738565b91505092915050565b60006020828403121561090d57600080fd5b600082013567ffffffffffffffff81111561092757600080fd5b61093384828501610777565b91505092915050565b6000806040838503121561094f57600080fd5b600083013567ffffffffffffffff81111561096957600080fd5b610975858286016107ef565b925050602083013567ffffffffffffffff81111561099257600080fd5b61099e8582860161074d565b9150509250929050565b60006109b48383610a4f565b905092915050565b6109c581610d76565b82525050565b60006109d682610d0f565b6109e08185610d32565b9350836020820285016109f285610cea565b8060005b85811015610a2e5784840389528151610a0f85826109a8565b9450610a1a83610d25565b925060208a019950506001810190506109f6565b50829750879550505050505092915050565b610a4981610d88565b82525050565b6000610a5a82610d1a565b610a648185610d43565b9350610a74818560208601610dda565b610a7d81610e9d565b840191505092915050565b6000610a9382610d1a565b610a9d8185610d54565b9350610aad818560208601610dda565b610ab681610e9d565b840191505092915050565b6000610acc82610d1a565b610ad68185610d65565b9350610ae6818560208601610dda565b610aef81610e9d565b840191505092915050565b60008154610b0781610e0d565b610b118186610d54565b94506001821660008114610b2c5760018114610b3e57610b71565b60ff1983168652602086019350610b71565b610b4785610cfa565b60005b83811015610b6957815481890152600182019150602081019050610b4a565b808801955050505b50505092915050565b610b8381610dbe565b82525050565b6000602082019050610b9e60008301846109bc565b92915050565b60006060820190508181036000830152610bbe81866109cb565b90508181036020830152610bd28185610a88565b9050610be16040830184610b7a565b949350505050565b6000602082019050610bfe6000830184610a40565b92915050565b60006040820190508181036000830152610c1e8185610ac1565b90508181036020830152610c328184610ac1565b90509392505050565b60006020820190508181036000830152610c558184610afa565b905092915050565b6000604051905081810181811067ffffffffffffffff82111715610c8457610c83610e6e565b5b8060405250919050565b600067ffffffffffffffff821115610ca957610ca8610e6e565b5b602082029050602081019050919050565b600067ffffffffffffffff821115610cd557610cd4610e6e565b5b601f19601f8301169050602081019050919050565b6000819050602082019050919050565b60008190508160005260206000209050919050565b600081519050919050565b600081519050919050565b6000602082019050919050565b600082825260208201905092915050565b600082825260208201905092915050565b600082825260208201905092915050565b600082825260208201905092915050565b6000610d8182610d94565b9050919050565b60008115159050919050565b600073ffffffffffffffffffffffffffffffffffffffff82169050919050565b6000819050919050565b600060ff82169050919050565b82818337600083830152505050565b60005b83811015610df8578082015181840152602081019050610ddd565b83811115610e07576000848401525b50505050565b60006002820490506001821680610e2557607f821691505b60208210811415610e3957610e38610e3f565b5b50919050565b7f4e487b7100000000000000000000000000000000000000000000000000000000600052602260045260246000fd5b7f4e487b7100000000000000000000000000000000000000000000000000000000600052604160045260246000fd5b6000601f19601f8301169050919050565b610eb781610d76565b8114610ec257600080fd5b50565b610ece81610d88565b8114610ed957600080fd5b50565b610ee581610db4565b8114610ef057600080fd5b50565b610efc81610dbe565b8114610f0757600080fd5b5056fea2646970667358221220a48ecf2309cf274c422fde54ac257979272236f12eb7cd4d3033761042a542ec64736f6c63430008000033a2646970667358221220901b296c9d9b66524fc5bf36989deebd4ece2303be399c72ecb3bf63ec19ff0564736f6c63430008000033a2646970667358221220882053d52f9b61a4456856fede05eba0b14ede272dbdfc2d11143ca43ede99e864736f6c63430008000033",
  "immutableReferences": {},
  "source": "// SPDX-License-Identifier: MIT\n\npragma solidity ^0.8.0;\n\nimport \"./UserSummaryFactory.sol\";\n\nimport \"../control/Controllable.sol\";\n\ncontract UserRegistration is Controllable { //FU SUV\n\n    //maps a unique authentication hash address to a universal generated address\n    mapping(string => address) private _universalAddress;\n\n    // Mapping of universal address to summary contract address\n    mapping(address => address) private _trueIdentifcations;\n\n    event UserRegistered(string indexed uniqueHash, address indexed universalAddress);\n    event UserAssignedTrueIdentification(address indexed universalAddress);\n\n    constructor() {}\n\n    /**\n     * registerNewUser\n     * Registers a new user to the platform based on their uniqueHash.\n     * @param uniqueHash Hash returned from civic identity wallet\n     * @param newUniversalAddress Universal user address\n     */\n     function registerNewUser(string memory uniqueHash, address newUniversalAddress) external returns(bool) {\n        bool hasAssignedUniversalAddressResult = assignUniversalAddress(uniqueHash, newUniversalAddress);\n        require(hasAssignedUniversalAddressResult == false);\n\n        UserSummaryFactory factory = new UserSummaryFactory();\n        address userSummaryContractAddress = factory.createUserSummary(uniqueHash);\n\n        assignTrueUserIdentification(newUniversalAddress, userSummaryContractAddress);\n     }\n\n     function getUniversalAddress(string memory uniqueHash) view external returns(address) {\n         return _universalAddress[uniqueHash];\n     }\n\n    /**\n     * assignTrueUserIdentification\n     */\n    function assignTrueUserIdentification(address universalAddress, address summaryContractAddress) internal returns(bool) {\n        emit UserAssignedTrueIdentification(universalAddress);\n        _trueIdentifcations[universalAddress] = summaryContractAddress;\n    }\n\n    /**\n     * assignUniversalAddress\n     * Maps a users civic id to the universal address for the platform.\n     * @param uniqueHash Hash returned from civic identity wallet\n     * @param newUniversalAddress Universal user address\n     */\n    function assignUniversalAddress(string memory uniqueHash, address newUniversalAddress) internal returns(bool) {\n        //require this address not to already have a universal address\n        require(hasUniversalAddress(uniqueHash) == false);\n        //require there to not be a universal address at this index\n        require(true == false);\n\n        //assign the civic address to a new universal address\n        _universalAddress[uniqueHash] = newUniversalAddress; \n    }\n\n    /**\n     * hasUniversalAddress\n     * Returns Checks to see if a user has a universal address or not.\n     * @param uniqueHash Hash returned from civic identity wallet\n     * @return bool based on if a user has a universal address or not.\n     */\n    function hasUniversalAddress(string memory uniqueHash) internal view returns(bool) {\n        return hasUniversalAddress(uniqueHash);\n    }\n\n    function getTrueIdentification(address universalAddress) external view returns(address) {\n        return _trueIdentifcations[universalAddress];\n    }\n\n    \n}",
  "sourcePath": "/Users/elijahhampton/Desktop/opportunity-core/src/contracts/user/UserRegistration.sol",
  "compiler": {
    "name": "solc",
    "version": "0.8.0+commit.c7dfd78e.Emscripten.clang"
  },
  "schemaVersion": "3.3.4",
  "updatedAt": "2021-04-29T18:41:06.939Z",
  "devdoc": {
    "kind": "dev",
    "methods": {
      "registerNewUser(string,address)": {
        "params": {
          "newUniversalAddress": "Universal user address",
          "uniqueHash": "Hash returned from civic identity wallet"
        }
      }
    },
    "version": 1
  },
  "userdoc": {
    "kind": "user",
    "methods": {
      "registerNewUser(string,address)": {
        "notice": "registerNewUser Registers a new user to the platform based on their uniqueHash."
      }
    },
    "version": 1
  }
}