{
  "contractName": "UserSummary",
  "abi": [
    {
      "inputs": [
        {
          "internalType": "address",
          "name": "universalAddress",
          "type": "address"
        }
      ],
      "stateMutability": "nonpayable",
      "type": "constructor"
    },
    {
      "anonymous": false,
      "inputs": [
        {
          "indexed": false,
          "internalType": "address",
          "name": "universalAddress",
          "type": "address"
        }
      ],
      "name": "UserSummaryUpdate",
      "type": "event"
    },
    {
      "inputs": [],
      "name": "_userReputation",
      "outputs": [
        {
          "internalType": "uint256",
          "name": "",
          "type": "uint256"
        }
      ],
      "stateMutability": "view",
      "type": "function"
    },
    {
      "inputs": [],
      "name": "owner",
      "outputs": [
        {
          "internalType": "address",
          "name": "",
          "type": "address"
        }
      ],
      "stateMutability": "view",
      "type": "function"
    },
    {
      "inputs": [],
      "name": "stakedReputation",
      "outputs": [
        {
          "internalType": "uint256",
          "name": "",
          "type": "uint256"
        }
      ],
      "stateMutability": "view",
      "type": "function"
    },
    {
      "inputs": [],
      "name": "getUserProfile",
      "outputs": [
        {
          "internalType": "string[]",
          "name": "",
          "type": "string[]"
        },
        {
          "internalType": "string",
          "name": "",
          "type": "string"
        },
        {
          "internalType": "uint8",
          "name": "",
          "type": "uint8"
        }
      ],
      "stateMutability": "view",
      "type": "function"
    },
    {
      "inputs": [
        {
          "internalType": "address",
          "name": "market",
          "type": "address"
        }
      ],
      "name": "createMarket",
      "outputs": [],
      "stateMutability": "nonpayable",
      "type": "function"
    },
    {
      "inputs": [
        {
          "components": [
            {
              "internalType": "string[]",
              "name": "skills",
              "type": "string[]"
            },
            {
              "internalType": "string",
              "name": "profession",
              "type": "string"
            },
            {
              "internalType": "uint8",
              "name": "activityLevel",
              "type": "uint8"
            }
          ],
          "internalType": "struct IUserSummary.Profile",
          "name": "updatedProfile",
          "type": "tuple"
        },
        {
          "internalType": "address",
          "name": "universalAddress",
          "type": "address"
        }
      ],
      "name": "updateProfile",
      "outputs": [],
      "stateMutability": "nonpayable",
      "type": "function"
    },
    {
      "inputs": [
        {
          "internalType": "address",
          "name": "_fromBeneficiary",
          "type": "address"
        },
        {
          "internalType": "uint256",
          "name": "_stakedReputation",
          "type": "uint256"
        }
      ],
      "name": "stakeReputation",
      "outputs": [],
      "stateMutability": "nonpayable",
      "type": "function"
    },
    {
      "inputs": [
        {
          "components": [
            {
              "internalType": "string",
              "name": "industry",
              "type": "string"
            },
            {
              "internalType": "uint256",
              "name": "industrylevel",
              "type": "uint256"
            },
            {
              "internalType": "uint256",
              "name": "reputation",
              "type": "uint256"
            }
          ],
          "internalType": "struct Evaluation.EvaluationState",
          "name": "evaluationState",
          "type": "tuple"
        }
      ],
      "name": "evaluateUser",
      "outputs": [
        {
          "internalType": "bool",
          "name": "",
          "type": "bool"
        }
      ],
      "stateMutability": "nonpayable",
      "type": "function"
    }
  ],
  "bytecode": "0x608060405234801561001057600080fd5b50604051610b39380380610b3983398101604081905261002f9161006a565b600080546001600160a01b039092166001600160a01b031992831681178255600c805490931617909155600180556007819055600a5561009a565b60006020828403121561007c57600080fd5b81516001600160a01b038116811461009357600080fd5b9392505050565b610a90806100a96000396000f3fe608060405234801561001057600080fd5b50600436106100885760003560e01c80637f306ba11161005b5780637f306ba1146100f55780638da5cb5b14610108578063cebc227314610133578063d4fa571e1461014a57600080fd5b80635d5f221f1461008d5780636f61c744146100b65780637c108333146100cd5780637ca97e8c146100e2575b600080fd5b6100a161009b3660046106de565b50600090565b60405190151581526020015b60405180910390f35b6100be610153565b6040516100ad939291906108e9565b6100e06100db366004610692565b6102d1565b005b6100e06100f0366004610762565b610359565b6100e06101033660046106b4565b6103e8565b600c5461011b906001600160a01b031681565b6040516001600160a01b0390911681526020016100ad565b61013c60015481565b6040519081526020016100ad565b61013c60025481565b60055460038054604080516020808402820181019092528281526060948594600094909360049360ff90931692918591879084015b828210156102345783829060005260206000200180546101a7906109f3565b80601f01602080910402602001604051908101604052809291908181526020018280546101d3906109f3565b80156102205780601f106101f557610100808354040283529160200191610220565b820191906000526020600020905b81548152906001019060200180831161020357829003601f168201915b505050505081526020019060010190610188565b505050509250818054610246906109f3565b80601f0160208091040260200160405190810160405280929190818152602001828054610272906109f3565b80156102bf5780601f10610294576101008083540402835291602001916102bf565b820191906000526020600020905b8154815290600101906020018083116102a257829003601f168201915b50505050509150925092509250909192565b6006805460018101825560009182527ff652222313e28459528d920b65115c16c04f3efc82aaedc97be59f3f377c0d3f0180546001600160a01b0319166001600160a01b03848116919091179091559054604051911681527ffa002e39398e157a85a81542dea7f10c5aaf2806e9a9b75191aaf82eb1917b349060200160405180910390a150565b8151805183916003916103739183916020909101906104a9565b50602082810151805161038c9260018501920190610506565b50604091820151600291909101805460ff191660ff909216919091179055516001600160a01b03821681527ffa002e39398e157a85a81542dea7f10c5aaf2806e9a9b75191aaf82eb1917b349060200160405180910390a15050565b600c546001600160a01b0383811691161461040257600080fd5b60015481111561047e5760405162461bcd60e51b815260206004820152603f60248201527f5374616b65642052657075746174696f6e2063616e6e6f74206265206869676860448201527f6572207468616e20796f75722063757272656e742072657075746174696f6e00606482015260840160405180910390fd5b8060015461048c91906109dc565b600155600280549060006104a083806109c4565b90915550505050565b8280548282559060005260206000209081019282156104f6579160200282015b828111156104f657825180516104e6918491602090910190610506565b50916020019190600101906104c9565b50610502929150610586565b5090565b828054610512906109f3565b90600052602060002090601f016020900481019282610534576000855561057a565b82601f1061054d57805160ff191683800117855561057a565b8280016001018555821561057a579182015b8281111561057a57825182559160200191906001019061055f565b506105029291506105a3565b8082111561050257600061059a82826105b8565b50600101610586565b5b8082111561050257600081556001016105a4565b5080546105c4906109f3565b6000825580601f106105d4575050565b601f0160209004906000526020600020908101906105f291906105a3565b50565b80356001600160a01b038116811461060c57600080fd5b919050565b600082601f83011261062257600080fd5b813567ffffffffffffffff81111561063c5761063c610a44565b61064f601f8201601f1916602001610993565b81815284602083860101111561066457600080fd5b816020850160208301376000918101602001919091529392505050565b803560ff8116811461060c57600080fd5b6000602082840312156106a457600080fd5b6106ad826105f5565b9392505050565b600080604083850312156106c757600080fd5b6106d0836105f5565b946020939093013593505050565b6000602082840312156106f057600080fd5b813567ffffffffffffffff8082111561070857600080fd5b908301906060828603121561071c57600080fd5b61072461096a565b82358281111561073357600080fd5b61073f87828601610611565b825250602083013560208201526040830135604082015280935050505092915050565b6000806040838503121561077557600080fd5b823567ffffffffffffffff8082111561078d57600080fd5b90840190606082870312156107a157600080fd5b6107a961096a565b8235828111156107b857600080fd5b8301601f810188136107c957600080fd5b80356020848211156107dd576107dd610a44565b8160051b6107ec828201610993565b8381528281019085840183870185018e101561080757600080fd5b600093505b858410156108465780358981111561082357600080fd5b6108318f87838b0101610611565b8452506001939093019291840191840161080c565b50865250508581013592508483111561085e57600080fd5b61086a8a848801610611565b8185015261087a60408701610681565b604085015283975061088d818a016105f5565b96505050505050509250929050565b6000815180845260005b818110156108c2576020818501810151868301820152016108a6565b818111156108d4576000602083870101525b50601f01601f19169290920160200192915050565b6000606082016060835280865180835260808501915060808160051b8601019250602080890160005b8381101561094057607f1988870301855261092e86835161089c565b95509382019390820190600101610912565b505085840381870152505050610956818661089c565b91505060ff83166040830152949350505050565b6040516060810167ffffffffffffffff8111828210171561098d5761098d610a44565b60405290565b604051601f8201601f1916810167ffffffffffffffff811182821017156109bc576109bc610a44565b604052919050565b600082198211156109d7576109d7610a2e565b500190565b6000828210156109ee576109ee610a2e565b500390565b600181811c90821680610a0757607f821691505b60208210811415610a2857634e487b7160e01b600052602260045260246000fd5b50919050565b634e487b7160e01b600052601160045260246000fd5b634e487b7160e01b600052604160045260246000fdfea26469706673582212204060323702def4f1ffb5416db45a7fc0eb55b10193ca36703e217ab9be22f49b64736f6c63430008070033",
  "immutableReferences": {},
  "source": "// SPDX-License-Identifier: MIT\n\npragma solidity 0.8.7;\n\nimport \"./interface/IUserSummary.sol\";\n\ncontract UserSummary is IUserSummary {\n    event UserSummaryUpdate(address universalAddress);\n\n    address private _universalAddress;\n    uint256 public _userReputation;\n    uint256 public stakedReputation;\n\n    Profile private _userProfile;\n    address[] private createdMarkets;\n    WorkerTaskGeneralDescription private _workerTaskGeneralDescription;\n    RequesterTaskGeneralDescription private _requesterTaskGeneralDescription;\n\n    address public owner;\n\n    constructor(address universalAddress) {\n        _universalAddress = universalAddress;\n        owner = universalAddress;\n        _userReputation = 1;\n\n        _workerTaskGeneralDescription.taskCompleted = 0;\n        _requesterTaskGeneralDescription.taskAssigned = 0;\n    }\n\n   /**\n     *\n     */\n    function getUserProfile() external view override returns (string[] memory, string memory, uint8) {\n        return (_userProfile.skills, _userProfile.profession, _userProfile.activityLevel);\n    }\n\n   /**\n     *\n     */\n    function createMarket(address market) external {\n        createdMarkets.push(market);\n        emit UserSummaryUpdate(_universalAddress);\n    }\n\n    /**\n     *\n     */\n    function updateProfile(Profile memory updatedProfile, address universalAddress) external override {\n        _userProfile = updatedProfile;\n        emit UserSummaryUpdate(universalAddress);\n    }\n\n    function stakeReputation(address _fromBeneficiary, uint256 _stakedReputation) external {\n        require(_fromBeneficiary == owner);\n        require(_stakedReputation <= _userReputation, \"Staked Reputation cannot be higher than your current reputation\");\n\n       _userReputation = _userReputation - _stakedReputation;\n        stakedReputation += stakedReputation;\n    }\n\n    /**\n     *\n     */\n    function evaluateUser(Evaluation.EvaluationState memory evaluationState) external override returns(bool) {}\n}\n",
  "sourcePath": "/Users/elijahhampton/Desktop/opportunity-core/src/contracts/user/UserSummary.sol",
  "compiler": {
    "name": "solc",
    "version": "0.8.7+commit.e28d00a7.Emscripten.clang"
  },
  "schemaVersion": "3.4.3",
  "updatedAt": "2021-09-29T04:01:30.286Z",
  "networkType": "ethereum",
  "devdoc": {
    "kind": "dev",
    "methods": {},
    "version": 1
  },
  "userdoc": {
    "kind": "user",
    "methods": {},
    "version": 1
  }
}