{
  "contractName": "UserSummaryFactory",
  "abi": [
    {
      "inputs": [],
      "stateMutability": "nonpayable",
      "type": "constructor"
    },
    {
      "anonymous": false,
      "inputs": [
        {
          "indexed": true,
          "internalType": "address",
          "name": "_userSummary",
          "type": "address"
        },
        {
          "indexed": true,
          "internalType": "uint256",
          "name": "index",
          "type": "uint256"
        },
        {
          "indexed": true,
          "internalType": "address",
          "name": "universalAddress",
          "type": "address"
        }
      ],
      "name": "UserSummaryCreated",
      "type": "event"
    },
    {
      "inputs": [
        {
          "internalType": "address",
          "name": "universalAddress",
          "type": "address"
        }
      ],
      "name": "createUserSummary",
      "outputs": [
        {
          "internalType": "address",
          "name": "",
          "type": "address"
        }
      ],
      "stateMutability": "nonpayable",
      "type": "function"
    },
    {
      "inputs": [],
      "name": "getNumUserSummaries",
      "outputs": [
        {
          "internalType": "uint256",
          "name": "",
          "type": "uint256"
        }
      ],
      "stateMutability": "view",
      "type": "function",
      "constant": true
    }
  ],
  "bytecode": "0x608060405234801561001057600080fd5b50610d02806100206000396000f3fe608060405234801561001057600080fd5b50600436106100365760003560e01c80636101579c1461003b578063c64c2c3114610051575b600080fd5b6000546040519081526020015b60405180910390f35b61006461005f36600461014c565b61007c565b6040516001600160a01b039091168152602001610048565b6000808260405161008c9061013f565b6001600160a01b039091168152602001604051809103906000f0801580156100b8573d6000803e3d6000fd5b50600080546001810182558180527f290decd9548b62a8d60345a988386fc84ba6bc95484008f6362f93160ef3e5630180546001600160a01b0319166001600160a01b03848116918217909255825460405194955091871693919290917fd8caca208900b580ecfabb87af6fb1be62fd6486df520f965033d95004a879d19190a492915050565b610b508061017d83390190565b60006020828403121561015e57600080fd5b81356001600160a01b038116811461017557600080fd5b939250505056fe608060405234801561001057600080fd5b50604051610b50380380610b5083398101604081905261002f9161006a565b600080546001600160a01b039092166001600160a01b031992831681178255600c805490931617909155600180556007819055600a5561009a565b60006020828403121561007c57600080fd5b81516001600160a01b038116811461009357600080fd5b9392505050565b610aa7806100a96000396000f3fe608060405234801561001057600080fd5b50600436106100885760003560e01c80637f306ba11161005b5780637f306ba1146100f45780638da5cb5b14610107578063cebc227314610132578063d4fa571e1461014957600080fd5b80635d5f221f1461008d5780636f61c744146100b55780637c108333146100cc5780637ca97e8c146100e1575b600080fd5b6100a061009b3660046106f5565b610152565b60405190151581526020015b60405180910390f35b6100bd61016f565b6040516100ac93929190610900565b6100df6100da3660046106a9565b6102ed565b005b6100df6100ef366004610779565b610375565b6100df6101023660046106cb565b610404565b600c5461011a906001600160a01b031681565b6040516001600160a01b0390911681526020016100ac565b61013b60015481565b6040519081526020016100ac565b61013b60025481565b600c546000906001600160a01b031661016a57600080fd5b919050565b60055460038054604080516020808402820181019092528281526060948594600094909360049360ff90931692918591879084015b828210156102505783829060005260206000200180546101c390610a0a565b80601f01602080910402602001604051908101604052809291908181526020018280546101ef90610a0a565b801561023c5780601f106102115761010080835404028352916020019161023c565b820191906000526020600020905b81548152906001019060200180831161021f57829003601f168201915b5050505050815260200190600101906101a4565b50505050925081805461026290610a0a565b80601f016020809104026020016040519081016040528092919081815260200182805461028e90610a0a565b80156102db5780601f106102b0576101008083540402835291602001916102db565b820191906000526020600020905b8154815290600101906020018083116102be57829003601f168201915b50505050509150925092509250909192565b6006805460018101825560009182527ff652222313e28459528d920b65115c16c04f3efc82aaedc97be59f3f377c0d3f0180546001600160a01b0319166001600160a01b03848116919091179091559054604051911681527ffa002e39398e157a85a81542dea7f10c5aaf2806e9a9b75191aaf82eb1917b349060200160405180910390a150565b81518051839160039161038f9183916020909101906104c5565b5060208281015180516103a89260018501920190610522565b50604091820151600291909101805460ff191660ff909216919091179055516001600160a01b03821681527ffa002e39398e157a85a81542dea7f10c5aaf2806e9a9b75191aaf82eb1917b349060200160405180910390a15050565b600c546001600160a01b0383811691161461041e57600080fd5b60015481111561049a5760405162461bcd60e51b815260206004820152603f60248201527f5374616b65642052657075746174696f6e2063616e6e6f74206265206869676860448201527f6572207468616e20796f75722063757272656e742072657075746174696f6e00606482015260840160405180910390fd5b806001546104a891906109f3565b600155600280549060006104bc83806109db565b90915550505050565b828054828255906000526020600020908101928215610512579160200282015b828111156105125782518051610502918491602090910190610522565b50916020019190600101906104e5565b5061051e9291506105a2565b5090565b82805461052e90610a0a565b90600052602060002090601f0160209004810192826105505760008555610596565b82601f1061056957805160ff1916838001178555610596565b82800160010185558215610596579182015b8281111561059657825182559160200191906001019061057b565b5061051e9291506105bf565b8082111561051e5760006105b682826105d4565b506001016105a2565b5b8082111561051e57600081556001016105c0565b5080546105e090610a0a565b6000825580601f106105f0575050565b601f01602090049060005260206000209081019061060e91906105bf565b50565b80356001600160a01b038116811461016a57600080fd5b600082601f83011261063957600080fd5b813567ffffffffffffffff81111561065357610653610a5b565b610666601f8201601f19166020016109aa565b81815284602083860101111561067b57600080fd5b816020850160208301376000918101602001919091529392505050565b803560ff8116811461016a57600080fd5b6000602082840312156106bb57600080fd5b6106c482610611565b9392505050565b600080604083850312156106de57600080fd5b6106e783610611565b946020939093013593505050565b60006020828403121561070757600080fd5b813567ffffffffffffffff8082111561071f57600080fd5b908301906060828603121561073357600080fd5b61073b610981565b82358281111561074a57600080fd5b61075687828601610628565b825250602083013560208201526040830135604082015280935050505092915050565b6000806040838503121561078c57600080fd5b823567ffffffffffffffff808211156107a457600080fd5b90840190606082870312156107b857600080fd5b6107c0610981565b8235828111156107cf57600080fd5b8301601f810188136107e057600080fd5b80356020848211156107f4576107f4610a5b565b8160051b6108038282016109aa565b8381528281019085840183870185018e101561081e57600080fd5b600093505b8584101561085d5780358981111561083a57600080fd5b6108488f87838b0101610628565b84525060019390930192918401918401610823565b50865250508581013592508483111561087557600080fd5b6108818a848801610628565b8185015261089160408701610698565b60408501528397506108a4818a01610611565b96505050505050509250929050565b6000815180845260005b818110156108d9576020818501810151868301820152016108bd565b818111156108eb576000602083870101525b50601f01601f19169290920160200192915050565b6000606082016060835280865180835260808501915060808160051b8601019250602080890160005b8381101561095757607f198887030185526109458683516108b3565b95509382019390820190600101610929565b50508584038187015250505061096d81866108b3565b91505060ff83166040830152949350505050565b6040516060810167ffffffffffffffff811182821017156109a4576109a4610a5b565b60405290565b604051601f8201601f1916810167ffffffffffffffff811182821017156109d3576109d3610a5b565b604052919050565b600082198211156109ee576109ee610a45565b500190565b600082821015610a0557610a05610a45565b500390565b600181811c90821680610a1e57607f821691505b60208210811415610a3f57634e487b7160e01b600052602260045260246000fd5b50919050565b634e487b7160e01b600052601160045260246000fd5b634e487b7160e01b600052604160045260246000fdfea2646970667358221220cb33bdddbb8f94763c5ba473ea6a4bdd96abec3c8e27fed9677a1e551fbe43d964736f6c63430008070033a2646970667358221220f04bbfefdacd136e7f627a4491c7adf2649d7790a74f62d1087d1f4f926dca7364736f6c63430008070033",
  "immutableReferences": {},
  "source": "// SPDX-License-Identifier: MIT\n\npragma solidity 0.8.7;\n\nimport \"./UserSummary.sol\";\n\ncontract UserSummaryFactory {\n    event UserSummaryCreated(address indexed _userSummary, uint256 indexed index, address indexed universalAddress);\n    UserSummary[] private _userSummaries;\n\n    constructor() {}\n\n    /**\n     * Creates a user summary contract for each user based on their civic ID.\n     */\n     function createUserSummary(address universalAddress) external returns(address) {\n        UserSummary userSummary = new UserSummary(universalAddress);\n        _userSummaries.push(userSummary);\n\n        emit UserSummaryCreated(address(userSummary), _userSummaries.length, universalAddress);\n        return address(userSummary);\n    }\n\n    /**\n     *\n     */\n     function getNumUserSummaries() public view returns (uint256) {\n         return _userSummaries.length;\n     }\n}\n",
  "sourcePath": "/Users/elijahhampton/Desktop/opportunity-core/src/contracts/user/UserSummaryFactory.sol",
  "compiler": {
    "name": "solc",
    "version": "0.8.7+commit.e28d00a7.Emscripten.clang"
  },
  "schemaVersion": "3.4.3",
  "updatedAt": "2021-10-10T17:41:14.981Z",
  "networkType": "ethereum",
  "devdoc": {
    "kind": "dev",
    "methods": {},
    "version": 1
  },
  "userdoc": {
    "kind": "user",
    "methods": {
      "createUserSummary(address)": {
        "notice": "Creates a user summary contract for each user based on their civic ID."
      }
    },
    "version": 1
  }
}