{
  "contractName": "WorkRelationship",
  "abi": [
    {
      "inputs": [
        {
          "internalType": "address",
          "name": "marketAddress",
          "type": "address"
        }
      ],
      "stateMutability": "nonpayable",
      "type": "constructor"
    },
    {
      "anonymous": false,
      "inputs": [
        {
          "indexed": true,
          "internalType": "address",
          "name": "previousOwner",
          "type": "address"
        },
        {
          "indexed": true,
          "internalType": "address",
          "name": "newOwner",
          "type": "address"
        }
      ],
      "name": "OwnershipTransferred",
      "type": "event"
    },
    {
      "anonymous": false,
      "inputs": [
        {
          "indexed": true,
          "internalType": "address",
          "name": "_owner",
          "type": "address"
        },
        {
          "indexed": true,
          "internalType": "address",
          "name": "relationship",
          "type": "address"
        },
        {
          "indexed": true,
          "internalType": "address",
          "name": "marketAddress",
          "type": "address"
        }
      ],
      "name": "WorkRelationshipCreated",
      "type": "event"
    },
    {
      "anonymous": false,
      "inputs": [
        {
          "indexed": true,
          "internalType": "address",
          "name": "owner",
          "type": "address"
        },
        {
          "indexed": true,
          "internalType": "address",
          "name": "relationship",
          "type": "address"
        }
      ],
      "name": "WorkRelationshipEnded",
      "type": "event"
    },
    {
      "inputs": [],
      "name": "_contractStatus",
      "outputs": [
        {
          "internalType": "enum Evaluation.WorkRelationshipState",
          "name": "",
          "type": "uint8"
        }
      ],
      "stateMutability": "view",
      "type": "function"
    },
    {
      "inputs": [],
      "name": "_taskMetadataPointer",
      "outputs": [
        {
          "internalType": "string",
          "name": "",
          "type": "string"
        }
      ],
      "stateMutability": "view",
      "type": "function"
    },
    {
      "inputs": [],
      "name": "_workExchangeAddress",
      "outputs": [
        {
          "internalType": "address",
          "name": "",
          "type": "address"
        }
      ],
      "stateMutability": "view",
      "type": "function"
    },
    {
      "inputs": [],
      "name": "owner",
      "outputs": [
        {
          "internalType": "address",
          "name": "",
          "type": "address"
        }
      ],
      "stateMutability": "view",
      "type": "function"
    },
    {
      "inputs": [],
      "name": "renounceOwnership",
      "outputs": [],
      "stateMutability": "nonpayable",
      "type": "function"
    },
    {
      "inputs": [
        {
          "internalType": "address",
          "name": "newOwner",
          "type": "address"
        }
      ],
      "name": "transferOwnership",
      "outputs": [],
      "stateMutability": "nonpayable",
      "type": "function"
    },
    {
      "inputs": [
        {
          "internalType": "address payable",
          "name": "newWorker",
          "type": "address"
        },
        {
          "components": [
            {
              "internalType": "string",
              "name": "industry",
              "type": "string"
            },
            {
              "internalType": "uint256",
              "name": "industrylevel",
              "type": "uint256"
            },
            {
              "internalType": "uint256",
              "name": "reputation",
              "type": "uint256"
            }
          ],
          "internalType": "struct Evaluation.EvaluationState",
          "name": "evaluationState",
          "type": "tuple"
        },
        {
          "internalType": "bool",
          "name": "isTimeLocked",
          "type": "bool"
        }
      ],
      "name": "assignNewWorker",
      "outputs": [],
      "stateMutability": "nonpayable",
      "type": "function"
    },
    {
      "inputs": [
        {
          "internalType": "address payable",
          "name": "workerBeneficiary",
          "type": "address"
        },
        {
          "internalType": "bool",
          "name": "isTimeLocked",
          "type": "bool"
        }
      ],
      "name": "createWorkExchange",
      "outputs": [],
      "stateMutability": "nonpayable",
      "type": "function"
    },
    {
      "inputs": [],
      "name": "disableWorkRelationship",
      "outputs": [],
      "stateMutability": "nonpayable",
      "type": "function"
    },
    {
      "inputs": [
        {
          "internalType": "string",
          "name": "newTaskPointerHash",
          "type": "string"
        }
      ],
      "name": "updateTaskMetadataPointer",
      "outputs": [],
      "stateMutability": "nonpayable",
      "type": "function"
    }
  ],
  "bytecode": "0x608060405260405180602001604052806000815250600290805190602001906200002b92919062000218565b503480156200003957600080fd5b5060405162004e7038038062004e7083398181016040528101906200005f9190620002df565b600062000071620001e760201b60201c565b9050806000806101000a81548173ffffffffffffffffffffffffffffffffffffffff021916908373ffffffffffffffffffffffffffffffffffffffff1602179055508073ffffffffffffffffffffffffffffffffffffffff16600073ffffffffffffffffffffffffffffffffffffffff167f8be0079c531659141344cd1fd0a4f28419497f9722a3daafe3b4186f6b6457e060405160405180910390a35060008060146101000a81548160ff021916908360068111156200015b577f4e487b7100000000000000000000000000000000000000000000000000000000600052602160045260246000fd5b02179055508073ffffffffffffffffffffffffffffffffffffffff163073ffffffffffffffffffffffffffffffffffffffff166200019e620001ef60201b60201c565b73ffffffffffffffffffffffffffffffffffffffff167f43af47c504a2f23934b1a816cd86633559721bf26c3656844bdde3edd4719e1360405160405180910390a450620003be565b600033905090565b60008060009054906101000a900473ffffffffffffffffffffffffffffffffffffffff16905090565b82805462000226906200033f565b90600052602060002090601f0160209004810192826200024a576000855562000296565b82601f106200026557805160ff191683800117855562000296565b8280016001018555821562000296579182015b828111156200029557825182559160200191906001019062000278565b5b509050620002a59190620002a9565b5090565b5b80821115620002c4576000816000905550600101620002aa565b5090565b600081519050620002d981620003a4565b92915050565b600060208284031215620002f257600080fd5b60006200030284828501620002c8565b91505092915050565b600062000318826200031f565b9050919050565b600073ffffffffffffffffffffffffffffffffffffffff82169050919050565b600060028204905060018216806200035857607f821691505b602082108114156200036f576200036e62000375565b5b50919050565b7f4e487b7100000000000000000000000000000000000000000000000000000000600052602260045260246000fd5b620003af816200030b565b8114620003bb57600080fd5b50565b614aa280620003ce6000396000f3fe60806040523480156200001157600080fd5b5060043610620000ac5760003560e01c8063df502c6b116200006f578063df502c6b146200012b578063e6e88593146200014d578063ec3a4790146200016f578063eebc6e3d146200018f578063f2fde38b14620001b157620000ac565b8063446a02b314620000b15780634568a94e14620000d1578063715018a614620000f15780638da5cb5b14620000fd578063ce079b9a146200011f575b600080fd5b620000cf6004803603810190620000c9919062000cfb565b620001d1565b005b620000ef6004803603810190620000e9919062000d3c565b620002e4565b005b620000fb62000400565b005b6200010762000541565b60405162000116919062000f97565b60405180910390f35b620001296200056a565b005b62000135620006e1565b6040516200014491906200103b565b60405180910390f35b6200015762000777565b6040516200016691906200101e565b60405180910390f35b6200018d600480360381019062000187919062000dd7565b6200078a565b005b6200019962000829565b604051620001a8919062000f97565b60405180910390f35b620001cf6004803603810190620001c9919062000ccf565b6200084f565b005b620001db62000a02565b73ffffffffffffffffffffffffffffffffffffffff16620001fb62000541565b73ffffffffffffffffffffffffffffffffffffffff161462000254576040517f08c379a00000000000000000000000000000000000000000000000000000000081526004016200024b9062001081565b60405180910390fd5b60006200026062000541565b8383604051620002709062000aaa565b6200027e9392919062000fb4565b604051809103906000f0801580156200029b573d6000803e3d6000fd5b50905080600160006101000a81548173ffffffffffffffffffffffffffffffffffffffff021916908373ffffffffffffffffffffffffffffffffffffffff160217905550505050565b620002ee62000a02565b73ffffffffffffffffffffffffffffffffffffffff166200030e62000541565b73ffffffffffffffffffffffffffffffffffffffff161462000367576040517f08c379a00000000000000000000000000000000000000000000000000000000081526004016200035e9062001081565b60405180910390fd5b600062000375848462000a0a565b905060011515811515146200038957600080fd5b3073ffffffffffffffffffffffffffffffffffffffff1663446a02b385846040518363ffffffff1660e01b8152600401620003c692919062000ff1565b600060405180830381600087803b158015620003e157600080fd5b505af1158015620003f6573d6000803e3d6000fd5b5050505050505050565b6200040a62000a02565b73ffffffffffffffffffffffffffffffffffffffff166200042a62000541565b73ffffffffffffffffffffffffffffffffffffffff161462000483576040517f08c379a00000000000000000000000000000000000000000000000000000000081526004016200047a9062001081565b60405180910390fd5b600073ffffffffffffffffffffffffffffffffffffffff1660008054906101000a900473ffffffffffffffffffffffffffffffffffffffff1673ffffffffffffffffffffffffffffffffffffffff167f8be0079c531659141344cd1fd0a4f28419497f9722a3daafe3b4186f6b6457e060405160405180910390a360008060006101000a81548173ffffffffffffffffffffffffffffffffffffffff021916908373ffffffffffffffffffffffffffffffffffffffff160217905550565b60008060009054906101000a900473ffffffffffffffffffffffffffffffffffffffff16905090565b6200057462000a02565b73ffffffffffffffffffffffffffffffffffffffff166200059462000541565b73ffffffffffffffffffffffffffffffffffffffff1614620005ed576040517f08c379a0000000000000000000000000000000000000000000000000000000008152600401620005e49062001081565b60405180910390fd5b6004600681111562000628577f4e487b7100000000000000000000000000000000000000000000000000000000600052602160045260246000fd5b600060149054906101000a900460ff16600681111562000671577f4e487b7100000000000000000000000000000000000000000000000000000000600052602160045260246000fd5b146200067c57600080fd5b3073ffffffffffffffffffffffffffffffffffffffff166200069d62000541565b73ffffffffffffffffffffffffffffffffffffffff167f9f9ae6282c58d4c8aeebc441331043c250c011c89bdc9a917ba54702f0c36a2960405160405180910390a3565b60028054620006f0906200121f565b80601f01602080910402602001604051908101604052809291908181526020018280546200071e906200121f565b80156200076f5780601f1062000743576101008083540402835291602001916200076f565b820191906000526020600020905b8154815290600101906020018083116200075157829003601f168201915b505050505081565b600060149054906101000a900460ff1681565b6200079462000a02565b73ffffffffffffffffffffffffffffffffffffffff16620007b462000541565b73ffffffffffffffffffffffffffffffffffffffff16146200080d576040517f08c379a0000000000000000000000000000000000000000000000000000000008152600401620008049062001081565b60405180910390fd5b80600290805190602001906200082592919062000ab8565b5050565b600160009054906101000a900473ffffffffffffffffffffffffffffffffffffffff1681565b6200085962000a02565b73ffffffffffffffffffffffffffffffffffffffff166200087962000541565b73ffffffffffffffffffffffffffffffffffffffff1614620008d2576040517f08c379a0000000000000000000000000000000000000000000000000000000008152600401620008c99062001081565b60405180910390fd5b600073ffffffffffffffffffffffffffffffffffffffff168173ffffffffffffffffffffffffffffffffffffffff16141562000945576040517f08c379a00000000000000000000000000000000000000000000000000000000081526004016200093c906200105f565b60405180910390fd5b8073ffffffffffffffffffffffffffffffffffffffff1660008054906101000a900473ffffffffffffffffffffffffffffffffffffffff1673ffffffffffffffffffffffffffffffffffffffff167f8be0079c531659141344cd1fd0a4f28419497f9722a3daafe3b4186f6b6457e060405160405180910390a3806000806101000a81548173ffffffffffffffffffffffffffffffffffffffff021916908373ffffffffffffffffffffffffffffffffffffffff16021790555050565b600033905090565b6000808373ffffffffffffffffffffffffffffffffffffffff16635d5f221f846040518263ffffffff1660e01b815260040162000a489190620010a3565b602060405180830381600087803b15801562000a6357600080fd5b505af115801562000a78573d6000803e3d6000fd5b505050506040513d601f19601f8201168201806040525081019062000a9e919062000dab565b90508091505092915050565b61364c806200142183390190565b82805462000ac6906200121f565b90600052602060002090601f01602090048101928262000aea576000855562000b36565b82601f1062000b0557805160ff191683800117855562000b36565b8280016001018555821562000b36579182015b8281111562000b3557825182559160200191906001019062000b18565b5b50905062000b45919062000b49565b5090565b5b8082111562000b6457600081600090555060010162000b4a565b5090565b600062000b7f62000b7984620010f0565b620010c7565b90508281526020810184848401111562000b9857600080fd5b62000ba5848285620011da565b509392505050565b60008135905062000bbe81620013b8565b92915050565b60008135905062000bd581620013d2565b92915050565b60008135905062000bec81620013ec565b92915050565b60008151905062000c0381620013ec565b92915050565b600082601f83011262000c1b57600080fd5b813562000c2d84826020860162000b68565b91505092915050565b60006060828403121562000c4957600080fd5b62000c556060620010c7565b9050600082013567ffffffffffffffff81111562000c7257600080fd5b62000c808482850162000c09565b600083015250602062000c968482850162000cb8565b602083015250604062000cac8482850162000cb8565b60408301525092915050565b60008135905062000cc98162001406565b92915050565b60006020828403121562000ce257600080fd5b600062000cf28482850162000bad565b91505092915050565b6000806040838503121562000d0f57600080fd5b600062000d1f8582860162000bc4565b925050602062000d328582860162000bdb565b9150509250929050565b60008060006060848603121562000d5257600080fd5b600062000d628682870162000bc4565b935050602084013567ffffffffffffffff81111562000d8057600080fd5b62000d8e8682870162000c36565b925050604062000da18682870162000bdb565b9150509250925092565b60006020828403121562000dbe57600080fd5b600062000dce8482850162000bf2565b91505092915050565b60006020828403121562000dea57600080fd5b600082013567ffffffffffffffff81111562000e0557600080fd5b62000e138482850162000c09565b91505092915050565b62000e278162001167565b82525050565b62000e388162001153565b82525050565b62000e49816200117b565b82525050565b62000e5a81620011c6565b82525050565b600062000e6d8262001126565b62000e79818562001131565b935062000e8b818560208601620011e9565b62000e968162001318565b840191505092915050565b600062000eae8262001126565b62000eba818562001142565b935062000ecc818560208601620011e9565b62000ed78162001318565b840191505092915050565b600062000ef160268362001142565b915062000efe8262001329565b604082019050919050565b600062000f1860208362001142565b915062000f258262001378565b602082019050919050565b6000606083016000830151848203600086015262000f4f828262000e60565b915050602083015162000f66602086018262000f86565b50604083015162000f7b604086018262000f86565b508091505092915050565b62000f9181620011bc565b82525050565b600060208201905062000fae600083018462000e2d565b92915050565b600060608201905062000fcb600083018662000e1c565b62000fda602083018562000e1c565b62000fe9604083018462000e3e565b949350505050565b600060408201905062001008600083018562000e1c565b62001017602083018462000e3e565b9392505050565b600060208201905062001035600083018462000e4f565b92915050565b6000602082019050818103600083015262001057818462000ea1565b905092915050565b600060208201905081810360008301526200107a8162000ee2565b9050919050565b600060208201905081810360008301526200109c8162000f09565b9050919050565b60006020820190508181036000830152620010bf818462000f30565b905092915050565b6000620010d3620010e6565b9050620010e1828262001255565b919050565b6000604051905090565b600067ffffffffffffffff8211156200110e576200110d620012e9565b5b620011198262001318565b9050602081019050919050565b600081519050919050565b600082825260208201905092915050565b600082825260208201905092915050565b600062001160826200119c565b9050919050565b600062001174826200119c565b9050919050565b60008115159050919050565b60008190506200119782620013a1565b919050565b600073ffffffffffffffffffffffffffffffffffffffff82169050919050565b6000819050919050565b6000620011d38262001187565b9050919050565b82818337600083830152505050565b60005b8381101562001209578082015181840152602081019050620011ec565b8381111562001219576000848401525b50505050565b600060028204905060018216806200123857607f821691505b602082108114156200124f576200124e620012ba565b5b50919050565b620012608262001318565b810181811067ffffffffffffffff82111715620012825762001281620012e9565b5b80604052505050565b7f4e487b7100000000000000000000000000000000000000000000000000000000600052602160045260246000fd5b7f4e487b7100000000000000000000000000000000000000000000000000000000600052602260045260246000fd5b7f4e487b7100000000000000000000000000000000000000000000000000000000600052604160045260246000fd5b6000601f19601f8301169050919050565b7f4f776e61626c653a206e6577206f776e657220697320746865207a65726f206160008201527f6464726573730000000000000000000000000000000000000000000000000000602082015250565b7f4f776e61626c653a2063616c6c6572206973206e6f7420746865206f776e6572600082015250565b60078110620013b557620013b46200128b565b5b50565b620013c38162001153565b8114620013cf57600080fd5b50565b620013dd8162001167565b8114620013e957600080fd5b50565b620013f7816200117b565b81146200140357600080fd5b50565b6200141181620011bc565b81146200141d57600080fd5b5056fe608060405260405180602001604052806000815250600690805190602001906200002b92919062000360565b503480156200003957600080fd5b506040516200364c3803806200364c83398181016040528101906200005f91906200044c565b816000620000726200035860201b60201c565b9050806000806101000a81548173ffffffffffffffffffffffffffffffffffffffff021916908373ffffffffffffffffffffffffffffffffffffffff16021790555081600160006101000a81548173ffffffffffffffffffffffffffffffffffffffff021916908373ffffffffffffffffffffffffffffffffffffffff160217905550600160009054906101000a900473ffffffffffffffffffffffffffffffffffffffff1673ffffffffffffffffffffffffffffffffffffffff16600073ffffffffffffffffffffffffffffffffffffffff167f8be0079c531659141344cd1fd0a4f28419497f9722a3daafe3b4186f6b6457e060405160405180910390a35050826040516200018390620003f1565b6200018f9190620004e1565b604051809103906000f080158015620001ac573d6000803e3d6000fd5b50600260006101000a81548173ffffffffffffffffffffffffffffffffffffffff021916908373ffffffffffffffffffffffffffffffffffffffff16021790555081604051620001fc90620003f1565b620002089190620004e1565b604051809103906000f08015801562000225573d6000803e3d6000fd5b50600360006101000a81548173ffffffffffffffffffffffffffffffffffffffff021916908373ffffffffffffffffffffffffffffffffffffffff16021790555082600560006101000a81548173ffffffffffffffffffffffffffffffffffffffff021916908373ffffffffffffffffffffffffffffffffffffffff16021790555081600460006101000a81548173ffffffffffffffffffffffffffffffffffffffff021916908373ffffffffffffffffffffffffffffffffffffffff1602179055508173ffffffffffffffffffffffffffffffffffffffff168373ffffffffffffffffffffffffffffffffffffffff167f4dc5f0070db7372507a32b040d6e05e71b6aef1067ae5203e2ffefa98ca4cac230604051620003479190620004c4565b60405180910390a3505050620005eb565b600033905090565b8280546200036e9062000552565b90600052602060002090601f016020900481019282620003925760008555620003de565b82601f10620003ad57805160ff1916838001178555620003de565b82800160010185558215620003de579182015b82811115620003dd578251825591602001919060010190620003c0565b5b509050620003ed9190620003ff565b5090565b611b458062001b0783390190565b5b808211156200041a57600081600090555060010162000400565b5090565b6000815190506200042f81620005b7565b92915050565b6000815190506200044681620005d1565b92915050565b6000806000606084860312156200046257600080fd5b600062000472868287016200041e565b935050602062000485868287016200041e565b9250506040620004988682870162000435565b9150509250925092565b620004ad8162000512565b82525050565b620004be81620004fe565b82525050565b6000602082019050620004db6000830184620004b3565b92915050565b6000602082019050620004f86000830184620004a2565b92915050565b60006200050b8262000532565b9050919050565b60006200051f8262000532565b9050919050565b60008115159050919050565b600073ffffffffffffffffffffffffffffffffffffffff82169050919050565b600060028204905060018216806200056b57607f821691505b6020821081141562000582576200058162000588565b5b50919050565b7f4e487b7100000000000000000000000000000000000000000000000000000000600052602260045260246000fd5b620005c28162000512565b8114620005ce57600080fd5b50565b620005dc8162000526565b8114620005e857600080fd5b50565b61150c80620005fb6000396000f3fe6080604052600436106100a75760003560e01c8063715018a611610064578063715018a6146101895780638428dccc146101a05780638da5cb5b146101bc57806398da87b4146101e7578063b48691e0146101fe578063f2fde38b14610229576100a7565b806303f5d25b146100ac57806335e92819146100c35780634d547ada146100ec5780635db28c66146101175780636628c1d1146101425780637053e7e01461015e575b600080fd5b3480156100b857600080fd5b506100c1610252565b005b3480156100cf57600080fd5b506100ea60048036038101906100e591906110ae565b610352565b005b3480156100f857600080fd5b506101016103e8565b60405161010e91906111b0565b60405180910390f35b34801561012357600080fd5b5061012c610412565b6040516101399190611201565b60405180910390f35b61015c6004803603810190610157919061105c565b610520565b005b34801561016a57600080fd5b50610173610658565b6040516101809190611243565b60405180910390f35b34801561019557600080fd5b5061019e610825565b005b6101ba60048036038101906101b5919061105c565b610962565b005b3480156101c857600080fd5b506101d1610a9a565b6040516101de91906111b0565b60405180910390f35b3480156101f357600080fd5b506101fc610ac3565b005b34801561020a57600080fd5b50610213610bc3565b6040516102209190611243565b60405180910390f35b34801561023557600080fd5b50610250600480360381019061024b9190611033565b610d90565b005b61025a610ecc565b73ffffffffffffffffffffffffffffffffffffffff16610278610a9a565b73ffffffffffffffffffffffffffffffffffffffff16146102ce576040517f08c379a00000000000000000000000000000000000000000000000000000000081526004016102c590611223565b60405180910390fd5b600260009054906101000a900473ffffffffffffffffffffffffffffffffffffffff1673ffffffffffffffffffffffffffffffffffffffff16639af6549a6040518163ffffffff1660e01b8152600401600060405180830381600087803b15801561033857600080fd5b505af115801561034c573d6000803e3d6000fd5b50505050565b61035a6103e8565b73ffffffffffffffffffffffffffffffffffffffff166103786103e8565b73ffffffffffffffffffffffffffffffffffffffff16146103ce576040517f08c379a00000000000000000000000000000000000000000000000000000000081526004016103c590611223565b60405180910390fd5b80600690805190602001906103e4929190610ed4565b5050565b6000600160009054906101000a900473ffffffffffffffffffffffffffffffffffffffff16905090565b606061041c610ecc565b73ffffffffffffffffffffffffffffffffffffffff1661043a610a9a565b73ffffffffffffffffffffffffffffffffffffffff1614610490576040517f08c379a000000000000000000000000000000000000000000000000000000000815260040161048790611223565b60405180910390fd5b6006805461049d90611396565b80601f01602080910402602001604051908101604052809291908181526020018280546104c990611396565b80156105165780601f106104eb57610100808354040283529160200191610516565b820191906000526020600020905b8154815290600101906020018083116104f957829003601f168201915b5050505050905090565b610528610ecc565b73ffffffffffffffffffffffffffffffffffffffff16610546610a9a565b73ffffffffffffffffffffffffffffffffffffffff161461059c576040517f08c379a000000000000000000000000000000000000000000000000000000000815260040161059390611223565b60405180910390fd5b600260009054906101000a900473ffffffffffffffffffffffffffffffffffffffff1673ffffffffffffffffffffffffffffffffffffffff166351cff8d9826040518263ffffffff1660e01b81526004016105f791906111e6565b600060405180830381600087803b15801561061157600080fd5b505af1158015610625573d6000803e3d6000fd5b505050507f7a15267f0526551b50e6c288544c1ac87f16e7837002acfb601cf247ec718d4e60405160405180910390a150565b6000610662610ecc565b73ffffffffffffffffffffffffffffffffffffffff16610680610a9a565b73ffffffffffffffffffffffffffffffffffffffff16146106d6576040517f08c379a00000000000000000000000000000000000000000000000000000000081526004016106cd90611223565b60405180910390fd5b600360009054906101000a900473ffffffffffffffffffffffffffffffffffffffff1673ffffffffffffffffffffffffffffffffffffffff1663e3a9db1a600360009054906101000a900473ffffffffffffffffffffffffffffffffffffffff1673ffffffffffffffffffffffffffffffffffffffff166338af3eed6040518163ffffffff1660e01b815260040160206040518083038186803b15801561077c57600080fd5b505afa158015610790573d6000803e3d6000fd5b505050506040513d601f19601f820116820180604052508101906107b49190611085565b6040518263ffffffff1660e01b81526004016107d091906111cb565b60206040518083038186803b1580156107e857600080fd5b505afa1580156107fc573d6000803e3d6000fd5b505050506040513d601f19601f8201168201806040525081019061082091906110ef565b905090565b61082d6103e8565b73ffffffffffffffffffffffffffffffffffffffff1661084b6103e8565b73ffffffffffffffffffffffffffffffffffffffff16146108a1576040517f08c379a000000000000000000000000000000000000000000000000000000000815260040161089890611223565b60405180910390fd5b600073ffffffffffffffffffffffffffffffffffffffff16600160009054906101000a900473ffffffffffffffffffffffffffffffffffffffff1673ffffffffffffffffffffffffffffffffffffffff167f8be0079c531659141344cd1fd0a4f28419497f9722a3daafe3b4186f6b6457e060405160405180910390a36000600160006101000a81548173ffffffffffffffffffffffffffffffffffffffff021916908373ffffffffffffffffffffffffffffffffffffffff160217905550565b61096a610ecc565b73ffffffffffffffffffffffffffffffffffffffff16610988610a9a565b73ffffffffffffffffffffffffffffffffffffffff16146109de576040517f08c379a00000000000000000000000000000000000000000000000000000000081526004016109d590611223565b60405180910390fd5b600360009054906101000a900473ffffffffffffffffffffffffffffffffffffffff1673ffffffffffffffffffffffffffffffffffffffff166351cff8d9826040518263ffffffff1660e01b8152600401610a3991906111e6565b600060405180830381600087803b158015610a5357600080fd5b505af1158015610a67573d6000803e3d6000fd5b505050507fb24b6304585135966b8217241802ddd6fe969a26cc5f252ebe153be87a6c007a60405160405180910390a150565b60008060009054906101000a900473ffffffffffffffffffffffffffffffffffffffff16905090565b610acb610ecc565b73ffffffffffffffffffffffffffffffffffffffff16610ae9610a9a565b73ffffffffffffffffffffffffffffffffffffffff1614610b3f576040517f08c379a0000000000000000000000000000000000000000000000000000000008152600401610b3690611223565b60405180910390fd5b600360009054906101000a900473ffffffffffffffffffffffffffffffffffffffff1673ffffffffffffffffffffffffffffffffffffffff16639af6549a6040518163ffffffff1660e01b8152600401600060405180830381600087803b158015610ba957600080fd5b505af1158015610bbd573d6000803e3d6000fd5b50505050565b6000610bcd610ecc565b73ffffffffffffffffffffffffffffffffffffffff16610beb610a9a565b73ffffffffffffffffffffffffffffffffffffffff1614610c41576040517f08c379a0000000000000000000000000000000000000000000000000000000008152600401610c3890611223565b60405180910390fd5b600260009054906101000a900473ffffffffffffffffffffffffffffffffffffffff1673ffffffffffffffffffffffffffffffffffffffff1663e3a9db1a600260009054906101000a900473ffffffffffffffffffffffffffffffffffffffff1673ffffffffffffffffffffffffffffffffffffffff166338af3eed6040518163ffffffff1660e01b815260040160206040518083038186803b158015610ce757600080fd5b505afa158015610cfb573d6000803e3d6000fd5b505050506040513d601f19601f82011682018060405250810190610d1f9190611085565b6040518263ffffffff1660e01b8152600401610d3b91906111cb565b60206040518083038186803b158015610d5357600080fd5b505afa158015610d67573d6000803e3d6000fd5b505050506040513d601f19601f82011682018060405250810190610d8b91906110ef565b905090565b610d98610ecc565b73ffffffffffffffffffffffffffffffffffffffff16610db6610a9a565b73ffffffffffffffffffffffffffffffffffffffff1614610e0c576040517f08c379a0000000000000000000000000000000000000000000000000000000008152600401610e0390611223565b60405180910390fd5b8073ffffffffffffffffffffffffffffffffffffffff16600160009054906101000a900473ffffffffffffffffffffffffffffffffffffffff1673ffffffffffffffffffffffffffffffffffffffff167f8be0079c531659141344cd1fd0a4f28419497f9722a3daafe3b4186f6b6457e060405160405180910390a380600160006101000a81548173ffffffffffffffffffffffffffffffffffffffff021916908373ffffffffffffffffffffffffffffffffffffffff16021790555050565b600033905090565b828054610ee090611396565b90600052602060002090601f016020900481019282610f025760008555610f49565b82601f10610f1b57805160ff1916838001178555610f49565b82800160010185558215610f49579182015b82811115610f48578251825591602001919060010190610f2d565b5b509050610f569190610f5a565b5090565b5b80821115610f73576000816000905550600101610f5b565b5090565b6000610f8a610f8584611283565b61125e565b905082815260208101848484011115610fa257600080fd5b610fad848285611354565b509392505050565b600081359050610fc481611491565b92915050565b600081359050610fd9816114a8565b92915050565b600081519050610fee816114a8565b92915050565b600082601f83011261100557600080fd5b8135611015848260208601610f77565b91505092915050565b60008151905061102d816114bf565b92915050565b60006020828403121561104557600080fd5b600061105384828501610fb5565b91505092915050565b60006020828403121561106e57600080fd5b600061107c84828501610fca565b91505092915050565b60006020828403121561109757600080fd5b60006110a584828501610fdf565b91505092915050565b6000602082840312156110c057600080fd5b600082013567ffffffffffffffff8111156110da57600080fd5b6110e684828501610ff4565b91505092915050565b60006020828403121561110157600080fd5b600061110f8482850161101e565b91505092915050565b6111218161131e565b82525050565b611130816112e2565b82525050565b61113f816112d0565b82525050565b6000611150826112b4565b61115a81856112bf565b935061116a818560208601611363565b61117381611457565b840191505092915050565b600061118b6020836112bf565b915061119682611468565b602082019050919050565b6111aa81611314565b82525050565b60006020820190506111c56000830184611136565b92915050565b60006020820190506111e06000830184611118565b92915050565b60006020820190506111fb6000830184611127565b92915050565b6000602082019050818103600083015261121b8184611145565b905092915050565b6000602082019050818103600083015261123c8161117e565b9050919050565b600060208201905061125860008301846111a1565b92915050565b6000611268611279565b905061127482826113c8565b919050565b6000604051905090565b600067ffffffffffffffff82111561129e5761129d611428565b5b6112a782611457565b9050602081019050919050565b600081519050919050565b600082825260208201905092915050565b60006112db826112f4565b9050919050565b60006112ed826112f4565b9050919050565b600073ffffffffffffffffffffffffffffffffffffffff82169050919050565b6000819050919050565b600061132982611330565b9050919050565b600061133b82611342565b9050919050565b600061134d826112f4565b9050919050565b82818337600083830152505050565b60005b83811015611381578082015181840152602081019050611366565b83811115611390576000848401525b50505050565b600060028204905060018216806113ae57607f821691505b602082108114156113c2576113c16113f9565b5b50919050565b6113d182611457565b810181811067ffffffffffffffff821117156113f0576113ef611428565b5b80604052505050565b7f4e487b7100000000000000000000000000000000000000000000000000000000600052602260045260246000fd5b7f4e487b7100000000000000000000000000000000000000000000000000000000600052604160045260246000fd5b6000601f19601f8301169050919050565b7f4f776e61626c653a2063616c6c6572206973206e6f7420746865206f776e6572600082015250565b61149a816112d0565b81146114a557600080fd5b50565b6114b1816112e2565b81146114bc57600080fd5b50565b6114c881611314565b81146114d357600080fd5b5056fea26469706673582212203ee12a6313fdedd1ea97e979bc7aa08a47abbb1c11174192f6abddde53245fc564736f6c6343000804003360a06040523480156200001157600080fd5b5060405162001b4538038062001b45833981810160405281019062000037919062000209565b600062000049620001ea60201b60201c565b9050806000806101000a81548173ffffffffffffffffffffffffffffffffffffffff021916908373ffffffffffffffffffffffffffffffffffffffff1602179055508073ffffffffffffffffffffffffffffffffffffffff16600073ffffffffffffffffffffffffffffffffffffffff167f8be0079c531659141344cd1fd0a4f28419497f9722a3daafe3b4186f6b6457e060405160405180910390a350600073ffffffffffffffffffffffffffffffffffffffff168173ffffffffffffffffffffffffffffffffffffffff1614156200015a576040517f08c379a000000000000000000000000000000000000000000000000000000000815260040162000151906200025c565b60405180910390fd5b8073ffffffffffffffffffffffffffffffffffffffff1660808173ffffffffffffffffffffffffffffffffffffffff1660601b815250506000600260006101000a81548160ff02191690836002811115620001de577f4e487b7100000000000000000000000000000000000000000000000000000000600052602160045260246000fd5b0217905550506200032c565b600033905090565b600081519050620002038162000312565b92915050565b6000602082840312156200021c57600080fd5b60006200022c84828501620001f2565b91505092915050565b600062000244602d836200027e565b91506200025182620002c3565b604082019050919050565b60006020820190508181036000830152620002778162000235565b9050919050565b600082825260208201905092915050565b60006200029c82620002a3565b9050919050565b600073ffffffffffffffffffffffffffffffffffffffff82169050919050565b7f526566756e64457363726f773a2062656e65666963696172792069732074686560008201527f207a65726f206164647265737300000000000000000000000000000000000000602082015250565b6200031d816200028f565b81146200032957600080fd5b50565b60805160601c6117fa6200034b600039600061027501526117fa6000f3fe6080604052600436106100a75760003560e01c80638da5cb5b116100645780638da5cb5b146101825780639af6549a146101ad578063c19d93fb146101c4578063e3a9db1a146101ef578063f2fde38b1461022c578063f340fa0114610255576100a7565b806338af3eed146100ac57806343d726d6146100d757806351cff8d9146100ee578063685ca19414610117578063715018a6146101545780638c52dc411461016b575b600080fd5b3480156100b857600080fd5b506100c1610271565b6040516100ce9190611229565b60405180910390f35b3480156100e357600080fd5b506100ec610299565b005b3480156100fa57600080fd5b5061011560048036038101906101109190611027565b61044d565b005b34801561012357600080fd5b5061013e60048036038101906101399190610ffe565b6104a1565b60405161014b9190611244565b60405180910390f35b34801561016057600080fd5b50610169610525565b005b34801561017757600080fd5b5061018061065f565b005b34801561018e57600080fd5b50610197610814565b6040516101a4919061120e565b60405180910390f35b3480156101b957600080fd5b506101c261083d565b005b3480156101d057600080fd5b506101d9610928565b6040516101e6919061125f565b60405180910390f35b3480156101fb57600080fd5b5061021660048036038101906102119190610ffe565b61093f565b604051610223919061139a565b60405180910390f35b34801561023857600080fd5b50610253600480360381019061024e9190610ffe565b610988565b005b61026f600480360381019061026a9190610ffe565b610b31565b005b60007f0000000000000000000000000000000000000000000000000000000000000000905090565b6102a1610bf7565b73ffffffffffffffffffffffffffffffffffffffff166102bf610814565b73ffffffffffffffffffffffffffffffffffffffff1614610315576040517f08c379a000000000000000000000000000000000000000000000000000000000815260040161030c9061135a565b60405180910390fd5b6000600281111561034f577f4e487b7100000000000000000000000000000000000000000000000000000000600052602160045260246000fd5b610357610928565b600281111561038f577f4e487b7100000000000000000000000000000000000000000000000000000000600052602160045260246000fd5b146103cf576040517f08c379a00000000000000000000000000000000000000000000000000000000081526004016103c69061133a565b60405180910390fd5b60028060006101000a81548160ff0219169083600281111561041a577f4e487b7100000000000000000000000000000000000000000000000000000000600052602160045260246000fd5b02179055507f088672c3a6e342f7cd94a65ba63b79df24a8973927b4d05d803c44bbf787d12f60405160405180910390a1565b610456816104a1565b610495576040517f08c379a000000000000000000000000000000000000000000000000000000000815260040161048c9061131a565b60405180910390fd5b61049e81610bff565b50565b6000600160028111156104dd577f4e487b7100000000000000000000000000000000000000000000000000000000600052602160045260246000fd5b6104e5610928565b600281111561051d577f4e487b7100000000000000000000000000000000000000000000000000000000600052602160045260246000fd5b149050919050565b61052d610bf7565b73ffffffffffffffffffffffffffffffffffffffff1661054b610814565b73ffffffffffffffffffffffffffffffffffffffff16146105a1576040517f08c379a00000000000000000000000000000000000000000000000000000000081526004016105989061135a565b60405180910390fd5b600073ffffffffffffffffffffffffffffffffffffffff1660008054906101000a900473ffffffffffffffffffffffffffffffffffffffff1673ffffffffffffffffffffffffffffffffffffffff167f8be0079c531659141344cd1fd0a4f28419497f9722a3daafe3b4186f6b6457e060405160405180910390a360008060006101000a81548173ffffffffffffffffffffffffffffffffffffffff021916908373ffffffffffffffffffffffffffffffffffffffff160217905550565b610667610bf7565b73ffffffffffffffffffffffffffffffffffffffff16610685610814565b73ffffffffffffffffffffffffffffffffffffffff16146106db576040517f08c379a00000000000000000000000000000000000000000000000000000000081526004016106d29061135a565b60405180910390fd5b60006002811115610715577f4e487b7100000000000000000000000000000000000000000000000000000000600052602160045260246000fd5b61071d610928565b6002811115610755577f4e487b7100000000000000000000000000000000000000000000000000000000600052602160045260246000fd5b14610795576040517f08c379a000000000000000000000000000000000000000000000000000000000815260040161078c9061137a565b60405180910390fd5b6001600260006101000a81548160ff021916908360028111156107e1577f4e487b7100000000000000000000000000000000000000000000000000000000600052602160045260246000fd5b02179055507f599d8e5a83cffb867d051598c4d70e805d59802d8081c1c7d6dffc5b6aca2b8960405160405180910390a1565b60008060009054906101000a900473ffffffffffffffffffffffffffffffffffffffff16905090565b600280811115610876577f4e487b7100000000000000000000000000000000000000000000000000000000600052602160045260246000fd5b61087e610928565b60028111156108b6577f4e487b7100000000000000000000000000000000000000000000000000000000600052602160045260246000fd5b146108f6576040517f08c379a00000000000000000000000000000000000000000000000000000000081526004016108ed9061127a565b60405180910390fd5b61092647610902610271565b73ffffffffffffffffffffffffffffffffffffffff16610d7f90919063ffffffff16565b565b6000600260009054906101000a900460ff16905090565b6000600160008373ffffffffffffffffffffffffffffffffffffffff1673ffffffffffffffffffffffffffffffffffffffff168152602001908152602001600020549050919050565b610990610bf7565b73ffffffffffffffffffffffffffffffffffffffff166109ae610814565b73ffffffffffffffffffffffffffffffffffffffff1614610a04576040517f08c379a00000000000000000000000000000000000000000000000000000000081526004016109fb9061135a565b60405180910390fd5b600073ffffffffffffffffffffffffffffffffffffffff168173ffffffffffffffffffffffffffffffffffffffff161415610a74576040517f08c379a0000000000000000000000000000000000000000000000000000000008152600401610a6b9061129a565b60405180910390fd5b8073ffffffffffffffffffffffffffffffffffffffff1660008054906101000a900473ffffffffffffffffffffffffffffffffffffffff1673ffffffffffffffffffffffffffffffffffffffff167f8be0079c531659141344cd1fd0a4f28419497f9722a3daafe3b4186f6b6457e060405160405180910390a3806000806101000a81548173ffffffffffffffffffffffffffffffffffffffff021916908373ffffffffffffffffffffffffffffffffffffffff16021790555050565b60006002811115610b6b577f4e487b7100000000000000000000000000000000000000000000000000000000600052602160045260246000fd5b610b73610928565b6002811115610bab577f4e487b7100000000000000000000000000000000000000000000000000000000600052602160045260246000fd5b14610beb576040517f08c379a0000000000000000000000000000000000000000000000000000000008152600401610be2906112fa565b60405180910390fd5b610bf481610e73565b50565b600033905090565b610c07610bf7565b73ffffffffffffffffffffffffffffffffffffffff16610c25610814565b73ffffffffffffffffffffffffffffffffffffffff1614610c7b576040517f08c379a0000000000000000000000000000000000000000000000000000000008152600401610c729061135a565b60405180910390fd5b6000600160008373ffffffffffffffffffffffffffffffffffffffff1673ffffffffffffffffffffffffffffffffffffffff1681526020019081526020016000205490506000600160008473ffffffffffffffffffffffffffffffffffffffff1673ffffffffffffffffffffffffffffffffffffffff16815260200190815260200160002081905550610d2d818373ffffffffffffffffffffffffffffffffffffffff16610d7f90919063ffffffff16565b8173ffffffffffffffffffffffffffffffffffffffff167f7084f5476618d8e60b11ef0d7d3f06914655adb8793e28ff7f018d4c76d505d582604051610d73919061139a565b60405180910390a25050565b80471015610dc2576040517f08c379a0000000000000000000000000000000000000000000000000000000008152600401610db9906112da565b60405180910390fd5b60008273ffffffffffffffffffffffffffffffffffffffff1682604051610de8906111f9565b60006040518083038185875af1925050503d8060008114610e25576040519150601f19603f3d011682016040523d82523d6000602084013e610e2a565b606091505b5050905080610e6e576040517f08c379a0000000000000000000000000000000000000000000000000000000008152600401610e65906112ba565b60405180910390fd5b505050565b610e7b610bf7565b73ffffffffffffffffffffffffffffffffffffffff16610e99610814565b73ffffffffffffffffffffffffffffffffffffffff1614610eef576040517f08c379a0000000000000000000000000000000000000000000000000000000008152600401610ee69061135a565b60405180910390fd5b600034905080600160008473ffffffffffffffffffffffffffffffffffffffff1673ffffffffffffffffffffffffffffffffffffffff16815260200190815260200160002054610f3f91906113d1565b600160008473ffffffffffffffffffffffffffffffffffffffff1673ffffffffffffffffffffffffffffffffffffffff168152602001908152602001600020819055508173ffffffffffffffffffffffffffffffffffffffff167f2da466a7b24304f47e87fa2e1e5a81b9831ce54fec19055ce277ca2f39ba42c482604051610fc8919061139a565b60405180910390a25050565b600081359050610fe381611796565b92915050565b600081359050610ff8816117ad565b92915050565b60006020828403121561101057600080fd5b600061101e84828501610fd4565b91505092915050565b60006020828403121561103957600080fd5b600061104784828501610fe9565b91505092915050565b61105981611439565b82525050565b61106881611427565b82525050565b6110778161144b565b82525050565b61108681611494565b82525050565b60006110996038836113c0565b91506110a482611504565b604082019050919050565b60006110bc6026836113c0565b91506110c782611553565b604082019050919050565b60006110df603a836113c0565b91506110ea826115a2565b604082019050919050565b6000611102601d836113c0565b915061110d826115f1565b602082019050919050565b6000611125602b836113c0565b91506111308261161a565b604082019050919050565b60006111486033836113c0565b915061115382611669565b604082019050919050565b600061116b6029836113c0565b9150611176826116b8565b604082019050919050565b600061118e6020836113c0565b915061119982611707565b602082019050919050565b60006111b16000836113b5565b91506111bc82611730565b600082019050919050565b60006111d46032836113c0565b91506111df82611733565b604082019050919050565b6111f38161148a565b82525050565b6000611204826111a4565b9150819050919050565b6000602082019050611223600083018461105f565b92915050565b600060208201905061123e6000830184611050565b92915050565b6000602082019050611259600083018461106e565b92915050565b6000602082019050611274600083018461107d565b92915050565b600060208201905081810360008301526112938161108c565b9050919050565b600060208201905081810360008301526112b3816110af565b9050919050565b600060208201905081810360008301526112d3816110d2565b9050919050565b600060208201905081810360008301526112f3816110f5565b9050919050565b6000602082019050818103600083015261131381611118565b9050919050565b600060208201905081810360008301526113338161113b565b9050919050565b600060208201905081810360008301526113538161115e565b9050919050565b6000602082019050818103600083015261137381611181565b9050919050565b60006020820190508181036000830152611393816111c7565b9050919050565b60006020820190506113af60008301846111ea565b92915050565b600081905092915050565b600082825260208201905092915050565b60006113dc8261148a565b91506113e78361148a565b9250827fffffffffffffffffffffffffffffffffffffffffffffffffffffffffffffffff0382111561141c5761141b6114a6565b5b828201905092915050565b60006114328261146a565b9050919050565b60006114448261146a565b9050919050565b60008115159050919050565b600081905061146582611782565b919050565b600073ffffffffffffffffffffffffffffffffffffffff82169050919050565b6000819050919050565b600061149f82611457565b9050919050565b7f4e487b7100000000000000000000000000000000000000000000000000000000600052601160045260246000fd5b7f4e487b7100000000000000000000000000000000000000000000000000000000600052602160045260246000fd5b7f526566756e64457363726f773a2062656e65666963696172792063616e206f6e60008201527f6c79207769746864726177207768696c6520636c6f7365640000000000000000602082015250565b7f4f776e61626c653a206e6577206f776e657220697320746865207a65726f206160008201527f6464726573730000000000000000000000000000000000000000000000000000602082015250565b7f416464726573733a20756e61626c6520746f2073656e642076616c75652c207260008201527f6563697069656e74206d61792068617665207265766572746564000000000000602082015250565b7f416464726573733a20696e73756666696369656e742062616c616e6365000000600082015250565b7f526566756e64457363726f773a2063616e206f6e6c79206465706f736974207760008201527f68696c6520616374697665000000000000000000000000000000000000000000602082015250565b7f436f6e646974696f6e616c457363726f773a207061796565206973206e6f742060008201527f616c6c6f77656420746f20776974686472617700000000000000000000000000602082015250565b7f526566756e64457363726f773a2063616e206f6e6c7920636c6f73652077686960008201527f6c65206163746976650000000000000000000000000000000000000000000000602082015250565b7f4f776e61626c653a2063616c6c6572206973206e6f7420746865206f776e6572600082015250565b50565b7f526566756e64457363726f773a2063616e206f6e6c7920656e61626c6520726560008201527f66756e6473207768696c65206163746976650000000000000000000000000000602082015250565b60038110611793576117926114d5565b5b50565b61179f81611427565b81146117aa57600080fd5b50565b6117b681611439565b81146117c157600080fd5b5056fea26469706673582212202c874623757cbf073b03ae03e3698c12d0d20396eb1d3464b8aff9a600760e6764736f6c63430008040033a264697066735822122005ecf7a0cc02c68b1309eab36699c524c132dad46293ae8b1f665354734965a864736f6c63430008040033",
  "immutableReferences": {},
  "source": "// SPDX-License-Identifier: MIT\n\npragma solidity 0.8.4;\n\nimport \"./WorkExchange.sol\";\nimport \"../user/UserSummary.sol\";\nimport \"../libraries/Evaluation.sol\";\nimport \"@openzeppelin/contracts/access/Ownable.sol\";\n\ncontract WorkRelationship is Ownable {\n    event WorkRelationshipCreated(address indexed _owner, address indexed relationship, address indexed marketAddress);\n    event WorkRelationshipEnded(address indexed owner, address indexed relationship);\n\n    Evaluation.WorkRelationshipState public _contractStatus;\n    address public _workExchangeAddress;\n    string public _taskMetadataPointer = \"\";\n\n    constructor(address marketAddress) {\n        _contractStatus = Evaluation.WorkRelationshipState.UNCLAIMED;\n        emit WorkRelationshipCreated(owner(), address(this), marketAddress);\n    }\n\n    function assignNewWorker(address payable newWorker, Evaluation.EvaluationState memory evaluationState, bool isTimeLocked) external onlyOwner {\n        bool passesEvaluation = checkWorkerEvaluation(newWorker, evaluationState);\n        require(passesEvaluation == true);\n\n        this.createWorkExchange(newWorker, isTimeLocked);\n    }\n\n    function createWorkExchange(address payable workerBeneficiary, bool isTimeLocked) external onlyOwner {\n        WorkExchange workExchange = new WorkExchange(payable(owner()), workerBeneficiary, isTimeLocked);\n        _workExchangeAddress = address(workExchange);\n    }\n\n    function checkWorkerEvaluation(address workerUniversalAddress, Evaluation.EvaluationState memory evaluationState) internal returns(bool) {\n        bool passesEvaluation = UserSummary(workerUniversalAddress).evaluateUser(evaluationState);\n        return passesEvaluation;\n    }\n\n    function disableWorkRelationship() public onlyOwner {\n        require(_contractStatus == Evaluation.WorkRelationshipState.COMPLETED);\n        emit WorkRelationshipEnded(owner(), address(this));\n        //selfdestruct();\n    }\n\n     function updateTaskMetadataPointer(string memory newTaskPointerHash) onlyOwner external {\n        _taskMetadataPointer = newTaskPointerHash;\n    }\n}",
  "sourcePath": "/Users/elijahhampton/Desktop/opportunity-core/src/contracts/exchange/WorkRelationship.sol",
  "compiler": {
    "name": "solc",
    "version": "0.8.4+commit.c7e474f2.Emscripten.clang"
  },
  "schemaVersion": "3.4.1",
  "updatedAt": "2021-06-08T15:23:37.382Z",
  "devdoc": {
    "kind": "dev",
    "methods": {
      "owner()": {
        "details": "Returns the address of the current owner."
      },
      "renounceOwnership()": {
        "details": "Leaves the contract without owner. It will not be possible to call `onlyOwner` functions anymore. Can only be called by the current owner. NOTE: Renouncing ownership will leave the contract without an owner, thereby removing any functionality that is only available to the owner."
      },
      "transferOwnership(address)": {
        "details": "Transfers ownership of the contract to a new account (`newOwner`). Can only be called by the current owner."
      }
    },
    "version": 1
  },
  "userdoc": {
    "kind": "user",
    "methods": {},
    "version": 1
  }
}