{
  "contractName": "WorkExchange",
  "abi": [
    {
      "inputs": [
        {
          "internalType": "address",
          "name": "_depositor",
          "type": "address"
        },
        {
          "internalType": "uint256",
          "name": "_wad",
          "type": "uint256"
        },
        {
          "internalType": "address",
          "name": "_daiTokenAddress",
          "type": "address"
        }
      ],
      "stateMutability": "nonpayable",
      "type": "constructor"
    },
    {
      "inputs": [],
      "name": "REVIEW_TYPEHASH",
      "outputs": [
        {
          "internalType": "bytes32",
          "name": "",
          "type": "bytes32"
        }
      ],
      "stateMutability": "view",
      "type": "function"
    },
    {
      "inputs": [],
      "name": "SUBMIT_TYPEHASH",
      "outputs": [
        {
          "internalType": "bytes32",
          "name": "",
          "type": "bytes32"
        }
      ],
      "stateMutability": "view",
      "type": "function"
    },
    {
      "inputs": [
        {
          "internalType": "address payable",
          "name": "_beneficiary",
          "type": "address"
        },
        {
          "internalType": "uint256",
          "name": "_stakedReputation",
          "type": "uint256"
        }
      ],
      "name": "assignNewBeneficiary",
      "outputs": [],
      "stateMutability": "nonpayable",
      "type": "function"
    },
    {
      "inputs": [],
      "name": "beneficiary",
      "outputs": [
        {
          "internalType": "address",
          "name": "",
          "type": "address"
        }
      ],
      "stateMutability": "view",
      "type": "function"
    },
    {
      "inputs": [],
      "name": "depositor",
      "outputs": [
        {
          "internalType": "address",
          "name": "",
          "type": "address"
        }
      ],
      "stateMutability": "view",
      "type": "function"
    },
    {
      "inputs": [],
      "name": "domain_separator",
      "outputs": [
        {
          "internalType": "bytes32",
          "name": "",
          "type": "bytes32"
        }
      ],
      "stateMutability": "view",
      "type": "function"
    },
    {
      "inputs": [],
      "name": "getExchangeState",
      "outputs": [
        {
          "internalType": "enum DaiEscrow.ContractState",
          "name": "",
          "type": "uint8"
        }
      ],
      "stateMutability": "nonpayable",
      "type": "function"
    },
    {
      "inputs": [],
      "name": "getExchangeStatus",
      "outputs": [
        {
          "internalType": "enum DaiEscrow.Status",
          "name": "",
          "type": "uint8"
        }
      ],
      "stateMutability": "nonpayable",
      "type": "function"
    },
    {
      "inputs": [
        {
          "internalType": "uint256",
          "name": "nonce",
          "type": "uint256"
        },
        {
          "internalType": "uint256",
          "name": "expiry",
          "type": "uint256"
        },
        {
          "internalType": "uint8",
          "name": "v",
          "type": "uint8"
        },
        {
          "internalType": "bytes32",
          "name": "r",
          "type": "bytes32"
        },
        {
          "internalType": "bytes32",
          "name": "s",
          "type": "bytes32"
        }
      ],
      "name": "initialize",
      "outputs": [],
      "stateMutability": "nonpayable",
      "type": "function"
    },
    {
      "inputs": [
        {
          "internalType": "bool",
          "name": "_approve",
          "type": "bool"
        },
        {
          "internalType": "uint8",
          "name": "_v",
          "type": "uint8"
        },
        {
          "internalType": "bytes32",
          "name": "_r",
          "type": "bytes32"
        },
        {
          "internalType": "bytes32",
          "name": "_s",
          "type": "bytes32"
        }
      ],
      "name": "review",
      "outputs": [],
      "stateMutability": "nonpayable",
      "type": "function"
    },
    {
      "inputs": [],
      "name": "state",
      "outputs": [
        {
          "internalType": "enum DaiEscrow.ContractState",
          "name": "",
          "type": "uint8"
        }
      ],
      "stateMutability": "view",
      "type": "function"
    },
    {
      "inputs": [],
      "name": "status",
      "outputs": [
        {
          "internalType": "enum DaiEscrow.Status",
          "name": "",
          "type": "uint8"
        }
      ],
      "stateMutability": "view",
      "type": "function"
    },
    {
      "inputs": [
        {
          "internalType": "address",
          "name": "",
          "type": "address"
        }
      ],
      "name": "storedFunds",
      "outputs": [
        {
          "internalType": "uint256",
          "name": "",
          "type": "uint256"
        }
      ],
      "stateMutability": "view",
      "type": "function"
    },
    {
      "inputs": [
        {
          "internalType": "bytes32",
          "name": "_submission",
          "type": "bytes32"
        },
        {
          "internalType": "uint8",
          "name": "_v",
          "type": "uint8"
        },
        {
          "internalType": "bytes32",
          "name": "_r",
          "type": "bytes32"
        },
        {
          "internalType": "bytes32",
          "name": "_s",
          "type": "bytes32"
        }
      ],
      "name": "submit",
      "outputs": [],
      "stateMutability": "nonpayable",
      "type": "function"
    },
    {
      "inputs": [],
      "name": "wad",
      "outputs": [
        {
          "internalType": "uint256",
          "name": "",
          "type": "uint256"
        }
      ],
      "stateMutability": "view",
      "type": "function"
    },
    {
      "inputs": [
        {
          "internalType": "address",
          "name": "callee",
          "type": "address"
        }
      ],
      "name": "disputeFunds",
      "outputs": [],
      "stateMutability": "nonpayable",
      "type": "function"
    }
  ],
  "bytecode": "0x60e060405234801561001057600080fd5b50604051610f66380380610f6683398101604081905261002f9161026a565b8282826001600160a01b0383166100a95760405162461bcd60e51b815260206004820152603360248201527f4465706f7369746f7220616464726573732063616e6e6f74206265203020776860448201527232b71031b932b0ba34b7339032b9b1b937bb9760691b60648201526084015b60405180910390fd5b6001600160a01b03811661011b5760405162461bcd60e51b815260206004820152603360248201527f44616920746f6b656e20616464726573732063616e6e6f74206265203020776860448201527232b71031b932b0ba34b7339032b9b1b937bb9760691b60648201526084016100a0565b604080518082018252600a81526944616920457363726f7760b01b6020918201528151808301835260018152603160f81b9082015281517f8b73c3c69bb8fe3d512ecc4cf759cc79239f7b179b0ffacaa9a75d522b39400f918101919091527f0bdbe35568d399a0401d60d11c76785045fec8c775dcb34589d4a0b9d540700d918101919091527fc89efdaa54c0f20c7adf612882df0950f5a951637e0307cdcb4c672f298b8bc660608201524660ff811660808301523060a08301529060c00160408051601f198184030181529190528051602090910120608052506001600160601b031960609390931b9290921660a05260c0526002805461010061ff00196001600160a01b0394909416620100000293909316610100600160b01b031990911617919091179055506102a6915050565b80516001600160a01b038116811461026557600080fd5b919050565b60008060006060848603121561027f57600080fd5b6102888461024e565b92506020840151915061029d6040850161024e565b90509250925092565b60805160a05160601c60c051610c56610310600039600081816101f20152610710015260008181610297015281816103ca01528181610667015281816106e801528181610797015261083101526000818161025e015281816104cf01526105cf0152610c566000f3fe608060405234801561001057600080fd5b50600436106101005760003560e01c80637df38c5b11610097578063bfce14ea11610066578063bfce14ea14610259578063c19d93fb14610280578063c7c4ff4614610292578063d8a43107146102b957600080fd5b80637df38c5b146101ed57806396118e4414610214578063b01dcb311461023b578063bad453cf1461024657600080fd5b80633c86f6f3116100d35780633c86f6f31461017b57806353318a87146101b05780635db38842146101c357806360d98201146101d457600080fd5b8063200d2ed214610105578063227d64541461012857806325b0db0f1461013d57806338af3eed14610150575b600080fd5b6002546101129060ff1681565b60405161011f9190610b51565b60405180910390f35b61013b6101363660046109f3565b6102d9565b005b61013b61014b366004610a1f565b6103c8565b600054610163906001600160a01b031681565b6040516001600160a01b03909116815260200161011f565b6101a27ffa5e0016fb62b8dffda8fd95249d438edcffd3689b40ac3b4281d4cf710609ae81565b60405190815260200161011f565b61013b6101be366004610a68565b610542565b61013b6101d13660046109cf565b50565b600254610100900460ff165b60405161011f9190610b37565b6101a27f000000000000000000000000000000000000000000000000000000000000000081565b6101a27f62b607caa4d4e7fcbd31bf4c033cd30888b536567fadc83710fdf15f8d5cfc9e81565b60025460ff16610112565b61013b610254366004610aa7565b61063a565b6101a27f000000000000000000000000000000000000000000000000000000000000000081565b6002546101e090610100900460ff1681565b6101637f000000000000000000000000000000000000000000000000000000000000000081565b6101a26102c73660046109cf565b60016020526000908152604090205481565b60008060025460ff1660038111156102f3576102f3610bf5565b146103195760405162461bcd60e51b815260040161031090610b65565b60405180910390fd5b6001600160a01b0383166103955760405162461bcd60e51b815260206004820152603f60248201527f42656e65666963696172792063616e6e6f74206265203078206164647265737360448201527f207768656e2061737369676e696e67206e65772062656e6566696369617279006064820152608401610310565b600080546001600160a01b0319166001600160a01b038516179055600280546001919060ff191682800217905550505050565b7f00000000000000000000000000000000000000000000000000000000000000006001600160a01b031633146104405760405162461bcd60e51b815260206004820181905260248201527f4f776e65722063616e206f6e6c79207265736f6c766520636f6e74726163742e6044820152606401610310565b60028060025460ff16600381111561045a5761045a610bf5565b146104775760405162461bcd60e51b815260040161031090610b65565b604080517ffa5e0016fb62b8dffda8fd95249d438edcffd3689b40ac3b4281d4cf710609ae602080830191909152871580158385015283518084038501815260608401855280519083012061190160f01b60808501527f0000000000000000000000000000000000000000000000000000000000000000608285015260a2808501919091528451808503909101815260c29093019093528151910120906105255761052061082f565b61053a565b600280546001919060ff191682805b02179055505b505050505050565b60018060025460ff16600381111561055c5761055c610bf5565b146105795760405162461bcd60e51b815260040161031090610b65565b604080517f62b607caa4d4e7fcbd31bf4c033cd30888b536567fadc83710fdf15f8d5cfc9e60208083019190915281830188905282518083038401815260608301845280519082012061190160f01b60808401527f0000000000000000000000000000000000000000000000000000000000000000608284015260a2808401919091528351808403909101815260c290920190925280519101206000546001600160a01b031661062857600080fd5b60028054819060ff1916600182610534565b6002546040516323f2ebc360e21b8152620100009091046001600160a01b031690638fcbaf0c9061069e907f00000000000000000000000000000000000000000000000000000000000000009030908a908a906001908b908b908b90600401610aee565b600060405180830381600087803b1580156106b857600080fd5b505af11580156106cc573d6000803e3d6000fd5b505060025460405163f2d5d56b60e01b81526001600160a01b037f0000000000000000000000000000000000000000000000000000000000000000811660048301527f0000000000000000000000000000000000000000000000000000000000000000602483015262010000909204909116925063f2d5d56b9150604401600060405180830381600087803b15801561076457600080fd5b505af1158015610778573d6000803e3d6000fd5b50506002546201000090046001600160a01b03169150638fcbaf0c90507f0000000000000000000000000000000000000000000000000000000000000000306107c2896001610bcf565b8860008989896040518963ffffffff1660e01b81526004016107eb989796959493929190610aee565b600060405180830381600087803b15801561080557600080fd5b505af1158015610819573d6000803e3d6000fd5b50506002805461ffff1916905550505050505050565b7f00000000000000000000000000000000000000000000000000000000000000006001600160a01b031633146108a75760405162461bcd60e51b815260206004820181905260248201527f4f776e65722063616e206f6e6c79207265736f6c766520636f6e74726163742e6044820152606401610310565b6000546001600160a01b03166108bc57600080fd5b6002546000546040516370a0823160e01b81523060048201526001600160a01b036201000090930483169263b753a98c92169083906370a082319060240160206040518083038186803b15801561091257600080fd5b505afa158015610926573d6000803e3d6000fd5b505050506040513d601f19601f8201168201806040525081019061094a9190610a8e565b6040516001600160e01b031960e085901b1681526001600160a01b0390921660048301526024820152604401600060405180830381600087803b15801561099057600080fd5b505af11580156109a4573d6000803e3d6000fd5b50506002805461ffff19166102031790555050565b803560ff811681146109ca57600080fd5b919050565b6000602082840312156109e157600080fd5b81356109ec81610c0b565b9392505050565b60008060408385031215610a0657600080fd5b8235610a1181610c0b565b946020939093013593505050565b60008060008060808587031215610a3557600080fd5b84358015158114610a4557600080fd5b9350610a53602086016109b9565b93969395505050506040820135916060013590565b60008060008060808587031215610a7e57600080fd5b84359350610a53602086016109b9565b600060208284031215610aa057600080fd5b5051919050565b600080600080600060a08688031215610abf57600080fd5b8535945060208601359350610ad6604087016109b9565b94979396509394606081013594506080013592915050565b6001600160a01b039889168152969097166020870152604086019490945260608501929092521515608084015260ff1660a083015260c082015260e08101919091526101000190565b6020810160038310610b4b57610b4b610bf5565b91905290565b6020810160048310610b4b57610b4b610bf5565b60208082526044908201527f43616e6e6f7420696e766f6b65207468697320657363726f772066756e63746960408201527f6f6e2077697468207468652063757272656e7420636f6e7472616374207374616060820152633a3ab99760e11b608082015260a00190565b60008219821115610bf057634e487b7160e01b600052601160045260246000fd5b500190565b634e487b7160e01b600052602160045260246000fd5b6001600160a01b03811681146101d157600080fdfea2646970667358221220fa00172cbfaadb4fed3ecbd8d1f0f8ad99e0e6e1395df8e517abb77dbd2d895d64736f6c63430008070033",
  "immutableReferences": {
    "487": [
      {
        "length": 32,
        "start": 606
      },
      {
        "length": 32,
        "start": 1231
      },
      {
        "length": 32,
        "start": 1487
      }
    ],
    "491": [
      {
        "length": 32,
        "start": 663
      },
      {
        "length": 32,
        "start": 970
      },
      {
        "length": 32,
        "start": 1639
      },
      {
        "length": 32,
        "start": 1768
      },
      {
        "length": 32,
        "start": 1943
      },
      {
        "length": 32,
        "start": 2097
      }
    ],
    "493": [
      {
        "length": 32,
        "start": 498
      },
      {
        "length": 32,
        "start": 1808
      }
    ]
  },
  "source": "//SPDX-License-Identifier: Unlicense\npragma solidity 0.8.7;\n\nimport \"./DaiEscrow.sol\";\n\ncontract WorkExchange is DaiEscrow {\n    constructor(\n        address _depositor,\n        uint _wad, \n        address _daiTokenAddress) \n    DaiEscrow(_depositor, _wad, _daiTokenAddress) {\n        \n    }\n\n    function disputeFunds(address callee) external { }\n}",
  "sourcePath": "/Users/elijahhampton/Desktop/opportunity-core/src/contracts/exchange/WorkExchange.sol",
  "compiler": {
    "name": "solc",
    "version": "0.8.7+commit.e28d00a7.Emscripten.clang"
  },
  "schemaVersion": "3.4.3",
  "updatedAt": "2021-10-10T17:41:11.417Z",
  "devdoc": {
    "kind": "dev",
    "methods": {},
    "version": 1
  },
  "userdoc": {
    "kind": "user",
    "methods": {},
    "version": 1
  }
}