{
  "contractName": "WorkExchange",
  "abi": [
    {
      "inputs": [
        {
          "internalType": "address payable",
          "name": "requesterBeneficiary",
          "type": "address"
        },
        {
          "internalType": "address payable",
          "name": "workerBeneficiary",
          "type": "address"
        },
        {
          "internalType": "bool",
          "name": "isTimeLocked",
          "type": "bool"
        }
      ],
      "stateMutability": "nonpayable",
      "type": "constructor"
    },
    {
      "anonymous": false,
      "inputs": [
        {
          "indexed": true,
          "internalType": "address",
          "name": "previousWorker",
          "type": "address"
        },
        {
          "indexed": true,
          "internalType": "address",
          "name": "newWorker",
          "type": "address"
        }
      ],
      "name": "OwnershipTransferred",
      "type": "event"
    },
    {
      "anonymous": false,
      "inputs": [],
      "name": "RequesterSentPayment",
      "type": "event"
    },
    {
      "anonymous": false,
      "inputs": [
        {
          "indexed": true,
          "internalType": "address",
          "name": "requesterAddress",
          "type": "address"
        },
        {
          "indexed": true,
          "internalType": "address",
          "name": "workerBeneficiary",
          "type": "address"
        },
        {
          "indexed": false,
          "internalType": "address",
          "name": "workExchangeAddress",
          "type": "address"
        }
      ],
      "name": "WorkExchangeEnded",
      "type": "event"
    },
    {
      "anonymous": false,
      "inputs": [
        {
          "indexed": true,
          "internalType": "address",
          "name": "requesterAddress",
          "type": "address"
        },
        {
          "indexed": true,
          "internalType": "address",
          "name": "workerBeneficiary",
          "type": "address"
        },
        {
          "indexed": false,
          "internalType": "address",
          "name": "workExchangeAddress",
          "type": "address"
        }
      ],
      "name": "WorkExchangeStarted",
      "type": "event"
    },
    {
      "anonymous": false,
      "inputs": [],
      "name": "WorkerSentSolution",
      "type": "event"
    },
    {
      "inputs": [],
      "name": "owner",
      "outputs": [
        {
          "internalType": "address",
          "name": "",
          "type": "address"
        }
      ],
      "stateMutability": "view",
      "type": "function"
    },
    {
      "inputs": [],
      "name": "renounceOwnership",
      "outputs": [],
      "stateMutability": "nonpayable",
      "type": "function"
    },
    {
      "inputs": [
        {
          "internalType": "address",
          "name": "newWorker",
          "type": "address"
        }
      ],
      "name": "transferOwnership",
      "outputs": [],
      "stateMutability": "nonpayable",
      "type": "function"
    },
    {
      "inputs": [],
      "name": "worker",
      "outputs": [
        {
          "internalType": "address",
          "name": "",
          "type": "address"
        }
      ],
      "stateMutability": "view",
      "type": "function"
    },
    {
      "inputs": [
        {
          "internalType": "address payable",
          "name": "payee",
          "type": "address"
        }
      ],
      "name": "sendPaymentAsRequester",
      "outputs": [],
      "stateMutability": "payable",
      "type": "function"
    },
    {
      "inputs": [
        {
          "internalType": "address payable",
          "name": "payee",
          "type": "address"
        }
      ],
      "name": "sendPaymentAsWorker",
      "outputs": [],
      "stateMutability": "payable",
      "type": "function"
    },
    {
      "inputs": [],
      "name": "withdrawAsRequester",
      "outputs": [],
      "stateMutability": "nonpayable",
      "type": "function"
    },
    {
      "inputs": [],
      "name": "withdrawAsWorker",
      "outputs": [],
      "stateMutability": "nonpayable",
      "type": "function"
    },
    {
      "inputs": [],
      "name": "balanceRequester",
      "outputs": [
        {
          "internalType": "uint256",
          "name": "",
          "type": "uint256"
        }
      ],
      "stateMutability": "view",
      "type": "function"
    },
    {
      "inputs": [],
      "name": "balanceWorker",
      "outputs": [
        {
          "internalType": "uint256",
          "name": "",
          "type": "uint256"
        }
      ],
      "stateMutability": "view",
      "type": "function"
    }
  ],
  "bytecode": "0x60806040523480156200001157600080fd5b5060405162002fe538038062002fe5833981810160405281019062000037919062000374565b8160006200004a6200033060201b60201c565b9050806000806101000a81548173ffffffffffffffffffffffffffffffffffffffff021916908373ffffffffffffffffffffffffffffffffffffffff16021790555081600160006101000a81548173ffffffffffffffffffffffffffffffffffffffff021916908373ffffffffffffffffffffffffffffffffffffffff160217905550600160009054906101000a900473ffffffffffffffffffffffffffffffffffffffff1673ffffffffffffffffffffffffffffffffffffffff16600073ffffffffffffffffffffffffffffffffffffffff167f8be0079c531659141344cd1fd0a4f28419497f9722a3daafe3b4186f6b6457e060405160405180910390a35050826040516200015b9062000338565b62000167919062000409565b604051809103906000f08015801562000184573d6000803e3d6000fd5b50600260006101000a81548173ffffffffffffffffffffffffffffffffffffffff021916908373ffffffffffffffffffffffffffffffffffffffff16021790555081604051620001d49062000338565b620001e0919062000409565b604051809103906000f080158015620001fd573d6000803e3d6000fd5b50600360006101000a81548173ffffffffffffffffffffffffffffffffffffffff021916908373ffffffffffffffffffffffffffffffffffffffff16021790555082600560006101000a81548173ffffffffffffffffffffffffffffffffffffffff021916908373ffffffffffffffffffffffffffffffffffffffff16021790555081600460006101000a81548173ffffffffffffffffffffffffffffffffffffffff021916908373ffffffffffffffffffffffffffffffffffffffff1602179055508173ffffffffffffffffffffffffffffffffffffffff168373ffffffffffffffffffffffffffffffffffffffff167f4dc5f0070db7372507a32b040d6e05e71b6aef1067ae5203e2ffefa98ca4cac2306040516200031f9190620003ec565b60405180910390a3505050620004ae565b600033905090565b611b4580620014a083390190565b60008151905062000357816200047a565b92915050565b6000815190506200036e8162000494565b92915050565b6000806000606084860312156200038a57600080fd5b60006200039a8682870162000346565b9350506020620003ad8682870162000346565b9250506040620003c0868287016200035d565b9150509250925092565b620003d5816200043a565b82525050565b620003e68162000426565b82525050565b6000602082019050620004036000830184620003db565b92915050565b6000602082019050620004206000830184620003ca565b92915050565b600062000433826200045a565b9050919050565b600062000447826200045a565b9050919050565b60008115159050919050565b600073ffffffffffffffffffffffffffffffffffffffff82169050919050565b62000485816200043a565b81146200049157600080fd5b50565b6200049f816200044e565b8114620004ab57600080fd5b50565b610fe280620004be6000396000f3fe6080604052600436106100915760003560e01c80638428dccc116100595780638428dccc146101365780638da5cb5b1461015257806398da87b41461017d578063b48691e014610194578063f2fde38b146101bf57610091565b806303f5d25b146100965780634d547ada146100ad5780636628c1d1146100d85780637053e7e0146100f4578063715018a61461011f575b600080fd5b3480156100a257600080fd5b506100ab6101e8565b005b3480156100b957600080fd5b506100c26102e8565b6040516100cf9190610e1d565b60405180910390f35b6100f260048036038101906100ed9190610d43565b610312565b005b34801561010057600080fd5b5061010961044a565b6040516101169190610e8e565b60405180910390f35b34801561012b57600080fd5b50610134610617565b005b610150600480360381019061014b9190610d43565b610754565b005b34801561015e57600080fd5b5061016761088c565b6040516101749190610e1d565b60405180910390f35b34801561018957600080fd5b506101926108b5565b005b3480156101a057600080fd5b506101a96109b5565b6040516101b69190610e8e565b60405180910390f35b3480156101cb57600080fd5b506101e660048036038101906101e19190610d1a565b610b82565b005b6101f0610cbe565b73ffffffffffffffffffffffffffffffffffffffff1661020e61088c565b73ffffffffffffffffffffffffffffffffffffffff1614610264576040517f08c379a000000000000000000000000000000000000000000000000000000000815260040161025b90610e6e565b60405180910390fd5b600260009054906101000a900473ffffffffffffffffffffffffffffffffffffffff1673ffffffffffffffffffffffffffffffffffffffff16639af6549a6040518163ffffffff1660e01b8152600401600060405180830381600087803b1580156102ce57600080fd5b505af11580156102e2573d6000803e3d6000fd5b50505050565b6000600160009054906101000a900473ffffffffffffffffffffffffffffffffffffffff16905090565b61031a610cbe565b73ffffffffffffffffffffffffffffffffffffffff1661033861088c565b73ffffffffffffffffffffffffffffffffffffffff161461038e576040517f08c379a000000000000000000000000000000000000000000000000000000000815260040161038590610e6e565b60405180910390fd5b600260009054906101000a900473ffffffffffffffffffffffffffffffffffffffff1673ffffffffffffffffffffffffffffffffffffffff166351cff8d9826040518263ffffffff1660e01b81526004016103e99190610e53565b600060405180830381600087803b15801561040357600080fd5b505af1158015610417573d6000803e3d6000fd5b505050507f7a15267f0526551b50e6c288544c1ac87f16e7837002acfb601cf247ec718d4e60405160405180910390a150565b6000610454610cbe565b73ffffffffffffffffffffffffffffffffffffffff1661047261088c565b73ffffffffffffffffffffffffffffffffffffffff16146104c8576040517f08c379a00000000000000000000000000000000000000000000000000000000081526004016104bf90610e6e565b60405180910390fd5b600360009054906101000a900473ffffffffffffffffffffffffffffffffffffffff1673ffffffffffffffffffffffffffffffffffffffff1663e3a9db1a600360009054906101000a900473ffffffffffffffffffffffffffffffffffffffff1673ffffffffffffffffffffffffffffffffffffffff166338af3eed6040518163ffffffff1660e01b815260040160206040518083038186803b15801561056e57600080fd5b505afa158015610582573d6000803e3d6000fd5b505050506040513d601f19601f820116820180604052508101906105a69190610d6c565b6040518263ffffffff1660e01b81526004016105c29190610e38565b60206040518083038186803b1580156105da57600080fd5b505afa1580156105ee573d6000803e3d6000fd5b505050506040513d601f19601f820116820180604052508101906106129190610d95565b905090565b61061f6102e8565b73ffffffffffffffffffffffffffffffffffffffff1661063d6102e8565b73ffffffffffffffffffffffffffffffffffffffff1614610693576040517f08c379a000000000000000000000000000000000000000000000000000000000815260040161068a90610e6e565b60405180910390fd5b600073ffffffffffffffffffffffffffffffffffffffff16600160009054906101000a900473ffffffffffffffffffffffffffffffffffffffff1673ffffffffffffffffffffffffffffffffffffffff167f8be0079c531659141344cd1fd0a4f28419497f9722a3daafe3b4186f6b6457e060405160405180910390a36000600160006101000a81548173ffffffffffffffffffffffffffffffffffffffff021916908373ffffffffffffffffffffffffffffffffffffffff160217905550565b61075c610cbe565b73ffffffffffffffffffffffffffffffffffffffff1661077a61088c565b73ffffffffffffffffffffffffffffffffffffffff16146107d0576040517f08c379a00000000000000000000000000000000000000000000000000000000081526004016107c790610e6e565b60405180910390fd5b600360009054906101000a900473ffffffffffffffffffffffffffffffffffffffff1673ffffffffffffffffffffffffffffffffffffffff166351cff8d9826040518263ffffffff1660e01b815260040161082b9190610e53565b600060405180830381600087803b15801561084557600080fd5b505af1158015610859573d6000803e3d6000fd5b505050507fb24b6304585135966b8217241802ddd6fe969a26cc5f252ebe153be87a6c007a60405160405180910390a150565b60008060009054906101000a900473ffffffffffffffffffffffffffffffffffffffff16905090565b6108bd610cbe565b73ffffffffffffffffffffffffffffffffffffffff166108db61088c565b73ffffffffffffffffffffffffffffffffffffffff1614610931576040517f08c379a000000000000000000000000000000000000000000000000000000000815260040161092890610e6e565b60405180910390fd5b600360009054906101000a900473ffffffffffffffffffffffffffffffffffffffff1673ffffffffffffffffffffffffffffffffffffffff16639af6549a6040518163ffffffff1660e01b8152600401600060405180830381600087803b15801561099b57600080fd5b505af11580156109af573d6000803e3d6000fd5b50505050565b60006109bf610cbe565b73ffffffffffffffffffffffffffffffffffffffff166109dd61088c565b73ffffffffffffffffffffffffffffffffffffffff1614610a33576040517f08c379a0000000000000000000000000000000000000000000000000000000008152600401610a2a90610e6e565b60405180910390fd5b600260009054906101000a900473ffffffffffffffffffffffffffffffffffffffff1673ffffffffffffffffffffffffffffffffffffffff1663e3a9db1a600260009054906101000a900473ffffffffffffffffffffffffffffffffffffffff1673ffffffffffffffffffffffffffffffffffffffff166338af3eed6040518163ffffffff1660e01b815260040160206040518083038186803b158015610ad957600080fd5b505afa158015610aed573d6000803e3d6000fd5b505050506040513d601f19601f82011682018060405250810190610b119190610d6c565b6040518263ffffffff1660e01b8152600401610b2d9190610e38565b60206040518083038186803b158015610b4557600080fd5b505afa158015610b59573d6000803e3d6000fd5b505050506040513d601f19601f82011682018060405250810190610b7d9190610d95565b905090565b610b8a610cbe565b73ffffffffffffffffffffffffffffffffffffffff16610ba861088c565b73ffffffffffffffffffffffffffffffffffffffff1614610bfe576040517f08c379a0000000000000000000000000000000000000000000000000000000008152600401610bf590610e6e565b60405180910390fd5b8073ffffffffffffffffffffffffffffffffffffffff16600160009054906101000a900473ffffffffffffffffffffffffffffffffffffffff1673ffffffffffffffffffffffffffffffffffffffff167f8be0079c531659141344cd1fd0a4f28419497f9722a3daafe3b4186f6b6457e060405160405180910390a380600160006101000a81548173ffffffffffffffffffffffffffffffffffffffff021916908373ffffffffffffffffffffffffffffffffffffffff16021790555050565b600033905090565b600081359050610cd581610f67565b92915050565b600081359050610cea81610f7e565b92915050565b600081519050610cff81610f7e565b92915050565b600081519050610d1481610f95565b92915050565b600060208284031215610d2c57600080fd5b6000610d3a84828501610cc6565b91505092915050565b600060208284031215610d5557600080fd5b6000610d6384828501610cdb565b91505092915050565b600060208284031215610d7e57600080fd5b6000610d8c84828501610cf0565b91505092915050565b600060208284031215610da757600080fd5b6000610db584828501610d05565b91505092915050565b610dc781610f08565b82525050565b610dd681610ecc565b82525050565b610de581610eba565b82525050565b6000610df8602083610ea9565b9150610e0382610f3e565b602082019050919050565b610e1781610efe565b82525050565b6000602082019050610e326000830184610ddc565b92915050565b6000602082019050610e4d6000830184610dbe565b92915050565b6000602082019050610e686000830184610dcd565b92915050565b60006020820190508181036000830152610e8781610deb565b9050919050565b6000602082019050610ea36000830184610e0e565b92915050565b600082825260208201905092915050565b6000610ec582610ede565b9050919050565b6000610ed782610ede565b9050919050565b600073ffffffffffffffffffffffffffffffffffffffff82169050919050565b6000819050919050565b6000610f1382610f1a565b9050919050565b6000610f2582610f2c565b9050919050565b6000610f3782610ede565b9050919050565b7f4f776e61626c653a2063616c6c6572206973206e6f7420746865206f776e6572600082015250565b610f7081610eba565b8114610f7b57600080fd5b50565b610f8781610ecc565b8114610f9257600080fd5b50565b610f9e81610efe565b8114610fa957600080fd5b5056fea26469706673582212207767d2769edd76742e292ff332ed494e7c6f59c93929af2c9b2aeddcf72b5ccc64736f6c6343000804003360a06040523480156200001157600080fd5b5060405162001b4538038062001b45833981810160405281019062000037919062000209565b600062000049620001ea60201b60201c565b9050806000806101000a81548173ffffffffffffffffffffffffffffffffffffffff021916908373ffffffffffffffffffffffffffffffffffffffff1602179055508073ffffffffffffffffffffffffffffffffffffffff16600073ffffffffffffffffffffffffffffffffffffffff167f8be0079c531659141344cd1fd0a4f28419497f9722a3daafe3b4186f6b6457e060405160405180910390a350600073ffffffffffffffffffffffffffffffffffffffff168173ffffffffffffffffffffffffffffffffffffffff1614156200015a576040517f08c379a000000000000000000000000000000000000000000000000000000000815260040162000151906200025c565b60405180910390fd5b8073ffffffffffffffffffffffffffffffffffffffff1660808173ffffffffffffffffffffffffffffffffffffffff1660601b815250506000600260006101000a81548160ff02191690836002811115620001de577f4e487b7100000000000000000000000000000000000000000000000000000000600052602160045260246000fd5b0217905550506200032c565b600033905090565b600081519050620002038162000312565b92915050565b6000602082840312156200021c57600080fd5b60006200022c84828501620001f2565b91505092915050565b600062000244602d836200027e565b91506200025182620002c3565b604082019050919050565b60006020820190508181036000830152620002778162000235565b9050919050565b600082825260208201905092915050565b60006200029c82620002a3565b9050919050565b600073ffffffffffffffffffffffffffffffffffffffff82169050919050565b7f526566756e64457363726f773a2062656e65666963696172792069732074686560008201527f207a65726f206164647265737300000000000000000000000000000000000000602082015250565b6200031d816200028f565b81146200032957600080fd5b50565b60805160601c6117fa6200034b600039600061027501526117fa6000f3fe6080604052600436106100a75760003560e01c80638da5cb5b116100645780638da5cb5b146101825780639af6549a146101ad578063c19d93fb146101c4578063e3a9db1a146101ef578063f2fde38b1461022c578063f340fa0114610255576100a7565b806338af3eed146100ac57806343d726d6146100d757806351cff8d9146100ee578063685ca19414610117578063715018a6146101545780638c52dc411461016b575b600080fd5b3480156100b857600080fd5b506100c1610271565b6040516100ce9190611229565b60405180910390f35b3480156100e357600080fd5b506100ec610299565b005b3480156100fa57600080fd5b5061011560048036038101906101109190611027565b61044d565b005b34801561012357600080fd5b5061013e60048036038101906101399190610ffe565b6104a1565b60405161014b9190611244565b60405180910390f35b34801561016057600080fd5b50610169610525565b005b34801561017757600080fd5b5061018061065f565b005b34801561018e57600080fd5b50610197610814565b6040516101a4919061120e565b60405180910390f35b3480156101b957600080fd5b506101c261083d565b005b3480156101d057600080fd5b506101d9610928565b6040516101e6919061125f565b60405180910390f35b3480156101fb57600080fd5b5061021660048036038101906102119190610ffe565b61093f565b604051610223919061139a565b60405180910390f35b34801561023857600080fd5b50610253600480360381019061024e9190610ffe565b610988565b005b61026f600480360381019061026a9190610ffe565b610b31565b005b60007f0000000000000000000000000000000000000000000000000000000000000000905090565b6102a1610bf7565b73ffffffffffffffffffffffffffffffffffffffff166102bf610814565b73ffffffffffffffffffffffffffffffffffffffff1614610315576040517f08c379a000000000000000000000000000000000000000000000000000000000815260040161030c9061135a565b60405180910390fd5b6000600281111561034f577f4e487b7100000000000000000000000000000000000000000000000000000000600052602160045260246000fd5b610357610928565b600281111561038f577f4e487b7100000000000000000000000000000000000000000000000000000000600052602160045260246000fd5b146103cf576040517f08c379a00000000000000000000000000000000000000000000000000000000081526004016103c69061133a565b60405180910390fd5b60028060006101000a81548160ff0219169083600281111561041a577f4e487b7100000000000000000000000000000000000000000000000000000000600052602160045260246000fd5b02179055507f088672c3a6e342f7cd94a65ba63b79df24a8973927b4d05d803c44bbf787d12f60405160405180910390a1565b610456816104a1565b610495576040517f08c379a000000000000000000000000000000000000000000000000000000000815260040161048c9061131a565b60405180910390fd5b61049e81610bff565b50565b6000600160028111156104dd577f4e487b7100000000000000000000000000000000000000000000000000000000600052602160045260246000fd5b6104e5610928565b600281111561051d577f4e487b7100000000000000000000000000000000000000000000000000000000600052602160045260246000fd5b149050919050565b61052d610bf7565b73ffffffffffffffffffffffffffffffffffffffff1661054b610814565b73ffffffffffffffffffffffffffffffffffffffff16146105a1576040517f08c379a00000000000000000000000000000000000000000000000000000000081526004016105989061135a565b60405180910390fd5b600073ffffffffffffffffffffffffffffffffffffffff1660008054906101000a900473ffffffffffffffffffffffffffffffffffffffff1673ffffffffffffffffffffffffffffffffffffffff167f8be0079c531659141344cd1fd0a4f28419497f9722a3daafe3b4186f6b6457e060405160405180910390a360008060006101000a81548173ffffffffffffffffffffffffffffffffffffffff021916908373ffffffffffffffffffffffffffffffffffffffff160217905550565b610667610bf7565b73ffffffffffffffffffffffffffffffffffffffff16610685610814565b73ffffffffffffffffffffffffffffffffffffffff16146106db576040517f08c379a00000000000000000000000000000000000000000000000000000000081526004016106d29061135a565b60405180910390fd5b60006002811115610715577f4e487b7100000000000000000000000000000000000000000000000000000000600052602160045260246000fd5b61071d610928565b6002811115610755577f4e487b7100000000000000000000000000000000000000000000000000000000600052602160045260246000fd5b14610795576040517f08c379a000000000000000000000000000000000000000000000000000000000815260040161078c9061137a565b60405180910390fd5b6001600260006101000a81548160ff021916908360028111156107e1577f4e487b7100000000000000000000000000000000000000000000000000000000600052602160045260246000fd5b02179055507f599d8e5a83cffb867d051598c4d70e805d59802d8081c1c7d6dffc5b6aca2b8960405160405180910390a1565b60008060009054906101000a900473ffffffffffffffffffffffffffffffffffffffff16905090565b600280811115610876577f4e487b7100000000000000000000000000000000000000000000000000000000600052602160045260246000fd5b61087e610928565b60028111156108b6577f4e487b7100000000000000000000000000000000000000000000000000000000600052602160045260246000fd5b146108f6576040517f08c379a00000000000000000000000000000000000000000000000000000000081526004016108ed9061127a565b60405180910390fd5b61092647610902610271565b73ffffffffffffffffffffffffffffffffffffffff16610d7f90919063ffffffff16565b565b6000600260009054906101000a900460ff16905090565b6000600160008373ffffffffffffffffffffffffffffffffffffffff1673ffffffffffffffffffffffffffffffffffffffff168152602001908152602001600020549050919050565b610990610bf7565b73ffffffffffffffffffffffffffffffffffffffff166109ae610814565b73ffffffffffffffffffffffffffffffffffffffff1614610a04576040517f08c379a00000000000000000000000000000000000000000000000000000000081526004016109fb9061135a565b60405180910390fd5b600073ffffffffffffffffffffffffffffffffffffffff168173ffffffffffffffffffffffffffffffffffffffff161415610a74576040517f08c379a0000000000000000000000000000000000000000000000000000000008152600401610a6b9061129a565b60405180910390fd5b8073ffffffffffffffffffffffffffffffffffffffff1660008054906101000a900473ffffffffffffffffffffffffffffffffffffffff1673ffffffffffffffffffffffffffffffffffffffff167f8be0079c531659141344cd1fd0a4f28419497f9722a3daafe3b4186f6b6457e060405160405180910390a3806000806101000a81548173ffffffffffffffffffffffffffffffffffffffff021916908373ffffffffffffffffffffffffffffffffffffffff16021790555050565b60006002811115610b6b577f4e487b7100000000000000000000000000000000000000000000000000000000600052602160045260246000fd5b610b73610928565b6002811115610bab577f4e487b7100000000000000000000000000000000000000000000000000000000600052602160045260246000fd5b14610beb576040517f08c379a0000000000000000000000000000000000000000000000000000000008152600401610be2906112fa565b60405180910390fd5b610bf481610e73565b50565b600033905090565b610c07610bf7565b73ffffffffffffffffffffffffffffffffffffffff16610c25610814565b73ffffffffffffffffffffffffffffffffffffffff1614610c7b576040517f08c379a0000000000000000000000000000000000000000000000000000000008152600401610c729061135a565b60405180910390fd5b6000600160008373ffffffffffffffffffffffffffffffffffffffff1673ffffffffffffffffffffffffffffffffffffffff1681526020019081526020016000205490506000600160008473ffffffffffffffffffffffffffffffffffffffff1673ffffffffffffffffffffffffffffffffffffffff16815260200190815260200160002081905550610d2d818373ffffffffffffffffffffffffffffffffffffffff16610d7f90919063ffffffff16565b8173ffffffffffffffffffffffffffffffffffffffff167f7084f5476618d8e60b11ef0d7d3f06914655adb8793e28ff7f018d4c76d505d582604051610d73919061139a565b60405180910390a25050565b80471015610dc2576040517f08c379a0000000000000000000000000000000000000000000000000000000008152600401610db9906112da565b60405180910390fd5b60008273ffffffffffffffffffffffffffffffffffffffff1682604051610de8906111f9565b60006040518083038185875af1925050503d8060008114610e25576040519150601f19603f3d011682016040523d82523d6000602084013e610e2a565b606091505b5050905080610e6e576040517f08c379a0000000000000000000000000000000000000000000000000000000008152600401610e65906112ba565b60405180910390fd5b505050565b610e7b610bf7565b73ffffffffffffffffffffffffffffffffffffffff16610e99610814565b73ffffffffffffffffffffffffffffffffffffffff1614610eef576040517f08c379a0000000000000000000000000000000000000000000000000000000008152600401610ee69061135a565b60405180910390fd5b600034905080600160008473ffffffffffffffffffffffffffffffffffffffff1673ffffffffffffffffffffffffffffffffffffffff16815260200190815260200160002054610f3f91906113d1565b600160008473ffffffffffffffffffffffffffffffffffffffff1673ffffffffffffffffffffffffffffffffffffffff168152602001908152602001600020819055508173ffffffffffffffffffffffffffffffffffffffff167f2da466a7b24304f47e87fa2e1e5a81b9831ce54fec19055ce277ca2f39ba42c482604051610fc8919061139a565b60405180910390a25050565b600081359050610fe381611796565b92915050565b600081359050610ff8816117ad565b92915050565b60006020828403121561101057600080fd5b600061101e84828501610fd4565b91505092915050565b60006020828403121561103957600080fd5b600061104784828501610fe9565b91505092915050565b61105981611439565b82525050565b61106881611427565b82525050565b6110778161144b565b82525050565b61108681611494565b82525050565b60006110996038836113c0565b91506110a482611504565b604082019050919050565b60006110bc6026836113c0565b91506110c782611553565b604082019050919050565b60006110df603a836113c0565b91506110ea826115a2565b604082019050919050565b6000611102601d836113c0565b915061110d826115f1565b602082019050919050565b6000611125602b836113c0565b91506111308261161a565b604082019050919050565b60006111486033836113c0565b915061115382611669565b604082019050919050565b600061116b6029836113c0565b9150611176826116b8565b604082019050919050565b600061118e6020836113c0565b915061119982611707565b602082019050919050565b60006111b16000836113b5565b91506111bc82611730565b600082019050919050565b60006111d46032836113c0565b91506111df82611733565b604082019050919050565b6111f38161148a565b82525050565b6000611204826111a4565b9150819050919050565b6000602082019050611223600083018461105f565b92915050565b600060208201905061123e6000830184611050565b92915050565b6000602082019050611259600083018461106e565b92915050565b6000602082019050611274600083018461107d565b92915050565b600060208201905081810360008301526112938161108c565b9050919050565b600060208201905081810360008301526112b3816110af565b9050919050565b600060208201905081810360008301526112d3816110d2565b9050919050565b600060208201905081810360008301526112f3816110f5565b9050919050565b6000602082019050818103600083015261131381611118565b9050919050565b600060208201905081810360008301526113338161113b565b9050919050565b600060208201905081810360008301526113538161115e565b9050919050565b6000602082019050818103600083015261137381611181565b9050919050565b60006020820190508181036000830152611393816111c7565b9050919050565b60006020820190506113af60008301846111ea565b92915050565b600081905092915050565b600082825260208201905092915050565b60006113dc8261148a565b91506113e78361148a565b9250827fffffffffffffffffffffffffffffffffffffffffffffffffffffffffffffffff0382111561141c5761141b6114a6565b5b828201905092915050565b60006114328261146a565b9050919050565b60006114448261146a565b9050919050565b60008115159050919050565b600081905061146582611782565b919050565b600073ffffffffffffffffffffffffffffffffffffffff82169050919050565b6000819050919050565b600061149f82611457565b9050919050565b7f4e487b7100000000000000000000000000000000000000000000000000000000600052601160045260246000fd5b7f4e487b7100000000000000000000000000000000000000000000000000000000600052602160045260246000fd5b7f526566756e64457363726f773a2062656e65666963696172792063616e206f6e60008201527f6c79207769746864726177207768696c6520636c6f7365640000000000000000602082015250565b7f4f776e61626c653a206e6577206f776e657220697320746865207a65726f206160008201527f6464726573730000000000000000000000000000000000000000000000000000602082015250565b7f416464726573733a20756e61626c6520746f2073656e642076616c75652c207260008201527f6563697069656e74206d61792068617665207265766572746564000000000000602082015250565b7f416464726573733a20696e73756666696369656e742062616c616e6365000000600082015250565b7f526566756e64457363726f773a2063616e206f6e6c79206465706f736974207760008201527f68696c6520616374697665000000000000000000000000000000000000000000602082015250565b7f436f6e646974696f6e616c457363726f773a207061796565206973206e6f742060008201527f616c6c6f77656420746f20776974686472617700000000000000000000000000602082015250565b7f526566756e64457363726f773a2063616e206f6e6c7920636c6f73652077686960008201527f6c65206163746976650000000000000000000000000000000000000000000000602082015250565b7f4f776e61626c653a2063616c6c6572206973206e6f7420746865206f776e6572600082015250565b50565b7f526566756e64457363726f773a2063616e206f6e6c7920656e61626c6520726560008201527f66756e6473207768696c65206163746976650000000000000000000000000000602082015250565b60038110611793576117926114d5565b5b50565b61179f81611427565b81146117aa57600080fd5b50565b6117b681611439565b81146117c157600080fd5b5056fea26469706673582212202c874623757cbf073b03ae03e3698c12d0d20396eb1d3464b8aff9a600760e6764736f6c63430008040033",
  "immutableReferences": {},
  "source": "// SPDX-License-Identifier: MIT\n\npragma solidity 0.8.4;\n\nimport \"@openzeppelin/contracts/utils/math/SafeMath.sol\";\nimport \"@openzeppelin/contracts/utils/escrow/RefundEscrow.sol\";\nimport \"./MultiPartyOwneable.sol\";\n\n/**\n * The Work Exchange contract acts as an escrow for the stake from both parties\n * as well as facilitates the exchange of contracts between to users.  A WorkExchange is created everytime a user enters into a new deal or\n * contract.\n * Note: Created for every job acceptance.\n */\ncontract WorkExchange is MultiPartyOwneable {\n    using SafeMath for uint256;\n\n    event WorkerSentSolution();\n    event RequesterSentPayment();\n    event WorkExchangeStarted(address indexed requesterAddress, address indexed workerBeneficiary, address workExchangeAddress);\n    event WorkExchangeEnded(address indexed requesterAddress, address indexed workerBeneficiary, address workExchangeAddress);\n\n    RefundEscrow private _requesterEscrow;\n    RefundEscrow private _workerEscrow;\n\n    address private _workerAddress;\n    address private _requesterAddress;\n\n    constructor(address payable requesterBeneficiary, address payable workerBeneficiary, bool isTimeLocked) MultiPartyOwneable(workerBeneficiary)/*, TimeLockedDepositProtocol(isTimeLocked)*/ {\n        _requesterEscrow = new RefundEscrow(requesterBeneficiary);\n        _workerEscrow = new RefundEscrow(workerBeneficiary);\n\n        _requesterAddress = requesterBeneficiary;\n        _workerAddress = workerBeneficiary;\n        emit WorkExchangeStarted(requesterBeneficiary, workerBeneficiary, address(this));\n    }\n\n    /**\n     * Receives payments from customers\n     */\n    function sendPaymentAsRequester(address payable payee) external payable onlyOwner {\n        _requesterEscrow.withdraw(payee);\n        emit RequesterSentPayment();\n    }\n\n    /**\n     * Receives payments from customers\n     */\n    function sendPaymentAsWorker(address payable payee) external payable onlyOwner {\n        _workerEscrow.withdraw(payee);\n        emit WorkerSentSolution();\n    }\n\n    /**\n     * Withdraw funds to wallet\n     */\n    function withdrawAsRequester() external onlyOwner {\n        _requesterEscrow.beneficiaryWithdraw();\n    }\n\n    /**\n     * Withdraw funds to wallet\n     */\n    function withdrawAsWorker() external onlyOwner {\n        _workerEscrow.beneficiaryWithdraw();\n    }\n\n    /**\n     * Checks balance available to withdraw\n     * @return the balance\n     */\n    function balanceRequester() external view onlyOwner returns (uint256) {\n        return _requesterEscrow.depositsOf(_requesterEscrow.beneficiary());\n    }\n\n    /**\n     * Checks balance available to withdraw\n     * @return the balance\n     */\n    function balanceWorker() external view onlyOwner returns (uint256) {\n        return _workerEscrow.depositsOf(_workerEscrow.beneficiary());\n    }\n\n    function disableWorkExchange() internal {\n        emit WorkExchangeEnded(_requesterAddress, _workerAddress, address(this));\n        //selfdestruct();\n    }\n}\n",
  "sourcePath": "/Users/elijahhampton/git/opportunity-core/src/contracts/exchange/WorkExchange.sol",
  "compiler": {
    "name": "solc",
    "version": "0.8.4+commit.c7e474f2.Emscripten.clang"
  },
  "schemaVersion": "3.4.1",
  "updatedAt": "2021-06-01T15:43:45.210Z",
  "devdoc": {
    "kind": "dev",
    "methods": {
      "balanceRequester()": {
        "returns": {
          "_0": "the balance"
        }
      },
      "balanceWorker()": {
        "returns": {
          "_0": "the balance"
        }
      },
      "owner()": {
        "details": "Returns the address of the current owner."
      },
      "renounceOwnership()": {
        "details": "Leaves the contract without owner. It will not be possible to call `onlyOwner` functions anymore. Can only be called by the current owner. NOTE: Renouncing ownership will leave the contract without an owner, thereby removing any functionality that is only available to the owner."
      },
      "transferOwnership(address)": {
        "details": "Transfers ownership of the contract to a new account (`newOwner`). Can only be called by the current owner."
      },
      "worker()": {
        "details": "Returns the address of the current owner."
      }
    },
    "version": 1
  },
  "userdoc": {
    "kind": "user",
    "methods": {
      "balanceRequester()": {
        "notice": "Checks balance available to withdraw"
      },
      "balanceWorker()": {
        "notice": "Checks balance available to withdraw"
      },
      "sendPaymentAsRequester(address)": {
        "notice": "Receives payments from customers"
      },
      "sendPaymentAsWorker(address)": {
        "notice": "Receives payments from customers"
      },
      "withdrawAsRequester()": {
        "notice": "Withdraw funds to wallet"
      },
      "withdrawAsWorker()": {
        "notice": "Withdraw funds to wallet"
      }
    },
    "notice": "The Work Exchange contract acts as an escrow for the stake from both parties as well as facilitates the exchange of contracts between to users.  A WorkExchange is created everytime a user enters into a new deal or contract. Note: Created for every job acceptance.",
    "version": 1
  }
}