{
  "contractName": "WorkRelationship",
  "abi": [
    {
      "inputs": [
        {
          "internalType": "string",
          "name": "taskName",
          "type": "string"
        }
      ],
      "stateMutability": "nonpayable",
      "type": "constructor"
    },
    {
      "anonymous": false,
      "inputs": [
        {
          "indexed": true,
          "internalType": "address",
          "name": "previousOwner",
          "type": "address"
        },
        {
          "indexed": true,
          "internalType": "address",
          "name": "newOwner",
          "type": "address"
        }
      ],
      "name": "OwnershipTransferred",
      "type": "event"
    },
    {
      "anonymous": false,
      "inputs": [
        {
          "indexed": true,
          "internalType": "address",
          "name": "_owner",
          "type": "address"
        },
        {
          "indexed": true,
          "internalType": "address",
          "name": "relationship",
          "type": "address"
        }
      ],
      "name": "WorkRelationshipCreated",
      "type": "event"
    },
    {
      "anonymous": false,
      "inputs": [
        {
          "indexed": true,
          "internalType": "address",
          "name": "owner",
          "type": "address"
        },
        {
          "indexed": true,
          "internalType": "address",
          "name": "relationship",
          "type": "address"
        }
      ],
      "name": "WorkRelationshipEnded",
      "type": "event"
    },
    {
      "inputs": [],
      "name": "_contractStatus",
      "outputs": [
        {
          "internalType": "enum Evaluation.WorkRelationshipState",
          "name": "",
          "type": "uint8"
        }
      ],
      "stateMutability": "view",
      "type": "function"
    },
    {
      "inputs": [],
      "name": "_contractTaskName",
      "outputs": [
        {
          "internalType": "string",
          "name": "",
          "type": "string"
        }
      ],
      "stateMutability": "view",
      "type": "function"
    },
    {
      "inputs": [],
      "name": "_workExchangeAddress",
      "outputs": [
        {
          "internalType": "address",
          "name": "",
          "type": "address"
        }
      ],
      "stateMutability": "view",
      "type": "function"
    },
    {
      "inputs": [],
      "name": "owner",
      "outputs": [
        {
          "internalType": "address",
          "name": "",
          "type": "address"
        }
      ],
      "stateMutability": "view",
      "type": "function"
    },
    {
      "inputs": [],
      "name": "renounceOwnership",
      "outputs": [],
      "stateMutability": "nonpayable",
      "type": "function"
    },
    {
      "inputs": [
        {
          "internalType": "address",
          "name": "newOwner",
          "type": "address"
        }
      ],
      "name": "transferOwnership",
      "outputs": [],
      "stateMutability": "nonpayable",
      "type": "function"
    },
    {
      "inputs": [
        {
          "internalType": "address payable",
          "name": "newWorker",
          "type": "address"
        },
        {
          "components": [
            {
              "internalType": "string",
              "name": "industry",
              "type": "string"
            },
            {
              "internalType": "uint256",
              "name": "industrylevel",
              "type": "uint256"
            },
            {
              "internalType": "uint256",
              "name": "reputation",
              "type": "uint256"
            }
          ],
          "internalType": "struct Evaluation.EvaluationState",
          "name": "evaluationState",
          "type": "tuple"
        },
        {
          "internalType": "bool",
          "name": "isTimeLocked",
          "type": "bool"
        }
      ],
      "name": "assignNewWorker",
      "outputs": [],
      "stateMutability": "nonpayable",
      "type": "function"
    },
    {
      "inputs": [
        {
          "internalType": "address payable",
          "name": "workerBeneficiary",
          "type": "address"
        },
        {
          "internalType": "bool",
          "name": "isTimeLocked",
          "type": "bool"
        }
      ],
      "name": "createWorkExchange",
      "outputs": [],
      "stateMutability": "nonpayable",
      "type": "function"
    },
    {
      "inputs": [],
      "name": "disableWorkRelationship",
      "outputs": [],
      "stateMutability": "nonpayable",
      "type": "function"
    },
    {
      "inputs": [
        {
          "internalType": "string",
          "name": "newTaskPointerHash",
          "type": "string"
        }
      ],
      "name": "updateTaskPointer",
      "outputs": [],
      "stateMutability": "nonpayable",
      "type": "function"
    },
    {
      "inputs": [],
      "name": "getTaskPointer",
      "outputs": [
        {
          "internalType": "string",
          "name": "",
          "type": "string"
        }
      ],
      "stateMutability": "view",
      "type": "function"
    }
  ],
  "bytecode": "0x608060405260405180602001604052806000815250600390805190602001906200002b92919062000137565b503480156200003957600080fd5b50604051620048f6380380620048f683398181016040528101906200005f919062000259565b6000620000716200012f60201b60201c565b9050806000806101000a81548173ffffffffffffffffffffffffffffffffffffffff021916908373ffffffffffffffffffffffffffffffffffffffff1602179055508073ffffffffffffffffffffffffffffffffffffffff16600073ffffffffffffffffffffffffffffffffffffffff167f8be0079c531659141344cd1fd0a4f28419497f9722a3daafe3b4186f6b6457e060405160405180910390a35080600290805190602001906200012792919062000137565b5050620003cf565b600033905090565b82805462000145906200033b565b90600052602060002090601f016020900481019282620001695760008555620001b5565b82601f106200018457805160ff1916838001178555620001b5565b82800160010185558215620001b5579182015b82811115620001b457825182559160200191906001019062000197565b5b509050620001c49190620001c8565b5090565b5b80821115620001e3576000816000905550600101620001c9565b5090565b6000620001fe620001f884620002d2565b6200029e565b9050828152602081018484840111156200021757600080fd5b6200022484828562000305565b509392505050565b600082601f8301126200023e57600080fd5b815162000250848260208601620001e7565b91505092915050565b6000602082840312156200026c57600080fd5b600082015167ffffffffffffffff8111156200028757600080fd5b62000295848285016200022c565b91505092915050565b6000604051905081810181811067ffffffffffffffff82111715620002c857620002c7620003a0565b5b8060405250919050565b600067ffffffffffffffff821115620002f057620002ef620003a0565b5b601f19601f8301169050602081019050919050565b60005b838110156200032557808201518184015260208101905062000308565b8381111562000335576000848401525b50505050565b600060028204905060018216806200035457607f821691505b602082108114156200036b576200036a62000371565b5b50919050565b7f4e487b7100000000000000000000000000000000000000000000000000000000600052602260045260246000fd5b7f4e487b7100000000000000000000000000000000000000000000000000000000600052604160045260246000fd5b61451780620003df6000396000f3fe60806040523480156200001157600080fd5b5060043610620000b85760003560e01c806395cd34e3116200007b57806395cd34e3146200014d578063c34533a9146200016f578063ce079b9a146200018f578063e6e88593146200019b578063eebc6e3d14620001bd578063f2fde38b14620001df57620000b8565b8063446a02b314620000bd5780634568a94e14620000dd5780634a67f54814620000fd578063715018a6146200011f5780638da5cb5b146200012b575b600080fd5b620000db6004803603810190620000d5919062000eb3565b620001ff565b005b620000fb6004803603810190620000f5919062000ef4565b62000312565b005b6200010762000491565b6040516200011691906200124f565b60405180910390f35b620001296200052b565b005b620001356200066c565b604051620001449190620011ab565b60405180910390f35b6200015762000695565b6040516200016691906200124f565b60405180910390f35b6200018d600480360381019062000187919062000f8f565b6200072b565b005b62000199620007ca565b005b620001a5620009ce565b604051620001b4919062001232565b60405180910390f35b620001c7620009e1565b604051620001d69190620011ab565b60405180910390f35b620001fd6004803603810190620001f7919062000e87565b62000a07565b005b6200020962000bba565b73ffffffffffffffffffffffffffffffffffffffff16620002296200066c565b73ffffffffffffffffffffffffffffffffffffffff161462000282576040517f08c379a0000000000000000000000000000000000000000000000000000000008152600401620002799062001295565b60405180910390fd5b60006200028e6200066c565b83836040516200029e9062000c62565b620002ac93929190620011c8565b604051809103906000f080158015620002c9573d6000803e3d6000fd5b50905080600160006101000a81548173ffffffffffffffffffffffffffffffffffffffff021916908373ffffffffffffffffffffffffffffffffffffffff160217905550505050565b6200031c62000bba565b73ffffffffffffffffffffffffffffffffffffffff166200033c6200066c565b73ffffffffffffffffffffffffffffffffffffffff161462000395576040517f08c379a00000000000000000000000000000000000000000000000000000000081526004016200038c9062001295565b60405180910390fd5b6000620003a3848462000bc2565b90506001151581151514620003b757600080fd5b3073ffffffffffffffffffffffffffffffffffffffff1663446a02b385846040518363ffffffff1660e01b8152600401620003f492919062001205565b600060405180830381600087803b1580156200040f57600080fd5b505af115801562000424573d6000803e3d6000fd5b505050503073ffffffffffffffffffffffffffffffffffffffff16620004496200066c565b73ffffffffffffffffffffffffffffffffffffffff167f1f0aa61cbde59114f62be2daa5b4a6478322c4824c9523d355ff6a1ad24207c560405160405180910390a350505050565b606060038054620004a2906200143b565b80601f0160208091040260200160405190810160405280929190818152602001828054620004d0906200143b565b8015620005215780601f10620004f55761010080835404028352916020019162000521565b820191906000526020600020905b8154815290600101906020018083116200050357829003601f168201915b5050505050905090565b6200053562000bba565b73ffffffffffffffffffffffffffffffffffffffff16620005556200066c565b73ffffffffffffffffffffffffffffffffffffffff1614620005ae576040517f08c379a0000000000000000000000000000000000000000000000000000000008152600401620005a59062001295565b60405180910390fd5b600073ffffffffffffffffffffffffffffffffffffffff1660008054906101000a900473ffffffffffffffffffffffffffffffffffffffff1673ffffffffffffffffffffffffffffffffffffffff167f8be0079c531659141344cd1fd0a4f28419497f9722a3daafe3b4186f6b6457e060405160405180910390a360008060006101000a81548173ffffffffffffffffffffffffffffffffffffffff021916908373ffffffffffffffffffffffffffffffffffffffff160217905550565b60008060009054906101000a900473ffffffffffffffffffffffffffffffffffffffff16905090565b60028054620006a4906200143b565b80601f0160208091040260200160405190810160405280929190818152602001828054620006d2906200143b565b8015620007235780601f10620006f75761010080835404028352916020019162000723565b820191906000526020600020905b8154815290600101906020018083116200070557829003601f168201915b505050505081565b6200073562000bba565b73ffffffffffffffffffffffffffffffffffffffff16620007556200066c565b73ffffffffffffffffffffffffffffffffffffffff1614620007ae576040517f08c379a0000000000000000000000000000000000000000000000000000000008152600401620007a59062001295565b60405180910390fd5b8060039080519060200190620007c692919062000c70565b5050565b620007d462000bba565b73ffffffffffffffffffffffffffffffffffffffff16620007f46200066c565b73ffffffffffffffffffffffffffffffffffffffff16146200084d576040517f08c379a0000000000000000000000000000000000000000000000000000000008152600401620008449062001295565b60405180910390fd5b6004600681111562000888577f4e487b7100000000000000000000000000000000000000000000000000000000600052602160045260246000fd5b600060149054906101000a900460ff166006811115620008d1577f4e487b7100000000000000000000000000000000000000000000000000000000600052602160045260246000fd5b14806200095f57506004600681111562000914577f4e487b7100000000000000000000000000000000000000000000000000000000600052602160045260246000fd5b600060149054906101000a900460ff1660068111156200095d577f4e487b7100000000000000000000000000000000000000000000000000000000600052602160045260246000fd5b145b6200096957600080fd5b3073ffffffffffffffffffffffffffffffffffffffff166200098a6200066c565b73ffffffffffffffffffffffffffffffffffffffff167f9f9ae6282c58d4c8aeebc441331043c250c011c89bdc9a917ba54702f0c36a2960405160405180910390a3565b600060149054906101000a900460ff1681565b600160009054906101000a900473ffffffffffffffffffffffffffffffffffffffff1681565b62000a1162000bba565b73ffffffffffffffffffffffffffffffffffffffff1662000a316200066c565b73ffffffffffffffffffffffffffffffffffffffff161462000a8a576040517f08c379a000000000000000000000000000000000000000000000000000000000815260040162000a819062001295565b60405180910390fd5b600073ffffffffffffffffffffffffffffffffffffffff168173ffffffffffffffffffffffffffffffffffffffff16141562000afd576040517f08c379a000000000000000000000000000000000000000000000000000000000815260040162000af49062001273565b60405180910390fd5b8073ffffffffffffffffffffffffffffffffffffffff1660008054906101000a900473ffffffffffffffffffffffffffffffffffffffff1673ffffffffffffffffffffffffffffffffffffffff167f8be0079c531659141344cd1fd0a4f28419497f9722a3daafe3b4186f6b6457e060405160405180910390a3806000806101000a81548173ffffffffffffffffffffffffffffffffffffffff021916908373ffffffffffffffffffffffffffffffffffffffff16021790555050565b600033905090565b6000808373ffffffffffffffffffffffffffffffffffffffff16635d5f221f846040518263ffffffff1660e01b815260040162000c009190620012b7565b602060405180830381600087803b15801562000c1b57600080fd5b505af115801562000c30573d6000803e3d6000fd5b505050506040513d601f19601f8201168201806040525081019062000c56919062000f63565b90508091505092915050565b612f53806200158f83390190565b82805462000c7e906200143b565b90600052602060002090601f01602090048101928262000ca2576000855562000cee565b82601f1062000cbd57805160ff191683800117855562000cee565b8280016001018555821562000cee579182015b8281111562000ced57825182559160200191906001019062000cd0565b5b50905062000cfd919062000d01565b5090565b5b8082111562000d1c57600081600090555060010162000d02565b5090565b600062000d3762000d31846200130f565b620012db565b90508281526020810184848401111562000d5057600080fd5b62000d5d848285620013f6565b509392505050565b60008135905062000d768162001526565b92915050565b60008135905062000d8d8162001540565b92915050565b60008135905062000da4816200155a565b92915050565b60008151905062000dbb816200155a565b92915050565b600082601f83011262000dd357600080fd5b813562000de584826020860162000d20565b91505092915050565b60006060828403121562000e0157600080fd5b62000e0d6060620012db565b9050600082013567ffffffffffffffff81111562000e2a57600080fd5b62000e388482850162000dc1565b600083015250602062000e4e8482850162000e70565b602083015250604062000e648482850162000e70565b60408301525092915050565b60008135905062000e818162001574565b92915050565b60006020828403121562000e9a57600080fd5b600062000eaa8482850162000d65565b91505092915050565b6000806040838503121562000ec757600080fd5b600062000ed78582860162000d7c565b925050602062000eea8582860162000d93565b9150509250929050565b60008060006060848603121562000f0a57600080fd5b600062000f1a8682870162000d7c565b935050602084013567ffffffffffffffff81111562000f3857600080fd5b62000f468682870162000dee565b925050604062000f598682870162000d93565b9150509250925092565b60006020828403121562000f7657600080fd5b600062000f868482850162000daa565b91505092915050565b60006020828403121562000fa257600080fd5b600082013567ffffffffffffffff81111562000fbd57600080fd5b62000fcb8482850162000dc1565b91505092915050565b62000fdf8162001383565b82525050565b62000ff0816200136f565b82525050565b620010018162001397565b82525050565b6200101281620013e2565b82525050565b6000620010258262001342565b6200103181856200134d565b93506200104381856020860162001405565b6200104e81620014fe565b840191505092915050565b6000620010668262001342565b6200107281856200135e565b93506200108481856020860162001405565b6200108f81620014fe565b840191505092915050565b6000620010a96026836200135e565b91507f4f776e61626c653a206e6577206f776e657220697320746865207a65726f206160008301527f64647265737300000000000000000000000000000000000000000000000000006020830152604082019050919050565b6000620011116020836200135e565b91507f4f776e61626c653a2063616c6c6572206973206e6f7420746865206f776e65726000830152602082019050919050565b6000606083016000830151848203600086015262001163828262001018565b91505060208301516200117a60208601826200119a565b5060408301516200118f60408601826200119a565b508091505092915050565b620011a581620013d8565b82525050565b6000602082019050620011c2600083018462000fe5565b92915050565b6000606082019050620011df600083018662000fd4565b620011ee602083018562000fd4565b620011fd604083018462000ff6565b949350505050565b60006040820190506200121c600083018562000fd4565b6200122b602083018462000ff6565b9392505050565b600060208201905062001249600083018462001007565b92915050565b600060208201905081810360008301526200126b818462001059565b905092915050565b600060208201905081810360008301526200128e816200109a565b9050919050565b60006020820190508181036000830152620012b08162001102565b9050919050565b60006020820190508181036000830152620012d3818462001144565b905092915050565b6000604051905081810181811067ffffffffffffffff82111715620013055762001304620014cf565b5b8060405250919050565b600067ffffffffffffffff8211156200132d576200132c620014cf565b5b601f19601f8301169050602081019050919050565b600081519050919050565b600082825260208201905092915050565b600082825260208201905092915050565b60006200137c82620013b8565b9050919050565b60006200139082620013b8565b9050919050565b60008115159050919050565b6000819050620013b3826200150f565b919050565b600073ffffffffffffffffffffffffffffffffffffffff82169050919050565b6000819050919050565b6000620013ef82620013a3565b9050919050565b82818337600083830152505050565b60005b838110156200142557808201518184015260208101905062001408565b8381111562001435576000848401525b50505050565b600060028204905060018216806200145457607f821691505b602082108114156200146b576200146a620014a0565b5b50919050565b7f4e487b7100000000000000000000000000000000000000000000000000000000600052602160045260246000fd5b7f4e487b7100000000000000000000000000000000000000000000000000000000600052602260045260246000fd5b7f4e487b7100000000000000000000000000000000000000000000000000000000600052604160045260246000fd5b6000601f19601f8301169050919050565b6007811062001523576200152262001471565b5b50565b62001531816200136f565b81146200153d57600080fd5b50565b6200154b8162001383565b81146200155757600080fd5b50565b620015658162001397565b81146200157157600080fd5b50565b6200157f81620013d8565b81146200158b57600080fd5b5056fe60806040523480156200001157600080fd5b5060405162002f5338038062002f53833981810160405281019062000037919062000374565b8160006200004a6200033060201b60201c565b9050806000806101000a81548173ffffffffffffffffffffffffffffffffffffffff021916908373ffffffffffffffffffffffffffffffffffffffff16021790555081600160006101000a81548173ffffffffffffffffffffffffffffffffffffffff021916908373ffffffffffffffffffffffffffffffffffffffff160217905550600160009054906101000a900473ffffffffffffffffffffffffffffffffffffffff1673ffffffffffffffffffffffffffffffffffffffff16600073ffffffffffffffffffffffffffffffffffffffff167f8be0079c531659141344cd1fd0a4f28419497f9722a3daafe3b4186f6b6457e060405160405180910390a35050826040516200015b9062000338565b62000167919062000409565b604051809103906000f08015801562000184573d6000803e3d6000fd5b50600260006101000a81548173ffffffffffffffffffffffffffffffffffffffff021916908373ffffffffffffffffffffffffffffffffffffffff16021790555081604051620001d49062000338565b620001e0919062000409565b604051809103906000f080158015620001fd573d6000803e3d6000fd5b50600360006101000a81548173ffffffffffffffffffffffffffffffffffffffff021916908373ffffffffffffffffffffffffffffffffffffffff16021790555082600560006101000a81548173ffffffffffffffffffffffffffffffffffffffff021916908373ffffffffffffffffffffffffffffffffffffffff16021790555081600460006101000a81548173ffffffffffffffffffffffffffffffffffffffff021916908373ffffffffffffffffffffffffffffffffffffffff1602179055508173ffffffffffffffffffffffffffffffffffffffff168373ffffffffffffffffffffffffffffffffffffffff167f4dc5f0070db7372507a32b040d6e05e71b6aef1067ae5203e2ffefa98ca4cac2306040516200031f9190620003ec565b60405180910390a3505050620004ae565b600033905090565b611abf806200149483390190565b60008151905062000357816200047a565b92915050565b6000815190506200036e8162000494565b92915050565b6000806000606084860312156200038a57600080fd5b60006200039a8682870162000346565b9350506020620003ad8682870162000346565b9250506040620003c0868287016200035d565b9150509250925092565b620003d5816200043a565b82525050565b620003e68162000426565b82525050565b6000602082019050620004036000830184620003db565b92915050565b6000602082019050620004206000830184620003ca565b92915050565b600062000433826200045a565b9050919050565b600062000447826200045a565b9050919050565b60008115159050919050565b600073ffffffffffffffffffffffffffffffffffffffff82169050919050565b62000485816200043a565b81146200049157600080fd5b50565b6200049f816200044e565b8114620004ab57600080fd5b50565b610fd680620004be6000396000f3fe6080604052600436106100915760003560e01c80638428dccc116100595780638428dccc146101365780638da5cb5b1461015257806398da87b41461017d578063b48691e014610194578063f2fde38b146101bf57610091565b806303f5d25b146100965780634d547ada146100ad5780636628c1d1146100d85780637053e7e0146100f4578063715018a61461011f575b600080fd5b3480156100a257600080fd5b506100ab6101e8565b005b3480156100b957600080fd5b506100c26102e8565b6040516100cf9190610e3a565b60405180910390f35b6100f260048036038101906100ed9190610d43565b610312565b005b34801561010057600080fd5b5061010961044a565b6040516101169190610eab565b60405180910390f35b34801561012b57600080fd5b50610134610617565b005b610150600480360381019061014b9190610d43565b610754565b005b34801561015e57600080fd5b5061016761088c565b6040516101749190610e3a565b60405180910390f35b34801561018957600080fd5b506101926108b5565b005b3480156101a057600080fd5b506101a96109b5565b6040516101b69190610eab565b60405180910390f35b3480156101cb57600080fd5b506101e660048036038101906101e19190610d1a565b610b82565b005b6101f0610cbe565b73ffffffffffffffffffffffffffffffffffffffff1661020e61088c565b73ffffffffffffffffffffffffffffffffffffffff1614610264576040517f08c379a000000000000000000000000000000000000000000000000000000000815260040161025b90610e8b565b60405180910390fd5b600260009054906101000a900473ffffffffffffffffffffffffffffffffffffffff1673ffffffffffffffffffffffffffffffffffffffff16639af6549a6040518163ffffffff1660e01b8152600401600060405180830381600087803b1580156102ce57600080fd5b505af11580156102e2573d6000803e3d6000fd5b50505050565b6000600160009054906101000a900473ffffffffffffffffffffffffffffffffffffffff16905090565b61031a610cbe565b73ffffffffffffffffffffffffffffffffffffffff1661033861088c565b73ffffffffffffffffffffffffffffffffffffffff161461038e576040517f08c379a000000000000000000000000000000000000000000000000000000000815260040161038590610e8b565b60405180910390fd5b600260009054906101000a900473ffffffffffffffffffffffffffffffffffffffff1673ffffffffffffffffffffffffffffffffffffffff166351cff8d9826040518263ffffffff1660e01b81526004016103e99190610e70565b600060405180830381600087803b15801561040357600080fd5b505af1158015610417573d6000803e3d6000fd5b505050507f7a15267f0526551b50e6c288544c1ac87f16e7837002acfb601cf247ec718d4e60405160405180910390a150565b6000610454610cbe565b73ffffffffffffffffffffffffffffffffffffffff1661047261088c565b73ffffffffffffffffffffffffffffffffffffffff16146104c8576040517f08c379a00000000000000000000000000000000000000000000000000000000081526004016104bf90610e8b565b60405180910390fd5b600360009054906101000a900473ffffffffffffffffffffffffffffffffffffffff1673ffffffffffffffffffffffffffffffffffffffff1663e3a9db1a600360009054906101000a900473ffffffffffffffffffffffffffffffffffffffff1673ffffffffffffffffffffffffffffffffffffffff166338af3eed6040518163ffffffff1660e01b815260040160206040518083038186803b15801561056e57600080fd5b505afa158015610582573d6000803e3d6000fd5b505050506040513d601f19601f820116820180604052508101906105a69190610d6c565b6040518263ffffffff1660e01b81526004016105c29190610e55565b60206040518083038186803b1580156105da57600080fd5b505afa1580156105ee573d6000803e3d6000fd5b505050506040513d601f19601f820116820180604052508101906106129190610d95565b905090565b61061f6102e8565b73ffffffffffffffffffffffffffffffffffffffff1661063d6102e8565b73ffffffffffffffffffffffffffffffffffffffff1614610693576040517f08c379a000000000000000000000000000000000000000000000000000000000815260040161068a90610e8b565b60405180910390fd5b600073ffffffffffffffffffffffffffffffffffffffff16600160009054906101000a900473ffffffffffffffffffffffffffffffffffffffff1673ffffffffffffffffffffffffffffffffffffffff167f8be0079c531659141344cd1fd0a4f28419497f9722a3daafe3b4186f6b6457e060405160405180910390a36000600160006101000a81548173ffffffffffffffffffffffffffffffffffffffff021916908373ffffffffffffffffffffffffffffffffffffffff160217905550565b61075c610cbe565b73ffffffffffffffffffffffffffffffffffffffff1661077a61088c565b73ffffffffffffffffffffffffffffffffffffffff16146107d0576040517f08c379a00000000000000000000000000000000000000000000000000000000081526004016107c790610e8b565b60405180910390fd5b600360009054906101000a900473ffffffffffffffffffffffffffffffffffffffff1673ffffffffffffffffffffffffffffffffffffffff166351cff8d9826040518263ffffffff1660e01b815260040161082b9190610e70565b600060405180830381600087803b15801561084557600080fd5b505af1158015610859573d6000803e3d6000fd5b505050507fb24b6304585135966b8217241802ddd6fe969a26cc5f252ebe153be87a6c007a60405160405180910390a150565b60008060009054906101000a900473ffffffffffffffffffffffffffffffffffffffff16905090565b6108bd610cbe565b73ffffffffffffffffffffffffffffffffffffffff166108db61088c565b73ffffffffffffffffffffffffffffffffffffffff1614610931576040517f08c379a000000000000000000000000000000000000000000000000000000000815260040161092890610e8b565b60405180910390fd5b600360009054906101000a900473ffffffffffffffffffffffffffffffffffffffff1673ffffffffffffffffffffffffffffffffffffffff16639af6549a6040518163ffffffff1660e01b8152600401600060405180830381600087803b15801561099b57600080fd5b505af11580156109af573d6000803e3d6000fd5b50505050565b60006109bf610cbe565b73ffffffffffffffffffffffffffffffffffffffff166109dd61088c565b73ffffffffffffffffffffffffffffffffffffffff1614610a33576040517f08c379a0000000000000000000000000000000000000000000000000000000008152600401610a2a90610e8b565b60405180910390fd5b600260009054906101000a900473ffffffffffffffffffffffffffffffffffffffff1673ffffffffffffffffffffffffffffffffffffffff1663e3a9db1a600260009054906101000a900473ffffffffffffffffffffffffffffffffffffffff1673ffffffffffffffffffffffffffffffffffffffff166338af3eed6040518163ffffffff1660e01b815260040160206040518083038186803b158015610ad957600080fd5b505afa158015610aed573d6000803e3d6000fd5b505050506040513d601f19601f82011682018060405250810190610b119190610d6c565b6040518263ffffffff1660e01b8152600401610b2d9190610e55565b60206040518083038186803b158015610b4557600080fd5b505afa158015610b59573d6000803e3d6000fd5b505050506040513d601f19601f82011682018060405250810190610b7d9190610d95565b905090565b610b8a610cbe565b73ffffffffffffffffffffffffffffffffffffffff16610ba861088c565b73ffffffffffffffffffffffffffffffffffffffff1614610bfe576040517f08c379a0000000000000000000000000000000000000000000000000000000008152600401610bf590610e8b565b60405180910390fd5b8073ffffffffffffffffffffffffffffffffffffffff16600160009054906101000a900473ffffffffffffffffffffffffffffffffffffffff1673ffffffffffffffffffffffffffffffffffffffff167f8be0079c531659141344cd1fd0a4f28419497f9722a3daafe3b4186f6b6457e060405160405180910390a380600160006101000a81548173ffffffffffffffffffffffffffffffffffffffff021916908373ffffffffffffffffffffffffffffffffffffffff16021790555050565b600033905090565b600081359050610cd581610f5b565b92915050565b600081359050610cea81610f72565b92915050565b600081519050610cff81610f72565b92915050565b600081519050610d1481610f89565b92915050565b600060208284031215610d2c57600080fd5b6000610d3a84828501610cc6565b91505092915050565b600060208284031215610d5557600080fd5b6000610d6384828501610cdb565b91505092915050565b600060208284031215610d7e57600080fd5b6000610d8c84828501610cf0565b91505092915050565b600060208284031215610da757600080fd5b6000610db584828501610d05565b91505092915050565b610dc781610f25565b82525050565b610dd681610ee9565b82525050565b610de581610ed7565b82525050565b6000610df8602083610ec6565b91507f4f776e61626c653a2063616c6c6572206973206e6f7420746865206f776e65726000830152602082019050919050565b610e3481610f1b565b82525050565b6000602082019050610e4f6000830184610ddc565b92915050565b6000602082019050610e6a6000830184610dbe565b92915050565b6000602082019050610e856000830184610dcd565b92915050565b60006020820190508181036000830152610ea481610deb565b9050919050565b6000602082019050610ec06000830184610e2b565b92915050565b600082825260208201905092915050565b6000610ee282610efb565b9050919050565b6000610ef482610efb565b9050919050565b600073ffffffffffffffffffffffffffffffffffffffff82169050919050565b6000819050919050565b6000610f3082610f37565b9050919050565b6000610f4282610f49565b9050919050565b6000610f5482610efb565b9050919050565b610f6481610ed7565b8114610f6f57600080fd5b50565b610f7b81610ee9565b8114610f8657600080fd5b50565b610f9281610f1b565b8114610f9d57600080fd5b5056fea26469706673582212207c142497a860f391e45ca391f5d88521ed141cfef4b173a4508c522055441b0c64736f6c6343000800003360a06040523480156200001157600080fd5b5060405162001abf38038062001abf833981810160405281019062000037919062000209565b600062000049620001ea60201b60201c565b9050806000806101000a81548173ffffffffffffffffffffffffffffffffffffffff021916908373ffffffffffffffffffffffffffffffffffffffff1602179055508073ffffffffffffffffffffffffffffffffffffffff16600073ffffffffffffffffffffffffffffffffffffffff167f8be0079c531659141344cd1fd0a4f28419497f9722a3daafe3b4186f6b6457e060405160405180910390a350600073ffffffffffffffffffffffffffffffffffffffff168173ffffffffffffffffffffffffffffffffffffffff1614156200015a576040517f08c379a000000000000000000000000000000000000000000000000000000000815260040162000151906200029d565b60405180910390fd5b8073ffffffffffffffffffffffffffffffffffffffff1660808173ffffffffffffffffffffffffffffffffffffffff1660601b815250506000600260006101000a81548160ff02191690836002811115620001de577f4e487b7100000000000000000000000000000000000000000000000000000000600052602160045260246000fd5b0217905550506200031e565b600033905090565b600081519050620002038162000304565b92915050565b6000602082840312156200021c57600080fd5b60006200022c84828501620001f2565b91505092915050565b600062000244602d83620002bf565b91507f526566756e64457363726f773a2062656e65666963696172792069732074686560008301527f207a65726f2061646472657373000000000000000000000000000000000000006020830152604082019050919050565b60006020820190508181036000830152620002b88162000235565b9050919050565b600082825260208201905092915050565b6000620002dd82620002e4565b9050919050565b600073ffffffffffffffffffffffffffffffffffffffff82169050919050565b6200030f81620002d0565b81146200031b57600080fd5b50565b60805160601c6117826200033d600039600061027501526117826000f3fe6080604052600436106100a75760003560e01c80638da5cb5b116100645780638da5cb5b146101825780639af6549a146101ad578063c19d93fb146101c4578063e3a9db1a146101ef578063f2fde38b1461022c578063f340fa0114610255576100a7565b806338af3eed146100ac57806343d726d6146100d757806351cff8d9146100ee578063685ca19414610117578063715018a6146101545780638c52dc411461016b575b600080fd5b3480156100b857600080fd5b506100c1610271565b6040516100ce919061142f565b60405180910390f35b3480156100e357600080fd5b506100ec610299565b005b3480156100fa57600080fd5b5061011560048036038101906101109190611027565b61044d565b005b34801561012357600080fd5b5061013e60048036038101906101399190610ffe565b6104a1565b60405161014b919061144a565b60405180910390f35b34801561016057600080fd5b50610169610525565b005b34801561017757600080fd5b5061018061065f565b005b34801561018e57600080fd5b50610197610814565b6040516101a49190611414565b60405180910390f35b3480156101b957600080fd5b506101c261083d565b005b3480156101d057600080fd5b506101d9610928565b6040516101e69190611465565b60405180910390f35b3480156101fb57600080fd5b5061021660048036038101906102119190610ffe565b61093f565b60405161022391906115a0565b60405180910390f35b34801561023857600080fd5b50610253600480360381019061024e9190610ffe565b610988565b005b61026f600480360381019061026a9190610ffe565b610b31565b005b60007f0000000000000000000000000000000000000000000000000000000000000000905090565b6102a1610bf7565b73ffffffffffffffffffffffffffffffffffffffff166102bf610814565b73ffffffffffffffffffffffffffffffffffffffff1614610315576040517f08c379a000000000000000000000000000000000000000000000000000000000815260040161030c90611560565b60405180910390fd5b6000600281111561034f577f4e487b7100000000000000000000000000000000000000000000000000000000600052602160045260246000fd5b610357610928565b600281111561038f577f4e487b7100000000000000000000000000000000000000000000000000000000600052602160045260246000fd5b146103cf576040517f08c379a00000000000000000000000000000000000000000000000000000000081526004016103c690611540565b60405180910390fd5b60028060006101000a81548160ff0219169083600281111561041a577f4e487b7100000000000000000000000000000000000000000000000000000000600052602160045260246000fd5b02179055507f088672c3a6e342f7cd94a65ba63b79df24a8973927b4d05d803c44bbf787d12f60405160405180910390a1565b610456816104a1565b610495576040517f08c379a000000000000000000000000000000000000000000000000000000000815260040161048c90611520565b60405180910390fd5b61049e81610bff565b50565b6000600160028111156104dd577f4e487b7100000000000000000000000000000000000000000000000000000000600052602160045260246000fd5b6104e5610928565b600281111561051d577f4e487b7100000000000000000000000000000000000000000000000000000000600052602160045260246000fd5b149050919050565b61052d610bf7565b73ffffffffffffffffffffffffffffffffffffffff1661054b610814565b73ffffffffffffffffffffffffffffffffffffffff16146105a1576040517f08c379a000000000000000000000000000000000000000000000000000000000815260040161059890611560565b60405180910390fd5b600073ffffffffffffffffffffffffffffffffffffffff1660008054906101000a900473ffffffffffffffffffffffffffffffffffffffff1673ffffffffffffffffffffffffffffffffffffffff167f8be0079c531659141344cd1fd0a4f28419497f9722a3daafe3b4186f6b6457e060405160405180910390a360008060006101000a81548173ffffffffffffffffffffffffffffffffffffffff021916908373ffffffffffffffffffffffffffffffffffffffff160217905550565b610667610bf7565b73ffffffffffffffffffffffffffffffffffffffff16610685610814565b73ffffffffffffffffffffffffffffffffffffffff16146106db576040517f08c379a00000000000000000000000000000000000000000000000000000000081526004016106d290611560565b60405180910390fd5b60006002811115610715577f4e487b7100000000000000000000000000000000000000000000000000000000600052602160045260246000fd5b61071d610928565b6002811115610755577f4e487b7100000000000000000000000000000000000000000000000000000000600052602160045260246000fd5b14610795576040517f08c379a000000000000000000000000000000000000000000000000000000000815260040161078c90611580565b60405180910390fd5b6001600260006101000a81548160ff021916908360028111156107e1577f4e487b7100000000000000000000000000000000000000000000000000000000600052602160045260246000fd5b02179055507f599d8e5a83cffb867d051598c4d70e805d59802d8081c1c7d6dffc5b6aca2b8960405160405180910390a1565b60008060009054906101000a900473ffffffffffffffffffffffffffffffffffffffff16905090565b600280811115610876577f4e487b7100000000000000000000000000000000000000000000000000000000600052602160045260246000fd5b61087e610928565b60028111156108b6577f4e487b7100000000000000000000000000000000000000000000000000000000600052602160045260246000fd5b146108f6576040517f08c379a00000000000000000000000000000000000000000000000000000000081526004016108ed90611480565b60405180910390fd5b61092647610902610271565b73ffffffffffffffffffffffffffffffffffffffff16610d7f90919063ffffffff16565b565b6000600260009054906101000a900460ff16905090565b6000600160008373ffffffffffffffffffffffffffffffffffffffff1673ffffffffffffffffffffffffffffffffffffffff168152602001908152602001600020549050919050565b610990610bf7565b73ffffffffffffffffffffffffffffffffffffffff166109ae610814565b73ffffffffffffffffffffffffffffffffffffffff1614610a04576040517f08c379a00000000000000000000000000000000000000000000000000000000081526004016109fb90611560565b60405180910390fd5b600073ffffffffffffffffffffffffffffffffffffffff168173ffffffffffffffffffffffffffffffffffffffff161415610a74576040517f08c379a0000000000000000000000000000000000000000000000000000000008152600401610a6b906114a0565b60405180910390fd5b8073ffffffffffffffffffffffffffffffffffffffff1660008054906101000a900473ffffffffffffffffffffffffffffffffffffffff1673ffffffffffffffffffffffffffffffffffffffff167f8be0079c531659141344cd1fd0a4f28419497f9722a3daafe3b4186f6b6457e060405160405180910390a3806000806101000a81548173ffffffffffffffffffffffffffffffffffffffff021916908373ffffffffffffffffffffffffffffffffffffffff16021790555050565b60006002811115610b6b577f4e487b7100000000000000000000000000000000000000000000000000000000600052602160045260246000fd5b610b73610928565b6002811115610bab577f4e487b7100000000000000000000000000000000000000000000000000000000600052602160045260246000fd5b14610beb576040517f08c379a0000000000000000000000000000000000000000000000000000000008152600401610be290611500565b60405180910390fd5b610bf481610e73565b50565b600033905090565b610c07610bf7565b73ffffffffffffffffffffffffffffffffffffffff16610c25610814565b73ffffffffffffffffffffffffffffffffffffffff1614610c7b576040517f08c379a0000000000000000000000000000000000000000000000000000000008152600401610c7290611560565b60405180910390fd5b6000600160008373ffffffffffffffffffffffffffffffffffffffff1673ffffffffffffffffffffffffffffffffffffffff1681526020019081526020016000205490506000600160008473ffffffffffffffffffffffffffffffffffffffff1673ffffffffffffffffffffffffffffffffffffffff16815260200190815260200160002081905550610d2d818373ffffffffffffffffffffffffffffffffffffffff16610d7f90919063ffffffff16565b8173ffffffffffffffffffffffffffffffffffffffff167f7084f5476618d8e60b11ef0d7d3f06914655adb8793e28ff7f018d4c76d505d582604051610d7391906115a0565b60405180910390a25050565b80471015610dc2576040517f08c379a0000000000000000000000000000000000000000000000000000000008152600401610db9906114e0565b60405180910390fd5b60008273ffffffffffffffffffffffffffffffffffffffff1682604051610de8906113ff565b60006040518083038185875af1925050503d8060008114610e25576040519150601f19603f3d011682016040523d82523d6000602084013e610e2a565b606091505b5050905080610e6e576040517f08c379a0000000000000000000000000000000000000000000000000000000008152600401610e65906114c0565b60405180910390fd5b505050565b610e7b610bf7565b73ffffffffffffffffffffffffffffffffffffffff16610e99610814565b73ffffffffffffffffffffffffffffffffffffffff1614610eef576040517f08c379a0000000000000000000000000000000000000000000000000000000008152600401610ee690611560565b60405180910390fd5b600034905080600160008473ffffffffffffffffffffffffffffffffffffffff1673ffffffffffffffffffffffffffffffffffffffff16815260200190815260200160002054610f3f91906115d7565b600160008473ffffffffffffffffffffffffffffffffffffffff1673ffffffffffffffffffffffffffffffffffffffff168152602001908152602001600020819055508173ffffffffffffffffffffffffffffffffffffffff167f2da466a7b24304f47e87fa2e1e5a81b9831ce54fec19055ce277ca2f39ba42c482604051610fc891906115a0565b60405180910390a25050565b600081359050610fe38161171e565b92915050565b600081359050610ff881611735565b92915050565b60006020828403121561101057600080fd5b600061101e84828501610fd4565b91505092915050565b60006020828403121561103957600080fd5b600061104784828501610fe9565b91505092915050565b6110598161163f565b82525050565b6110688161162d565b82525050565b61107781611651565b82525050565b6110868161169a565b82525050565b60006110996038836115c6565b91507f526566756e64457363726f773a2062656e65666963696172792063616e206f6e60008301527f6c79207769746864726177207768696c6520636c6f73656400000000000000006020830152604082019050919050565b60006110ff6026836115c6565b91507f4f776e61626c653a206e6577206f776e657220697320746865207a65726f206160008301527f64647265737300000000000000000000000000000000000000000000000000006020830152604082019050919050565b6000611165603a836115c6565b91507f416464726573733a20756e61626c6520746f2073656e642076616c75652c207260008301527f6563697069656e74206d617920686176652072657665727465640000000000006020830152604082019050919050565b60006111cb601d836115c6565b91507f416464726573733a20696e73756666696369656e742062616c616e63650000006000830152602082019050919050565b600061120b602b836115c6565b91507f526566756e64457363726f773a2063616e206f6e6c79206465706f736974207760008301527f68696c65206163746976650000000000000000000000000000000000000000006020830152604082019050919050565b60006112716033836115c6565b91507f436f6e646974696f6e616c457363726f773a207061796565206973206e6f742060008301527f616c6c6f77656420746f207769746864726177000000000000000000000000006020830152604082019050919050565b60006112d76029836115c6565b91507f526566756e64457363726f773a2063616e206f6e6c7920636c6f73652077686960008301527f6c652061637469766500000000000000000000000000000000000000000000006020830152604082019050919050565b600061133d6020836115c6565b91507f4f776e61626c653a2063616c6c6572206973206e6f7420746865206f776e65726000830152602082019050919050565b600061137d6000836115bb565b9150600082019050919050565b60006113976032836115c6565b91507f526566756e64457363726f773a2063616e206f6e6c7920656e61626c6520726560008301527f66756e6473207768696c652061637469766500000000000000000000000000006020830152604082019050919050565b6113f981611690565b82525050565b600061140a82611370565b9150819050919050565b6000602082019050611429600083018461105f565b92915050565b60006020820190506114446000830184611050565b92915050565b600060208201905061145f600083018461106e565b92915050565b600060208201905061147a600083018461107d565b92915050565b600060208201905081810360008301526114998161108c565b9050919050565b600060208201905081810360008301526114b9816110f2565b9050919050565b600060208201905081810360008301526114d981611158565b9050919050565b600060208201905081810360008301526114f9816111be565b9050919050565b60006020820190508181036000830152611519816111fe565b9050919050565b6000602082019050818103600083015261153981611264565b9050919050565b60006020820190508181036000830152611559816112ca565b9050919050565b6000602082019050818103600083015261157981611330565b9050919050565b600060208201905081810360008301526115998161138a565b9050919050565b60006020820190506115b560008301846113f0565b92915050565b600081905092915050565b600082825260208201905092915050565b60006115e282611690565b91506115ed83611690565b9250827fffffffffffffffffffffffffffffffffffffffffffffffffffffffffffffffff03821115611622576116216116ac565b5b828201905092915050565b600061163882611670565b9050919050565b600061164a82611670565b9050919050565b60008115159050919050565b600081905061166b8261170a565b919050565b600073ffffffffffffffffffffffffffffffffffffffff82169050919050565b6000819050919050565b60006116a58261165d565b9050919050565b7f4e487b7100000000000000000000000000000000000000000000000000000000600052601160045260246000fd5b7f4e487b7100000000000000000000000000000000000000000000000000000000600052602160045260246000fd5b6003811061171b5761171a6116db565b5b50565b6117278161162d565b811461173257600080fd5b50565b61173e8161163f565b811461174957600080fd5b5056fea264697066735822122078d3b2feccc4b4f33ca351bc6e8859bd4b8e9943dd6565520d837640b03983e564736f6c63430008000033a26469706673582212207c2da332a65de278d3a9dd5c55067463ecdfbe72bd54879e47cbc0a661dbe3e864736f6c63430008000033",
  "immutableReferences": {},
  "source": "// SPDX-License-Identifier: MIT\n\npragma solidity ^0.8.0;\n\nimport \"./WorkExchange.sol\";\nimport \"../user/UserSummary.sol\";\nimport \"../libraries/Evaluation.sol\";\nimport \"@openzeppelin/contracts/access/Ownable.sol\";\n\ncontract WorkRelationship is Ownable {\n    event WorkRelationshipCreated(address indexed _owner, address indexed relationship);\n    event WorkRelationshipEnded(address indexed owner, address indexed relationship);\n\n    // Status of the current contract\n    Evaluation.WorkRelationshipState public _contractStatus;\n    address public _workExchangeAddress;\n    string public _contractTaskName;\n    // Task solution pointer\n    string private _taskPointer = \"\";\n\n    constructor(string memory taskName) {\n        _contractTaskName = taskName;\n    }\n\n    function assignNewWorker(address payable newWorker, Evaluation.EvaluationState memory evaluationState, bool isTimeLocked) external onlyOwner {\n        bool passesEvaluation = checkWorkerEvaluation(newWorker, evaluationState);\n        require(passesEvaluation == true);\n\n        this.createWorkExchange(newWorker, isTimeLocked);\n        emit WorkRelationshipCreated(owner(), address(this));\n    }\n\n    function createWorkExchange(address payable workerBeneficiary, bool isTimeLocked) external onlyOwner {\n        WorkExchange workExchange = new WorkExchange(payable(owner()), workerBeneficiary, isTimeLocked);\n        _workExchangeAddress = address(workExchange);\n    }\n\n    function checkWorkerEvaluation(address workerUniversalAddress, Evaluation.EvaluationState memory evaluationState) internal returns(bool) {\n        bool passesEvaluation = UserSummary(workerUniversalAddress).evaluateUser(evaluationState);\n        return passesEvaluation;\n    }\n\n    function disableWorkRelationship() public onlyOwner {\n        require(_contractStatus == Evaluation.WorkRelationshipState.COMPLETED || _contractStatus == Evaluation.WorkRelationshipState.COMPLETED);\n        emit WorkRelationshipEnded(owner(), address(this));\n        //selfdestruct();\n    }\n\n    function updateTaskPointer(string memory newTaskPointerHash) external onlyOwner {\n        _taskPointer = newTaskPointerHash;\n    }\n\n    function getTaskPointer() view external returns(string memory) {\n        return _taskPointer;\n    }\n}",
  "sourcePath": "/Users/elijahhampton/git/opportunity-core/src/contracts/exchange/WorkRelationship.sol",
  "compiler": {
    "name": "solc",
    "version": "0.8.0+commit.c7dfd78e.Emscripten.clang"
  },
  "schemaVersion": "3.4.1",
  "updatedAt": "2021-05-18T01:40:24.375Z",
  "devdoc": {
    "kind": "dev",
    "methods": {
      "owner()": {
        "details": "Returns the address of the current owner."
      },
      "renounceOwnership()": {
        "details": "Leaves the contract without owner. It will not be possible to call `onlyOwner` functions anymore. Can only be called by the current owner. NOTE: Renouncing ownership will leave the contract without an owner, thereby removing any functionality that is only available to the owner."
      },
      "transferOwnership(address)": {
        "details": "Transfers ownership of the contract to a new account (`newOwner`). Can only be called by the current owner."
      }
    },
    "version": 1
  },
  "userdoc": {
    "kind": "user",
    "methods": {},
    "version": 1
  }
}