{
  "contractName": "WorkRelationship",
  "abi": [
    {
      "inputs": [
        {
          "internalType": "address",
          "name": "_owner",
          "type": "address"
        },
        {
          "internalType": "enum Evaluation.ContractType",
          "name": "_contractType",
          "type": "uint8"
        },
        {
          "internalType": "string",
          "name": "taskMetadataPointer",
          "type": "string"
        },
        {
          "internalType": "uint256",
          "name": "_wad",
          "type": "uint256"
        },
        {
          "internalType": "address",
          "name": "_daiTokenAddress",
          "type": "address"
        }
      ],
      "stateMutability": "payable",
      "type": "constructor",
      "payable": true
    },
    {
      "inputs": [],
      "name": "_contractStatus",
      "outputs": [
        {
          "internalType": "enum Evaluation.WorkRelationshipState",
          "name": "",
          "type": "uint8"
        }
      ],
      "stateMutability": "view",
      "type": "function",
      "constant": true
    },
    {
      "inputs": [],
      "name": "_taskMetadataPointer",
      "outputs": [
        {
          "internalType": "string",
          "name": "",
          "type": "string"
        }
      ],
      "stateMutability": "view",
      "type": "function",
      "constant": true
    },
    {
      "inputs": [],
      "name": "contractPayout",
      "outputs": [
        {
          "internalType": "uint256",
          "name": "",
          "type": "uint256"
        }
      ],
      "stateMutability": "view",
      "type": "function",
      "constant": true
    },
    {
      "inputs": [],
      "name": "contractType",
      "outputs": [
        {
          "internalType": "enum Evaluation.ContractType",
          "name": "",
          "type": "uint8"
        }
      ],
      "stateMutability": "view",
      "type": "function",
      "constant": true
    },
    {
      "inputs": [],
      "name": "owner",
      "outputs": [
        {
          "internalType": "address",
          "name": "",
          "type": "address"
        }
      ],
      "stateMutability": "view",
      "type": "function",
      "constant": true
    },
    {
      "inputs": [],
      "name": "workExchange",
      "outputs": [
        {
          "internalType": "address",
          "name": "",
          "type": "address"
        }
      ],
      "stateMutability": "view",
      "type": "function",
      "constant": true
    },
    {
      "inputs": [],
      "name": "worker",
      "outputs": [
        {
          "internalType": "address",
          "name": "",
          "type": "address"
        }
      ],
      "stateMutability": "view",
      "type": "function",
      "constant": true
    },
    {
      "inputs": [
        {
          "internalType": "address payable",
          "name": "_newWorker",
          "type": "address"
        },
        {
          "internalType": "uint256",
          "name": "_stakedReputation",
          "type": "uint256"
        }
      ],
      "name": "assignNewWorker",
      "outputs": [],
      "stateMutability": "nonpayable",
      "type": "function"
    },
    {
      "inputs": [],
      "name": "unAssignWorker",
      "outputs": [],
      "stateMutability": "nonpayable",
      "type": "function"
    },
    {
      "inputs": [
        {
          "internalType": "address",
          "name": "workerUniversalAddress",
          "type": "address"
        },
        {
          "components": [
            {
              "internalType": "string",
              "name": "industry",
              "type": "string"
            },
            {
              "internalType": "uint256",
              "name": "industrylevel",
              "type": "uint256"
            },
            {
              "internalType": "uint256",
              "name": "reputation",
              "type": "uint256"
            }
          ],
          "internalType": "struct Evaluation.EvaluationState",
          "name": "evaluationState",
          "type": "tuple"
        }
      ],
      "name": "checkWorkerEvaluation",
      "outputs": [
        {
          "internalType": "bool",
          "name": "",
          "type": "bool"
        }
      ],
      "stateMutability": "nonpayable",
      "type": "function"
    },
    {
      "inputs": [
        {
          "internalType": "string",
          "name": "newTaskPointerHash",
          "type": "string"
        }
      ],
      "name": "updateTaskMetadataPointer",
      "outputs": [],
      "stateMutability": "nonpayable",
      "type": "function"
    },
    {
      "inputs": [],
      "name": "getTaskSolutionPointer",
      "outputs": [
        {
          "internalType": "bytes32",
          "name": "",
          "type": "bytes32"
        }
      ],
      "stateMutability": "view",
      "type": "function",
      "constant": true
    },
    {
      "inputs": [
        {
          "internalType": "address",
          "name": "disputor",
          "type": "address"
        }
      ],
      "name": "submitDispute",
      "outputs": [],
      "stateMutability": "nonpayable",
      "type": "function"
    },
    {
      "inputs": [
        {
          "internalType": "bytes32",
          "name": "_submission",
          "type": "bytes32"
        },
        {
          "internalType": "uint8",
          "name": "_v",
          "type": "uint8"
        },
        {
          "internalType": "bytes32",
          "name": "_r",
          "type": "bytes32"
        },
        {
          "internalType": "bytes32",
          "name": "_s",
          "type": "bytes32"
        }
      ],
      "name": "submitWork",
      "outputs": [],
      "stateMutability": "nonpayable",
      "type": "function"
    },
    {
      "inputs": [
        {
          "internalType": "bool",
          "name": "_approved",
          "type": "bool"
        },
        {
          "internalType": "uint8",
          "name": "_v",
          "type": "uint8"
        },
        {
          "internalType": "bytes32",
          "name": "_r",
          "type": "bytes32"
        },
        {
          "internalType": "bytes32",
          "name": "_s",
          "type": "bytes32"
        }
      ],
      "name": "submitWorkEvaluation",
      "outputs": [],
      "stateMutability": "nonpayable",
      "type": "function"
    }
  ],
  "bytecode": "0x60c06040819052600060a08190526200001b916002916200019c565b506000600355604051620022593803806200225983398101604081905262000043916200026d565b81620000a95760405162461bcd60e51b815260206004820152602b60248201527f4d7573742073656e64206d6f7265207468616e20302064616920746f2074686960448201526a399031b7b73a3930b1ba1760a91b606482015260840160405180910390fd5b600180546001600160a01b0387166001600160a01b031991821617825560008054909116905560058054869261ff001990911690610100908490811115620000f557620000f5620003d0565b021790555060048290556005805460ff1916905582516200011e9060029060208601906200019c565b506001546040516000916001600160a01b0316908490849062000141906200022b565b6001600160a01b03938416815260208101929092529091166040820152606001604051809103906000f0801580156200017e573d6000803e3d6000fd5b5060601b6001600160601b03191660805250620003fc945050505050565b828054620001aa9062000393565b90600052602060002090601f016020900481019282620001ce576000855562000219565b82601f10620001e957805160ff191683800117855562000219565b8280016001018555821562000219579182015b8281111562000219578251825591602001919060010190620001fc565b506200022792915062000239565b5090565b610f6680620012f383390190565b5b808211156200022757600081556001016200023a565b80516001600160a01b03811681146200026857600080fd5b919050565b600080600080600060a086880312156200028657600080fd5b620002918662000250565b945060208087015160028110620002a757600080fd5b60408801519095506001600160401b0380821115620002c557600080fd5b818901915089601f830112620002da57600080fd5b815181811115620002ef57620002ef620003e6565b604051601f8201601f19908116603f011681019083821181831017156200031a576200031a620003e6565b816040528281528c868487010111156200033357600080fd5b600093505b8284101562000357578484018601518185018701529285019262000338565b82841115620003695760008684830101525b80985050505050505060608601519150620003876080870162000250565b90509295509295909350565b600181811c90821680620003a857607f821691505b60208210811415620003ca57634e487b7160e01b600052602260045260246000fd5b50919050565b634e487b7160e01b600052602160045260246000fd5b634e487b7160e01b600052604160045260246000fd5b60805160601c610eb66200043d6000396000818160ff015281816102cc015281816104a001528181610671015281816106e601526108b80152610eb66000f3fe608060405234801561001057600080fd5b50600436106100f55760003560e01c8063a7f7dca911610097578063df502c6b11610066578063df502c6b14610208578063e6e885931461021d578063ec3a47901461022a578063f74cc7011461023d57600080fd5b8063a7f7dca9146101c5578063cb2ef6f7146101ce578063d8a845cf146101ed578063dabd57a5146101f557600080fd5b80635db28c66116100d35780635db28c66146101665780638da5cb5b1461017c57806396d6d6961461018f5780639aed0c17146101b257600080fd5b80630f032a3f146100fa5780634d547ada1461013e5780635cdcf07514610151575b600080fd5b6101217f000000000000000000000000000000000000000000000000000000000000000081565b6040516001600160a01b0390911681526020015b60405180910390f35b600054610121906001600160a01b031681565b61016461015f366004610a5e565b610250565b005b61016e61032b565b604051908152602001610135565b600154610121906001600160a01b031681565b6101a261019d366004610aae565b610389565b6040519015158152602001610135565b6101646101c0366004610bbb565b610412565b61016e60045481565b6005546101e090610100900460ff1681565b6040516101359190610c63565b61016461050d565b610164610203366004610a82565b61058e565b610210610759565b6040516101359190610c76565b6005546101e09060ff1681565b610164610238366004610be1565b6107e7565b61016461024b366004610b77565b610860565b6000546001600160a01b031633146102835760405162461bcd60e51b815260040161027a90610d3c565b60405180910390fd5b6001546001600160a01b031633146102ad5760405162461bcd60e51b815260040161027a90610c89565b604051632ed9c42160e11b81526001600160a01b0382811660048301527f00000000000000000000000000000000000000000000000000000000000000001690635db3884290602401600060405180830381600087803b15801561031057600080fd5b505af1158015610324573d6000803e3d6000fd5b5050505050565b6001546000906001600160a01b031633146103585760405162461bcd60e51b815260040161027a90610c89565b6000546001600160a01b031633146103825760405162461bcd60e51b815260040161027a90610d3c565b5060035490565b600080836001600160a01b0316635d5f221f846040518263ffffffff1660e01b81526004016103b89190610d86565b602060405180830381600087803b1580156103d257600080fd5b505af11580156103e6573d6000803e3d6000fd5b505050506040513d601f19601f8201168201806040525081019061040a9190610b5a565b949350505050565b6000546001600160a01b0316331461043c5760405162461bcd60e51b815260040161027a90610d3c565b60018060055460ff16600181111561045657610456610e13565b146104735760405162461bcd60e51b815260040161027a90610cd2565b6040516353318a8760e01b81526004810186905260ff8516602482015260448101849052606481018390527f00000000000000000000000000000000000000000000000000000000000000006001600160a01b0316906353318a8790608401600060405180830381600087803b1580156104ec57600080fd5b505af1158015610500573d6000803e3d6000fd5b5050505061032485600355565b6000546001600160a01b031633146105375760405162461bcd60e51b815260040161027a90610d3c565b60018060055460ff16600181111561055157610551610e13565b1461056e5760405162461bcd60e51b815260040161027a90610cd2565b600080546001600160a01b03191690556005805460ff1916905550565b50565b6001546001600160a01b031633146105b85760405162461bcd60e51b815260040161027a90610c89565b6001600160a01b0382166106345760405162461bcd60e51b815260206004820152603760248201527f576f726b65722061646472657373206d757374206e6f7420626520302077686560448201527f6e2061737369676e696e67206e657720776f726b65722e000000000000000000606482015260840161027a565b600080546001600160a01b0319166001600160a01b0384811691821790925560405163089f591560e21b81526004810191909152602481018390527f00000000000000000000000000000000000000000000000000000000000000009091169063227d645490604401600060405180830381600087803b1580156106b757600080fd5b505af11580156106cb573d6000803e3d6000fd5b50506005805460ff1916600117905550506001600160a01b037f00000000000000000000000000000000000000000000000000000000000000001661071257610712610dfd565b6000546001600160a01b0383811691161461072f5761072f610dfd565b600160055460ff16600181111561074857610748610e13565b1461075557610755610dfd565b5050565b6002805461076690610dc2565b80601f016020809104026020016040519081016040528092919081815260200182805461079290610dc2565b80156107df5780601f106107b4576101008083540402835291602001916107df565b820191906000526020600020905b8154815290600101906020018083116107c257829003601f168201915b505050505081565b6001546001600160a01b031633146108115760405162461bcd60e51b815260040161027a90610c89565b60008060055460ff16600181111561082b5761082b610e13565b146108485760405162461bcd60e51b815260040161027a90610cd2565b815161085b906002906020850190610922565b505050565b6001546001600160a01b0316331461088a5760405162461bcd60e51b815260040161027a90610c89565b6040516325b0db0f60e01b8152841515600482015260ff8416602482015260448101839052606481018290527f00000000000000000000000000000000000000000000000000000000000000006001600160a01b0316906325b0db0f90608401600060405180830381600087803b15801561090457600080fd5b505af1158015610918573d6000803e3d6000fd5b5050505050505050565b82805461092e90610dc2565b90600052602060002090601f0160209004810192826109505760008555610996565b82601f1061096957805160ff1916838001178555610996565b82800160010185558215610996579182015b8281111561099657825182559160200191906001019061097b565b506109a29291506109a6565b5090565b5b808211156109a257600081556001016109a7565b600082601f8301126109cc57600080fd5b813567ffffffffffffffff808211156109e7576109e7610e29565b604051601f8301601f19908116603f01168101908282118183101715610a0f57610a0f610e29565b81604052838152866020858801011115610a2857600080fd5b836020870160208301376000602085830101528094505050505092915050565b803560ff81168114610a5957600080fd5b919050565b600060208284031215610a7057600080fd5b8135610a7b81610e5d565b9392505050565b60008060408385031215610a9557600080fd5b8235610aa081610e5d565b946020939093013593505050565b60008060408385031215610ac157600080fd5b8235610acc81610e5d565b9150602083013567ffffffffffffffff80821115610ae957600080fd5b9084019060608287031215610afd57600080fd5b604051606081018181108382111715610b1857610b18610e29565b604052823582811115610b2a57600080fd5b610b36888286016109bb565b82525060208301356020820152604083013560408201528093505050509250929050565b600060208284031215610b6c57600080fd5b8151610a7b81610e72565b60008060008060808587031215610b8d57600080fd5b8435610b9881610e72565b9350610ba660208601610a48565b93969395505050506040820135916060013590565b60008060008060808587031215610bd157600080fd5b84359350610ba660208601610a48565b600060208284031215610bf357600080fd5b813567ffffffffffffffff811115610c0a57600080fd5b61040a848285016109bb565b6000815180845260005b81811015610c3c57602081850181015186830182015201610c20565b81811115610c4e576000602083870101525b50601f01601f19169290920160200192915050565b60208101610c7083610e3f565b91905290565b602081526000610a7b6020830184610c16565b60208082526029908201527f576f726b52656c6174696f6e736869703a2063616c6c6572206973206e6f74206040820152683a34329037bbb732b960b91b606082015260800190565b60208082526044908201527f5468697320616374696f6e2063616e6e6f742062652063617272696564206f7560408201527f7420756e646572207468652063757272656e7420636f6e7472616374207374616060820152633a3ab99760e11b608082015260a00190565b6020808252602a908201527f576f726b52656c6174696f6e736869703a2063616c6c6572206973206e6f74206040820152693a3432903bb7b935b2b960b11b606082015260800190565b602081526000825160606020840152610da26080840182610c16565b905060208401516040840152604084015160608401528091505092915050565b600181811c90821680610dd657607f821691505b60208210811415610df757634e487b7160e01b600052602260045260246000fd5b50919050565b634e487b7160e01b600052600160045260246000fd5b634e487b7160e01b600052602160045260246000fd5b634e487b7160e01b600052604160045260246000fd5b6002811061058b57634e487b7160e01b600052602160045260246000fd5b6001600160a01b038116811461058b57600080fd5b801515811461058b57600080fdfea2646970667358221220ab7badf94f443706e25ab505adaace7ab0f7c488f9f1cc4cae6a596f5109036d64736f6c6343000807003360e060405234801561001057600080fd5b50604051610f66380380610f6683398101604081905261002f9161026a565b8282826001600160a01b0383166100a95760405162461bcd60e51b815260206004820152603360248201527f4465706f7369746f7220616464726573732063616e6e6f74206265203020776860448201527232b71031b932b0ba34b7339032b9b1b937bb9760691b60648201526084015b60405180910390fd5b6001600160a01b03811661011b5760405162461bcd60e51b815260206004820152603360248201527f44616920746f6b656e20616464726573732063616e6e6f74206265203020776860448201527232b71031b932b0ba34b7339032b9b1b937bb9760691b60648201526084016100a0565b604080518082018252600a81526944616920457363726f7760b01b6020918201528151808301835260018152603160f81b9082015281517f8b73c3c69bb8fe3d512ecc4cf759cc79239f7b179b0ffacaa9a75d522b39400f918101919091527f0bdbe35568d399a0401d60d11c76785045fec8c775dcb34589d4a0b9d540700d918101919091527fc89efdaa54c0f20c7adf612882df0950f5a951637e0307cdcb4c672f298b8bc660608201524660ff811660808301523060a08301529060c00160408051601f198184030181529190528051602090910120608052506001600160601b031960609390931b9290921660a05260c0526002805461010061ff00196001600160a01b0394909416620100000293909316610100600160b01b031990911617919091179055506102a6915050565b80516001600160a01b038116811461026557600080fd5b919050565b60008060006060848603121561027f57600080fd5b6102888461024e565b92506020840151915061029d6040850161024e565b90509250925092565b60805160a05160601c60c051610c56610310600039600081816101f20152610710015260008181610297015281816103ca01528181610667015281816106e801528181610797015261083101526000818161025e015281816104cf01526105cf0152610c566000f3fe608060405234801561001057600080fd5b50600436106101005760003560e01c80637df38c5b11610097578063bfce14ea11610066578063bfce14ea14610259578063c19d93fb14610280578063c7c4ff4614610292578063d8a43107146102b957600080fd5b80637df38c5b146101ed57806396118e4414610214578063b01dcb311461023b578063bad453cf1461024657600080fd5b80633c86f6f3116100d35780633c86f6f31461017b57806353318a87146101b05780635db38842146101c357806360d98201146101d457600080fd5b8063200d2ed214610105578063227d64541461012857806325b0db0f1461013d57806338af3eed14610150575b600080fd5b6002546101129060ff1681565b60405161011f9190610b51565b60405180910390f35b61013b6101363660046109f3565b6102d9565b005b61013b61014b366004610a1f565b6103c8565b600054610163906001600160a01b031681565b6040516001600160a01b03909116815260200161011f565b6101a27ffa5e0016fb62b8dffda8fd95249d438edcffd3689b40ac3b4281d4cf710609ae81565b60405190815260200161011f565b61013b6101be366004610a68565b610542565b61013b6101d13660046109cf565b50565b600254610100900460ff165b60405161011f9190610b37565b6101a27f000000000000000000000000000000000000000000000000000000000000000081565b6101a27f62b607caa4d4e7fcbd31bf4c033cd30888b536567fadc83710fdf15f8d5cfc9e81565b60025460ff16610112565b61013b610254366004610aa7565b61063a565b6101a27f000000000000000000000000000000000000000000000000000000000000000081565b6002546101e090610100900460ff1681565b6101637f000000000000000000000000000000000000000000000000000000000000000081565b6101a26102c73660046109cf565b60016020526000908152604090205481565b60008060025460ff1660038111156102f3576102f3610bf5565b146103195760405162461bcd60e51b815260040161031090610b65565b60405180910390fd5b6001600160a01b0383166103955760405162461bcd60e51b815260206004820152603f60248201527f42656e65666963696172792063616e6e6f74206265203078206164647265737360448201527f207768656e2061737369676e696e67206e65772062656e6566696369617279006064820152608401610310565b600080546001600160a01b0319166001600160a01b038516179055600280546001919060ff191682800217905550505050565b7f00000000000000000000000000000000000000000000000000000000000000006001600160a01b031633146104405760405162461bcd60e51b815260206004820181905260248201527f4f776e65722063616e206f6e6c79207265736f6c766520636f6e74726163742e6044820152606401610310565b60028060025460ff16600381111561045a5761045a610bf5565b146104775760405162461bcd60e51b815260040161031090610b65565b604080517ffa5e0016fb62b8dffda8fd95249d438edcffd3689b40ac3b4281d4cf710609ae602080830191909152871580158385015283518084038501815260608401855280519083012061190160f01b60808501527f0000000000000000000000000000000000000000000000000000000000000000608285015260a2808501919091528451808503909101815260c29093019093528151910120906105255761052061082f565b61053a565b600280546001919060ff191682805b02179055505b505050505050565b60018060025460ff16600381111561055c5761055c610bf5565b146105795760405162461bcd60e51b815260040161031090610b65565b604080517f62b607caa4d4e7fcbd31bf4c033cd30888b536567fadc83710fdf15f8d5cfc9e60208083019190915281830188905282518083038401815260608301845280519082012061190160f01b60808401527f0000000000000000000000000000000000000000000000000000000000000000608284015260a2808401919091528351808403909101815260c290920190925280519101206000546001600160a01b031661062857600080fd5b60028054819060ff1916600182610534565b6002546040516323f2ebc360e21b8152620100009091046001600160a01b031690638fcbaf0c9061069e907f00000000000000000000000000000000000000000000000000000000000000009030908a908a906001908b908b908b90600401610aee565b600060405180830381600087803b1580156106b857600080fd5b505af11580156106cc573d6000803e3d6000fd5b505060025460405163f2d5d56b60e01b81526001600160a01b037f0000000000000000000000000000000000000000000000000000000000000000811660048301527f0000000000000000000000000000000000000000000000000000000000000000602483015262010000909204909116925063f2d5d56b9150604401600060405180830381600087803b15801561076457600080fd5b505af1158015610778573d6000803e3d6000fd5b50506002546201000090046001600160a01b03169150638fcbaf0c90507f0000000000000000000000000000000000000000000000000000000000000000306107c2896001610bcf565b8860008989896040518963ffffffff1660e01b81526004016107eb989796959493929190610aee565b600060405180830381600087803b15801561080557600080fd5b505af1158015610819573d6000803e3d6000fd5b50506002805461ffff1916905550505050505050565b7f00000000000000000000000000000000000000000000000000000000000000006001600160a01b031633146108a75760405162461bcd60e51b815260206004820181905260248201527f4f776e65722063616e206f6e6c79207265736f6c766520636f6e74726163742e6044820152606401610310565b6000546001600160a01b03166108bc57600080fd5b6002546000546040516370a0823160e01b81523060048201526001600160a01b036201000090930483169263b753a98c92169083906370a082319060240160206040518083038186803b15801561091257600080fd5b505afa158015610926573d6000803e3d6000fd5b505050506040513d601f19601f8201168201806040525081019061094a9190610a8e565b6040516001600160e01b031960e085901b1681526001600160a01b0390921660048301526024820152604401600060405180830381600087803b15801561099057600080fd5b505af11580156109a4573d6000803e3d6000fd5b50506002805461ffff19166102031790555050565b803560ff811681146109ca57600080fd5b919050565b6000602082840312156109e157600080fd5b81356109ec81610c0b565b9392505050565b60008060408385031215610a0657600080fd5b8235610a1181610c0b565b946020939093013593505050565b60008060008060808587031215610a3557600080fd5b84358015158114610a4557600080fd5b9350610a53602086016109b9565b93969395505050506040820135916060013590565b60008060008060808587031215610a7e57600080fd5b84359350610a53602086016109b9565b600060208284031215610aa057600080fd5b5051919050565b600080600080600060a08688031215610abf57600080fd5b8535945060208601359350610ad6604087016109b9565b94979396509394606081013594506080013592915050565b6001600160a01b039889168152969097166020870152604086019490945260608501929092521515608084015260ff1660a083015260c082015260e08101919091526101000190565b6020810160038310610b4b57610b4b610bf5565b91905290565b6020810160048310610b4b57610b4b610bf5565b60208082526044908201527f43616e6e6f7420696e766f6b65207468697320657363726f772066756e63746960408201527f6f6e2077697468207468652063757272656e7420636f6e7472616374207374616060820152633a3ab99760e11b608082015260a00190565b60008219821115610bf057634e487b7160e01b600052601160045260246000fd5b500190565b634e487b7160e01b600052602160045260246000fd5b6001600160a01b03811681146101d157600080fdfea2646970667358221220fa00172cbfaadb4fed3ecbd8d1f0f8ad99e0e6e1395df8e517abb77dbd2d895d64736f6c63430008070033",
  "immutableReferences": {
    "898": [
      {
        "length": 32,
        "start": 255
      },
      {
        "length": 32,
        "start": 716
      },
      {
        "length": 32,
        "start": 1184
      },
      {
        "length": 32,
        "start": 1649
      },
      {
        "length": 32,
        "start": 1766
      },
      {
        "length": 32,
        "start": 2232
      }
    ]
  },
  "source": "// SPDX-License-Identifier: MIT\n\npragma solidity 0.8.7;\n\nimport \"../user/UserSummary.sol\";\nimport \"./WorkExchange.sol\";\nimport \"../libraries/Evaluation.sol\";\n\ncontract WorkRelationship {\n\n    address public worker;\n    address public owner;\n    address public immutable workExchange;\n\n    string public _taskMetadataPointer = \"\";\n    bytes32 private _taskSolutionPointer = \"\";\n\n    uint public contractPayout;\n\n    Evaluation.WorkRelationshipState public _contractStatus;\n    Evaluation.ContractType public contractType;\n\n    modifier onlyWorker() \n    {\n        require(\n            worker == msg.sender,\n            \"WorkRelationship: caller is not the worker\"\n        );\n        _;\n    }\n\n    /**\n     * @dev Throws if called by any account other than the owner.\n     */\n    modifier onlyOwner() \n    {\n        require(\n            owner == msg.sender,\n            \"WorkRelationship: caller is not the owner\"\n        );\n        _;\n    }\n\n    modifier onlyWhenState(Evaluation.WorkRelationshipState status) \n    {\n        require(_contractStatus == status, \"This action cannot be carried out under the current contract status.\");\n        _;\n    }\n\n    modifier onlyWhenType(Evaluation.ContractType currentContractType) \n    {\n        require(contractType == currentContractType, \"This action cannot be carried out under this contract type\");\n        _;\n    }\n\n     constructor(\n        address _owner, \n        Evaluation.ContractType _contractType, \n        string memory taskMetadataPointer, \n        uint256 _wad,\n        address _daiTokenAddress\n        ) payable { \n        require(_wad != 0, \"Must send more than 0 dai to this contract.\");\n        owner = _owner;\n        worker = address(0);\n        contractType = _contractType;\n        contractPayout = _wad;\n        _contractStatus = Evaluation.WorkRelationshipState.UNCLAIMED;\n        _taskMetadataPointer = taskMetadataPointer;\n\n        WorkExchange workExchangeContract = new WorkExchange(\n            owner, \n            _wad, \n            _daiTokenAddress);\n        \n        workExchange = address(workExchangeContract);\n    }\n\n    function assignNewWorker(\n        address payable _newWorker, \n        uint256 _stakedReputation\n        ) \n        external \n        onlyOwner\n    {\n        require(_newWorker != address(0), \"Worker address must not be 0 when assigning new worker.\");\n\n        worker = _newWorker;\n        WorkExchange(workExchange).assignNewBeneficiary(_newWorker, _stakedReputation);\n        _contractStatus = Evaluation.WorkRelationshipState.CLAIMED;\n\n        assert(workExchange != address(0));\n        assert(worker == _newWorker);\n        assert(_contractStatus == Evaluation.WorkRelationshipState.CLAIMED);\n    }\n\n    function unAssignWorker() external onlyWorker onlyWhenState(Evaluation.WorkRelationshipState.CLAIMED)\n    {\n        worker = address(0);\n        _contractStatus = Evaluation.WorkRelationshipState.UNCLAIMED;\n\n        assert(worker == address(0));\n        assert(_contractStatus == Evaluation.WorkRelationshipState.UNCLAIMED);\n    }\n\n    function checkWorkerEvaluation(\n        address workerUniversalAddress,\n        Evaluation.EvaluationState memory evaluationState\n        ) \n        external returns (bool) \n    {\n        bool passesEvaluation = UserSummary(workerUniversalAddress)\n        .evaluateUser(evaluationState);\n        return passesEvaluation;\n    }\n\n    function updateTaskMetadataPointer(string memory newTaskPointerHash)\n        external\n        onlyOwner\n        onlyWhenState(Evaluation.WorkRelationshipState.UNCLAIMED)\n    {\n        _taskMetadataPointer = newTaskPointerHash;\n    }\n\n    function updateTaskSolutionPointer(bytes32 newTaskPointerHash)\n        internal\n    {\n        _taskSolutionPointer = newTaskPointerHash;\n    }\n\n    function getTaskSolutionPointer()\n        external\n        view\n        onlyOwner\n        onlyWorker\n        returns (bytes32)\n    {\n        return _taskSolutionPointer;\n    }\n    \n    function submitDispute(address disputor) \n        external \n        onlyWorker \n        onlyOwner \n    {\n        WorkExchange(workExchange).disputeFunds(disputor);\n    }\n\n    function submitWork(\n        bytes32 _submission,\n        uint8 _v,\n        bytes32 _r,\n        bytes32 _s) \n        onlyWorker \n        onlyWhenState(Evaluation.WorkRelationshipState.CLAIMED)\n        external \n    {\n        WorkExchange(workExchange).submit(_submission, _v, _r, _s);\n        updateTaskSolutionPointer(_submission);\n    }\n\n    function submitWorkEvaluation(\n        bool _approved,\n        uint8 _v,\n        bytes32 _r,\n        bytes32 _s\n        ) \n        onlyOwner \n        external \n    {\n        WorkExchange(workExchange).review(_approved, _v, _r, _s);\n    }\n}\n",
  "sourcePath": "/Users/elijahhampton/Desktop/opportunity-core/src/contracts/exchange/WorkRelationship.sol",
  "compiler": {
    "name": "solc",
    "version": "0.8.7+commit.e28d00a7.Emscripten.clang"
  },
  "schemaVersion": "3.4.3",
  "updatedAt": "2021-10-10T17:41:15.060Z",
  "networkType": "ethereum",
  "devdoc": {
    "kind": "dev",
    "methods": {},
    "version": 1
  },
  "userdoc": {
    "kind": "user",
    "methods": {},
    "version": 1
  }
}