{
  "contractName": "WorkRelationship",
  "abi": [
    {
      "inputs": [
        {
          "internalType": "address",
          "name": "jobRequester",
          "type": "address"
        },
        {
          "internalType": "string",
          "name": "taskMetadataPointer",
          "type": "string"
        }
      ],
      "stateMutability": "payable",
      "type": "constructor"
    },
    {
      "inputs": [],
      "name": "_contractStatus",
      "outputs": [
        {
          "internalType": "enum Evaluation.WorkRelationshipState",
          "name": "",
          "type": "uint8"
        }
      ],
      "stateMutability": "view",
      "type": "function"
    },
    {
      "inputs": [],
      "name": "_taskMetadataPointer",
      "outputs": [
        {
          "internalType": "string",
          "name": "",
          "type": "string"
        }
      ],
      "stateMutability": "view",
      "type": "function"
    },
    {
      "inputs": [],
      "name": "_workExchangeAddress",
      "outputs": [
        {
          "internalType": "address",
          "name": "",
          "type": "address"
        }
      ],
      "stateMutability": "view",
      "type": "function"
    },
    {
      "inputs": [],
      "name": "_workerAddress",
      "outputs": [
        {
          "internalType": "address",
          "name": "",
          "type": "address"
        }
      ],
      "stateMutability": "view",
      "type": "function"
    },
    {
      "inputs": [],
      "name": "owner",
      "outputs": [
        {
          "internalType": "address",
          "name": "",
          "type": "address"
        }
      ],
      "stateMutability": "view",
      "type": "function"
    },
    {
      "inputs": [
        {
          "internalType": "address",
          "name": "workerAddress",
          "type": "address"
        }
      ],
      "name": "acceptJob",
      "outputs": [],
      "stateMutability": "payable",
      "type": "function"
    },
    {
      "inputs": [
        {
          "internalType": "address",
          "name": "workerUniversalAddress",
          "type": "address"
        },
        {
          "components": [
            {
              "internalType": "string",
              "name": "industry",
              "type": "string"
            },
            {
              "internalType": "uint256",
              "name": "industrylevel",
              "type": "uint256"
            },
            {
              "internalType": "uint256",
              "name": "reputation",
              "type": "uint256"
            }
          ],
          "internalType": "struct Evaluation.EvaluationState",
          "name": "evaluationState",
          "type": "tuple"
        }
      ],
      "name": "checkWorkerEvaluation",
      "outputs": [
        {
          "internalType": "bool",
          "name": "",
          "type": "bool"
        }
      ],
      "stateMutability": "nonpayable",
      "type": "function"
    },
    {
      "inputs": [
        {
          "internalType": "string",
          "name": "newTaskPointerHash",
          "type": "string"
        }
      ],
      "name": "updateTaskMetadataPointer",
      "outputs": [],
      "stateMutability": "nonpayable",
      "type": "function"
    },
    {
      "inputs": [
        {
          "internalType": "string",
          "name": "newTaskPointerHash",
          "type": "string"
        }
      ],
      "name": "updateTaskSolutionPointer",
      "outputs": [],
      "stateMutability": "nonpayable",
      "type": "function"
    },
    {
      "inputs": [],
      "name": "getTaskSolutionPointer",
      "outputs": [
        {
          "internalType": "string",
          "name": "",
          "type": "string"
        }
      ],
      "stateMutability": "view",
      "type": "function"
    }
  ],
  "bytecode": "0x608060405260405180602001604052806000815250600390805190602001906200002b92919062000168565b5060405180602001604052806000815250600490805190602001906200005392919062000168565b50604051620013f6380380620013f68339818101604052810190620000799190620002a1565b600073ffffffffffffffffffffffffffffffffffffffff168273ffffffffffffffffffffffffffffffffffffffff161415620000b457600080fd5b81600260006101000a81548173ffffffffffffffffffffffffffffffffffffffff021916908373ffffffffffffffffffffffffffffffffffffffff1602179055506000600560006101000a81548160ff0219169083600681111562000142577f4e487b7100000000000000000000000000000000000000000000000000000000600052602160045260246000fd5b021790555080600390805190602001906200015f92919062000168565b505050620004b9565b8280546200017690620003c4565b90600052602060002090601f0160209004810192826200019a5760008555620001e6565b82601f10620001b557805160ff1916838001178555620001e6565b82800160010185558215620001e6579182015b82811115620001e5578251825591602001919060010190620001c8565b5b509050620001f59190620001f9565b5090565b5b8082111562000214576000816000905550600101620001fa565b5090565b60006200022f620002298462000324565b620002fb565b9050828152602081018484840111156200024857600080fd5b620002558482856200038e565b509392505050565b6000815190506200026e816200049f565b92915050565b600082601f8301126200028657600080fd5b81516200029884826020860162000218565b91505092915050565b60008060408385031215620002b557600080fd5b6000620002c5858286016200025d565b925050602083015167ffffffffffffffff811115620002e357600080fd5b620002f18582860162000274565b9150509250929050565b6000620003076200031a565b9050620003158282620003fa565b919050565b6000604051905090565b600067ffffffffffffffff8211156200034257620003416200045f565b5b6200034d826200048e565b9050602081019050919050565b600062000367826200036e565b9050919050565b600073ffffffffffffffffffffffffffffffffffffffff82169050919050565b60005b83811015620003ae57808201518184015260208101905062000391565b83811115620003be576000848401525b50505050565b60006002820490506001821680620003dd57607f821691505b60208210811415620003f457620003f362000430565b5b50919050565b62000405826200048e565b810181811067ffffffffffffffff821117156200042757620004266200045f565b5b80604052505050565b7f4e487b7100000000000000000000000000000000000000000000000000000000600052602260045260246000fd5b7f4e487b7100000000000000000000000000000000000000000000000000000000600052604160045260246000fd5b6000601f19601f8301169050919050565b620004aa816200035a565b8114620004b657600080fd5b50565b610f2d80620004c96000396000f3fe6080604052600436106100915760003560e01c8063cb18368711610059578063cb1836871461017d578063df502c6b14610199578063e6e88593146101c4578063ec3a4790146101ef578063eebc6e3d1461021857610091565b806335e92819146100965780635db28c66146100bf5780637843c0e4146100ea5780638da5cb5b1461011557806396d6d69614610140575b600080fd5b3480156100a257600080fd5b506100bd60048036038101906100b89190610973565b610243565b005b3480156100cb57600080fd5b506100d46102ed565b6040516100e19190610b49565b60405180910390f35b3480156100f657600080fd5b506100ff6103f4565b60405161010c9190610af8565b60405180910390f35b34801561012157600080fd5b5061012a61041a565b6040516101379190610af8565b60405180910390f35b34801561014c57600080fd5b50610167600480360381019061016291906108f6565b610444565b6040516101749190610b13565b60405180910390f35b610197600480360381019061019291906108cd565b6104de565b005b3480156101a557600080fd5b506101ae610522565b6040516101bb9190610b49565b60405180910390f35b3480156101d057600080fd5b506101d96105b0565b6040516101e69190610b2e565b60405180910390f35b3480156101fb57600080fd5b5061021660048036038101906102119190610973565b6105c3565b005b34801561022457600080fd5b5061022d610652565b60405161023a9190610af8565b60405180910390f35b600160009054906101000a900473ffffffffffffffffffffffffffffffffffffffff1673ffffffffffffffffffffffffffffffffffffffff163373ffffffffffffffffffffffffffffffffffffffff16146102d3576040517f08c379a00000000000000000000000000000000000000000000000000000000081526004016102ca90610b8b565b60405180910390fd5b80600490805190602001906102e992919061070b565b5050565b60603373ffffffffffffffffffffffffffffffffffffffff1661030e61041a565b73ffffffffffffffffffffffffffffffffffffffff1614610364576040517f08c379a000000000000000000000000000000000000000000000000000000000815260040161035b90610b6b565b60405180910390fd5b6004805461037190610cff565b80601f016020809104026020016040519081016040528092919081815260200182805461039d90610cff565b80156103ea5780601f106103bf576101008083540402835291602001916103ea565b820191906000526020600020905b8154815290600101906020018083116103cd57829003601f168201915b5050505050905090565b600160009054906101000a900473ffffffffffffffffffffffffffffffffffffffff1681565b6000600260009054906101000a900473ffffffffffffffffffffffffffffffffffffffff16905090565b6000808373ffffffffffffffffffffffffffffffffffffffff16635d5f221f846040518263ffffffff1660e01b81526004016104809190610bab565b602060405180830381600087803b15801561049a57600080fd5b505af11580156104ae573d6000803e3d6000fd5b505050506040513d601f19601f820116820180604052508101906104d2919061094a565b90508091505092915050565b8073ffffffffffffffffffffffffffffffffffffffff163373ffffffffffffffffffffffffffffffffffffffff161461051657600080fd5b61051f81610676565b50565b6003805461052f90610cff565b80601f016020809104026020016040519081016040528092919081815260200182805461055b90610cff565b80156105a85780601f1061057d576101008083540402835291602001916105a8565b820191906000526020600020905b81548152906001019060200180831161058b57829003601f168201915b505050505081565b600560009054906101000a900460ff1681565b3373ffffffffffffffffffffffffffffffffffffffff166105e261041a565b73ffffffffffffffffffffffffffffffffffffffff1614610638576040517f08c379a000000000000000000000000000000000000000000000000000000000815260040161062f90610b6b565b60405180910390fd5b806003908051906020019061064e92919061070b565b5050565b60008054906101000a900473ffffffffffffffffffffffffffffffffffffffff1681565b80600160006101000a81548173ffffffffffffffffffffffffffffffffffffffff021916908373ffffffffffffffffffffffffffffffffffffffff1602179055506006600560006101000a81548160ff02191690836006811115610703577f4e487b7100000000000000000000000000000000000000000000000000000000600052602160045260246000fd5b021790555050565b82805461071790610cff565b90600052602060002090601f0160209004810192826107395760008555610780565b82601f1061075257805160ff1916838001178555610780565b82800160010185558215610780579182015b8281111561077f578251825591602001919060010190610764565b5b50905061078d9190610791565b5090565b5b808211156107aa576000816000905550600101610792565b5090565b60006107c16107bc84610bf2565b610bcd565b9050828152602081018484840111156107d957600080fd5b6107e4848285610cbd565b509392505050565b6000813590506107fb81610eb2565b92915050565b60008151905061081081610ec9565b92915050565b600082601f83011261082757600080fd5b81356108378482602086016107ae565b91505092915050565b60006060828403121561085257600080fd5b61085c6060610bcd565b9050600082013567ffffffffffffffff81111561087857600080fd5b61088484828501610816565b6000830152506020610898848285016108b8565b60208301525060406108ac848285016108b8565b60408301525092915050565b6000813590506108c781610ee0565b92915050565b6000602082840312156108df57600080fd5b60006108ed848285016107ec565b91505092915050565b6000806040838503121561090957600080fd5b6000610917858286016107ec565b925050602083013567ffffffffffffffff81111561093457600080fd5b61094085828601610840565b9150509250929050565b60006020828403121561095c57600080fd5b600061096a84828501610801565b91505092915050565b60006020828403121561098557600080fd5b600082013567ffffffffffffffff81111561099f57600080fd5b6109ab84828501610816565b91505092915050565b6109bd81610c50565b82525050565b6109cc81610c62565b82525050565b6109db81610cab565b82525050565b60006109ec82610c23565b6109f68185610c2e565b9350610a06818560208601610ccc565b610a0f81610def565b840191505092915050565b6000610a2582610c23565b610a2f8185610c3f565b9350610a3f818560208601610ccc565b610a4881610def565b840191505092915050565b6000610a60602983610c3f565b9150610a6b82610e00565b604082019050919050565b6000610a83602a83610c3f565b9150610a8e82610e4f565b604082019050919050565b60006060830160008301518482036000860152610ab682826109e1565b9150506020830151610acb6020860182610ae9565b506040830151610ade6040860182610ae9565b508091505092915050565b610af281610ca1565b82525050565b6000602082019050610b0d60008301846109b4565b92915050565b6000602082019050610b2860008301846109c3565b92915050565b6000602082019050610b4360008301846109d2565b92915050565b60006020820190508181036000830152610b638184610a1a565b905092915050565b60006020820190508181036000830152610b8481610a53565b9050919050565b60006020820190508181036000830152610ba481610a76565b9050919050565b60006020820190508181036000830152610bc58184610a99565b905092915050565b6000610bd7610be8565b9050610be38282610d31565b919050565b6000604051905090565b600067ffffffffffffffff821115610c0d57610c0c610dc0565b5b610c1682610def565b9050602081019050919050565b600081519050919050565b600082825260208201905092915050565b600082825260208201905092915050565b6000610c5b82610c81565b9050919050565b60008115159050919050565b6000819050610c7c82610e9e565b919050565b600073ffffffffffffffffffffffffffffffffffffffff82169050919050565b6000819050919050565b6000610cb682610c6e565b9050919050565b82818337600083830152505050565b60005b83811015610cea578082015181840152602081019050610ccf565b83811115610cf9576000848401525b50505050565b60006002820490506001821680610d1757607f821691505b60208210811415610d2b57610d2a610d91565b5b50919050565b610d3a82610def565b810181811067ffffffffffffffff82111715610d5957610d58610dc0565b5b80604052505050565b7f4e487b7100000000000000000000000000000000000000000000000000000000600052602160045260246000fd5b7f4e487b7100000000000000000000000000000000000000000000000000000000600052602260045260246000fd5b7f4e487b7100000000000000000000000000000000000000000000000000000000600052604160045260246000fd5b6000601f19601f8301169050919050565b7f576f726b52656c6174696f6e736869703a2063616c6c6572206973206e6f742060008201527f746865206f776e65720000000000000000000000000000000000000000000000602082015250565b7f576f726b52656c6174696f6e736869703a2063616c6c6572206973206e6f742060008201527f74686520776f726b657200000000000000000000000000000000000000000000602082015250565b60078110610eaf57610eae610d62565b5b50565b610ebb81610c50565b8114610ec657600080fd5b50565b610ed281610c62565b8114610edd57600080fd5b50565b610ee981610ca1565b8114610ef457600080fd5b5056fea2646970667358221220186d053c323df4e8b97f7db36bad729960634e9b2a1f94151201340e6db5d7c264736f6c63430008040033",
  "immutableReferences": {},
  "source": "// SPDX-License-Identifier: MIT\n\npragma solidity 0.8.4;\n\nimport \"../user/UserSummary.sol\";\nimport \"../libraries/Evaluation.sol\";\nimport \"../reputation/Tip.sol\";\n\ncontract WorkRelationship {\n\n    address public _workExchangeAddress;\n    address public _workerAddress;\n    address private _owner;\n\n    string public _taskMetadataPointer = \"\";\n    string private _taskSolutionPointer = \"\";\n\n    Evaluation.WorkRelationshipState public _contractStatus;\n\n    modifier onlyWorker() {\n        require(\n            msg.sender == _workerAddress,\n            \"WorkRelationship: caller is not the worker\"\n        );\n        _;\n    }\n\n    /**\n     * @dev Throws if called by any account other than the owner.\n     */\n    modifier onlyOwner() {\n        require(\n            owner() == msg.sender,\n            \"WorkRelationship: caller is not the owner\"\n        );\n        _;\n    }\n\n    constructor(address jobRequester, string memory taskMetadataPointer) public payable {\n        require(jobRequester != address(0));\n        _owner = jobRequester;\n        _contractStatus = Evaluation.WorkRelationshipState.UNCLAIMED;\n        _taskMetadataPointer = taskMetadataPointer;\n    }\n\n    /**\n     * @dev Returns the address of the current owner.\n     */\n    function owner() public view returns (address) {\n        return _owner;\n    }\n\n    function acceptJob(address workerAddress) payable external {\n       // require(msg.value >= 1); //Require that TIP is above a certain amount (reputation)\n        require(msg.sender == workerAddress);\n\n        //perform polygon transfer to hold workers stake of REP\n\n        //assign new worker\n        assignNewWorker(workerAddress);\n    }\n\n    function assignNewWorker(\n        address newWorker\n    ) internal {\n        _workerAddress = newWorker;\n        _contractStatus = Evaluation.WorkRelationshipState.CLAIMED;\n    }\n\n    function checkWorkerEvaluation(\n        address workerUniversalAddress,\n        Evaluation.EvaluationState memory evaluationState\n    ) external returns (bool) {\n        bool passesEvaluation =\n            UserSummary(workerUniversalAddress).evaluateUser(evaluationState);\n        return passesEvaluation;\n    }\n\n    function updateTaskMetadataPointer(string memory newTaskPointerHash)\n        external\n        onlyOwner\n    {\n        _taskMetadataPointer = newTaskPointerHash;\n    }\n\n    function updateTaskSolutionPointer(string memory newTaskPointerHash)\n        external\n        onlyWorker\n    {\n        _taskSolutionPointer = newTaskPointerHash;\n    }\n\n    function getTaskSolutionPointer()\n        external\n        view\n        onlyOwner\n        returns (string memory)\n    {\n        return _taskSolutionPointer;\n    }\n}\n",
  "sourcePath": "/Users/elijahhampton/Desktop/opportunity-core/src/contracts/exchange/WorkRelationship.sol",
  "compiler": {
    "name": "solc",
    "version": "0.8.4+commit.c7e474f2.Emscripten.clang"
  },
  "schemaVersion": "3.4.1",
  "updatedAt": "2021-07-02T21:23:39.955Z",
  "networkType": "ethereum",
  "devdoc": {
    "kind": "dev",
    "methods": {
      "owner()": {
        "details": "Returns the address of the current owner."
      }
    },
    "version": 1
  },
  "userdoc": {
    "kind": "user",
    "methods": {},
    "version": 1
  }
}