{
  "contractName": "WorkRelationship",
  "abi": [
    {
      "inputs": [
        {
          "internalType": "address",
          "name": "jobRequester",
          "type": "address"
        },
        {
          "internalType": "string",
          "name": "taskMetadataPointer",
          "type": "string"
        }
      ],
      "stateMutability": "nonpayable",
      "type": "constructor"
    },
    {
      "inputs": [],
      "name": "_contractStatus",
      "outputs": [
        {
          "internalType": "enum Evaluation.WorkRelationshipState",
          "name": "",
          "type": "uint8"
        }
      ],
      "stateMutability": "view",
      "type": "function"
    },
    {
      "inputs": [],
      "name": "_taskMetadataPointer",
      "outputs": [
        {
          "internalType": "string",
          "name": "",
          "type": "string"
        }
      ],
      "stateMutability": "view",
      "type": "function"
    },
    {
      "inputs": [],
      "name": "_workExchangeAddress",
      "outputs": [
        {
          "internalType": "address",
          "name": "",
          "type": "address"
        }
      ],
      "stateMutability": "view",
      "type": "function"
    },
    {
      "inputs": [],
      "name": "_workerAddress",
      "outputs": [
        {
          "internalType": "address",
          "name": "",
          "type": "address"
        }
      ],
      "stateMutability": "view",
      "type": "function"
    },
    {
      "inputs": [],
      "name": "owner",
      "outputs": [
        {
          "internalType": "address",
          "name": "",
          "type": "address"
        }
      ],
      "stateMutability": "view",
      "type": "function"
    },
    {
      "inputs": [
        {
          "internalType": "address",
          "name": "newWorker",
          "type": "address"
        },
        {
          "components": [
            {
              "internalType": "string",
              "name": "industry",
              "type": "string"
            },
            {
              "internalType": "uint256",
              "name": "industrylevel",
              "type": "uint256"
            },
            {
              "internalType": "uint256",
              "name": "reputation",
              "type": "uint256"
            }
          ],
          "internalType": "struct Evaluation.EvaluationState",
          "name": "evaluationState",
          "type": "tuple"
        }
      ],
      "name": "assignNewWorker",
      "outputs": [],
      "stateMutability": "nonpayable",
      "type": "function"
    },
    {
      "inputs": [
        {
          "internalType": "string",
          "name": "newTaskPointerHash",
          "type": "string"
        }
      ],
      "name": "updateTaskMetadataPointer",
      "outputs": [],
      "stateMutability": "nonpayable",
      "type": "function"
    },
    {
      "inputs": [
        {
          "internalType": "string",
          "name": "newTaskPointerHash",
          "type": "string"
        }
      ],
      "name": "updateTaskSolutionPointer",
      "outputs": [],
      "stateMutability": "nonpayable",
      "type": "function"
    },
    {
      "inputs": [],
      "name": "getTaskSolutionPointer",
      "outputs": [
        {
          "internalType": "string",
          "name": "",
          "type": "string"
        }
      ],
      "stateMutability": "view",
      "type": "function"
    }
  ],
  "bytecode": "0x608060405260405180602001604052806000815250600390805190602001906200002b92919062000176565b5060405180602001604052806000815250600490805190602001906200005392919062000176565b503480156200006157600080fd5b506040516200130f3803806200130f8339818101604052810190620000879190620002af565b600073ffffffffffffffffffffffffffffffffffffffff168273ffffffffffffffffffffffffffffffffffffffff161415620000c257600080fd5b81600260006101000a81548173ffffffffffffffffffffffffffffffffffffffff021916908373ffffffffffffffffffffffffffffffffffffffff1602179055506000600560006101000a81548160ff0219169083600681111562000150577f4e487b7100000000000000000000000000000000000000000000000000000000600052602160045260246000fd5b021790555080600390805190602001906200016d92919062000176565b505050620004c7565b8280546200018490620003d2565b90600052602060002090601f016020900481019282620001a85760008555620001f4565b82601f10620001c357805160ff1916838001178555620001f4565b82800160010185558215620001f4579182015b82811115620001f3578251825591602001919060010190620001d6565b5b50905062000203919062000207565b5090565b5b808211156200022257600081600090555060010162000208565b5090565b60006200023d620002378462000332565b62000309565b9050828152602081018484840111156200025657600080fd5b620002638482856200039c565b509392505050565b6000815190506200027c81620004ad565b92915050565b600082601f8301126200029457600080fd5b8151620002a684826020860162000226565b91505092915050565b60008060408385031215620002c357600080fd5b6000620002d3858286016200026b565b925050602083015167ffffffffffffffff811115620002f157600080fd5b620002ff8582860162000282565b9150509250929050565b60006200031562000328565b905062000323828262000408565b919050565b6000604051905090565b600067ffffffffffffffff82111562000350576200034f6200046d565b5b6200035b826200049c565b9050602081019050919050565b600062000375826200037c565b9050919050565b600073ffffffffffffffffffffffffffffffffffffffff82169050919050565b60005b83811015620003bc5780820151818401526020810190506200039f565b83811115620003cc576000848401525b50505050565b60006002820490506001821680620003eb57607f821691505b602082108114156200040257620004016200043e565b5b50919050565b62000413826200049c565b810181811067ffffffffffffffff821117156200043557620004346200046d565b5b80604052505050565b7f4e487b7100000000000000000000000000000000000000000000000000000000600052602260045260246000fd5b7f4e487b7100000000000000000000000000000000000000000000000000000000600052604160045260246000fd5b6000601f19601f8301169050919050565b620004b88162000368565b8114620004c457600080fd5b50565b610e3880620004d76000396000f3fe608060405234801561001057600080fd5b50600436106100935760003560e01c806393e3806c1161006657806393e3806c1461010e578063df502c6b1461012a578063e6e8859314610148578063ec3a479014610166578063eebc6e3d1461018257610093565b806335e92819146100985780635db28c66146100b45780637843c0e4146100d25780638da5cb5b146100f0575b600080fd5b6100b260048036038101906100ad91906108a8565b6101a0565b005b6100bc61024a565b6040516100c99190610a54565b60405180910390f35b6100da610351565b6040516100e79190610a1e565b60405180910390f35b6100f8610377565b6040516101059190610a1e565b60405180910390f35b6101286004803603810190610123919061082b565b6103a1565b005b61013261047b565b60405161013f9190610a54565b60405180910390f35b610150610509565b60405161015d9190610a39565b60405180910390f35b610180600480360381019061017b91906108a8565b61051c565b005b61018a6105ab565b6040516101979190610a1e565b60405180910390f35b600160009054906101000a900473ffffffffffffffffffffffffffffffffffffffff1673ffffffffffffffffffffffffffffffffffffffff163373ffffffffffffffffffffffffffffffffffffffff1614610230576040517f08c379a000000000000000000000000000000000000000000000000000000000815260040161022790610a96565b60405180910390fd5b8060049080519060200190610246929190610669565b5050565b60603373ffffffffffffffffffffffffffffffffffffffff1661026b610377565b73ffffffffffffffffffffffffffffffffffffffff16146102c1576040517f08c379a00000000000000000000000000000000000000000000000000000000081526004016102b890610a76565b60405180910390fd5b600480546102ce90610c0a565b80601f01602080910402602001604051908101604052809291908181526020018280546102fa90610c0a565b80156103475780601f1061031c57610100808354040283529160200191610347565b820191906000526020600020905b81548152906001019060200180831161032a57829003601f168201915b5050505050905090565b600160009054906101000a900473ffffffffffffffffffffffffffffffffffffffff1681565b6000600260009054906101000a900473ffffffffffffffffffffffffffffffffffffffff16905090565b3373ffffffffffffffffffffffffffffffffffffffff166103c0610377565b73ffffffffffffffffffffffffffffffffffffffff1614610416576040517f08c379a000000000000000000000000000000000000000000000000000000000815260040161040d90610a76565b60405180910390fd5b600061042283836105cf565b9050600115158115151461043557600080fd5b82600160006101000a81548173ffffffffffffffffffffffffffffffffffffffff021916908373ffffffffffffffffffffffffffffffffffffffff160217905550505050565b6003805461048890610c0a565b80601f01602080910402602001604051908101604052809291908181526020018280546104b490610c0a565b80156105015780601f106104d657610100808354040283529160200191610501565b820191906000526020600020905b8154815290600101906020018083116104e457829003601f168201915b505050505081565b600560009054906101000a900460ff1681565b3373ffffffffffffffffffffffffffffffffffffffff1661053b610377565b73ffffffffffffffffffffffffffffffffffffffff1614610591576040517f08c379a000000000000000000000000000000000000000000000000000000000815260040161058890610a76565b60405180910390fd5b80600390805190602001906105a7929190610669565b5050565b60008054906101000a900473ffffffffffffffffffffffffffffffffffffffff1681565b6000808373ffffffffffffffffffffffffffffffffffffffff16635d5f221f846040518263ffffffff1660e01b815260040161060b9190610ab6565b602060405180830381600087803b15801561062557600080fd5b505af1158015610639573d6000803e3d6000fd5b505050506040513d601f19601f8201168201806040525081019061065d919061087f565b90508091505092915050565b82805461067590610c0a565b90600052602060002090601f01602090048101928261069757600085556106de565b82601f106106b057805160ff19168380011785556106de565b828001600101855582156106de579182015b828111156106dd5782518255916020019190600101906106c2565b5b5090506106eb91906106ef565b5090565b5b808211156107085760008160009055506001016106f0565b5090565b600061071f61071a84610afd565b610ad8565b90508281526020810184848401111561073757600080fd5b610742848285610bc8565b509392505050565b60008135905061075981610dbd565b92915050565b60008151905061076e81610dd4565b92915050565b600082601f83011261078557600080fd5b813561079584826020860161070c565b91505092915050565b6000606082840312156107b057600080fd5b6107ba6060610ad8565b9050600082013567ffffffffffffffff8111156107d657600080fd5b6107e284828501610774565b60008301525060206107f684828501610816565b602083015250604061080a84828501610816565b60408301525092915050565b60008135905061082581610deb565b92915050565b6000806040838503121561083e57600080fd5b600061084c8582860161074a565b925050602083013567ffffffffffffffff81111561086957600080fd5b6108758582860161079e565b9150509250929050565b60006020828403121561089157600080fd5b600061089f8482850161075f565b91505092915050565b6000602082840312156108ba57600080fd5b600082013567ffffffffffffffff8111156108d457600080fd5b6108e084828501610774565b91505092915050565b6108f281610b5b565b82525050565b61090181610bb6565b82525050565b600061091282610b2e565b61091c8185610b39565b935061092c818560208601610bd7565b61093581610cfa565b840191505092915050565b600061094b82610b2e565b6109558185610b4a565b9350610965818560208601610bd7565b61096e81610cfa565b840191505092915050565b6000610986602983610b4a565b915061099182610d0b565b604082019050919050565b60006109a9602a83610b4a565b91506109b482610d5a565b604082019050919050565b600060608301600083015184820360008601526109dc8282610907565b91505060208301516109f16020860182610a0f565b506040830151610a046040860182610a0f565b508091505092915050565b610a1881610bac565b82525050565b6000602082019050610a3360008301846108e9565b92915050565b6000602082019050610a4e60008301846108f8565b92915050565b60006020820190508181036000830152610a6e8184610940565b905092915050565b60006020820190508181036000830152610a8f81610979565b9050919050565b60006020820190508181036000830152610aaf8161099c565b9050919050565b60006020820190508181036000830152610ad081846109bf565b905092915050565b6000610ae2610af3565b9050610aee8282610c3c565b919050565b6000604051905090565b600067ffffffffffffffff821115610b1857610b17610ccb565b5b610b2182610cfa565b9050602081019050919050565b600081519050919050565b600082825260208201905092915050565b600082825260208201905092915050565b6000610b6682610b8c565b9050919050565b60008115159050919050565b6000819050610b8782610da9565b919050565b600073ffffffffffffffffffffffffffffffffffffffff82169050919050565b6000819050919050565b6000610bc182610b79565b9050919050565b82818337600083830152505050565b60005b83811015610bf5578082015181840152602081019050610bda565b83811115610c04576000848401525b50505050565b60006002820490506001821680610c2257607f821691505b60208210811415610c3657610c35610c9c565b5b50919050565b610c4582610cfa565b810181811067ffffffffffffffff82111715610c6457610c63610ccb565b5b80604052505050565b7f4e487b7100000000000000000000000000000000000000000000000000000000600052602160045260246000fd5b7f4e487b7100000000000000000000000000000000000000000000000000000000600052602260045260246000fd5b7f4e487b7100000000000000000000000000000000000000000000000000000000600052604160045260246000fd5b6000601f19601f8301169050919050565b7f576f726b52656c6174696f6e736869703a2063616c6c6572206973206e6f742060008201527f746865206f776e65720000000000000000000000000000000000000000000000602082015250565b7f576f726b52656c6174696f6e736869703a2063616c6c6572206973206e6f742060008201527f74686520776f726b657200000000000000000000000000000000000000000000602082015250565b60078110610dba57610db9610c6d565b5b50565b610dc681610b5b565b8114610dd157600080fd5b50565b610ddd81610b6d565b8114610de857600080fd5b50565b610df481610bac565b8114610dff57600080fd5b5056fea2646970667358221220793b928b34e61d8984f3d6e8d8a3577ff06b1ab605dd46e524dcb2c321cde72e64736f6c63430008040033",
  "immutableReferences": {},
  "source": "// SPDX-License-Identifier: MIT\n\npragma solidity 0.8.4;\n\nimport \"../user/UserSummary.sol\";\nimport \"../libraries/Evaluation.sol\";\n\ncontract WorkRelationship {\n\n    address public _workExchangeAddress;\n    address public _workerAddress;\n    address private _owner;\n\n    string public _taskMetadataPointer = \"\";\n    string private _taskSolutionPointer = \"\";\n\n    Evaluation.WorkRelationshipState public _contractStatus;\n\n    modifier onlyWorker() {\n        require(\n            msg.sender == _workerAddress,\n            \"WorkRelationship: caller is not the worker\"\n        );\n        _;\n    }\n\n    /**\n     * @dev Throws if called by any account other than the owner.\n     */\n    modifier onlyOwner() {\n        require(\n            owner() == msg.sender,\n            \"WorkRelationship: caller is not the owner\"\n        );\n        _;\n    }\n\n    constructor(address jobRequester, string memory taskMetadataPointer) public {\n        require(jobRequester != address(0));\n        _owner = jobRequester;\n        _contractStatus = Evaluation.WorkRelationshipState.UNCLAIMED;\n        _taskMetadataPointer = taskMetadataPointer;\n    }\n\n    /**\n     * @dev Returns the address of the current owner.\n     */\n    function owner() public view returns (address) {\n        return _owner;\n    }\n\n    function assignNewWorker(\n        address newWorker,\n        Evaluation.EvaluationState memory evaluationState\n    ) external onlyOwner {\n        bool passesEvaluation =\n            checkWorkerEvaluation(newWorker, evaluationState);\n        require(passesEvaluation == true);\n\n        _workerAddress = newWorker;\n    }\n\n    function checkWorkerEvaluation(\n        address workerUniversalAddress,\n        Evaluation.EvaluationState memory evaluationState\n    ) internal returns (bool) {\n        bool passesEvaluation =\n            UserSummary(workerUniversalAddress).evaluateUser(evaluationState);\n        return passesEvaluation;\n    }\n\n    function updateTaskMetadataPointer(string memory newTaskPointerHash)\n        external\n        onlyOwner\n    {\n        _taskMetadataPointer = newTaskPointerHash;\n    }\n\n    function updateTaskSolutionPointer(string memory newTaskPointerHash)\n        external\n        onlyWorker\n    {\n        _taskSolutionPointer = newTaskPointerHash;\n    }\n\n    function getTaskSolutionPointer()\n        external\n        view\n        onlyOwner\n        returns (string memory)\n    {\n        return _taskSolutionPointer;\n    }\n}\n",
  "sourcePath": "/Users/elijahhampton/Desktop/opportunity-core/src/contracts/exchange/WorkRelationship.sol",
  "compiler": {
    "name": "solc",
    "version": "0.8.4+commit.c7e474f2.Emscripten.clang"
  },
  "schemaVersion": "3.4.1",
  "updatedAt": "2021-06-23T02:55:44.831Z",
  "networkType": "ethereum",
  "devdoc": {
    "kind": "dev",
    "methods": {
      "owner()": {
        "details": "Returns the address of the current owner."
      }
    },
    "version": 1
  },
  "userdoc": {
    "kind": "user",
    "methods": {},
    "version": 1
  }
}