{
  "contractName": "WorkExchange",
  "abi": [
    {
      "inputs": [
        {
          "internalType": "address",
          "name": "_depositor",
          "type": "address"
        },
        {
          "internalType": "uint256",
          "name": "_wad",
          "type": "uint256"
        },
        {
          "internalType": "address",
          "name": "_daiTokenAddress",
          "type": "address"
        }
      ],
      "stateMutability": "nonpayable",
      "type": "constructor"
    },
    {
      "inputs": [],
      "name": "REVIEW_TYPEHASH",
      "outputs": [
        {
          "internalType": "bytes32",
          "name": "",
          "type": "bytes32"
        }
      ],
      "stateMutability": "view",
      "type": "function"
    },
    {
      "inputs": [],
      "name": "SUBMIT_TYPEHASH",
      "outputs": [
        {
          "internalType": "bytes32",
          "name": "",
          "type": "bytes32"
        }
      ],
      "stateMutability": "view",
      "type": "function"
    },
    {
      "inputs": [
        {
          "internalType": "address payable",
          "name": "_beneficiary",
          "type": "address"
        },
        {
          "internalType": "uint256",
          "name": "_stakedReputation",
          "type": "uint256"
        }
      ],
      "name": "assignNewBeneficiary",
      "outputs": [],
      "stateMutability": "nonpayable",
      "type": "function"
    },
    {
      "inputs": [],
      "name": "beneficiary",
      "outputs": [
        {
          "internalType": "address",
          "name": "",
          "type": "address"
        }
      ],
      "stateMutability": "view",
      "type": "function"
    },
    {
      "inputs": [],
      "name": "contractState",
      "outputs": [
        {
          "internalType": "enum DaiEscrow.ContractState",
          "name": "",
          "type": "uint8"
        }
      ],
      "stateMutability": "view",
      "type": "function"
    },
    {
      "inputs": [],
      "name": "depositor",
      "outputs": [
        {
          "internalType": "address",
          "name": "",
          "type": "address"
        }
      ],
      "stateMutability": "view",
      "type": "function"
    },
    {
      "inputs": [],
      "name": "domain_separator",
      "outputs": [
        {
          "internalType": "bytes32",
          "name": "",
          "type": "bytes32"
        }
      ],
      "stateMutability": "view",
      "type": "function"
    },
    {
      "inputs": [
        {
          "internalType": "uint256",
          "name": "nonce",
          "type": "uint256"
        },
        {
          "internalType": "uint256",
          "name": "expiry",
          "type": "uint256"
        },
        {
          "internalType": "uint8",
          "name": "v",
          "type": "uint8"
        },
        {
          "internalType": "bytes32",
          "name": "r",
          "type": "bytes32"
        },
        {
          "internalType": "bytes32",
          "name": "s",
          "type": "bytes32"
        }
      ],
      "name": "initialize",
      "outputs": [],
      "stateMutability": "nonpayable",
      "type": "function"
    },
    {
      "inputs": [
        {
          "internalType": "bool",
          "name": "_approve",
          "type": "bool"
        },
        {
          "internalType": "uint8",
          "name": "_v",
          "type": "uint8"
        },
        {
          "internalType": "bytes32",
          "name": "_r",
          "type": "bytes32"
        },
        {
          "internalType": "bytes32",
          "name": "_s",
          "type": "bytes32"
        }
      ],
      "name": "review",
      "outputs": [],
      "stateMutability": "nonpayable",
      "type": "function"
    },
    {
      "inputs": [],
      "name": "status",
      "outputs": [
        {
          "internalType": "enum DaiEscrow.Status",
          "name": "",
          "type": "uint8"
        }
      ],
      "stateMutability": "view",
      "type": "function"
    },
    {
      "inputs": [
        {
          "internalType": "address",
          "name": "",
          "type": "address"
        }
      ],
      "name": "storedFunds",
      "outputs": [
        {
          "internalType": "uint256",
          "name": "",
          "type": "uint256"
        }
      ],
      "stateMutability": "view",
      "type": "function"
    },
    {
      "inputs": [
        {
          "internalType": "bytes32",
          "name": "_submission",
          "type": "bytes32"
        },
        {
          "internalType": "uint8",
          "name": "_v",
          "type": "uint8"
        },
        {
          "internalType": "bytes32",
          "name": "_r",
          "type": "bytes32"
        },
        {
          "internalType": "bytes32",
          "name": "_s",
          "type": "bytes32"
        }
      ],
      "name": "submit",
      "outputs": [],
      "stateMutability": "nonpayable",
      "type": "function"
    },
    {
      "inputs": [
        {
          "internalType": "address",
          "name": "callee",
          "type": "address"
        }
      ],
      "name": "updateStatus",
      "outputs": [],
      "stateMutability": "nonpayable",
      "type": "function"
    },
    {
      "inputs": [],
      "name": "wad",
      "outputs": [
        {
          "internalType": "uint256",
          "name": "",
          "type": "uint256"
        }
      ],
      "stateMutability": "view",
      "type": "function"
    },
    {
      "inputs": [
        {
          "internalType": "address",
          "name": "callee",
          "type": "address"
        }
      ],
      "name": "disputeFunds",
      "outputs": [],
      "stateMutability": "nonpayable",
      "type": "function"
    }
  ],
  "bytecode": "0x60e060405234801561001057600080fd5b50604051610fe3380380610fe383398101604081905261002f91610217565b8282826001600160a01b03831661007d5760405162461bcd60e51b815260206004820152600d60248201526c34b73b30b634b21037bbb732b960991b60448201526064015b60405180910390fd5b6001600160a01b0381166100d35760405162461bcd60e51b815260206004820152601960248201527f696e76616c69642064616920746f6b656e2061646472657373000000000000006044820152606401610074565b604080518082018252600a81526944616920457363726f7760b01b6020918201528151808301835260018152603160f81b9082015281517f8b73c3c69bb8fe3d512ecc4cf759cc79239f7b179b0ffacaa9a75d522b39400f918101919091527f0bdbe35568d399a0401d60d11c76785045fec8c775dcb34589d4a0b9d540700d918101919091527fc89efdaa54c0f20c7adf612882df0950f5a951637e0307cdcb4c672f298b8bc660608201524660ff811660808301523060a08301529060c00160408051808303601f1901815291905280516020909101206080525060609290921b6001600160601b03191660a05260c052600280546001600160b01b031916620100006001600160a01b0393909316929092029190911761010017905550610253915050565b80516001600160a01b038116811461021257600080fd5b919050565b60008060006060848603121561022c57600080fd5b610235846101fb565b92506020840151915061024a604085016101fb565b90509250925092565b60805160a05160601c60c051610d266102bd600039600081816101e101526108a40152600081816102880152818161041001528181610574015281816107fb0152818161087c015261092b015260008181610261015281816104c801526106b30152610d266000f3fe608060405234801561001057600080fd5b50600436106100f55760003560e01c80635db3884211610097578063bad453cf11610066578063bad453cf14610249578063bfce14ea1461025c578063c7c4ff4614610283578063d8a43107146102aa57600080fd5b80635db38842146101c95780637df38c5b146101dc57806385209ee01461020357806396118e441461022257600080fd5b806325b0db0f116100d357806325b0db0f1461014357806338af3eed146101565780633c86f6f31461018157806353318a87146101b657600080fd5b806301162b93146100fa578063200d2ed21461010d578063227d645414610130575b600080fd5b61010b610108366004610b09565b50565b005b60025461011a9060ff1681565b6040516101279190610c8b565b60405180910390f35b61010b61013e366004610b2d565b6102ca565b61010b610151366004610b59565b6103a5565b600054610169906001600160a01b031681565b6040516001600160a01b039091168152602001610127565b6101a87ffa5e0016fb62b8dffda8fd95249d438edcffd3689b40ac3b4281d4cf710609ae81565b604051908152602001610127565b61010b6101c4366004610ba2565b6105fd565b61010b6101d7366004610b09565b610108565b6101a87f000000000000000000000000000000000000000000000000000000000000000081565b60025461021590610100900460ff1681565b6040516101279190610c71565b6101a87f62b607caa4d4e7fcbd31bf4c033cd30888b536567fadc83710fdf15f8d5cfc9e81565b61010b610257366004610be1565b6107ce565b6101a87f000000000000000000000000000000000000000000000000000000000000000081565b6101697f000000000000000000000000000000000000000000000000000000000000000081565b6101a86102b8366004610b09565b60016020526000908152604090205481565b600080546001600160a01b0319166001600160a01b0384169081179091556103395760405162461bcd60e51b815260206004820181905260248201527f42656e65666963696172792063616e6e6f74206265203078206164647265737360448201526064015b60405180910390fd5b600054604051637f306ba160e01b81526001600160a01b039182166004820152602481018390528391821690637f306ba190604401600060405180830381600087803b15801561038857600080fd5b505af115801561039c573d6000803e3d6000fd5b50505050505050565b60018060025460ff1660038111156103bf576103bf610cc5565b146104055760405162461bcd60e51b8152602060048201526016602482015275119b881b9bdd081c1c995cd95b9d1b1e481d985b1a5960521b6044820152606401610330565b336001600160a01b037f0000000000000000000000000000000000000000000000000000000000000000161461046e5760405162461bcd60e51b815260206004820152600e60248201526d2bb937b733903932bb34b2bbb2b960911b6044820152606401610330565b604080517ffa5e0016fb62b8dffda8fd95249d438edcffd3689b40ac3b4281d4cf710609ae6020808301919091528715158284015282518083038401815260608301909352825192019190912061190160f01b60808301527f0000000000000000000000000000000000000000000000000000000000000000608283015260a282015260009060c20160408051601f1981840301815282825280516020918201206000845290830180835281905260ff8816918301919091526060820186905260808201859052915060019060a0016020604051602081039080840390855afa15801561055f573d6000803e3d6000fd5b505050602060405103516001600160a01b03167f00000000000000000000000000000000000000000000000000000000000000006001600160a01b0316146105da5760405162461bcd60e51b815260206004820152600e60248201526d1a5b9d985b1a590b5c195c9b5a5d60921b6044820152606401610330565b85156105f5576000546105f5906001600160a01b03166109c3565b505050505050565b60008060025460ff16600381111561061757610617610cc5565b1461065d5760405162461bcd60e51b8152602060048201526016602482015275119b881b9bdd081c1c995cd95b9d1b1e481d985b1a5960521b6044820152606401610330565b604080517f62b607caa4d4e7fcbd31bf4c033cd30888b536567fadc83710fdf15f8d5cfc9e60208083019190915281830188905282518083038401815260608301845280519082012061190160f01b60808401527f0000000000000000000000000000000000000000000000000000000000000000608284015260a2808401919091528351808403909101815260c290920190925280519101206000546001600160a01b031661070c57600080fd5b60408051600081526020810180835283905260ff871691810191909152606081018590526080810184905260019060a0016020604051602081039080840390855afa15801561075f573d6000803e3d6000fd5b5050604051601f1901516000546001600160a01b0390811691161490506107b95760405162461bcd60e51b815260206004820152600e60248201526d1a5b9d985b1a590b5c195c9b5a5d60921b6044820152606401610330565b50506002805460ff1916600117905550505050565b6002546040516323f2ebc360e21b8152620100009091046001600160a01b031690638fcbaf0c90610832907f00000000000000000000000000000000000000000000000000000000000000009030908a908a906001908b908b908b90600401610c28565b600060405180830381600087803b15801561084c57600080fd5b505af1158015610860573d6000803e3d6000fd5b505060025460405163f2d5d56b60e01b81526001600160a01b037f0000000000000000000000000000000000000000000000000000000000000000811660048301527f0000000000000000000000000000000000000000000000000000000000000000602483015262010000909204909116925063f2d5d56b9150604401600060405180830381600087803b1580156108f857600080fd5b505af115801561090c573d6000803e3d6000fd5b50506002546201000090046001600160a01b03169150638fcbaf0c90507f000000000000000000000000000000000000000000000000000000000000000030610956896001610c9f565b8860008989896040518963ffffffff1660e01b815260040161097f989796959493929190610c28565b600060405180830381600087803b15801561099957600080fd5b505af11580156109ad573d6000803e3d6000fd5b50506002805461ff001916905550505050505050565b6001600160a01b0381166109d657600080fd5b6001600160a01b0381161580156109f9576002805460ff19166003179055610a06565b6002805460ff1916811790555b80610aef576002546040516370a0823160e01b8152306004820152620100009091046001600160a01b03169063b753a98c90849083906370a082319060240160206040518083038186803b158015610a5d57600080fd5b505afa158015610a71573d6000803e3d6000fd5b505050506040513d601f19601f82011682018060405250810190610a959190610bc8565b6040516001600160e01b031960e085901b1681526001600160a01b0390921660048301526024820152604401600060405180830381600087803b158015610adb57600080fd5b505af11580156105f5573d6000803e3d6000fd5b5050565b803560ff81168114610b0457600080fd5b919050565b600060208284031215610b1b57600080fd5b8135610b2681610cdb565b9392505050565b60008060408385031215610b4057600080fd5b8235610b4b81610cdb565b946020939093013593505050565b60008060008060808587031215610b6f57600080fd5b84358015158114610b7f57600080fd5b9350610b8d60208601610af3565b93969395505050506040820135916060013590565b60008060008060808587031215610bb857600080fd5b84359350610b8d60208601610af3565b600060208284031215610bda57600080fd5b5051919050565b600080600080600060a08688031215610bf957600080fd5b8535945060208601359350610c1060408701610af3565b94979396509394606081013594506080013592915050565b6001600160a01b039889168152969097166020870152604086019490945260608501929092521515608084015260ff1660a083015260c082015260e08101919091526101000190565b6020810160028310610c8557610c85610cc5565b91905290565b6020810160048310610c8557610c85610cc5565b60008219821115610cc057634e487b7160e01b600052601160045260246000fd5b500190565b634e487b7160e01b600052602160045260246000fd5b6001600160a01b038116811461010857600080fdfea2646970667358221220684477f4f6b9471033a643524cc14e936dd4d9ebb49ec3df8643885032b5d1d464736f6c63430008070033",
  "immutableReferences": {
    "486": [
      {
        "length": 32,
        "start": 609
      },
      {
        "length": 32,
        "start": 1224
      },
      {
        "length": 32,
        "start": 1715
      }
    ],
    "490": [
      {
        "length": 32,
        "start": 648
      },
      {
        "length": 32,
        "start": 1040
      },
      {
        "length": 32,
        "start": 1396
      },
      {
        "length": 32,
        "start": 2043
      },
      {
        "length": 32,
        "start": 2172
      },
      {
        "length": 32,
        "start": 2347
      }
    ],
    "492": [
      {
        "length": 32,
        "start": 481
      },
      {
        "length": 32,
        "start": 2212
      }
    ]
  },
  "source": "//SPDX-License-Identifier: Unlicense\npragma solidity 0.8.7;\n\nimport \"./DaiEscrow.sol\";\n\ncontract WorkExchange is DaiEscrow {\n    constructor(\n        address _depositor,\n        uint _wad, \n        address _daiTokenAddress) \n    DaiEscrow(_depositor, _wad, _daiTokenAddress) {\n        \n    }\n\n    function disputeFunds(address callee) external {\n        updateStatus(callee);\n    }\n}",
  "sourcePath": "/Users/elijahhampton/Desktop/opportunity-core/src/contracts/exchange/WorkExchange.sol",
  "compiler": {
    "name": "solc",
    "version": "0.8.7+commit.e28d00a7.Emscripten.clang"
  },
  "schemaVersion": "3.4.3",
  "updatedAt": "2021-09-29T04:01:27.426Z",
  "devdoc": {
    "kind": "dev",
    "methods": {},
    "version": 1
  },
  "userdoc": {
    "kind": "user",
    "methods": {},
    "version": 1
  }
}