{
  "contractName": "WorkRelationship",
  "abi": [
    {
      "inputs": [
        {
          "internalType": "address",
          "name": "marketAddress",
          "type": "address"
        }
      ],
      "stateMutability": "nonpayable",
      "type": "constructor"
    },
    {
      "anonymous": false,
      "inputs": [
        {
          "indexed": true,
          "internalType": "address",
          "name": "payee",
          "type": "address"
        },
        {
          "indexed": false,
          "internalType": "uint256",
          "name": "weiAmount",
          "type": "uint256"
        }
      ],
      "name": "Deposited",
      "type": "event"
    },
    {
      "anonymous": false,
      "inputs": [
        {
          "indexed": true,
          "internalType": "address",
          "name": "previousOwner",
          "type": "address"
        },
        {
          "indexed": true,
          "internalType": "address",
          "name": "newOwner",
          "type": "address"
        }
      ],
      "name": "OwnershipTransferred",
      "type": "event"
    },
    {
      "anonymous": false,
      "inputs": [],
      "name": "RefundsClosed",
      "type": "event"
    },
    {
      "anonymous": false,
      "inputs": [],
      "name": "RefundsEnabled",
      "type": "event"
    },
    {
      "anonymous": false,
      "inputs": [
        {
          "indexed": true,
          "internalType": "address",
          "name": "payee",
          "type": "address"
        },
        {
          "indexed": false,
          "internalType": "uint256",
          "name": "weiAmount",
          "type": "uint256"
        }
      ],
      "name": "Withdrawn",
      "type": "event"
    },
    {
      "anonymous": false,
      "inputs": [
        {
          "indexed": true,
          "internalType": "address",
          "name": "_owner",
          "type": "address"
        },
        {
          "indexed": true,
          "internalType": "address",
          "name": "relationship",
          "type": "address"
        },
        {
          "indexed": true,
          "internalType": "address",
          "name": "marketAddress",
          "type": "address"
        }
      ],
      "name": "WorkRelationshipCreated",
      "type": "event"
    },
    {
      "anonymous": false,
      "inputs": [
        {
          "indexed": true,
          "internalType": "address",
          "name": "owner",
          "type": "address"
        },
        {
          "indexed": true,
          "internalType": "address",
          "name": "relationship",
          "type": "address"
        }
      ],
      "name": "WorkRelationshipEnded",
      "type": "event"
    },
    {
      "inputs": [],
      "name": "_contractStatus",
      "outputs": [
        {
          "internalType": "enum Evaluation.WorkRelationshipState",
          "name": "",
          "type": "uint8"
        }
      ],
      "stateMutability": "view",
      "type": "function"
    },
    {
      "inputs": [],
      "name": "_taskMetadataPointer",
      "outputs": [
        {
          "internalType": "string",
          "name": "",
          "type": "string"
        }
      ],
      "stateMutability": "view",
      "type": "function"
    },
    {
      "inputs": [],
      "name": "_workExchangeAddress",
      "outputs": [
        {
          "internalType": "address",
          "name": "",
          "type": "address"
        }
      ],
      "stateMutability": "view",
      "type": "function"
    },
    {
      "inputs": [],
      "name": "beneficiary",
      "outputs": [
        {
          "internalType": "address payable",
          "name": "",
          "type": "address"
        }
      ],
      "stateMutability": "view",
      "type": "function"
    },
    {
      "inputs": [],
      "name": "beneficiaryWithdraw",
      "outputs": [],
      "stateMutability": "nonpayable",
      "type": "function"
    },
    {
      "inputs": [],
      "name": "close",
      "outputs": [],
      "stateMutability": "nonpayable",
      "type": "function"
    },
    {
      "inputs": [
        {
          "internalType": "address",
          "name": "refundee",
          "type": "address"
        }
      ],
      "name": "deposit",
      "outputs": [],
      "stateMutability": "payable",
      "type": "function"
    },
    {
      "inputs": [
        {
          "internalType": "address",
          "name": "payee",
          "type": "address"
        }
      ],
      "name": "depositsOf",
      "outputs": [
        {
          "internalType": "uint256",
          "name": "",
          "type": "uint256"
        }
      ],
      "stateMutability": "view",
      "type": "function"
    },
    {
      "inputs": [],
      "name": "enableRefunds",
      "outputs": [],
      "stateMutability": "nonpayable",
      "type": "function"
    },
    {
      "inputs": [],
      "name": "owner",
      "outputs": [
        {
          "internalType": "address",
          "name": "",
          "type": "address"
        }
      ],
      "stateMutability": "view",
      "type": "function"
    },
    {
      "inputs": [],
      "name": "renounceOwnership",
      "outputs": [],
      "stateMutability": "nonpayable",
      "type": "function"
    },
    {
      "inputs": [],
      "name": "state",
      "outputs": [
        {
          "internalType": "enum RefundEscrow.State",
          "name": "",
          "type": "uint8"
        }
      ],
      "stateMutability": "view",
      "type": "function"
    },
    {
      "inputs": [
        {
          "internalType": "address",
          "name": "newOwner",
          "type": "address"
        }
      ],
      "name": "transferOwnership",
      "outputs": [],
      "stateMutability": "nonpayable",
      "type": "function"
    },
    {
      "inputs": [
        {
          "internalType": "address payable",
          "name": "payee",
          "type": "address"
        }
      ],
      "name": "withdraw",
      "outputs": [],
      "stateMutability": "nonpayable",
      "type": "function"
    },
    {
      "inputs": [
        {
          "internalType": "address",
          "name": "",
          "type": "address"
        }
      ],
      "name": "withdrawalAllowed",
      "outputs": [
        {
          "internalType": "bool",
          "name": "",
          "type": "bool"
        }
      ],
      "stateMutability": "view",
      "type": "function"
    },
    {
      "inputs": [
        {
          "internalType": "address payable",
          "name": "newWorker",
          "type": "address"
        },
        {
          "components": [
            {
              "internalType": "string",
              "name": "industry",
              "type": "string"
            },
            {
              "internalType": "uint256",
              "name": "industrylevel",
              "type": "uint256"
            },
            {
              "internalType": "uint256",
              "name": "reputation",
              "type": "uint256"
            }
          ],
          "internalType": "struct Evaluation.EvaluationState",
          "name": "evaluationState",
          "type": "tuple"
        }
      ],
      "name": "assignNewWorker",
      "outputs": [],
      "stateMutability": "nonpayable",
      "type": "function"
    },
    {
      "inputs": [],
      "name": "disableWorkRelationship",
      "outputs": [],
      "stateMutability": "nonpayable",
      "type": "function"
    },
    {
      "inputs": [
        {
          "internalType": "string",
          "name": "newTaskPointerHash",
          "type": "string"
        }
      ],
      "name": "updateTaskMetadataPointer",
      "outputs": [],
      "stateMutability": "nonpayable",
      "type": "function"
    }
  ],
  "bytecode": "0x60a060405260405180602001604052806000815250600390805190602001906200002b929190620003ca565b503480156200003957600080fd5b5060405162007d4138038062007d4183398181016040528101906200005f91906200049f565b6200006f6200030760201b60201c565b6000620000816200033060201b60201c565b9050806000806101000a81548173ffffffffffffffffffffffffffffffffffffffff021916908373ffffffffffffffffffffffffffffffffffffffff1602179055508073ffffffffffffffffffffffffffffffffffffffff16600073ffffffffffffffffffffffffffffffffffffffff167f8be0079c531659141344cd1fd0a4f28419497f9722a3daafe3b4186f6b6457e060405160405180910390a350600073ffffffffffffffffffffffffffffffffffffffff168173ffffffffffffffffffffffffffffffffffffffff16141562000192576040517f08c379a0000000000000000000000000000000000000000000000000000000008152600401620001899062000530565b60405180910390fd5b8073ffffffffffffffffffffffffffffffffffffffff1660808173ffffffffffffffffffffffffffffffffffffffff1660601b815250506000600260006101000a81548160ff0219169083600281111562000216577f4e487b7100000000000000000000000000000000000000000000000000000000600052602160045260246000fd5b0217905550506000600260016101000a81548160ff0219169083600681111562000269577f4e487b7100000000000000000000000000000000000000000000000000000000600052602160045260246000fd5b02179055508073ffffffffffffffffffffffffffffffffffffffff163073ffffffffffffffffffffffffffffffffffffffff16620002ac6200030760201b60201c565b73ffffffffffffffffffffffffffffffffffffffff167f43af47c504a2f23934b1a816cd86633559721bf26c3656844bdde3edd4719e1360405160405180910390a46200030060006200033860201b60201c565b5062000679565b60008060009054906101000a900473ffffffffffffffffffffffffffffffffffffffff16905090565b600033905090565b60006200034a6200030760201b60201c565b8260405162000359906200045b565b6200036692919062000503565b604051809103906000f08015801562000383573d6000803e3d6000fd5b509050806002806101000a81548173ffffffffffffffffffffffffffffffffffffffff021916908373ffffffffffffffffffffffffffffffffffffffff1602179055505050565b828054620003d890620005ab565b90600052602060002090601f016020900481019282620003fc576000855562000448565b82601f106200041757805160ff191683800117855562000448565b8280016001018555821562000448579182015b82811115620004475782518255916020019190600101906200042a565b5b50905062000457919062000469565b5090565b6153418062002a0083390190565b5b80821115620004845760008160009055506001016200046a565b5090565b60008151905062000499816200065f565b92915050565b600060208284031215620004b257600080fd5b6000620004c28482850162000488565b91505092915050565b620004d68162000577565b82525050565b6000620004eb602d8362000552565b9150620004f88262000610565b604082019050919050565b60006040820190506200051a6000830185620004cb565b620005296020830184620004cb565b9392505050565b600060208201905081810360008301526200054b81620004dc565b9050919050565b600082825260208201905092915050565b600062000570826200058b565b9050919050565b600062000584826200058b565b9050919050565b600073ffffffffffffffffffffffffffffffffffffffff82169050919050565b60006002820490506001821680620005c457607f821691505b60208210811415620005db57620005da620005e1565b5b50919050565b7f4e487b7100000000000000000000000000000000000000000000000000000000600052602260045260246000fd5b7f526566756e64457363726f773a2062656e65666963696172792069732074686560008201527f207a65726f206164647265737300000000000000000000000000000000000000602082015250565b6200066a8162000563565b81146200067657600080fd5b50565b60805160601c6123686200069860003960006103c101526123686000f3fe6080604052600436106101095760003560e01c8063c19d93fb11610095578063e6e8859311610064578063e6e88593146102f9578063ec3a479014610324578063eebc6e3d1461034d578063f2fde38b14610378578063f340fa01146103a157610109565b8063c19d93fb1461024f578063ce079b9a1461027a578063df502c6b14610291578063e3a9db1a146102bc57610109565b8063715018a6116100dc578063715018a6146101b65780638c52dc41146101cd5780638da5cb5b146101e457806393e3806c1461020f5780639af6549a1461023857610109565b806338af3eed1461010e57806343d726d61461013957806351cff8d914610150578063685ca19414610179575b600080fd5b34801561011a57600080fd5b506101236103bd565b6040516101309190611b4b565b60405180910390f35b34801561014557600080fd5b5061014e6103e5565b005b34801561015c57600080fd5b50610177600480360381019061017291906117ab565b610599565b005b34801561018557600080fd5b506101a0600480360381019061019b9190611782565b6105ed565b6040516101ad9190611b66565b60405180910390f35b3480156101c257600080fd5b506101cb610671565b005b3480156101d957600080fd5b506101e26107ab565b005b3480156101f057600080fd5b506101f9610960565b6040516102069190611b30565b60405180910390f35b34801561021b57600080fd5b50610236600480360381019061023191906117d4565b610989565b005b34801561024457600080fd5b5061024d610ab4565b005b34801561025b57600080fd5b50610264610b9f565b6040516102719190611b81565b60405180910390f35b34801561028657600080fd5b5061028f610bb6565b005b34801561029d57600080fd5b506102a6610d21565b6040516102b39190611bb7565b60405180910390f35b3480156102c857600080fd5b506102e360048036038101906102de9190611782565b610daf565b6040516102f09190611d1b565b60405180910390f35b34801561030557600080fd5b5061030e610df8565b60405161031b9190611b9c565b60405180910390f35b34801561033057600080fd5b5061034b60048036038101906103469190611851565b610e0b565b005b34801561035957600080fd5b50610362610ea1565b60405161036f9190611b30565b60405180910390f35b34801561038457600080fd5b5061039f600480360381019061039a9190611782565b610ec5565b005b6103bb60048036038101906103b69190611782565b61106e565b005b60007f0000000000000000000000000000000000000000000000000000000000000000905090565b6103ed611134565b73ffffffffffffffffffffffffffffffffffffffff1661040b610960565b73ffffffffffffffffffffffffffffffffffffffff1614610461576040517f08c379a000000000000000000000000000000000000000000000000000000000815260040161045890611cb9565b60405180910390fd5b6000600281111561049b577f4e487b7100000000000000000000000000000000000000000000000000000000600052602160045260246000fd5b6104a3610b9f565b60028111156104db577f4e487b7100000000000000000000000000000000000000000000000000000000600052602160045260246000fd5b1461051b576040517f08c379a000000000000000000000000000000000000000000000000000000000815260040161051290611c99565b60405180910390fd5b60028060006101000a81548160ff02191690836002811115610566577f4e487b7100000000000000000000000000000000000000000000000000000000600052602160045260246000fd5b02179055507f088672c3a6e342f7cd94a65ba63b79df24a8973927b4d05d803c44bbf787d12f60405160405180910390a1565b6105a2816105ed565b6105e1576040517f08c379a00000000000000000000000000000000000000000000000000000000081526004016105d890611c79565b60405180910390fd5b6105ea8161113c565b50565b600060016002811115610629577f4e487b7100000000000000000000000000000000000000000000000000000000600052602160045260246000fd5b610631610b9f565b6002811115610669577f4e487b7100000000000000000000000000000000000000000000000000000000600052602160045260246000fd5b149050919050565b610679611134565b73ffffffffffffffffffffffffffffffffffffffff16610697610960565b73ffffffffffffffffffffffffffffffffffffffff16146106ed576040517f08c379a00000000000000000000000000000000000000000000000000000000081526004016106e490611cb9565b60405180910390fd5b600073ffffffffffffffffffffffffffffffffffffffff1660008054906101000a900473ffffffffffffffffffffffffffffffffffffffff1673ffffffffffffffffffffffffffffffffffffffff167f8be0079c531659141344cd1fd0a4f28419497f9722a3daafe3b4186f6b6457e060405160405180910390a360008060006101000a81548173ffffffffffffffffffffffffffffffffffffffff021916908373ffffffffffffffffffffffffffffffffffffffff160217905550565b6107b3611134565b73ffffffffffffffffffffffffffffffffffffffff166107d1610960565b73ffffffffffffffffffffffffffffffffffffffff1614610827576040517f08c379a000000000000000000000000000000000000000000000000000000000815260040161081e90611cb9565b60405180910390fd5b60006002811115610861577f4e487b7100000000000000000000000000000000000000000000000000000000600052602160045260246000fd5b610869610b9f565b60028111156108a1577f4e487b7100000000000000000000000000000000000000000000000000000000600052602160045260246000fd5b146108e1576040517f08c379a00000000000000000000000000000000000000000000000000000000081526004016108d890611cd9565b60405180910390fd5b6001600260006101000a81548160ff0219169083600281111561092d577f4e487b7100000000000000000000000000000000000000000000000000000000600052602160045260246000fd5b02179055507f599d8e5a83cffb867d051598c4d70e805d59802d8081c1c7d6dffc5b6aca2b8960405160405180910390a1565b60008060009054906101000a900473ffffffffffffffffffffffffffffffffffffffff16905090565b610991611134565b73ffffffffffffffffffffffffffffffffffffffff166109af610960565b73ffffffffffffffffffffffffffffffffffffffff1614610a05576040517f08c379a00000000000000000000000000000000000000000000000000000000081526004016109fc90611cb9565b60405180910390fd5b6000610a1183836112bc565b90506001151581151514610a2457600080fd5b60028054906101000a900473ffffffffffffffffffffffffffffffffffffffff1673ffffffffffffffffffffffffffffffffffffffff1663b93738c0846040518263ffffffff1660e01b8152600401610a7d9190611b4b565b600060405180830381600087803b158015610a9757600080fd5b505af1158015610aab573d6000803e3d6000fd5b50505050505050565b600280811115610aed577f4e487b7100000000000000000000000000000000000000000000000000000000600052602160045260246000fd5b610af5610b9f565b6002811115610b2d577f4e487b7100000000000000000000000000000000000000000000000000000000600052602160045260246000fd5b14610b6d576040517f08c379a0000000000000000000000000000000000000000000000000000000008152600401610b6490611bd9565b60405180910390fd5b610b9d47610b796103bd565b73ffffffffffffffffffffffffffffffffffffffff1661135690919063ffffffff16565b565b6000600260009054906101000a900460ff16905090565b610bbe611134565b73ffffffffffffffffffffffffffffffffffffffff16610bdc610960565b73ffffffffffffffffffffffffffffffffffffffff1614610c32576040517f08c379a0000000000000000000000000000000000000000000000000000000008152600401610c2990611cb9565b60405180910390fd5b60046006811115610c6c577f4e487b7100000000000000000000000000000000000000000000000000000000600052602160045260246000fd5b600260019054906101000a900460ff166006811115610cb4577f4e487b7100000000000000000000000000000000000000000000000000000000600052602160045260246000fd5b14610cbe57600080fd5b3073ffffffffffffffffffffffffffffffffffffffff16610cdd610960565b73ffffffffffffffffffffffffffffffffffffffff167f9f9ae6282c58d4c8aeebc441331043c250c011c89bdc9a917ba54702f0c36a2960405160405180910390a3565b60038054610d2e90611f00565b80601f0160208091040260200160405190810160405280929190818152602001828054610d5a90611f00565b8015610da75780601f10610d7c57610100808354040283529160200191610da7565b820191906000526020600020905b815481529060010190602001808311610d8a57829003601f168201915b505050505081565b6000600160008373ffffffffffffffffffffffffffffffffffffffff1673ffffffffffffffffffffffffffffffffffffffff168152602001908152602001600020549050919050565b600260019054906101000a900460ff1681565b610e13611134565b73ffffffffffffffffffffffffffffffffffffffff16610e31610960565b73ffffffffffffffffffffffffffffffffffffffff1614610e87576040517f08c379a0000000000000000000000000000000000000000000000000000000008152600401610e7e90611cb9565b60405180910390fd5b8060039080519060200190610e9d9291906115ab565b5050565b60028054906101000a900473ffffffffffffffffffffffffffffffffffffffff1681565b610ecd611134565b73ffffffffffffffffffffffffffffffffffffffff16610eeb610960565b73ffffffffffffffffffffffffffffffffffffffff1614610f41576040517f08c379a0000000000000000000000000000000000000000000000000000000008152600401610f3890611cb9565b60405180910390fd5b600073ffffffffffffffffffffffffffffffffffffffff168173ffffffffffffffffffffffffffffffffffffffff161415610fb1576040517f08c379a0000000000000000000000000000000000000000000000000000000008152600401610fa890611bf9565b60405180910390fd5b8073ffffffffffffffffffffffffffffffffffffffff1660008054906101000a900473ffffffffffffffffffffffffffffffffffffffff1673ffffffffffffffffffffffffffffffffffffffff167f8be0079c531659141344cd1fd0a4f28419497f9722a3daafe3b4186f6b6457e060405160405180910390a3806000806101000a81548173ffffffffffffffffffffffffffffffffffffffff021916908373ffffffffffffffffffffffffffffffffffffffff16021790555050565b600060028111156110a8577f4e487b7100000000000000000000000000000000000000000000000000000000600052602160045260246000fd5b6110b0610b9f565b60028111156110e8577f4e487b7100000000000000000000000000000000000000000000000000000000600052602160045260246000fd5b14611128576040517f08c379a000000000000000000000000000000000000000000000000000000000815260040161111f90611c59565b60405180910390fd5b6111318161144a565b50565b600033905090565b611144611134565b73ffffffffffffffffffffffffffffffffffffffff16611162610960565b73ffffffffffffffffffffffffffffffffffffffff16146111b8576040517f08c379a00000000000000000000000000000000000000000000000000000000081526004016111af90611cb9565b60405180910390fd5b6000600160008373ffffffffffffffffffffffffffffffffffffffff1673ffffffffffffffffffffffffffffffffffffffff1681526020019081526020016000205490506000600160008473ffffffffffffffffffffffffffffffffffffffff1673ffffffffffffffffffffffffffffffffffffffff1681526020019081526020016000208190555061126a818373ffffffffffffffffffffffffffffffffffffffff1661135690919063ffffffff16565b8173ffffffffffffffffffffffffffffffffffffffff167f7084f5476618d8e60b11ef0d7d3f06914655adb8793e28ff7f018d4c76d505d5826040516112b09190611d1b565b60405180910390a25050565b6000808373ffffffffffffffffffffffffffffffffffffffff16635d5f221f846040518263ffffffff1660e01b81526004016112f89190611cf9565b602060405180830381600087803b15801561131257600080fd5b505af1158015611326573d6000803e3d6000fd5b505050506040513d601f19601f8201168201806040525081019061134a9190611828565b90508091505092915050565b80471015611399576040517f08c379a000000000000000000000000000000000000000000000000000000000815260040161139090611c39565b60405180910390fd5b60008273ffffffffffffffffffffffffffffffffffffffff16826040516113bf90611b1b565b60006040518083038185875af1925050503d80600081146113fc576040519150601f19603f3d011682016040523d82523d6000602084013e611401565b606091505b5050905080611445576040517f08c379a000000000000000000000000000000000000000000000000000000000815260040161143c90611c19565b60405180910390fd5b505050565b611452611134565b73ffffffffffffffffffffffffffffffffffffffff16611470610960565b73ffffffffffffffffffffffffffffffffffffffff16146114c6576040517f08c379a00000000000000000000000000000000000000000000000000000000081526004016114bd90611cb9565b60405180910390fd5b600034905080600160008473ffffffffffffffffffffffffffffffffffffffff1673ffffffffffffffffffffffffffffffffffffffff168152602001908152602001600020546115169190611dc4565b600160008473ffffffffffffffffffffffffffffffffffffffff1673ffffffffffffffffffffffffffffffffffffffff168152602001908152602001600020819055508173ffffffffffffffffffffffffffffffffffffffff167f2da466a7b24304f47e87fa2e1e5a81b9831ce54fec19055ce277ca2f39ba42c48260405161159f9190611d1b565b60405180910390a25050565b8280546115b790611f00565b90600052602060002090601f0160209004810192826115d95760008555611620565b82601f106115f257805160ff1916838001178555611620565b82800160010185558215611620579182015b8281111561161f578251825591602001919060010190611604565b5b50905061162d9190611631565b5090565b5b8082111561164a576000816000905550600101611632565b5090565b600061166161165c84611d5b565b611d36565b90508281526020810184848401111561167957600080fd5b611684848285611ebe565b509392505050565b60008135905061169b816122d6565b92915050565b6000813590506116b0816122ed565b92915050565b6000815190506116c581612304565b92915050565b600082601f8301126116dc57600080fd5b81356116ec84826020860161164e565b91505092915050565b60006060828403121561170757600080fd5b6117116060611d36565b9050600082013567ffffffffffffffff81111561172d57600080fd5b611739848285016116cb565b600083015250602061174d8482850161176d565b60208301525060406117618482850161176d565b60408301525092915050565b60008135905061177c8161231b565b92915050565b60006020828403121561179457600080fd5b60006117a28482850161168c565b91505092915050565b6000602082840312156117bd57600080fd5b60006117cb848285016116a1565b91505092915050565b600080604083850312156117e757600080fd5b60006117f5858286016116a1565b925050602083013567ffffffffffffffff81111561181257600080fd5b61181e858286016116f5565b9150509250929050565b60006020828403121561183a57600080fd5b6000611848848285016116b6565b91505092915050565b60006020828403121561186357600080fd5b600082013567ffffffffffffffff81111561187d57600080fd5b611889848285016116cb565b91505092915050565b61189b81611e2c565b82525050565b6118aa81611e1a565b82525050565b6118b981611e3e565b82525050565b6118c881611e9a565b82525050565b6118d781611eac565b82525050565b60006118e882611d8c565b6118f28185611da2565b9350611902818560208601611ecd565b61190b8161201f565b840191505092915050565b600061192182611d8c565b61192b8185611db3565b935061193b818560208601611ecd565b6119448161201f565b840191505092915050565b600061195c603883611db3565b915061196782612030565b604082019050919050565b600061197f602683611db3565b915061198a8261207f565b604082019050919050565b60006119a2603a83611db3565b91506119ad826120ce565b604082019050919050565b60006119c5601d83611db3565b91506119d08261211d565b602082019050919050565b60006119e8602b83611db3565b91506119f382612146565b604082019050919050565b6000611a0b603383611db3565b9150611a1682612195565b604082019050919050565b6000611a2e602983611db3565b9150611a39826121e4565b604082019050919050565b6000611a51602083611db3565b9150611a5c82612233565b602082019050919050565b6000611a74600083611d97565b9150611a7f8261225c565b600082019050919050565b6000611a97603283611db3565b9150611aa28261225f565b604082019050919050565b60006060830160008301518482036000860152611aca82826118dd565b9150506020830151611adf6020860182611afd565b506040830151611af26040860182611afd565b508091505092915050565b611b0681611e90565b82525050565b611b1581611e90565b82525050565b6000611b2682611a67565b9150819050919050565b6000602082019050611b4560008301846118a1565b92915050565b6000602082019050611b606000830184611892565b92915050565b6000602082019050611b7b60008301846118b0565b92915050565b6000602082019050611b9660008301846118bf565b92915050565b6000602082019050611bb160008301846118ce565b92915050565b60006020820190508181036000830152611bd18184611916565b905092915050565b60006020820190508181036000830152611bf28161194f565b9050919050565b60006020820190508181036000830152611c1281611972565b9050919050565b60006020820190508181036000830152611c3281611995565b9050919050565b60006020820190508181036000830152611c52816119b8565b9050919050565b60006020820190508181036000830152611c72816119db565b9050919050565b60006020820190508181036000830152611c92816119fe565b9050919050565b60006020820190508181036000830152611cb281611a21565b9050919050565b60006020820190508181036000830152611cd281611a44565b9050919050565b60006020820190508181036000830152611cf281611a8a565b9050919050565b60006020820190508181036000830152611d138184611aad565b905092915050565b6000602082019050611d306000830184611b0c565b92915050565b6000611d40611d51565b9050611d4c8282611f32565b919050565b6000604051905090565b600067ffffffffffffffff821115611d7657611d75611ff0565b5b611d7f8261201f565b9050602081019050919050565b600081519050919050565b600081905092915050565b600082825260208201905092915050565b600082825260208201905092915050565b6000611dcf82611e90565b9150611dda83611e90565b9250827fffffffffffffffffffffffffffffffffffffffffffffffffffffffffffffffff03821115611e0f57611e0e611f63565b5b828201905092915050565b6000611e2582611e70565b9050919050565b6000611e3782611e70565b9050919050565b60008115159050919050565b6000819050611e58826122ae565b919050565b6000819050611e6b826122c2565b919050565b600073ffffffffffffffffffffffffffffffffffffffff82169050919050565b6000819050919050565b6000611ea582611e4a565b9050919050565b6000611eb782611e5d565b9050919050565b82818337600083830152505050565b60005b83811015611eeb578082015181840152602081019050611ed0565b83811115611efa576000848401525b50505050565b60006002820490506001821680611f1857607f821691505b60208210811415611f2c57611f2b611fc1565b5b50919050565b611f3b8261201f565b810181811067ffffffffffffffff82111715611f5a57611f59611ff0565b5b80604052505050565b7f4e487b7100000000000000000000000000000000000000000000000000000000600052601160045260246000fd5b7f4e487b7100000000000000000000000000000000000000000000000000000000600052602160045260246000fd5b7f4e487b7100000000000000000000000000000000000000000000000000000000600052602260045260246000fd5b7f4e487b7100000000000000000000000000000000000000000000000000000000600052604160045260246000fd5b6000601f19601f8301169050919050565b7f526566756e64457363726f773a2062656e65666963696172792063616e206f6e60008201527f6c79207769746864726177207768696c6520636c6f7365640000000000000000602082015250565b7f4f776e61626c653a206e6577206f776e657220697320746865207a65726f206160008201527f6464726573730000000000000000000000000000000000000000000000000000602082015250565b7f416464726573733a20756e61626c6520746f2073656e642076616c75652c207260008201527f6563697069656e74206d61792068617665207265766572746564000000000000602082015250565b7f416464726573733a20696e73756666696369656e742062616c616e6365000000600082015250565b7f526566756e64457363726f773a2063616e206f6e6c79206465706f736974207760008201527f68696c6520616374697665000000000000000000000000000000000000000000602082015250565b7f436f6e646974696f6e616c457363726f773a207061796565206973206e6f742060008201527f616c6c6f77656420746f20776974686472617700000000000000000000000000602082015250565b7f526566756e64457363726f773a2063616e206f6e6c7920636c6f73652077686960008201527f6c65206163746976650000000000000000000000000000000000000000000000602082015250565b7f4f776e61626c653a2063616c6c6572206973206e6f7420746865206f776e6572600082015250565b50565b7f526566756e64457363726f773a2063616e206f6e6c7920656e61626c6520726560008201527f66756e6473207768696c65206163746976650000000000000000000000000000602082015250565b600381106122bf576122be611f92565b5b50565b600781106122d3576122d2611f92565b5b50565b6122df81611e1a565b81146122ea57600080fd5b50565b6122f681611e2c565b811461230157600080fd5b50565b61230d81611e3e565b811461231857600080fd5b50565b61232481611e90565b811461232f57600080fd5b5056fea2646970667358221220f8dcf175b2ebbb4daadf3dda7573da514c25761759d4ef25ecbba7f6891b29a564736f6c63430008040033608060405260405180602001604052806000815250600690805190602001906200002b929190620002e6565b503480156200003957600080fd5b50604051620053413803806200534183398181016040528101906200005f9190620003bb565b80600062000072620002de60201b60201c565b9050806000806101000a81548173ffffffffffffffffffffffffffffffffffffffff021916908373ffffffffffffffffffffffffffffffffffffffff16021790555081600160006101000a81548173ffffffffffffffffffffffffffffffffffffffff021916908373ffffffffffffffffffffffffffffffffffffffff160217905550600160009054906101000a900473ffffffffffffffffffffffffffffffffffffffff1673ffffffffffffffffffffffffffffffffffffffff16600073ffffffffffffffffffffffffffffffffffffffff167f8be0079c531659141344cd1fd0a4f28419497f9722a3daafe3b4186f6b6457e060405160405180910390a3505081604051620001839062000377565b6200018f91906200043b565b604051809103906000f080158015620001ac573d6000803e3d6000fd5b50600260006101000a81548173ffffffffffffffffffffffffffffffffffffffff021916908373ffffffffffffffffffffffffffffffffffffffff16021790555081600560006101000a81548173ffffffffffffffffffffffffffffffffffffffff021916908373ffffffffffffffffffffffffffffffffffffffff16021790555080600460006101000a81548173ffffffffffffffffffffffffffffffffffffffff021916908373ffffffffffffffffffffffffffffffffffffffff1602179055508073ffffffffffffffffffffffffffffffffffffffff168273ffffffffffffffffffffffffffffffffffffffff167f4dc5f0070db7372507a32b040d6e05e71b6aef1067ae5203e2ffefa98ca4cac230604051620002ce91906200041e565b60405180910390a350506200051f565b600033905090565b828054620002f490620004a0565b90600052602060002090601f01602090048101928262000318576000855562000364565b82601f106200033357805160ff191683800117855562000364565b8280016001018555821562000364579182015b828111156200036357825182559160200191906001019062000346565b5b50905062000373919062000385565b5090565b611b4580620037fc83390190565b5b80821115620003a057600081600090555060010162000386565b5090565b600081519050620003b58162000505565b92915050565b60008060408385031215620003cf57600080fd5b6000620003df85828601620003a4565b9250506020620003f285828601620003a4565b9150509250929050565b62000407816200046c565b82525050565b620004188162000458565b82525050565b60006020820190506200043560008301846200040d565b92915050565b6000602082019050620004526000830184620003fc565b92915050565b6000620004658262000480565b9050919050565b6000620004798262000480565b9050919050565b600073ffffffffffffffffffffffffffffffffffffffff82169050919050565b60006002820490506001821680620004b957607f821691505b60208210811415620004d057620004cf620004d6565b5b50919050565b7f4e487b7100000000000000000000000000000000000000000000000000000000600052602260045260246000fd5b62000510816200046c565b81146200051c57600080fd5b50565b6132cd806200052f6000396000f3fe608060405260043610620000d45760003560e01c8063715018a6116200008b57806398da87b4116200006157806398da87b4146200023b578063b48691e01462000255578063b93738c01462000285578063f2fde38b14620002b357620000d4565b8063715018a614620001d15780638428dccc14620001eb5780638da5cb5b146200020b57620000d4565b806303f5d25b14620000d957806335e9281914620000f35780634d547ada14620001215780635db28c6614620001515780636628c1d114620001815780637053e7e014620001a1575b600080fd5b348015620000e657600080fd5b50620000f1620002e1565b005b3480156200010057600080fd5b506200011f6004803603810190620001199190620012db565b620003ea565b005b3480156200012e57600080fd5b506200013962000489565b604051620001489190620013f8565b60405180910390f35b3480156200015e57600080fd5b5062000169620004b3565b6040516200017891906200144f565b60405180910390f35b6200019f600480360381019062000199919062001283565b620005d0565b005b348015620001ae57600080fd5b50620001b962000713565b604051620001c8919062001495565b60405180910390f35b348015620001de57600080fd5b50620001e9620008f1565b005b62000209600480360381019062000203919062001283565b62000a35565b005b3480156200021857600080fd5b506200022362000b78565b604051620002329190620013f8565b60405180910390f35b3480156200024857600080fd5b506200025362000ba1565b005b3480156200026257600080fd5b506200026d62000caa565b6040516200027c919062001495565b60405180910390f35b3480156200029257600080fd5b50620002b16004803603810190620002ab919062001283565b62000e88565b005b348015620002c057600080fd5b50620002df6004803603810190620002d9919062001257565b62000f80565b005b620002eb620010c3565b73ffffffffffffffffffffffffffffffffffffffff166200030b62000b78565b73ffffffffffffffffffffffffffffffffffffffff161462000364576040517f08c379a00000000000000000000000000000000000000000000000000000000081526004016200035b9062001473565b60405180910390fd5b600260009054906101000a900473ffffffffffffffffffffffffffffffffffffffff1673ffffffffffffffffffffffffffffffffffffffff16639af6549a6040518163ffffffff1660e01b8152600401600060405180830381600087803b158015620003cf57600080fd5b505af1158015620003e4573d6000803e3d6000fd5b50505050565b620003f462000489565b73ffffffffffffffffffffffffffffffffffffffff166200041462000489565b73ffffffffffffffffffffffffffffffffffffffff16146200046d576040517f08c379a0000000000000000000000000000000000000000000000000000000008152600401620004649062001473565b60405180910390fd5b806006908051906020019062000485929190620010cb565b5050565b6000600160009054906101000a900473ffffffffffffffffffffffffffffffffffffffff16905090565b6060620004bf620010c3565b73ffffffffffffffffffffffffffffffffffffffff16620004df62000b78565b73ffffffffffffffffffffffffffffffffffffffff161462000538576040517f08c379a00000000000000000000000000000000000000000000000000000000081526004016200052f9062001473565b60405180910390fd5b60068054620005479062001600565b80601f0160208091040260200160405190810160405280929190818152602001828054620005759062001600565b8015620005c65780601f106200059a57610100808354040283529160200191620005c6565b820191906000526020600020905b815481529060010190602001808311620005a857829003601f168201915b5050505050905090565b620005da620010c3565b73ffffffffffffffffffffffffffffffffffffffff16620005fa62000b78565b73ffffffffffffffffffffffffffffffffffffffff161462000653576040517f08c379a00000000000000000000000000000000000000000000000000000000081526004016200064a9062001473565b60405180910390fd5b600260009054906101000a900473ffffffffffffffffffffffffffffffffffffffff1673ffffffffffffffffffffffffffffffffffffffff166351cff8d9826040518263ffffffff1660e01b8152600401620006b0919062001432565b600060405180830381600087803b158015620006cb57600080fd5b505af1158015620006e0573d6000803e3d6000fd5b505050507f7a15267f0526551b50e6c288544c1ac87f16e7837002acfb601cf247ec718d4e60405160405180910390a150565b60006200071f620010c3565b73ffffffffffffffffffffffffffffffffffffffff166200073f62000b78565b73ffffffffffffffffffffffffffffffffffffffff161462000798576040517f08c379a00000000000000000000000000000000000000000000000000000000081526004016200078f9062001473565b60405180910390fd5b600360009054906101000a900473ffffffffffffffffffffffffffffffffffffffff1673ffffffffffffffffffffffffffffffffffffffff1663e3a9db1a600360009054906101000a900473ffffffffffffffffffffffffffffffffffffffff1673ffffffffffffffffffffffffffffffffffffffff166338af3eed6040518163ffffffff1660e01b815260040160206040518083038186803b1580156200083f57600080fd5b505afa15801562000854573d6000803e3d6000fd5b505050506040513d601f19601f820116820180604052508101906200087a9190620012af565b6040518263ffffffff1660e01b815260040162000898919062001415565b60206040518083038186803b158015620008b157600080fd5b505afa158015620008c6573d6000803e3d6000fd5b505050506040513d601f19601f82011682018060405250810190620008ec919062001320565b905090565b620008fb62000489565b73ffffffffffffffffffffffffffffffffffffffff166200091b62000489565b73ffffffffffffffffffffffffffffffffffffffff161462000974576040517f08c379a00000000000000000000000000000000000000000000000000000000081526004016200096b9062001473565b60405180910390fd5b600073ffffffffffffffffffffffffffffffffffffffff16600160009054906101000a900473ffffffffffffffffffffffffffffffffffffffff1673ffffffffffffffffffffffffffffffffffffffff167f8be0079c531659141344cd1fd0a4f28419497f9722a3daafe3b4186f6b6457e060405160405180910390a36000600160006101000a81548173ffffffffffffffffffffffffffffffffffffffff021916908373ffffffffffffffffffffffffffffffffffffffff160217905550565b62000a3f620010c3565b73ffffffffffffffffffffffffffffffffffffffff1662000a5f62000b78565b73ffffffffffffffffffffffffffffffffffffffff161462000ab8576040517f08c379a000000000000000000000000000000000000000000000000000000000815260040162000aaf9062001473565b60405180910390fd5b600360009054906101000a900473ffffffffffffffffffffffffffffffffffffffff1673ffffffffffffffffffffffffffffffffffffffff166351cff8d9826040518263ffffffff1660e01b815260040162000b15919062001432565b600060405180830381600087803b15801562000b3057600080fd5b505af115801562000b45573d6000803e3d6000fd5b505050507fb24b6304585135966b8217241802ddd6fe969a26cc5f252ebe153be87a6c007a60405160405180910390a150565b60008060009054906101000a900473ffffffffffffffffffffffffffffffffffffffff16905090565b62000bab620010c3565b73ffffffffffffffffffffffffffffffffffffffff1662000bcb62000b78565b73ffffffffffffffffffffffffffffffffffffffff161462000c24576040517f08c379a000000000000000000000000000000000000000000000000000000000815260040162000c1b9062001473565b60405180910390fd5b600360009054906101000a900473ffffffffffffffffffffffffffffffffffffffff1673ffffffffffffffffffffffffffffffffffffffff16639af6549a6040518163ffffffff1660e01b8152600401600060405180830381600087803b15801562000c8f57600080fd5b505af115801562000ca4573d6000803e3d6000fd5b50505050565b600062000cb6620010c3565b73ffffffffffffffffffffffffffffffffffffffff1662000cd662000b78565b73ffffffffffffffffffffffffffffffffffffffff161462000d2f576040517f08c379a000000000000000000000000000000000000000000000000000000000815260040162000d269062001473565b60405180910390fd5b600260009054906101000a900473ffffffffffffffffffffffffffffffffffffffff1673ffffffffffffffffffffffffffffffffffffffff1663e3a9db1a600260009054906101000a900473ffffffffffffffffffffffffffffffffffffffff1673ffffffffffffffffffffffffffffffffffffffff166338af3eed6040518163ffffffff1660e01b815260040160206040518083038186803b15801562000dd657600080fd5b505afa15801562000deb573d6000803e3d6000fd5b505050506040513d601f19601f8201168201806040525081019062000e119190620012af565b6040518263ffffffff1660e01b815260040162000e2f919062001415565b60206040518083038186803b15801562000e4857600080fd5b505afa15801562000e5d573d6000803e3d6000fd5b505050506040513d601f19601f8201168201806040525081019062000e83919062001320565b905090565b8060405162000e97906200115c565b62000ea3919062001432565b604051809103906000f08015801562000ec0573d6000803e3d6000fd5b50600360006101000a81548173ffffffffffffffffffffffffffffffffffffffff021916908373ffffffffffffffffffffffffffffffffffffffff1602179055508073ffffffffffffffffffffffffffffffffffffffff16600460009054906101000a900473ffffffffffffffffffffffffffffffffffffffff1673ffffffffffffffffffffffffffffffffffffffff167f8be0079c531659141344cd1fd0a4f28419497f9722a3daafe3b4186f6b6457e060405160405180910390a350565b62000f8a620010c3565b73ffffffffffffffffffffffffffffffffffffffff1662000faa62000b78565b73ffffffffffffffffffffffffffffffffffffffff161462001003576040517f08c379a000000000000000000000000000000000000000000000000000000000815260040162000ffa9062001473565b60405180910390fd5b8073ffffffffffffffffffffffffffffffffffffffff16600160009054906101000a900473ffffffffffffffffffffffffffffffffffffffff1673ffffffffffffffffffffffffffffffffffffffff167f8be0079c531659141344cd1fd0a4f28419497f9722a3daafe3b4186f6b6457e060405160405180910390a380600160006101000a81548173ffffffffffffffffffffffffffffffffffffffff021916908373ffffffffffffffffffffffffffffffffffffffff16021790555050565b600033905090565b828054620010d99062001600565b90600052602060002090601f016020900481019282620010fd576000855562001149565b82601f106200111857805160ff191683800117855562001149565b8280016001018555821562001149579182015b82811115620011485782518255916020019190600101906200112b565b5b5090506200115891906200116a565b5090565b611b45806200175383390190565b5b80821115620011855760008160009055506001016200116b565b5090565b6000620011a06200119a84620014db565b620014b2565b905082815260208101848484011115620011b957600080fd5b620011c6848285620015bb565b509392505050565b600081359050620011df8162001704565b92915050565b600081359050620011f6816200171e565b92915050565b6000815190506200120d816200171e565b92915050565b600082601f8301126200122557600080fd5b81356200123784826020860162001189565b91505092915050565b600081519050620012518162001738565b92915050565b6000602082840312156200126a57600080fd5b60006200127a84828501620011ce565b91505092915050565b6000602082840312156200129657600080fd5b6000620012a684828501620011e5565b91505092915050565b600060208284031215620012c257600080fd5b6000620012d284828501620011fc565b91505092915050565b600060208284031215620012ee57600080fd5b600082013567ffffffffffffffff8111156200130957600080fd5b620013178482850162001213565b91505092915050565b6000602082840312156200133357600080fd5b6000620013438482850162001240565b91505092915050565b62001357816200157f565b82525050565b620013688162001541565b82525050565b62001379816200152d565b82525050565b60006200138c8262001511565b6200139881856200151c565b9350620013aa818560208601620015ca565b620013b581620016ca565b840191505092915050565b6000620013cf6020836200151c565b9150620013dc82620016db565b602082019050919050565b620013f28162001575565b82525050565b60006020820190506200140f60008301846200136e565b92915050565b60006020820190506200142c60008301846200134c565b92915050565b60006020820190506200144960008301846200135d565b92915050565b600060208201905081810360008301526200146b81846200137f565b905092915050565b600060208201905081810360008301526200148e81620013c0565b9050919050565b6000602082019050620014ac6000830184620013e7565b92915050565b6000620014be620014d1565b9050620014cc828262001636565b919050565b6000604051905090565b600067ffffffffffffffff821115620014f957620014f86200169b565b5b6200150482620016ca565b9050602081019050919050565b600081519050919050565b600082825260208201905092915050565b60006200153a8262001555565b9050919050565b60006200154e8262001555565b9050919050565b600073ffffffffffffffffffffffffffffffffffffffff82169050919050565b6000819050919050565b60006200158c8262001593565b9050919050565b6000620015a082620015a7565b9050919050565b6000620015b48262001555565b9050919050565b82818337600083830152505050565b60005b83811015620015ea578082015181840152602081019050620015cd565b83811115620015fa576000848401525b50505050565b600060028204905060018216806200161957607f821691505b6020821081141562001630576200162f6200166c565b5b50919050565b6200164182620016ca565b810181811067ffffffffffffffff821117156200166357620016626200169b565b5b80604052505050565b7f4e487b7100000000000000000000000000000000000000000000000000000000600052602260045260246000fd5b7f4e487b7100000000000000000000000000000000000000000000000000000000600052604160045260246000fd5b6000601f19601f8301169050919050565b7f4f776e61626c653a2063616c6c6572206973206e6f7420746865206f776e6572600082015250565b6200170f816200152d565b81146200171b57600080fd5b50565b620017298162001541565b81146200173557600080fd5b50565b620017438162001575565b81146200174f57600080fd5b5056fe60a06040523480156200001157600080fd5b5060405162001b4538038062001b45833981810160405281019062000037919062000209565b600062000049620001ea60201b60201c565b9050806000806101000a81548173ffffffffffffffffffffffffffffffffffffffff021916908373ffffffffffffffffffffffffffffffffffffffff1602179055508073ffffffffffffffffffffffffffffffffffffffff16600073ffffffffffffffffffffffffffffffffffffffff167f8be0079c531659141344cd1fd0a4f28419497f9722a3daafe3b4186f6b6457e060405160405180910390a350600073ffffffffffffffffffffffffffffffffffffffff168173ffffffffffffffffffffffffffffffffffffffff1614156200015a576040517f08c379a000000000000000000000000000000000000000000000000000000000815260040162000151906200025c565b60405180910390fd5b8073ffffffffffffffffffffffffffffffffffffffff1660808173ffffffffffffffffffffffffffffffffffffffff1660601b815250506000600260006101000a81548160ff02191690836002811115620001de577f4e487b7100000000000000000000000000000000000000000000000000000000600052602160045260246000fd5b0217905550506200032c565b600033905090565b600081519050620002038162000312565b92915050565b6000602082840312156200021c57600080fd5b60006200022c84828501620001f2565b91505092915050565b600062000244602d836200027e565b91506200025182620002c3565b604082019050919050565b60006020820190508181036000830152620002778162000235565b9050919050565b600082825260208201905092915050565b60006200029c82620002a3565b9050919050565b600073ffffffffffffffffffffffffffffffffffffffff82169050919050565b7f526566756e64457363726f773a2062656e65666963696172792069732074686560008201527f207a65726f206164647265737300000000000000000000000000000000000000602082015250565b6200031d816200028f565b81146200032957600080fd5b50565b60805160601c6117fa6200034b600039600061027501526117fa6000f3fe6080604052600436106100a75760003560e01c80638da5cb5b116100645780638da5cb5b146101825780639af6549a146101ad578063c19d93fb146101c4578063e3a9db1a146101ef578063f2fde38b1461022c578063f340fa0114610255576100a7565b806338af3eed146100ac57806343d726d6146100d757806351cff8d9146100ee578063685ca19414610117578063715018a6146101545780638c52dc411461016b575b600080fd5b3480156100b857600080fd5b506100c1610271565b6040516100ce9190611229565b60405180910390f35b3480156100e357600080fd5b506100ec610299565b005b3480156100fa57600080fd5b5061011560048036038101906101109190611027565b61044d565b005b34801561012357600080fd5b5061013e60048036038101906101399190610ffe565b6104a1565b60405161014b9190611244565b60405180910390f35b34801561016057600080fd5b50610169610525565b005b34801561017757600080fd5b5061018061065f565b005b34801561018e57600080fd5b50610197610814565b6040516101a4919061120e565b60405180910390f35b3480156101b957600080fd5b506101c261083d565b005b3480156101d057600080fd5b506101d9610928565b6040516101e6919061125f565b60405180910390f35b3480156101fb57600080fd5b5061021660048036038101906102119190610ffe565b61093f565b604051610223919061139a565b60405180910390f35b34801561023857600080fd5b50610253600480360381019061024e9190610ffe565b610988565b005b61026f600480360381019061026a9190610ffe565b610b31565b005b60007f0000000000000000000000000000000000000000000000000000000000000000905090565b6102a1610bf7565b73ffffffffffffffffffffffffffffffffffffffff166102bf610814565b73ffffffffffffffffffffffffffffffffffffffff1614610315576040517f08c379a000000000000000000000000000000000000000000000000000000000815260040161030c9061135a565b60405180910390fd5b6000600281111561034f577f4e487b7100000000000000000000000000000000000000000000000000000000600052602160045260246000fd5b610357610928565b600281111561038f577f4e487b7100000000000000000000000000000000000000000000000000000000600052602160045260246000fd5b146103cf576040517f08c379a00000000000000000000000000000000000000000000000000000000081526004016103c69061133a565b60405180910390fd5b60028060006101000a81548160ff0219169083600281111561041a577f4e487b7100000000000000000000000000000000000000000000000000000000600052602160045260246000fd5b02179055507f088672c3a6e342f7cd94a65ba63b79df24a8973927b4d05d803c44bbf787d12f60405160405180910390a1565b610456816104a1565b610495576040517f08c379a000000000000000000000000000000000000000000000000000000000815260040161048c9061131a565b60405180910390fd5b61049e81610bff565b50565b6000600160028111156104dd577f4e487b7100000000000000000000000000000000000000000000000000000000600052602160045260246000fd5b6104e5610928565b600281111561051d577f4e487b7100000000000000000000000000000000000000000000000000000000600052602160045260246000fd5b149050919050565b61052d610bf7565b73ffffffffffffffffffffffffffffffffffffffff1661054b610814565b73ffffffffffffffffffffffffffffffffffffffff16146105a1576040517f08c379a00000000000000000000000000000000000000000000000000000000081526004016105989061135a565b60405180910390fd5b600073ffffffffffffffffffffffffffffffffffffffff1660008054906101000a900473ffffffffffffffffffffffffffffffffffffffff1673ffffffffffffffffffffffffffffffffffffffff167f8be0079c531659141344cd1fd0a4f28419497f9722a3daafe3b4186f6b6457e060405160405180910390a360008060006101000a81548173ffffffffffffffffffffffffffffffffffffffff021916908373ffffffffffffffffffffffffffffffffffffffff160217905550565b610667610bf7565b73ffffffffffffffffffffffffffffffffffffffff16610685610814565b73ffffffffffffffffffffffffffffffffffffffff16146106db576040517f08c379a00000000000000000000000000000000000000000000000000000000081526004016106d29061135a565b60405180910390fd5b60006002811115610715577f4e487b7100000000000000000000000000000000000000000000000000000000600052602160045260246000fd5b61071d610928565b6002811115610755577f4e487b7100000000000000000000000000000000000000000000000000000000600052602160045260246000fd5b14610795576040517f08c379a000000000000000000000000000000000000000000000000000000000815260040161078c9061137a565b60405180910390fd5b6001600260006101000a81548160ff021916908360028111156107e1577f4e487b7100000000000000000000000000000000000000000000000000000000600052602160045260246000fd5b02179055507f599d8e5a83cffb867d051598c4d70e805d59802d8081c1c7d6dffc5b6aca2b8960405160405180910390a1565b60008060009054906101000a900473ffffffffffffffffffffffffffffffffffffffff16905090565b600280811115610876577f4e487b7100000000000000000000000000000000000000000000000000000000600052602160045260246000fd5b61087e610928565b60028111156108b6577f4e487b7100000000000000000000000000000000000000000000000000000000600052602160045260246000fd5b146108f6576040517f08c379a00000000000000000000000000000000000000000000000000000000081526004016108ed9061127a565b60405180910390fd5b61092647610902610271565b73ffffffffffffffffffffffffffffffffffffffff16610d7f90919063ffffffff16565b565b6000600260009054906101000a900460ff16905090565b6000600160008373ffffffffffffffffffffffffffffffffffffffff1673ffffffffffffffffffffffffffffffffffffffff168152602001908152602001600020549050919050565b610990610bf7565b73ffffffffffffffffffffffffffffffffffffffff166109ae610814565b73ffffffffffffffffffffffffffffffffffffffff1614610a04576040517f08c379a00000000000000000000000000000000000000000000000000000000081526004016109fb9061135a565b60405180910390fd5b600073ffffffffffffffffffffffffffffffffffffffff168173ffffffffffffffffffffffffffffffffffffffff161415610a74576040517f08c379a0000000000000000000000000000000000000000000000000000000008152600401610a6b9061129a565b60405180910390fd5b8073ffffffffffffffffffffffffffffffffffffffff1660008054906101000a900473ffffffffffffffffffffffffffffffffffffffff1673ffffffffffffffffffffffffffffffffffffffff167f8be0079c531659141344cd1fd0a4f28419497f9722a3daafe3b4186f6b6457e060405160405180910390a3806000806101000a81548173ffffffffffffffffffffffffffffffffffffffff021916908373ffffffffffffffffffffffffffffffffffffffff16021790555050565b60006002811115610b6b577f4e487b7100000000000000000000000000000000000000000000000000000000600052602160045260246000fd5b610b73610928565b6002811115610bab577f4e487b7100000000000000000000000000000000000000000000000000000000600052602160045260246000fd5b14610beb576040517f08c379a0000000000000000000000000000000000000000000000000000000008152600401610be2906112fa565b60405180910390fd5b610bf481610e73565b50565b600033905090565b610c07610bf7565b73ffffffffffffffffffffffffffffffffffffffff16610c25610814565b73ffffffffffffffffffffffffffffffffffffffff1614610c7b576040517f08c379a0000000000000000000000000000000000000000000000000000000008152600401610c729061135a565b60405180910390fd5b6000600160008373ffffffffffffffffffffffffffffffffffffffff1673ffffffffffffffffffffffffffffffffffffffff1681526020019081526020016000205490506000600160008473ffffffffffffffffffffffffffffffffffffffff1673ffffffffffffffffffffffffffffffffffffffff16815260200190815260200160002081905550610d2d818373ffffffffffffffffffffffffffffffffffffffff16610d7f90919063ffffffff16565b8173ffffffffffffffffffffffffffffffffffffffff167f7084f5476618d8e60b11ef0d7d3f06914655adb8793e28ff7f018d4c76d505d582604051610d73919061139a565b60405180910390a25050565b80471015610dc2576040517f08c379a0000000000000000000000000000000000000000000000000000000008152600401610db9906112da565b60405180910390fd5b60008273ffffffffffffffffffffffffffffffffffffffff1682604051610de8906111f9565b60006040518083038185875af1925050503d8060008114610e25576040519150601f19603f3d011682016040523d82523d6000602084013e610e2a565b606091505b5050905080610e6e576040517f08c379a0000000000000000000000000000000000000000000000000000000008152600401610e65906112ba565b60405180910390fd5b505050565b610e7b610bf7565b73ffffffffffffffffffffffffffffffffffffffff16610e99610814565b73ffffffffffffffffffffffffffffffffffffffff1614610eef576040517f08c379a0000000000000000000000000000000000000000000000000000000008152600401610ee69061135a565b60405180910390fd5b600034905080600160008473ffffffffffffffffffffffffffffffffffffffff1673ffffffffffffffffffffffffffffffffffffffff16815260200190815260200160002054610f3f91906113d1565b600160008473ffffffffffffffffffffffffffffffffffffffff1673ffffffffffffffffffffffffffffffffffffffff168152602001908152602001600020819055508173ffffffffffffffffffffffffffffffffffffffff167f2da466a7b24304f47e87fa2e1e5a81b9831ce54fec19055ce277ca2f39ba42c482604051610fc8919061139a565b60405180910390a25050565b600081359050610fe381611796565b92915050565b600081359050610ff8816117ad565b92915050565b60006020828403121561101057600080fd5b600061101e84828501610fd4565b91505092915050565b60006020828403121561103957600080fd5b600061104784828501610fe9565b91505092915050565b61105981611439565b82525050565b61106881611427565b82525050565b6110778161144b565b82525050565b61108681611494565b82525050565b60006110996038836113c0565b91506110a482611504565b604082019050919050565b60006110bc6026836113c0565b91506110c782611553565b604082019050919050565b60006110df603a836113c0565b91506110ea826115a2565b604082019050919050565b6000611102601d836113c0565b915061110d826115f1565b602082019050919050565b6000611125602b836113c0565b91506111308261161a565b604082019050919050565b60006111486033836113c0565b915061115382611669565b604082019050919050565b600061116b6029836113c0565b9150611176826116b8565b604082019050919050565b600061118e6020836113c0565b915061119982611707565b602082019050919050565b60006111b16000836113b5565b91506111bc82611730565b600082019050919050565b60006111d46032836113c0565b91506111df82611733565b604082019050919050565b6111f38161148a565b82525050565b6000611204826111a4565b9150819050919050565b6000602082019050611223600083018461105f565b92915050565b600060208201905061123e6000830184611050565b92915050565b6000602082019050611259600083018461106e565b92915050565b6000602082019050611274600083018461107d565b92915050565b600060208201905081810360008301526112938161108c565b9050919050565b600060208201905081810360008301526112b3816110af565b9050919050565b600060208201905081810360008301526112d3816110d2565b9050919050565b600060208201905081810360008301526112f3816110f5565b9050919050565b6000602082019050818103600083015261131381611118565b9050919050565b600060208201905081810360008301526113338161113b565b9050919050565b600060208201905081810360008301526113538161115e565b9050919050565b6000602082019050818103600083015261137381611181565b9050919050565b60006020820190508181036000830152611393816111c7565b9050919050565b60006020820190506113af60008301846111ea565b92915050565b600081905092915050565b600082825260208201905092915050565b60006113dc8261148a565b91506113e78361148a565b9250827fffffffffffffffffffffffffffffffffffffffffffffffffffffffffffffffff0382111561141c5761141b6114a6565b5b828201905092915050565b60006114328261146a565b9050919050565b60006114448261146a565b9050919050565b60008115159050919050565b600081905061146582611782565b919050565b600073ffffffffffffffffffffffffffffffffffffffff82169050919050565b6000819050919050565b600061149f82611457565b9050919050565b7f4e487b7100000000000000000000000000000000000000000000000000000000600052601160045260246000fd5b7f4e487b7100000000000000000000000000000000000000000000000000000000600052602160045260246000fd5b7f526566756e64457363726f773a2062656e65666963696172792063616e206f6e60008201527f6c79207769746864726177207768696c6520636c6f7365640000000000000000602082015250565b7f4f776e61626c653a206e6577206f776e657220697320746865207a65726f206160008201527f6464726573730000000000000000000000000000000000000000000000000000602082015250565b7f416464726573733a20756e61626c6520746f2073656e642076616c75652c207260008201527f6563697069656e74206d61792068617665207265766572746564000000000000602082015250565b7f416464726573733a20696e73756666696369656e742062616c616e6365000000600082015250565b7f526566756e64457363726f773a2063616e206f6e6c79206465706f736974207760008201527f68696c6520616374697665000000000000000000000000000000000000000000602082015250565b7f436f6e646974696f6e616c457363726f773a207061796565206973206e6f742060008201527f616c6c6f77656420746f20776974686472617700000000000000000000000000602082015250565b7f526566756e64457363726f773a2063616e206f6e6c7920636c6f73652077686960008201527f6c65206163746976650000000000000000000000000000000000000000000000602082015250565b7f4f776e61626c653a2063616c6c6572206973206e6f7420746865206f776e6572600082015250565b50565b7f526566756e64457363726f773a2063616e206f6e6c7920656e61626c6520726560008201527f66756e6473207768696c65206163746976650000000000000000000000000000602082015250565b60038110611793576117926114d5565b5b50565b61179f81611427565b81146117aa57600080fd5b50565b6117b681611439565b81146117c157600080fd5b5056fea26469706673582212202c874623757cbf073b03ae03e3698c12d0d20396eb1d3464b8aff9a600760e6764736f6c63430008040033a2646970667358221220a1dfe950ef89efd12118afc53d9db8ffbc5fa6dde44a715e4170687db1bbcd0d64736f6c6343000804003360a06040523480156200001157600080fd5b5060405162001b4538038062001b45833981810160405281019062000037919062000209565b600062000049620001ea60201b60201c565b9050806000806101000a81548173ffffffffffffffffffffffffffffffffffffffff021916908373ffffffffffffffffffffffffffffffffffffffff1602179055508073ffffffffffffffffffffffffffffffffffffffff16600073ffffffffffffffffffffffffffffffffffffffff167f8be0079c531659141344cd1fd0a4f28419497f9722a3daafe3b4186f6b6457e060405160405180910390a350600073ffffffffffffffffffffffffffffffffffffffff168173ffffffffffffffffffffffffffffffffffffffff1614156200015a576040517f08c379a000000000000000000000000000000000000000000000000000000000815260040162000151906200025c565b60405180910390fd5b8073ffffffffffffffffffffffffffffffffffffffff1660808173ffffffffffffffffffffffffffffffffffffffff1660601b815250506000600260006101000a81548160ff02191690836002811115620001de577f4e487b7100000000000000000000000000000000000000000000000000000000600052602160045260246000fd5b0217905550506200032c565b600033905090565b600081519050620002038162000312565b92915050565b6000602082840312156200021c57600080fd5b60006200022c84828501620001f2565b91505092915050565b600062000244602d836200027e565b91506200025182620002c3565b604082019050919050565b60006020820190508181036000830152620002778162000235565b9050919050565b600082825260208201905092915050565b60006200029c82620002a3565b9050919050565b600073ffffffffffffffffffffffffffffffffffffffff82169050919050565b7f526566756e64457363726f773a2062656e65666963696172792069732074686560008201527f207a65726f206164647265737300000000000000000000000000000000000000602082015250565b6200031d816200028f565b81146200032957600080fd5b50565b60805160601c6117fa6200034b600039600061027501526117fa6000f3fe6080604052600436106100a75760003560e01c80638da5cb5b116100645780638da5cb5b146101825780639af6549a146101ad578063c19d93fb146101c4578063e3a9db1a146101ef578063f2fde38b1461022c578063f340fa0114610255576100a7565b806338af3eed146100ac57806343d726d6146100d757806351cff8d9146100ee578063685ca19414610117578063715018a6146101545780638c52dc411461016b575b600080fd5b3480156100b857600080fd5b506100c1610271565b6040516100ce9190611229565b60405180910390f35b3480156100e357600080fd5b506100ec610299565b005b3480156100fa57600080fd5b5061011560048036038101906101109190611027565b61044d565b005b34801561012357600080fd5b5061013e60048036038101906101399190610ffe565b6104a1565b60405161014b9190611244565b60405180910390f35b34801561016057600080fd5b50610169610525565b005b34801561017757600080fd5b5061018061065f565b005b34801561018e57600080fd5b50610197610814565b6040516101a4919061120e565b60405180910390f35b3480156101b957600080fd5b506101c261083d565b005b3480156101d057600080fd5b506101d9610928565b6040516101e6919061125f565b60405180910390f35b3480156101fb57600080fd5b5061021660048036038101906102119190610ffe565b61093f565b604051610223919061139a565b60405180910390f35b34801561023857600080fd5b50610253600480360381019061024e9190610ffe565b610988565b005b61026f600480360381019061026a9190610ffe565b610b31565b005b60007f0000000000000000000000000000000000000000000000000000000000000000905090565b6102a1610bf7565b73ffffffffffffffffffffffffffffffffffffffff166102bf610814565b73ffffffffffffffffffffffffffffffffffffffff1614610315576040517f08c379a000000000000000000000000000000000000000000000000000000000815260040161030c9061135a565b60405180910390fd5b6000600281111561034f577f4e487b7100000000000000000000000000000000000000000000000000000000600052602160045260246000fd5b610357610928565b600281111561038f577f4e487b7100000000000000000000000000000000000000000000000000000000600052602160045260246000fd5b146103cf576040517f08c379a00000000000000000000000000000000000000000000000000000000081526004016103c69061133a565b60405180910390fd5b60028060006101000a81548160ff0219169083600281111561041a577f4e487b7100000000000000000000000000000000000000000000000000000000600052602160045260246000fd5b02179055507f088672c3a6e342f7cd94a65ba63b79df24a8973927b4d05d803c44bbf787d12f60405160405180910390a1565b610456816104a1565b610495576040517f08c379a000000000000000000000000000000000000000000000000000000000815260040161048c9061131a565b60405180910390fd5b61049e81610bff565b50565b6000600160028111156104dd577f4e487b7100000000000000000000000000000000000000000000000000000000600052602160045260246000fd5b6104e5610928565b600281111561051d577f4e487b7100000000000000000000000000000000000000000000000000000000600052602160045260246000fd5b149050919050565b61052d610bf7565b73ffffffffffffffffffffffffffffffffffffffff1661054b610814565b73ffffffffffffffffffffffffffffffffffffffff16146105a1576040517f08c379a00000000000000000000000000000000000000000000000000000000081526004016105989061135a565b60405180910390fd5b600073ffffffffffffffffffffffffffffffffffffffff1660008054906101000a900473ffffffffffffffffffffffffffffffffffffffff1673ffffffffffffffffffffffffffffffffffffffff167f8be0079c531659141344cd1fd0a4f28419497f9722a3daafe3b4186f6b6457e060405160405180910390a360008060006101000a81548173ffffffffffffffffffffffffffffffffffffffff021916908373ffffffffffffffffffffffffffffffffffffffff160217905550565b610667610bf7565b73ffffffffffffffffffffffffffffffffffffffff16610685610814565b73ffffffffffffffffffffffffffffffffffffffff16146106db576040517f08c379a00000000000000000000000000000000000000000000000000000000081526004016106d29061135a565b60405180910390fd5b60006002811115610715577f4e487b7100000000000000000000000000000000000000000000000000000000600052602160045260246000fd5b61071d610928565b6002811115610755577f4e487b7100000000000000000000000000000000000000000000000000000000600052602160045260246000fd5b14610795576040517f08c379a000000000000000000000000000000000000000000000000000000000815260040161078c9061137a565b60405180910390fd5b6001600260006101000a81548160ff021916908360028111156107e1577f4e487b7100000000000000000000000000000000000000000000000000000000600052602160045260246000fd5b02179055507f599d8e5a83cffb867d051598c4d70e805d59802d8081c1c7d6dffc5b6aca2b8960405160405180910390a1565b60008060009054906101000a900473ffffffffffffffffffffffffffffffffffffffff16905090565b600280811115610876577f4e487b7100000000000000000000000000000000000000000000000000000000600052602160045260246000fd5b61087e610928565b60028111156108b6577f4e487b7100000000000000000000000000000000000000000000000000000000600052602160045260246000fd5b146108f6576040517f08c379a00000000000000000000000000000000000000000000000000000000081526004016108ed9061127a565b60405180910390fd5b61092647610902610271565b73ffffffffffffffffffffffffffffffffffffffff16610d7f90919063ffffffff16565b565b6000600260009054906101000a900460ff16905090565b6000600160008373ffffffffffffffffffffffffffffffffffffffff1673ffffffffffffffffffffffffffffffffffffffff168152602001908152602001600020549050919050565b610990610bf7565b73ffffffffffffffffffffffffffffffffffffffff166109ae610814565b73ffffffffffffffffffffffffffffffffffffffff1614610a04576040517f08c379a00000000000000000000000000000000000000000000000000000000081526004016109fb9061135a565b60405180910390fd5b600073ffffffffffffffffffffffffffffffffffffffff168173ffffffffffffffffffffffffffffffffffffffff161415610a74576040517f08c379a0000000000000000000000000000000000000000000000000000000008152600401610a6b9061129a565b60405180910390fd5b8073ffffffffffffffffffffffffffffffffffffffff1660008054906101000a900473ffffffffffffffffffffffffffffffffffffffff1673ffffffffffffffffffffffffffffffffffffffff167f8be0079c531659141344cd1fd0a4f28419497f9722a3daafe3b4186f6b6457e060405160405180910390a3806000806101000a81548173ffffffffffffffffffffffffffffffffffffffff021916908373ffffffffffffffffffffffffffffffffffffffff16021790555050565b60006002811115610b6b577f4e487b7100000000000000000000000000000000000000000000000000000000600052602160045260246000fd5b610b73610928565b6002811115610bab577f4e487b7100000000000000000000000000000000000000000000000000000000600052602160045260246000fd5b14610beb576040517f08c379a0000000000000000000000000000000000000000000000000000000008152600401610be2906112fa565b60405180910390fd5b610bf481610e73565b50565b600033905090565b610c07610bf7565b73ffffffffffffffffffffffffffffffffffffffff16610c25610814565b73ffffffffffffffffffffffffffffffffffffffff1614610c7b576040517f08c379a0000000000000000000000000000000000000000000000000000000008152600401610c729061135a565b60405180910390fd5b6000600160008373ffffffffffffffffffffffffffffffffffffffff1673ffffffffffffffffffffffffffffffffffffffff1681526020019081526020016000205490506000600160008473ffffffffffffffffffffffffffffffffffffffff1673ffffffffffffffffffffffffffffffffffffffff16815260200190815260200160002081905550610d2d818373ffffffffffffffffffffffffffffffffffffffff16610d7f90919063ffffffff16565b8173ffffffffffffffffffffffffffffffffffffffff167f7084f5476618d8e60b11ef0d7d3f06914655adb8793e28ff7f018d4c76d505d582604051610d73919061139a565b60405180910390a25050565b80471015610dc2576040517f08c379a0000000000000000000000000000000000000000000000000000000008152600401610db9906112da565b60405180910390fd5b60008273ffffffffffffffffffffffffffffffffffffffff1682604051610de8906111f9565b60006040518083038185875af1925050503d8060008114610e25576040519150601f19603f3d011682016040523d82523d6000602084013e610e2a565b606091505b5050905080610e6e576040517f08c379a0000000000000000000000000000000000000000000000000000000008152600401610e65906112ba565b60405180910390fd5b505050565b610e7b610bf7565b73ffffffffffffffffffffffffffffffffffffffff16610e99610814565b73ffffffffffffffffffffffffffffffffffffffff1614610eef576040517f08c379a0000000000000000000000000000000000000000000000000000000008152600401610ee69061135a565b60405180910390fd5b600034905080600160008473ffffffffffffffffffffffffffffffffffffffff1673ffffffffffffffffffffffffffffffffffffffff16815260200190815260200160002054610f3f91906113d1565b600160008473ffffffffffffffffffffffffffffffffffffffff1673ffffffffffffffffffffffffffffffffffffffff168152602001908152602001600020819055508173ffffffffffffffffffffffffffffffffffffffff167f2da466a7b24304f47e87fa2e1e5a81b9831ce54fec19055ce277ca2f39ba42c482604051610fc8919061139a565b60405180910390a25050565b600081359050610fe381611796565b92915050565b600081359050610ff8816117ad565b92915050565b60006020828403121561101057600080fd5b600061101e84828501610fd4565b91505092915050565b60006020828403121561103957600080fd5b600061104784828501610fe9565b91505092915050565b61105981611439565b82525050565b61106881611427565b82525050565b6110778161144b565b82525050565b61108681611494565b82525050565b60006110996038836113c0565b91506110a482611504565b604082019050919050565b60006110bc6026836113c0565b91506110c782611553565b604082019050919050565b60006110df603a836113c0565b91506110ea826115a2565b604082019050919050565b6000611102601d836113c0565b915061110d826115f1565b602082019050919050565b6000611125602b836113c0565b91506111308261161a565b604082019050919050565b60006111486033836113c0565b915061115382611669565b604082019050919050565b600061116b6029836113c0565b9150611176826116b8565b604082019050919050565b600061118e6020836113c0565b915061119982611707565b602082019050919050565b60006111b16000836113b5565b91506111bc82611730565b600082019050919050565b60006111d46032836113c0565b91506111df82611733565b604082019050919050565b6111f38161148a565b82525050565b6000611204826111a4565b9150819050919050565b6000602082019050611223600083018461105f565b92915050565b600060208201905061123e6000830184611050565b92915050565b6000602082019050611259600083018461106e565b92915050565b6000602082019050611274600083018461107d565b92915050565b600060208201905081810360008301526112938161108c565b9050919050565b600060208201905081810360008301526112b3816110af565b9050919050565b600060208201905081810360008301526112d3816110d2565b9050919050565b600060208201905081810360008301526112f3816110f5565b9050919050565b6000602082019050818103600083015261131381611118565b9050919050565b600060208201905081810360008301526113338161113b565b9050919050565b600060208201905081810360008301526113538161115e565b9050919050565b6000602082019050818103600083015261137381611181565b9050919050565b60006020820190508181036000830152611393816111c7565b9050919050565b60006020820190506113af60008301846111ea565b92915050565b600081905092915050565b600082825260208201905092915050565b60006113dc8261148a565b91506113e78361148a565b9250827fffffffffffffffffffffffffffffffffffffffffffffffffffffffffffffffff0382111561141c5761141b6114a6565b5b828201905092915050565b60006114328261146a565b9050919050565b60006114448261146a565b9050919050565b60008115159050919050565b600081905061146582611782565b919050565b600073ffffffffffffffffffffffffffffffffffffffff82169050919050565b6000819050919050565b600061149f82611457565b9050919050565b7f4e487b7100000000000000000000000000000000000000000000000000000000600052601160045260246000fd5b7f4e487b7100000000000000000000000000000000000000000000000000000000600052602160045260246000fd5b7f526566756e64457363726f773a2062656e65666963696172792063616e206f6e60008201527f6c79207769746864726177207768696c6520636c6f7365640000000000000000602082015250565b7f4f776e61626c653a206e6577206f776e657220697320746865207a65726f206160008201527f6464726573730000000000000000000000000000000000000000000000000000602082015250565b7f416464726573733a20756e61626c6520746f2073656e642076616c75652c207260008201527f6563697069656e74206d61792068617665207265766572746564000000000000602082015250565b7f416464726573733a20696e73756666696369656e742062616c616e6365000000600082015250565b7f526566756e64457363726f773a2063616e206f6e6c79206465706f736974207760008201527f68696c6520616374697665000000000000000000000000000000000000000000602082015250565b7f436f6e646974696f6e616c457363726f773a207061796565206973206e6f742060008201527f616c6c6f77656420746f20776974686472617700000000000000000000000000602082015250565b7f526566756e64457363726f773a2063616e206f6e6c7920636c6f73652077686960008201527f6c65206163746976650000000000000000000000000000000000000000000000602082015250565b7f4f776e61626c653a2063616c6c6572206973206e6f7420746865206f776e6572600082015250565b50565b7f526566756e64457363726f773a2063616e206f6e6c7920656e61626c6520726560008201527f66756e6473207768696c65206163746976650000000000000000000000000000602082015250565b60038110611793576117926114d5565b5b50565b61179f81611427565b81146117aa57600080fd5b50565b6117b681611439565b81146117c157600080fd5b5056fea26469706673582212202c874623757cbf073b03ae03e3698c12d0d20396eb1d3464b8aff9a600760e6764736f6c63430008040033",
  "immutableReferences": {
    "3066": [
      {
        "length": 32,
        "start": 961
      }
    ]
  },
  "source": "// SPDX-License-Identifier: MIT\n\npragma solidity 0.8.4;\n\nimport \"./WorkExchange.sol\";\nimport \"../user/UserSummary.sol\";\nimport \"../libraries/Evaluation.sol\";\nimport \"@openzeppelin/contracts/access/Ownable.sol\";\nimport \"@openzeppelin/contracts/utils/escrow/RefundEscrow.sol\";\n\ncontract WorkRelationship is Ownable, RefundEscrow {\n    event WorkRelationshipCreated(address indexed _owner, address indexed relationship, address indexed marketAddress);\n    event WorkRelationshipEnded(address indexed owner, address indexed relationship);\n\n    Evaluation.WorkRelationshipState public _contractStatus;\n    address public _workExchangeAddress;\n    string public _taskMetadataPointer = \"\";\n\n    constructor(address marketAddress) RefundEscrow(payable(owner())) {\n        _contractStatus = Evaluation.WorkRelationshipState.UNCLAIMED;\n        emit WorkRelationshipCreated(owner(), address(this), marketAddress);\n        createWorkExchange(payable(address(0)));\n    }\n\n    function assignNewWorker(address payable newWorker, Evaluation.EvaluationState memory evaluationState) external onlyOwner {\n        bool passesEvaluation = checkWorkerEvaluation(newWorker, evaluationState);\n        require(passesEvaluation == true);\n\n        WorkExchange(_workExchangeAddress).assignNewWorker(newWorker);\n    }\n\n    function createWorkExchange(address payable workerBeneficiary) internal {\n        WorkExchange workExchange = new WorkExchange(payable(owner()), workerBeneficiary);\n        _workExchangeAddress = address(workExchange);\n    }\n\n    function checkWorkerEvaluation(address workerUniversalAddress, Evaluation.EvaluationState memory evaluationState) internal returns(bool) {\n        bool passesEvaluation = UserSummary(workerUniversalAddress).evaluateUser(evaluationState);\n        return passesEvaluation;\n    }\n\n    function disableWorkRelationship() public onlyOwner {\n        require(_contractStatus == Evaluation.WorkRelationshipState.COMPLETED);\n        emit WorkRelationshipEnded(owner(), address(this));\n        //selfdestruct();\n    }\n\n    function updateTaskMetadataPointer(string memory newTaskPointerHash) onlyOwner external {\n        _taskMetadataPointer = newTaskPointerHash;\n    }\n}",
  "sourcePath": "/Users/elijahhampton/Desktop/opportunity-core/src/contracts/exchange/WorkRelationship.sol",
  "compiler": {
    "name": "solc",
    "version": "0.8.4+commit.c7e474f2.Emscripten.clang"
  },
  "schemaVersion": "3.4.1",
  "updatedAt": "2021-06-09T23:30:16.446Z",
  "devdoc": {
    "kind": "dev",
    "methods": {
      "beneficiary()": {
        "returns": {
          "_0": "The beneficiary of the escrow."
        }
      },
      "beneficiaryWithdraw()": {
        "details": "Withdraws the beneficiary's funds."
      },
      "close()": {
        "details": "Allows for the beneficiary to withdraw their funds, rejecting further deposits."
      },
      "deposit(address)": {
        "details": "Stores funds that may later be refunded.",
        "params": {
          "refundee": "The address funds will be sent to if a refund occurs."
        }
      },
      "enableRefunds()": {
        "details": "Allows for refunds to take place, rejecting further deposits."
      },
      "owner()": {
        "details": "Returns the address of the current owner."
      },
      "renounceOwnership()": {
        "details": "Leaves the contract without owner. It will not be possible to call `onlyOwner` functions anymore. Can only be called by the current owner. NOTE: Renouncing ownership will leave the contract without an owner, thereby removing any functionality that is only available to the owner."
      },
      "state()": {
        "returns": {
          "_0": "The current state of the escrow."
        }
      },
      "transferOwnership(address)": {
        "details": "Transfers ownership of the contract to a new account (`newOwner`). Can only be called by the current owner."
      },
      "withdraw(address)": {
        "details": "Withdraw accumulated balance for a payee, forwarding all gas to the recipient. WARNING: Forwarding all gas opens the door to reentrancy vulnerabilities. Make sure you trust the recipient, or are either following the checks-effects-interactions pattern or using {ReentrancyGuard}.",
        "params": {
          "payee": "The address whose funds will be withdrawn and transferred to."
        }
      },
      "withdrawalAllowed(address)": {
        "details": "Returns whether refundees can withdraw their deposits (be refunded). The overridden function receives a 'payee' argument, but we ignore it here since the condition is global, not per-payee."
      }
    },
    "version": 1
  },
  "userdoc": {
    "kind": "user",
    "methods": {},
    "version": 1
  }
}