{
    "contractName": "DaiEscrow",
    "abi": [
        {
            "inputs": [
                {
                    "internalType": "address",
                    "name": "_beneficiary",
                    "type": "address"
                },
                {
                    "internalType": "address",
                    "name": "_depositor",
                    "type": "address"
                },
                {
                    "internalType": "uint256",
                    "name": "_wad",
                    "type": "uint256"
                },
                {
                    "internalType": "address",
                    "name": "_daiTokenAddress",
                    "type": "address"
                }
            ],
            "stateMutability": "nonpayable",
            "type": "constructor"
        },
        {
            "inputs": [],
            "name": "REVIEW_TYPEHASH",
            "outputs": [
                {
                    "internalType": "bytes32",
                    "name": "",
                    "type": "bytes32"
                }
            ],
            "stateMutability": "view",
            "type": "function"
        },
        {
            "inputs": [],
            "name": "SUBMIT_TYPEHASH",
            "outputs": [
                {
                    "internalType": "bytes32",
                    "name": "",
                    "type": "bytes32"
                }
            ],
            "stateMutability": "view",
            "type": "function"
        },
        {
            "inputs": [],
            "name": "beneficiary",
            "outputs": [
                {
                    "internalType": "address",
                    "name": "",
                    "type": "address"
                }
            ],
            "stateMutability": "view",
            "type": "function"
        },
        {
            "inputs": [],
            "name": "cancel",
            "outputs": [],
            "stateMutability": "view",
            "type": "function"
        },
        {
            "inputs": [],
            "name": "depositor",
            "outputs": [
                {
                    "internalType": "address",
                    "name": "",
                    "type": "address"
                }
            ],
            "stateMutability": "view",
            "type": "function"
        },
        {
            "inputs": [],
            "name": "domain_separator",
            "outputs": [
                {
                    "internalType": "bytes32",
                    "name": "",
                    "type": "bytes32"
                }
            ],
            "stateMutability": "view",
            "type": "function"
        },
        {
            "inputs": [
                {
                    "internalType": "uint256",
                    "name": "nonce",
                    "type": "uint256"
                },
                {
                    "internalType": "uint256",
                    "name": "expiry",
                    "type": "uint256"
                },
                {
                    "internalType": "uint8",
                    "name": "v_allow",
                    "type": "uint8"
                },
                {
                    "internalType": "bytes32",
                    "name": "r_allow",
                    "type": "bytes32"
                },
                {
                    "internalType": "bytes32",
                    "name": "s_allow",
                    "type": "bytes32"
                },
                {
                    "internalType": "uint8",
                    "name": "v_deny",
                    "type": "uint8"
                },
                {
                    "internalType": "bytes32",
                    "name": "r_deny",
                    "type": "bytes32"
                },
                {
                    "internalType": "bytes32",
                    "name": "s_deny",
                    "type": "bytes32"
                }
            ],
            "name": "initialize",
            "outputs": [],
            "stateMutability": "nonpayable",
            "type": "function"
        },
        {
            "inputs": [
                {
                    "internalType": "bool",
                    "name": "_approve",
                    "type": "bool"
                },
                {
                    "internalType": "uint8",
                    "name": "_v",
                    "type": "uint8"
                },
                {
                    "internalType": "bytes32",
                    "name": "_r",
                    "type": "bytes32"
                },
                {
                    "internalType": "bytes32",
                    "name": "_s",
                    "type": "bytes32"
                }
            ],
            "name": "review",
            "outputs": [],
            "stateMutability": "nonpayable",
            "type": "function"
        },
        {
            "inputs": [],
            "name": "status",
            "outputs": [
                {
                    "internalType": "enum DaiEscrow.Status",
                    "name": "",
                    "type": "uint8"
                }
            ],
            "stateMutability": "view",
            "type": "function"
        },
        {
            "inputs": [
                {
                    "internalType": "bytes32",
                    "name": "_submission",
                    "type": "bytes32"
                },
                {
                    "internalType": "uint8",
                    "name": "_v",
                    "type": "uint8"
                },
                {
                    "internalType": "bytes32",
                    "name": "_r",
                    "type": "bytes32"
                },
                {
                    "internalType": "bytes32",
                    "name": "_s",
                    "type": "bytes32"
                }
            ],
            "name": "submit",
            "outputs": [],
            "stateMutability": "nonpayable",
            "type": "function"
        },
        {
            "inputs": [
                {
                    "internalType": "address",
                    "name": "callee",
                    "type": "address"
                }
            ],
            "name": "updateStatus",
            "outputs": [],
            "stateMutability": "nonpayable",
            "type": "function"
        },
        {
            "inputs": [],
            "name": "wad",
            "outputs": [
                {
                    "internalType": "uint256",
                    "name": "",
                    "type": "uint256"
                }
            ],
            "stateMutability": "view",
            "type": "function"
        }
    ],
    "bytecode": "61010060405234801561001157600080fd5b50604051610f15380380610f1583398101604081905261003091610216565b6001600160a01b03831661007b5760405162461bcd60e51b815260206004820152600d60248201526c34b73b30b634b21037bbb732b960991b60448201526064015b60405180910390fd5b6001600160a01b0381166100d15760405162461bcd60e51b815260206004820152601960248201527f696e76616c69642064616920746f6b656e2061646472657373000000000000006044820152606401610072565b6040805180820182526006815265657363726f7760d01b6020918201528151808301835260018152603160f81b9082015281517f8b73c3c69bb8fe3d512ecc4cf759cc79239f7b179b0ffacaa9a75d522b39400f918101919091527f5c24c10d65ac9aa9e0f7f63d96fe83c89107fae52b4ef778334c906c1ec5c1ed918101919091527fc89efdaa54c0f20c7adf612882df0950f5a951637e0307cdcb4c672f298b8bc660608201524660ff811660808301523060a08301529060c00160408051808303601f1901815291905280516020909101206080525060e091909152606091821b6001600160601b031990811660c0529290911b90911660a052600080546001600160a81b0319166101006001600160a01b039390931692909202919091179055610263565b80516001600160a01b038116811461021157600080fd5b919050565b6000806000806080858703121561022c57600080fd5b610235856101fa565b9350610243602086016101fa565b925060408501519150610258606086016101fa565b905092959194509250565b60805160a05160601c60c05160601c60e051610c2d6102e86000396000818161018e0152610722015260008181610203015281816103860152818161067c015281816106fa01526107a7015260008181610107015281816103f7015281816104fe015261058f0152600081816101dc015281816102da01526104b00152610c2d6000f3fe608060405234801561001057600080fd5b50600436106100b45760003560e01c80637df38c5b116100715780637df38c5b1461018957806396118e44146101b0578063bfce14ea146101d7578063c7c4ff46146101fe578063cefd6c2114610225578063ea8a1af01461023857600080fd5b806301162b93146100b9578063200d2ed2146100cc57806325b0db0f146100ef57806338af3eed146101025780633c86f6f31461014157806353318a8714610176575b600080fd5b6100ca6100c73660046109f5565b50565b005b6000546100d99060ff1681565b6040516100e69190610b63565b60405180910390f35b6100ca6100fd366004610a25565b610240565b6101297f000000000000000000000000000000000000000000000000000000000000000081565b6040516001600160a01b0390911681526020016100e6565b6101687ffa5e0016fb62b8dffda8fd95249d438edcffd3689b40ac3b4281d4cf710609ae81565b6040519081526020016100e6565b6100ca610184366004610a6e565b610423565b6101687f000000000000000000000000000000000000000000000000000000000000000081565b6101687f62b607caa4d4e7fcbd31bf4c033cd30888b536567fadc83710fdf15f8d5cfc9e81565b6101687f000000000000000000000000000000000000000000000000000000000000000081565b6101297f000000000000000000000000000000000000000000000000000000000000000081565b6100ca610233366004610aad565b61060a565b6100ca610838565b60028060005460ff16600481111561025a5761025a610be1565b146102805760405162461bcd60e51b815260040161027790610b8b565b60405180910390fd5b604080517ffa5e0016fb62b8dffda8fd95249d438edcffd3689b40ac3b4281d4cf710609ae6020808301919091528715158284015282518083038401815260608301909352825192019190912061190160f01b60808301527f0000000000000000000000000000000000000000000000000000000000000000608283015260a282015260009060c20160408051601f1981840301815282825280516020918201206000845290830180835281905260ff8816918301919091526060820186905260808201859052915060019060a0016020604051602081039080840390855afa158015610371573d6000803e3d6000fd5b505050602060405103516001600160a01b03167f00000000000000000000000000000000000000000000000000000000000000006001600160a01b0316146103ec5760405162461bcd60e51b815260206004820152600e60248201526d1a5b9d985b1a590b5c195c9b5a5d60921b6044820152606401610277565b851561041b5761041b7f00000000000000000000000000000000000000000000000000000000000000006108af565b505050505050565b60018060005460ff16600481111561043d5761043d610be1565b1461045a5760405162461bcd60e51b815260040161027790610b8b565b604080517f62b607caa4d4e7fcbd31bf4c033cd30888b536567fadc83710fdf15f8d5cfc9e60208083019190915281830188905282518083038401815260608301845280519082012061190160f01b60808401527f0000000000000000000000000000000000000000000000000000000000000000608284015260a2808401919091528351808403909101815260c290920190925280519101206001600160a01b037f00000000000000000000000000000000000000000000000000000000000000001661052757600080fd5b60408051600081526020810180835283905260ff871691810191909152606081018590526080810184905260019060a0016020604051602081039080840390855afa15801561057a573d6000803e3d6000fd5b505050602060405103516001600160a01b03167f00000000000000000000000000000000000000000000000000000000000000006001600160a01b0316146105f55760405162461bcd60e51b815260206004820152600e60248201526d1a5b9d985b1a590b5c195c9b5a5d60921b6044820152606401610277565b50506000805460ff1916600217905550505050565b60008060005460ff16600481111561062457610624610be1565b146106415760405162461bcd60e51b815260040161027790610b8b565b60008054600160ff199091168117918290556040516323f2ebc360e21b81526101009092046001600160a01b031691638fcbaf0c916106b0917f00000000000000000000000000000000000000000000000000000000000000009130918f918f918f908f908f90600401610b1a565b600060405180830381600087803b1580156106ca57600080fd5b505af11580156106de573d6000803e3d6000fd5b505060005460405163f2d5d56b60e01b81526001600160a01b037f0000000000000000000000000000000000000000000000000000000000000000811660048301527f00000000000000000000000000000000000000000000000000000000000000006024830152610100909204909116925063f2d5d56b9150604401600060405180830381600087803b15801561077557600080fd5b505af1158015610789573d6000803e3d6000fd5b505060005461010090046001600160a01b03169150638fcbaf0c90507f0000000000000000000000000000000000000000000000000000000000000000306107d28d6001610bbb565b8c60008a8a8a6040518963ffffffff1660e01b81526004016107fb989796959493929190610b1a565b600060405180830381600087803b15801561081557600080fd5b505af1158015610829573d6000803e3d6000fd5b50505050505050505050505050565b6000805460ff16600481111561085057610850610be1565b14806108725750600360005460ff16600481111561087057610870610be1565b145b6108ad5760405162461bcd60e51b815260206004820152600c60248201526b77726f6e672073746174757360a01b6044820152606401610277565b565b6001600160a01b0381166108c257600080fd5b6001600160a01b0381161580156108e5576000805460ff191660041790556108f3565b6000805460ff191660031790555b806109db576000546040516370a0823160e01b81523060048201526101009091046001600160a01b03169063b753a98c90849083906370a082319060240160206040518083038186803b15801561094957600080fd5b505afa15801561095d573d6000803e3d6000fd5b505050506040513d601f19601f820116820180604052508101906109819190610a94565b6040516001600160e01b031960e085901b1681526001600160a01b0390921660048301526024820152604401600060405180830381600087803b1580156109c757600080fd5b505af115801561041b573d6000803e3d6000fd5b5050565b803560ff811681146109f057600080fd5b919050565b600060208284031215610a0757600080fd5b81356001600160a01b0381168114610a1e57600080fd5b9392505050565b60008060008060808587031215610a3b57600080fd5b84358015158114610a4b57600080fd5b9350610a59602086016109df565b93969395505050506040820135916060013590565b60008060008060808587031215610a8457600080fd5b84359350610a59602086016109df565b600060208284031215610aa657600080fd5b5051919050565b600080600080600080600080610100898b031215610aca57600080fd5b8835975060208901359650610ae160408a016109df565b95506060890135945060808901359350610afd60a08a016109df565b925060c0890135915060e089013590509295985092959890939650565b6001600160a01b039889168152969097166020870152604086019490945260608501929092521515608084015260ff1660a083015260c082015260e08101919091526101000190565b6020810160058310610b8557634e487b7160e01b600052602160045260246000fd5b91905290565b602080825260169082015275119b881b9bdd081c1c995cd95b9d1b1e481d985b1a5960521b604082015260600190565b60008219821115610bdc57634e487b7160e01b600052601160045260246000fd5b500190565b634e487b7160e01b600052602160045260246000fdfea2646970667358221220110698d11e5185de1c3e8ccdfa9263c05ab1583dd579caffcc3dd6c56106d10c64736f6c63430008070033",
    "sourcePath": "/Users/elijahhampton/git/opportunity-core/src/contracts/exchange/DaiEscrow.sol",
    "compiler": {
        "name": "solc",
        "version": "0.8.7+commit.e28d00a7"
    },
    "functionHashes": {
        "REVIEW_TYPEHASH()": "3c86f6f3",
        "SUBMIT_TYPEHASH()": "96118e44",
        "beneficiary()": "38af3eed",
        "cancel()": "ea8a1af0",
        "depositor()": "c7c4ff46",
        "domain_separator()": "bfce14ea",
        "initialize(uint256,uint256,uint8,bytes32,bytes32,uint8,bytes32,bytes32)": "cefd6c21",
        "review(bool,uint8,bytes32,bytes32)": "25b0db0f",
        "status()": "200d2ed2",
        "submit(bytes32,uint8,bytes32,bytes32)": "53318a87",
        "updateStatus(address)": "01162b93",
        "wad()": "7df38c5b"
    },
    "gasEstimates": {
        "creation": {
            "codeDepositCost": "623400",
            "executionCost": "infinite",
            "totalCost": "infinite"
        },
        "external": {
            "REVIEW_TYPEHASH()": "284",
            "SUBMIT_TYPEHASH()": "217",
            "beneficiary()": "infinite",
            "cancel()": "4682",
            "depositor()": "infinite",
            "domain_separator()": "infinite",
            "initialize(uint256,uint256,uint8,bytes32,bytes32,uint8,bytes32,bytes32)": "infinite",
            "review(bool,uint8,bytes32,bytes32)": "infinite",
            "status()": "2374",
            "submit(bytes32,uint8,bytes32,bytes32)": "infinite",
            "updateStatus(address)": "258",
            "wad()": "infinite"
        },
        "internal": {
            "resolve(address)": "infinite"
        }
    }
}