{
    "contractName": "WorkExchange",
    "abi": [
        {
            "inputs": [
                {
                    "internalType": "address",
                    "name": "_beneficiary",
                    "type": "address"
                },
                {
                    "internalType": "address",
                    "name": "_depositor",
                    "type": "address"
                },
                {
                    "internalType": "uint256",
                    "name": "_wad",
                    "type": "uint256"
                },
                {
                    "internalType": "address",
                    "name": "_daiTokenAddress",
                    "type": "address"
                }
            ],
            "stateMutability": "nonpayable",
            "type": "constructor"
        },
        {
            "inputs": [],
            "name": "REVIEW_TYPEHASH",
            "outputs": [
                {
                    "internalType": "bytes32",
                    "name": "",
                    "type": "bytes32"
                }
            ],
            "stateMutability": "view",
            "type": "function"
        },
        {
            "inputs": [],
            "name": "SUBMIT_TYPEHASH",
            "outputs": [
                {
                    "internalType": "bytes32",
                    "name": "",
                    "type": "bytes32"
                }
            ],
            "stateMutability": "view",
            "type": "function"
        },
        {
            "inputs": [],
            "name": "beneficiary",
            "outputs": [
                {
                    "internalType": "address",
                    "name": "",
                    "type": "address"
                }
            ],
            "stateMutability": "view",
            "type": "function"
        },
        {
            "inputs": [],
            "name": "cancel",
            "outputs": [],
            "stateMutability": "view",
            "type": "function"
        },
        {
            "inputs": [],
            "name": "depositor",
            "outputs": [
                {
                    "internalType": "address",
                    "name": "",
                    "type": "address"
                }
            ],
            "stateMutability": "view",
            "type": "function"
        },
        {
            "inputs": [
                {
                    "internalType": "address",
                    "name": "callee",
                    "type": "address"
                }
            ],
            "name": "disputeFunds",
            "outputs": [],
            "stateMutability": "nonpayable",
            "type": "function"
        },
        {
            "inputs": [],
            "name": "domain_separator",
            "outputs": [
                {
                    "internalType": "bytes32",
                    "name": "",
                    "type": "bytes32"
                }
            ],
            "stateMutability": "view",
            "type": "function"
        },
        {
            "inputs": [
                {
                    "internalType": "uint256",
                    "name": "nonce",
                    "type": "uint256"
                },
                {
                    "internalType": "uint256",
                    "name": "expiry",
                    "type": "uint256"
                },
                {
                    "internalType": "uint8",
                    "name": "v_allow",
                    "type": "uint8"
                },
                {
                    "internalType": "bytes32",
                    "name": "r_allow",
                    "type": "bytes32"
                },
                {
                    "internalType": "bytes32",
                    "name": "s_allow",
                    "type": "bytes32"
                },
                {
                    "internalType": "uint8",
                    "name": "v_deny",
                    "type": "uint8"
                },
                {
                    "internalType": "bytes32",
                    "name": "r_deny",
                    "type": "bytes32"
                },
                {
                    "internalType": "bytes32",
                    "name": "s_deny",
                    "type": "bytes32"
                }
            ],
            "name": "initialize",
            "outputs": [],
            "stateMutability": "nonpayable",
            "type": "function"
        },
        {
            "inputs": [
                {
                    "internalType": "bool",
                    "name": "_approve",
                    "type": "bool"
                },
                {
                    "internalType": "uint8",
                    "name": "_v",
                    "type": "uint8"
                },
                {
                    "internalType": "bytes32",
                    "name": "_r",
                    "type": "bytes32"
                },
                {
                    "internalType": "bytes32",
                    "name": "_s",
                    "type": "bytes32"
                }
            ],
            "name": "review",
            "outputs": [],
            "stateMutability": "nonpayable",
            "type": "function"
        },
        {
            "inputs": [],
            "name": "status",
            "outputs": [
                {
                    "internalType": "enum DaiEscrow.Status",
                    "name": "",
                    "type": "uint8"
                }
            ],
            "stateMutability": "view",
            "type": "function"
        },
        {
            "inputs": [
                {
                    "internalType": "bytes32",
                    "name": "_submission",
                    "type": "bytes32"
                },
                {
                    "internalType": "uint8",
                    "name": "_v",
                    "type": "uint8"
                },
                {
                    "internalType": "bytes32",
                    "name": "_r",
                    "type": "bytes32"
                },
                {
                    "internalType": "bytes32",
                    "name": "_s",
                    "type": "bytes32"
                }
            ],
            "name": "submit",
            "outputs": [],
            "stateMutability": "nonpayable",
            "type": "function"
        },
        {
            "inputs": [
                {
                    "internalType": "address",
                    "name": "callee",
                    "type": "address"
                }
            ],
            "name": "updateStatus",
            "outputs": [],
            "stateMutability": "nonpayable",
            "type": "function"
        },
        {
            "inputs": [],
            "name": "wad",
            "outputs": [
                {
                    "internalType": "uint256",
                    "name": "",
                    "type": "uint256"
                }
            ],
            "stateMutability": "view",
            "type": "function"
        }
    ],
    "bytecode": "61010060405234801561001157600080fd5b50604051610f4c380380610f4c8339810160408190526100309161021f565b838383836001600160a01b03831661007f5760405162461bcd60e51b815260206004820152600d60248201526c34b73b30b634b21037bbb732b960991b60448201526064015b60405180910390fd5b6001600160a01b0381166100d55760405162461bcd60e51b815260206004820152601960248201527f696e76616c69642064616920746f6b656e2061646472657373000000000000006044820152606401610076565b6040805180820182526006815265657363726f7760d01b6020918201528151808301835260018152603160f81b9082015281517f8b73c3c69bb8fe3d512ecc4cf759cc79239f7b179b0ffacaa9a75d522b39400f918101919091527f5c24c10d65ac9aa9e0f7f63d96fe83c89107fae52b4ef778334c906c1ec5c1ed918101919091527fc89efdaa54c0f20c7adf612882df0950f5a951637e0307cdcb4c672f298b8bc660608201524660ff811660808301523060a08301529060c00160408051808303601f1901815291905280516020909101206080525060e091909152606091821b6001600160601b031990811660c0529290911b90911660a052600080546001600160a81b0319166101006001600160a01b0393909316929092029190911790555061026c92505050565b80516001600160a01b038116811461021a57600080fd5b919050565b6000806000806080858703121561023557600080fd5b61023e85610203565b935061024c60208601610203565b92506040850151915061026160608601610203565b905092959194509250565b60805160a05160601c60c05160601c60e051610c5b6102f1600039600081816101bc0152610750015260008181610231015281816103b4015281816106aa0152818161072801526107d5015260008181610122015281816104250152818161052c01526105bd01526000818161020a0152818161030801526104de0152610c5b6000f3fe608060405234801561001057600080fd5b50600436106100cf5760003560e01c80635db388421161008c578063bfce14ea11610066578063bfce14ea14610205578063c7c4ff461461022c578063cefd6c2114610253578063ea8a1af01461026657600080fd5b80635db38842146101a45780637df38c5b146101b757806396118e44146101de57600080fd5b806301162b93146100d4578063200d2ed2146100e757806325b0db0f1461010a57806338af3eed1461011d5780633c86f6f31461015c57806353318a8714610191575b600080fd5b6100e56100e2366004610a23565b50565b005b6000546100f49060ff1681565b6040516101019190610b91565b60405180910390f35b6100e5610118366004610a53565b61026e565b6101447f000000000000000000000000000000000000000000000000000000000000000081565b6040516001600160a01b039091168152602001610101565b6101837ffa5e0016fb62b8dffda8fd95249d438edcffd3689b40ac3b4281d4cf710609ae81565b604051908152602001610101565b6100e561019f366004610a9c565b610451565b6100e56101b2366004610a23565b6100e2565b6101837f000000000000000000000000000000000000000000000000000000000000000081565b6101837f62b607caa4d4e7fcbd31bf4c033cd30888b536567fadc83710fdf15f8d5cfc9e81565b6101837f000000000000000000000000000000000000000000000000000000000000000081565b6101447f000000000000000000000000000000000000000000000000000000000000000081565b6100e5610261366004610adb565b610638565b6100e5610866565b60028060005460ff16600481111561028857610288610c0f565b146102ae5760405162461bcd60e51b81526004016102a590610bb9565b60405180910390fd5b604080517ffa5e0016fb62b8dffda8fd95249d438edcffd3689b40ac3b4281d4cf710609ae6020808301919091528715158284015282518083038401815260608301909352825192019190912061190160f01b60808301527f0000000000000000000000000000000000000000000000000000000000000000608283015260a282015260009060c20160408051601f1981840301815282825280516020918201206000845290830180835281905260ff8816918301919091526060820186905260808201859052915060019060a0016020604051602081039080840390855afa15801561039f573d6000803e3d6000fd5b505050602060405103516001600160a01b03167f00000000000000000000000000000000000000000000000000000000000000006001600160a01b03161461041a5760405162461bcd60e51b815260206004820152600e60248201526d1a5b9d985b1a590b5c195c9b5a5d60921b60448201526064016102a5565b8515610449576104497f00000000000000000000000000000000000000000000000000000000000000006108dd565b505050505050565b60018060005460ff16600481111561046b5761046b610c0f565b146104885760405162461bcd60e51b81526004016102a590610bb9565b604080517f62b607caa4d4e7fcbd31bf4c033cd30888b536567fadc83710fdf15f8d5cfc9e60208083019190915281830188905282518083038401815260608301845280519082012061190160f01b60808401527f0000000000000000000000000000000000000000000000000000000000000000608284015260a2808401919091528351808403909101815260c290920190925280519101206001600160a01b037f00000000000000000000000000000000000000000000000000000000000000001661055557600080fd5b60408051600081526020810180835283905260ff871691810191909152606081018590526080810184905260019060a0016020604051602081039080840390855afa1580156105a8573d6000803e3d6000fd5b505050602060405103516001600160a01b03167f00000000000000000000000000000000000000000000000000000000000000006001600160a01b0316146106235760405162461bcd60e51b815260206004820152600e60248201526d1a5b9d985b1a590b5c195c9b5a5d60921b60448201526064016102a5565b50506000805460ff1916600217905550505050565b60008060005460ff16600481111561065257610652610c0f565b1461066f5760405162461bcd60e51b81526004016102a590610bb9565b60008054600160ff199091168117918290556040516323f2ebc360e21b81526101009092046001600160a01b031691638fcbaf0c916106de917f00000000000000000000000000000000000000000000000000000000000000009130918f918f918f908f908f90600401610b48565b600060405180830381600087803b1580156106f857600080fd5b505af115801561070c573d6000803e3d6000fd5b505060005460405163f2d5d56b60e01b81526001600160a01b037f0000000000000000000000000000000000000000000000000000000000000000811660048301527f00000000000000000000000000000000000000000000000000000000000000006024830152610100909204909116925063f2d5d56b9150604401600060405180830381600087803b1580156107a357600080fd5b505af11580156107b7573d6000803e3d6000fd5b505060005461010090046001600160a01b03169150638fcbaf0c90507f0000000000000000000000000000000000000000000000000000000000000000306108008d6001610be9565b8c60008a8a8a6040518963ffffffff1660e01b8152600401610829989796959493929190610b48565b600060405180830381600087803b15801561084357600080fd5b505af1158015610857573d6000803e3d6000fd5b50505050505050505050505050565b6000805460ff16600481111561087e5761087e610c0f565b14806108a05750600360005460ff16600481111561089e5761089e610c0f565b145b6108db5760405162461bcd60e51b815260206004820152600c60248201526b77726f6e672073746174757360a01b60448201526064016102a5565b565b6001600160a01b0381166108f057600080fd5b6001600160a01b038116158015610913576000805460ff19166004179055610921565b6000805460ff191660031790555b80610a09576000546040516370a0823160e01b81523060048201526101009091046001600160a01b03169063b753a98c90849083906370a082319060240160206040518083038186803b15801561097757600080fd5b505afa15801561098b573d6000803e3d6000fd5b505050506040513d601f19601f820116820180604052508101906109af9190610ac2565b6040516001600160e01b031960e085901b1681526001600160a01b0390921660048301526024820152604401600060405180830381600087803b1580156109f557600080fd5b505af1158015610449573d6000803e3d6000fd5b5050565b803560ff81168114610a1e57600080fd5b919050565b600060208284031215610a3557600080fd5b81356001600160a01b0381168114610a4c57600080fd5b9392505050565b60008060008060808587031215610a6957600080fd5b84358015158114610a7957600080fd5b9350610a8760208601610a0d565b93969395505050506040820135916060013590565b60008060008060808587031215610ab257600080fd5b84359350610a8760208601610a0d565b600060208284031215610ad457600080fd5b5051919050565b600080600080600080600080610100898b031215610af857600080fd5b8835975060208901359650610b0f60408a01610a0d565b95506060890135945060808901359350610b2b60a08a01610a0d565b925060c0890135915060e089013590509295985092959890939650565b6001600160a01b039889168152969097166020870152604086019490945260608501929092521515608084015260ff1660a083015260c082015260e08101919091526101000190565b6020810160058310610bb357634e487b7160e01b600052602160045260246000fd5b91905290565b602080825260169082015275119b881b9bdd081c1c995cd95b9d1b1e481d985b1a5960521b604082015260600190565b60008219821115610c0a57634e487b7160e01b600052601160045260246000fd5b500190565b634e487b7160e01b600052602160045260246000fdfea26469706673582212200dfb7d4879f0c54293a2c77d28f59b47457f108afb2639ea88aa8009dbf01f6f64736f6c63430008070033",
    "sourcePath": "/Users/elijahhampton/git/opportunity-core/src/contracts/exchange/WorkExchange.sol",
    "compiler": {
        "name": "solc",
        "version": "0.8.7+commit.e28d00a7"
    },
    "functionHashes": {
        "REVIEW_TYPEHASH()": "3c86f6f3",
        "SUBMIT_TYPEHASH()": "96118e44",
        "beneficiary()": "38af3eed",
        "cancel()": "ea8a1af0",
        "depositor()": "c7c4ff46",
        "disputeFunds(address)": "5db38842",
        "domain_separator()": "bfce14ea",
        "initialize(uint256,uint256,uint8,bytes32,bytes32,uint8,bytes32,bytes32)": "cefd6c21",
        "review(bool,uint8,bytes32,bytes32)": "25b0db0f",
        "status()": "200d2ed2",
        "submit(bytes32,uint8,bytes32,bytes32)": "53318a87",
        "updateStatus(address)": "01162b93",
        "wad()": "7df38c5b"
    },
    "gasEstimates": {
        "creation": {
            "codeDepositCost": "632600",
            "executionCost": "infinite",
            "totalCost": "infinite"
        },
        "external": {
            "REVIEW_TYPEHASH()": "284",
            "SUBMIT_TYPEHASH()": "262",
            "beneficiary()": "infinite",
            "cancel()": "4660",
            "depositor()": "infinite",
            "disputeFunds(address)": "292",
            "domain_separator()": "infinite",
            "initialize(uint256,uint256,uint8,bytes32,bytes32,uint8,bytes32,bytes32)": "infinite",
            "review(bool,uint8,bytes32,bytes32)": "infinite",
            "status()": "2374",
            "submit(bytes32,uint8,bytes32,bytes32)": "infinite",
            "updateStatus(address)": "258",
            "wad()": "infinite"
        }
    }
}