{
    "contractName": "WorkRelationship",
    "abi": [
        {
            "inputs": [],
            "stateMutability": "nonpayable",
            "type": "constructor"
        },
        {
            "anonymous": false,
            "inputs": [
                {
                    "indexed": true,
                    "internalType": "address",
                    "name": "previousOwner",
                    "type": "address"
                },
                {
                    "indexed": true,
                    "internalType": "address",
                    "name": "newOwner",
                    "type": "address"
                }
            ],
            "name": "OwnershipTransferred",
            "type": "event"
        },
        {
            "anonymous": false,
            "inputs": [
                {
                    "indexed": true,
                    "internalType": "address",
                    "name": "_owner",
                    "type": "address"
                },
                {
                    "indexed": true,
                    "internalType": "address",
                    "name": "relationship",
                    "type": "address"
                }
            ],
            "name": "WorkRelationshipCreated",
            "type": "event"
        },
        {
            "anonymous": false,
            "inputs": [
                {
                    "indexed": true,
                    "internalType": "address",
                    "name": "owner",
                    "type": "address"
                },
                {
                    "indexed": true,
                    "internalType": "address",
                    "name": "relationship",
                    "type": "address"
                }
            ],
            "name": "WorkRelationshipEnded",
            "type": "event"
        },
        {
            "inputs": [],
            "name": "_contractStatus",
            "outputs": [
                {
                    "internalType": "enum Evaluation.WorkRelationshipState",
                    "name": "",
                    "type": "uint8"
                }
            ],
            "stateMutability": "view",
            "type": "function"
        },
        {
            "inputs": [],
            "name": "_workExchangeAddress",
            "outputs": [
                {
                    "internalType": "address",
                    "name": "",
                    "type": "address"
                }
            ],
            "stateMutability": "view",
            "type": "function"
        },
        {
            "inputs": [
                {
                    "internalType": "address payable",
                    "name": "newWorker",
                    "type": "address"
                },
                {
                    "components": [
                        {
                            "internalType": "string",
                            "name": "industry",
                            "type": "string"
                        },
                        {
                            "internalType": "uint256",
                            "name": "industrylevel",
                            "type": "uint256"
                        },
                        {
                            "internalType": "uint256",
                            "name": "reputation",
                            "type": "uint256"
                        }
                    ],
                    "internalType": "struct Evaluation.EvaluationState",
                    "name": "evaluationState",
                    "type": "tuple"
                },
                {
                    "internalType": "bool",
                    "name": "isTimeLocked",
                    "type": "bool"
                }
            ],
            "name": "assignNewWorker",
            "outputs": [],
            "stateMutability": "nonpayable",
            "type": "function"
        },
        {
            "inputs": [
                {
                    "internalType": "address payable",
                    "name": "workerBeneficiary",
                    "type": "address"
                },
                {
                    "internalType": "bool",
                    "name": "isTimeLocked",
                    "type": "bool"
                }
            ],
            "name": "createWorkExchange",
            "outputs": [],
            "stateMutability": "nonpayable",
            "type": "function"
        },
        {
            "inputs": [],
            "name": "disableWorkRelationship",
            "outputs": [],
            "stateMutability": "nonpayable",
            "type": "function"
        },
        {
            "inputs": [],
            "name": "getTaskPointer",
            "outputs": [
                {
                    "internalType": "string",
                    "name": "",
                    "type": "string"
                }
            ],
            "stateMutability": "view",
            "type": "function"
        },
        {
            "inputs": [],
            "name": "owner",
            "outputs": [
                {
                    "internalType": "address",
                    "name": "",
                    "type": "address"
                }
            ],
            "stateMutability": "view",
            "type": "function"
        },
        {
            "inputs": [],
            "name": "renounceOwnership",
            "outputs": [],
            "stateMutability": "nonpayable",
            "type": "function"
        },
        {
            "inputs": [
                {
                    "internalType": "address",
                    "name": "newOwner",
                    "type": "address"
                }
            ],
            "name": "transferOwnership",
            "outputs": [],
            "stateMutability": "nonpayable",
            "type": "function"
        },
        {
            "inputs": [
                {
                    "internalType": "string",
                    "name": "newTaskPointerHash",
                    "type": "string"
                }
            ],
            "name": "updateTaskPointer",
            "outputs": [],
            "stateMutability": "nonpayable",
            "type": "function"
        }
    ],
    "bytecode": "60a06040819052600060808190526100199160029161007a565b5034801561002657600080fd5b50600080546001600160a01b031916339081178255604051909182917f8be0079c531659141344cd1fd0a4f28419497f9722a3daafe3b4186f6b6457e0908290a3506000805460ff60a01b1916905561014e565b82805461008690610113565b90600052602060002090601f0160209004810192826100a857600085556100ee565b82601f106100c157805160ff19168380011785556100ee565b828001600101855582156100ee579182015b828111156100ee5782518255916020019190600101906100d3565b506100fa9291506100fe565b5090565b5b808211156100fa57600081556001016100ff565b600181811c9082168061012757607f821691505b6020821081141561014857634e487b7160e01b600052602260045260246000fd5b50919050565b6121178061015d6000396000f3fe60806040523480156200001157600080fd5b5060043610620000ab5760003560e01c8063c34533a9116200006e578063c34533a91462000132578063ce079b9a1462000149578063e6e885931462000153578063eebc6e3d1462000177578063f2fde38b146200018b57600080fd5b8063446a02b314620000b05780634568a94e14620000c95780634a67f54814620000e0578063715018a614620001025780638da5cb5b146200010c575b600080fd5b620000c7620000c13660046200084a565b620001a2565b005b620000c7620000da36600462000887565b62000258565b620000ea62000347565b604051620000f9919062000a19565b60405180910390f35b620000c76200040f565b6000546001600160a01b03165b6040516001600160a01b039091168152602001620000f9565b620000c7620001433660046200096b565b62000486565b620000c76200049f565b6000546200016890600160a01b900460ff1681565b604051620000f99190620009f0565b60015462000119906001600160a01b031681565b620000c76200019c36600462000824565b62000551565b6000546001600160a01b03163314620001d85760405162461bcd60e51b8152600401620001cf9062000a2e565b60405180910390fd5b600080546001600160a01b03168383604051620001f590620006cf565b6001600160a01b03938416815292909116602083015215156040820152606001604051809103906000f08015801562000232573d6000803e3d6000fd5b50600180546001600160a01b0319166001600160a01b0392909216919091179055505050565b6000546001600160a01b03163314620002855760405162461bcd60e51b8152600401620001cf9062000a2e565b600062000293848462000640565b9050600181151514620002a557600080fd5b60405163446a02b360e01b81526001600160a01b03851660048201528215156024820152309063446a02b390604401600060405180830381600087803b158015620002ef57600080fd5b505af115801562000304573d6000803e3d6000fd5b5050600080546040513094506001600160a01b0390911692507f1f0aa61cbde59114f62be2daa5b4a6478322c4824c9523d355ff6a1ad24207c59190a350505050565b6000546060906001600160a01b03163314620003775760405162461bcd60e51b8152600401620001cf9062000a2e565b60028054620003869062000aa1565b80601f0160208091040260200160405190810160405280929190818152602001828054620003b49062000aa1565b8015620004055780601f10620003d95761010080835404028352916020019162000405565b820191906000526020600020905b815481529060010190602001808311620003e757829003601f168201915b5050505050905090565b6000546001600160a01b031633146200043c5760405162461bcd60e51b8152600401620001cf9062000a2e565b600080546040516001600160a01b03909116907f8be0079c531659141344cd1fd0a4f28419497f9722a3daafe3b4186f6b6457e0908390a3600080546001600160a01b0319169055565b80516200049b906002906020840190620006dd565b5050565b6000546001600160a01b03163314620004cc5760405162461bcd60e51b8152600401620001cf9062000a2e565b6004600054600160a01b900460ff166006811115620004fb57634e487b7160e01b600052602160045260246000fd5b146200050657600080fd5b306200051a6000546001600160a01b031690565b6001600160a01b03167f9f9ae6282c58d4c8aeebc441331043c250c011c89bdc9a917ba54702f0c36a2960405160405180910390a3565b6000546001600160a01b031633146200057e5760405162461bcd60e51b8152600401620001cf9062000a2e565b6001600160a01b038116620005e55760405162461bcd60e51b815260206004820152602660248201527f4f776e61626c653a206e6577206f776e657220697320746865207a65726f206160448201526564647265737360d01b6064820152608401620001cf565b600080546040516001600160a01b03808516939216917f8be0079c531659141344cd1fd0a4f28419497f9722a3daafe3b4186f6b6457e091a3600080546001600160a01b0319166001600160a01b0392909216919091179055565b600080836001600160a01b0316635d5f221f846040518263ffffffff1660e01b815260040162000671919062000a63565b602060405180830381600087803b1580156200068c57600080fd5b505af1158015620006a1573d6000803e3d6000fd5b505050506040513d601f19601f82011682018060405250810190620006c791906200094c565b949350505050565b6115c58062000b1d83390190565b828054620006eb9062000aa1565b90600052602060002090601f0160209004810192826200070f57600085556200075a565b82601f106200072a57805160ff19168380011785556200075a565b828001600101855582156200075a579182015b828111156200075a5782518255916020019190600101906200073d565b50620007689291506200076c565b5090565b5b808211156200076857600081556001016200076d565b8035620007908162000b0d565b919050565b600082601f830112620007a6578081fd5b813567ffffffffffffffff80821115620007c457620007c462000ade565b604051601f8301601f19908116603f01168101908282118183101715620007ef57620007ef62000ade565b8160405283815286602085880101111562000808578485fd5b8360208701602083013792830160200193909352509392505050565b60006020828403121562000836578081fd5b8135620008438162000af4565b9392505050565b600080604083850312156200085d578081fd5b82356200086a8162000af4565b915060208301356200087c8162000b0d565b809150509250929050565b6000806000606084860312156200089c578081fd5b8335620008a98162000af4565b9250602084013567ffffffffffffffff80821115620008c6578283fd5b9085019060608288031215620008da578283fd5b604051606081018181108382111715620008f857620008f862000ade565b6040528235828111156200090a578485fd5b620009188982860162000795565b8252506020830135602082015260408301356040820152809450505050620009436040850162000783565b90509250925092565b6000602082840312156200095e578081fd5b8151620008438162000b0d565b6000602082840312156200097d578081fd5b813567ffffffffffffffff81111562000994578182fd5b620006c78482850162000795565b60008151808452815b81811015620009c957602081850181015186830182015201620009ab565b81811115620009db5782602083870101525b50601f01601f19169290920160200192915050565b602081016007831062000a1357634e487b7160e01b600052602160045260246000fd5b91905290565b602081526000620008436020830184620009a2565b6020808252818101527f4f776e61626c653a2063616c6c6572206973206e6f7420746865206f776e6572604082015260600190565b60208152600082516060602084015262000a816080840182620009a2565b905060208401516040840152604084015160608401528091505092915050565b600181811c9082168062000ab657607f821691505b6020821081141562000ad857634e487b7160e01b600052602260045260246000fd5b50919050565b634e487b7160e01b600052604160045260246000fd5b6001600160a01b038116811462000b0a57600080fd5b50565b801515811462000b0a57600080fdfe608060405234801561001057600080fd5b506040516115c53803806115c583398101604081905261002f916101bf565b60008054336001600160a01b031991821681178355600180546001600160a01b0387169316831790556040518593919291907f8be0079c531659141344cd1fd0a4f28419497f9722a3daafe3b4186f6b6457e0908290a350508260405161009590610196565b6001600160a01b039091168152602001604051809103906000f0801580156100c1573d6000803e3d6000fd5b50600280546001600160a01b0319166001600160a01b039290921691909117905560405182906100f090610196565b6001600160a01b039091168152602001604051809103906000f08015801561011c573d6000803e3d6000fd5b50600380546001600160a01b03199081166001600160a01b0393841617909155600580548216868416908117909155600480549092169285169283179091556040513081527f4dc5f0070db7372507a32b040d6e05e71b6aef1067ae5203e2ffefa98ca4cac29060200160405180910390a3505050610209565b610c348061099183390190565b80516001600160a01b03811681146101ba57600080fd5b919050565b6000806000606084860312156101d3578283fd5b6101dc846101a3565b92506101ea602085016101a3565b9150604084015180151581146101fe578182fd5b809150509250925092565b610779806102186000396000f3fe6080604052600436106100915760003560e01c80638428dccc116100595780638428dccc1461012f5780638da5cb5b1461014257806398da87b414610160578063b48691e014610175578063f2fde38b1461018a57600080fd5b806303f5d25b146100965780634d547ada146100ad5780636628c1d1146100e45780637053e7e0146100f7578063715018a61461011a575b600080fd5b3480156100a257600080fd5b506100ab6101aa565b005b3480156100b957600080fd5b506001546001600160a01b03165b6040516001600160a01b0390911681526020015b60405180910390f35b6100ab6100f236600461069f565b610247565b34801561010357600080fd5b5061010c6102fc565b6040519081526020016100db565b34801561012657600080fd5b506100ab610428565b6100ab61013d36600461069f565b610472565b34801561014e57600080fd5b506000546001600160a01b03166100c7565b34801561016c57600080fd5b506100ab610527565b34801561018157600080fd5b5061010c6105a1565b34801561019657600080fd5b506100ab6101a536600461069f565b610619565b6000546001600160a01b031633146101dd5760405162461bcd60e51b81526004016101d4906106f6565b60405180910390fd5b600260009054906101000a90046001600160a01b03166001600160a01b0316639af6549a6040518163ffffffff1660e01b8152600401600060405180830381600087803b15801561022d57600080fd5b505af1158015610241573d6000803e3d6000fd5b50505050565b6000546001600160a01b031633146102715760405162461bcd60e51b81526004016101d4906106f6565b6002546040516351cff8d960e01b81526001600160a01b038381166004830152909116906351cff8d990602401600060405180830381600087803b1580156102b857600080fd5b505af11580156102cc573d6000803e3d6000fd5b50506040517f7a15267f0526551b50e6c288544c1ac87f16e7837002acfb601cf247ec718d4e925060009150a150565b600080546001600160a01b031633146103275760405162461bcd60e51b81526004016101d4906106f6565b600354604080516338af3eed60e01b815290516001600160a01b039092169163e3a9db1a9183916338af3eed91600480820192602092909190829003018186803b15801561037457600080fd5b505afa158015610388573d6000803e3d6000fd5b505050506040513d601f19601f820116820180604052508101906103ac91906106c2565b6040516001600160e01b031960e084901b1681526001600160a01b03909116600482015260240160206040518083038186803b1580156103eb57600080fd5b505afa1580156103ff573d6000803e3d6000fd5b505050506040513d601f19601f8201168201806040525081019061042391906106de565b905090565b6001546040516000916001600160a01b0316907f8be0079c531659141344cd1fd0a4f28419497f9722a3daafe3b4186f6b6457e0908390a3600180546001600160a01b0319169055565b6000546001600160a01b0316331461049c5760405162461bcd60e51b81526004016101d4906106f6565b6003546040516351cff8d960e01b81526001600160a01b038381166004830152909116906351cff8d990602401600060405180830381600087803b1580156104e357600080fd5b505af11580156104f7573d6000803e3d6000fd5b50506040517fb24b6304585135966b8217241802ddd6fe969a26cc5f252ebe153be87a6c007a925060009150a150565b6000546001600160a01b031633146105515760405162461bcd60e51b81526004016101d4906106f6565b600360009054906101000a90046001600160a01b03166001600160a01b0316639af6549a6040518163ffffffff1660e01b8152600401600060405180830381600087803b15801561022d57600080fd5b600080546001600160a01b031633146105cc5760405162461bcd60e51b81526004016101d4906106f6565b600254604080516338af3eed60e01b815290516001600160a01b039092169163e3a9db1a9183916338af3eed91600480820192602092909190829003018186803b15801561037457600080fd5b6000546001600160a01b031633146106435760405162461bcd60e51b81526004016101d4906106f6565b6001546040516001600160a01b038084169216907f8be0079c531659141344cd1fd0a4f28419497f9722a3daafe3b4186f6b6457e090600090a3600180546001600160a01b0319166001600160a01b0392909216919091179055565b6000602082840312156106b0578081fd5b81356106bb8161072b565b9392505050565b6000602082840312156106d3578081fd5b81516106bb8161072b565b6000602082840312156106ef578081fd5b5051919050565b6020808252818101527f4f776e61626c653a2063616c6c6572206973206e6f7420746865206f776e6572604082015260600190565b6001600160a01b038116811461074057600080fd5b5056fea26469706673582212209408c18c47ea74bde1031fb81585e07c6837a36ec504eed450969d9aefad074264736f6c6343000804003360a060405234801561001057600080fd5b50604051610c34380380610c3483398101604081905261002f916100ff565b600080546001600160a01b031916339081178255604051909182917f8be0079c531659141344cd1fd0a4f28419497f9722a3daafe3b4186f6b6457e0908290a3506001600160a01b0381166100e05760405162461bcd60e51b815260206004820152602d60248201527f526566756e64457363726f773a2062656e65666963696172792069732074686560448201526c207a65726f206164647265737360981b606482015260840160405180910390fd5b60601b6001600160601b0319166080526002805460ff1916905561012d565b600060208284031215610110578081fd5b81516001600160a01b0381168114610126578182fd5b9392505050565b60805160601c610ae36101516000396000818160bb01526105fb0152610ae36000f3fe6080604052600436106100a75760003560e01c80638da5cb5b116100645780638da5cb5b146101895780639af6549a146101a7578063c19d93fb146101bc578063e3a9db1a146101dc578063f2fde38b14610220578063f340fa011461024057600080fd5b806338af3eed146100ac57806343d726d6146100f857806351cff8d91461010f578063685ca1941461012f578063715018a61461015f5780638c52dc4114610174575b600080fd5b3480156100b857600080fd5b507f00000000000000000000000000000000000000000000000000000000000000005b6040516001600160a01b0390911681526020015b60405180910390f35b34801561010457600080fd5b5061010d610253565b005b34801561011b57600080fd5b5061010d61012a3660046109f4565b610343565b34801561013b57600080fd5b5061014f61014a3660046109f4565b6103c0565b60405190151581526020016100ef565b34801561016b57600080fd5b5061010d6103f0565b34801561018057600080fd5b5061010d610464565b34801561019557600080fd5b506000546001600160a01b03166100db565b3480156101b357600080fd5b5061010d610555565b3480156101c857600080fd5b5060025460ff166040516100ef9190610a17565b3480156101e857600080fd5b506102126101f73660046109f4565b6001600160a01b031660009081526001602052604090205490565b6040519081526020016100ef565b34801561022c57600080fd5b5061010d61023b3660046109f4565b610623565b61010d61024e3660046109f4565b61070d565b6000546001600160a01b031633146102865760405162461bcd60e51b815260040161027d90610a3f565b60405180910390fd5b600060025460ff1660028111156102ad57634e487b7160e01b600052602160045260246000fd5b1461030c5760405162461bcd60e51b815260206004820152602960248201527f526566756e64457363726f773a2063616e206f6e6c7920636c6f7365207768696044820152686c652061637469766560b81b606482015260840161027d565b6002805460ff1916811790556040517f088672c3a6e342f7cd94a65ba63b79df24a8973927b4d05d803c44bbf787d12f90600090a1565b61034c816103c0565b6103b45760405162461bcd60e51b815260206004820152603360248201527f436f6e646974696f6e616c457363726f773a207061796565206973206e6f7420604482015272616c6c6f77656420746f20776974686472617760681b606482015260840161027d565b6103bd8161079e565b50565b6000600160025460ff1660028111156103e957634e487b7160e01b600052602160045260246000fd5b1492915050565b6000546001600160a01b0316331461041a5760405162461bcd60e51b815260040161027d90610a3f565b600080546040516001600160a01b03909116907f8be0079c531659141344cd1fd0a4f28419497f9722a3daafe3b4186f6b6457e0908390a3600080546001600160a01b0319169055565b6000546001600160a01b0316331461048e5760405162461bcd60e51b815260040161027d90610a3f565b600060025460ff1660028111156104b557634e487b7160e01b600052602160045260246000fd5b1461051d5760405162461bcd60e51b815260206004820152603260248201527f526566756e64457363726f773a2063616e206f6e6c7920656e61626c6520726560448201527166756e6473207768696c652061637469766560701b606482015260840161027d565b6002805460ff191660011790556040517f599d8e5a83cffb867d051598c4d70e805d59802d8081c1c7d6dffc5b6aca2b8990600090a1565b6002805460ff16600281111561057b57634e487b7160e01b600052602160045260246000fd5b146105ee5760405162461bcd60e51b815260206004820152603860248201527f526566756e64457363726f773a2062656e65666963696172792063616e206f6e60448201527f6c79207769746864726177207768696c6520636c6f7365640000000000000000606482015260840161027d565b6106216001600160a01b037f00000000000000000000000000000000000000000000000000000000000000001647610837565b565b6000546001600160a01b0316331461064d5760405162461bcd60e51b815260040161027d90610a3f565b6001600160a01b0381166106b25760405162461bcd60e51b815260206004820152602660248201527f4f776e61626c653a206e6577206f776e657220697320746865207a65726f206160448201526564647265737360d01b606482015260840161027d565b600080546040516001600160a01b03808516939216917f8be0079c531659141344cd1fd0a4f28419497f9722a3daafe3b4186f6b6457e091a3600080546001600160a01b0319166001600160a01b0392909216919091179055565b600060025460ff16600281111561073457634e487b7160e01b600052602160045260246000fd5b146107955760405162461bcd60e51b815260206004820152602b60248201527f526566756e64457363726f773a2063616e206f6e6c79206465706f736974207760448201526a68696c652061637469766560a81b606482015260840161027d565b6103bd81610955565b6000546001600160a01b031633146107c85760405162461bcd60e51b815260040161027d90610a3f565b6001600160a01b03811660008181526001602052604081208054919055906107f09082610837565b816001600160a01b03167f7084f5476618d8e60b11ef0d7d3f06914655adb8793e28ff7f018d4c76d505d58260405161082b91815260200190565b60405180910390a25050565b804710156108875760405162461bcd60e51b815260206004820152601d60248201527f416464726573733a20696e73756666696369656e742062616c616e6365000000604482015260640161027d565b6000826001600160a01b03168260405160006040518083038185875af1925050503d80600081146108d4576040519150601f19603f3d011682016040523d82523d6000602084013e6108d9565b606091505b50509050806109505760405162461bcd60e51b815260206004820152603a60248201527f416464726573733a20756e61626c6520746f2073656e642076616c75652c207260448201527f6563697069656e74206d61792068617665207265766572746564000000000000606482015260840161027d565b505050565b6000546001600160a01b0316331461097f5760405162461bcd60e51b815260040161027d90610a3f565b6001600160a01b03811660009081526001602052604090205434906109a5908290610a74565b6001600160a01b038316600081815260016020526040908190209290925590517f2da466a7b24304f47e87fa2e1e5a81b9831ce54fec19055ce277ca2f39ba42c49061082b9084815260200190565b600060208284031215610a05578081fd5b8135610a1081610a98565b9392505050565b6020810160038310610a3957634e487b7160e01b600052602160045260246000fd5b91905290565b6020808252818101527f4f776e61626c653a2063616c6c6572206973206e6f7420746865206f776e6572604082015260600190565b60008219821115610a9357634e487b7160e01b81526011600452602481fd5b500190565b6001600160a01b03811681146103bd57600080fdfea26469706673582212207197c64796de13c7124672af55f903e38f7685943b195b81782b5198386edd3d64736f6c63430008040033a2646970667358221220ebd8321c98948ea02eba560b754bd635714dffc4b2370de9ff85c1609c9ae3f864736f6c63430008040033",
    "sourcePath": "/Users/elijahhampton/git/opportunity-core/src/contracts/exchange/WorkRelationship.sol",
    "compiler": {
        "name": "solc",
        "version": "0.8.4+commit.c7e474f2"
    },
    "functionHashes": {
        "_contractStatus()": "e6e88593",
        "_workExchangeAddress()": "eebc6e3d",
        "assignNewWorker(address,(string,uint256,uint256),bool)": "4568a94e",
        "createWorkExchange(address,bool)": "446a02b3",
        "disableWorkRelationship()": "ce079b9a",
        "getTaskPointer()": "4a67f548",
        "owner()": "8da5cb5b",
        "renounceOwnership()": "715018a6",
        "transferOwnership(address)": "f2fde38b",
        "updateTaskPointer(string)": "c34533a9"
    },
    "gasEstimates": {
        "creation": {
            "codeDepositCost": "1694200",
            "executionCost": "infinite",
            "totalCost": "infinite"
        },
        "external": {
            "_contractStatus()": "1112",
            "_workExchangeAddress()": "1103",
            "assignNewWorker(address,(string,uint256,uint256),bool)": "infinite",
            "createWorkExchange(address,bool)": "infinite",
            "disableWorkRelationship()": "4261",
            "getTaskPointer()": "infinite",
            "owner()": "1109",
            "renounceOwnership()": "24232",
            "transferOwnership(address)": "24482",
            "updateTaskPointer(string)": "infinite"
        },
        "internal": {
            "checkWorkerEvaluation(address,struct Evaluation.EvaluationState memory)": "infinite"
        }
    }
}