{
    "contractName": "WorkRelationship",
    "abi": [
        {
            "inputs": [
                {
                    "internalType": "address",
                    "name": "jobRequester",
                    "type": "address"
                },
                {
                    "internalType": "string",
                    "name": "taskMetadataPointer",
                    "type": "string"
                }
            ],
            "stateMutability": "payable",
            "type": "constructor"
        },
        {
            "inputs": [],
            "name": "_contractStatus",
            "outputs": [
                {
                    "internalType": "enum Evaluation.WorkRelationshipState",
                    "name": "",
                    "type": "uint8"
                }
            ],
            "stateMutability": "view",
            "type": "function"
        },
        {
            "inputs": [],
            "name": "_taskMetadataPointer",
            "outputs": [
                {
                    "internalType": "string",
                    "name": "",
                    "type": "string"
                }
            ],
            "stateMutability": "view",
            "type": "function"
        },
        {
            "inputs": [],
            "name": "_workExchangeAddress",
            "outputs": [
                {
                    "internalType": "address",
                    "name": "",
                    "type": "address"
                }
            ],
            "stateMutability": "view",
            "type": "function"
        },
        {
            "inputs": [],
            "name": "_workerAddress",
            "outputs": [
                {
                    "internalType": "address",
                    "name": "",
                    "type": "address"
                }
            ],
            "stateMutability": "view",
            "type": "function"
        },
        {
            "inputs": [
                {
                    "internalType": "address",
                    "name": "workerAddress",
                    "type": "address"
                }
            ],
            "name": "acceptJob",
            "outputs": [],
            "stateMutability": "payable",
            "type": "function"
        },
        {
            "inputs": [
                {
                    "internalType": "address",
                    "name": "workerUniversalAddress",
                    "type": "address"
                },
                {
                    "components": [
                        {
                            "internalType": "string",
                            "name": "industry",
                            "type": "string"
                        },
                        {
                            "internalType": "uint256",
                            "name": "industrylevel",
                            "type": "uint256"
                        },
                        {
                            "internalType": "uint256",
                            "name": "reputation",
                            "type": "uint256"
                        }
                    ],
                    "internalType": "struct Evaluation.EvaluationState",
                    "name": "evaluationState",
                    "type": "tuple"
                }
            ],
            "name": "checkWorkerEvaluation",
            "outputs": [
                {
                    "internalType": "bool",
                    "name": "",
                    "type": "bool"
                }
            ],
            "stateMutability": "nonpayable",
            "type": "function"
        },
        {
            "inputs": [],
            "name": "getTaskSolutionPointer",
            "outputs": [
                {
                    "internalType": "string",
                    "name": "",
                    "type": "string"
                }
            ],
            "stateMutability": "view",
            "type": "function"
        },
        {
            "inputs": [],
            "name": "owner",
            "outputs": [
                {
                    "internalType": "address",
                    "name": "",
                    "type": "address"
                }
            ],
            "stateMutability": "view",
            "type": "function"
        },
        {
            "inputs": [
                {
                    "internalType": "string",
                    "name": "newTaskPointerHash",
                    "type": "string"
                }
            ],
            "name": "updateTaskMetadataPointer",
            "outputs": [],
            "stateMutability": "nonpayable",
            "type": "function"
        },
        {
            "inputs": [
                {
                    "internalType": "string",
                    "name": "newTaskPointerHash",
                    "type": "string"
                }
            ],
            "name": "updateTaskSolutionPointer",
            "outputs": [],
            "stateMutability": "nonpayable",
            "type": "function"
        }
    ],
    "bytecode": "60a06040819052600060808190526200001b91600391620000b6565b506040805160208101918290526000908190526200003c91600491620000b6565b5060405162000b8d38038062000b8d8339810160408190526200005f916200015c565b6001600160a01b0382166200007357600080fd5b600280546001600160a01b0319166001600160a01b0384161790556005805460ff191690558051620000ad906003906020840190620000b6565b505050620002a8565b828054620000c49062000255565b90600052602060002090601f016020900481019282620000e8576000855562000133565b82601f106200010357805160ff191683800117855562000133565b8280016001018555821562000133579182015b828111156200013357825182559160200191906001019062000116565b506200014192915062000145565b5090565b5b8082111562000141576000815560010162000146565b600080604083850312156200016f578182fd5b82516001600160a01b038116811462000186578283fd5b602084810151919350906001600160401b0380821115620001a5578384fd5b818601915086601f830112620001b9578384fd5b815181811115620001ce57620001ce62000292565b604051601f8201601f19908116603f01168101908382118183101715620001f957620001f962000292565b81604052828152898684870101111562000211578687fd5b8693505b8284101562000234578484018601518185018701529285019262000215565b828411156200024557868684830101525b8096505050505050509250929050565b600181811c908216806200026a57607f821691505b602082108114156200028c57634e487b7160e01b600052602260045260246000fd5b50919050565b634e487b7160e01b600052604160045260246000fd5b6108d580620002b86000396000f3fe6080604052600436106100915760003560e01c8063cb18368711610059578063cb18368714610169578063df502c6b1461017c578063e6e8859314610191578063ec3a4790146101b8578063eebc6e3d146101d857600080fd5b806335e92819146100965780635db28c66146100b85780637843c0e4146100e35780638da5cb5b1461011b57806396d6d69614610139575b600080fd5b3480156100a257600080fd5b506100b66100b1366004610710565b6101f8565b005b3480156100c457600080fd5b506100cd610281565b6040516100da91906107b6565b60405180910390f35b3480156100ef57600080fd5b50600154610103906001600160a01b031681565b6040516001600160a01b0390911681526020016100da565b34801561012757600080fd5b506002546001600160a01b0316610103565b34801561014557600080fd5b5061015961015436600461064a565b61034c565b60405190151581526020016100da565b6100b6610177366004610629565b6103d5565b34801561018857600080fd5b506100cd610417565b34801561019d57600080fd5b506005546101ab9060ff1681565b6040516100da919061078e565b3480156101c457600080fd5b506100b66101d3366004610710565b6104a5565b3480156101e457600080fd5b50600054610103906001600160a01b031681565b6001546001600160a01b0316331461026a5760405162461bcd60e51b815260206004820152602a60248201527f576f726b52656c6174696f6e736869703a2063616c6c6572206973206e6f74206044820152693a3432903bb7b935b2b960b11b60648201526084015b60405180910390fd5b805161027d9060049060208401906104ed565b5050565b6060336102966002546001600160a01b031690565b6001600160a01b0316146102bc5760405162461bcd60e51b8152600401610261906107c9565b600480546102c99061084e565b80601f01602080910402602001604051908101604052809291908181526020018280546102f59061084e565b80156103425780601f1061031757610100808354040283529160200191610342565b820191906000526020600020905b81548152906001019060200180831161032557829003601f168201915b5050505050905090565b600080836001600160a01b0316635d5f221f846040518263ffffffff1660e01b815260040161037b9190610812565b602060405180830381600087803b15801561039557600080fd5b505af11580156103a9573d6000803e3d6000fd5b505050506040513d601f19601f820116820180604052508101906103cd91906106f0565b949350505050565b336001600160a01b038216146103ea57600080fd5b600180546001600160a01b0319166001600160a01b03831617905560058054600660ff1990911617905550565b600380546104249061084e565b80601f01602080910402602001604051908101604052809291908181526020018280546104509061084e565b801561049d5780601f106104725761010080835404028352916020019161049d565b820191906000526020600020905b81548152906001019060200180831161048057829003601f168201915b505050505081565b336104b86002546001600160a01b031690565b6001600160a01b0316146104de5760405162461bcd60e51b8152600401610261906107c9565b805161027d9060039060208401905b8280546104f99061084e565b90600052602060002090601f01602090048101928261051b5760008555610561565b82601f1061053457805160ff1916838001178555610561565b82800160010185558215610561579182015b82811115610561578251825591602001919060010190610546565b5061056d929150610571565b5090565b5b8082111561056d5760008155600101610572565b80356001600160a01b038116811461059d57600080fd5b919050565b600082601f8301126105b2578081fd5b813567ffffffffffffffff808211156105cd576105cd610889565b604051601f8301601f19908116603f011681019082821181831017156105f5576105f5610889565b8160405283815286602085880101111561060d578485fd5b8360208701602083013792830160200193909352509392505050565b60006020828403121561063a578081fd5b61064382610586565b9392505050565b6000806040838503121561065c578081fd5b61066583610586565b9150602083013567ffffffffffffffff80821115610681578283fd5b9084019060608287031215610694578283fd5b6040516060810181811083821117156106af576106af610889565b6040528235828111156106c0578485fd5b6106cc888286016105a2565b82525060208301356020820152604083013560408201528093505050509250929050565b600060208284031215610701578081fd5b81518015158114610643578182fd5b600060208284031215610721578081fd5b813567ffffffffffffffff811115610737578182fd5b6103cd848285016105a2565b60008151808452815b818110156107685760208185018101518683018201520161074c565b818111156107795782602083870101525b50601f01601f19169290920160200192915050565b60208101600783106107b057634e487b7160e01b600052602160045260246000fd5b91905290565b6020815260006106436020830184610743565b60208082526029908201527f576f726b52656c6174696f6e736869703a2063616c6c6572206973206e6f74206040820152683a34329037bbb732b960b91b606082015260800190565b60208152600082516060602084015261082e6080840182610743565b905060208401516040840152604084015160608401528091505092915050565b600181811c9082168061086257607f821691505b6020821081141561088357634e487b7160e01b600052602260045260246000fd5b50919050565b634e487b7160e01b600052604160045260246000fdfea2646970667358221220103fb3ab703dec9ce159cbe6b2422245a581a7810ecb726c36a4d1bc4cdd9ed664736f6c63430008040033",
    "sourcePath": "/Users/elijahhampton/Desktop/opportunity-core/src/contracts/exchange/WorkRelationship.sol",
    "compiler": {
        "name": "solc",
        "version": "0.8.4+commit.c7e474f2"
    },
    "functionHashes": {
        "_contractStatus()": "e6e88593",
        "_taskMetadataPointer()": "df502c6b",
        "_workExchangeAddress()": "eebc6e3d",
        "_workerAddress()": "7843c0e4",
        "acceptJob(address)": "cb183687",
        "checkWorkerEvaluation(address,(string,uint256,uint256))": "96d6d696",
        "getTaskSolutionPointer()": "5db28c66",
        "owner()": "8da5cb5b",
        "updateTaskMetadataPointer(string)": "ec3a4790",
        "updateTaskSolutionPointer(string)": "35e92819"
    },
    "gasEstimates": {
        "creation": {
            "codeDepositCost": "452200",
            "executionCost": "infinite",
            "totalCost": "infinite"
        },
        "external": {
            "_contractStatus()": "1095",
            "_taskMetadataPointer()": "infinite",
            "_workExchangeAddress()": "1125",
            "_workerAddress()": "1082",
            "acceptJob(address)": "42004",
            "checkWorkerEvaluation(address,(string,uint256,uint256))": "infinite",
            "getTaskSolutionPointer()": "infinite",
            "owner()": "1098",
            "updateTaskMetadataPointer(string)": "infinite",
            "updateTaskSolutionPointer(string)": "infinite"
        },
        "internal": {
            "assignNewWorker(address)": "infinite"
        }
    }
}