{
    "contractName": "WorkRelationship",
    "abi": [
        {
            "inputs": [
                {
                    "internalType": "address",
                    "name": "jobRequester",
                    "type": "address"
                },
                {
                    "internalType": "string",
                    "name": "taskMetadataPointer",
                    "type": "string"
                }
            ],
            "stateMutability": "nonpayable",
            "type": "constructor"
        },
        {
            "inputs": [],
            "name": "_contractStatus",
            "outputs": [
                {
                    "internalType": "enum Evaluation.WorkRelationshipState",
                    "name": "",
                    "type": "uint8"
                }
            ],
            "stateMutability": "view",
            "type": "function"
        },
        {
            "inputs": [],
            "name": "_taskMetadataPointer",
            "outputs": [
                {
                    "internalType": "string",
                    "name": "",
                    "type": "string"
                }
            ],
            "stateMutability": "view",
            "type": "function"
        },
        {
            "inputs": [],
            "name": "_workExchangeAddress",
            "outputs": [
                {
                    "internalType": "address",
                    "name": "",
                    "type": "address"
                }
            ],
            "stateMutability": "view",
            "type": "function"
        },
        {
            "inputs": [],
            "name": "_workerAddress",
            "outputs": [
                {
                    "internalType": "address",
                    "name": "",
                    "type": "address"
                }
            ],
            "stateMutability": "view",
            "type": "function"
        },
        {
            "inputs": [
                {
                    "internalType": "address",
                    "name": "newWorker",
                    "type": "address"
                },
                {
                    "components": [
                        {
                            "internalType": "string",
                            "name": "industry",
                            "type": "string"
                        },
                        {
                            "internalType": "uint256",
                            "name": "industrylevel",
                            "type": "uint256"
                        },
                        {
                            "internalType": "uint256",
                            "name": "reputation",
                            "type": "uint256"
                        }
                    ],
                    "internalType": "struct Evaluation.EvaluationState",
                    "name": "evaluationState",
                    "type": "tuple"
                }
            ],
            "name": "assignNewWorker",
            "outputs": [],
            "stateMutability": "nonpayable",
            "type": "function"
        },
        {
            "inputs": [],
            "name": "getTaskSolutionPointer",
            "outputs": [
                {
                    "internalType": "string",
                    "name": "",
                    "type": "string"
                }
            ],
            "stateMutability": "view",
            "type": "function"
        },
        {
            "inputs": [],
            "name": "owner",
            "outputs": [
                {
                    "internalType": "address",
                    "name": "",
                    "type": "address"
                }
            ],
            "stateMutability": "view",
            "type": "function"
        },
        {
            "inputs": [
                {
                    "internalType": "string",
                    "name": "newTaskPointerHash",
                    "type": "string"
                }
            ],
            "name": "updateTaskMetadataPointer",
            "outputs": [],
            "stateMutability": "nonpayable",
            "type": "function"
        },
        {
            "inputs": [
                {
                    "internalType": "string",
                    "name": "newTaskPointerHash",
                    "type": "string"
                }
            ],
            "name": "updateTaskSolutionPointer",
            "outputs": [],
            "stateMutability": "nonpayable",
            "type": "function"
        }
    ],
    "bytecode": "60a06040819052600060808190526200001b91600391620000c4565b506040805160208101918290526000908190526200003c91600491620000c4565b503480156200004a57600080fd5b5060405162000b2b38038062000b2b8339810160408190526200006d916200016a565b6001600160a01b0382166200008157600080fd5b600280546001600160a01b0319166001600160a01b0384161790556005805460ff191690558051620000bb906003906020840190620000c4565b505050620002b6565b828054620000d29062000263565b90600052602060002090601f016020900481019282620000f6576000855562000141565b82601f106200011157805160ff191683800117855562000141565b8280016001018555821562000141579182015b828111156200014157825182559160200191906001019062000124565b506200014f92915062000153565b5090565b5b808211156200014f576000815560010162000154565b600080604083850312156200017d578182fd5b82516001600160a01b038116811462000194578283fd5b602084810151919350906001600160401b0380821115620001b3578384fd5b818601915086601f830112620001c7578384fd5b815181811115620001dc57620001dc620002a0565b604051601f8201601f19908116603f01168101908382118183101715620002075762000207620002a0565b8160405282815289868487010111156200021f578687fd5b8693505b8284101562000242578484018601518185018701529285019262000223565b828411156200025357868684830101525b8096505050505050509250929050565b600181811c908216806200027857607f821691505b602082108114156200029a57634e487b7160e01b600052602260045260246000fd5b50919050565b634e487b7160e01b600052604160045260246000fd5b61086580620002c66000396000f3fe608060405234801561001057600080fd5b50600436106100935760003560e01c806393e3806c1161006657806393e3806c14610107578063df502c6b1461011a578063e6e8859314610122578063ec3a47901461013c578063eebc6e3d1461014f57600080fd5b806335e92819146100985780635db28c66146100ad5780637843c0e4146100cb5780638da5cb5b146100f6575b600080fd5b6100ab6100a6366004610677565b610162565b005b6100b56101eb565b6040516100c2919061071d565b60405180910390f35b6001546100de906001600160a01b031681565b6040516001600160a01b0390911681526020016100c2565b6002546001600160a01b03166100de565b6100ab6101153660046105b3565b6102b6565b6100b5610330565b60055461012f9060ff1681565b6040516100c291906106f5565b6100ab61014a366004610677565b6103be565b6000546100de906001600160a01b031681565b6001546001600160a01b031633146101d45760405162461bcd60e51b815260206004820152602a60248201527f576f726b52656c6174696f6e736869703a2063616c6c6572206973206e6f74206044820152693a3432903bb7b935b2b960b11b60648201526084015b60405180910390fd5b80516101e7906004906020840190610493565b5050565b6060336102006002546001600160a01b031690565b6001600160a01b0316146102265760405162461bcd60e51b81526004016101cb90610730565b60048054610233906107de565b80601f016020809104026020016040519081016040528092919081815260200182805461025f906107de565b80156102ac5780601f10610281576101008083540402835291602001916102ac565b820191906000526020600020905b81548152906001019060200180831161028f57829003601f168201915b5050505050905090565b336102c96002546001600160a01b031690565b6001600160a01b0316146102ef5760405162461bcd60e51b81526004016101cb90610730565b60006102fb838361040a565b905060018115151461030c57600080fd5b5050600180546001600160a01b0319166001600160a01b0392909216919091179055565b6003805461033d906107de565b80601f0160208091040260200160405190810160405280929190818152602001828054610369906107de565b80156103b65780601f1061038b576101008083540402835291602001916103b6565b820191906000526020600020905b81548152906001019060200180831161039957829003601f168201915b505050505081565b336103d16002546001600160a01b031690565b6001600160a01b0316146103f75760405162461bcd60e51b81526004016101cb90610730565b80516101e7906003906020840190610493565b600080836001600160a01b0316635d5f221f846040518263ffffffff1660e01b81526004016104399190610779565b602060405180830381600087803b15801561045357600080fd5b505af1158015610467573d6000803e3d6000fd5b505050506040513d601f19601f8201168201806040525081019061048b9190610650565b949350505050565b82805461049f906107de565b90600052602060002090601f0160209004810192826104c15760008555610507565b82601f106104da57805160ff1916838001178555610507565b82800160010185558215610507579182015b828111156105075782518255916020019190600101906104ec565b50610513929150610517565b5090565b5b808211156105135760008155600101610518565b600082601f83011261053c578081fd5b813567ffffffffffffffff8082111561055757610557610819565b604051601f8301601f19908116603f0116810190828211818310171561057f5761057f610819565b81604052838152866020858801011115610597578485fd5b8360208701602083013792830160200193909352509392505050565b600080604083850312156105c5578182fd5b82356001600160a01b03811681146105db578283fd5b9150602083013567ffffffffffffffff808211156105f7578283fd5b908401906060828703121561060a578283fd5b6106126107b5565b823582811115610620578485fd5b61062c8882860161052c565b82525060208301356020820152604083013560408201528093505050509250929050565b600060208284031215610661578081fd5b81518015158114610670578182fd5b9392505050565b600060208284031215610688578081fd5b813567ffffffffffffffff81111561069e578182fd5b61048b8482850161052c565b60008151808452815b818110156106cf576020818501810151868301820152016106b3565b818111156106e05782602083870101525b50601f01601f19169290920160200192915050565b602081016007831061071757634e487b7160e01b600052602160045260246000fd5b91905290565b60208152600061067060208301846106aa565b60208082526029908201527f576f726b52656c6174696f6e736869703a2063616c6c6572206973206e6f74206040820152683a34329037bbb732b960b91b606082015260800190565b60208152600082516060602084015261079560808401826106aa565b905060208401516040840152604084015160608401528091505092915050565b6040516060810167ffffffffffffffff811182821017156107d8576107d8610819565b60405290565b600181811c908216806107f257607f821691505b6020821081141561081357634e487b7160e01b600052602260045260246000fd5b50919050565b634e487b7160e01b600052604160045260246000fdfea2646970667358221220d9aa9c07453bfb6c79e1fc1eb896a0d4afb61916958d16b100a32103cb909d3b64736f6c63430008040033",
    "sourcePath": "/Users/elijahhampton/Desktop/opportunity-core/src/contracts/exchange/WorkRelationship.sol",
    "compiler": {
        "name": "solc",
        "version": "0.8.4+commit.c7e474f2"
    },
    "functionHashes": {
        "_contractStatus()": "e6e88593",
        "_taskMetadataPointer()": "df502c6b",
        "_workExchangeAddress()": "eebc6e3d",
        "_workerAddress()": "7843c0e4",
        "assignNewWorker(address,(string,uint256,uint256))": "93e3806c",
        "getTaskSolutionPointer()": "5db28c66",
        "owner()": "8da5cb5b",
        "updateTaskMetadataPointer(string)": "ec3a4790",
        "updateTaskSolutionPointer(string)": "35e92819"
    },
    "gasEstimates": {
        "creation": {
            "codeDepositCost": "429800",
            "executionCost": "infinite",
            "totalCost": "infinite"
        },
        "external": {
            "_contractStatus()": "1095",
            "_taskMetadataPointer()": "infinite",
            "_workExchangeAddress()": "1125",
            "_workerAddress()": "1082",
            "assignNewWorker(address,(string,uint256,uint256))": "infinite",
            "getTaskSolutionPointer()": "infinite",
            "owner()": "1098",
            "updateTaskMetadataPointer(string)": "infinite",
            "updateTaskSolutionPointer(string)": "infinite"
        },
        "internal": {
            "checkWorkerEvaluation(address,struct Evaluation.EvaluationState memory)": "infinite"
        }
    }
}