{
  "_format": "hh-sol-artifact-1",
  "contractName": "MarketFactory",
  "sourceName": "contracts/market/MarketFactory.sol",
  "abi": [
    {
      "anonymous": false,
      "inputs": [
        {
          "indexed": true,
          "internalType": "address",
          "name": "_market",
          "type": "address"
        },
        {
          "indexed": true,
          "internalType": "uint256",
          "name": "index",
          "type": "uint256"
        },
        {
          "indexed": false,
          "internalType": "address",
          "name": "owner",
          "type": "address"
        },
        {
          "indexed": false,
          "internalType": "string",
          "name": "marketName",
          "type": "string"
        }
      ],
      "name": "MarketCreated",
      "type": "event"
    },
    {
      "anonymous": false,
      "inputs": [
        {
          "indexed": true,
          "internalType": "address",
          "name": "_marketAddress",
          "type": "address"
        }
      ],
      "name": "MarketDestroyed",
      "type": "event"
    },
    {
      "inputs": [
        {
          "internalType": "uint256",
          "name": "",
          "type": "uint256"
        }
      ],
      "name": "_createdMarkets",
      "outputs": [
        {
          "internalType": "address",
          "name": "",
          "type": "address"
        }
      ],
      "stateMutability": "view",
      "type": "function"
    },
    {
      "inputs": [
        {
          "internalType": "string",
          "name": "marketName",
          "type": "string"
        },
        {
          "internalType": "enum MarketLib.MarketType",
          "name": "marketType",
          "type": "uint8"
        }
      ],
      "name": "createMarket",
      "outputs": [],
      "stateMutability": "nonpayable",
      "type": "function"
    },
    {
      "inputs": [
        {
          "internalType": "uint32",
          "name": "index",
          "type": "uint32"
        }
      ],
      "name": "destroyMarket",
      "outputs": [],
      "stateMutability": "nonpayable",
      "type": "function"
    },
    {
      "inputs": [],
      "name": "getMarkets",
      "outputs": [
        {
          "internalType": "address[]",
          "name": "",
          "type": "address[]"
        }
      ],
      "stateMutability": "view",
      "type": "function"
    },
    {
      "inputs": [],
      "name": "getNumMarkets",
      "outputs": [
        {
          "internalType": "uint256",
          "name": "",
          "type": "uint256"
        }
      ],
      "stateMutability": "view",
      "type": "function"
    }
  ],
  "bytecode": "0x608060405234801561001057600080fd5b506132cf806100206000396000f3fe608060405234801561001057600080fd5b50600436106100575760003560e01c8063295c39a51461005c57806394542cd614610072578063b93c517314610087578063c2ca748b146100b2578063ec2c9016146100c5575b600080fd5b6000546040519081526020015b60405180910390f35b61008561008036600461045d565b6100da565b005b61009a610095366004610444565b610163565b6040516001600160a01b039091168152602001610069565b6100856100c0366004610382565b61018d565b6100cd610295565b6040516100699190610503565b60008163ffffffff16815481106100f3576100f36105ba565b6000918252602082200180546001600160a01b0319169055805463ffffffff8316908110610123576101236105ba565b60009182526020822001546040516001600160a01b03909116917f78d1ea5a863e0b3fe0212151f92d49b33ecb2161bea91f3f90a0b97955d0674291a250565b6000818154811061017357600080fd5b6000918252602090912001546001600160a01b0316905081565b6000828260405161019d90610361565b6101a892919061057a565b604051809103906000f0801580156101c4573d6000803e3d6000fd5b5090506102066040518060400160405280601b81526020017f4d61726b6574206372656174656420617420616464726573733a200000000000815250826102f7565b600080546001810182558180527f290decd9548b62a8d60345a988386fc84ba6bc95484008f6362f93160ef3e5630180546001600160a01b0319166001600160a01b03841690811790915590546040519091907f9a7b337ae3b401f60fe72d2f1d2a551465834d7d628737f20259c99ea0db94419061028890339088906104d7565b60405180910390a3505050565b606060008054806020026020016040519081016040528092919081815260200182805480156102ed57602002820191906000526020600020905b81546001600160a01b031681526001909101906020018083116102cf575b5050505050905090565b61033c828260405160240161030d929190610550565b60408051601f198184030181529190526020810180516001600160e01b031663319af33360e01b179052610340565b5050565b80516a636f6e736f6c652e6c6f67602083016000808483855afa5050505050565b612cb3806105e783390190565b80356002811061037d57600080fd5b919050565b6000806040838503121561039557600080fd5b823567ffffffffffffffff808211156103ad57600080fd5b818501915085601f8301126103c157600080fd5b8135818111156103d3576103d36105d0565b604051601f8201601f19908116603f011681019083821181831017156103fb576103fb6105d0565b8160405282815288602084870101111561041457600080fd5b82602086016020830137600060208483010152809650505050505061043b6020840161036e565b90509250929050565b60006020828403121561045657600080fd5b5035919050565b60006020828403121561046f57600080fd5b813563ffffffff8116811461048357600080fd5b9392505050565b6000815180845260005b818110156104b057602081850181015186830182015201610494565b818111156104c2576000602083870101525b50601f01601f19169290920160200192915050565b6001600160a01b03831681526040602082018190526000906104fb9083018461048a565b949350505050565b6020808252825182820181905260009190848201906040850190845b818110156105445783516001600160a01b03168352928401929184019160010161051f565b50909695505050505050565b604081526000610563604083018561048a565b905060018060a01b03831660208301529392505050565b60408152600061058d604083018561048a565b9050600283106105ad57634e487b7160e01b600052602160045260246000fd5b8260208301529392505050565b634e487b7160e01b600052603260045260246000fd5b634e487b7160e01b600052604160045260246000fdfe60806040523480156200001157600080fd5b5060405162002cb338038062002cb3833981016040819052620000349162000132565b81516200004990600090602085019062000077565b506001805482919060ff19168183818111156200006a576200006a62000260565b021790555050506200028c565b828054620000859062000223565b90600052602060002090601f016020900481019282620000a95760008555620000f4565b82601f10620000c457805160ff1916838001178555620000f4565b82800160010185558215620000f4579182015b82811115620000f4578251825591602001919060010190620000d7565b506200010292915062000106565b5090565b5b8082111562000102576000815560010162000107565b8051600281106200012d57600080fd5b919050565b600080604083850312156200014657600080fd5b82516001600160401b03808211156200015e57600080fd5b818501915085601f8301126200017357600080fd5b81518181111562000188576200018862000276565b604051601f8201601f19908116603f01168101908382118183101715620001b357620001b362000276565b81604052828152602093508884848701011115620001d057600080fd5b600091505b82821015620001f45784820184015181830185015290830190620001d5565b82821115620002065760008484830101525b9550620002189150508582016200011d565b925050509250929050565b600181811c908216806200023857607f821691505b602082108114156200025a57634e487b7160e01b600052602260045260246000fd5b50919050565b634e487b7160e01b600052602160045260246000fd5b634e487b7160e01b600052604160045260246000fd5b612a17806200029c6000396000f3fe60806040523480156200001157600080fd5b5060043610620000935760003560e01c806343476ef6116200006257806343476ef6146200011b57806350d4d1f71462000132578063e6bfd26a1462000144578063fe40a7ba146200015d57600080fd5b806323b08c2a14620000985780632dd4890914620000cc578063313dc23114620000e957806336e114fc1462000102575b600080fd5b620000af620000a936600462000602565b62000174565b6040516001600160a01b0390911681526020015b60405180910390f35b600154620000da9060ff1681565b604051620000c3919062000733565b62000100620000fa3660046200050a565b620001ad565b005b6200010c6200031d565b604051620000c39190620006e4565b6200010c6200012c366004620004e5565b62000381565b600254604051908152602001620000c3565b6200014e620003f9565b604051620000c3919062000748565b620000af6200016e3660046200062f565b6200048f565b600360205281600052604060002081815481106200019157600080fd5b6000918252602090912001546001600160a01b03169150829050565b33620001f55760405162461bcd60e51b815260206004820152601360248201527224b73b30b634b2103a30b9b59037bbb732b91760691b604482015260640160405180910390fd5b60003390506000858585856040516200020e90620004ba565b6200021d949392919062000699565b604051809103906000f0801580156200023a573d6000803e3d6000fd5b506002805460018181019092557f405787fa12a823e0f2b7631cc41b3ba8828b3321ca811111fa75cd3aa3bb5ace0180546001600160a01b038085166001600160a01b031992831681179093558616600081815260036020908152604080832080549788018155835290822090950180549093168417909255925193945030939192917f43af47c504a2f23934b1a816cd86633559721bf26c3656844bdde3edd4719e139190a46040516001600160a01b038316907f592386ee859668d7987992afe7d12e270413029cc4eb8a9ca6fef89859b075f290600090a2505050505050565b606060028054806020026020016040519081016040528092919081815260200182805480156200037757602002820191906000526020600020905b81546001600160a01b0316815260019091019060200180831162000358575b5050505050905090565b6001600160a01b038116600090815260036020908152604091829020805483518184028101840190945280845260609392830182828015620003ed57602002820191906000526020600020905b81546001600160a01b03168152600190910190602001808311620003ce575b50505050509050919050565b6000805462000408906200075d565b80601f016020809104026020016040519081016040528092919081815260200182805462000436906200075d565b8015620004875780601f106200045b5761010080835404028352916020019162000487565b820191906000526020600020905b8154815290600101906020018083116200046957829003601f168201915b505050505081565b60028181548110620004a057600080fd5b6000918252602090912001546001600160a01b0316905081565b61220f80620007d383390190565b80356001600160a01b0381168114620004e057600080fd5b919050565b600060208284031215620004f857600080fd5b6200050382620004c8565b9392505050565b600080600080608085870312156200052157600080fd5b6200052c85620004c8565b93506020850135600281106200054157600080fd5b9250604085013567ffffffffffffffff808211156200055f57600080fd5b818701915087601f8301126200057457600080fd5b8135818111156200058957620005896200079a565b604051601f8201601f19908116603f01168101908382118183101715620005b457620005b46200079a565b816040528281528a6020848701011115620005ce57600080fd5b826020860160208301376000602084830101528096505050505050620005f760608601620004c8565b905092959194509250565b600080604083850312156200061657600080fd5b6200062183620004c8565b946020939093013593505050565b6000602082840312156200064257600080fd5b5035919050565b6000815180845260005b81811015620006715760208185018101518683018201520162000653565b8181111562000684576000602083870101525b50601f01601f19169290920160200192915050565b6001600160a01b038581168252600090620006b486620007b0565b85602084015260806040840152620006d0608084018662000649565b915080841660608401525095945050505050565b6020808252825182820181905260009190848201906040850190845b81811015620007275783516001600160a01b03168352928401929184019160010162000700565b50909695505050505050565b602081016200074283620007b0565b91905290565b60208152600062000503602083018462000649565b600181811c908216806200077257607f821691505b602082108114156200079457634e487b7160e01b600052602260045260246000fd5b50919050565b634e487b7160e01b600052604160045260246000fd5b60028110620007cf57634e487b7160e01b600052602160045260246000fd5b5056fe60a06040523480156200001157600080fd5b506040516200220f3803806200220f8339810160408190526200003491620003c2565b6001600160a01b038116620000b55760405162461bcd60e51b815260206004820152603360248201527f44616920746f6b656e20616464726573732063616e6e6f74206265203020776860448201527f656e206372656174696e6720657363726f772e00000000000000000000000000606482015260840160405180910390fd5b600480546001600160a01b038084166001600160a01b031992831617909255600280549091163317905560098054918616610100026001600160a81b031990921691909117905560408051808201909152600c81526b436861696e2069643a20257360a01b60208083019190915246916200013e9160ff84169062000f7e6200028d821b17901c565b60408051808201825260118152700576f726b2052656c6174696f6e7368697607c1b6020918201528151808301835260018152603160f81b9082015281517f8b73c3c69bb8fe3d512ecc4cf759cc79239f7b179b0ffacaa9a75d522b39400f918101919091527f23ae04968b80dec446ff6e10f2b3f92cabd9ce3ef49e1efba87e053dc4702f88918101919091527fc89efdaa54c0f20c7adf612882df0950f5a951637e0307cdcb4c672f298b8bc6606082015260ff821660808201523060a082015260c00160408051601f198184030181529190528051602090910120608052600180546001600160a01b0319163217815560078054869263ff000000199091169063010000009084908111156200025b576200025b62000567565b02179055506007805462ffffff19169055825162000281906005906020860190620002ff565b50505050505062000593565b620002da8282604051602401620002a6929190620004ba565b60408051601f198184030181529190526020810180516001600160e01b039081166309710a9d60e41b17909152620002de16565b5050565b80516a636f6e736f6c652e6c6f67602083016000808483855afa5050505050565b8280546200030d906200052a565b90600052602060002090601f0160209004810192826200033157600085556200037c565b82601f106200034c57805160ff19168380011785556200037c565b828001600101855582156200037c579182015b828111156200037c5782518255916020019190600101906200035f565b506200038a9291506200038e565b5090565b5b808211156200038a57600081556001016200038f565b80516001600160a01b0381168114620003bd57600080fd5b919050565b60008060008060808587031215620003d957600080fd5b620003e485620003a5565b9350602085015160028110620003f957600080fd5b60408601519093506001600160401b03808211156200041757600080fd5b818701915087601f8301126200042c57600080fd5b8151818111156200044157620004416200057d565b604051601f8201601f19908116603f011681019083821181831017156200046c576200046c6200057d565b816040528281528a60208487010111156200048657600080fd5b62000499836020830160208801620004f7565b8096505050505050620004af60608601620003a5565b905092959194509250565b6040815260008351806040840152620004db816060850160208801620004f7565b602083019390935250601f91909101601f191601606001919050565b60005b8381101562000514578181015183820152602001620004fa565b8381111562000524576000848401525b50505050565b600181811c908216806200053f57607f821691505b602082108114156200056157634e487b7160e01b600052602260045260246000fd5b50919050565b634e487b7160e01b600052602160045260246000fd5b634e487b7160e01b600052604160045260246000fd5b608051611c52620005bd60003960008181610310015281816104d80152610a140152611c526000f3fe608060405234801561001057600080fd5b50600436106101585760003560e01c806380f55605116100c3578063bf9321fc1161007c578063bf9321fc14610303578063bfce14ea1461030b578063c6ee20d214610332578063cb2ef6f71461034c578063da753a4f1461036d578063ec3a47901461037557600080fd5b806380f556051461028957806385209ee01461029c57806388302eec146102ae5780638da5cb5b146102b657806396118e44146102c9578063be22f546146102f057600080fd5b80634e12aa96116101155780634e12aa961461021857806350365be91461023f57806353318a87146102525780635db28c66146102655780637df38c5b1461026d5780637f7550431461027657600080fd5b8063188bbbf31461015d5780631ed4b49e1461018657806339987e521461019b5780633c86f6f3146101b0578063404b0361146101e55780634d547ada146101ed575b600080fd5b6007546101709062010000900460ff1681565b60405161017d91906118e5565b60405180910390f35b61018e610388565b60405161017d9190611919565b6101ae6101a93660046117ee565b610416565b005b6101d77ffa5e0016fb62b8dffda8fd95249d438edcffd3689b40ac3b4281d4cf710609ae81565b60405190815260200161017d565b6101ae61054e565b600054610200906001600160a01b031681565b6040516001600160a01b03909116815260200161017d565b6101d77fc35792dec8ea736e1a3478771b1f14a7472fd98ca01a9c9077ac63917f87f64981565b6101ae61024d3660046116ba565b61065e565b6101ae6102603660046116fe565b61095d565b6101d7610ab7565b6101d760035481565b6101ae610284366004611612565b610b15565b600254610200906001600160a01b031681565b60075461017090610100900460ff1681565b6101ae610d8f565b600154610200906001600160a01b031681565b6101d77f62b607caa4d4e7fcbd31bf4c033cd30888b536567fadc83710fdf15f8d5cfc9e81565b600454610200906001600160a01b031681565b610200610e02565b6101d77f000000000000000000000000000000000000000000000000000000000000000081565b60075461033f9060ff1681565b60405161017d91906118f8565b600754610360906301000000900460ff1681565b60405161017d919061190c565b6101ae610e6d565b6101ae610383366004611724565b610f04565b6005805461039590611b26565b80601f01602080910402602001604051908101604052809291908181526020018280546103c190611b26565b801561040e5780601f106103e35761010080835404028352916020019161040e565b820191906000526020600020905b8154815290600101906020018083116103f157829003601f168201915b505050505081565b6001546001600160a01b031633146104495760405162461bcd60e51b81526004016104409061194e565b60405180910390fd5b60038060075460ff16600481111561046357610463611bad565b146104805760405162461bcd60e51b8152600401610440906119d1565b604080517ffa5e0016fb62b8dffda8fd95249d438edcffd3689b40ac3b4281d4cf710609ae602080830191909152871580158385015283518084038501815260608401855280519083012061190160f01b60808501527f0000000000000000000000000000000000000000000000000000000000000000608285015260a2808501919091528451808503909101815260c290930190935281519101209061052e57610529610fc3565b610544565b600780546002919060ff19166001835b02179055505b5050505050505050565b6000546001600160a01b031633146105785760405162461bcd60e51b8152600401610440906119a1565b60028060075462010000900460ff16600281111561059857610598611bad565b146105b55760405162461bcd60e51b815260040161044090611a3b565b60028060075460ff1660048111156105cf576105cf611bad565b146105ec5760405162461bcd60e51b8152600401610440906119d1565b6003546106515760405162461bcd60e51b815260206004820152602d60248201527f5468657265206973206e6f2044414920746f207472616e73666572206261636b60448201526c103a37903a34329037bbb732b960991b6064820152608401610440565b61065961101b565b505050565b6000546001600160a01b031633146106885760405162461bcd60e51b8152600401610440906119a1565b600180600754610100900460ff1660028111156106a7576106a7611bad565b146106c45760405162461bcd60e51b815260040161044090611aa5565b60018060075460ff1660048111156106de576106de611bad565b146106fb5760405162461bcd60e51b8152600401610440906119d1565b60018060075462010000900460ff16600281111561071b5761071b611bad565b146107385760405162461bcd60e51b815260040161044090611a3b565b6001871515141561092e5760095460015460405163ad3b669360e01b81526001600160a01b03918216600482015260009261010090049091169063ad3b66939060240160206040518083038186803b15801561079357600080fd5b505afa1580156107a7573d6000803e3d6000fd5b505050506040513d601f19601f820116820180604052508101906107cb91906115ee565b6009546000805460405163ad3b669360e01b81526001600160a01b0391821660048201529394509092610100909204169063ad3b66939060240160206040518083038186803b15801561081d57600080fd5b505afa158015610831573d6000803e3d6000fd5b505050506040513d601f19601f8201168201806040525081019061085591906115ee565b6007805462ff00ff191662020002179055604051633c3a116960e11b81529091506001600160a01b0383169063787422d2906108969060009060040161190c565b600060405180830381600087803b1580156108b057600080fd5b505af11580156108c4573d6000803e3d6000fd5b5050604051633c3a116960e11b81526001600160a01b038416925063787422d291506108f59060019060040161190c565b600060405180830381600087803b15801561090f57600080fd5b505af1158015610923573d6000803e3d6000fd5b505050505050610954565b600080546001600160a01b031916905561094661101b565b506007805462ff00ff191690555b50505050505050565b6000546001600160a01b031633146109875760405162461bcd60e51b8152600401610440906119a1565b60028060075460ff1660048111156109a1576109a1611bad565b146109be5760405162461bcd60e51b8152600401610440906119d1565b604080517f62b607caa4d4e7fcbd31bf4c033cd30888b536567fadc83710fdf15f8d5cfc9e60208083019190915281830188905282518083038401815260608301845280519082012061190160f01b60808401527f0000000000000000000000000000000000000000000000000000000000000000608284015260a2808401919091528351808403909101815260c290920190925280519101206000546001600160a01b0316610a6d57600080fd5b610a7686600655565b6007805460ff191660031790556009805460ff16906000610a9683611b61565b91906101000a81548160ff021916908360ff16021790555050505050505050565b6001546000906001600160a01b03163314610ae45760405162461bcd60e51b81526004016104409061194e565b6000546001600160a01b03163314610b0e5760405162461bcd60e51b8152600401610440906119a1565b5060065490565b6001546001600160a01b03163314610b3f5760405162461bcd60e51b81526004016104409061194e565b600080600754610100900460ff166002811115610b5e57610b5e611bad565b14610b7b5760405162461bcd60e51b815260040161044090611aa5565b60008060075460ff166004811115610b9557610b95611bad565b14610bb25760405162461bcd60e51b8152600401610440906119d1565b6001600160a01b038c16610c2e5760405162461bcd60e51b815260206004820152603760248201527f576f726b65722061646472657373206d757374206e6f7420626520302077686560448201527f6e2061737369676e696e67206e657720776f726b65722e0000000000000000006064820152608401610440565b8a610c7b5760405162461bcd60e51b815260206004820181905260248201527f44616920616d6f756e742063616e6e6f7420626520657175616c20746f20302e6044820152606401610440565b600480546001546040516370a0823160e01b81526001600160a01b03918216938101939093526000929116906370a082319060240160206040518083038186803b158015610cc857600080fd5b505afa158015610cdc573d6000803e3d6000fd5b505050506040513d601f19601f82011682018060405250810190610d0091906117d5565b90508b811015610d0f57600080fd5b60038c9055610d248b8b8b8b8b8b8b8b6110c6565b600080546001600160a01b0319166001600160a01b038f161790556007805462ff00ff19166201000117905542600855600160075462010000900460ff166002811115610d7357610d73611bad565b14610d8057610d80611b81565b50505050505050505050505050565b6001546001600160a01b03163314610db95760405162461bcd60e51b81526004016104409061194e565b60008060075462010000900460ff166002811115610dd957610dd9611bad565b14610df65760405162461bcd60e51b815260040161044090611a3b565b610dfe61101b565b5050565b6004546000906001600160a01b0316610e5d5760405162461bcd60e51b815260206004820152601a60248201527f52657761726420616464726573732063616e6e6f7420626520300000000000006044820152606401610440565b506004546001600160a01b031690565b6001546001600160a01b03163314610e975760405162461bcd60e51b81526004016104409061194e565b60028060075462010000900460ff166002811115610eb757610eb7611bad565b14610ed45760405162461bcd60e51b815260040161044090611a3b565b600954600160ff9091161015610ee957600080fd5b610ef6426276a700611b0e565b6008541015610df657600080fd5b6001546001600160a01b03163314610f2e5760405162461bcd60e51b81526004016104409061194e565b60008060075462010000900460ff166002811115610f4e57610f4e611bad565b14610f6b5760405162461bcd60e51b815260040161044090611a3b565b8151610659906005906020850190611548565b610dfe8282604051602401610f9492919061192c565b60408051601f198184030181529190526020810180516001600160e01b03166309710a9d60e41b17905261126a565b6001546001600160a01b03163314610fed5760405162461bcd60e51b81526004016104409061194e565b6000546001600160a01b031661100257600080fd5b6007805461ffff191661020417905561101961128b565b565b6004805460015460035460405163a9059cbb60e01b81526001600160a01b039283169481019490945260248401526000928392919091169063a9059cbb90604401602060405180830381600087803b15801561107657600080fd5b505af115801561108a573d6000803e3d6000fd5b505050506040513d601f19601f820116820180604052508101906110ae919061169d565b90506001811515146110c2576110c2611b81565b5090565b6110cf88611500565b6110db8660ff16611500565b6110e78360ff16611500565b6110f087611500565b60048054600180546040516323f2ebc360e21b81526001600160a01b0393841694638fcbaf0c946111319493169230928f928f92918f918f918f910161189c565b600060405180830381600087803b15801561114b57600080fd5b505af115801561115f573d6000803e3d6000fd5b50506004805460015460035460405163f2d5d56b60e01b81526001600160a01b0392831694810194909452602484015216925063f2d5d56b9150604401600060405180830381600087803b1580156111b657600080fd5b505af11580156111ca573d6000803e3d6000fd5b5050600454600180546001600160a01b039283169450638fcbaf0c93509091169030906111f8908d90611b0e565b8b60008989896040518963ffffffff1660e01b815260040161122198979695949392919061189c565b600060405180830381600087803b15801561123b57600080fd5b505af115801561124f573d6000803e3d6000fd5b5050600780546001935090915061ff0019166101008361053e565b80516a636f6e736f6c652e6c6f67602083016000808483855afa5050505050565b60095460015460405163ad3b669360e01b81526001600160a01b03918216600482015260009261010090049091169063ad3b66939060240160206040518083038186803b1580156112db57600080fd5b505afa1580156112ef573d6000803e3d6000fd5b505050506040513d601f19601f8201168201806040525081019061131391906115ee565b60095460015460405163ad3b669360e01b81526001600160a01b039182166004820152929350600092610100909204169063ad3b66939060240160206040518083038186803b15801561136557600080fd5b505afa158015611379573d6000803e3d6000fd5b505050506040513d601f19601f8201168201806040525081019061139d91906115ee565b60405163fb41fadf60e01b81529091506001600160a01b0383169063fb41fadf906113cd9060009060040161190c565b600060405180830381600087803b1580156113e757600080fd5b505af11580156113fb573d6000803e3d6000fd5b505060405163fb41fadf60e01b81526001600160a01b038416925063fb41fadf915061142c9060019060040161190c565b600060405180830381600087803b15801561144657600080fd5b505af115801561145a573d6000803e3d6000fd5b5050600480546000805460035460405163a9059cbb60e01b81526001600160a01b0392831695810195909552602485015290945016915063a9059cbb90604401602060405180830381600087803b1580156114b457600080fd5b505af11580156114c8573d6000803e3d6000fd5b505050506040513d601f19601f820116820180604052508101906114ec919061169d565b905060018115151461065957610659611b81565b6115458160405160240161151691815260200190565b60408051601f198184030181529190526020810180516001600160e01b031663f5b1bba960e01b17905261126a565b50565b82805461155490611b26565b90600052602060002090601f01602090048101928261157657600085556115bc565b82601f1061158f57805160ff19168380011785556115bc565b828001600101855582156115bc579182015b828111156115bc5782518255916020019190600101906115a1565b506110c29291505b808211156110c257600081556001016115c4565b803560ff811681146115e957600080fd5b919050565b60006020828403121561160057600080fd5b815161160b81611bf9565b9392505050565b6000806000806000806000806000806101408b8d03121561163257600080fd5b8a3561163d81611bf9565b995060208b0135985060408b0135975060608b0135965061166060808c016115d8565b955060a08b0135945060c08b0135935061167c60e08c016115d8565b92506101008b013591506101208b013590509295989b9194979a5092959850565b6000602082840312156116af57600080fd5b815161160b81611c0e565b600080600080608085870312156116d057600080fd5b84356116db81611c0e565b93506116e9602086016115d8565b93969395505050506040820135916060013590565b6000806000806080858703121561171457600080fd5b843593506116e9602086016115d8565b60006020828403121561173657600080fd5b813567ffffffffffffffff8082111561174e57600080fd5b818401915084601f83011261176257600080fd5b81358181111561177457611774611bc3565b604051601f8201601f19908116603f0116810190838211818310171561179c5761179c611bc3565b816040528281528760208487010111156117b557600080fd5b826020860160208301376000928101602001929092525095945050505050565b6000602082840312156117e757600080fd5b5051919050565b60008060008060008060c0878903121561180757600080fd5b86359550611817602088016115d8565b9450604087013561182781611c0e565b9350611835606088016115d8565b92506080870135915060a087013590509295509295509295565b6000815180845260005b8181101561187557602081850181015186830182015201611859565b81811115611887576000602083870101525b50601f01601f19169290920160200192915050565b6001600160a01b039889168152969097166020870152604086019490945260608501929092521515608084015260ff1660a083015260c082015260e08101919091526101000190565b602081016118f283611bd9565b91905290565b60208101600583106118f2576118f2611bad565b602081016118f283611be9565b60208152600061160b602083018461184f565b60408152600061193f604083018561184f565b90508260208301529392505050565b60208082526033908201527f576f726b52656c6174696f6e736869703a206f6e6c794f776e65722063616e2060408201527231b0b636103a3434b990333ab731ba34b7b71760691b606082015260800190565b602080825260169082015275576f726b52656c6174696f6e736869703a206f6e6c7960501b604082015260600190565b60208082526044908201527f5468697320616374696f6e2063616e6e6f742062652063617272696564206f7560408201527f7420756e646572207468652063757272656e7420636f6e7472616374207374616060820152633a3ab99760e11b608082015260a00190565b60208082526044908201527f43616e6e6f7420696e766f6b65207468697320657363726f772066756e63746960408201527f6f6e2077697468207468652063757272656e7420636f6e7472616374207374616060820152633a3ab99760e11b608082015260a00190565b60208082526043908201527f43616e6e6f7420696e766f6b65207468697320657363726f772066756e63746960408201527f6f6e2077697468207468652063757272656e7420636f6e7472616374207374616060820152623a329760e91b608082015260a00190565b60008219821115611b2157611b21611b97565b500190565b600181811c90821680611b3a57607f821691505b60208210811415611b5b57634e487b7160e01b600052602260045260246000fd5b50919050565b600060ff821660ff811415611b7857611b78611b97565b60010192915050565b634e487b7160e01b600052600160045260246000fd5b634e487b7160e01b600052601160045260246000fd5b634e487b7160e01b600052602160045260246000fd5b634e487b7160e01b600052604160045260246000fd5b6003811061154557611545611bad565b6002811061154557611545611bad565b6001600160a01b038116811461154557600080fd5b801515811461154557600080fdfea2646970667358221220efecb94f64017a1d817216b6e1bcd9f650b6b15f3fccb60f55834348b870257c64736f6c63430008070033a26469706673582212205ee1261b15bc262d8f2a9787683133e9f19dddafa95fc46095217757c86c1df664736f6c63430008070033a2646970667358221220246c7709d849cb633ebce1c0b9088c1c9743010c62ba9f6637bffbc8458b775b64736f6c63430008070033",
  "linkReferences": {},
  "deployedLinkReferences": {}
}