{
  "_format": "hh-sol-artifact-1",
  "contractName": "WorkRelationship",
  "sourceName": "contracts/exchange/WorkRelationship.sol",
  "abi": [
    {
      "inputs": [
        {
          "internalType": "address",
          "name": "_owner",
          "type": "address"
        },
        {
          "internalType": "enum Evaluation.ContractType",
          "name": "_contractType",
          "type": "uint8"
        },
        {
          "internalType": "string",
          "name": "_taskMetadataPointer",
          "type": "string"
        },
        {
          "internalType": "address",
          "name": "_daiTokenAddress",
          "type": "address"
        }
      ],
      "stateMutability": "nonpayable",
      "type": "constructor"
    },
    {
      "inputs": [],
      "name": "HIGH_MEDIAN_EVALUATION_THRESHOLD",
      "outputs": [
        {
          "internalType": "uint8",
          "name": "",
          "type": "uint8"
        }
      ],
      "stateMutability": "view",
      "type": "function"
    },
    {
      "inputs": [],
      "name": "LOW_MEDIAN_EVALUATION_THRESHOLD",
      "outputs": [
        {
          "internalType": "uint8",
          "name": "",
          "type": "uint8"
        }
      ],
      "stateMutability": "view",
      "type": "function"
    },
    {
      "inputs": [],
      "name": "REVIEW_TYPEHASH",
      "outputs": [
        {
          "internalType": "bytes32",
          "name": "",
          "type": "bytes32"
        }
      ],
      "stateMutability": "view",
      "type": "function"
    },
    {
      "inputs": [],
      "name": "SUBMIT_TYPEHASH",
      "outputs": [
        {
          "internalType": "bytes32",
          "name": "",
          "type": "bytes32"
        }
      ],
      "stateMutability": "view",
      "type": "function"
    },
    {
      "inputs": [],
      "name": "WORK_TYPEHASH",
      "outputs": [
        {
          "internalType": "bytes32",
          "name": "",
          "type": "bytes32"
        }
      ],
      "stateMutability": "view",
      "type": "function"
    },
    {
      "inputs": [
        {
          "internalType": "address payable",
          "name": "_newWorker",
          "type": "address"
        },
        {
          "internalType": "uint256",
          "name": "_wad",
          "type": "uint256"
        },
        {
          "internalType": "uint256",
          "name": "nonce",
          "type": "uint256"
        },
        {
          "internalType": "uint256",
          "name": "expiry",
          "type": "uint256"
        },
        {
          "internalType": "uint8",
          "name": "eV",
          "type": "uint8"
        },
        {
          "internalType": "bytes32",
          "name": "eR",
          "type": "bytes32"
        },
        {
          "internalType": "bytes32",
          "name": "eS",
          "type": "bytes32"
        },
        {
          "internalType": "uint8",
          "name": "vDeny",
          "type": "uint8"
        },
        {
          "internalType": "bytes32",
          "name": "rDeny",
          "type": "bytes32"
        },
        {
          "internalType": "bytes32",
          "name": "sDeny",
          "type": "bytes32"
        }
      ],
      "name": "assignNewWorker",
      "outputs": [],
      "stateMutability": "nonpayable",
      "type": "function"
    },
    {
      "inputs": [
        {
          "internalType": "address",
          "name": "workerUniversalAddress",
          "type": "address"
        },
        {
          "components": [
            {
              "internalType": "address",
              "name": "market",
              "type": "address"
            },
            {
              "internalType": "uint256",
              "name": "marketReputation",
              "type": "uint256"
            },
            {
              "internalType": "uint256",
              "name": "universalReputation",
              "type": "uint256"
            }
          ],
          "internalType": "struct Evaluation.EvaluationState",
          "name": "evaluationState",
          "type": "tuple"
        },
        {
          "internalType": "address",
          "name": "_market",
          "type": "address"
        }
      ],
      "name": "checkWorkerEvaluation",
      "outputs": [
        {
          "internalType": "bool",
          "name": "",
          "type": "bool"
        }
      ],
      "stateMutability": "nonpayable",
      "type": "function"
    },
    {
      "inputs": [],
      "name": "contractOwnership",
      "outputs": [
        {
          "internalType": "enum WorkRelationship.ContractOwnership",
          "name": "",
          "type": "uint8"
        }
      ],
      "stateMutability": "view",
      "type": "function"
    },
    {
      "inputs": [],
      "name": "contractState",
      "outputs": [
        {
          "internalType": "enum WorkRelationship.ContractState",
          "name": "",
          "type": "uint8"
        }
      ],
      "stateMutability": "view",
      "type": "function"
    },
    {
      "inputs": [],
      "name": "contractStatus",
      "outputs": [
        {
          "internalType": "enum Relationship.ContractStatus",
          "name": "",
          "type": "uint8"
        }
      ],
      "stateMutability": "view",
      "type": "function"
    },
    {
      "inputs": [],
      "name": "contractType",
      "outputs": [
        {
          "internalType": "enum Evaluation.ContractType",
          "name": "",
          "type": "uint8"
        }
      ],
      "stateMutability": "view",
      "type": "function"
    },
    {
      "inputs": [],
      "name": "daiToken",
      "outputs": [
        {
          "internalType": "contract DaiToken",
          "name": "",
          "type": "address"
        }
      ],
      "stateMutability": "view",
      "type": "function"
    },
    {
      "inputs": [],
      "name": "domain_separator",
      "outputs": [
        {
          "internalType": "bytes32",
          "name": "",
          "type": "bytes32"
        }
      ],
      "stateMutability": "view",
      "type": "function"
    },
    {
      "inputs": [],
      "name": "getRewardAddress",
      "outputs": [
        {
          "internalType": "address",
          "name": "",
          "type": "address"
        }
      ],
      "stateMutability": "nonpayable",
      "type": "function"
    },
    {
      "inputs": [],
      "name": "getTaskSolutionPointer",
      "outputs": [
        {
          "internalType": "bytes32",
          "name": "",
          "type": "bytes32"
        }
      ],
      "stateMutability": "view",
      "type": "function"
    },
    {
      "inputs": [],
      "name": "owner",
      "outputs": [
        {
          "internalType": "address",
          "name": "",
          "type": "address"
        }
      ],
      "stateMutability": "view",
      "type": "function"
    },
    {
      "inputs": [
        {
          "internalType": "uint256",
          "name": "averageMarketWorkerRep",
          "type": "uint256"
        },
        {
          "internalType": "uint8",
          "name": "_evaluationScore",
          "type": "uint8"
        },
        {
          "internalType": "bool",
          "name": "_approve",
          "type": "bool"
        },
        {
          "internalType": "uint8",
          "name": "_v",
          "type": "uint8"
        },
        {
          "internalType": "bytes32",
          "name": "_r",
          "type": "bytes32"
        },
        {
          "internalType": "bytes32",
          "name": "_s",
          "type": "bytes32"
        }
      ],
      "name": "review",
      "outputs": [],
      "stateMutability": "nonpayable",
      "type": "function"
    },
    {
      "inputs": [
        {
          "internalType": "bytes32",
          "name": "_submission",
          "type": "bytes32"
        },
        {
          "internalType": "uint8",
          "name": "_v",
          "type": "uint8"
        },
        {
          "internalType": "bytes32",
          "name": "_r",
          "type": "bytes32"
        },
        {
          "internalType": "bytes32",
          "name": "_s",
          "type": "bytes32"
        }
      ],
      "name": "submit",
      "outputs": [],
      "stateMutability": "nonpayable",
      "type": "function"
    },
    {
      "inputs": [],
      "name": "taskMetadataPointer",
      "outputs": [
        {
          "internalType": "string",
          "name": "",
          "type": "string"
        }
      ],
      "stateMutability": "view",
      "type": "function"
    },
    {
      "inputs": [
        {
          "internalType": "string",
          "name": "newTaskPointerHash",
          "type": "string"
        }
      ],
      "name": "updateTaskMetadataPointer",
      "outputs": [],
      "stateMutability": "nonpayable",
      "type": "function"
    },
    {
      "inputs": [],
      "name": "wad",
      "outputs": [
        {
          "internalType": "uint256",
          "name": "",
          "type": "uint256"
        }
      ],
      "stateMutability": "view",
      "type": "function"
    },
    {
      "inputs": [
        {
          "internalType": "bool",
          "name": "_accepted",
          "type": "bool"
        },
        {
          "internalType": "uint8",
          "name": "wV",
          "type": "uint8"
        },
        {
          "internalType": "bytes32",
          "name": "wR",
          "type": "bytes32"
        },
        {
          "internalType": "bytes32",
          "name": "wS",
          "type": "bytes32"
        }
      ],
      "name": "work",
      "outputs": [],
      "stateMutability": "nonpayable",
      "type": "function"
    },
    {
      "inputs": [],
      "name": "worker",
      "outputs": [
        {
          "internalType": "address",
          "name": "",
          "type": "address"
        }
      ],
      "stateMutability": "view",
      "type": "function"
    }
  ],
  "bytecode": "0x60a06040523480156200001157600080fd5b506040516200228b3803806200228b83398101604081905262000034916200039f565b6001600160a01b038116620000b55760405162461bcd60e51b815260206004820152603360248201527f44616920746f6b656e20616464726573732063616e6e6f74206265203020776860448201527f656e206372656174696e6720657363726f772e00000000000000000000000000606482015260840160405180910390fd5b600380546001600160a01b0319166001600160a01b03831617905560408051808201909152600c81526b436861696e2069643a20257360a01b6020808301919091524691620001129160ff8416906200026a811b62000c1c17901c565b60408051808201825260118152700576f726b2052656c6174696f6e7368697607c1b6020918201528151808301835260018152603160f81b9082015281517f8b73c3c69bb8fe3d512ecc4cf759cc79239f7b179b0ffacaa9a75d522b39400f918101919091527f23ae04968b80dec446ff6e10f2b3f92cabd9ce3ef49e1efba87e053dc4702f88918101919091527fc89efdaa54c0f20c7adf612882df0950f5a951637e0307cdcb4c672f298b8bc6606082015260ff821660808201523060a082015260c00160408051808303601f190181529190528051602090910120608052600180546001600160a01b0319166001600160a01b03871617815560068054869263ff0000001990911690630100000090849081111562000238576200023862000544565b02179055506006805462ffffff1916905582516200025e906004906020860190620002dc565b50505050505062000570565b620002b782826040516024016200028392919062000497565b60408051601f198184030181529190526020810180516001600160e01b039081166309710a9d60e41b17909152620002bb16565b5050565b80516a636f6e736f6c652e6c6f67602083016000808483855afa5050505050565b828054620002ea9062000507565b90600052602060002090601f0160209004810192826200030e576000855562000359565b82601f106200032957805160ff191683800117855562000359565b8280016001018555821562000359579182015b82811115620003595782518255916020019190600101906200033c565b50620003679291506200036b565b5090565b5b808211156200036757600081556001016200036c565b80516001600160a01b03811681146200039a57600080fd5b919050565b60008060008060808587031215620003b657600080fd5b620003c18562000382565b9350602085015160028110620003d657600080fd5b60408601519093506001600160401b0380821115620003f457600080fd5b818701915087601f8301126200040957600080fd5b8151818111156200041e576200041e6200055a565b604051601f8201601f19908116603f011681019083821181831017156200044957620004496200055a565b816040528281528a60208487010111156200046357600080fd5b62000476836020830160208801620004d4565b80965050505050506200048c6060860162000382565b905092959194509250565b6040815260008351806040840152620004b8816060850160208801620004d4565b602083019390935250601f91909101601f191601606001919050565b60005b83811015620004f1578181015183820152602001620004d7565b8381111562000501576000848401525b50505050565b600181811c908216806200051c57607f821691505b602082108114156200053e57634e487b7160e01b600052602260045260246000fd5b50919050565b634e487b7160e01b600052602160045260246000fd5b634e487b7160e01b600052604160045260246000fd5b608051611cf16200059a6000396000818161031f015281816104e7015261073f0152611cf16000f3fe608060405234801561001057600080fd5b506004361061014d5760003560e01c80637f755043116100c3578063bf9321fc1161007c578063bf9321fc14610312578063bfce14ea1461031a578063c6ee20d214610341578063cb2ef6f71461035b578063ec3a47901461037c578063f2a094971461038f57600080fd5b80637f7550431461028657806385209ee0146102995780638da5cb5b146102ab5780639240a100146102be57806396118e44146102d8578063be22f546146102ff57600080fd5b80634e12aa96116101155780634e12aa961461020557806350365be91461022c57806353318a871461023f5780635db28c661461025257806363c852c91461025a5780637df38c5b1461027d57600080fd5b8063188bbbf3146101525780631ed4b49e1461017b57806339987e52146101905780633c86f6f3146101a55780634d547ada146101da575b600080fd5b6006546101659062010000900460ff1681565b60405161017291906119a6565b60405180910390f35b610183610397565b60405161017291906119e1565b6101a361019e366004611872565b610425565b005b6101cc7ffa5e0016fb62b8dffda8fd95249d438edcffd3689b40ac3b4281d4cf710609ae81565b604051908152602001610172565b6000546101ed906001600160a01b031681565b6040516001600160a01b039091168152602001610172565b6101cc7fc35792dec8ea736e1a3478771b1f14a7472fd98ca01a9c9077ac63917f87f64981565b6101a361023a36600461173a565b61055f565b6101a361024d366004611780565b610688565b6101cc6107b6565b61026d61026836600461167b565b610814565b6040519015158152602001610172565b6101cc60025481565b6101a36102943660046115ea565b6108bd565b60065461016590610100900460ff1681565b6001546101ed906001600160a01b031681565b6102c6600681565b60405160ff9091168152602001610172565b6101cc7f62b607caa4d4e7fcbd31bf4c033cd30888b536567fadc83710fdf15f8d5cfc9e81565b6003546101ed906001600160a01b031681565b6101ed610b32565b6101cc7f000000000000000000000000000000000000000000000000000000000000000081565b60065461034e9060ff1681565b60405161017291906119b9565b60065461036f906301000000900460ff1681565b60405161017291906119cd565b6101a361038a3660046117a8565b610b9d565b6102c6600481565b600480546103a490611bfc565b80601f01602080910402602001604051908101604052809291908181526020018280546103d090611bfc565b801561041d5780601f106103f25761010080835404028352916020019161041d565b820191906000526020600020905b81548152906001019060200180831161040057829003601f168201915b505050505081565b6001546001600160a01b031633146104585760405162461bcd60e51b815260040161044f90611a16565b60405180910390fd5b60038060065460ff16600481111561047257610472611c4d565b1461048f5760405162461bcd60e51b815260040161044f90611a99565b604080517ffa5e0016fb62b8dffda8fd95249d438edcffd3689b40ac3b4281d4cf710609ae602080830191909152871580158385015283518084038501815260608401855280519083012061190160f01b60808501527f0000000000000000000000000000000000000000000000000000000000000000608285015260a2808501919091528451808503909101815260c290930190935281519101209061053f5761053a8789610c65565b610555565b600680546002919060ff19166001835b02179055505b5050505050505050565b6000546001600160a01b031633146105895760405162461bcd60e51b815260040161044f90611a69565b600180600654610100900460ff1660028111156105a8576105a8611c4d565b146105c55760405162461bcd60e51b815260040161044f90611b6d565b60018060065460ff1660048111156105df576105df611c4d565b146105fc5760405162461bcd60e51b815260040161044f90611a99565b60018060065462010000900460ff16600281111561061c5761061c611c4d565b146106395760405162461bcd60e51b815260040161044f90611b03565b6001871515141561065a576006805462ff00ff19166202000217905561067f565b600080546001600160a01b0319169055610672610cc1565b6006805462ff00ff191690555b50505050505050565b6000546001600160a01b031633146106b25760405162461bcd60e51b815260040161044f90611a69565b60028060065460ff1660048111156106cc576106cc611c4d565b146106e95760405162461bcd60e51b815260040161044f90611a99565b604080517f62b607caa4d4e7fcbd31bf4c033cd30888b536567fadc83710fdf15f8d5cfc9e60208083019190915281830188905282518083038401815260608301845280519082012061190160f01b60808401527f0000000000000000000000000000000000000000000000000000000000000000608284015260a2808401919091528351808403909101815260c290920190925280519101206000546001600160a01b031661079857600080fd5b6107a186600555565b50506006805460ff1916600317905550505050565b6001546000906001600160a01b031633146107e35760405162461bcd60e51b815260040161044f90611a16565b6000546001600160a01b0316331461080d5760405162461bcd60e51b815260040161044f90611a69565b5060055490565b6040805160016232dea960e11b0319815283516001600160a01b03908116600483015260208501516024830152918401516044820152828216606482015260009182919086169063ff9a42ae9060840160206040518083038186803b15801561087c57600080fd5b505afa158015610890573d6000803e3d6000fd5b505050506040513d601f19601f820116820180604052508101906108b49190611716565b95945050505050565b6001546001600160a01b031633146108e75760405162461bcd60e51b815260040161044f90611a16565b600080600654610100900460ff16600281111561090657610906611c4d565b146109235760405162461bcd60e51b815260040161044f90611b6d565b60008060065460ff16600481111561093d5761093d611c4d565b1461095a5760405162461bcd60e51b815260040161044f90611a99565b6001600160a01b038c166109d65760405162461bcd60e51b815260206004820152603760248201527f576f726b65722061646472657373206d757374206e6f7420626520302077686560448201527f6e2061737369676e696e67206e657720776f726b65722e000000000000000000606482015260840161044f565b8a610a235760405162461bcd60e51b815260206004820181905260248201527f44616920616d6f756e742063616e6e6f7420626520657175616c20746f20302e604482015260640161044f565b6003546001546040516370a0823160e01b81526001600160a01b03918216600482015260009291909116906370a082319060240160206040518083038186803b158015610a6f57600080fd5b505afa158015610a83573d6000803e3d6000fd5b505050506040513d601f19601f82011682018060405250810190610aa79190611859565b90508b811015610ab657600080fd5b60028c9055610acb8b8b8b8b8b8b8b8b610e50565b600080546001600160a01b0319166001600160a01b038f161790556006805462ff00ff191662010001179055600160065462010000900460ff166002811115610b1657610b16611c4d565b14610b2357610b23611c37565b50505050505050505050505050565b6003546000906001600160a01b0316610b8d5760405162461bcd60e51b815260206004820152601a60248201527f52657761726420616464726573732063616e6e6f742062652030000000000000604482015260640161044f565b506003546001600160a01b031690565b6001546001600160a01b03163314610bc75760405162461bcd60e51b815260040161044f90611a16565b60008060065462010000900460ff166002811115610be757610be7611c4d565b14610c045760405162461bcd60e51b815260040161044f90611b03565b8151610c17906004906020850190611551565b505050565b610c618282604051602401610c329291906119f4565b60408051601f198184030181529190526020810180516001600160e01b03166309710a9d60e41b179052610ff7565b5050565b6001546001600160a01b03163314610c8f5760405162461bcd60e51b815260040161044f90611a16565b6000546001600160a01b0316610ca457600080fd5b610cae8282611018565b50506006805461ffff1916610204179055565b6000546001600160a01b03163314610ceb5760405162461bcd60e51b815260040161044f90611a69565b60018060065462010000900460ff166002811115610d0b57610d0b611c4d565b14610d285760405162461bcd60e51b815260040161044f90611b03565b60018060065460ff166004811115610d4257610d42611c4d565b14610d5f5760405162461bcd60e51b815260040161044f90611a99565b600254610dc45760405162461bcd60e51b815260206004820152602d60248201527f5468657265206973206e6f2044414920746f207472616e73666572206261636b60448201526c103a37903a34329037bbb732b960991b606482015260840161044f565b60035460015460025460405163a9059cbb60e01b81526001600160a01b039283166004820152602481019190915291169063a9059cbb90604401602060405180830381600087803b158015610e1857600080fd5b505af1158015610e2c573d6000803e3d6000fd5b505050506040513d601f19601f82011682018060405250810190610c179190611716565b610e5988611509565b610e658660ff16611509565b610e718360ff16611509565b610e7a87611509565b600354600180546040516323f2ebc360e21b81526001600160a01b0393841693638fcbaf0c93610ebd939091169130918e918e91908e908e908e90600401611941565b600060405180830381600087803b158015610ed757600080fd5b505af1158015610eeb573d6000803e3d6000fd5b505060035460015460025460405163f2d5d56b60e01b81526001600160a01b03928316600482015260248101919091529116925063f2d5d56b9150604401600060405180830381600087803b158015610f4357600080fd5b505af1158015610f57573d6000803e3d6000fd5b5050600354600180546001600160a01b039283169450638fcbaf0c9350909116903090610f85908d90611bd6565b8b60008989896040518963ffffffff1660e01b8152600401610fae989796959493929190611941565b600060405180830381600087803b158015610fc857600080fd5b505af1158015610fdc573d6000803e3d6000fd5b5050600680546001935090915061ff0019166101008361054f565b80516a636f6e736f6c652e6c6f67602083016000808483855afa5050505050565b60035460005460025460405163a9059cbb60e01b81526001600160a01b039283166004820152602481019190915291169063a9059cbb90604401602060405180830381600087803b15801561106c57600080fd5b505af1158015611080573d6000803e3d6000fd5b505050506040513d601f19601f820116820180604052508101906110a49190611716565b50600154600080546001600160a01b03928316921690600660ff8616111561112c576040516376267fd760e11b81526001600160a01b0383169063ec4cffae906110f590309060019060040161198a565b600060405180830381600087803b15801561110f57600080fd5b505af1158015611123573d6000803e3d6000fd5b505050506114a9565b600660ff86161115806111435750600460ff861610155b1561114d576114a9565b600460ff86161180159061116e5750611167846001611bd6565b8160ff1610155b1561142c576000826001600160a01b031663c897d6956040518163ffffffff1660e01b8152600401602060405180830381600087803b1580156111b057600080fd5b505af11580156111c4573d6000803e3d6000fd5b505050506040513d601f19601f820116820180604052508101906111e891906118d7565b905060018160ff161161125b57604051630668e3b760e41b81526001600160a01b0384169063668e3b709061122490309060019060040161198a565b600060405180830381600087803b15801561123e57600080fd5b505af1158015611252573d6000803e3d6000fd5b50505050611426565b8060ff16600214156112d057604051630668e3b760e41b81526000906001600160a01b0385169063668e3b7090611298903090859060040161198a565b600060405180830381600087803b1580156112b257600080fd5b505af11580156112c6573d6000803e3d6000fd5b5050505050611426565b8060ff166003141561136a57604051630668e3b760e41b81526001600160a01b0384169063668e3b709061130b90309060009060040161198a565b600060405180830381600087803b15801561132557600080fd5b505af1158015611339573d6000803e3d6000fd5b50506040516332053e6960e01b8152600060048201526001600160a01b03861692506332053e699150602401611224565b6040516332053e6960e01b8152600160048201526001600160a01b038416906332053e6990602401600060405180830381600087803b1580156113ac57600080fd5b505af11580156113c0573d6000803e3d6000fd5b5050604051630668e3b760e41b81526001600160a01b038616925063668e3b7091506113f390309060019060040161198a565b600060405180830381600087803b15801561140d57600080fd5b505af1158015611421573d6000803e3d6000fd5b505050505b506114a9565b600460ff8616118015906114425750838160ff16105b156114a957604051630668e3b760e41b81526001600160a01b0383169063668e3b709061147690309060019060040161198a565b600060405180830381600087803b15801561149057600080fd5b505af11580156114a4573d6000803e3d6000fd5b505050505b604051633336dad960e21b81523060048201526001600160a01b0384169063ccdb6b6490602401600060405180830381600087803b1580156114ea57600080fd5b505af11580156114fe573d6000803e3d6000fd5b505050505050505050565b61154e8160405160240161151f91815260200190565b60408051601f198184030181529190526020810180516001600160e01b031663f5b1bba960e01b179052610ff7565b50565b82805461155d90611bfc565b90600052602060002090601f01602090048101928261157f57600085556115c5565b82601f1061159857805160ff19168380011785556115c5565b828001600101855582156115c5579182015b828111156115c55782518255916020019190600101906115aa565b506115d19291506115d5565b5090565b5b808211156115d157600081556001016115d6565b6000806000806000806000806000806101408b8d03121561160a57600080fd5b8a3561161581611c89565b995060208b0135985060408b0135975060608b0135965060808b013561163a81611cac565b955060a08b0135945060c08b0135935060e08b013561165881611cac565b809350506101008b013591506101208b013590509295989b9194979a5092959850565b600080600083850360a081121561169157600080fd5b843561169c81611c89565b93506060601f19820112156116b057600080fd5b506040516060810181811067ffffffffffffffff821117156116d4576116d4611c63565b60405260208501356116e581611c89565b815260408581013560208301526060860135908201529150608084013561170b81611c89565b809150509250925092565b60006020828403121561172857600080fd5b815161173381611c9e565b9392505050565b6000806000806080858703121561175057600080fd5b843561175b81611c9e565b9350602085013561176b81611cac565b93969395505050506040820135916060013590565b6000806000806080858703121561179657600080fd5b84359350602085013561176b81611cac565b6000602082840312156117ba57600080fd5b813567ffffffffffffffff808211156117d257600080fd5b818401915084601f8301126117e657600080fd5b8135818111156117f8576117f8611c63565b604051601f8201601f19908116603f0116810190838211818310171561182057611820611c63565b8160405282815287602084870101111561183957600080fd5b826020860160208301376000928101602001929092525095945050505050565b60006020828403121561186b57600080fd5b5051919050565b60008060008060008060c0878903121561188b57600080fd5b86359550602087013561189d81611cac565b945060408701356118ad81611c9e565b935060608701356118bd81611cac565b9598949750929560808101359460a0909101359350915050565b6000602082840312156118e957600080fd5b815161173381611cac565b6000815180845260005b8181101561191a576020818501810151868301820152016118fe565b8181111561192c576000602083870101525b50601f01601f19169290920160200192915050565b6001600160a01b039889168152969097166020870152604086019490945260608501929092521515608084015260ff1660a083015260c082015260e08101919091526101000190565b6001600160a01b0392909216825260ff16602082015260400190565b602081016119b383611c79565b91905290565b60208101600583106119b3576119b3611c4d565b60208101600283106119b3576119b3611c4d565b60208152600061173360208301846118f4565b604081526000611a0760408301856118f4565b90508260208301529392505050565b60208082526033908201527f576f726b52656c6174696f6e736869703a206f6e6c794f776e65722063616e2060408201527231b0b636103a3434b990333ab731ba34b7b71760691b606082015260800190565b602080825260169082015275576f726b52656c6174696f6e736869703a206f6e6c7960501b604082015260600190565b60208082526044908201527f5468697320616374696f6e2063616e6e6f742062652063617272696564206f7560408201527f7420756e646572207468652063757272656e7420636f6e7472616374207374616060820152633a3ab99760e11b608082015260a00190565b60208082526044908201527f43616e6e6f7420696e766f6b65207468697320657363726f772066756e63746960408201527f6f6e2077697468207468652063757272656e7420636f6e7472616374207374616060820152633a3ab99760e11b608082015260a00190565b60208082526043908201527f43616e6e6f7420696e766f6b65207468697320657363726f772066756e63746960408201527f6f6e2077697468207468652063757272656e7420636f6e7472616374207374616060820152623a329760e91b608082015260a00190565b60008219821115611bf757634e487b7160e01b600052601160045260246000fd5b500190565b600181811c90821680611c1057607f821691505b60208210811415611c3157634e487b7160e01b600052602260045260246000fd5b50919050565b634e487b7160e01b600052600160045260246000fd5b634e487b7160e01b600052602160045260246000fd5b634e487b7160e01b600052604160045260246000fd5b6003811061154e5761154e611c4d565b6001600160a01b038116811461154e57600080fd5b801515811461154e57600080fd5b60ff8116811461154e57600080fdfea264697066735822122058c9b515a2693c0e977d2c4b7dfcb26599a7692ce17507c3cb0a61534059076564736f6c63430008070033",
  "linkReferences": {},
  "deployedLinkReferences": {}
}