{
  "_format": "hh-sol-artifact-1",
  "contractName": "WorkRelationship",
  "sourceName": "contracts/exchange/WorkRelationship.sol",
  "abi": [
    {
      "inputs": [
        {
          "internalType": "address",
          "name": "_owner",
          "type": "address"
        },
        {
          "internalType": "enum Evaluation.ContractType",
          "name": "_contractType",
          "type": "uint8"
        },
        {
          "internalType": "string",
          "name": "_taskMetadataPointer",
          "type": "string"
        },
        {
          "internalType": "address",
          "name": "_daiTokenAddress",
          "type": "address"
        },
        {
          "internalType": "address",
          "name": "_cDaiTokenAddress",
          "type": "address"
        },
        {
          "internalType": "address",
          "name": "_banker",
          "type": "address"
        }
      ],
      "stateMutability": "nonpayable",
      "type": "constructor"
    },
    {
      "inputs": [],
      "name": "REVIEW_TYPEHASH",
      "outputs": [
        {
          "internalType": "bytes32",
          "name": "",
          "type": "bytes32"
        }
      ],
      "stateMutability": "view",
      "type": "function"
    },
    {
      "inputs": [],
      "name": "SUBMIT_TYPEHASH",
      "outputs": [
        {
          "internalType": "bytes32",
          "name": "",
          "type": "bytes32"
        }
      ],
      "stateMutability": "view",
      "type": "function"
    },
    {
      "inputs": [],
      "name": "WORK_TYPEHASH",
      "outputs": [
        {
          "internalType": "bytes32",
          "name": "",
          "type": "bytes32"
        }
      ],
      "stateMutability": "view",
      "type": "function"
    },
    {
      "inputs": [
        {
          "internalType": "address payable",
          "name": "_newWorker",
          "type": "address"
        },
        {
          "internalType": "uint256",
          "name": "_wad",
          "type": "uint256"
        },
        {
          "internalType": "uint256",
          "name": "nonce",
          "type": "uint256"
        },
        {
          "internalType": "uint256",
          "name": "expiry",
          "type": "uint256"
        },
        {
          "internalType": "uint8",
          "name": "eV",
          "type": "uint8"
        },
        {
          "internalType": "bytes32",
          "name": "eR",
          "type": "bytes32"
        },
        {
          "internalType": "bytes32",
          "name": "eS",
          "type": "bytes32"
        },
        {
          "internalType": "uint8",
          "name": "vDeny",
          "type": "uint8"
        },
        {
          "internalType": "bytes32",
          "name": "rDeny",
          "type": "bytes32"
        },
        {
          "internalType": "bytes32",
          "name": "sDeny",
          "type": "bytes32"
        }
      ],
      "name": "assignNewWorker",
      "outputs": [],
      "stateMutability": "nonpayable",
      "type": "function"
    },
    {
      "inputs": [
        {
          "internalType": "address",
          "name": "workerUniversalAddress",
          "type": "address"
        },
        {
          "components": [
            {
              "internalType": "string",
              "name": "industry",
              "type": "string"
            },
            {
              "internalType": "uint256",
              "name": "industrylevel",
              "type": "uint256"
            },
            {
              "internalType": "uint256",
              "name": "reputation",
              "type": "uint256"
            }
          ],
          "internalType": "struct Evaluation.EvaluationState",
          "name": "evaluationState",
          "type": "tuple"
        }
      ],
      "name": "checkWorkerEvaluation",
      "outputs": [
        {
          "internalType": "bool",
          "name": "",
          "type": "bool"
        }
      ],
      "stateMutability": "nonpayable",
      "type": "function"
    },
    {
      "inputs": [],
      "name": "contractOwnership",
      "outputs": [
        {
          "internalType": "enum WorkRelationship.ContractOwnership",
          "name": "",
          "type": "uint8"
        }
      ],
      "stateMutability": "view",
      "type": "function"
    },
    {
      "inputs": [],
      "name": "contractState",
      "outputs": [
        {
          "internalType": "enum WorkRelationship.ContractState",
          "name": "",
          "type": "uint8"
        }
      ],
      "stateMutability": "view",
      "type": "function"
    },
    {
      "inputs": [],
      "name": "contractStatus",
      "outputs": [
        {
          "internalType": "enum WorkRelationship.ContractStatus",
          "name": "",
          "type": "uint8"
        }
      ],
      "stateMutability": "view",
      "type": "function"
    },
    {
      "inputs": [],
      "name": "contractType",
      "outputs": [
        {
          "internalType": "enum Evaluation.ContractType",
          "name": "",
          "type": "uint8"
        }
      ],
      "stateMutability": "view",
      "type": "function"
    },
    {
      "inputs": [],
      "name": "domain_separator",
      "outputs": [
        {
          "internalType": "bytes32",
          "name": "",
          "type": "bytes32"
        }
      ],
      "stateMutability": "view",
      "type": "function"
    },
    {
      "inputs": [],
      "name": "getTaskSolutionPointer",
      "outputs": [
        {
          "internalType": "bytes32",
          "name": "",
          "type": "bytes32"
        }
      ],
      "stateMutability": "view",
      "type": "function"
    },
    {
      "inputs": [],
      "name": "owner",
      "outputs": [
        {
          "internalType": "address",
          "name": "",
          "type": "address"
        }
      ],
      "stateMutability": "view",
      "type": "function"
    },
    {
      "inputs": [
        {
          "internalType": "bool",
          "name": "_approve",
          "type": "bool"
        },
        {
          "internalType": "uint8",
          "name": "_v",
          "type": "uint8"
        },
        {
          "internalType": "bytes32",
          "name": "_r",
          "type": "bytes32"
        },
        {
          "internalType": "bytes32",
          "name": "_s",
          "type": "bytes32"
        }
      ],
      "name": "review",
      "outputs": [],
      "stateMutability": "nonpayable",
      "type": "function"
    },
    {
      "inputs": [
        {
          "internalType": "bytes32",
          "name": "_submission",
          "type": "bytes32"
        },
        {
          "internalType": "uint8",
          "name": "_v",
          "type": "uint8"
        },
        {
          "internalType": "bytes32",
          "name": "_r",
          "type": "bytes32"
        },
        {
          "internalType": "bytes32",
          "name": "_s",
          "type": "bytes32"
        }
      ],
      "name": "submit",
      "outputs": [],
      "stateMutability": "nonpayable",
      "type": "function"
    },
    {
      "inputs": [],
      "name": "taskMetadataPointer",
      "outputs": [
        {
          "internalType": "string",
          "name": "",
          "type": "string"
        }
      ],
      "stateMutability": "view",
      "type": "function"
    },
    {
      "inputs": [
        {
          "internalType": "string",
          "name": "newTaskPointerHash",
          "type": "string"
        }
      ],
      "name": "updateTaskMetadataPointer",
      "outputs": [],
      "stateMutability": "nonpayable",
      "type": "function"
    },
    {
      "inputs": [],
      "name": "wad",
      "outputs": [
        {
          "internalType": "uint256",
          "name": "",
          "type": "uint256"
        }
      ],
      "stateMutability": "view",
      "type": "function"
    },
    {
      "inputs": [
        {
          "internalType": "bool",
          "name": "_accepted",
          "type": "bool"
        },
        {
          "internalType": "uint8",
          "name": "wV",
          "type": "uint8"
        },
        {
          "internalType": "bytes32",
          "name": "wR",
          "type": "bytes32"
        },
        {
          "internalType": "bytes32",
          "name": "wS",
          "type": "bytes32"
        }
      ],
      "name": "work",
      "outputs": [],
      "stateMutability": "nonpayable",
      "type": "function"
    },
    {
      "inputs": [],
      "name": "worker",
      "outputs": [
        {
          "internalType": "address",
          "name": "",
          "type": "address"
        }
      ],
      "stateMutability": "view",
      "type": "function"
    }
  ],
  "bytecode": "0x60c06040819052600060a08190526200001b9160059162000457565b5060006006553480156200002e57600080fd5b506040516200278f3803806200278f83398101604081905262000051916200051a565b6001600160a01b038316620000d35760405162461bcd60e51b815260206004820152603360248201527f44616920746f6b656e20616464726573732063616e6e6f74206265203020776860448201527f656e206372656174696e6720657363726f772e0000000000000000000000000060648201526084015b60405180910390fd5b6001600160a01b038216620001515760405162461bcd60e51b815260206004820152603460248201527f6344616920746f6b656e20616464726573732063616e6e6f742062652030207760448201527f68656e206372656174696e6720657363726f772e0000000000000000000000006064820152608401620000ca565b6001600160a01b038116620001c25760405162461bcd60e51b815260206004820152603060248201527f42616e6b657220616464726573732063616e6e6f742062652030207768656e2060448201526f31b932b0ba34b7339032b9b1b937bb9760811b6064820152608401620000ca565b600380546001600160a01b038086166001600160a01b03199283168117909355600480549186169190921617905560408051808201909152601081526f020b2323932b9b99037b3103230b49d160851b60208083019190915262000230929062000d3c620003e5821b17901c565b6200028560405180604001604052806011815260200170020b2323932b9b99037b31031a230b49d1607d1b815250600460009054906101000a90046001600160a01b0316620003e560201b62000d3c1760201c565b60408051808201825260118152700576f726b2052656c6174696f6e7368697607c1b6020918201528151808301835260018152603160f81b9082015281517f8b73c3c69bb8fe3d512ecc4cf759cc79239f7b179b0ffacaa9a75d522b39400f918101919091527f23ae04968b80dec446ff6e10f2b3f92cabd9ce3ef49e1efba87e053dc4702f88918101919091527fc89efdaa54c0f20c7adf612882df0950f5a951637e0307cdcb4c672f298b8bc660608201524660ff811660808301523060a08301529060c00160408051808303601f190181529190528051602090910120608052600180546001600160a01b0319166001600160a01b03891617815560078054889263ff00000019909116906301000000908490811115620003ad57620003ad620006ec565b02179055506007805462ffffff19166101001790558451620003d790600590602088019062000457565b505050505050505062000718565b620004328282604051602401620003fe92919062000636565b60408051601f198184030181529190526020810180516001600160e01b0390811663319af33360e01b179091526200043616565b5050565b80516a636f6e736f6c652e6c6f67602083016000808483855afa5050505050565b8280546200046590620006af565b90600052602060002090601f016020900481019282620004895760008555620004d4565b82601f10620004a457805160ff1916838001178555620004d4565b82800160010185558215620004d4579182015b82811115620004d4578251825591602001919060010190620004b7565b50620004e2929150620004e6565b5090565b5b80821115620004e25760008155600101620004e7565b80516001600160a01b03811681146200051557600080fd5b919050565b60008060008060008060c087890312156200053457600080fd5b6200053f87620004fd565b95506020870151600281106200055457600080fd5b60408801519095506001600160401b03808211156200057257600080fd5b818901915089601f8301126200058757600080fd5b8151818111156200059c576200059c62000702565b604051601f8201601f19908116603f01168101908382118183101715620005c757620005c762000702565b816040528281528c6020848701011115620005e157600080fd5b620005f48360208301602088016200067c565b80985050505050506200060a60608801620004fd565b92506200061a60808801620004fd565b91506200062a60a08801620004fd565b90509295509295509295565b6040815260008351806040840152620006578160608501602088016200067c565b6001600160a01b0393909316602083015250601f91909101601f191601606001919050565b60005b83811015620006995781810151838201526020016200067f565b83811115620006a9576000848401525b50505050565b600181811c90821680620006c457607f821691505b60208210811415620006e657634e487b7160e01b600052602260045260246000fd5b50919050565b634e487b7160e01b600052602160045260246000fd5b634e487b7160e01b600052604160045260246000fd5b60805161204d62000742600039600081816102be0152818161047e01526107df015261204d6000f3fe608060405234801561001057600080fd5b50600436106101215760003560e01c80637df38c5b116100ad57806396d6d6961161007157806396d6d69614610296578063bfce14ea146102b9578063c6ee20d2146102e0578063cb2ef6f7146102fa578063ec3a47901461031b57600080fd5b80637df38c5b1461022e5780637f7550431461023757806385209ee01461024a5780638da5cb5b1461025c57806396118e441461026f57600080fd5b80634d547ada116100f45780634d547ada146101ae5780634e12aa96146101d957806350365be91461020057806353318a87146102135780635db28c661461022657600080fd5b8063188bbbf3146101265780631ed4b49e1461014f57806325b0db0f146101645780633c86f6f314610179575b600080fd5b6007546101399062010000900460ff1681565b6040516101469190611bc7565b60405180910390f35b61015761032e565b6040516101469190611c02565b610177610172366004611a79565b6103bc565b005b6101a07ffa5e0016fb62b8dffda8fd95249d438edcffd3689b40ac3b4281d4cf710609ae81565b604051908152602001610146565b6000546101c1906001600160a01b031681565b6040516001600160a01b039091168152602001610146565b6101a07fc35792dec8ea736e1a3478771b1f14a7472fd98ca01a9c9077ac63917f87f64981565b61017761020e366004611a79565b6104f2565b610177610221366004611abd565b610728565b6101a0610855565b6101a060025481565b61017761024536600461191e565b6108b3565b60075461013990610100900460ff1681565b6001546101c1906001600160a01b031681565b6101a07f62b607caa4d4e7fcbd31bf4c033cd30888b536567fadc83710fdf15f8d5cfc9e81565b6102a96102a43660046119a9565b610c34565b6040519015158152602001610146565b6101a07f000000000000000000000000000000000000000000000000000000000000000081565b6007546102ed9060ff1681565b6040516101469190611bda565b60075461030e906301000000900460ff1681565b6040516101469190611bee565b610177610329366004611ae3565b610cbd565b6005805461033b90611e83565b80601f016020809104026020016040519081016040528092919081815260200182805461036790611e83565b80156103b45780601f10610389576101008083540402835291602001916103b4565b820191906000526020600020905b81548152906001019060200180831161039757829003601f168201915b505050505081565b6001546001600160a01b031633146103ef5760405162461bcd60e51b81526004016103e690611c61565b60405180910390fd5b60038060075460ff16600481111561040957610409611ed4565b146104265760405162461bcd60e51b81526004016103e690611ce4565b604080517ffa5e0016fb62b8dffda8fd95249d438edcffd3689b40ac3b4281d4cf710609ae602080830191909152871580158385015283518084038501815260608401855280519083012061190160f01b60808501527f0000000000000000000000000000000000000000000000000000000000000000608285015260a2808501919091528451808503909101815260c29093019093528151910120906104d4576104cf610d85565b6104ea565b600780546002919060ff19166001835b02179055505b505050505050565b6000546001600160a01b0316331461051c5760405162461bcd60e51b81526004016103e690611cb4565b600080600754610100900460ff16600281111561053b5761053b611ed4565b146105585760405162461bcd60e51b81526004016103e690611db8565b60018060075460ff16600481111561057257610572611ed4565b1461058f5760405162461bcd60e51b81526004016103e690611ce4565b60018060075462010000900460ff1660028111156105af576105af611ed4565b146105cc5760405162461bcd60e51b81526004016103e690611d4e565b6105fb6040518060400160405280600e81526020016d43616c6c696e6720776f726b282960901b815250610dde565b60408051808201909152600881526702bb7b935b2b91d160c51b602082015260005461063091906001600160a01b0316610d3c565b61065a60405180604001604052806008815260200167029b2b73232b91d160c51b81525033610d3c565b600187151514156106ca576000806106a66040518060400160405280601c81526020017f41626f757420746f207374616b652072657075746174696f6e2e2e2e00000000815250610dde565b6106b281898989610e24565b50506007805462ff00ff1916620200021790556106ef565b600080546001600160a01b03191690556106e2610e6f565b6007805462ff00ff191690555b61071f6040518060400160405280600f81526020016e15dbdc9aca0a48199a5b9a5cda1959608a1b815250610dde565b50505050505050565b6000546001600160a01b031633146107525760405162461bcd60e51b81526004016103e690611cb4565b60028060075460ff16600481111561076c5761076c611ed4565b146107895760405162461bcd60e51b81526004016103e690611ce4565b604080517f62b607caa4d4e7fcbd31bf4c033cd30888b536567fadc83710fdf15f8d5cfc9e60208083019190915281830188905282518083038401815260608301845280519082012061190160f01b60808401527f0000000000000000000000000000000000000000000000000000000000000000608284015260a2808401919091528351808403909101815260c290920190925280519101206000546001600160a01b031661083857600080fd5b61084186600655565b600780546003919060ff19166001836104e4565b6001546000906001600160a01b031633146108825760405162461bcd60e51b81526004016103e690611c61565b6000546001600160a01b031633146108ac5760405162461bcd60e51b81526004016103e690611cb4565b5060065490565b6001546001600160a01b031633146108dd5760405162461bcd60e51b81526004016103e690611c61565b600180600754610100900460ff1660028111156108fc576108fc611ed4565b146109195760405162461bcd60e51b81526004016103e690611db8565b60008060075460ff16600481111561093357610933611ed4565b146109505760405162461bcd60e51b81526004016103e690611ce4565b6001600160a01b038c166109cc5760405162461bcd60e51b815260206004820152603760248201527f576f726b65722061646472657373206d757374206e6f7420626520302077686560448201527f6e2061737369676e696e67206e657720776f726b65722e00000000000000000060648201526084016103e6565b8a610a195760405162461bcd60e51b815260206004820181905260248201527f44616920616d6f756e742063616e6e6f7420626520657175616c20746f20302e60448201526064016103e6565b610a3a604051806060016040528060378152602001611fe160379139610dde565b600354610a4f906001600160a01b0316610ffe565b610a70604051806060016040528060378152602001611fe160379139610dde565b600454610a85906001600160a01b0316610ffe565b6003546001546040516370a0823160e01b81526001600160a01b03918216600482015260009291909116906370a082319060240160206040518083038186803b158015610ad157600080fd5b505afa158015610ae5573d6000803e3d6000fd5b505050506040513d601f19601f82011682018060405250810190610b099190611b18565b9050610b2c604051806060016040528060338152602001611f3460339139610dde565b610b358c611046565b610b566040518060600160405280603b8152602001611fa6603b9139610dde565b610b5f81611046565b8b811015610b6c57600080fd5b610b9a6040518060400160405280600d81526020016c4558504949495252525959595960981b815250610dde565b610ba38a611046565b610baf8960ff16611046565b610bb88b611046565b610bc88b8b8b8b8b8b8b8b61108b565b60028c9055600080546001600160a01b0319166001600160a01b038f161790556007805462ff00ff191662010001179055600160075462010000900460ff166002811115610c1857610c18611ed4565b14610c2557610c25611ebe565b50505050505050505050505050565b600080836001600160a01b0316635d5f221f846040518263ffffffff1660e01b8152600401610c639190611e21565b602060405180830381600087803b158015610c7d57600080fd5b505af1158015610c91573d6000803e3d6000fd5b505050506040513d601f19601f82011682018060405250810190610cb59190611a55565b949350505050565b6001546001600160a01b03163314610ce75760405162461bcd60e51b81526004016103e690611c61565b60008060075462010000900460ff166002811115610d0757610d07611ed4565b14610d245760405162461bcd60e51b81526004016103e690611d4e565b8151610d379060059060208501906117e2565b505050565b610d818282604051602401610d52929190611c15565b60408051601f198184030181529190526020810180516001600160e01b031663319af33360e01b17905261130e565b5050565b6001546001600160a01b03163314610daf5760405162461bcd60e51b81526004016103e690611c61565b6000546001600160a01b0316610dc457600080fd5b610dcc61132f565b506007805461ffff1916610204179055565b610e2181604051602401610df29190611c02565b60408051601f198184030181529190526020810180516001600160e01b031663104c13eb60e21b17905261130e565b50565b60018060075460ff166004811115610e3e57610e3e611ed4565b14610e5b5760405162461bcd60e51b81526004016103e690611ce4565b50506007805460ff19166002179055505050565b6000546001600160a01b03163314610e995760405162461bcd60e51b81526004016103e690611cb4565b60018060075462010000900460ff166002811115610eb957610eb9611ed4565b14610ed65760405162461bcd60e51b81526004016103e690611d4e565b60018060075460ff166004811115610ef057610ef0611ed4565b14610f0d5760405162461bcd60e51b81526004016103e690611ce4565b600254610f725760405162461bcd60e51b815260206004820152602d60248201527f5468657265206973206e6f2044414920746f207472616e73666572206261636b60448201526c103a37903a34329037bbb732b960991b60648201526084016103e6565b60035460015460025460405163a9059cbb60e01b81526001600160a01b039283166004820152602481019190915291169063a9059cbb90604401602060405180830381600087803b158015610fc657600080fd5b505af1158015610fda573d6000803e3d6000fd5b505050506040513d601f19601f82011682018060405250810190610d379190611a55565b6040516001600160a01b0382166024820152610e219060440160408051601f198184030181529190526020810180516001600160e01b031663161765e160e11b17905261130e565b610e218160405160240161105c91815260200190565b60408051601f198184030181529190526020810180516001600160e01b031663f5b1bba960e01b17905261130e565b6110ac6040518060600160405280603f8152602001611f67603f9139610dde565b6110de6040518060400160405280601181526020017041424f555420544f205045524d4954203160781b815250610dde565b6110e787611046565b600354600180546040516323f2ebc360e21b81526001600160a01b0393841693638fcbaf0c9361112a939091169130918e918e91908e908e908e90600401611b7e565b600060405180830381600087803b15801561114457600080fd5b505af1158015611158573d6000803e3d6000fd5b5050505061116587611046565b611197604051806040016040528060118152602001702224a2102ba29023a2aa102422a922901960791b815250610dde565b60035460015460025460405163f2d5d56b60e01b81526001600160a01b039283166004820152602481019190915291169063f2d5d56b90604401600060405180830381600087803b1580156111eb57600080fd5b505af11580156111ff573d6000803e3d6000fd5b505050506112356040518060400160405280601181526020017020b137baba103a3790383ab6361717171760791b815250610dde565b61123e87611046565b600354600180546001600160a01b0392831692638fcbaf0c929116903090611267908d90611e5d565b8b60008989896040518963ffffffff1660e01b8152600401611290989796959493929190611b7e565b600060405180830381600087803b1580156112aa57600080fd5b505af11580156112be573d6000803e3d6000fd5b505050506112cb87611046565b6112f96040518060400160405280600d81526020016c494e495449414c495a4544212160981b815250610dde565b50506007805461ff0019169055505050505050565b80516a636f6e736f6c652e6c6f67602083016000808483855afa5050505050565b600454604080518082019091526013815272020b2323932b9b99037b31031aa37b5b2b71d1606d1b60208201526000916001600160a01b0316906113739082610d3c565b6000816001600160a01b031663bd6d894d6040518163ffffffff1660e01b8152600401602060405180830381600087803b1580156113b057600080fd5b505af11580156113c4573d6000803e3d6000fd5b505050506040513d601f19601f820116820180604052508101906113e89190611b18565b90506114296040518060400160405280601b81526020017f45786368616e65672072617465206d616e74697373612069733a2000000000008152508261179d565b6000826001600160a01b031663ae9d70b06040518163ffffffff1660e01b8152600401602060405180830381600087803b15801561146657600080fd5b505af115801561147a573d6000803e3d6000fd5b505050506040513d601f19601f8201168201806040525081019061149e9190611b18565b90506114d860405180604001604052806016815260200175029bab838363c903930ba329036b0b73a34b9b9b09d160551b8152508261179d565b600354600480546040516370a0823160e01b815230928101929092526001600160a01b039283169263095ea7b39291169083906370a082319060240160206040518083038186803b15801561152c57600080fd5b505afa158015611540573d6000803e3d6000fd5b505050506040513d601f19601f820116820180604052508101906115649190611b18565b6040516001600160e01b031960e085901b1681526001600160a01b0390921660048301526024820152604401602060405180830381600087803b1580156115aa57600080fd5b505af11580156115be573d6000803e3d6000fd5b505050506040513d601f19601f820116820180604052508101906115e29190611a55565b506116146040518060400160405280601081526020016f20b8383937bb329031b0b63632b2171760811b815250610dde565b6003546040516370a0823160e01b81523060048201526000916001600160a01b038681169263a0712d689291909116906370a082319060240160206040518083038186803b15801561166557600080fd5b505afa158015611679573d6000803e3d6000fd5b505050506040513d601f19601f8201168201806040525081019061169d9190611b18565b6040518263ffffffff1660e01b81526004016116bb91815260200190565b602060405180830381600087803b1580156116d557600080fd5b505af11580156116e9573d6000803e3d6000fd5b505050506040513d601f19601f8201168201806040525081019061170d9190611b18565b9050806117605761171d81611046565b61175b6040518060400160405280601a81526020017f5375636365737366756c206d696e74696e672121212121212121000000000000815250610dde565b610cb5565b61176981611046565b610cb5604051806040016040528060138152602001722a34329036b4b73a103330b4b632b21717171760691b815250610dde565b610d8182826040516024016117b3929190611c3f565b60408051601f198184030181529190526020810180516001600160e01b03166309710a9d60e41b17905261130e565b8280546117ee90611e83565b90600052602060002090601f0160209004810192826118105760008555611856565b82601f1061182957805160ff1916838001178555611856565b82800160010185558215611856579182015b8281111561185657825182559160200191906001019061183b565b50611862929150611866565b5090565b5b808211156118625760008155600101611867565b600082601f83011261188c57600080fd5b813567ffffffffffffffff808211156118a7576118a7611eea565b604051601f8301601f19908116603f011681019082821181831017156118cf576118cf611eea565b816040528381528660208588010111156118e857600080fd5b836020870160208301376000602085830101528094505050505092915050565b803560ff8116811461191957600080fd5b919050565b6000806000806000806000806000806101408b8d03121561193e57600080fd5b8a3561194981611f10565b995060208b0135985060408b0135975060608b0135965061196c60808c01611908565b955060a08b0135945060c08b0135935061198860e08c01611908565b92506101008b013591506101208b013590509295989b9194979a5092959850565b600080604083850312156119bc57600080fd5b82356119c781611f10565b9150602083013567ffffffffffffffff808211156119e457600080fd5b90840190606082870312156119f857600080fd5b604051606081018181108382111715611a1357611a13611eea565b604052823582811115611a2557600080fd5b611a318882860161187b565b82525060208301356020820152604083013560408201528093505050509250929050565b600060208284031215611a6757600080fd5b8151611a7281611f25565b9392505050565b60008060008060808587031215611a8f57600080fd5b8435611a9a81611f25565b9350611aa860208601611908565b93969395505050506040820135916060013590565b60008060008060808587031215611ad357600080fd5b84359350611aa860208601611908565b600060208284031215611af557600080fd5b813567ffffffffffffffff811115611b0c57600080fd5b610cb58482850161187b565b600060208284031215611b2a57600080fd5b5051919050565b6000815180845260005b81811015611b5757602081850181015186830182015201611b3b565b81811115611b69576000602083870101525b50601f01601f19169290920160200192915050565b6001600160a01b039889168152969097166020870152604086019490945260608501929092521515608084015260ff1660a083015260c082015260e08101919091526101000190565b60208101611bd483611f00565b91905290565b6020810160058310611bd457611bd4611ed4565b6020810160028310611bd457611bd4611ed4565b602081526000611a726020830184611b31565b604081526000611c286040830185611b31565b905060018060a01b03831660208301529392505050565b604081526000611c526040830185611b31565b90508260208301529392505050565b60208082526033908201527f576f726b52656c6174696f6e736869703a206f6e6c794f776e65722063616e2060408201527231b0b636103a3434b990333ab731ba34b7b71760691b606082015260800190565b602080825260169082015275576f726b52656c6174696f6e736869703a206f6e6c7960501b604082015260600190565b60208082526044908201527f5468697320616374696f6e2063616e6e6f742062652063617272696564206f7560408201527f7420756e646572207468652063757272656e7420636f6e7472616374207374616060820152633a3ab99760e11b608082015260a00190565b60208082526044908201527f43616e6e6f7420696e766f6b65207468697320657363726f772066756e63746960408201527f6f6e2077697468207468652063757272656e7420636f6e7472616374207374616060820152633a3ab99760e11b608082015260a00190565b60208082526043908201527f43616e6e6f7420696e766f6b65207468697320657363726f772066756e63746960408201527f6f6e2077697468207468652063757272656e7420636f6e7472616374207374616060820152623a329760e91b608082015260a00190565b602081526000825160606020840152611e3d6080840182611b31565b905060208401516040840152604084015160608401528091505092915050565b60008219821115611e7e57634e487b7160e01b600052601160045260246000fd5b500190565b600181811c90821680611e9757607f821691505b60208210811415611eb857634e487b7160e01b600052602260045260246000fd5b50919050565b634e487b7160e01b600052600160045260246000fd5b634e487b7160e01b600052602160045260246000fd5b634e487b7160e01b600052604160045260246000fd5b60038110610e2157610e21611ed4565b6001600160a01b0381168114610e2157600080fd5b8015158114610e2157600080fdfe404040404040404040404040404040404040404040405741444040404040404040404040404040404040404040404040404040404040404040404040404040404040404040404040404449442057452047455420484552454040404040404040404040404040404040404040404040404040404040404040404040404040404040404040404040405573657242616c616e6365404040404040404040404040404040404040404040404040404040404040404040404040404040404040404040404040436861696e49444040404040404040404040404040404040404040404040404040a2646970667358221220331f7fc37a7ad4174404b0560da194cee4038dc8fb45ba7004bd90bc7648761b64736f6c63430008070033",
  "linkReferences": {},
  "deployedLinkReferences": {}
}