{
  "_format": "hh-sol-artifact-1",
  "contractName": "Market",
  "sourceName": "contracts/market/Market.sol",
  "abi": [
    {
      "inputs": [
        {
          "internalType": "string",
          "name": "marketName",
          "type": "string"
        },
        {
          "internalType": "enum MarketLib.MarketType",
          "name": "marketType",
          "type": "uint8"
        }
      ],
      "stateMutability": "nonpayable",
      "type": "constructor"
    },
    {
      "anonymous": false,
      "inputs": [
        {
          "indexed": true,
          "internalType": "address",
          "name": "marketAddress",
          "type": "address"
        },
        {
          "indexed": true,
          "internalType": "string",
          "name": "marketName",
          "type": "string"
        }
      ],
      "name": "MarketPaused",
      "type": "event"
    },
    {
      "anonymous": false,
      "inputs": [
        {
          "indexed": true,
          "internalType": "address",
          "name": "marketAddress",
          "type": "address"
        },
        {
          "indexed": true,
          "internalType": "string",
          "name": "marketName",
          "type": "string"
        }
      ],
      "name": "MarketResumed",
      "type": "event"
    },
    {
      "anonymous": false,
      "inputs": [
        {
          "indexed": true,
          "internalType": "address",
          "name": "owner",
          "type": "address"
        },
        {
          "indexed": true,
          "internalType": "address",
          "name": "relationship",
          "type": "address"
        },
        {
          "indexed": true,
          "internalType": "address",
          "name": "marketAddress",
          "type": "address"
        }
      ],
      "name": "WorkRelationshipCreated",
      "type": "event"
    },
    {
      "anonymous": false,
      "inputs": [
        {
          "indexed": true,
          "internalType": "address",
          "name": "owner",
          "type": "address"
        },
        {
          "indexed": true,
          "internalType": "address",
          "name": "relationship",
          "type": "address"
        }
      ],
      "name": "WorkRelationshipEnded",
      "type": "event"
    },
    {
      "inputs": [],
      "name": "_marketName",
      "outputs": [
        {
          "internalType": "string",
          "name": "",
          "type": "string"
        }
      ],
      "stateMutability": "view",
      "type": "function"
    },
    {
      "inputs": [],
      "name": "_marketStatus",
      "outputs": [
        {
          "internalType": "enum MarketLib.MarketStatus",
          "name": "",
          "type": "uint8"
        }
      ],
      "stateMutability": "view",
      "type": "function"
    },
    {
      "inputs": [],
      "name": "_marketType",
      "outputs": [
        {
          "internalType": "enum MarketLib.MarketType",
          "name": "",
          "type": "uint8"
        }
      ],
      "stateMutability": "view",
      "type": "function"
    },
    {
      "inputs": [],
      "name": "_requiredIndustryWeight",
      "outputs": [
        {
          "internalType": "uint256",
          "name": "",
          "type": "uint256"
        }
      ],
      "stateMutability": "view",
      "type": "function"
    },
    {
      "inputs": [],
      "name": "_requiredReputation",
      "outputs": [
        {
          "internalType": "uint256",
          "name": "",
          "type": "uint256"
        }
      ],
      "stateMutability": "view",
      "type": "function"
    },
    {
      "inputs": [
        {
          "internalType": "address",
          "name": "taskOwner",
          "type": "address"
        },
        {
          "internalType": "enum Evaluation.ContractType",
          "name": "_contractType",
          "type": "uint8"
        },
        {
          "internalType": "string",
          "name": "taskMetadataPointer",
          "type": "string"
        },
        {
          "internalType": "address",
          "name": "_daiTokenAddress",
          "type": "address"
        },
        {
          "internalType": "address",
          "name": "_cDaiTokenAddress",
          "type": "address"
        },
        {
          "internalType": "address",
          "name": "_banker",
          "type": "address"
        }
      ],
      "name": "createJob",
      "outputs": [],
      "stateMutability": "nonpayable",
      "type": "function"
    },
    {
      "inputs": [],
      "name": "getNumJobs",
      "outputs": [
        {
          "internalType": "uint256",
          "name": "",
          "type": "uint256"
        }
      ],
      "stateMutability": "view",
      "type": "function"
    },
    {
      "inputs": [],
      "name": "getWorkRelationships",
      "outputs": [
        {
          "internalType": "contract WorkRelationship[]",
          "name": "",
          "type": "address[]"
        }
      ],
      "stateMutability": "view",
      "type": "function"
    }
  ],
  "bytecode": "0x60806040523480156200001157600080fd5b506040516200434338038062004343833981016040819052620000349162000132565b81516200004990600090602085019062000077565b506001805482919060ff19168183818111156200006a576200006a62000260565b021790555050506200028c565b828054620000859062000223565b90600052602060002090601f016020900481019282620000a95760008555620000f4565b82601f10620000c457805160ff1916838001178555620000f4565b82800160010185558215620000f4579182015b82811115620000f4578251825591602001919060010190620000d7565b506200010292915062000106565b5090565b5b8082111562000102576000815560010162000107565b8051600281106200012d57600080fd5b919050565b600080604083850312156200014657600080fd5b82516001600160401b03808211156200015e57600080fd5b818501915085601f8301126200017357600080fd5b81518181111562000188576200018862000276565b604051601f8201601f19908116603f01168101908382118183101715620001b357620001b362000276565b81604052828152602093508884848701011115620001d057600080fd5b600091505b82821015620001f45784820184015181830185015290830190620001d5565b82821115620002065760008484830101525b9550620002189150508582016200011d565b925050509250929050565b600181811c908216806200023857607f821691505b602082108114156200025a57634e487b7160e01b600052602260045260246000fd5b50919050565b634e487b7160e01b600052602160045260246000fd5b634e487b7160e01b600052604160045260246000fd5b6140a7806200029c6000396000f3fe60806040523480156200001157600080fd5b5060043610620000935760003560e01c80637cf63de911620000625780637cf63de914620001005780637e0c00ed146200011d578063838069f71462000126578063c143521f146200013457600080fd5b80630f091637146200009857806336e114fc14620000b55780636039c8d714620000ce5780636145c47814620000e7575b600080fd5b620000a260025481565b6040519081526020015b60405180910390f35b620000bf6200013e565b604051620000ac919062000546565b620000d8620001a2565b604051620000ac9190620005aa565b620000fe620000f836600462000383565b62000238565b005b6001546200010e9060ff1681565b604051620000ac919062000595565b600554620000a2565b6004546200010e9060ff1681565b620000a260035481565b606060058054806020026020016040519081016040528092919081815260200182805480156200019857602002820191906000526020600020905b81546001600160a01b0316815260019091019060200180831162000179575b5050505050905090565b60008054620001b190620005c6565b80601f0160208091040260200160405190810160405280929190818152602001828054620001df90620005c6565b8015620002305780601f10620002045761010080835404028352916020019162000230565b820191906000526020600020905b8154815290600101906020018083116200021257829003601f168201915b505050505081565b856001600160a01b0381166200028a5760405162461bcd60e51b815260206004820152601360248201527224b73b30b634b2103a30b9b59037bbb732b91760691b604482015260640160405180910390fd5b6000878787878787604051620002a09062000358565b620002b196959493929190620004ef565b604051809103906000f080158015620002ce573d6000803e3d6000fd5b506005805460018101825560009182527f036b6384b5eca791c62761152d0c79bb0604c104a5fb6f4eb0703f3154bb3db00180546001600160a01b0319166001600160a01b0384811691821790925560405193945030939092918616917f43af47c504a2f23934b1a816cd86633559721bf26c3656844bdde3edd4719e1391a45050505050505050565b613a36806200063c83390190565b80356001600160a01b03811681146200037e57600080fd5b919050565b60008060008060008060c087890312156200039d57600080fd5b620003a88762000366565b9550602087013560028110620003bd57600080fd5b9450604087013567ffffffffffffffff80821115620003db57600080fd5b818901915089601f830112620003f057600080fd5b81358181111562000405576200040562000603565b604051601f8201601f19908116603f0116810190838211818310171562000430576200043062000603565b816040528281528c60208487010111156200044a57600080fd5b826020860160208301376000602084830101528098505050505050620004736060880162000366565b9250620004836080880162000366565b91506200049360a0880162000366565b90509295509295509295565b6000815180845260005b81811015620004c757602081850181015186830182015201620004a9565b81811115620004da576000602083870101525b50601f01601f19169290920160200192915050565b6001600160a01b0387811682526000906200050a8862000619565b87602084015260c060408401526200052660c08401886200049f565b9581166060840152938416608083015250911660a0909101529392505050565b6020808252825182820181905260009190848201906040850190845b81811015620005895783516001600160a01b03168352928401929184019160010162000562565b50909695505050505050565b60208101620005a48362000619565b91905290565b602081526000620005bf60208301846200049f565b9392505050565b600181811c90821680620005db57607f821691505b60208210811415620005fd57634e487b7160e01b600052602260045260246000fd5b50919050565b634e487b7160e01b600052604160045260246000fd5b600281106200063857634e487b7160e01b600052602160045260246000fd5b5056fe60c06040819052600060a08190526200001b916006916200034e565b5060006007553480156200002e57600080fd5b5060405162003a3638038062003a36833981016040819052620000519162000411565b6001600160a01b038316620000d35760405162461bcd60e51b815260206004820152603360248201527f44616920746f6b656e20616464726573732063616e6e6f74206265203020776860448201527f656e206372656174696e6720657363726f772e0000000000000000000000000060648201526084015b60405180910390fd5b6001600160a01b038216620001515760405162461bcd60e51b815260206004820152603460248201527f6344616920746f6b656e20616464726573732063616e6e6f742062652030207760448201527f68656e206372656174696e6720657363726f772e0000000000000000000000006064820152608401620000ca565b6001600160a01b038116620001c25760405162461bcd60e51b815260206004820152603060248201527f42616e6b657220616464726573732063616e6e6f742062652030207768656e2060448201526f31b932b0ba34b7339032b9b1b937bb9760811b6064820152608401620000ca565b600380546001600160a01b038581166001600160a01b031992831617909255600480549285169290911691909117905560408051808201825260118152700576f726b2052656c6174696f6e7368697607c1b6020918201528151808301835260018152603160f81b9082015281517f8b73c3c69bb8fe3d512ecc4cf759cc79239f7b179b0ffacaa9a75d522b39400f918101919091527f23ae04968b80dec446ff6e10f2b3f92cabd9ce3ef49e1efba87e053dc4702f88918101919091527fc89efdaa54c0f20c7adf612882df0950f5a951637e0307cdcb4c672f298b8bc660608201524660ff811660808301523060a08301529060c00160408051808303601f190181529190528051602090910120608052600180546001600160a01b0319166001600160a01b03891617815560088054889263ff000000199091169063010000009084908111156200031a576200031a6200058e565b02179055506008805462ffffff191690558451620003409060069060208801906200034e565b5050505050505050620005ba565b8280546200035c9062000551565b90600052602060002090601f016020900481019282620003805760008555620003cb565b82601f106200039b57805160ff1916838001178555620003cb565b82800160010185558215620003cb579182015b82811115620003cb578251825591602001919060010190620003ae565b50620003d9929150620003dd565b5090565b5b80821115620003d95760008155600101620003de565b80516001600160a01b03811681146200040c57600080fd5b919050565b60008060008060008060c087890312156200042b57600080fd5b6200043687620003f4565b9550602080880151600281106200044c57600080fd5b60408901519096506001600160401b03808211156200046a57600080fd5b818a0191508a601f8301126200047f57600080fd5b815181811115620004945762000494620005a4565b604051601f8201601f19908116603f01168101908382118183101715620004bf57620004bf620005a4565b816040528281528d86848701011115620004d857600080fd5b600093505b82841015620004fc5784840186015181850187015292850192620004dd565b828411156200050e5760008684830101525b8099505050505050506200052560608801620003f4565b92506200053560808801620003f4565b91506200054560a08801620003f4565b90509295509295509295565b600181811c908216806200056657607f821691505b602082108114156200058857634e487b7160e01b600052602260045260246000fd5b50919050565b634e487b7160e01b600052602160045260246000fd5b634e487b7160e01b600052604160045260246000fd5b608051613452620005e4600039600081816103500152818161067a015261090701526134526000f3fe60806040523480156200001157600080fd5b50600436106200015d5760003560e01c80637f75504311620000c7578063bab500791162000086578063bab500791462000333578063bfce14ea146200034a578063c6ee20d21462000372578063cb2ef6f7146200038f578063ec3a479014620003b3578063f240f7c314620003ca57600080fd5b80637f75504314620002a557806385209ee014620002bc5780638da5cb5b14620002cf57806396118e4414620002e357806396d6d696146200030b57600080fd5b80634d547ada11620001205780634d547ada146200020e5780634e12aa96146200023b57806350365be9146200026357806353318a87146200027a5780635db28c6614620002915780637df38c5b146200029b57600080fd5b80630b73a87f1462000162578063188bbbf3146200017b5780631ed4b49e14620001a757806325b0db0f14620001c05780633c86f6f314620001d7575b600080fd5b62000179620001733660046200138f565b620003de565b005b6008546200018f9062010000900460ff1681565b6040516200019e91906200167d565b60405180910390f35b620001b162000522565b6040516200019e9190620016c0565b62000179620001d13660046200151f565b620005b8565b620001ff7ffa5e0016fb62b8dffda8fd95249d438edcffd3689b40ac3b4281d4cf710609ae81565b6040519081526020016200019e565b60005462000222906001600160a01b031681565b6040516001600160a01b0390911681526020016200019e565b620001ff7fc35792dec8ea736e1a3478771b1f14a7472fd98ca01a9c9077ac63917f87f64981565b62000179620002743660046200151f565b620006f2565b620001796200028b36600462001568565b62000847565b620001ff62000980565b620001ff60025481565b62000179620002b6366004620013b6565b620009e4565b6008546200018f90610100900460ff1681565b60015462000222906001600160a01b031681565b620001ff7f62b607caa4d4e7fcbd31bf4c033cd30888b536567fadc83710fdf15f8d5cfc9e81565b620003226200031c36600462001448565b62000cbf565b60405190151581526020016200019e565b62000179620003443660046200138f565b62000d4e565b620001ff7f000000000000000000000000000000000000000000000000000000000000000081565b600854620003809060ff1681565b6040516200019e919062001692565b600854620003a4906301000000900460ff1681565b6040516200019e9190620016a9565b62000179620003c436600462001591565b62000e0f565b60055462000222906001600160a01b031681565b600854339060ff166005811115620003fa57620003fa6200194d565b60051480156200041757506005546001600160a01b038281169116145b6200048f5760405162461bcd60e51b815260206004820152603760248201527f54686520636f6e74726163742063616e6e6f74206265207265736f6c7665642060448201527f756e64657220746865736520636f6e646974696f6e732e00000000000000000060648201526084015b60405180910390fd5b60035460025460405163a9059cbb60e01b81526001600160a01b038581166004830152602482019290925291169063a9059cbb906044015b602060405180830381600087803b158015620004e257600080fd5b505af1158015620004f7573d6000803e3d6000fd5b505050506040513d601f19601f820116820180604052508101906200051d9190620014ff565b505050565b600680546200053190620018fa565b80601f01602080910402602001604051908101604052809291908181526020018280546200055f90620018fa565b8015620005b05780601f106200058457610100808354040283529160200191620005b0565b820191906000526020600020905b8154815290600101906020018083116200059257829003601f168201915b505050505081565b6001546001600160a01b03163314620005e55760405162461bcd60e51b81526004016200048690620016d5565b60038060085460ff1660058111156200060257620006026200194d565b14620006225760405162461bcd60e51b8152600401620004869062001758565b604080517ffa5e0016fb62b8dffda8fd95249d438edcffd3689b40ac3b4281d4cf710609ae602080830191909152871580158385015283518084038501815260608401855280519083012061190160f01b60808501527f0000000000000000000000000000000000000000000000000000000000000000608285015260a2808501919091528451808503909101815260c2909301909352815191012090620006d457620006ce62000e94565b620006ea565b600880546002919060ff19166001835b02179055505b505050505050565b6000546001600160a01b031633146200071f5760405162461bcd60e51b8152600401620004869062001728565b600180600854610100900460ff1660028111156200074157620007416200194d565b14620007615760405162461bcd60e51b815260040162000486906200182c565b60018060085460ff1660058111156200077e576200077e6200194d565b146200079e5760405162461bcd60e51b8152600401620004869062001758565b60018060085462010000900460ff166002811115620007c157620007c16200194d565b14620007e15760405162461bcd60e51b81526004016200048690620017c2565b600187151514156200081757600080620007fe8189898962000eff565b50506008805462ff00ff1916620200021790556200083e565b600080546001600160a01b03191690556200083162000f50565b6008805462ff00ff191690555b50505050505050565b6000546001600160a01b03163314620008745760405162461bcd60e51b8152600401620004869062001728565b60028060085460ff1660058111156200089157620008916200194d565b14620008b15760405162461bcd60e51b8152600401620004869062001758565b604080517f62b607caa4d4e7fcbd31bf4c033cd30888b536567fadc83710fdf15f8d5cfc9e60208083019190915281830188905282518083038401815260608301845280519082012061190160f01b60808401527f0000000000000000000000000000000000000000000000000000000000000000608284015260a2808401919091528351808403909101815260c290920190925280519101206000546001600160a01b03166200096157600080fd5b6200096b86600755565b600880546003919060ff1916600183620006e4565b6001546000906001600160a01b03163314620009b05760405162461bcd60e51b81526004016200048690620016d5565b6000546001600160a01b03163314620009dd5760405162461bcd60e51b8152600401620004869062001728565b5060075490565b6001546001600160a01b0316331462000a115760405162461bcd60e51b81526004016200048690620016d5565b600080600854610100900460ff16600281111562000a335762000a336200194d565b1462000a535760405162461bcd60e51b815260040162000486906200182c565b60008060085460ff16600581111562000a705762000a706200194d565b1462000a905760405162461bcd60e51b8152600401620004869062001758565b6001600160a01b038c1662000b0e5760405162461bcd60e51b815260206004820152603760248201527f576f726b65722061646472657373206d757374206e6f7420626520302077686560448201527f6e2061737369676e696e67206e657720776f726b65722e000000000000000000606482015260840162000486565b8a62000b5d5760405162461bcd60e51b815260206004820181905260248201527f44616920616d6f756e742063616e6e6f7420626520657175616c20746f20302e604482015260640162000486565b6003546001546040516370a0823160e01b81526001600160a01b03918216600482015260009291909116906370a082319060240160206040518083038186803b15801562000baa57600080fd5b505afa15801562000bbf573d6000803e3d6000fd5b505050506040513d601f19601f8201168201806040525081019062000be59190620015ca565b90508b81101562000bf557600080fd5b62000c078b8b8b8b8b8b8b8b620010a4565b60028c9055600080546001600160a01b038f166001600160a01b031991821617909155600580549091169055600880546001919062ff0000191662010000830217905550600880546001919060ff1916828002179055506000546001600160a01b038e811691161462000c7e5762000c7e62001937565b600160085462010000900460ff16600281111562000ca05762000ca06200194d565b1462000cb05762000cb062001937565b50505050505050505050505050565b600080836001600160a01b0316635d5f221f846040518263ffffffff1660e01b815260040162000cf0919062001895565b602060405180830381600087803b15801562000d0b57600080fd5b505af115801562000d20573d6000803e3d6000fd5b505050506040513d601f19601f8201168201806040525081019062000d469190620014ff565b949350505050565b60028060085460ff16600581111562000d6b5762000d6b6200194d565b1462000d8b5760405162461bcd60e51b8152600401620004869062001758565b308260405162000d9b906200122f565b6001600160a01b03928316815291166020820152604001604051809103906000f08015801562000dcf573d6000803e3d6000fd5b50600580546001600160a01b0319166001600160a01b0392909216918217905562000dfe5762000dfe62001937565b50506008805460ff19166005179055565b6001546001600160a01b0316331462000e3c5760405162461bcd60e51b81526004016200048690620016d5565b60008060085462010000900460ff16600281111562000e5f5762000e5f6200194d565b1462000e7f5760405162461bcd60e51b81526004016200048690620017c2565b81516200051d9060069060208501906200123d565b6001546001600160a01b0316331462000ec15760405162461bcd60e51b81526004016200048690620016d5565b6000546001600160a01b031662000ed757600080fd5b60005462000eee906001600160a01b0316620003de565b6008805461ffff1916610204179055565b60018060085460ff16600581111562000f1c5762000f1c6200194d565b1462000f3c5760405162461bcd60e51b8152600401620004869062001758565b50506008805460ff19166002179055505050565b6000546001600160a01b0316331462000f7d5760405162461bcd60e51b8152600401620004869062001728565b60018060085462010000900460ff16600281111562000fa05762000fa06200194d565b1462000fc05760405162461bcd60e51b81526004016200048690620017c2565b60018060085460ff16600581111562000fdd5762000fdd6200194d565b1462000ffd5760405162461bcd60e51b8152600401620004869062001758565b600254620010645760405162461bcd60e51b815260206004820152602d60248201527f5468657265206973206e6f2044414920746f207472616e73666572206261636b60448201526c103a37903a34329037bbb732b960991b606482015260840162000486565b60035460015460025460405163a9059cbb60e01b81526001600160a01b039283166004820152602481019190915291169063a9059cbb90604401620004c7565b600354600180546040516323f2ebc360e21b81526001600160a01b0393841693638fcbaf0c93620010e9939091169130918e918e91908e908e908e9060040162001634565b600060405180830381600087803b1580156200110457600080fd5b505af115801562001119573d6000803e3d6000fd5b505060035460015460025460405163f2d5d56b60e01b81526001600160a01b03928316600482015260248101919091529116925063f2d5d56b9150604401600060405180830381600087803b1580156200117257600080fd5b505af115801562001187573d6000803e3d6000fd5b5050600354600180546001600160a01b039283169450638fcbaf0c9350909116903090620011b7908d90620018d3565b8b60008989896040518963ffffffff1660e01b8152600401620011e298979695949392919062001634565b600060405180830381600087803b158015620011fd57600080fd5b505af115801562001212573d6000803e3d6000fd5b50506008805461ff00191661010017905550505050505050505050565b611a6880620019b583390190565b8280546200124b90620018fa565b90600052602060002090601f0160209004810192826200126f5760008555620012ba565b82601f106200128a57805160ff1916838001178555620012ba565b82800160010185558215620012ba579182015b82811115620012ba5782518255916020019190600101906200129d565b50620012c8929150620012cc565b5090565b5b80821115620012c85760008155600101620012cd565b600082601f830112620012f557600080fd5b813567ffffffffffffffff8082111562001313576200131362001963565b604051601f8301601f19908116603f011681019082821181831017156200133e576200133e62001963565b816040528381528660208588010111156200135857600080fd5b836020870160208301376000602085830101528094505050505092915050565b803560ff811681146200138a57600080fd5b919050565b600060208284031215620013a257600080fd5b8135620013af816200198f565b9392505050565b6000806000806000806000806000806101408b8d031215620013d757600080fd5b8a35620013e4816200198f565b995060208b0135985060408b0135975060608b013596506200140960808c0162001378565b955060a08b0135945060c08b013593506200142760e08c0162001378565b92506101008b013591506101208b013590509295989b9194979a5092959850565b600080604083850312156200145c57600080fd5b823562001469816200198f565b9150602083013567ffffffffffffffff808211156200148757600080fd5b90840190606082870312156200149c57600080fd5b604051606081018181108382111715620014ba57620014ba62001963565b604052823582811115620014cd57600080fd5b620014db88828601620012e3565b82525060208301356020820152604083013560408201528093505050509250929050565b6000602082840312156200151257600080fd5b8151620013af81620019a5565b600080600080608085870312156200153657600080fd5b84356200154381620019a5565b9350620015536020860162001378565b93969395505050506040820135916060013590565b600080600080608085870312156200157f57600080fd5b84359350620015536020860162001378565b600060208284031215620015a457600080fd5b813567ffffffffffffffff811115620015bc57600080fd5b62000d4684828501620012e3565b600060208284031215620015dd57600080fd5b5051919050565b6000815180845260005b818110156200160c57602081850181015186830182015201620015ee565b818111156200161f576000602083870101525b50601f01601f19169290920160200192915050565b6001600160a01b039889168152969097166020870152604086019490945260608501929092521515608084015260ff1660a083015260c082015260e08101919091526101000190565b602081016200168c8362001979565b91905290565b60208101600683106200168c576200168c6200194d565b60208101600283106200168c576200168c6200194d565b602081526000620013af6020830184620015e4565b60208082526033908201527f576f726b52656c6174696f6e736869703a206f6e6c794f776e65722063616e2060408201527231b0b636103a3434b990333ab731ba34b7b71760691b606082015260800190565b602080825260169082015275576f726b52656c6174696f6e736869703a206f6e6c7960501b604082015260600190565b60208082526044908201527f5468697320616374696f6e2063616e6e6f742062652063617272696564206f7560408201527f7420756e646572207468652063757272656e7420636f6e7472616374207374616060820152633a3ab99760e11b608082015260a00190565b60208082526044908201527f43616e6e6f7420696e766f6b65207468697320657363726f772066756e63746960408201527f6f6e2077697468207468652063757272656e7420636f6e7472616374207374616060820152633a3ab99760e11b608082015260a00190565b60208082526043908201527f43616e6e6f7420696e766f6b65207468697320657363726f772066756e63746960408201527f6f6e2077697468207468652063757272656e7420636f6e7472616374207374616060820152623a329760e91b608082015260a00190565b602081526000825160606020840152620018b36080840182620015e4565b905060208401516040840152604084015160608401528091505092915050565b60008219821115620018f557634e487b7160e01b600052601160045260246000fd5b500190565b600181811c908216806200190f57607f821691505b602082108114156200193157634e487b7160e01b600052602260045260246000fd5b50919050565b634e487b7160e01b600052600160045260246000fd5b634e487b7160e01b600052602160045260246000fd5b634e487b7160e01b600052604160045260246000fd5b600381106200198c576200198c6200194d565b50565b6001600160a01b03811681146200198c57600080fd5b80151581146200198c57600080fdfe60e060405260006004553480156200001657600080fd5b5060405162001a6838038062001a688339810160408190526200003991620002fb565b6001600160a01b0382166200004d57600080fd5b606082811b6001600160601b03191660c09081526005805460ff19169055426080908152600380546001600160a01b0386166001600160a01b031990911617905560408051808201825260078152664469737075746560c81b6020918201528151808301835260018152603160f81b9082015281517f8b73c3c69bb8fe3d512ecc4cf759cc79239f7b179b0ffacaa9a75d522b39400f918101919091527f04b273a0968087d38ef081b4cff37a55e03b55b8757862001d9ef2cb4b174038918101919091527fc89efdaa54c0f20c7adf612882df0950f5a951637e0307cdcb4c672f298b8bc6938101939093524660ff8116918401919091523060a0840152849290910160408051601f19818403018152828252805160209182012060a052638da5cb5b60e01b8352905162000260926001600160a01b03861692638da5cb5b92600480840193829003018186803b158015620001a957600080fd5b505afa158015620001be573d6000803e3d6000fd5b505050506040513d601f19601f82011682018060405250810190620001e49190620002d6565b836001600160a01b0316634d547ada6040518163ffffffff1660e01b815260040160206040518083038186803b1580156200021e57600080fd5b505afa15801562000233573d6000803e3d6000fd5b505050506040513d601f19601f82011682018060405250810190620002599190620002d6565b866200026a565b5050505062000333565b806001600160a01b0316826001600160a01b0316846001600160a01b03167fef5004fbc727a394eb47673cbdd28b705c06c6ad39410b806484757c2d1fd35460405160405180910390a4505050565b80516001600160a01b0381168114620002d157600080fd5b919050565b600060208284031215620002e957600080fd5b620002f482620002b9565b9392505050565b600080604083850312156200030f57600080fd5b6200031a83620002b9565b91506200032a60208401620002b9565b90509250929050565b60805160a05160c05160601c6116ee6200037a600039600081816104fd0152610a11015260006101e101526000818160a801528181610557015261058101526116ee6000f3fe608060405234801561001057600080fd5b506004361061009e5760003560e01c80638e93d1d5116100665780638e93d1d514610141578063a6430cc0146101a9578063b110d371146101d4578063bfce14ea146101dc578063d1ad17bf1461020357600080fd5b80630b97bc86146100a35780632febb58d146100dd5780635d1eb441146100fd5780636dd7d8ea146101055780637fdf2a011461011a575b600080fd5b6100ca7f000000000000000000000000000000000000000000000000000000000000000081565b6040519081526020015b60405180910390f35b6100ca6100eb366004610a81565b60016020526000908152604090205481565b6100ca610216565b610118610113366004610a81565b6103e2565b005b6100ca7fa5a0f8d2bd9a801d7bf3de4cb7f728cdbb90e91a22e6db05e58dd4a9b0bd280e81565b61018161014f366004610a81565b600060208190529081526040902080546001909101546001600160a01b0391821691811690600160a01b900460ff1683565b604080516001600160a01b0394851681529390921660208401521515908201526060016100d4565b6101bc6101b7366004610ac2565b610526565b6040516001600160a01b0390911681526020016100d4565b6100ca610550565b6100ca7f000000000000000000000000000000000000000000000000000000000000000081565b6003546101bc906001600160a01b031681565b600554600090819060ff16600281111561023257610232610b24565b81600281111561024457610244610b24565b1461024e57600080fd5b6002546005116102d95760405162461bcd60e51b815260206004820152604560248201527f54686520746f74616c206e756d626572206f662061726269747261746f72732060448201527f68617665206265656e20636f6c6c656374656420666f72207468697320636f6e6064820152641d1c9858dd60da1b608482015260a4015b60405180910390fd5b6000336040516102e890610a74565b6001600160a01b039091168152602001604051809103906000f080158015610314573d6000803e3d6000fd5b50905060006103d7338260408051606081018252600080825260208083018281528385018381526001600160a01b0397881680855284845286852095518654908a166001600160a01b031991821617875592516001968701805493511515600160a01b026001600160a81b031990941691909a16179190911790975590839052928120939093556002805491820181559092527f405787fa12a823e0f2b7631cc41b3ba8828b3321ca811111fa75cd3aa3bb5ace90910180549091169091179055565b600019935050505090565b60055460019060ff1660028111156103fc576103fc610b24565b81600281111561040e5761040e610b24565b1461041857600080fd5b3360009081526020818152604091829020825160608101845281546001600160a01b03908116825260019092015491821692810192909252600160a01b900460ff1615801592820192909252906104c15760405162461bcd60e51b815260206004820152602760248201527f596f75206861766520616c726561647920766f74656420696e2074686973206460448201526634b9b83aba329760c91b60648201526084016102d0565b6001600160a01b038316602082015260016040820152600480549060006104e88380610adb565b909155505060045460051415610521576105217f000000000000000000000000000000000000000000000000000000000000000061078e565b505050565b6002818154811061053657600080fd5b6000918252602090912001546001600160a01b0316905081565b600061057f7f00000000000000000000000000000000000000000000000000000000000000006203f480610adb565b7f00000000000000000000000000000000000000000000000000000000000000001061078b5760005b600254811015610772576000806000600284815481106105ca576105ca610b3a565b6000918252602080832091909101546001600160a01b0390811684528382019490945260409283018220835160608101855281548616815260019091015494851691810191909152600160a01b90930460ff161515918301919091526002805492935090918291908590811061064257610642610b3a565b60009182526020808320909101546001600160a01b0316835282019290925260400190206001015460ff600160a01b9091041661075f57604051806060016040528060006001600160a01b0316815260200160006001600160a01b0316815260200160001515815250600080600285815481106106c1576106c1610b3a565b6000918252602080832091909101546001600160a01b039081168452838201949094526040928301909120845181546001600160a01b0319169085161781559084015160019091018054949092015192166001600160a81b031990931692909217600160a01b91151591909102179055600280548390811061074557610745610b3a565b600091825260209091200180546001600160a01b03191690555b508061076a81610af3565b9150506105a8565b5060025460051115610785575060001990565b50600090565b90565b60008082815b6004548110156108e857600080600283815481106107b4576107b4610b3a565b60009182526020808320909101546001600160a01b03168352820192909252604001902060019081015460ff600160a01b9091041615151480156108b157506000806002838154811061080957610809610b3a565b60009182526020808320909101546001600160a01b039081168452838201949094526040928301909120600101548251638da5cb5b60e01b8152925190841693861692638da5cb5b926004808301939192829003018186803b15801561086e57600080fd5b505afa158015610882573d6000803e3d6000fd5b505050506040513d601f19601f820116820180604052508101906108a69190610aa5565b6001600160a01b0316145b156108c8576108c1600185610adb565b93506108d6565b6108d3600184610adb565b92505b806108e081610af3565b915050610794565b508183111561096f5761096a816001600160a01b0316638da5cb5b6040518163ffffffff1660e01b815260040160206040518083038186803b15801561092d57600080fd5b505afa158015610941573d6000803e3d6000fd5b505050506040513d601f19601f820116820180604052508101906109659190610aa5565b6109f2565b6109ab565b6109ab816001600160a01b0316634d547ada6040518163ffffffff1660e01b815260040160206040518083038186803b15801561092d57600080fd5b6005805460ff191660021790556040516001600160a01b038516907f8476b4c4cd5f496cfe2043ed12cd9e3e3540e97649536b9aa3fa67f06a7134db90600090a250505050565b604051630b73a87f60e01b81526001600160a01b0382811660048301527f00000000000000000000000000000000000000000000000000000000000000009190821690630b73a87f90602401600060405180830381600087803b158015610a5857600080fd5b505af1158015610a6c573d6000803e3d6000fd5b505050505050565b610b5080610b6983390190565b600060208284031215610a9357600080fd5b8135610a9e81610b50565b9392505050565b600060208284031215610ab757600080fd5b8151610a9e81610b50565b600060208284031215610ad457600080fd5b5035919050565b60008219821115610aee57610aee610b0e565b500190565b6000600019821415610b0757610b07610b0e565b5060010190565b634e487b7160e01b600052601160045260246000fd5b634e487b7160e01b600052602160045260246000fd5b634e487b7160e01b600052603260045260246000fd5b6001600160a01b0381168114610b6557600080fd5b5056fe608060405234801561001057600080fd5b50604051610b50380380610b5083398101604081905261002f9161006a565b600080546001600160a01b039092166001600160a01b031992831681178255600c805490931617909155600180556007819055600a5561009a565b60006020828403121561007c57600080fd5b81516001600160a01b038116811461009357600080fd5b9392505050565b610aa7806100a96000396000f3fe608060405234801561001057600080fd5b50600436106100885760003560e01c80637f306ba11161005b5780637f306ba1146100f45780638da5cb5b14610107578063cebc227314610132578063d4fa571e1461014957600080fd5b80635d5f221f1461008d5780636f61c744146100b55780637c108333146100cc5780637ca97e8c146100e1575b600080fd5b6100a061009b3660046106f5565b610152565b60405190151581526020015b60405180910390f35b6100bd61016f565b6040516100ac93929190610900565b6100df6100da3660046106a9565b6102ed565b005b6100df6100ef366004610779565b610375565b6100df6101023660046106cb565b610404565b600c5461011a906001600160a01b031681565b6040516001600160a01b0390911681526020016100ac565b61013b60015481565b6040519081526020016100ac565b61013b60025481565b600c546000906001600160a01b031661016a57600080fd5b919050565b60055460038054604080516020808402820181019092528281526060948594600094909360049360ff90931692918591879084015b828210156102505783829060005260206000200180546101c390610a0a565b80601f01602080910402602001604051908101604052809291908181526020018280546101ef90610a0a565b801561023c5780601f106102115761010080835404028352916020019161023c565b820191906000526020600020905b81548152906001019060200180831161021f57829003601f168201915b5050505050815260200190600101906101a4565b50505050925081805461026290610a0a565b80601f016020809104026020016040519081016040528092919081815260200182805461028e90610a0a565b80156102db5780601f106102b0576101008083540402835291602001916102db565b820191906000526020600020905b8154815290600101906020018083116102be57829003601f168201915b50505050509150925092509250909192565b6006805460018101825560009182527ff652222313e28459528d920b65115c16c04f3efc82aaedc97be59f3f377c0d3f0180546001600160a01b0319166001600160a01b03848116919091179091559054604051911681527ffa002e39398e157a85a81542dea7f10c5aaf2806e9a9b75191aaf82eb1917b349060200160405180910390a150565b81518051839160039161038f9183916020909101906104c5565b5060208281015180516103a89260018501920190610522565b50604091820151600291909101805460ff191660ff909216919091179055516001600160a01b03821681527ffa002e39398e157a85a81542dea7f10c5aaf2806e9a9b75191aaf82eb1917b349060200160405180910390a15050565b600c546001600160a01b0383811691161461041e57600080fd5b60015481111561049a5760405162461bcd60e51b815260206004820152603f60248201527f5374616b65642052657075746174696f6e2063616e6e6f74206265206869676860448201527f6572207468616e20796f75722063757272656e742072657075746174696f6e00606482015260840160405180910390fd5b806001546104a891906109f3565b600155600280549060006104bc83806109db565b90915550505050565b828054828255906000526020600020908101928215610512579160200282015b828111156105125782518051610502918491602090910190610522565b50916020019190600101906104e5565b5061051e9291506105a2565b5090565b82805461052e90610a0a565b90600052602060002090601f0160209004810192826105505760008555610596565b82601f1061056957805160ff1916838001178555610596565b82800160010185558215610596579182015b8281111561059657825182559160200191906001019061057b565b5061051e9291506105bf565b8082111561051e5760006105b682826105d4565b506001016105a2565b5b8082111561051e57600081556001016105c0565b5080546105e090610a0a565b6000825580601f106105f0575050565b601f01602090049060005260206000209081019061060e91906105bf565b50565b80356001600160a01b038116811461016a57600080fd5b600082601f83011261063957600080fd5b813567ffffffffffffffff81111561065357610653610a5b565b610666601f8201601f19166020016109aa565b81815284602083860101111561067b57600080fd5b816020850160208301376000918101602001919091529392505050565b803560ff8116811461016a57600080fd5b6000602082840312156106bb57600080fd5b6106c482610611565b9392505050565b600080604083850312156106de57600080fd5b6106e783610611565b946020939093013593505050565b60006020828403121561070757600080fd5b813567ffffffffffffffff8082111561071f57600080fd5b908301906060828603121561073357600080fd5b61073b610981565b82358281111561074a57600080fd5b61075687828601610628565b825250602083013560208201526040830135604082015280935050505092915050565b6000806040838503121561078c57600080fd5b823567ffffffffffffffff808211156107a457600080fd5b90840190606082870312156107b857600080fd5b6107c0610981565b8235828111156107cf57600080fd5b8301601f810188136107e057600080fd5b80356020848211156107f4576107f4610a5b565b8160051b6108038282016109aa565b8381528281019085840183870185018e101561081e57600080fd5b600093505b8584101561085d5780358981111561083a57600080fd5b6108488f87838b0101610628565b84525060019390930192918401918401610823565b50865250508581013592508483111561087557600080fd5b6108818a848801610628565b8185015261089160408701610698565b60408501528397506108a4818a01610611565b96505050505050509250929050565b6000815180845260005b818110156108d9576020818501810151868301820152016108bd565b818111156108eb576000602083870101525b50601f01601f19169290920160200192915050565b6000606082016060835280865180835260808501915060808160051b8601019250602080890160005b8381101561095757607f198887030185526109458683516108b3565b95509382019390820190600101610929565b50508584038187015250505061096d81866108b3565b91505060ff83166040830152949350505050565b6040516060810167ffffffffffffffff811182821017156109a4576109a4610a5b565b60405290565b604051601f8201601f1916810167ffffffffffffffff811182821017156109d3576109d3610a5b565b604052919050565b600082198211156109ee576109ee610a45565b500190565b600082821015610a0557610a05610a45565b500390565b600181811c90821680610a1e57607f821691505b60208210811415610a3f57634e487b7160e01b600052602260045260246000fd5b50919050565b634e487b7160e01b600052601160045260246000fd5b634e487b7160e01b600052604160045260246000fdfea2646970667358221220d6b62689cfbb74eccc889587b38a02ef7131d5e2cb4af4869a4f0cac9664bd6264736f6c63430008070033a2646970667358221220db93a67a07c7f6fa12c40fa1d06bbefa4d934b41941a3f7b267a2b2c21a7145e64736f6c63430008070033a26469706673582212206c9ac5b143773571658799d4de457e13da9ff5c2b92f18f993a306d464c3ba2964736f6c63430008070033a26469706673582212209a87b6b75255ca4ac3af405ba6803d3133871d7fa22365eb305a8269b8c7a31864736f6c63430008070033",
  "linkReferences": {},
  "deployedLinkReferences": {}
}