{
  "_format": "hh-sol-artifact-1",
  "contractName": "Market",
  "sourceName": "contracts/market/Market.sol",
  "abi": [
    {
      "inputs": [
        {
          "internalType": "string",
          "name": "marketName",
          "type": "string"
        },
        {
          "internalType": "enum MarketLib.MarketType",
          "name": "marketType",
          "type": "uint8"
        }
      ],
      "stateMutability": "nonpayable",
      "type": "constructor"
    },
    {
      "anonymous": false,
      "inputs": [
        {
          "indexed": true,
          "internalType": "address",
          "name": "participant",
          "type": "address"
        }
      ],
      "name": "NewMarketParticipant",
      "type": "event"
    },
    {
      "anonymous": false,
      "inputs": [
        {
          "indexed": true,
          "internalType": "address",
          "name": "owner",
          "type": "address"
        },
        {
          "indexed": true,
          "internalType": "address",
          "name": "relationship",
          "type": "address"
        },
        {
          "indexed": true,
          "internalType": "address",
          "name": "marketAddress",
          "type": "address"
        }
      ],
      "name": "WorkRelationshipCreated",
      "type": "event"
    },
    {
      "anonymous": false,
      "inputs": [
        {
          "indexed": true,
          "internalType": "address",
          "name": "owner",
          "type": "address"
        },
        {
          "indexed": true,
          "internalType": "address",
          "name": "relationship",
          "type": "address"
        }
      ],
      "name": "WorkRelationshipEnded",
      "type": "event"
    },
    {
      "inputs": [],
      "name": "_marketName",
      "outputs": [
        {
          "internalType": "string",
          "name": "",
          "type": "string"
        }
      ],
      "stateMutability": "view",
      "type": "function"
    },
    {
      "inputs": [],
      "name": "_marketType",
      "outputs": [
        {
          "internalType": "enum MarketLib.MarketType",
          "name": "",
          "type": "uint8"
        }
      ],
      "stateMutability": "view",
      "type": "function"
    },
    {
      "inputs": [
        {
          "internalType": "address",
          "name": "taskOwner",
          "type": "address"
        },
        {
          "internalType": "enum Evaluation.ContractType",
          "name": "_contractType",
          "type": "uint8"
        },
        {
          "internalType": "string",
          "name": "taskMetadataPointer",
          "type": "string"
        },
        {
          "internalType": "address",
          "name": "_daiTokenAddress",
          "type": "address"
        }
      ],
      "name": "createJob",
      "outputs": [],
      "stateMutability": "nonpayable",
      "type": "function"
    },
    {
      "inputs": [],
      "name": "getNumJobs",
      "outputs": [
        {
          "internalType": "uint256",
          "name": "",
          "type": "uint256"
        }
      ],
      "stateMutability": "view",
      "type": "function"
    },
    {
      "inputs": [],
      "name": "getWorkRelationships",
      "outputs": [
        {
          "internalType": "contract WorkRelationship[]",
          "name": "",
          "type": "address[]"
        }
      ],
      "stateMutability": "view",
      "type": "function"
    },
    {
      "inputs": [
        {
          "internalType": "address",
          "name": "",
          "type": "address"
        }
      ],
      "name": "relationshipsToOwner",
      "outputs": [
        {
          "internalType": "address",
          "name": "",
          "type": "address"
        }
      ],
      "stateMutability": "view",
      "type": "function"
    }
  ],
  "bytecode": "0x60806040523480156200001157600080fd5b5060405162002d3f38038062002d3f833981016040819052620000349162000132565b81516200004990600090602085019062000077565b506001805482919060ff19168183818111156200006a576200006a62000260565b021790555050506200028c565b828054620000859062000223565b90600052602060002090601f016020900481019282620000a95760008555620000f4565b82601f10620000c457805160ff1916838001178555620000f4565b82800160010185558215620000f4579182015b82811115620000f4578251825591602001919060010190620000d7565b506200010292915062000106565b5090565b5b8082111562000102576000815560010162000107565b8051600281106200012d57600080fd5b919050565b600080604083850312156200014657600080fd5b82516001600160401b03808211156200015e57600080fd5b818501915085601f8301126200017357600080fd5b81518181111562000188576200018862000276565b604051601f8201601f19908116603f01168101908382118183101715620001b357620001b362000276565b81604052828152602093508884848701011115620001d057600080fd5b600091505b82821015620001f45784820184015181830185015290830190620001d5565b82821115620002065760008484830101525b9550620002189150508582016200011d565b925050509250929050565b600181811c908216806200023857607f821691505b602082108114156200025a57634e487b7160e01b600052602260045260246000fd5b50919050565b634e487b7160e01b600052602160045260246000fd5b634e487b7160e01b600052604160045260246000fd5b612aa3806200029c6000396000f3fe60806040523480156200001157600080fd5b50600436106200006a5760003560e01c8063313dc231146200006f57806336e114fc14620000885780633f17c28214620000aa5780636039c8d714620000ef5780637cf63de914620001085780637e0c00ed1462000125575b600080fd5b6200008662000080366004620003e2565b62000137565b005b6200009262000298565b604051620000a1919062000575565b60405180910390f35b620000d6620000bb366004620003bd565b6003602052600090815260409020546001600160a01b031681565b6040516001600160a01b039091168152602001620000a1565b620000f9620002fc565b604051620000a19190620005d9565b600154620001169060ff1681565b604051620000a19190620005c4565b600254604051908152602001620000a1565b836001600160a01b038116620001895760405162461bcd60e51b815260206004820152601360248201527224b73b30b634b2103a30b9b59037bbb732b91760691b604482015260640160405180910390fd5b6000858585856040516200019d9062000392565b620001ac94939291906200052a565b604051809103906000f080158015620001c9573d6000803e3d6000fd5b5060028054600181019091557f405787fa12a823e0f2b7631cc41b3ba8828b3321ca811111fa75cd3aa3bb5ace0180546001600160a01b038084166001600160a01b031992831681179093558516600081815260036020526040808220805490941685179093559151939450309390917f43af47c504a2f23934b1a816cd86633559721bf26c3656844bdde3edd4719e1391a46040516001600160a01b038316907f592386ee859668d7987992afe7d12e270413029cc4eb8a9ca6fef89859b075f290600090a2505050505050565b60606002805480602002602001604051908101604052809291908181526020018280548015620002f257602002820191906000526020600020905b81546001600160a01b03168152600190910190602001808311620002d3575b5050505050905090565b600080546200030b90620005ee565b80601f01602080910402602001604051908101604052809291908181526020018280546200033990620005ee565b80156200038a5780601f106200035e576101008083540402835291602001916200038a565b820191906000526020600020905b8154815290600101906020018083116200036c57829003601f168201915b505050505081565b61240a806200066483390190565b80356001600160a01b0381168114620003b857600080fd5b919050565b600060208284031215620003d057600080fd5b620003db82620003a0565b9392505050565b60008060008060808587031215620003f957600080fd5b6200040485620003a0565b93506020850135600281106200041957600080fd5b9250604085013567ffffffffffffffff808211156200043757600080fd5b818701915087601f8301126200044c57600080fd5b8135818111156200046157620004616200062b565b604051601f8201601f19908116603f011681019083821181831017156200048c576200048c6200062b565b816040528281528a6020848701011115620004a657600080fd5b826020860160208301376000602084830101528096505050505050620004cf60608601620003a0565b905092959194509250565b6000815180845260005b818110156200050257602081850181015186830182015201620004e4565b8181111562000515576000602083870101525b50601f01601f19169290920160200192915050565b6001600160a01b038581168252600090620005458662000641565b85602084015260806040840152620005616080840186620004da565b915080841660608401525095945050505050565b6020808252825182820181905260009190848201906040850190845b81811015620005b85783516001600160a01b03168352928401929184019160010162000591565b50909695505050505050565b60208101620005d38362000641565b91905290565b602081526000620003db6020830184620004da565b600181811c908216806200060357607f821691505b602082108114156200062557634e487b7160e01b600052602260045260246000fd5b50919050565b634e487b7160e01b600052604160045260246000fd5b600281106200066057634e487b7160e01b600052602160045260246000fd5b5056fe60a06040523480156200001157600080fd5b506040516200240a3803806200240a8339810160408190526200003491620002ee565b6001600160a01b038116620000b55760405162461bcd60e51b815260206004820152603360248201527f44616920746f6b656e20616464726573732063616e6e6f74206265203020776860448201527f656e206372656174696e6720657363726f772e00000000000000000000000000606482015260840160405180910390fd5b600380546001600160a01b0319166001600160a01b03831617905560408051808201825260118152700576f726b2052656c6174696f6e7368697607c1b6020918201528151808301835260018152603160f81b9082015281517f8b73c3c69bb8fe3d512ecc4cf759cc79239f7b179b0ffacaa9a75d522b39400f918101919091527f23ae04968b80dec446ff6e10f2b3f92cabd9ce3ef49e1efba87e053dc4702f88918101919091527fc89efdaa54c0f20c7adf612882df0950f5a951637e0307cdcb4c672f298b8bc6606082015260ff4690811660808301523060a08301529060c00160408051808303601f190181529190528051602090910120608052600180546001600160a01b0319166001600160a01b03871617815560078054869263ff00000019909116906301000000908490811115620001f957620001f962000447565b02179055506007805462ffffff1916905582516200021f9060059060208601906200022b565b50505050505062000473565b82805462000239906200040a565b90600052602060002090601f0160209004810192826200025d5760008555620002a8565b82601f106200027857805160ff1916838001178555620002a8565b82800160010185558215620002a8579182015b82811115620002a85782518255916020019190600101906200028b565b50620002b6929150620002ba565b5090565b5b80821115620002b65760008155600101620002bb565b80516001600160a01b0381168114620002e957600080fd5b919050565b600080600080608085870312156200030557600080fd5b6200031085620002d1565b9350602080860151600281106200032657600080fd5b60408701519094506001600160401b03808211156200034457600080fd5b818801915088601f8301126200035957600080fd5b8151818111156200036e576200036e6200045d565b604051601f8201601f19908116603f011681019083821181831017156200039957620003996200045d565b816040528281528b86848701011115620003b257600080fd5b600093505b82841015620003d65784840186015181850187015292850192620003b7565b82841115620003e85760008684830101525b809750505050505050620003ff60608601620002d1565b905092959194509250565b600181811c908216806200041f57607f821691505b602082108114156200044157634e487b7160e01b600052602260045260246000fd5b50919050565b634e487b7160e01b600052602160045260246000fd5b634e487b7160e01b600052604160045260246000fd5b608051611f6d6200049d600039600081816103680152818161075d01526109b50152611f6d6000f3fe608060405234801561001057600080fd5b506004361061018e5760003560e01c80637f755043116100de578063bfce14ea11610097578063ec3a479011610071578063ec3a4790146103c5578063ed8454fb146103d8578063f240f7c3146103eb578063f2a09497146103fe57600080fd5b8063bfce14ea14610363578063c6ee20d21461038a578063cb2ef6f7146103a457600080fd5b80637f755043146102e257806385209ee0146102f55780638da5cb5b146103075780639240a1001461031a57806396118e4414610334578063bf9321fc1461035b57600080fd5b80634d547ada1161014b57806353318a871161012557806353318a871461029b5780635db28c66146102ae57806363c852c9146102b65780637df38c5b146102d957600080fd5b80634d547ada146102365780634e12aa961461026157806350365be91461028857600080fd5b80630b73a87f14610193578063188bbbf3146101a85780631ed4b49e146101d157806331613fdb146101e657806339987e52146101ee5780633c86f6f314610201575b600080fd5b6101a66101a13660046117bf565b610406565b005b6007546101bb9062010000900460ff1681565b6040516101c89190611b80565b60405180910390f35b6101d96104ef565b6040516101c89190611bbb565b6101a661057d565b6101a66101fc366004611a99565b6106a4565b6102287ffa5e0016fb62b8dffda8fd95249d438edcffd3689b40ac3b4281d4cf710609ae81565b6040519081526020016101c8565b600054610249906001600160a01b031681565b6040516001600160a01b0390911681526020016101c8565b6102287fc35792dec8ea736e1a3478771b1f14a7472fd98ca01a9c9077ac63917f87f64981565b6101a6610296366004611961565b6107d5565b6101a66102a93660046119a7565b6108fe565b610228610a2c565b6102c96102c43660046118a9565b610a8a565b60405190151581526020016101c8565b61022860025481565b6101a66102f03660046117e3565b610b33565b6007546101bb90610100900460ff1681565b600154610249906001600160a01b031681565b610322600681565b60405160ff90911681526020016101c8565b6102287f62b607caa4d4e7fcbd31bf4c033cd30888b536567fadc83710fdf15f8d5cfc9e81565b610249610deb565b6102287f000000000000000000000000000000000000000000000000000000000000000081565b6007546103979060ff1681565b6040516101c89190611b93565b6007546103b8906301000000900460ff1681565b6040516101c89190611ba7565b6101a66103d33660046119cf565b610e56565b6101a66103e6366004611874565b610ed0565b600454610249906001600160a01b031681565b610322600481565b600754339060ff16600581111561041f5761041f611ec6565b600514801561043b57506004546001600160a01b038281169116145b6104605760405162461bcd60e51b815260040161045790611dd0565b60405180910390fd5b60035460025460405163a9059cbb60e01b81526001600160a01b038581166004830152602482019290925291169063a9059cbb906044015b602060405180830381600087803b1580156104b257600080fd5b505af11580156104c6573d6000803e3d6000fd5b505050506040513d601f19601f820116820180604052508101906104ea9190611944565b505050565b600580546104fc90611e75565b80601f016020809104026020016040519081016040528092919081815260200182805461052890611e75565b80156105755780601f1061054a57610100808354040283529160200191610575565b820191906000526020600020905b81548152906001019060200180831161055857829003601f168201915b505050505081565b600754339060ff16600581111561059657610596611ec6565b60051480156105b257506004546001600160a01b038281169116145b6105ce5760405162461bcd60e51b815260040161045790611dd0565b6000600280546105de9190611e53565b60035460015460405163a9059cbb60e01b81526001600160a01b03918216600482015260248101849052929350169063a9059cbb90604401602060405180830381600087803b15801561063057600080fd5b505af1158015610644573d6000803e3d6000fd5b505050506040513d601f19601f820116820180604052508101906106689190611944565b5060035460005460405163a9059cbb60e01b81526001600160a01b0391821660048201526024810184905291169063a9059cbb90604401610498565b6001546001600160a01b031633146106ce5760405162461bcd60e51b815260040161045790611c10565b60038060075460ff1660058111156106e8576106e8611ec6565b146107055760405162461bcd60e51b815260040161045790611c93565b604080517ffa5e0016fb62b8dffda8fd95249d438edcffd3689b40ac3b4281d4cf710609ae602080830191909152871580158385015283518084038501815260608401855280519083012061190160f01b60808501527f0000000000000000000000000000000000000000000000000000000000000000608285015260a2808501919091528451808503909101815260c29093019093528151910120906107b5576107b08789610f1a565b6107cb565b600780546002919060ff19166001835b02179055505b5050505050505050565b6000546001600160a01b031633146107ff5760405162461bcd60e51b815260040161045790611c63565b600180600754610100900460ff16600281111561081e5761081e611ec6565b1461083b5760405162461bcd60e51b815260040161045790611d67565b60018060075460ff16600581111561085557610855611ec6565b146108725760405162461bcd60e51b815260040161045790611c93565b60018060075462010000900460ff16600281111561089257610892611ec6565b146108af5760405162461bcd60e51b815260040161045790611cfd565b600187151514156108d0576007805462ff00ff1916620200021790556108f5565b600080546001600160a01b03191690556108e8610f76565b6007805462ff00ff191690555b50505050505050565b6000546001600160a01b031633146109285760405162461bcd60e51b815260040161045790611c63565b60028060075460ff16600581111561094257610942611ec6565b1461095f5760405162461bcd60e51b815260040161045790611c93565b604080517f62b607caa4d4e7fcbd31bf4c033cd30888b536567fadc83710fdf15f8d5cfc9e60208083019190915281830188905282518083038401815260608301845280519082012061190160f01b60808401527f0000000000000000000000000000000000000000000000000000000000000000608284015260a2808401919091528351808403909101815260c290920190925280519101206000546001600160a01b0316610a0e57600080fd5b610a1786600655565b50506007805460ff1916600317905550505050565b6001546000906001600160a01b03163314610a595760405162461bcd60e51b815260040161045790611c10565b6000546001600160a01b03163314610a835760405162461bcd60e51b815260040161045790611c63565b5060065490565b6040805160016232dea960e11b0319815283516001600160a01b03908116600483015260208501516024830152918401516044820152828216606482015260009182919086169063ff9a42ae9060840160206040518083038186803b158015610af257600080fd5b505afa158015610b06573d6000803e3d6000fd5b505050506040513d601f19601f82011682018060405250810190610b2a9190611944565b95945050505050565b6001546001600160a01b03163314610b5d5760405162461bcd60e51b815260040161045790611c10565b600080600754610100900460ff166002811115610b7c57610b7c611ec6565b14610b995760405162461bcd60e51b815260040161045790611d67565b60008060075460ff166005811115610bb357610bb3611ec6565b14610bd05760405162461bcd60e51b815260040161045790611c93565b6001600160a01b038c16610c4c5760405162461bcd60e51b815260206004820152603760248201527f576f726b65722061646472657373206d757374206e6f7420626520302077686560448201527f6e2061737369676e696e67206e657720776f726b65722e0000000000000000006064820152608401610457565b8a610c995760405162461bcd60e51b815260206004820181905260248201527f44616920616d6f756e742063616e6e6f7420626520657175616c20746f20302e6044820152606401610457565b6003546001546040516370a0823160e01b81526001600160a01b03918216600482015260009291909116906370a082319060240160206040518083038186803b158015610ce557600080fd5b505afa158015610cf9573d6000803e3d6000fd5b505050506040513d601f19601f82011682018060405250810190610d1d9190611a80565b90508b811015610d2c57600080fd5b610d3c8b8b8b8b8b8b8b8b6110b8565b60028c9055600080546001600160a01b038f166001600160a01b031991821617909155600480549091169055600780546001919062ff0000191662010000830217905550600780546001919060ff1916828002179055506000546001600160a01b038e8116911614610db057610db0611eb0565b600160075462010000900460ff166002811115610dcf57610dcf611ec6565b14610ddc57610ddc611eb0565b50505050505050505050505050565b6003546000906001600160a01b0316610e465760405162461bcd60e51b815260206004820152601a60248201527f52657761726420616464726573732063616e6e6f7420626520300000000000006044820152606401610457565b506003546001600160a01b031690565b6001546001600160a01b03163314610e805760405162461bcd60e51b815260040161045790611c10565b60008060075462010000900460ff166002811115610ea057610ea0611ec6565b14610ebd5760405162461bcd60e51b815260040161045790611cfd565b81516104ea906005906020850190611726565b60028060075460ff166005811115610eea57610eea611ec6565b14610f075760405162461bcd60e51b815260040161045790611c93565b50506007805460ff191660051790555050565b6001546001600160a01b03163314610f445760405162461bcd60e51b815260040161045790611c10565b6000546001600160a01b0316610f5957600080fd5b610f638282611235565b50506007805461ffff1916610204179055565b6000546001600160a01b03163314610fa05760405162461bcd60e51b815260040161045790611c63565b60018060075462010000900460ff166002811115610fc057610fc0611ec6565b14610fdd5760405162461bcd60e51b815260040161045790611cfd565b60018060075460ff166005811115610ff757610ff7611ec6565b146110145760405162461bcd60e51b815260040161045790611c93565b6002546110795760405162461bcd60e51b815260206004820152602d60248201527f5468657265206973206e6f2044414920746f207472616e73666572206261636b60448201526c103a37903a34329037bbb732b960991b6064820152608401610457565b60035460015460025460405163a9059cbb60e01b81526001600160a01b039283166004820152602481019190915291169063a9059cbb90604401610498565b600354600180546040516323f2ebc360e21b81526001600160a01b0393841693638fcbaf0c936110fb939091169130918e918e91908e908e908e90600401611b1b565b600060405180830381600087803b15801561111557600080fd5b505af1158015611129573d6000803e3d6000fd5b505060035460015460025460405163f2d5d56b60e01b81526001600160a01b03928316600482015260248101919091529116925063f2d5d56b9150604401600060405180830381600087803b15801561118157600080fd5b505af1158015611195573d6000803e3d6000fd5b5050600354600180546001600160a01b039283169450638fcbaf0c93509091169030906111c3908d90611e2d565b8b60008989896040518963ffffffff1660e01b81526004016111ec989796959493929190611b1b565b600060405180830381600087803b15801561120657600080fd5b505af115801561121a573d6000803e3d6000fd5b5050600780546001935090915061ff001916610100836107c5565b60035460005460025460405163a9059cbb60e01b81526001600160a01b039283166004820152602481019190915291169063a9059cbb90604401602060405180830381600087803b15801561128957600080fd5b505af115801561129d573d6000803e3d6000fd5b505050506040513d601f19601f820116820180604052508101906112c19190611944565b50600154600080546001600160a01b03928316921690600660ff86161115611349576040516376267fd760e11b81526001600160a01b0383169063ec4cffae90611312903090600190600401611b64565b600060405180830381600087803b15801561132c57600080fd5b505af1158015611340573d6000803e3d6000fd5b505050506116c6565b600660ff86161115806113605750600460ff861610155b1561136a576116c6565b600460ff86161180159061138b5750611384846001611e2d565b8160ff1610155b15611649576000826001600160a01b031663c897d6956040518163ffffffff1660e01b8152600401602060405180830381600087803b1580156113cd57600080fd5b505af11580156113e1573d6000803e3d6000fd5b505050506040513d601f19601f820116820180604052508101906114059190611afe565b905060018160ff161161147857604051630668e3b760e41b81526001600160a01b0384169063668e3b7090611441903090600190600401611b64565b600060405180830381600087803b15801561145b57600080fd5b505af115801561146f573d6000803e3d6000fd5b50505050611643565b8060ff16600214156114ed57604051630668e3b760e41b81526000906001600160a01b0385169063668e3b70906114b59030908590600401611b64565b600060405180830381600087803b1580156114cf57600080fd5b505af11580156114e3573d6000803e3d6000fd5b5050505050611643565b8060ff166003141561158757604051630668e3b760e41b81526001600160a01b0384169063668e3b7090611528903090600090600401611b64565b600060405180830381600087803b15801561154257600080fd5b505af1158015611556573d6000803e3d6000fd5b50506040516332053e6960e01b8152600060048201526001600160a01b03861692506332053e699150602401611441565b6040516332053e6960e01b8152600160048201526001600160a01b038416906332053e6990602401600060405180830381600087803b1580156115c957600080fd5b505af11580156115dd573d6000803e3d6000fd5b5050604051630668e3b760e41b81526001600160a01b038616925063668e3b709150611610903090600190600401611b64565b600060405180830381600087803b15801561162a57600080fd5b505af115801561163e573d6000803e3d6000fd5b505050505b506116c6565b600460ff86161180159061165f5750838160ff16105b156116c657604051630668e3b760e41b81526001600160a01b0383169063668e3b7090611693903090600190600401611b64565b600060405180830381600087803b1580156116ad57600080fd5b505af11580156116c1573d6000803e3d6000fd5b505050505b604051633336dad960e21b81523060048201526001600160a01b0384169063ccdb6b6490602401600060405180830381600087803b15801561170757600080fd5b505af115801561171b573d6000803e3d6000fd5b505050505050505050565b82805461173290611e75565b90600052602060002090601f016020900481019282611754576000855561179a565b82601f1061176d57805160ff191683800117855561179a565b8280016001018555821561179a579182015b8281111561179a57825182559160200191906001019061177f565b506117a69291506117aa565b5090565b5b808211156117a657600081556001016117ab565b6000602082840312156117d157600080fd5b81356117dc81611f05565b9392505050565b6000806000806000806000806000806101408b8d03121561180357600080fd5b8a3561180e81611f05565b995060208b0135985060408b0135975060608b0135965060808b013561183381611f28565b955060a08b0135945060c08b0135935060e08b013561185181611f28565b809350506101008b013591506101208b013590509295989b9194979a5092959850565b60008060006060848603121561188957600080fd5b833561189481611f05565b95602085013595506040909401359392505050565b600080600083850360a08112156118bf57600080fd5b84356118ca81611f05565b93506060601f19820112156118de57600080fd5b506040516060810181811067ffffffffffffffff8211171561190257611902611edc565b604052602085013561191381611f05565b815260408581013560208301526060860135908201529150608084013561193981611f05565b809150509250925092565b60006020828403121561195657600080fd5b81516117dc81611f1a565b6000806000806080858703121561197757600080fd5b843561198281611f1a565b9350602085013561199281611f28565b93969395505050506040820135916060013590565b600080600080608085870312156119bd57600080fd5b84359350602085013561199281611f28565b6000602082840312156119e157600080fd5b813567ffffffffffffffff808211156119f957600080fd5b818401915084601f830112611a0d57600080fd5b813581811115611a1f57611a1f611edc565b604051601f8201601f19908116603f01168101908382118183101715611a4757611a47611edc565b81604052828152876020848701011115611a6057600080fd5b826020860160208301376000928101602001929092525095945050505050565b600060208284031215611a9257600080fd5b5051919050565b60008060008060008060c08789031215611ab257600080fd5b863595506020870135611ac481611f28565b94506040870135611ad481611f1a565b93506060870135611ae481611f28565b9598949750929560808101359460a0909101359350915050565b600060208284031215611b1057600080fd5b81516117dc81611f28565b6001600160a01b039889168152969097166020870152604086019490945260608501929092521515608084015260ff1660a083015260c082015260e08101919091526101000190565b6001600160a01b0392909216825260ff16602082015260400190565b60208101611b8d83611ef2565b91905290565b6020810160068310611b8d57611b8d611ec6565b6020810160028310611b8d57611b8d611ec6565b600060208083528351808285015260005b81811015611be857858101830151858201604001528201611bcc565b81811115611bfa576000604083870101525b50601f01601f1916929092016040019392505050565b60208082526033908201527f576f726b52656c6174696f6e736869703a206f6e6c794f776e65722063616e2060408201527231b0b636103a3434b990333ab731ba34b7b71760691b606082015260800190565b602080825260169082015275576f726b52656c6174696f6e736869703a206f6e6c7960501b604082015260600190565b60208082526044908201527f5468697320616374696f6e2063616e6e6f742062652063617272696564206f7560408201527f7420756e646572207468652063757272656e7420636f6e7472616374207374616060820152633a3ab99760e11b608082015260a00190565b60208082526044908201527f43616e6e6f7420696e766f6b65207468697320657363726f772066756e63746960408201527f6f6e2077697468207468652063757272656e7420636f6e7472616374207374616060820152633a3ab99760e11b608082015260a00190565b60208082526043908201527f43616e6e6f7420696e766f6b65207468697320657363726f772066756e63746960408201527f6f6e2077697468207468652063757272656e7420636f6e7472616374207374616060820152623a329760e91b608082015260a00190565b60208082526037908201527f54686520636f6e74726163742063616e6e6f74206265207265736f6c7665642060408201527f756e64657220746865736520636f6e646974696f6e732e000000000000000000606082015260800190565b60008219821115611e4e57634e487b7160e01b600052601160045260246000fd5b500190565b600082611e7057634e487b7160e01b600052601260045260246000fd5b500490565b600181811c90821680611e8957607f821691505b60208210811415611eaa57634e487b7160e01b600052602260045260246000fd5b50919050565b634e487b7160e01b600052600160045260246000fd5b634e487b7160e01b600052602160045260246000fd5b634e487b7160e01b600052604160045260246000fd5b60038110611f0257611f02611ec6565b50565b6001600160a01b0381168114611f0257600080fd5b8015158114611f0257600080fd5b60ff81168114611f0257600080fdfea2646970667358221220c499fb592b6d90235206e5c3afcc03205257e054d0aca410f8c0c8e58574eebc64736f6c63430008070033a264697066735822122097c3db0eb404d6429bb0635b1798d60dd6b275d19b348b6b0b404fd9348a297364736f6c63430008070033",
  "linkReferences": {},
  "deployedLinkReferences": {}
}