{
  "_format": "hh-sol-artifact-1",
  "contractName": "Market",
  "sourceName": "contracts/market/Market.sol",
  "abi": [
    {
      "inputs": [
        {
          "internalType": "string",
          "name": "marketName",
          "type": "string"
        },
        {
          "internalType": "enum MarketLib.MarketType",
          "name": "marketType",
          "type": "uint8"
        }
      ],
      "stateMutability": "nonpayable",
      "type": "constructor"
    },
    {
      "anonymous": false,
      "inputs": [
        {
          "indexed": true,
          "internalType": "address",
          "name": "marketAddress",
          "type": "address"
        },
        {
          "indexed": true,
          "internalType": "string",
          "name": "marketName",
          "type": "string"
        }
      ],
      "name": "MarketPaused",
      "type": "event"
    },
    {
      "anonymous": false,
      "inputs": [
        {
          "indexed": true,
          "internalType": "address",
          "name": "marketAddress",
          "type": "address"
        },
        {
          "indexed": true,
          "internalType": "string",
          "name": "marketName",
          "type": "string"
        }
      ],
      "name": "MarketResumed",
      "type": "event"
    },
    {
      "anonymous": false,
      "inputs": [
        {
          "indexed": true,
          "internalType": "address",
          "name": "owner",
          "type": "address"
        },
        {
          "indexed": true,
          "internalType": "address",
          "name": "relationship",
          "type": "address"
        },
        {
          "indexed": true,
          "internalType": "address",
          "name": "marketAddress",
          "type": "address"
        }
      ],
      "name": "WorkRelationshipCreated",
      "type": "event"
    },
    {
      "anonymous": false,
      "inputs": [
        {
          "indexed": true,
          "internalType": "address",
          "name": "owner",
          "type": "address"
        },
        {
          "indexed": true,
          "internalType": "address",
          "name": "relationship",
          "type": "address"
        }
      ],
      "name": "WorkRelationshipEnded",
      "type": "event"
    },
    {
      "inputs": [],
      "name": "_marketName",
      "outputs": [
        {
          "internalType": "string",
          "name": "",
          "type": "string"
        }
      ],
      "stateMutability": "view",
      "type": "function"
    },
    {
      "inputs": [],
      "name": "_marketStatus",
      "outputs": [
        {
          "internalType": "enum MarketLib.MarketStatus",
          "name": "",
          "type": "uint8"
        }
      ],
      "stateMutability": "view",
      "type": "function"
    },
    {
      "inputs": [],
      "name": "_marketType",
      "outputs": [
        {
          "internalType": "enum MarketLib.MarketType",
          "name": "",
          "type": "uint8"
        }
      ],
      "stateMutability": "view",
      "type": "function"
    },
    {
      "inputs": [],
      "name": "_requiredIndustryWeight",
      "outputs": [
        {
          "internalType": "uint256",
          "name": "",
          "type": "uint256"
        }
      ],
      "stateMutability": "view",
      "type": "function"
    },
    {
      "inputs": [],
      "name": "_requiredReputation",
      "outputs": [
        {
          "internalType": "uint256",
          "name": "",
          "type": "uint256"
        }
      ],
      "stateMutability": "view",
      "type": "function"
    },
    {
      "inputs": [
        {
          "internalType": "address",
          "name": "taskOwner",
          "type": "address"
        },
        {
          "internalType": "enum Evaluation.ContractType",
          "name": "_contractType",
          "type": "uint8"
        },
        {
          "internalType": "string",
          "name": "taskMetadataPointer",
          "type": "string"
        },
        {
          "internalType": "address",
          "name": "_daiTokenAddress",
          "type": "address"
        }
      ],
      "name": "createJob",
      "outputs": [],
      "stateMutability": "nonpayable",
      "type": "function"
    },
    {
      "inputs": [],
      "name": "getNumJobs",
      "outputs": [
        {
          "internalType": "uint256",
          "name": "",
          "type": "uint256"
        }
      ],
      "stateMutability": "view",
      "type": "function"
    },
    {
      "inputs": [],
      "name": "getWorkRelationships",
      "outputs": [
        {
          "internalType": "contract WorkRelationship[]",
          "name": "",
          "type": "address[]"
        }
      ],
      "stateMutability": "view",
      "type": "function"
    },
    {
      "inputs": [
        {
          "internalType": "address",
          "name": "",
          "type": "address"
        }
      ],
      "name": "relationshipsToOwner",
      "outputs": [
        {
          "internalType": "address",
          "name": "",
          "type": "address"
        }
      ],
      "stateMutability": "view",
      "type": "function"
    }
  ],
  "bytecode": "0x60806040523480156200001157600080fd5b506040516200451538038062004515833981016040819052620000349162000132565b81516200004990600090602085019062000077565b506001805482919060ff19168183818111156200006a576200006a62000260565b021790555050506200028c565b828054620000859062000223565b90600052602060002090601f016020900481019282620000a95760008555620000f4565b82601f10620000c457805160ff1916838001178555620000f4565b82800160010185558215620000f4579182015b82811115620000f4578251825591602001919060010190620000d7565b506200010292915062000106565b5090565b5b8082111562000102576000815560010162000107565b8051600281106200012d57600080fd5b919050565b600080604083850312156200014657600080fd5b82516001600160401b03808211156200015e57600080fd5b818501915085601f8301126200017357600080fd5b81518181111562000188576200018862000276565b604051601f8201601f19908116603f01168101908382118183101715620001b357620001b362000276565b81604052828152602093508884848701011115620001d057600080fd5b600091505b82821015620001f45784820184015181830185015290830190620001d5565b82821115620002065760008484830101525b9550620002189150508582016200011d565b925050509250929050565b600181811c908216806200023857607f821691505b602082108114156200025a57634e487b7160e01b600052602260045260246000fd5b50919050565b634e487b7160e01b600052602160045260246000fd5b634e487b7160e01b600052604160045260246000fd5b614279806200029c6000396000f3fe60806040523480156200001157600080fd5b50600436106200009f5760003560e01c80636039c8d7116200006e5780636039c8d714620001385780637cf63de914620001515780637e0c00ed146200016e578063838069f71462000177578063c143521f146200018557600080fd5b80630f09163714620000a4578063313dc23114620000c157806336e114fc14620000da5780633f17c28214620000f3575b600080fd5b620000ae60025481565b6040519081526020015b60405180910390f35b620000d8620000d2366004620003f3565b6200018f565b005b620000e4620002a9565b604051620000b8919062000586565b6200011f62000104366004620003ce565b6006602052600090815260409020546001600160a01b031681565b6040516001600160a01b039091168152602001620000b8565b620001426200030d565b604051620000b89190620005ea565b6001546200015f9060ff1681565b604051620000b89190620005d5565b600554620000ae565b6004546200015f9060ff1681565b620000ae60035481565b836001600160a01b038116620001e15760405162461bcd60e51b815260206004820152601360248201527224b73b30b634b2103a30b9b59037bbb732b91760691b604482015260640160405180910390fd5b600085858585604051620001f590620003a3565b6200020494939291906200053b565b604051809103906000f08015801562000221573d6000803e3d6000fd5b506005805460018101825560009182527f036b6384b5eca791c62761152d0c79bb0604c104a5fb6f4eb0703f3154bb3db00180546001600160a01b0319166001600160a01b0384811691821790925560405193945030939092918616917f43af47c504a2f23934b1a816cd86633559721bf26c3656844bdde3edd4719e1391a4505050505050565b606060058054806020026020016040519081016040528092919081815260200182805480156200030357602002820191906000526020600020905b81546001600160a01b03168152600190910190602001808311620002e4575b5050505050905090565b600080546200031c90620005ff565b80601f01602080910402602001604051908101604052809291908181526020018280546200034a90620005ff565b80156200039b5780601f106200036f576101008083540402835291602001916200039b565b820191906000526020600020905b8154815290600101906020018083116200037d57829003601f168201915b505050505081565b613bcf806200067583390190565b80356001600160a01b0381168114620003c957600080fd5b919050565b600060208284031215620003e157600080fd5b620003ec82620003b1565b9392505050565b600080600080608085870312156200040a57600080fd5b6200041585620003b1565b93506020850135600281106200042a57600080fd5b9250604085013567ffffffffffffffff808211156200044857600080fd5b818701915087601f8301126200045d57600080fd5b8135818111156200047257620004726200063c565b604051601f8201601f19908116603f011681019083821181831017156200049d576200049d6200063c565b816040528281528a6020848701011115620004b757600080fd5b826020860160208301376000602084830101528096505050505050620004e060608601620003b1565b905092959194509250565b6000815180845260005b818110156200051357602081850181015186830182015201620004f5565b8181111562000526576000602083870101525b50601f01601f19169290920160200192915050565b6001600160a01b038581168252600090620005568662000652565b85602084015260806040840152620005726080840186620004eb565b915080841660608401525095945050505050565b6020808252825182820181905260009190848201906040850190845b81811015620005c95783516001600160a01b031683529284019291840191600101620005a2565b50909695505050505050565b60208101620005e48362000652565b91905290565b602081526000620003ec6020830184620004eb565b600181811c908216806200061457607f821691505b602082108114156200063657634e487b7160e01b600052602260045260246000fd5b50919050565b634e487b7160e01b600052604160045260246000fd5b600281106200067157634e487b7160e01b600052602160045260246000fd5b5056fe60a06040523480156200001157600080fd5b5060405162003bcf38038062003bcf8339810160408190526200003491620002ee565b6001600160a01b038116620000b55760405162461bcd60e51b815260206004820152603360248201527f44616920746f6b656e20616464726573732063616e6e6f74206265203020776860448201527f656e206372656174696e6720657363726f772e00000000000000000000000000606482015260840160405180910390fd5b600380546001600160a01b0319166001600160a01b03831617905560408051808201825260118152700576f726b2052656c6174696f6e7368697607c1b6020918201528151808301835260018152603160f81b9082015281517f8b73c3c69bb8fe3d512ecc4cf759cc79239f7b179b0ffacaa9a75d522b39400f918101919091527f23ae04968b80dec446ff6e10f2b3f92cabd9ce3ef49e1efba87e053dc4702f88918101919091527fc89efdaa54c0f20c7adf612882df0950f5a951637e0307cdcb4c672f298b8bc6606082015260ff4690811660808301523060a08301529060c00160408051808303601f190181529190528051602090910120608052600180546001600160a01b0319166001600160a01b03871617815560078054869263ff00000019909116906301000000908490811115620001f957620001f962000447565b02179055506007805462ffffff1916905582516200021f9060059060208601906200022b565b50505050505062000473565b82805462000239906200040a565b90600052602060002090601f0160209004810192826200025d5760008555620002a8565b82601f106200027857805160ff1916838001178555620002a8565b82800160010185558215620002a8579182015b82811115620002a85782518255916020019190600101906200028b565b50620002b6929150620002ba565b5090565b5b80821115620002b65760008155600101620002bb565b80516001600160a01b0381168114620002e957600080fd5b919050565b600080600080608085870312156200030557600080fd5b6200031085620002d1565b9350602080860151600281106200032657600080fd5b60408701519094506001600160401b03808211156200034457600080fd5b818801915088601f8301126200035957600080fd5b8151818111156200036e576200036e6200045d565b604051601f8201601f19908116603f011681019083821181831017156200039957620003996200045d565b816040528281528b86848701011115620003b257600080fd5b600093505b82841015620003d65784840186015181850187015292850192620003b7565b82841115620003e85760008684830101525b809750505050505050620003ff60608601620002d1565b905092959194509250565b600181811c908216806200041f57607f821691505b602082108114156200044157634e487b7160e01b600052602260045260246000fd5b50919050565b634e487b7160e01b600052602160045260246000fd5b634e487b7160e01b600052604160045260246000fd5b6080516137326200049d60003960008181610394015281816106de015261095c01526137326000f3fe60806040523480156200001157600080fd5b5060043610620001925760003560e01c80637f75504311620000f0578063bfce14ea11620000a3578063ec3a4790116200007a578063ec3a479014620003f7578063ed8454fb146200040e578063f240f7c31462000425578063f2a09497146200043957600080fd5b8063bfce14ea146200038e578063c6ee20d214620003b6578063cb2ef6f714620003d357600080fd5b80637f755043146200030257806385209ee014620003195780638da5cb5b146200032c5780639240a100146200034057806396118e44146200035c578063bf9321fc146200038457600080fd5b80634e12aa9611620001495780634e12aa96146200027057806350365be9146200029857806353318a8714620002af5780635db28c6614620002c657806363c852c914620002d05780637df38c5b14620002f857600080fd5b80630b73a87f1462000197578063188bbbf314620001b05780631ed4b49e14620001dc57806339987e5214620001f55780633c86f6f3146200020c5780634d547ada1462000243575b600080fd5b620001ae620001a83660046200189f565b62000442565b005b600754620001c49062010000900460ff1681565b604051620001d3919062001c98565b60405180910390f35b620001e662000586565b604051620001d3919062001cdb565b620001ae6200020636600462001ba7565b6200061c565b620002347ffa5e0016fb62b8dffda8fd95249d438edcffd3689b40ac3b4281d4cf710609ae81565b604051908152602001620001d3565b60005462000257906001600160a01b031681565b6040516001600160a01b039091168152602001620001d3565b620002347fc35792dec8ea736e1a3478771b1f14a7472fd98ca01a9c9077ac63917f87f64981565b620001ae620002a936600462001a5c565b6200075a565b620001ae620002c036600462001aa7565b6200089c565b62000234620009d5565b620002e7620002e136600462001996565b62000a39565b6040519015158152602001620001d3565b6200023460025481565b620001ae62000313366004620018c6565b62000ae6565b600754620001c490610100900460ff1681565b60015462000257906001600160a01b031681565b62000349600681565b60405160ff9091168152602001620001d3565b620002347f62b607caa4d4e7fcbd31bf4c033cd30888b536567fadc83710fdf15f8d5cfc9e81565b6200025762000dc1565b620002347f000000000000000000000000000000000000000000000000000000000000000081565b600754620003c49060ff1681565b604051620001d3919062001cad565b600754620003e8906301000000900460ff1681565b604051620001d3919062001cc4565b620001ae6200040836600462001ad2565b62000e2e565b620001ae6200041f3660046200195e565b62000eb3565b60045462000257906001600160a01b031681565b62000349600481565b600754339060ff1660058111156200045e576200045e62001f6d565b60051480156200047b57506004546001600160a01b038281169116145b620004f35760405162461bcd60e51b815260206004820152603760248201527f54686520636f6e74726163742063616e6e6f74206265207265736f6c7665642060448201527f756e64657220746865736520636f6e646974696f6e732e00000000000000000060648201526084015b60405180910390fd5b60035460025460405163a9059cbb60e01b81526001600160a01b038581166004830152602482019290925291169063a9059cbb906044015b602060405180830381600087803b1580156200054657600080fd5b505af11580156200055b573d6000803e3d6000fd5b505050506040513d601f19601f8201168201806040525081019062000581919062001a3c565b505050565b60058054620005959062001f1a565b80601f0160208091040260200160405190810160405280929190818152602001828054620005c39062001f1a565b8015620006145780601f10620005e85761010080835404028352916020019162000614565b820191906000526020600020905b815481529060010190602001808311620005f657829003601f168201915b505050505081565b6001546001600160a01b03163314620006495760405162461bcd60e51b8152600401620004ea9062001d33565b60038060075460ff16600581111562000666576200066662001f6d565b14620006865760405162461bcd60e51b8152600401620004ea9062001db6565b604080517ffa5e0016fb62b8dffda8fd95249d438edcffd3689b40ac3b4281d4cf710609ae602080830191909152871580158385015283518084038501815260608401855280519083012061190160f01b60808501527f0000000000000000000000000000000000000000000000000000000000000000608285015260a2808501919091528451808503909101815260c29093019093528151910120906200073a5762000734878962000f84565b62000750565b600780546002919060ff19166001835b02179055505b5050505050505050565b6000546001600160a01b03163314620007875760405162461bcd60e51b8152600401620004ea9062001d86565b600180600754610100900460ff166002811115620007a957620007a962001f6d565b14620007c95760405162461bcd60e51b8152600401620004ea9062001e8a565b60018060075460ff166005811115620007e657620007e662001f6d565b14620008065760405162461bcd60e51b8152600401620004ea9062001db6565b60018060075462010000900460ff16600281111562000829576200082962001f6d565b14620008495760405162461bcd60e51b8152600401620004ea9062001e20565b600187151514156200086c576007805462ff00ff19166202000217905562000893565b600080546001600160a01b03191690556200088662000fe6565b6007805462ff00ff191690555b50505050505050565b6000546001600160a01b03163314620008c95760405162461bcd60e51b8152600401620004ea9062001d86565b60028060075460ff166005811115620008e657620008e662001f6d565b14620009065760405162461bcd60e51b8152600401620004ea9062001db6565b604080517f62b607caa4d4e7fcbd31bf4c033cd30888b536567fadc83710fdf15f8d5cfc9e60208083019190915281830188905282518083038401815260608301845280519082012061190160f01b60808401527f0000000000000000000000000000000000000000000000000000000000000000608284015260a2808401919091528351808403909101815260c290920190925280519101206000546001600160a01b0316620009b657600080fd5b620009c086600655565b50506007805460ff1916600317905550505050565b6001546000906001600160a01b0316331462000a055760405162461bcd60e51b8152600401620004ea9062001d33565b6000546001600160a01b0316331462000a325760405162461bcd60e51b8152600401620004ea9062001d86565b5060065490565b6040805160016232dea960e11b0319815283516001600160a01b03908116600483015260208501516024830152918401516044820152828216606482015260009182919086169063ff9a42ae9060840160206040518083038186803b15801562000aa257600080fd5b505afa15801562000ab7573d6000803e3d6000fd5b505050506040513d601f19601f8201168201806040525081019062000add919062001a3c565b95945050505050565b6001546001600160a01b0316331462000b135760405162461bcd60e51b8152600401620004ea9062001d33565b600080600754610100900460ff16600281111562000b355762000b3562001f6d565b1462000b555760405162461bcd60e51b8152600401620004ea9062001e8a565b60008060075460ff16600581111562000b725762000b7262001f6d565b1462000b925760405162461bcd60e51b8152600401620004ea9062001db6565b6001600160a01b038c1662000c105760405162461bcd60e51b815260206004820152603760248201527f576f726b65722061646472657373206d757374206e6f7420626520302077686560448201527f6e2061737369676e696e67206e657720776f726b65722e0000000000000000006064820152608401620004ea565b8a62000c5f5760405162461bcd60e51b815260206004820181905260248201527f44616920616d6f756e742063616e6e6f7420626520657175616c20746f20302e6044820152606401620004ea565b6003546001546040516370a0823160e01b81526001600160a01b03918216600482015260009291909116906370a082319060240160206040518083038186803b15801562000cac57600080fd5b505afa15801562000cc1573d6000803e3d6000fd5b505050506040513d601f19601f8201168201806040525081019062000ce7919062001b8d565b90508b81101562000cf757600080fd5b62000d098b8b8b8b8b8b8b8b6200113a565b60028c9055600080546001600160a01b038f166001600160a01b031991821617909155600480549091169055600780546001919062ff0000191662010000830217905550600780546001919060ff1916828002179055506000546001600160a01b038e811691161462000d805762000d8062001f57565b600160075462010000900460ff16600281111562000da25762000da262001f6d565b1462000db25762000db262001f57565b50505050505050505050505050565b6003546000906001600160a01b031662000e1e5760405162461bcd60e51b815260206004820152601a60248201527f52657761726420616464726573732063616e6e6f7420626520300000000000006044820152606401620004ea565b506003546001600160a01b031690565b6001546001600160a01b0316331462000e5b5760405162461bcd60e51b8152600401620004ea9062001d33565b60008060075462010000900460ff16600281111562000e7e5762000e7e62001f6d565b1462000e9e5760405162461bcd60e51b8152600401620004ea9062001e20565b815162000581906005906020850190620017eb565b60028060075460ff16600581111562000ed05762000ed062001f6d565b1462000ef05760405162461bcd60e51b8152600401620004ea9062001db6565b3084848460405162000f02906200187a565b6001600160a01b03948516815293909216602084015260408301526060820152608001604051809103906000f08015801562000f42573d6000803e3d6000fd5b50600480546001600160a01b0319166001600160a01b0392909216918217905562000f715762000f7162001f57565b50506007805460ff191660051790555050565b6001546001600160a01b0316331462000fb15760405162461bcd60e51b8152600401620004ea9062001d33565b6000546001600160a01b031662000fc757600080fd5b62000fd38282620012c4565b50506007805461ffff1916610204179055565b6000546001600160a01b03163314620010135760405162461bcd60e51b8152600401620004ea9062001d86565b60018060075462010000900460ff16600281111562001036576200103662001f6d565b14620010565760405162461bcd60e51b8152600401620004ea9062001e20565b60018060075460ff16600581111562001073576200107362001f6d565b14620010935760405162461bcd60e51b8152600401620004ea9062001db6565b600254620010fa5760405162461bcd60e51b815260206004820152602d60248201527f5468657265206973206e6f2044414920746f207472616e73666572206261636b60448201526c103a37903a34329037bbb732b960991b6064820152608401620004ea565b60035460015460025460405163a9059cbb60e01b81526001600160a01b039283166004820152602481019190915291169063a9059cbb906044016200052b565b600354600180546040516323f2ebc360e21b81526001600160a01b0393841693638fcbaf0c936200117f939091169130918e918e91908e908e908e9060040162001c33565b600060405180830381600087803b1580156200119a57600080fd5b505af1158015620011af573d6000803e3d6000fd5b505060035460015460025460405163f2d5d56b60e01b81526001600160a01b03928316600482015260248101919091529116925063f2d5d56b9150604401600060405180830381600087803b1580156200120857600080fd5b505af11580156200121d573d6000803e3d6000fd5b5050600354600180546001600160a01b039283169450638fcbaf0c93509091169030906200124d908d9062001ef3565b8b60008989896040518963ffffffff1660e01b81526004016200127898979695949392919062001c33565b600060405180830381600087803b1580156200129357600080fd5b505af1158015620012a8573d6000803e3d6000fd5b5050600780546001935090915061ff001916610100836200074a565b60035460005460025460405163a9059cbb60e01b81526001600160a01b039283166004820152602481019190915291169063a9059cbb90604401602060405180830381600087803b1580156200131957600080fd5b505af11580156200132e573d6000803e3d6000fd5b505050506040513d601f19601f8201168201806040525081019062001354919062001a3c565b50600154600080546001600160a01b03928316921690600660ff86161115620013e2576040516376267fd760e11b81526001600160a01b0383169063ec4cffae90620013a890309060019060040162001c7c565b600060405180830381600087803b158015620013c357600080fd5b505af1158015620013d8573d6000803e3d6000fd5b5050505062001789565b600660ff8616111580620013fa5750600460ff861610155b15620014065762001789565b600460ff8616118015906200142a57506200142384600162001ef3565b8160ff1610155b1562001706576000826001600160a01b031663c897d6956040518163ffffffff1660e01b8152600401602060405180830381600087803b1580156200146e57600080fd5b505af115801562001483573d6000803e3d6000fd5b505050506040513d601f19601f82011682018060405250810190620014a9919062001c13565b905060018160ff16116200152257604051630668e3b760e41b81526001600160a01b0384169063668e3b7090620014e890309060019060040162001c7c565b600060405180830381600087803b1580156200150357600080fd5b505af115801562001518573d6000803e3d6000fd5b50505050620016ff565b8060ff16600214156200159d57604051630668e3b760e41b81526000906001600160a01b0385169063668e3b709062001562903090859060040162001c7c565b600060405180830381600087803b1580156200157d57600080fd5b505af115801562001592573d6000803e3d6000fd5b5050505050620016ff565b8060ff16600314156200163d57604051630668e3b760e41b81526001600160a01b0384169063668e3b7090620015db90309060009060040162001c7c565b600060405180830381600087803b158015620015f657600080fd5b505af11580156200160b573d6000803e3d6000fd5b50506040516332053e6960e01b8152600060048201526001600160a01b03861692506332053e699150602401620014e8565b6040516332053e6960e01b8152600160048201526001600160a01b038416906332053e6990602401600060405180830381600087803b1580156200168057600080fd5b505af115801562001695573d6000803e3d6000fd5b5050604051630668e3b760e41b81526001600160a01b038616925063668e3b709150620016ca90309060019060040162001c7c565b600060405180830381600087803b158015620016e557600080fd5b505af1158015620016fa573d6000803e3d6000fd5b505050505b5062001789565b600460ff8616118015906200171d5750838160ff16105b156200178957604051630668e3b760e41b81526001600160a01b0383169063668e3b70906200175490309060019060040162001c7c565b600060405180830381600087803b1580156200176f57600080fd5b505af115801562001784573d6000803e3d6000fd5b505050505b604051633336dad960e21b81523060048201526001600160a01b0384169063ccdb6b6490602401600060405180830381600087803b158015620017cb57600080fd5b505af1158015620017e0573d6000803e3d6000fd5b505050505050505050565b828054620017f99062001f1a565b90600052602060002090601f0160209004810192826200181d576000855562001868565b82601f106200183857805160ff191683800117855562001868565b8280016001018555821562001868579182015b82811115620018685782518255916020019190600101906200184b565b506200187692915062001888565b5090565b6117188062001fe583390190565b5b8082111562001876576000815560010162001889565b600060208284031215620018b257600080fd5b8135620018bf8162001faf565b9392505050565b6000806000806000806000806000806101408b8d031215620018e757600080fd5b8a35620018f48162001faf565b995060208b0135985060408b0135975060608b0135965060808b01356200191b8162001fd4565b955060a08b0135945060c08b0135935060e08b01356200193b8162001fd4565b809350506101008b013591506101208b013590509295989b9194979a5092959850565b6000806000606084860312156200197457600080fd5b8335620019818162001faf565b95602085013595506040909401359392505050565b600080600083850360a0811215620019ad57600080fd5b8435620019ba8162001faf565b93506060601f1982011215620019cf57600080fd5b506040516060810181811067ffffffffffffffff82111715620019f657620019f662001f83565b604052602085013562001a098162001faf565b815260408581013560208301526060860135908201529150608084013562001a318162001faf565b809150509250925092565b60006020828403121562001a4f57600080fd5b8151620018bf8162001fc5565b6000806000806080858703121562001a7357600080fd5b843562001a808162001fc5565b9350602085013562001a928162001fd4565b93969395505050506040820135916060013590565b6000806000806080858703121562001abe57600080fd5b84359350602085013562001a928162001fd4565b60006020828403121562001ae557600080fd5b813567ffffffffffffffff8082111562001afe57600080fd5b818401915084601f83011262001b1357600080fd5b81358181111562001b285762001b2862001f83565b604051601f8201601f19908116603f0116810190838211818310171562001b535762001b5362001f83565b8160405282815287602084870101111562001b6d57600080fd5b826020860160208301376000928101602001929092525095945050505050565b60006020828403121562001ba057600080fd5b5051919050565b60008060008060008060c0878903121562001bc157600080fd5b86359550602087013562001bd58162001fd4565b9450604087013562001be78162001fc5565b9350606087013562001bf98162001fd4565b9598949750929560808101359460a0909101359350915050565b60006020828403121562001c2657600080fd5b8151620018bf8162001fd4565b6001600160a01b039889168152969097166020870152604086019490945260608501929092521515608084015260ff1660a083015260c082015260e08101919091526101000190565b6001600160a01b0392909216825260ff16602082015260400190565b6020810162001ca78362001f99565b91905290565b602081016006831062001ca75762001ca762001f6d565b602081016002831062001ca75762001ca762001f6d565b600060208083528351808285015260005b8181101562001d0a5785810183015185820160400152820162001cec565b8181111562001d1d576000604083870101525b50601f01601f1916929092016040019392505050565b60208082526033908201527f576f726b52656c6174696f6e736869703a206f6e6c794f776e65722063616e2060408201527231b0b636103a3434b990333ab731ba34b7b71760691b606082015260800190565b602080825260169082015275576f726b52656c6174696f6e736869703a206f6e6c7960501b604082015260600190565b60208082526044908201527f5468697320616374696f6e2063616e6e6f742062652063617272696564206f7560408201527f7420756e646572207468652063757272656e7420636f6e7472616374207374616060820152633a3ab99760e11b608082015260a00190565b60208082526044908201527f43616e6e6f7420696e766f6b65207468697320657363726f772066756e63746960408201527f6f6e2077697468207468652063757272656e7420636f6e7472616374207374616060820152633a3ab99760e11b608082015260a00190565b60208082526043908201527f43616e6e6f7420696e766f6b65207468697320657363726f772066756e63746960408201527f6f6e2077697468207468652063757272656e7420636f6e7472616374207374616060820152623a329760e91b608082015260a00190565b6000821982111562001f1557634e487b7160e01b600052601160045260246000fd5b500190565b600181811c9082168062001f2f57607f821691505b6020821081141562001f5157634e487b7160e01b600052602260045260246000fd5b50919050565b634e487b7160e01b600052600160045260246000fd5b634e487b7160e01b600052602160045260246000fd5b634e487b7160e01b600052604160045260246000fd5b6003811062001fac5762001fac62001f6d565b50565b6001600160a01b038116811462001fac57600080fd5b801515811462001fac57600080fd5b60ff8116811462001fac57600080fdfe61012060405260006004553480156200001757600080fd5b5060405162001718380380620017188339810160408190526200003a9162000303565b6001600160a01b0384166200004e57600080fd5b606084811b6001600160601b031916610100526005805460ff19169055426080908152600380546001600160a01b0387166001600160a01b031990911617905560a084815260c084815260408051808201825260078152664469737075746560c81b6020918201528151808301835260018152603160f81b9082015281517f8b73c3c69bb8fe3d512ecc4cf759cc79239f7b179b0ffacaa9a75d522b39400f918101919091527f04b273a0968087d38ef081b4cff37a55e03b55b8757862001d9ef2cb4b174038918101919091527fc89efdaa54c0f20c7adf612882df0950f5a951637e0307cdcb4c672f298b8bc6948101949094524660ff811693850193909352309184019190915286920160408051601f19818403018152828252805160209182012060e052638da5cb5b60e01b835290516200026a926001600160a01b03861692638da5cb5b92600480840193829003018186803b158015620001b357600080fd5b505afa158015620001c8573d6000803e3d6000fd5b505050506040513d601f19601f82011682018060405250810190620001ee9190620002de565b836001600160a01b0316634d547ada6040518163ffffffff1660e01b815260040160206040518083038186803b1580156200022857600080fd5b505afa1580156200023d573d6000803e3d6000fd5b505050506040513d601f19601f82011682018060405250810190620002639190620002de565b8862000276565b5050505050506200034b565b6040513081526001600160a01b0380831691848216918616907f543ce58a402eef272498a9d9ca93ca216aed1cbe238711e9e13d645ac1d322359060200160405180910390a4505050565b80516001600160a01b0381168114620002d957600080fd5b919050565b600060208284031215620002f157600080fd5b620002fc82620002c1565b9392505050565b600080600080608085870312156200031a57600080fd5b6200032585620002c1565b93506200033560208601620002c1565b6040860151606090960151949790965092505050565b60805160a05160c05160e0516101005160601c611363620003b5600039600081816103c80152818161071b01528181610e1a0152610ef601526000610239015260006102860152600061014801526000818160d901528181610422015261044c01526113636000f3fe608060405234801561001057600080fd5b50600436106100cf5760003560e01c8063a6430cc01161008c578063bfce14ea11610066578063bfce14ea14610234578063d1ad17bf1461025b578063d8025a801461026e578063ffe1ee9d1461028157600080fd5b8063a6430cc0146101f9578063b110d37114610224578063b294ed131461022c57600080fd5b80630b97bc86146100d45780632febb58d1461010e5780636dd7d8ea1461012e5780637e291d85146101435780637fdf2a011461016a5780638e93d1d514610191575b600080fd5b6100fb7f000000000000000000000000000000000000000000000000000000000000000081565b6040519081526020015b60405180910390f35b6100fb61011c366004611142565b60016020526000908152604090205481565b61014161013c366004611142565b6102a8565b005b6100fb7f000000000000000000000000000000000000000000000000000000000000000081565b6100fb7fa5a0f8d2bd9a801d7bf3de4cb7f728cdbb90e91a22e6db05e58dd4a9b0bd280e81565b6101d161019f366004611142565b600060208190529081526040902080546001909101546001600160a01b0391821691811690600160a01b900460ff1683565b604080516001600160a01b039485168152939092166020840152151590820152606001610105565b61020c6102073660046111d4565b6103f1565b6040516001600160a01b039091168152602001610105565b6100fb61041b565b6100fb600581565b6100fb7f000000000000000000000000000000000000000000000000000000000000000081565b60035461020c906001600160a01b031681565b6100fb61027c36600461119e565b610659565b6100fb7f000000000000000000000000000000000000000000000000000000000000000081565b60055460019060ff1660028111156102c2576102c26112e9565b8160028111156102d4576102d46112e9565b146102de57600080fd5b3360009081526020818152604091829020825160608101845281546001600160a01b03908116825260019092015491821692810192909252600160a01b900460ff16158015928201929092529061038c5760405162461bcd60e51b815260206004820152602760248201527f596f75206861766520616c726561647920766f74656420696e2074686973206460448201526634b9b83aba329760c91b60648201526084015b60405180910390fd5b6001600160a01b038316602082015260016040820152600480549060006103b38380611259565b9091555050600454600514156103ec576103ec7f0000000000000000000000000000000000000000000000000000000000000000610b52565b505050565b6002818154811061040157600080fd5b6000918252602090912001546001600160a01b0316905081565b600061044a7f00000000000000000000000000000000000000000000000000000000000000006203f480611259565b7f0000000000000000000000000000000000000000000000000000000000000000106106565760005b60025481101561063d57600080600060028481548110610495576104956112ff565b6000918252602080832091909101546001600160a01b0390811684528382019490945260409283018220835160608101855281548616815260019091015494851691810191909152600160a01b90930460ff161515918301919091526002805492935090918291908590811061050d5761050d6112ff565b60009182526020808320909101546001600160a01b0316835282019290925260400190206001015460ff600160a01b9091041661062a57604051806060016040528060006001600160a01b0316815260200160006001600160a01b03168152602001600015158152506000806002858154811061058c5761058c6112ff565b6000918252602080832091909101546001600160a01b039081168452838201949094526040928301909120845181546001600160a01b0319169085161781559084015160019091018054949092015192166001600160a81b031990931692909217600160a01b911515919091021790556002805483908110610610576106106112ff565b600091825260209091200180546001600160a01b03191690555b5080610635816112b8565b915050610473565b5060025460051115610650575060001990565b50600090565b90565b600554600090819060ff166002811115610675576106756112e9565b816002811115610687576106876112e9565b1461069157600080fd5b6002546005116107175760405162461bcd60e51b815260206004820152604560248201527f54686520746f74616c206e756d626572206f662061726269747261746f72732060448201527f68617665206265656e20636f6c6c656374656420666f72207468697320636f6e6064820152641d1c9858dd60da1b608482015260a401610383565b60007f000000000000000000000000000000000000000000000000000000000000000090506000816001600160a01b031663bf9321fc6040518163ffffffff1660e01b8152600401602060405180830381600087803b15801561077957600080fd5b505af115801561078d573d6000803e3d6000fd5b505050506040513d601f19601f820116820180604052508101906107b1919061115f565b9050806001600160a01b0316638fcbaf0c836001600160a01b0316638da5cb5b6040518163ffffffff1660e01b815260040160206040518083038186803b1580156107fb57600080fd5b505afa15801561080f573d6000803e3d6000fd5b505050506040513d601f19601f82011682018060405250810190610833919061115f565b30893560208b0135600161084d60608e0160408f016111ed565b8d606001358e608001356040518963ffffffff1660e01b815260040161087a989796959493929190611210565b600060405180830381600087803b15801561089457600080fd5b505af11580156108a8573d6000803e3d6000fd5b50505050806001600160a01b031663f2d5d56b836001600160a01b0316638da5cb5b6040518163ffffffff1660e01b815260040160206040518083038186803b1580156108f457600080fd5b505afa158015610908573d6000803e3d6000fd5b505050506040513d601f19601f8201168201806040525081019061092c919061115f565b6040516001600160e01b031960e084901b1681526001600160a01b03909116600482015260056024820152604401600060405180830381600087803b15801561097457600080fd5b505af1158015610988573d6000803e3d6000fd5b50505050806001600160a01b0316638fcbaf0c836001600160a01b0316638da5cb5b6040518163ffffffff1660e01b815260040160206040518083038186803b1580156109d457600080fd5b505afa1580156109e8573d6000803e3d6000fd5b505050506040513d601f19601f82011682018060405250810190610a0c919061115f565b30610a198a356001611259565b60208a01356000610a3060608d0160408e016111ed565b8c606001358d608001356040518963ffffffff1660e01b8152600401610a5d989796959493929190611210565b600060405180830381600087803b158015610a7757600080fd5b505af1158015610a8b573d6000803e3d6000fd5b50505050610b493360408051606081018252600080825260208083018281528385018381526001600160a01b03968716808552848452868520955186549089166001600160a01b031991821617875592516001968701805493511515600160a01b026001600160a81b0319909416919099161791909117909655908390529281206005905560028054928301815590527f405787fa12a823e0f2b7631cc41b3ba8828b3321ca811111fa75cd3aa3bb5ace0180549091169091179055565b50505092915050565b60008082815b600454811015610cac5760008060028381548110610b7857610b786112ff565b60009182526020808320909101546001600160a01b03168352820192909252604001902060019081015460ff600160a01b909104161515148015610c75575060008060028381548110610bcd57610bcd6112ff565b60009182526020808320909101546001600160a01b039081168452838201949094526040928301909120600101548251638da5cb5b60e01b8152925190841693861692638da5cb5b926004808301939192829003018186803b158015610c3257600080fd5b505afa158015610c46573d6000803e3d6000fd5b505050506040513d601f19601f82011682018060405250810190610c6a919061115f565b6001600160a01b0316145b15610c8c57610c85600185611271565b9350610c9a565b610c97600184611271565b92505b80610ca4816112b8565b915050610b58565b508160ff168360ff161115610d3a57610d35816001600160a01b0316638da5cb5b6040518163ffffffff1660e01b815260040160206040518083038186803b158015610cf757600080fd5b505afa158015610d0b573d6000803e3d6000fd5b505050506040513d601f19601f82011682018060405250810190610d2f919061115f565b84610dfb565b610db4565b610db4816001600160a01b0316634d547ada6040518163ffffffff1660e01b815260040160206040518083038186803b158015610d7657600080fd5b505afa158015610d8a573d6000803e3d6000fd5b505050506040513d601f19601f82011682018060405250810190610dae919061115f565b83610dfb565b6005805460ff191660021790556040516001600160a01b038516907f8476b4c4cd5f496cfe2043ed12cd9e3e3540e97649536b9aa3fa67f06a7134db90600090a250505050565b604051630b73a87f60e01b81526001600160a01b0383811660048301527f00000000000000000000000000000000000000000000000000000000000000009190821690630b73a87f90602401600060405180830381600087803b158015610e6157600080fd5b505af1158015610e75573d6000803e3d6000fd5b505050506000805b600254811015610ee057610ecc826001600060028581548110610ea257610ea26112ff565b60009182526020808320909101546001600160a01b0316835282019290925260400190205461110b565b915080610ed8816112b8565b915050610e7d565b506000610ef0828560ff1661111e565b905060007f000000000000000000000000000000000000000000000000000000000000000090506000816001600160a01b031663bf9321fc6040518163ffffffff1660e01b8152600401602060405180830381600087803b158015610f5457600080fd5b505af1158015610f68573d6000803e3d6000fd5b505050506040513d601f19601f82011682018060405250810190610f8c919061115f565b905060005b6004548110156111015760008060028381548110610fb157610fb16112ff565b60009182526020808320909101546001600160a01b03168352820192909252604001902060019081015460ff600160a01b90910416151514801561103a575060008060028381548110611006576110066112ff565b60009182526020808320909101546001600160a01b0390811684529083019390935260409091019020600101548982169116145b156110ef57816001600160a01b031663a9059cbb60028381548110611061576110616112ff565b60009182526020909120015460405160e083901b6001600160e01b03191681526001600160a01b03909116600482015260248101879052604401602060405180830381600087803b1580156110b557600080fd5b505af11580156110c9573d6000803e3d6000fd5b505050506040513d601f19601f820116820180604052508101906110ed919061117c565b505b806110f9816112b8565b915050610f91565b5050505050505050565b60006111178284611259565b9392505050565b60006111178284611296565b600060a0828403121561113c57600080fd5b50919050565b60006020828403121561115457600080fd5b813561111781611315565b60006020828403121561117157600080fd5b815161111781611315565b60006020828403121561118e57600080fd5b8151801515811461111757600080fd5b60008061014083850312156111b257600080fd5b6111bc848461112a565b91506111cb8460a0850161112a565b90509250929050565b6000602082840312156111e657600080fd5b5035919050565b6000602082840312156111ff57600080fd5b813560ff8116811461111757600080fd5b6001600160a01b039889168152969097166020870152604086019490945260608501929092521515608084015260ff1660a083015260c082015260e08101919091526101000190565b6000821982111561126c5761126c6112d3565b500190565b600060ff821660ff84168060ff0382111561128e5761128e6112d3565b019392505050565b6000826112b357634e487b7160e01b600052601260045260246000fd5b500490565b60006000198214156112cc576112cc6112d3565b5060010190565b634e487b7160e01b600052601160045260246000fd5b634e487b7160e01b600052602160045260246000fd5b634e487b7160e01b600052603260045260246000fd5b6001600160a01b038116811461132a57600080fd5b5056fea2646970667358221220daa84aff6bc79613432f517d2ce7a9c829a7cbafb7763542d96779101463e0f264736f6c63430008070033a26469706673582212208348b7ceaa690d8d905fd02a7556d486645d84dd808f5d7d1802185d3aa7e61c64736f6c63430008070033a2646970667358221220b24018f7bbad14c4fd8337510280a8bb33e5a094b67bcb0a01d739d288e8515264736f6c63430008070033",
  "linkReferences": {},
  "deployedLinkReferences": {}
}