{
  "_format": "hh-sol-artifact-1",
  "contractName": "UserRegistration",
  "sourceName": "contracts/user/UserRegistration.sol",
  "abi": [
    {
      "inputs": [
        {
          "internalType": "address",
          "name": "userSummaryFactoryAddress",
          "type": "address"
        }
      ],
      "stateMutability": "nonpayable",
      "type": "constructor"
    },
    {
      "anonymous": false,
      "inputs": [
        {
          "indexed": true,
          "internalType": "address",
          "name": "universalAddress",
          "type": "address"
        },
        {
          "indexed": true,
          "internalType": "address",
          "name": "userSummaryContractAddress",
          "type": "address"
        }
      ],
      "name": "UserAssignedTrueIdentification",
      "type": "event"
    },
    {
      "anonymous": false,
      "inputs": [
        {
          "indexed": true,
          "internalType": "address",
          "name": "universalAddress",
          "type": "address"
        }
      ],
      "name": "UserRegistered",
      "type": "event"
    },
    {
      "inputs": [
        {
          "internalType": "address",
          "name": "universalAddress",
          "type": "address"
        }
      ],
      "name": "getTrueIdentification",
      "outputs": [
        {
          "internalType": "address",
          "name": "",
          "type": "address"
        }
      ],
      "stateMutability": "view",
      "type": "function"
    },
    {
      "inputs": [],
      "name": "registerNewUser",
      "outputs": [
        {
          "internalType": "address",
          "name": "",
          "type": "address"
        }
      ],
      "stateMutability": "nonpayable",
      "type": "function"
    }
  ],
  "bytecode": "0x608060405234801561001057600080fd5b5060405161032438038061032483398101604081905261002f91610054565b600180546001600160a01b0319166001600160a01b0392909216919091179055610084565b60006020828403121561006657600080fd5b81516001600160a01b038116811461007d57600080fd5b9392505050565b610291806100936000396000f3fe608060405234801561001057600080fd5b50600436106100365760003560e01c80636445907e1461003b578063ad3b66931461005f575b600080fd5b61004361008b565b6040516001600160a01b03909116815260200160405180910390f35b61004361006d366004610206565b6001600160a01b039081166000908152602081905260409020541690565b336000908152602081905260408120546001600160a01b0316156100f55760405162461bcd60e51b815260206004820181905260248201527f54686973207573657220697320616c726561647920726567697374657265642e604482015260640160405180910390fd5b60015460405163c64c2c3160e01b81523360048201526000916001600160a01b03169063c64c2c3190602401602060405180830381600087803b15801561013b57600080fd5b505af115801561014f573d6000803e3d6000fd5b505050506040513d601f19601f82011682018060405250810190610173919061022a565b905061017f33826101af565b60405133907f54db7a5cb4735e1aac1f53db512d3390390bb6637bd30ad4bf9fc98667d9b9b990600090a2919050565b6001600160a01b0382811660008181526020819052604080822080546001600160a01b0319169486169485179055517f8e36be26ef3eed96fe9d1b986cd201ff94ca1c034d575c68f55f2f06acd2c5ae9190a35050565b60006020828403121561021857600080fd5b813561022381610243565b9392505050565b60006020828403121561023c57600080fd5b8151610223815b6001600160a01b038116811461025857600080fd5b5056fea264697066735822122053952514d8ee7ecd93e316962e4cf114e91e532a0748991a73e338416ab2379564736f6c63430008070033",
  "linkReferences": {},
  "deployedLinkReferences": {}
}