{
  "_format": "hh-sol-artifact-1",
  "contractName": "UserRegistration",
  "sourceName": "contracts/user/UserRegistration.sol",
  "abi": [
    {
      "inputs": [
        {
          "internalType": "address",
          "name": "userSummaryFactoryAddress",
          "type": "address"
        },
        {
          "internalType": "address",
          "name": "_juryParticipationAddress",
          "type": "address"
        }
      ],
      "stateMutability": "nonpayable",
      "type": "constructor"
    },
    {
      "anonymous": false,
      "inputs": [
        {
          "indexed": true,
          "internalType": "address",
          "name": "universalAddress",
          "type": "address"
        },
        {
          "indexed": true,
          "internalType": "address",
          "name": "userSummaryContractAddress",
          "type": "address"
        }
      ],
      "name": "UserAssignedTrueIdentification",
      "type": "event"
    },
    {
      "anonymous": false,
      "inputs": [
        {
          "indexed": true,
          "internalType": "address",
          "name": "universalAddress",
          "type": "address"
        }
      ],
      "name": "UserRegistered",
      "type": "event"
    },
    {
      "inputs": [
        {
          "internalType": "address",
          "name": "universalAddress",
          "type": "address"
        }
      ],
      "name": "getTrueIdentification",
      "outputs": [
        {
          "internalType": "address",
          "name": "",
          "type": "address"
        }
      ],
      "stateMutability": "view",
      "type": "function"
    },
    {
      "inputs": [],
      "name": "redeemJuryParticipation",
      "outputs": [],
      "stateMutability": "nonpayable",
      "type": "function"
    },
    {
      "inputs": [],
      "name": "registerNewUser",
      "outputs": [
        {
          "internalType": "address",
          "name": "",
          "type": "address"
        }
      ],
      "stateMutability": "nonpayable",
      "type": "function"
    }
  ],
  "bytecode": "0x60a060405234801561001057600080fd5b5060405161036d38038061036d83398101604081905261002f91610081565b600180546001600160a01b0319166001600160a01b03939093169290921790915560601b6001600160601b0319166080526100b4565b80516001600160a01b038116811461007c57600080fd5b919050565b6000806040838503121561009457600080fd5b61009d83610065565b91506100ab60208401610065565b90509250929050565b60805160601c61029e6100cf6000396000505061029e6000f3fe608060405234801561001057600080fd5b50600436106100415760003560e01c80636445907e14610046578063ad3b66931461006a578063b7d0318914610096575b600080fd5b61004e610098565b6040516001600160a01b03909116815260200160405180910390f35b61004e610078366004610213565b6001600160a01b039081166000908152602081905260409020541690565b005b336000908152602081905260408120546001600160a01b0316156101025760405162461bcd60e51b815260206004820181905260248201527f54686973207573657220697320616c726561647920726567697374657265642e604482015260640160405180910390fd5b60015460405163c64c2c3160e01b81523360048201526000916001600160a01b03169063c64c2c3190602401602060405180830381600087803b15801561014857600080fd5b505af115801561015c573d6000803e3d6000fd5b505050506040513d601f19601f820116820180604052508101906101809190610237565b905061018c33826101bc565b60405133907f54db7a5cb4735e1aac1f53db512d3390390bb6637bd30ad4bf9fc98667d9b9b990600090a2919050565b6001600160a01b0382811660008181526020819052604080822080546001600160a01b0319169486169485179055517f8e36be26ef3eed96fe9d1b986cd201ff94ca1c034d575c68f55f2f06acd2c5ae9190a35050565b60006020828403121561022557600080fd5b813561023081610250565b9392505050565b60006020828403121561024957600080fd5b8151610230815b6001600160a01b038116811461026557600080fd5b5056fea2646970667358221220998707a442f586d2dd294a53742bfc875720b26876338916240cd503db18031364736f6c63430008070033",
  "linkReferences": {},
  "deployedLinkReferences": {}
}