{
  "_format": "hh-sol-artifact-1",
  "contractName": "Dispute",
  "sourceName": "contracts/dispute/Dispute.sol",
  "abi": [
    {
      "inputs": [
        {
          "internalType": "address",
          "name": "_relationship",
          "type": "address"
        },
        {
          "internalType": "bytes32",
          "name": "_complaintMetadataPointer",
          "type": "bytes32"
        },
        {
          "internalType": "bytes32",
          "name": "_complaintResponseMetadataPointer",
          "type": "bytes32"
        }
      ],
      "stateMutability": "nonpayable",
      "type": "constructor"
    },
    {
      "anonymous": false,
      "inputs": [
        {
          "indexed": true,
          "internalType": "address",
          "name": "_dispute",
          "type": "address"
        }
      ],
      "name": "ArbitrationWindowClosed",
      "type": "event"
    },
    {
      "anonymous": false,
      "inputs": [
        {
          "indexed": true,
          "internalType": "address",
          "name": "_dispute",
          "type": "address"
        }
      ],
      "name": "ArbitrationWindowOpened",
      "type": "event"
    },
    {
      "anonymous": false,
      "inputs": [
        {
          "indexed": true,
          "internalType": "address",
          "name": "_employer",
          "type": "address"
        },
        {
          "indexed": true,
          "internalType": "address",
          "name": "_worker",
          "type": "address"
        },
        {
          "indexed": true,
          "internalType": "address",
          "name": "_relationship",
          "type": "address"
        },
        {
          "indexed": false,
          "internalType": "address",
          "name": "_dispute",
          "type": "address"
        }
      ],
      "name": "DisputeCreated",
      "type": "event"
    },
    {
      "anonymous": false,
      "inputs": [
        {
          "indexed": true,
          "internalType": "address",
          "name": "_relationship",
          "type": "address"
        },
        {
          "indexed": false,
          "internalType": "uint8",
          "name": "round",
          "type": "uint8"
        }
      ],
      "name": "DisputeResolved",
      "type": "event"
    },
    {
      "anonymous": false,
      "inputs": [
        {
          "indexed": true,
          "internalType": "address",
          "name": "dispute",
          "type": "address"
        },
        {
          "indexed": true,
          "internalType": "uint256",
          "name": "round",
          "type": "uint256"
        },
        {
          "indexed": false,
          "internalType": "string",
          "name": "processId",
          "type": "string"
        },
        {
          "indexed": false,
          "internalType": "uint256",
          "name": "timestamp",
          "type": "uint256"
        }
      ],
      "name": "NewRound",
      "type": "event"
    },
    {
      "anonymous": false,
      "inputs": [
        {
          "indexed": true,
          "internalType": "address",
          "name": "voter",
          "type": "address"
        },
        {
          "indexed": true,
          "internalType": "address",
          "name": "_dispute",
          "type": "address"
        },
        {
          "indexed": false,
          "internalType": "uint256",
          "name": "_amount",
          "type": "uint256"
        }
      ],
      "name": "PenaltyProcessed",
      "type": "event"
    },
    {
      "anonymous": false,
      "inputs": [
        {
          "indexed": true,
          "internalType": "address",
          "name": "_dispute",
          "type": "address"
        }
      ],
      "name": "StakeResolved",
      "type": "event"
    },
    {
      "anonymous": false,
      "inputs": [
        {
          "indexed": true,
          "internalType": "address",
          "name": "_dispute",
          "type": "address"
        }
      ],
      "name": "StakingWindowClosed",
      "type": "event"
    },
    {
      "anonymous": false,
      "inputs": [
        {
          "indexed": true,
          "internalType": "address",
          "name": "_dispute",
          "type": "address"
        }
      ],
      "name": "StakingWindowOpened",
      "type": "event"
    },
    {
      "inputs": [
        {
          "internalType": "address",
          "name": "",
          "type": "address"
        }
      ],
      "name": "addressToArbitrator",
      "outputs": [
        {
          "internalType": "address",
          "name": "universalAddress",
          "type": "address"
        },
        {
          "internalType": "bytes32",
          "name": "vote",
          "type": "bytes32"
        },
        {
          "internalType": "uint64",
          "name": "blockNumber",
          "type": "uint64"
        },
        {
          "internalType": "bool",
          "name": "voted",
          "type": "bool"
        },
        {
          "internalType": "bool",
          "name": "revealed",
          "type": "bool"
        }
      ],
      "stateMutability": "view",
      "type": "function"
    },
    {
      "inputs": [
        {
          "internalType": "uint256",
          "name": "",
          "type": "uint256"
        }
      ],
      "name": "arbitrators",
      "outputs": [
        {
          "internalType": "address",
          "name": "",
          "type": "address"
        }
      ],
      "stateMutability": "view",
      "type": "function"
    },
    {
      "inputs": [],
      "name": "checkDispute",
      "outputs": [],
      "stateMutability": "nonpayable",
      "type": "function"
    },
    {
      "inputs": [],
      "name": "complaintMetadataPointer",
      "outputs": [
        {
          "internalType": "bytes32",
          "name": "",
          "type": "bytes32"
        }
      ],
      "stateMutability": "view",
      "type": "function"
    },
    {
      "inputs": [],
      "name": "complaintResponseMetadataPointer",
      "outputs": [
        {
          "internalType": "bytes32",
          "name": "",
          "type": "bytes32"
        }
      ],
      "stateMutability": "view",
      "type": "function"
    },
    {
      "inputs": [],
      "name": "exitDispute",
      "outputs": [],
      "stateMutability": "nonpayable",
      "type": "function"
    },
    {
      "inputs": [],
      "name": "getStake",
      "outputs": [],
      "stateMutability": "nonpayable",
      "type": "function"
    },
    {
      "inputs": [
        {
          "components": [
            {
              "internalType": "uint256",
              "name": "nonce",
              "type": "uint256"
            },
            {
              "internalType": "uint256",
              "name": "expiry",
              "type": "uint256"
            },
            {
              "internalType": "uint8",
              "name": "v",
              "type": "uint8"
            },
            {
              "internalType": "bytes32",
              "name": "r",
              "type": "bytes32"
            },
            {
              "internalType": "bytes32",
              "name": "s",
              "type": "bytes32"
            }
          ],
          "internalType": "struct Transaction.EIP712ERC20Permit",
          "name": "allow",
          "type": "tuple"
        },
        {
          "components": [
            {
              "internalType": "uint256",
              "name": "nonce",
              "type": "uint256"
            },
            {
              "internalType": "uint256",
              "name": "expiry",
              "type": "uint256"
            },
            {
              "internalType": "uint8",
              "name": "v",
              "type": "uint8"
            },
            {
              "internalType": "bytes32",
              "name": "r",
              "type": "bytes32"
            },
            {
              "internalType": "bytes32",
              "name": "s",
              "type": "bytes32"
            }
          ],
          "internalType": "struct Transaction.EIP712ERC20Permit",
          "name": "deny",
          "type": "tuple"
        }
      ],
      "name": "joinDispute",
      "outputs": [
        {
          "internalType": "int256",
          "name": "",
          "type": "int256"
        }
      ],
      "stateMutability": "nonpayable",
      "type": "function"
    },
    {
      "inputs": [
        {
          "internalType": "string",
          "name": "processId",
          "type": "string"
        }
      ],
      "name": "newProcessId",
      "outputs": [],
      "stateMutability": "nonpayable",
      "type": "function"
    },
    {
      "inputs": [],
      "name": "numVotes",
      "outputs": [
        {
          "internalType": "uint8",
          "name": "",
          "type": "uint8"
        }
      ],
      "stateMutability": "view",
      "type": "function"
    },
    {
      "inputs": [],
      "name": "round",
      "outputs": [
        {
          "internalType": "uint8",
          "name": "",
          "type": "uint8"
        }
      ],
      "stateMutability": "view",
      "type": "function"
    },
    {
      "inputs": [],
      "name": "stake",
      "outputs": [
        {
          "internalType": "uint256",
          "name": "",
          "type": "uint256"
        }
      ],
      "stateMutability": "view",
      "type": "function"
    },
    {
      "inputs": [],
      "name": "startDate",
      "outputs": [
        {
          "internalType": "uint256",
          "name": "",
          "type": "uint256"
        }
      ],
      "stateMutability": "view",
      "type": "function"
    },
    {
      "inputs": [],
      "name": "votingRoundStart",
      "outputs": [
        {
          "internalType": "uint256",
          "name": "",
          "type": "uint256"
        }
      ],
      "stateMutability": "view",
      "type": "function"
    },
    {
      "inputs": [],
      "name": "votingStartDate",
      "outputs": [
        {
          "internalType": "uint256",
          "name": "",
          "type": "uint256"
        }
      ],
      "stateMutability": "view",
      "type": "function"
    }
  ],
  "bytecode": "0x6101006040526003805460ff191660011790553480156200001f57600080fd5b50604051620011be380380620011be833981016040819052620000429162000245565b6001600160a01b0383166200005657600080fd5b600780546001600160a01b0319166001600160a01b0385169081179091556009805460ff191690554260a081905260049081553360601b60805260c084905260e08390526000600255604080516326aa3d6d60e11b8152905183928392634d547ada9281830192602092829003018186803b158015620000d557600080fd5b505afa158015620000ea573d6000803e3d6000fd5b505050506040513d601f19601f8201168201806040525081019062000110919062000220565b6001600160a01b0316826001600160a01b0316638da5cb5b6040518163ffffffff1660e01b815260040160206040518083038186803b1580156200015357600080fd5b505afa15801562000168573d6000803e3d6000fd5b505050506040513d601f19601f820116820180604052508101906200018e919062000220565b6040513081526001600160a01b0391909116907f543ce58a402eef272498a9d9ca93ca216aed1cbe238711e9e13d645ac1d322359060200160405180910390a460405130907f46fc1bd3ab8e7cd05a86c7dcc134023832df6d2dc518df189e63b27c386673ad90600090a2505050506200027d565b80516001600160a01b03811681146200021b57600080fd5b919050565b6000602082840312156200023357600080fd5b6200023e8262000203565b9392505050565b6000806000606084860312156200025b57600080fd5b620002668462000203565b925060208401519150604084015190509250925092565b60805160601c60a05160c05160e051610f05620002b960003960006102ae0152600061017c0152600060ff015260006108df0152610f056000f3fe608060405234801561001057600080fd5b50600436106100f55760003560e01c80638e93d1d511610097578063d8025a8011610066578063d8025a801461027b578063eeabb1251461028e578063fc0e3d90146102a1578063ffe1ee9d146102a957600080fd5b80638e93d1d51461019e57806391b0d39a1461023a578063a3bef4d714610243578063a6430cc01461025057600080fd5b80633a4b66f1116100d35780633a4b66f11461015c5780634a60e34f1461016557806377e8fd9c1461016f5780637e291d851461017757600080fd5b80630b97bc86146100fa578063146ca531146101345780631712546614610153575b600080fd5b6101217f000000000000000000000000000000000000000000000000000000000000000081565b6040519081526020015b60405180910390f35b6003546101419060ff1681565b60405160ff909116815260200161012b565b61012160065481565b61012160025481565b61016d6102d0565b005b61016d61037e565b6101217f000000000000000000000000000000000000000000000000000000000000000081565b6101f76101ac366004610bfc565b6000602081905290815260409020805460018201546002909201546001600160a01b03909116919067ffffffffffffffff81169060ff600160401b8204811691600160481b90041685565b604080516001600160a01b039096168652602086019490945267ffffffffffffffff9092169284019290925290151560608301521515608082015260a00161012b565b61012160045481565b6005546101419060ff1681565b61026361025e366004610d24565b6103b7565b6040516001600160a01b03909116815260200161012b565b610121610289366004610cee565b6103e1565b61016d61029c366004610c3d565b610890565b61016d610b1d565b6101217f000000000000000000000000000000000000000000000000000000000000000081565b6004546102e09062093a80610e06565b600454141561037c5761037c600880546102f990610e43565b80601f016020809104026020016040519081016040528092919081815260200182805461032590610e43565b80156103725780601f1061034757610100808354040283529160200191610372565b820191906000526020600020905b81548152906001019060200180831161035557829003601f168201915b5050505050610b36565b565b60095460009060ff16600381111561039857610398610e8e565b8160038111156103aa576103aa610e8e565b146103b457600080fd5b50565b600181815481106103c757600080fd5b6000918252602090912001546001600160a01b0316905081565b600954600090819060ff1660038111156103fd576103fd610e8e565b81600381111561040f5761040f610e8e565b1461041957600080fd5b60015460051161042857600080fd5b60075460408051632fe4c87f60e21b815290516001600160a01b0390921691600091839163bf9321fc9160048082019260209290919082900301818787803b15801561047357600080fd5b505af1158015610487573d6000803e3d6000fd5b505050506040513d601f19601f820116820180604052508101906104ab9190610c20565b9050806001600160a01b0316638fcbaf0c836001600160a01b0316638da5cb5b6040518163ffffffff1660e01b815260040160206040518083038186803b1580156104f557600080fd5b505afa158015610509573d6000803e3d6000fd5b505050506040513d601f19601f8201168201806040525081019061052d9190610c20565b30893560208b0135600161054760608e0160408f01610d3d565b8d606001358e608001356040518963ffffffff1660e01b8152600401610574989796959493929190610d60565b600060405180830381600087803b15801561058e57600080fd5b505af11580156105a2573d6000803e3d6000fd5b50505050806001600160a01b031663f2d5d56b836001600160a01b0316638da5cb5b6040518163ffffffff1660e01b815260040160206040518083038186803b1580156105ee57600080fd5b505afa158015610602573d6000803e3d6000fd5b505050506040513d601f19601f820116820180604052508101906106269190610c20565b6002546040516001600160e01b031960e085901b1681526001600160a01b0390921660048301526024820152604401600060405180830381600087803b15801561066f57600080fd5b505af1158015610683573d6000803e3d6000fd5b50505050806001600160a01b0316638fcbaf0c836001600160a01b0316638da5cb5b6040518163ffffffff1660e01b815260040160206040518083038186803b1580156106cf57600080fd5b505afa1580156106e3573d6000803e3d6000fd5b505050506040513d601f19601f820116820180604052508101906107079190610c20565b306107148a356001610e06565b60208a0135600061072b60608d0160408e01610d3d565b8c606001358d608001356040518963ffffffff1660e01b8152600401610758989796959493929190610d60565b600060405180830381600087803b15801561077257600080fd5b505af1158015610786573d6000803e3d6000fd5b5050505061087e336040805160a0810182526000808252602080830182815283850183815260608501848152608086018581526001600160a01b03988916808752948690529685209551865498166001600160a01b03199889161786559151600186810191909155905160029095018054925196511515600160481b0269ff00000000000000000019971515600160401b0268ffffffffffffffffff1990941667ffffffffffffffff9790971696909617929092179590951693909317909255825480840184559290527fb10e2d527612073b26eecdfd717e6a320cf44b4afac2b0732d9fcbe2b7fa0cf69091018054909216179055565b610886610bc5565b5050505092915050565b60095460019060ff1660038111156108aa576108aa610e8e565b8160038111156108bc576108bc610e8e565b146108c657600080fd5b60035460ff166001141561096f57336001600160a01b037f000000000000000000000000000000000000000000000000000000000000000016146109625760405162461bcd60e51b815260206004820152602860248201527f54686520616767726573736f72206d757374207375626d6974207468652070726044820152671bd8d95cdcc81a5960c21b60648201526084015b60405180910390fd5b61096b82610b36565b5050565b60045461097f9062093a80610e06565b4210610989575050565b60075460408051638da5cb5b60e01b815290516001600160a01b03909216918291638da5cb5b916004808301926020929190829003018186803b1580156109cf57600080fd5b505afa1580156109e3573d6000803e3d6000fd5b505050506040513d601f19601f82011682018060405250810190610a079190610c20565b6001600160a01b0316336001600160a01b03161480610aa75750806001600160a01b0316634d547ada6040518163ffffffff1660e01b815260040160206040518083038186803b158015610a5a57600080fd5b505afa158015610a6e573d6000803e3d6000fd5b505050506040513d601f19601f82011682018060405250810190610a929190610c20565b6001600160a01b0316336001600160a01b0316145b610b0f5760405162461bcd60e51b815260206004820152603360248201527f5468652070726f63657373206964206d75737420636f6d652066726f6d206f6e604482015272329037b3103a3432903234b9b83aba32b9399760691b6064820152608401610959565b610b1883610b36565b505050565b60095460039060ff168181111561039857610398610e8e565b6009805460ff1916905560405130907f46fc1bd3ab8e7cd05a86c7dcc134023832df6d2dc518df189e63b27c386673ad90600090a2600354610b7c9060ff166001610e1e565b60ff16306001600160a01b03167f21f2e1db10f4df2a0f1fc876844286ccb4dde456aeaf56b34084fe757c10192f8342604051610bba929190610da9565b60405180910390a350565b60015460009060051415610be1576009805460ff191660021790555b90565b600060a08284031215610bf657600080fd5b50919050565b600060208284031215610c0e57600080fd5b8135610c1981610eba565b9392505050565b600060208284031215610c3257600080fd5b8151610c1981610eba565b600060208284031215610c4f57600080fd5b813567ffffffffffffffff80821115610c6757600080fd5b818401915084601f830112610c7b57600080fd5b813581811115610c8d57610c8d610ea4565b604051601f8201601f19908116603f01168101908382118183101715610cb557610cb5610ea4565b81604052828152876020848701011115610cce57600080fd5b826020860160208301376000928101602001929092525095945050505050565b6000806101408385031215610d0257600080fd5b610d0c8484610be4565b9150610d1b8460a08501610be4565b90509250929050565b600060208284031215610d3657600080fd5b5035919050565b600060208284031215610d4f57600080fd5b813560ff81168114610c1957600080fd5b6001600160a01b039889168152969097166020870152604086019490945260608501929092521515608084015260ff1660a083015260c082015260e08101919091526101000190565b604081526000835180604084015260005b81811015610dd75760208187018101516060868401015201610dba565b81811115610de9576000606083860101525b50602083019390935250601f91909101601f191601606001919050565b60008219821115610e1957610e19610e78565b500190565b600060ff821660ff84168060ff03821115610e3b57610e3b610e78565b019392505050565b600181811c90821680610e5757607f821691505b60208210811415610bf657634e487b7160e01b600052602260045260246000fd5b634e487b7160e01b600052601160045260246000fd5b634e487b7160e01b600052602160045260246000fd5b634e487b7160e01b600052604160045260246000fd5b6001600160a01b03811681146103b457600080fdfea2646970667358221220e36760deb035eff2130e8ab72946509dd52d437feb2fb887714059c90eaa82e764736f6c63430008070033",
  "linkReferences": {},
  "deployedLinkReferences": {}
}