{
  "_format": "hh-sol-artifact-1",
  "contractName": "Dispute",
  "sourceName": "contracts/dispute/Dispute.sol",
  "abi": [
    {
      "inputs": [
        {
          "internalType": "address",
          "name": "_relationship",
          "type": "address"
        },
        {
          "internalType": "address",
          "name": "_scheduler",
          "type": "address"
        },
        {
          "internalType": "bytes32",
          "name": "_complaintMetadataPointer",
          "type": "bytes32"
        },
        {
          "internalType": "bytes32",
          "name": "_complaintResponseMetadataPointer",
          "type": "bytes32"
        },
        {
          "internalType": "string",
          "name": "_processId",
          "type": "string"
        }
      ],
      "stateMutability": "nonpayable",
      "type": "constructor"
    },
    {
      "anonymous": false,
      "inputs": [
        {
          "indexed": true,
          "internalType": "address",
          "name": "_dispute",
          "type": "address"
        }
      ],
      "name": "ArbitrationWindowClosed",
      "type": "event"
    },
    {
      "anonymous": false,
      "inputs": [
        {
          "indexed": true,
          "internalType": "address",
          "name": "_dispute",
          "type": "address"
        }
      ],
      "name": "ArbitrationWindowOpened",
      "type": "event"
    },
    {
      "anonymous": false,
      "inputs": [
        {
          "indexed": true,
          "internalType": "address",
          "name": "_employer",
          "type": "address"
        },
        {
          "indexed": true,
          "internalType": "address",
          "name": "_worker",
          "type": "address"
        },
        {
          "indexed": true,
          "internalType": "address",
          "name": "_relationship",
          "type": "address"
        },
        {
          "indexed": false,
          "internalType": "address",
          "name": "_dispute",
          "type": "address"
        }
      ],
      "name": "DisputeCreated",
      "type": "event"
    },
    {
      "anonymous": false,
      "inputs": [
        {
          "indexed": true,
          "internalType": "address",
          "name": "_relationship",
          "type": "address"
        }
      ],
      "name": "DisputeResolved",
      "type": "event"
    },
    {
      "anonymous": false,
      "inputs": [
        {
          "indexed": true,
          "internalType": "address",
          "name": "voter",
          "type": "address"
        },
        {
          "indexed": true,
          "internalType": "address",
          "name": "_dispute",
          "type": "address"
        },
        {
          "indexed": false,
          "internalType": "uint256",
          "name": "_amount",
          "type": "uint256"
        }
      ],
      "name": "PenaltyProcessed",
      "type": "event"
    },
    {
      "anonymous": false,
      "inputs": [
        {
          "indexed": true,
          "internalType": "address",
          "name": "_dispute",
          "type": "address"
        }
      ],
      "name": "StakeResolved",
      "type": "event"
    },
    {
      "anonymous": false,
      "inputs": [
        {
          "indexed": true,
          "internalType": "address",
          "name": "_dispute",
          "type": "address"
        }
      ],
      "name": "StakingWindowClosed",
      "type": "event"
    },
    {
      "anonymous": false,
      "inputs": [
        {
          "indexed": true,
          "internalType": "address",
          "name": "_dispute",
          "type": "address"
        }
      ],
      "name": "StakingWindowOpened",
      "type": "event"
    },
    {
      "inputs": [],
      "name": "DISPUTE_STAKE",
      "outputs": [
        {
          "internalType": "uint256",
          "name": "",
          "type": "uint256"
        }
      ],
      "stateMutability": "view",
      "type": "function"
    },
    {
      "inputs": [],
      "name": "VOCDONI_PROCESS",
      "outputs": [
        {
          "internalType": "address",
          "name": "",
          "type": "address"
        }
      ],
      "stateMutability": "view",
      "type": "function"
    },
    {
      "inputs": [],
      "name": "VOCDONI_RESULTS",
      "outputs": [
        {
          "internalType": "address",
          "name": "",
          "type": "address"
        }
      ],
      "stateMutability": "view",
      "type": "function"
    },
    {
      "inputs": [
        {
          "internalType": "address",
          "name": "",
          "type": "address"
        }
      ],
      "name": "addressToArbitrator",
      "outputs": [
        {
          "internalType": "address",
          "name": "universalAddress",
          "type": "address"
        },
        {
          "internalType": "address",
          "name": "vote",
          "type": "address"
        },
        {
          "internalType": "bool",
          "name": "voted",
          "type": "bool"
        }
      ],
      "stateMutability": "view",
      "type": "function"
    },
    {
      "inputs": [
        {
          "internalType": "address",
          "name": "",
          "type": "address"
        }
      ],
      "name": "addressToReputationStake",
      "outputs": [
        {
          "internalType": "uint256",
          "name": "",
          "type": "uint256"
        }
      ],
      "stateMutability": "view",
      "type": "function"
    },
    {
      "inputs": [
        {
          "internalType": "uint256",
          "name": "",
          "type": "uint256"
        }
      ],
      "name": "arbitrators",
      "outputs": [
        {
          "internalType": "address",
          "name": "",
          "type": "address"
        }
      ],
      "stateMutability": "view",
      "type": "function"
    },
    {
      "inputs": [],
      "name": "checkDispute",
      "outputs": [],
      "stateMutability": "nonpayable",
      "type": "function"
    },
    {
      "inputs": [],
      "name": "complaintMetadataPointer",
      "outputs": [
        {
          "internalType": "bytes32",
          "name": "",
          "type": "bytes32"
        }
      ],
      "stateMutability": "view",
      "type": "function"
    },
    {
      "inputs": [],
      "name": "complaintResponseMetadataPointer",
      "outputs": [
        {
          "internalType": "bytes32",
          "name": "",
          "type": "bytes32"
        }
      ],
      "stateMutability": "view",
      "type": "function"
    },
    {
      "inputs": [],
      "name": "exitDispute",
      "outputs": [],
      "stateMutability": "nonpayable",
      "type": "function"
    },
    {
      "inputs": [
        {
          "components": [
            {
              "internalType": "uint256",
              "name": "nonce",
              "type": "uint256"
            },
            {
              "internalType": "uint256",
              "name": "expiry",
              "type": "uint256"
            },
            {
              "internalType": "uint8",
              "name": "v",
              "type": "uint8"
            },
            {
              "internalType": "bytes32",
              "name": "r",
              "type": "bytes32"
            },
            {
              "internalType": "bytes32",
              "name": "s",
              "type": "bytes32"
            }
          ],
          "internalType": "struct Transaction.EIP712ERC20Permit",
          "name": "allow",
          "type": "tuple"
        },
        {
          "components": [
            {
              "internalType": "uint256",
              "name": "nonce",
              "type": "uint256"
            },
            {
              "internalType": "uint256",
              "name": "expiry",
              "type": "uint256"
            },
            {
              "internalType": "uint8",
              "name": "v",
              "type": "uint8"
            },
            {
              "internalType": "bytes32",
              "name": "r",
              "type": "bytes32"
            },
            {
              "internalType": "bytes32",
              "name": "s",
              "type": "bytes32"
            }
          ],
          "internalType": "struct Transaction.EIP712ERC20Permit",
          "name": "deny",
          "type": "tuple"
        }
      ],
      "name": "joinDispute",
      "outputs": [
        {
          "internalType": "int256",
          "name": "",
          "type": "int256"
        }
      ],
      "stateMutability": "nonpayable",
      "type": "function"
    },
    {
      "inputs": [],
      "name": "scheduler",
      "outputs": [
        {
          "internalType": "contract SchedulerInterface",
          "name": "",
          "type": "address"
        }
      ],
      "stateMutability": "view",
      "type": "function"
    },
    {
      "inputs": [],
      "name": "startDate",
      "outputs": [
        {
          "internalType": "uint256",
          "name": "",
          "type": "uint256"
        }
      ],
      "stateMutability": "view",
      "type": "function"
    },
    {
      "inputs": [],
      "name": "verifyArbitrationCount",
      "outputs": [
        {
          "internalType": "int256",
          "name": "",
          "type": "int256"
        }
      ],
      "stateMutability": "nonpayable",
      "type": "function"
    }
  ],
  "bytecode": "0x61018060405260006004553480156200001757600080fd5b5060405162000d8c38038062000d8c8339810160408190526200003a9162000238565b6001600160a01b0385166200004e57600080fd5b606085901b6001600160601b0319166101405260006101608190526101008181526101208290526005805460ff191690554260805260038054610100600160a81b0319166001600160a01b0388811690930217905560c085905260e084905260a091909152604080516326aa3d6d60e11b8152905187928316918291634d547ada91600480820192602092909190829003018186803b158015620000f157600080fd5b505afa15801562000106573d6000803e3d6000fd5b505050506040513d601f19601f820116820180604052508101906200012c919062000213565b6001600160a01b0316826001600160a01b0316638da5cb5b6040518163ffffffff1660e01b815260040160206040518083038186803b1580156200016f57600080fd5b505afa15801562000184573d6000803e3d6000fd5b505050506040513d601f19601f82011682018060405250810190620001aa919062000213565b6040513081526001600160a01b0391909116907f543ce58a402eef272498a9d9ca93ca216aed1cbe238711e9e13d645ac1d322359060200160405180910390a450505050505062000367565b80516001600160a01b03811681146200020e57600080fd5b919050565b6000602082840312156200022657600080fd5b6200023182620001f6565b9392505050565b600080600080600060a086880312156200025157600080fd5b6200025c86620001f6565b945060206200026d818801620001f6565b6040880151606089015160808a015192975090955093506001600160401b03808211156200029a57600080fd5b818901915089601f830112620002af57600080fd5b815181811115620002c457620002c462000351565b604051601f8201601f19908116603f01168101908382118183101715620002ef57620002ef62000351565b816040528281528c868487010111156200030857600080fd5b600093505b828410156200032c57848401860151818501870152928501926200030d565b828411156200033e5760008684830101525b8096505050505050509295509295909350565b634e487b7160e01b600052604160045260246000fd5b60805160a05160c05160e0516101005160601c6101205160601c6101405160601c6101605160601c6109a8620003e4600039600050506000610398015260006101f201526000610296015260006102bd01526000610163015260008181610244015281816105cf01526107aa0152600061010a01526109a86000f3fe608060405234801561001057600080fd5b50600436106100ea5760003560e01c80639885a80b1161008c578063d1ad17bf11610066578063d1ad17bf14610266578063d8025a801461027e578063e3d92bf714610291578063ffe1ee9d146102b857600080fd5b80639885a80b146101ed578063a6430cc01461022c578063b294ed131461023f57600080fd5b80634a60e34f116100c85780634a60e34f1461014c57806377e8fd9c146101565780637e291d851461015e5780638e93d1d51461018557600080fd5b80630b8c23e4146100ef5780630b97bc86146101055780632febb58d1461012c575b600080fd5b60005b6040519081526020015b60405180910390f35b6100f27f000000000000000000000000000000000000000000000000000000000000000081565b6100f261013a366004610825565b60016020526000908152604090205481565b6101546102df565b005b610154610318565b6100f27f000000000000000000000000000000000000000000000000000000000000000081565b6101c5610193366004610825565b600060208190529081526040902080546001909101546001600160a01b0391821691811690600160a01b900460ff1683565b604080516001600160a01b0394851681529390921660208401521515908201526060016100fc565b6102147f000000000000000000000000000000000000000000000000000000000000000081565b6040516001600160a01b0390911681526020016100fc565b61021461023a36600461089c565b610332565b6100f27f000000000000000000000000000000000000000000000000000000000000000081565b6003546102149061010090046001600160a01b031681565b6100f261028c366004610866565b61035c565b6102147f000000000000000000000000000000000000000000000000000000000000000081565b6100f27f000000000000000000000000000000000000000000000000000000000000000081565b60055460019060ff1660028111156102f9576102f9610947565b81600281111561030b5761030b610947565b1461031557600080fd5b50565b60055460009060ff1660028111156102f9576102f9610947565b6002818154811061034257600080fd5b6000918252602090912001546001600160a01b0316905081565b600554600090819060ff16600281111561037857610378610947565b81600281111561038a5761038a610947565b1461039457600080fd5b60007f000000000000000000000000000000000000000000000000000000000000000090506000816001600160a01b031663bf9321fc6040518163ffffffff1660e01b8152600401602060405180830381600087803b1580156103f657600080fd5b505af115801561040a573d6000803e3d6000fd5b505050506040513d601f19601f8201168201806040525081019061042e9190610849565b9050806001600160a01b0316638fcbaf0c836001600160a01b0316638da5cb5b6040518163ffffffff1660e01b815260040160206040518083038186803b15801561047857600080fd5b505afa15801561048c573d6000803e3d6000fd5b505050506040513d601f19601f820116820180604052508101906104b09190610849565b30893560208b013560016104ca60608e0160408f016108b5565b8d606001358e608001356040518963ffffffff1660e01b81526004016104f79897969594939291906108d8565b600060405180830381600087803b15801561051157600080fd5b505af1158015610525573d6000803e3d6000fd5b50505050806001600160a01b031663f2d5d56b836001600160a01b0316638da5cb5b6040518163ffffffff1660e01b815260040160206040518083038186803b15801561057157600080fd5b505afa158015610585573d6000803e3d6000fd5b505050506040513d601f19601f820116820180604052508101906105a99190610849565b6040516001600160e01b031960e084901b1681526001600160a01b0390911660048201527f00000000000000000000000000000000000000000000000000000000000000006024820152604401600060405180830381600087803b15801561061057600080fd5b505af1158015610624573d6000803e3d6000fd5b50505050806001600160a01b0316638fcbaf0c836001600160a01b0316638da5cb5b6040518163ffffffff1660e01b815260040160206040518083038186803b15801561067057600080fd5b505afa158015610684573d6000803e3d6000fd5b505050506040513d601f19601f820116820180604052508101906106a89190610849565b306106b58a356001610921565b60208a013560006106cc60608d0160408e016108b5565b8c606001358d608001356040518963ffffffff1660e01b81526004016106f99897969594939291906108d8565b600060405180830381600087803b15801561071357600080fd5b505af1158015610727573d6000803e3d6000fd5b505050506108043360408051606081018252600080825260208083018281528385018381526001600160a01b03968716808552848452868520955186549089166001600160a01b031991821617875592516001968701805493511515600160a01b026001600160a81b0319909416919099161791909117909655908390529281207f0000000000000000000000000000000000000000000000000000000000000000905560028054928301815590527f405787fa12a823e0f2b7631cc41b3ba8828b3321ca811111fa75cd3aa3bb5ace0180549091169091179055565b50505092915050565b600060a0828403121561081f57600080fd5b50919050565b60006020828403121561083757600080fd5b81356108428161095d565b9392505050565b60006020828403121561085b57600080fd5b81516108428161095d565b600080610140838503121561087a57600080fd5b610884848461080d565b91506108938460a0850161080d565b90509250929050565b6000602082840312156108ae57600080fd5b5035919050565b6000602082840312156108c757600080fd5b813560ff8116811461084257600080fd5b6001600160a01b039889168152969097166020870152604086019490945260608501929092521515608084015260ff1660a083015260c082015260e08101919091526101000190565b6000821982111561094257634e487b7160e01b600052601160045260246000fd5b500190565b634e487b7160e01b600052602160045260246000fd5b6001600160a01b038116811461031557600080fdfea2646970667358221220c2079daf25ff8a55de15f85f489084556cbb69d02142ce0542c0496c4406470364736f6c63430008070033",
  "linkReferences": {},
  "deployedLinkReferences": {}
}