{
  "_format": "hh-sol-artifact-1",
  "contractName": "Dispute",
  "sourceName": "contracts/dispute/Dispute.sol",
  "abi": [
    {
      "inputs": [
        {
          "internalType": "address",
          "name": "_relationship",
          "type": "address"
        },
        {
          "internalType": "address",
          "name": "_scheduler",
          "type": "address"
        },
        {
          "internalType": "bytes32",
          "name": "_complaintMetadataPointer",
          "type": "bytes32"
        },
        {
          "internalType": "bytes32",
          "name": "_complaintResponseMetadataPointer",
          "type": "bytes32"
        }
      ],
      "stateMutability": "nonpayable",
      "type": "constructor"
    },
    {
      "anonymous": false,
      "inputs": [
        {
          "indexed": true,
          "internalType": "address",
          "name": "_employer",
          "type": "address"
        },
        {
          "indexed": true,
          "internalType": "address",
          "name": "_worker",
          "type": "address"
        },
        {
          "indexed": true,
          "internalType": "address",
          "name": "_relationship",
          "type": "address"
        },
        {
          "indexed": false,
          "internalType": "address",
          "name": "_dispute",
          "type": "address"
        }
      ],
      "name": "DisputeCreated",
      "type": "event"
    },
    {
      "anonymous": false,
      "inputs": [
        {
          "indexed": true,
          "internalType": "address",
          "name": "_relationship",
          "type": "address"
        }
      ],
      "name": "DisputeResolved",
      "type": "event"
    },
    {
      "anonymous": false,
      "inputs": [
        {
          "indexed": true,
          "internalType": "address",
          "name": "_arbitrator",
          "type": "address"
        },
        {
          "indexed": true,
          "internalType": "address",
          "name": "_relationship",
          "type": "address"
        },
        {
          "indexed": false,
          "internalType": "address",
          "name": "_vote",
          "type": "address"
        }
      ],
      "name": "DisputeVote",
      "type": "event"
    },
    {
      "inputs": [],
      "name": "DISPUTE_STAKE",
      "outputs": [
        {
          "internalType": "uint256",
          "name": "",
          "type": "uint256"
        }
      ],
      "stateMutability": "view",
      "type": "function"
    },
    {
      "inputs": [],
      "name": "INITIALIZE_DISPUTE_TYPEHASH",
      "outputs": [
        {
          "internalType": "bytes32",
          "name": "",
          "type": "bytes32"
        }
      ],
      "stateMutability": "view",
      "type": "function"
    },
    {
      "inputs": [
        {
          "internalType": "address",
          "name": "",
          "type": "address"
        }
      ],
      "name": "addressToArbitrator",
      "outputs": [
        {
          "internalType": "address",
          "name": "universalAddress",
          "type": "address"
        },
        {
          "internalType": "address",
          "name": "vote",
          "type": "address"
        },
        {
          "internalType": "bool",
          "name": "voted",
          "type": "bool"
        }
      ],
      "stateMutability": "view",
      "type": "function"
    },
    {
      "inputs": [
        {
          "internalType": "address",
          "name": "",
          "type": "address"
        }
      ],
      "name": "addressToReputationStake",
      "outputs": [
        {
          "internalType": "uint256",
          "name": "",
          "type": "uint256"
        }
      ],
      "stateMutability": "view",
      "type": "function"
    },
    {
      "inputs": [
        {
          "internalType": "uint256",
          "name": "",
          "type": "uint256"
        }
      ],
      "name": "arbitrators",
      "outputs": [
        {
          "internalType": "address",
          "name": "",
          "type": "address"
        }
      ],
      "stateMutability": "view",
      "type": "function"
    },
    {
      "inputs": [],
      "name": "checkDisputeArbitration",
      "outputs": [
        {
          "internalType": "int256",
          "name": "",
          "type": "int256"
        }
      ],
      "stateMutability": "nonpayable",
      "type": "function"
    },
    {
      "inputs": [],
      "name": "complaintMetadataPointer",
      "outputs": [
        {
          "internalType": "bytes32",
          "name": "",
          "type": "bytes32"
        }
      ],
      "stateMutability": "view",
      "type": "function"
    },
    {
      "inputs": [],
      "name": "complaintResponseMetadataPointer",
      "outputs": [
        {
          "internalType": "bytes32",
          "name": "",
          "type": "bytes32"
        }
      ],
      "stateMutability": "view",
      "type": "function"
    },
    {
      "inputs": [],
      "name": "domain_separator",
      "outputs": [
        {
          "internalType": "bytes32",
          "name": "",
          "type": "bytes32"
        }
      ],
      "stateMutability": "view",
      "type": "function"
    },
    {
      "inputs": [
        {
          "components": [
            {
              "internalType": "uint256",
              "name": "nonce",
              "type": "uint256"
            },
            {
              "internalType": "uint256",
              "name": "expiry",
              "type": "uint256"
            },
            {
              "internalType": "uint8",
              "name": "v",
              "type": "uint8"
            },
            {
              "internalType": "bytes32",
              "name": "r",
              "type": "bytes32"
            },
            {
              "internalType": "bytes32",
              "name": "s",
              "type": "bytes32"
            }
          ],
          "internalType": "struct Transaction.EIP712ERC20Permit",
          "name": "allow",
          "type": "tuple"
        },
        {
          "components": [
            {
              "internalType": "uint256",
              "name": "nonce",
              "type": "uint256"
            },
            {
              "internalType": "uint256",
              "name": "expiry",
              "type": "uint256"
            },
            {
              "internalType": "uint8",
              "name": "v",
              "type": "uint8"
            },
            {
              "internalType": "bytes32",
              "name": "r",
              "type": "bytes32"
            },
            {
              "internalType": "bytes32",
              "name": "s",
              "type": "bytes32"
            }
          ],
          "internalType": "struct Transaction.EIP712ERC20Permit",
          "name": "deny",
          "type": "tuple"
        }
      ],
      "name": "joinDispute",
      "outputs": [
        {
          "internalType": "int256",
          "name": "",
          "type": "int256"
        }
      ],
      "stateMutability": "nonpayable",
      "type": "function"
    },
    {
      "inputs": [],
      "name": "scheduler",
      "outputs": [
        {
          "internalType": "contract SchedulerInterface",
          "name": "",
          "type": "address"
        }
      ],
      "stateMutability": "view",
      "type": "function"
    },
    {
      "inputs": [],
      "name": "startDate",
      "outputs": [
        {
          "internalType": "uint256",
          "name": "",
          "type": "uint256"
        }
      ],
      "stateMutability": "view",
      "type": "function"
    },
    {
      "inputs": [
        {
          "internalType": "address",
          "name": "vote",
          "type": "address"
        }
      ],
      "name": "vote",
      "outputs": [],
      "stateMutability": "nonpayable",
      "type": "function"
    }
  ],
  "bytecode": "0x61012060405260006004553480156200001757600080fd5b5060405162001718380380620017188339810160408190526200003a9162000303565b6001600160a01b0384166200004e57600080fd5b606084811b6001600160601b031916610100526005805460ff19169055426080908152600380546001600160a01b0387166001600160a01b031990911617905560a084815260c084815260408051808201825260078152664469737075746560c81b6020918201528151808301835260018152603160f81b9082015281517f8b73c3c69bb8fe3d512ecc4cf759cc79239f7b179b0ffacaa9a75d522b39400f918101919091527f04b273a0968087d38ef081b4cff37a55e03b55b8757862001d9ef2cb4b174038918101919091527fc89efdaa54c0f20c7adf612882df0950f5a951637e0307cdcb4c672f298b8bc6948101949094524660ff811693850193909352309184019190915286920160408051601f19818403018152828252805160209182012060e052638da5cb5b60e01b835290516200026a926001600160a01b03861692638da5cb5b92600480840193829003018186803b158015620001b357600080fd5b505afa158015620001c8573d6000803e3d6000fd5b505050506040513d601f19601f82011682018060405250810190620001ee9190620002de565b836001600160a01b0316634d547ada6040518163ffffffff1660e01b815260040160206040518083038186803b1580156200022857600080fd5b505afa1580156200023d573d6000803e3d6000fd5b505050506040513d601f19601f82011682018060405250810190620002639190620002de565b8862000276565b5050505050506200034b565b6040513081526001600160a01b0380831691848216918616907f543ce58a402eef272498a9d9ca93ca216aed1cbe238711e9e13d645ac1d322359060200160405180910390a4505050565b80516001600160a01b0381168114620002d957600080fd5b919050565b600060208284031215620002f157600080fd5b620002fc82620002c1565b9392505050565b600080600080608085870312156200031a57600080fd5b6200032585620002c1565b93506200033560208601620002c1565b6040860151606090960151949790965092505050565b60805160a05160c05160e0516101005160601c611363620003b5600039600081816103c80152818161071b01528181610e1a0152610ef601526000610239015260006102860152600061014801526000818160d901528181610422015261044c01526113636000f3fe608060405234801561001057600080fd5b50600436106100cf5760003560e01c8063a6430cc01161008c578063bfce14ea11610066578063bfce14ea14610234578063d1ad17bf1461025b578063d8025a801461026e578063ffe1ee9d1461028157600080fd5b8063a6430cc0146101f9578063b110d37114610224578063b294ed131461022c57600080fd5b80630b97bc86146100d45780632febb58d1461010e5780636dd7d8ea1461012e5780637e291d85146101435780637fdf2a011461016a5780638e93d1d514610191575b600080fd5b6100fb7f000000000000000000000000000000000000000000000000000000000000000081565b6040519081526020015b60405180910390f35b6100fb61011c366004611142565b60016020526000908152604090205481565b61014161013c366004611142565b6102a8565b005b6100fb7f000000000000000000000000000000000000000000000000000000000000000081565b6100fb7fa5a0f8d2bd9a801d7bf3de4cb7f728cdbb90e91a22e6db05e58dd4a9b0bd280e81565b6101d161019f366004611142565b600060208190529081526040902080546001909101546001600160a01b0391821691811690600160a01b900460ff1683565b604080516001600160a01b039485168152939092166020840152151590820152606001610105565b61020c6102073660046111d4565b6103f1565b6040516001600160a01b039091168152602001610105565b6100fb61041b565b6100fb600581565b6100fb7f000000000000000000000000000000000000000000000000000000000000000081565b60035461020c906001600160a01b031681565b6100fb61027c36600461119e565b610659565b6100fb7f000000000000000000000000000000000000000000000000000000000000000081565b60055460019060ff1660028111156102c2576102c26112e9565b8160028111156102d4576102d46112e9565b146102de57600080fd5b3360009081526020818152604091829020825160608101845281546001600160a01b03908116825260019092015491821692810192909252600160a01b900460ff16158015928201929092529061038c5760405162461bcd60e51b815260206004820152602760248201527f596f75206861766520616c726561647920766f74656420696e2074686973206460448201526634b9b83aba329760c91b60648201526084015b60405180910390fd5b6001600160a01b038316602082015260016040820152600480549060006103b38380611259565b9091555050600454600514156103ec576103ec7f0000000000000000000000000000000000000000000000000000000000000000610b52565b505050565b6002818154811061040157600080fd5b6000918252602090912001546001600160a01b0316905081565b600061044a7f00000000000000000000000000000000000000000000000000000000000000006203f480611259565b7f0000000000000000000000000000000000000000000000000000000000000000106106565760005b60025481101561063d57600080600060028481548110610495576104956112ff565b6000918252602080832091909101546001600160a01b0390811684528382019490945260409283018220835160608101855281548616815260019091015494851691810191909152600160a01b90930460ff161515918301919091526002805492935090918291908590811061050d5761050d6112ff565b60009182526020808320909101546001600160a01b0316835282019290925260400190206001015460ff600160a01b9091041661062a57604051806060016040528060006001600160a01b0316815260200160006001600160a01b03168152602001600015158152506000806002858154811061058c5761058c6112ff565b6000918252602080832091909101546001600160a01b039081168452838201949094526040928301909120845181546001600160a01b0319169085161781559084015160019091018054949092015192166001600160a81b031990931692909217600160a01b911515919091021790556002805483908110610610576106106112ff565b600091825260209091200180546001600160a01b03191690555b5080610635816112b8565b915050610473565b5060025460051115610650575060001990565b50600090565b90565b600554600090819060ff166002811115610675576106756112e9565b816002811115610687576106876112e9565b1461069157600080fd5b6002546005116107175760405162461bcd60e51b815260206004820152604560248201527f54686520746f74616c206e756d626572206f662061726269747261746f72732060448201527f68617665206265656e20636f6c6c656374656420666f72207468697320636f6e6064820152641d1c9858dd60da1b608482015260a401610383565b60007f000000000000000000000000000000000000000000000000000000000000000090506000816001600160a01b031663bf9321fc6040518163ffffffff1660e01b8152600401602060405180830381600087803b15801561077957600080fd5b505af115801561078d573d6000803e3d6000fd5b505050506040513d601f19601f820116820180604052508101906107b1919061115f565b9050806001600160a01b0316638fcbaf0c836001600160a01b0316638da5cb5b6040518163ffffffff1660e01b815260040160206040518083038186803b1580156107fb57600080fd5b505afa15801561080f573d6000803e3d6000fd5b505050506040513d601f19601f82011682018060405250810190610833919061115f565b30893560208b0135600161084d60608e0160408f016111ed565b8d606001358e608001356040518963ffffffff1660e01b815260040161087a989796959493929190611210565b600060405180830381600087803b15801561089457600080fd5b505af11580156108a8573d6000803e3d6000fd5b50505050806001600160a01b031663f2d5d56b836001600160a01b0316638da5cb5b6040518163ffffffff1660e01b815260040160206040518083038186803b1580156108f457600080fd5b505afa158015610908573d6000803e3d6000fd5b505050506040513d601f19601f8201168201806040525081019061092c919061115f565b6040516001600160e01b031960e084901b1681526001600160a01b03909116600482015260056024820152604401600060405180830381600087803b15801561097457600080fd5b505af1158015610988573d6000803e3d6000fd5b50505050806001600160a01b0316638fcbaf0c836001600160a01b0316638da5cb5b6040518163ffffffff1660e01b815260040160206040518083038186803b1580156109d457600080fd5b505afa1580156109e8573d6000803e3d6000fd5b505050506040513d601f19601f82011682018060405250810190610a0c919061115f565b30610a198a356001611259565b60208a01356000610a3060608d0160408e016111ed565b8c606001358d608001356040518963ffffffff1660e01b8152600401610a5d989796959493929190611210565b600060405180830381600087803b158015610a7757600080fd5b505af1158015610a8b573d6000803e3d6000fd5b50505050610b493360408051606081018252600080825260208083018281528385018381526001600160a01b03968716808552848452868520955186549089166001600160a01b031991821617875592516001968701805493511515600160a01b026001600160a81b0319909416919099161791909117909655908390529281206005905560028054928301815590527f405787fa12a823e0f2b7631cc41b3ba8828b3321ca811111fa75cd3aa3bb5ace0180549091169091179055565b50505092915050565b60008082815b600454811015610cac5760008060028381548110610b7857610b786112ff565b60009182526020808320909101546001600160a01b03168352820192909252604001902060019081015460ff600160a01b909104161515148015610c75575060008060028381548110610bcd57610bcd6112ff565b60009182526020808320909101546001600160a01b039081168452838201949094526040928301909120600101548251638da5cb5b60e01b8152925190841693861692638da5cb5b926004808301939192829003018186803b158015610c3257600080fd5b505afa158015610c46573d6000803e3d6000fd5b505050506040513d601f19601f82011682018060405250810190610c6a919061115f565b6001600160a01b0316145b15610c8c57610c85600185611271565b9350610c9a565b610c97600184611271565b92505b80610ca4816112b8565b915050610b58565b508160ff168360ff161115610d3a57610d35816001600160a01b0316638da5cb5b6040518163ffffffff1660e01b815260040160206040518083038186803b158015610cf757600080fd5b505afa158015610d0b573d6000803e3d6000fd5b505050506040513d601f19601f82011682018060405250810190610d2f919061115f565b84610dfb565b610db4565b610db4816001600160a01b0316634d547ada6040518163ffffffff1660e01b815260040160206040518083038186803b158015610d7657600080fd5b505afa158015610d8a573d6000803e3d6000fd5b505050506040513d601f19601f82011682018060405250810190610dae919061115f565b83610dfb565b6005805460ff191660021790556040516001600160a01b038516907f8476b4c4cd5f496cfe2043ed12cd9e3e3540e97649536b9aa3fa67f06a7134db90600090a250505050565b604051630b73a87f60e01b81526001600160a01b0383811660048301527f00000000000000000000000000000000000000000000000000000000000000009190821690630b73a87f90602401600060405180830381600087803b158015610e6157600080fd5b505af1158015610e75573d6000803e3d6000fd5b505050506000805b600254811015610ee057610ecc826001600060028581548110610ea257610ea26112ff565b60009182526020808320909101546001600160a01b0316835282019290925260400190205461110b565b915080610ed8816112b8565b915050610e7d565b506000610ef0828560ff1661111e565b905060007f000000000000000000000000000000000000000000000000000000000000000090506000816001600160a01b031663bf9321fc6040518163ffffffff1660e01b8152600401602060405180830381600087803b158015610f5457600080fd5b505af1158015610f68573d6000803e3d6000fd5b505050506040513d601f19601f82011682018060405250810190610f8c919061115f565b905060005b6004548110156111015760008060028381548110610fb157610fb16112ff565b60009182526020808320909101546001600160a01b03168352820192909252604001902060019081015460ff600160a01b90910416151514801561103a575060008060028381548110611006576110066112ff565b60009182526020808320909101546001600160a01b0390811684529083019390935260409091019020600101548982169116145b156110ef57816001600160a01b031663a9059cbb60028381548110611061576110616112ff565b60009182526020909120015460405160e083901b6001600160e01b03191681526001600160a01b03909116600482015260248101879052604401602060405180830381600087803b1580156110b557600080fd5b505af11580156110c9573d6000803e3d6000fd5b505050506040513d601f19601f820116820180604052508101906110ed919061117c565b505b806110f9816112b8565b915050610f91565b5050505050505050565b60006111178284611259565b9392505050565b60006111178284611296565b600060a0828403121561113c57600080fd5b50919050565b60006020828403121561115457600080fd5b813561111781611315565b60006020828403121561117157600080fd5b815161111781611315565b60006020828403121561118e57600080fd5b8151801515811461111757600080fd5b60008061014083850312156111b257600080fd5b6111bc848461112a565b91506111cb8460a0850161112a565b90509250929050565b6000602082840312156111e657600080fd5b5035919050565b6000602082840312156111ff57600080fd5b813560ff8116811461111757600080fd5b6001600160a01b039889168152969097166020870152604086019490945260608501929092521515608084015260ff1660a083015260c082015260e08101919091526101000190565b6000821982111561126c5761126c6112d3565b500190565b600060ff821660ff84168060ff0382111561128e5761128e6112d3565b019392505050565b6000826112b357634e487b7160e01b600052601260045260246000fd5b500490565b60006000198214156112cc576112cc6112d3565b5060010190565b634e487b7160e01b600052601160045260246000fd5b634e487b7160e01b600052602160045260246000fd5b634e487b7160e01b600052603260045260246000fd5b6001600160a01b038116811461132a57600080fd5b5056fea2646970667358221220daa84aff6bc79613432f517d2ce7a9c829a7cbafb7763542d96779101463e0f264736f6c63430008070033",
  "linkReferences": {},
  "deployedLinkReferences": {}
}