{
  "_format": "hh-sol-artifact-1",
  "contractName": "Dispute",
  "sourceName": "contracts/dispute/Dispute.sol",
  "abi": [
    {
      "inputs": [
        {
          "internalType": "address",
          "name": "_relationship",
          "type": "address"
        },
        {
          "internalType": "address",
          "name": "_scheduler",
          "type": "address"
        }
      ],
      "stateMutability": "nonpayable",
      "type": "constructor"
    },
    {
      "anonymous": false,
      "inputs": [
        {
          "indexed": true,
          "internalType": "address",
          "name": "_employer",
          "type": "address"
        },
        {
          "indexed": true,
          "internalType": "address",
          "name": "_worker",
          "type": "address"
        },
        {
          "indexed": true,
          "internalType": "address",
          "name": "_relationship",
          "type": "address"
        }
      ],
      "name": "DisputeCreated",
      "type": "event"
    },
    {
      "anonymous": false,
      "inputs": [
        {
          "indexed": true,
          "internalType": "address",
          "name": "_relationship",
          "type": "address"
        }
      ],
      "name": "DisputeResolved",
      "type": "event"
    },
    {
      "anonymous": false,
      "inputs": [
        {
          "indexed": true,
          "internalType": "address",
          "name": "_arbitrator",
          "type": "address"
        },
        {
          "indexed": true,
          "internalType": "address",
          "name": "_relationship",
          "type": "address"
        },
        {
          "indexed": false,
          "internalType": "address",
          "name": "_vote",
          "type": "address"
        }
      ],
      "name": "DisputeVote",
      "type": "event"
    },
    {
      "inputs": [],
      "name": "INITIALIZE_DISPUTE_TYPEHASH",
      "outputs": [
        {
          "internalType": "bytes32",
          "name": "",
          "type": "bytes32"
        }
      ],
      "stateMutability": "view",
      "type": "function"
    },
    {
      "inputs": [
        {
          "internalType": "address",
          "name": "",
          "type": "address"
        }
      ],
      "name": "addressToArbitrator",
      "outputs": [
        {
          "internalType": "address",
          "name": "universalAddress",
          "type": "address"
        },
        {
          "internalType": "address",
          "name": "vote",
          "type": "address"
        },
        {
          "internalType": "bool",
          "name": "voted",
          "type": "bool"
        }
      ],
      "stateMutability": "view",
      "type": "function"
    },
    {
      "inputs": [
        {
          "internalType": "address",
          "name": "",
          "type": "address"
        }
      ],
      "name": "addressToReputationStake",
      "outputs": [
        {
          "internalType": "uint256",
          "name": "",
          "type": "uint256"
        }
      ],
      "stateMutability": "view",
      "type": "function"
    },
    {
      "inputs": [
        {
          "internalType": "uint256",
          "name": "",
          "type": "uint256"
        }
      ],
      "name": "arbitrators",
      "outputs": [
        {
          "internalType": "address",
          "name": "",
          "type": "address"
        }
      ],
      "stateMutability": "view",
      "type": "function"
    },
    {
      "inputs": [],
      "name": "checkDisputeArbitration",
      "outputs": [
        {
          "internalType": "int256",
          "name": "",
          "type": "int256"
        }
      ],
      "stateMutability": "nonpayable",
      "type": "function"
    },
    {
      "inputs": [],
      "name": "domain_separator",
      "outputs": [
        {
          "internalType": "bytes32",
          "name": "",
          "type": "bytes32"
        }
      ],
      "stateMutability": "view",
      "type": "function"
    },
    {
      "inputs": [],
      "name": "joinDispute",
      "outputs": [
        {
          "internalType": "int256",
          "name": "",
          "type": "int256"
        }
      ],
      "stateMutability": "nonpayable",
      "type": "function"
    },
    {
      "inputs": [],
      "name": "scheduler",
      "outputs": [
        {
          "internalType": "contract SchedulerInterface",
          "name": "",
          "type": "address"
        }
      ],
      "stateMutability": "view",
      "type": "function"
    },
    {
      "inputs": [],
      "name": "startDate",
      "outputs": [
        {
          "internalType": "uint256",
          "name": "",
          "type": "uint256"
        }
      ],
      "stateMutability": "view",
      "type": "function"
    },
    {
      "inputs": [
        {
          "internalType": "address",
          "name": "vote",
          "type": "address"
        }
      ],
      "name": "vote",
      "outputs": [],
      "stateMutability": "nonpayable",
      "type": "function"
    }
  ],
  "bytecode": "0x60e060405260006004553480156200001657600080fd5b5060405162001a6838038062001a688339810160408190526200003991620002fb565b6001600160a01b0382166200004d57600080fd5b606082811b6001600160601b03191660c09081526005805460ff19169055426080908152600380546001600160a01b0386166001600160a01b031990911617905560408051808201825260078152664469737075746560c81b6020918201528151808301835260018152603160f81b9082015281517f8b73c3c69bb8fe3d512ecc4cf759cc79239f7b179b0ffacaa9a75d522b39400f918101919091527f04b273a0968087d38ef081b4cff37a55e03b55b8757862001d9ef2cb4b174038918101919091527fc89efdaa54c0f20c7adf612882df0950f5a951637e0307cdcb4c672f298b8bc6938101939093524660ff8116918401919091523060a0840152849290910160408051601f19818403018152828252805160209182012060a052638da5cb5b60e01b8352905162000260926001600160a01b03861692638da5cb5b92600480840193829003018186803b158015620001a957600080fd5b505afa158015620001be573d6000803e3d6000fd5b505050506040513d601f19601f82011682018060405250810190620001e49190620002d6565b836001600160a01b0316634d547ada6040518163ffffffff1660e01b815260040160206040518083038186803b1580156200021e57600080fd5b505afa15801562000233573d6000803e3d6000fd5b505050506040513d601f19601f82011682018060405250810190620002599190620002d6565b866200026a565b5050505062000333565b806001600160a01b0316826001600160a01b0316846001600160a01b03167fef5004fbc727a394eb47673cbdd28b705c06c6ad39410b806484757c2d1fd35460405160405180910390a4505050565b80516001600160a01b0381168114620002d157600080fd5b919050565b600060208284031215620002e957600080fd5b620002f482620002b9565b9392505050565b600080604083850312156200030f57600080fd5b6200031a83620002b9565b91506200032a60208401620002b9565b90509250929050565b60805160a05160c05160601c6116ee6200037a600039600081816104fd0152610a11015260006101e101526000818160a801528181610557015261058101526116ee6000f3fe608060405234801561001057600080fd5b506004361061009e5760003560e01c80638e93d1d5116100665780638e93d1d514610141578063a6430cc0146101a9578063b110d371146101d4578063bfce14ea146101dc578063d1ad17bf1461020357600080fd5b80630b97bc86146100a35780632febb58d146100dd5780635d1eb441146100fd5780636dd7d8ea146101055780637fdf2a011461011a575b600080fd5b6100ca7f000000000000000000000000000000000000000000000000000000000000000081565b6040519081526020015b60405180910390f35b6100ca6100eb366004610a81565b60016020526000908152604090205481565b6100ca610216565b610118610113366004610a81565b6103e2565b005b6100ca7fa5a0f8d2bd9a801d7bf3de4cb7f728cdbb90e91a22e6db05e58dd4a9b0bd280e81565b61018161014f366004610a81565b600060208190529081526040902080546001909101546001600160a01b0391821691811690600160a01b900460ff1683565b604080516001600160a01b0394851681529390921660208401521515908201526060016100d4565b6101bc6101b7366004610ac2565b610526565b6040516001600160a01b0390911681526020016100d4565b6100ca610550565b6100ca7f000000000000000000000000000000000000000000000000000000000000000081565b6003546101bc906001600160a01b031681565b600554600090819060ff16600281111561023257610232610b24565b81600281111561024457610244610b24565b1461024e57600080fd5b6002546005116102d95760405162461bcd60e51b815260206004820152604560248201527f54686520746f74616c206e756d626572206f662061726269747261746f72732060448201527f68617665206265656e20636f6c6c656374656420666f72207468697320636f6e6064820152641d1c9858dd60da1b608482015260a4015b60405180910390fd5b6000336040516102e890610a74565b6001600160a01b039091168152602001604051809103906000f080158015610314573d6000803e3d6000fd5b50905060006103d7338260408051606081018252600080825260208083018281528385018381526001600160a01b0397881680855284845286852095518654908a166001600160a01b031991821617875592516001968701805493511515600160a01b026001600160a81b031990941691909a16179190911790975590839052928120939093556002805491820181559092527f405787fa12a823e0f2b7631cc41b3ba8828b3321ca811111fa75cd3aa3bb5ace90910180549091169091179055565b600019935050505090565b60055460019060ff1660028111156103fc576103fc610b24565b81600281111561040e5761040e610b24565b1461041857600080fd5b3360009081526020818152604091829020825160608101845281546001600160a01b03908116825260019092015491821692810192909252600160a01b900460ff1615801592820192909252906104c15760405162461bcd60e51b815260206004820152602760248201527f596f75206861766520616c726561647920766f74656420696e2074686973206460448201526634b9b83aba329760c91b60648201526084016102d0565b6001600160a01b038316602082015260016040820152600480549060006104e88380610adb565b909155505060045460051415610521576105217f000000000000000000000000000000000000000000000000000000000000000061078e565b505050565b6002818154811061053657600080fd5b6000918252602090912001546001600160a01b0316905081565b600061057f7f00000000000000000000000000000000000000000000000000000000000000006203f480610adb565b7f00000000000000000000000000000000000000000000000000000000000000001061078b5760005b600254811015610772576000806000600284815481106105ca576105ca610b3a565b6000918252602080832091909101546001600160a01b0390811684528382019490945260409283018220835160608101855281548616815260019091015494851691810191909152600160a01b90930460ff161515918301919091526002805492935090918291908590811061064257610642610b3a565b60009182526020808320909101546001600160a01b0316835282019290925260400190206001015460ff600160a01b9091041661075f57604051806060016040528060006001600160a01b0316815260200160006001600160a01b0316815260200160001515815250600080600285815481106106c1576106c1610b3a565b6000918252602080832091909101546001600160a01b039081168452838201949094526040928301909120845181546001600160a01b0319169085161781559084015160019091018054949092015192166001600160a81b031990931692909217600160a01b91151591909102179055600280548390811061074557610745610b3a565b600091825260209091200180546001600160a01b03191690555b508061076a81610af3565b9150506105a8565b5060025460051115610785575060001990565b50600090565b90565b60008082815b6004548110156108e857600080600283815481106107b4576107b4610b3a565b60009182526020808320909101546001600160a01b03168352820192909252604001902060019081015460ff600160a01b9091041615151480156108b157506000806002838154811061080957610809610b3a565b60009182526020808320909101546001600160a01b039081168452838201949094526040928301909120600101548251638da5cb5b60e01b8152925190841693861692638da5cb5b926004808301939192829003018186803b15801561086e57600080fd5b505afa158015610882573d6000803e3d6000fd5b505050506040513d601f19601f820116820180604052508101906108a69190610aa5565b6001600160a01b0316145b156108c8576108c1600185610adb565b93506108d6565b6108d3600184610adb565b92505b806108e081610af3565b915050610794565b508183111561096f5761096a816001600160a01b0316638da5cb5b6040518163ffffffff1660e01b815260040160206040518083038186803b15801561092d57600080fd5b505afa158015610941573d6000803e3d6000fd5b505050506040513d601f19601f820116820180604052508101906109659190610aa5565b6109f2565b6109ab565b6109ab816001600160a01b0316634d547ada6040518163ffffffff1660e01b815260040160206040518083038186803b15801561092d57600080fd5b6005805460ff191660021790556040516001600160a01b038516907f8476b4c4cd5f496cfe2043ed12cd9e3e3540e97649536b9aa3fa67f06a7134db90600090a250505050565b604051630b73a87f60e01b81526001600160a01b0382811660048301527f00000000000000000000000000000000000000000000000000000000000000009190821690630b73a87f90602401600060405180830381600087803b158015610a5857600080fd5b505af1158015610a6c573d6000803e3d6000fd5b505050505050565b610b5080610b6983390190565b600060208284031215610a9357600080fd5b8135610a9e81610b50565b9392505050565b600060208284031215610ab757600080fd5b8151610a9e81610b50565b600060208284031215610ad457600080fd5b5035919050565b60008219821115610aee57610aee610b0e565b500190565b6000600019821415610b0757610b07610b0e565b5060010190565b634e487b7160e01b600052601160045260246000fd5b634e487b7160e01b600052602160045260246000fd5b634e487b7160e01b600052603260045260246000fd5b6001600160a01b0381168114610b6557600080fd5b5056fe608060405234801561001057600080fd5b50604051610b50380380610b5083398101604081905261002f9161006a565b600080546001600160a01b039092166001600160a01b031992831681178255600c805490931617909155600180556007819055600a5561009a565b60006020828403121561007c57600080fd5b81516001600160a01b038116811461009357600080fd5b9392505050565b610aa7806100a96000396000f3fe608060405234801561001057600080fd5b50600436106100885760003560e01c80637f306ba11161005b5780637f306ba1146100f45780638da5cb5b14610107578063cebc227314610132578063d4fa571e1461014957600080fd5b80635d5f221f1461008d5780636f61c744146100b55780637c108333146100cc5780637ca97e8c146100e1575b600080fd5b6100a061009b3660046106f5565b610152565b60405190151581526020015b60405180910390f35b6100bd61016f565b6040516100ac93929190610900565b6100df6100da3660046106a9565b6102ed565b005b6100df6100ef366004610779565b610375565b6100df6101023660046106cb565b610404565b600c5461011a906001600160a01b031681565b6040516001600160a01b0390911681526020016100ac565b61013b60015481565b6040519081526020016100ac565b61013b60025481565b600c546000906001600160a01b031661016a57600080fd5b919050565b60055460038054604080516020808402820181019092528281526060948594600094909360049360ff90931692918591879084015b828210156102505783829060005260206000200180546101c390610a0a565b80601f01602080910402602001604051908101604052809291908181526020018280546101ef90610a0a565b801561023c5780601f106102115761010080835404028352916020019161023c565b820191906000526020600020905b81548152906001019060200180831161021f57829003601f168201915b5050505050815260200190600101906101a4565b50505050925081805461026290610a0a565b80601f016020809104026020016040519081016040528092919081815260200182805461028e90610a0a565b80156102db5780601f106102b0576101008083540402835291602001916102db565b820191906000526020600020905b8154815290600101906020018083116102be57829003601f168201915b50505050509150925092509250909192565b6006805460018101825560009182527ff652222313e28459528d920b65115c16c04f3efc82aaedc97be59f3f377c0d3f0180546001600160a01b0319166001600160a01b03848116919091179091559054604051911681527ffa002e39398e157a85a81542dea7f10c5aaf2806e9a9b75191aaf82eb1917b349060200160405180910390a150565b81518051839160039161038f9183916020909101906104c5565b5060208281015180516103a89260018501920190610522565b50604091820151600291909101805460ff191660ff909216919091179055516001600160a01b03821681527ffa002e39398e157a85a81542dea7f10c5aaf2806e9a9b75191aaf82eb1917b349060200160405180910390a15050565b600c546001600160a01b0383811691161461041e57600080fd5b60015481111561049a5760405162461bcd60e51b815260206004820152603f60248201527f5374616b65642052657075746174696f6e2063616e6e6f74206265206869676860448201527f6572207468616e20796f75722063757272656e742072657075746174696f6e00606482015260840160405180910390fd5b806001546104a891906109f3565b600155600280549060006104bc83806109db565b90915550505050565b828054828255906000526020600020908101928215610512579160200282015b828111156105125782518051610502918491602090910190610522565b50916020019190600101906104e5565b5061051e9291506105a2565b5090565b82805461052e90610a0a565b90600052602060002090601f0160209004810192826105505760008555610596565b82601f1061056957805160ff1916838001178555610596565b82800160010185558215610596579182015b8281111561059657825182559160200191906001019061057b565b5061051e9291506105bf565b8082111561051e5760006105b682826105d4565b506001016105a2565b5b8082111561051e57600081556001016105c0565b5080546105e090610a0a565b6000825580601f106105f0575050565b601f01602090049060005260206000209081019061060e91906105bf565b50565b80356001600160a01b038116811461016a57600080fd5b600082601f83011261063957600080fd5b813567ffffffffffffffff81111561065357610653610a5b565b610666601f8201601f19166020016109aa565b81815284602083860101111561067b57600080fd5b816020850160208301376000918101602001919091529392505050565b803560ff8116811461016a57600080fd5b6000602082840312156106bb57600080fd5b6106c482610611565b9392505050565b600080604083850312156106de57600080fd5b6106e783610611565b946020939093013593505050565b60006020828403121561070757600080fd5b813567ffffffffffffffff8082111561071f57600080fd5b908301906060828603121561073357600080fd5b61073b610981565b82358281111561074a57600080fd5b61075687828601610628565b825250602083013560208201526040830135604082015280935050505092915050565b6000806040838503121561078c57600080fd5b823567ffffffffffffffff808211156107a457600080fd5b90840190606082870312156107b857600080fd5b6107c0610981565b8235828111156107cf57600080fd5b8301601f810188136107e057600080fd5b80356020848211156107f4576107f4610a5b565b8160051b6108038282016109aa565b8381528281019085840183870185018e101561081e57600080fd5b600093505b8584101561085d5780358981111561083a57600080fd5b6108488f87838b0101610628565b84525060019390930192918401918401610823565b50865250508581013592508483111561087557600080fd5b6108818a848801610628565b8185015261089160408701610698565b60408501528397506108a4818a01610611565b96505050505050509250929050565b6000815180845260005b818110156108d9576020818501810151868301820152016108bd565b818111156108eb576000602083870101525b50601f01601f19169290920160200192915050565b6000606082016060835280865180835260808501915060808160051b8601019250602080890160005b8381101561095757607f198887030185526109458683516108b3565b95509382019390820190600101610929565b50508584038187015250505061096d81866108b3565b91505060ff83166040830152949350505050565b6040516060810167ffffffffffffffff811182821017156109a4576109a4610a5b565b60405290565b604051601f8201601f1916810167ffffffffffffffff811182821017156109d3576109d3610a5b565b604052919050565b600082198211156109ee576109ee610a45565b500190565b600082821015610a0557610a05610a45565b500390565b600181811c90821680610a1e57607f821691505b60208210811415610a3f57634e487b7160e01b600052602260045260246000fd5b50919050565b634e487b7160e01b600052601160045260246000fd5b634e487b7160e01b600052604160045260246000fdfea2646970667358221220d6b62689cfbb74eccc889587b38a02ef7131d5e2cb4af4869a4f0cac9664bd6264736f6c63430008070033a2646970667358221220db93a67a07c7f6fa12c40fa1d06bbefa4d934b41941a3f7b267a2b2c21a7145e64736f6c63430008070033",
  "linkReferences": {},
  "deployedLinkReferences": {}
}