{
    "contractName": "UserSummary",
    "abi": [
        {
            "inputs": [
                {
                    "internalType": "address",
                    "name": "universalAddress",
                    "type": "address"
                }
            ],
            "stateMutability": "nonpayable",
            "type": "constructor"
        },
        {
            "anonymous": false,
            "inputs": [
                {
                    "indexed": false,
                    "internalType": "address",
                    "name": "universalAddress",
                    "type": "address"
                }
            ],
            "name": "UserSummaryUpdate",
            "type": "event"
        },
        {
            "inputs": [
                {
                    "internalType": "address",
                    "name": "market",
                    "type": "address"
                }
            ],
            "name": "createMarket",
            "outputs": [],
            "stateMutability": "nonpayable",
            "type": "function"
        },
        {
            "inputs": [
                {
                    "components": [
                        {
                            "internalType": "string",
                            "name": "industry",
                            "type": "string"
                        },
                        {
                            "internalType": "uint256",
                            "name": "industrylevel",
                            "type": "uint256"
                        },
                        {
                            "internalType": "uint256",
                            "name": "reputation",
                            "type": "uint256"
                        }
                    ],
                    "internalType": "struct Evaluation.EvaluationState",
                    "name": "evaluationState",
                    "type": "tuple"
                }
            ],
            "name": "evaluateUser",
            "outputs": [
                {
                    "internalType": "bool",
                    "name": "",
                    "type": "bool"
                }
            ],
            "stateMutability": "nonpayable",
            "type": "function"
        },
        {
            "inputs": [],
            "name": "getUserProfile",
            "outputs": [
                {
                    "internalType": "string[]",
                    "name": "",
                    "type": "string[]"
                },
                {
                    "internalType": "string",
                    "name": "",
                    "type": "string"
                },
                {
                    "internalType": "uint8",
                    "name": "",
                    "type": "uint8"
                }
            ],
            "stateMutability": "view",
            "type": "function"
        },
        {
            "inputs": [
                {
                    "components": [
                        {
                            "internalType": "string[]",
                            "name": "skills",
                            "type": "string[]"
                        },
                        {
                            "internalType": "string",
                            "name": "profession",
                            "type": "string"
                        },
                        {
                            "internalType": "uint8",
                            "name": "activityLevel",
                            "type": "uint8"
                        }
                    ],
                    "internalType": "struct IUserSummary.Profile",
                    "name": "updatedProfile",
                    "type": "tuple"
                },
                {
                    "internalType": "address",
                    "name": "universalAddress",
                    "type": "address"
                }
            ],
            "name": "updateProfile",
            "outputs": [],
            "stateMutability": "nonpayable",
            "type": "function"
        }
    ],
    "bytecode": "608060405234801561001057600080fd5b5060405161094d38038061094d83398101604081905261002f91610060565b600080546001600160a01b0319166001600160a01b039290921691909117815560018055600681905560095561008e565b600060208284031215610071578081fd5b81516001600160a01b0381168114610087578182fd5b9392505050565b6108b08061009d6000396000f3fe608060405234801561001057600080fd5b506004361061004c5760003560e01c80635d5f221f146100515780636f61c7441461007a5780637c108333146100915780637ca97e8c146100a6575b600080fd5b61006561005f366004610553565b50600090565b60405190151581526020015b60405180910390f35b6100826100b9565b6040516100719392919061074f565b6100a461009f366004610532565b610237565b005b6100a46100b43660046105d3565b6102bf565b60045460028054604080516020808402820181019092528281526060948594600094909360039360ff90931692918591879084015b8282101561019a57838290600052602060002001805461010d90610829565b80601f016020809104026020016040519081016040528092919081815260200182805461013990610829565b80156101865780601f1061015b57610100808354040283529160200191610186565b820191906000526020600020905b81548152906001019060200180831161016957829003601f168201915b5050505050815260200190600101906100ee565b5050505092508180546101ac90610829565b80601f01602080910402602001604051908101604052809291908181526020018280546101d890610829565b80156102255780601f106101fa57610100808354040283529160200191610225565b820191906000526020600020905b81548152906001019060200180831161020857829003601f168201915b50505050509150925092509250909192565b6005805460018101825560009182527f036b6384b5eca791c62761152d0c79bb0604c104a5fb6f4eb0703f3154bb3db00180546001600160a01b0319166001600160a01b03848116919091179091559054604051911681527ffa002e39398e157a85a81542dea7f10c5aaf2806e9a9b75191aaf82eb1917b349060200160405180910390a150565b8151805183916002916102d991839160209091019061034e565b5060208281015180516102f292600185019201906103ab565b50604091820151600291909101805460ff191660ff909216919091179055516001600160a01b03821681527ffa002e39398e157a85a81542dea7f10c5aaf2806e9a9b75191aaf82eb1917b349060200160405180910390a15050565b82805482825590600052602060002090810192821561039b579160200282015b8281111561039b578251805161038b9184916020909101906103ab565b509160200191906001019061036e565b506103a792915061042b565b5090565b8280546103b790610829565b90600052602060002090601f0160209004810192826103d9576000855561041f565b82601f106103f257805160ff191683800117855561041f565b8280016001018555821561041f579182015b8281111561041f578251825591602001919060010190610404565b506103a7929150610448565b808211156103a757600061043f828261045d565b5060010161042b565b5b808211156103a75760008155600101610449565b50805461046990610829565b6000825580601f10610479575050565b601f0160209004906000526020600020908101906104979190610448565b50565b80356001600160a01b03811681146104b157600080fd5b919050565b600082601f8301126104c6578081fd5b813567ffffffffffffffff8111156104e0576104e0610864565b6104f3601f8201601f19166020016107f8565b818152846020838601011115610507578283fd5b816020850160208301379081016020019190915292915050565b803560ff811681146104b157600080fd5b600060208284031215610543578081fd5b61054c8261049a565b9392505050565b600060208284031215610564578081fd5b813567ffffffffffffffff8082111561057b578283fd5b908301906060828603121561058e578283fd5b6105966107cf565b8235828111156105a4578485fd5b6105b0878286016104b6565b825250602083013560208201526040830135604082015280935050505092915050565b600080604083850312156105e5578081fd5b823567ffffffffffffffff808211156105fc578283fd5b908401906060828703121561060f578283fd5b6106176107cf565b823582811115610625578485fd5b8301601f81018813610635578485fd5b803560208482111561064957610649610864565b8160051b6106588282016107f8565b8381528281019085840183870185018e1015610672578a8bfd5b8a93505b858410156106af5780358981111561068c578b8cfd5b61069a8f87838b01016104b6565b84525060019390930192918401918401610676565b5086525050858101359250848311156106c6578687fd5b6106d28a8488016104b6565b818501526106e260408701610521565b60408501528397506106f5818a0161049a565b96505050505050509250929050565b60008151808452815b818110156107295760208185018101518683018201520161070d565b8181111561073a5782602083870101525b50601f01601f19169290920160200192915050565b6000606082016060835280865180835260808501915060808160051b86010192506020808901855b838110156107a557607f19888703018552610793868351610704565b95509382019390820190600101610777565b5050858403818701525050506107bb8186610704565b91505060ff83166040830152949350505050565b6040516060810167ffffffffffffffff811182821017156107f2576107f2610864565b60405290565b604051601f8201601f1916810167ffffffffffffffff8111828210171561082157610821610864565b604052919050565b600181811c9082168061083d57607f821691505b6020821081141561085e57634e487b7160e01b600052602260045260246000fd5b50919050565b634e487b7160e01b600052604160045260246000fdfea2646970667358221220533af3d08f26381e68014dd6917d94f29436a1f6089c7bc05a50bb20491b2e2d64736f6c63430008040033",
    "sourcePath": "/Users/elijahhampton/Desktop/opportunity-core/src/contracts/user/UserSummary.sol",
    "compiler": {
        "name": "solc",
        "version": "0.8.4+commit.c7e474f2"
    },
    "functionHashes": {
        "createMarket(address)": "7c108333",
        "evaluateUser((string,uint256,uint256))": "5d5f221f",
        "getUserProfile()": "6f61c744",
        "updateProfile((string[],string,uint8),address)": "7ca97e8c"
    },
    "gasEstimates": {
        "creation": {
            "codeDepositCost": "444800",
            "executionCost": "infinite",
            "totalCost": "infinite"
        },
        "external": {
            "createMarket(address)": "43891",
            "evaluateUser((string,uint256,uint256))": "infinite",
            "getUserProfile()": "infinite",
            "updateProfile((string[],string,uint8),address)": "infinite"
        }
    }
}