{
    "contractName": "UserRegistration",
    "abi": [
        {
            "inputs": [
                {
                    "internalType": "address",
                    "name": "userSummaryFactoryAddress",
                    "type": "address"
                }
            ],
            "stateMutability": "nonpayable",
            "type": "constructor"
        },
        {
            "anonymous": false,
            "inputs": [
                {
                    "indexed": true,
                    "internalType": "address",
                    "name": "universalAddress",
                    "type": "address"
                },
                {
                    "indexed": true,
                    "internalType": "address",
                    "name": "userSummaryContractAddress",
                    "type": "address"
                }
            ],
            "name": "UserAssignedTrueIdentification",
            "type": "event"
        },
        {
            "anonymous": false,
            "inputs": [
                {
                    "indexed": true,
                    "internalType": "address",
                    "name": "universalAddress",
                    "type": "address"
                }
            ],
            "name": "UserRegistered",
            "type": "event"
        },
        {
            "inputs": [
                {
                    "internalType": "address",
                    "name": "universalAddress",
                    "type": "address"
                }
            ],
            "name": "getTrueIdentification",
            "outputs": [
                {
                    "internalType": "address",
                    "name": "",
                    "type": "address"
                }
            ],
            "stateMutability": "view",
            "type": "function"
        },
        {
            "inputs": [
                {
                    "internalType": "address",
                    "name": "universalAddress",
                    "type": "address"
                }
            ],
            "name": "registerNewUser",
            "outputs": [
                {
                    "internalType": "address",
                    "name": "",
                    "type": "address"
                }
            ],
            "stateMutability": "nonpayable",
            "type": "function"
        }
    ],
    "bytecode": "608060405234801561001057600080fd5b5060405161035538038061035583398101604081905261002f91610062565b60008054336001600160a01b031991821617909155600280549091166001600160a01b0392909216919091179055610092565b60006020828403121561007457600080fd5b81516001600160a01b038116811461008b57600080fd5b9392505050565b6102b4806100a16000396000f3fe608060405234801561001057600080fd5b50600436106100365760003560e01c80637d5224d31461003b578063ad3b66931461006a575b600080fd5b61004e610049366004610229565b610096565b6040516001600160a01b03909116815260200160405180910390f35b61004e610078366004610229565b6001600160a01b039081166000908152600160205260409020541690565b6001600160a01b03818116600090815260016020526040812054909116156101045760405162461bcd60e51b815260206004820181905260248201527f54686973207573657220697320616c726561647920726567697374657265642e604482015260640160405180910390fd5b60025460405163c64c2c3160e01b81526001600160a01b038481166004830152600092169063c64c2c3190602401602060405180830381600087803b15801561014c57600080fd5b505af1158015610160573d6000803e3d6000fd5b505050506040513d601f19601f82011682018060405250810190610184919061024d565b905061019083826101cb565b506040516001600160a01b038416907f54db7a5cb4735e1aac1f53db512d3390390bb6637bd30ad4bf9fc98667d9b9b990600090a292915050565b6001600160a01b0382811660008181526001602052604080822080546001600160a01b031916948616948517905551909291907f8e36be26ef3eed96fe9d1b986cd201ff94ca1c034d575c68f55f2f06acd2c5ae908490a392915050565b60006020828403121561023b57600080fd5b813561024681610266565b9392505050565b60006020828403121561025f57600080fd5b8151610246815b6001600160a01b038116811461027b57600080fd5b5056fea2646970667358221220a585f0a7b387103ef30cf80f812b2c9837b4111bf6cfe5c32f9970cefabb9d2d64736f6c63430008070033",
    "sourcePath": "/Users/elijahhampton/git/opportunity-core/src/contracts/user/UserRegistration.sol",
    "compiler": {
        "name": "solc",
        "version": "0.8.7+commit.e28d00a7"
    },
    "functionHashes": {
        "getTrueIdentification(address)": "ad3b6693",
        "registerNewUser(address)": "7d5224d3"
    },
    "gasEstimates": {
        "creation": {
            "codeDepositCost": "138400",
            "executionCost": "infinite",
            "totalCost": "infinite"
        },
        "external": {
            "getTrueIdentification(address)": "2549",
            "registerNewUser(address)": "infinite"
        },
        "internal": {
            "assignTrueUserIdentification(address,address)": "25896"
        }
    }
}