{
  "_format": "hh-sol-artifact-1",
  "contractName": "UserSummary",
  "sourceName": "contracts/user/UserSummary.sol",
  "abi": [
    {
      "inputs": [
        {
          "internalType": "address",
          "name": "universalAddress",
          "type": "address"
        }
      ],
      "stateMutability": "nonpayable",
      "type": "constructor"
    },
    {
      "anonymous": false,
      "inputs": [
        {
          "indexed": false,
          "internalType": "address",
          "name": "universalAddress",
          "type": "address"
        }
      ],
      "name": "UserSummaryUpdate",
      "type": "event"
    },
    {
      "inputs": [
        {
          "internalType": "address",
          "name": "_relationship",
          "type": "address"
        },
        {
          "internalType": "uint8",
          "name": "_amount",
          "type": "uint8"
        }
      ],
      "name": "decreaseDisputeCount",
      "outputs": [],
      "stateMutability": "nonpayable",
      "type": "function"
    },
    {
      "inputs": [
        {
          "internalType": "address",
          "name": "_relationship",
          "type": "address"
        },
        {
          "internalType": "uint8",
          "name": "_amount",
          "type": "uint8"
        }
      ],
      "name": "decreaseReputation",
      "outputs": [],
      "stateMutability": "nonpayable",
      "type": "function"
    },
    {
      "inputs": [
        {
          "internalType": "address",
          "name": "_relationship",
          "type": "address"
        }
      ],
      "name": "decreaseSuccessfulPayout",
      "outputs": [],
      "stateMutability": "nonpayable",
      "type": "function"
    },
    {
      "inputs": [],
      "name": "employerDescription",
      "outputs": [
        {
          "internalType": "uint256",
          "name": "numSuccessfulPayouts",
          "type": "uint256"
        },
        {
          "internalType": "uint256",
          "name": "numDisputes",
          "type": "uint256"
        }
      ],
      "stateMutability": "view",
      "type": "function"
    },
    {
      "inputs": [
        {
          "components": [
            {
              "internalType": "address",
              "name": "market",
              "type": "address"
            },
            {
              "internalType": "uint256",
              "name": "marketReputation",
              "type": "uint256"
            },
            {
              "internalType": "uint256",
              "name": "universalReputation",
              "type": "uint256"
            }
          ],
          "internalType": "struct Evaluation.EvaluationState",
          "name": "evaluationState",
          "type": "tuple"
        },
        {
          "internalType": "address",
          "name": "market",
          "type": "address"
        }
      ],
      "name": "evaluateUser",
      "outputs": [
        {
          "internalType": "bool",
          "name": "",
          "type": "bool"
        }
      ],
      "stateMutability": "view",
      "type": "function"
    },
    {
      "inputs": [],
      "name": "getBadConsistencyCount",
      "outputs": [
        {
          "internalType": "uint8",
          "name": "",
          "type": "uint8"
        }
      ],
      "stateMutability": "nonpayable",
      "type": "function"
    },
    {
      "inputs": [
        {
          "internalType": "address",
          "name": "_relationship",
          "type": "address"
        },
        {
          "internalType": "uint8",
          "name": "_amount",
          "type": "uint8"
        }
      ],
      "name": "increaseDisputeCount",
      "outputs": [],
      "stateMutability": "nonpayable",
      "type": "function"
    },
    {
      "inputs": [
        {
          "internalType": "address",
          "name": "_relationship",
          "type": "address"
        },
        {
          "internalType": "uint8",
          "name": "_amount",
          "type": "uint8"
        }
      ],
      "name": "increaseReputation",
      "outputs": [],
      "stateMutability": "nonpayable",
      "type": "function"
    },
    {
      "inputs": [
        {
          "internalType": "address",
          "name": "_relationship",
          "type": "address"
        }
      ],
      "name": "increaseSuccessfulPayout",
      "outputs": [],
      "stateMutability": "nonpayable",
      "type": "function"
    },
    {
      "inputs": [],
      "name": "owner",
      "outputs": [
        {
          "internalType": "address",
          "name": "",
          "type": "address"
        }
      ],
      "stateMutability": "view",
      "type": "function"
    },
    {
      "inputs": [
        {
          "internalType": "uint8",
          "name": "amount",
          "type": "uint8"
        }
      ],
      "name": "setBadConsistencyCount",
      "outputs": [],
      "stateMutability": "nonpayable",
      "type": "function"
    },
    {
      "inputs": [],
      "name": "universalAddress",
      "outputs": [
        {
          "internalType": "address",
          "name": "",
          "type": "address"
        }
      ],
      "stateMutability": "view",
      "type": "function"
    },
    {
      "inputs": [],
      "name": "workerDescription",
      "outputs": [
        {
          "internalType": "uint8",
          "name": "universalReputation",
          "type": "uint8"
        },
        {
          "internalType": "uint8",
          "name": "badConsistencyCount",
          "type": "uint8"
        }
      ],
      "stateMutability": "view",
      "type": "function"
    }
  ],
  "bytecode": "0x608060405234801561001057600080fd5b506040516116da3803806116da83398101604081905261002f91610054565b600080546001600160a01b0319166001600160a01b0392909216919091179055610084565b60006020828403121561006657600080fd5b81516001600160a01b038116811461007d57600080fd5b9392505050565b611647806100936000396000f3fe608060405234801561001057600080fd5b50600436106100cf5760003560e01c80638da5cb5b1161008c578063ccdb6b6411610066578063ccdb6b64146101dc578063d2426591146101ef578063ec4cffae14610212578063ff9a42ae1461022557600080fd5b80638da5cb5b14610181578063ac021779146101ac578063c897d695146101bf57600080fd5b80631017b0f8146100d457806313d0277714610109578063199e59481461011e57806332053e6914610131578063526738791461015b578063668e3b701461016e575b600080fd5b6002546100ea9060ff8082169161010090041682565b6040805160ff9384168152929091166020830152015b60405180910390f35b61011c6101173660046113f1565b610248565b005b61011c61012c3660046113f1565b6104f8565b61011c61013f3660046114da565b6002805460ff9092166101000261ff0019909216919091179055565b61011c6101693660046113b7565b610796565b61011c61017c3660046113f1565b610a3c565b600054610194906001600160a01b031681565b6040516001600160a01b039091168152602001610100565b600154610194906001600160a01b031681565b600254610100900460ff1660405160ff9091168152602001610100565b61011c6101ea3660046113b7565b610d4f565b6005546006546101fd919082565b60408051928352602083019190915201610100565b61011c6102203660046113f1565b610fed565b610238610233366004611447565b6112cc565b6040519015158152602001610100565b813361026f5760405162461bcd60e51b8152600401610266906114f5565b60405180910390fd5b600081905060008054906101000a90046001600160a01b03166001600160a01b0316816001600160a01b0316638da5cb5b6040518163ffffffff1660e01b815260040160206040518083038186803b1580156102ca57600080fd5b505afa1580156102de573d6000803e3d6000fd5b505050506040513d601f19601f8201168201806040525081019061030291906113d4565b6001600160a01b031614806103ab575060008054906101000a90046001600160a01b03166001600160a01b0316816001600160a01b0316634d547ada6040518163ffffffff1660e01b815260040160206040518083038186803b15801561036857600080fd5b505afa15801561037c573d6000803e3d6000fd5b505050506040513d601f19601f820116820180604052508101906103a091906113d4565b6001600160a01b0316145b6103c75760405162461bcd60e51b815260040161026690611541565b6004816001600160a01b031663c6ee20d26040518163ffffffff1660e01b815260040160206040518083038186803b15801561040257600080fd5b505afa158015610416573d6000803e3d6000fd5b505050506040513d601f19601f8201168201806040525081019061043a9190611426565b600581111561044b5761044b6115e3565b14806104d857506005816001600160a01b031663c6ee20d26040518163ffffffff1660e01b815260040160206040518083038186803b15801561048d57600080fd5b505afa1580156104a1573d6000803e3d6000fd5b505050506040513d601f19601f820116820180604052508101906104c59190611426565b60058111156104d6576104d66115e3565b145b6104e157600080fd5b6006546104ef90600161131d565b60065550505050565b81336105165760405162461bcd60e51b8152600401610266906114f5565b600081905060008054906101000a90046001600160a01b03166001600160a01b0316816001600160a01b0316638da5cb5b6040518163ffffffff1660e01b815260040160206040518083038186803b15801561057157600080fd5b505afa158015610585573d6000803e3d6000fd5b505050506040513d601f19601f820116820180604052508101906105a991906113d4565b6001600160a01b03161480610652575060008054906101000a90046001600160a01b03166001600160a01b0316816001600160a01b0316634d547ada6040518163ffffffff1660e01b815260040160206040518083038186803b15801561060f57600080fd5b505afa158015610623573d6000803e3d6000fd5b505050506040513d601f19601f8201168201806040525081019061064791906113d4565b6001600160a01b0316145b61066e5760405162461bcd60e51b815260040161026690611541565b6004816001600160a01b031663c6ee20d26040518163ffffffff1660e01b815260040160206040518083038186803b1580156106a957600080fd5b505afa1580156106bd573d6000803e3d6000fd5b505050506040513d601f19601f820116820180604052508101906106e19190611426565b60058111156106f2576106f26115e3565b148061077f57506005816001600160a01b031663c6ee20d26040518163ffffffff1660e01b815260040160206040518083038186803b15801561073457600080fd5b505afa158015610748573d6000803e3d6000fd5b505050506040513d601f19601f8201168201806040525081019061076c9190611426565b600581111561077d5761077d6115e3565b145b61078857600080fd5b6006546104ef906001611330565b80336107b45760405162461bcd60e51b8152600401610266906114f5565b600081905060008054906101000a90046001600160a01b03166001600160a01b0316816001600160a01b0316638da5cb5b6040518163ffffffff1660e01b815260040160206040518083038186803b15801561080f57600080fd5b505afa158015610823573d6000803e3d6000fd5b505050506040513d601f19601f8201168201806040525081019061084791906113d4565b6001600160a01b031614806108f0575060008054906101000a90046001600160a01b03166001600160a01b0316816001600160a01b0316634d547ada6040518163ffffffff1660e01b815260040160206040518083038186803b1580156108ad57600080fd5b505afa1580156108c1573d6000803e3d6000fd5b505050506040513d601f19601f820116820180604052508101906108e591906113d4565b6001600160a01b0316145b61090c5760405162461bcd60e51b815260040161026690611541565b6004816001600160a01b031663c6ee20d26040518163ffffffff1660e01b815260040160206040518083038186803b15801561094757600080fd5b505afa15801561095b573d6000803e3d6000fd5b505050506040513d601f19601f8201168201806040525081019061097f9190611426565b6005811115610990576109906115e3565b1480610a1d57506005816001600160a01b031663c6ee20d26040518163ffffffff1660e01b815260040160206040518083038186803b1580156109d257600080fd5b505afa1580156109e6573d6000803e3d6000fd5b505050506040513d601f19601f82011682018060405250810190610a0a9190611426565b6005811115610a1b57610a1b6115e3565b145b610a2657600080fd5b600554610a34906001611330565b600555505050565b8133610a5a5760405162461bcd60e51b8152600401610266906114f5565b600081905060008054906101000a90046001600160a01b03166001600160a01b0316816001600160a01b0316638da5cb5b6040518163ffffffff1660e01b815260040160206040518083038186803b158015610ab557600080fd5b505afa158015610ac9573d6000803e3d6000fd5b505050506040513d601f19601f82011682018060405250810190610aed91906113d4565b6001600160a01b03161480610b96575060008054906101000a90046001600160a01b03166001600160a01b0316816001600160a01b0316634d547ada6040518163ffffffff1660e01b815260040160206040518083038186803b158015610b5357600080fd5b505afa158015610b67573d6000803e3d6000fd5b505050506040513d601f19601f82011682018060405250810190610b8b91906113d4565b6001600160a01b0316145b610bb25760405162461bcd60e51b815260040161026690611541565b6004816001600160a01b031663c6ee20d26040518163ffffffff1660e01b815260040160206040518083038186803b158015610bed57600080fd5b505afa158015610c01573d6000803e3d6000fd5b505050506040513d601f19601f82011682018060405250810190610c259190611426565b6005811115610c3657610c366115e3565b1480610cc357506005816001600160a01b031663c6ee20d26040518163ffffffff1660e01b815260040160206040518083038186803b158015610c7857600080fd5b505afa158015610c8c573d6000803e3d6000fd5b505050506040513d601f19601f82011682018060405250810190610cb09190611426565b6005811115610cc157610cc16115e3565b145b610ccc57600080fd5b600254600090610ce09060ff166001611330565b9050610ceb8161133c565b6002805460ff191660ff928316179055336000908152600360205260408120549091610d1b918116908716611330565b9050610d268161133c565b336000908152600360205260409020805460ff191660ff92909216919091179055505050505050565b8033610d6d5760405162461bcd60e51b8152600401610266906114f5565b600081905060008054906101000a90046001600160a01b03166001600160a01b0316816001600160a01b0316638da5cb5b6040518163ffffffff1660e01b815260040160206040518083038186803b158015610dc857600080fd5b505afa158015610ddc573d6000803e3d6000fd5b505050506040513d601f19601f82011682018060405250810190610e0091906113d4565b6001600160a01b03161480610ea9575060008054906101000a90046001600160a01b03166001600160a01b0316816001600160a01b0316634d547ada6040518163ffffffff1660e01b815260040160206040518083038186803b158015610e6657600080fd5b505afa158015610e7a573d6000803e3d6000fd5b505050506040513d601f19601f82011682018060405250810190610e9e91906113d4565b6001600160a01b0316145b610ec55760405162461bcd60e51b815260040161026690611541565b6004816001600160a01b031663c6ee20d26040518163ffffffff1660e01b815260040160206040518083038186803b158015610f0057600080fd5b505afa158015610f14573d6000803e3d6000fd5b505050506040513d601f19601f82011682018060405250810190610f389190611426565b6005811115610f4957610f496115e3565b1480610fd657506005816001600160a01b031663c6ee20d26040518163ffffffff1660e01b815260040160206040518083038186803b158015610f8b57600080fd5b505afa158015610f9f573d6000803e3d6000fd5b505050506040513d601f19601f82011682018060405250810190610fc39190611426565b6005811115610fd457610fd46115e3565b145b610fdf57600080fd5b600554610a3490600161131d565b813361100b5760405162461bcd60e51b8152600401610266906114f5565b600081905060008054906101000a90046001600160a01b03166001600160a01b0316816001600160a01b0316638da5cb5b6040518163ffffffff1660e01b815260040160206040518083038186803b15801561106657600080fd5b505afa15801561107a573d6000803e3d6000fd5b505050506040513d601f19601f8201168201806040525081019061109e91906113d4565b6001600160a01b03161480611147575060008054906101000a90046001600160a01b03166001600160a01b0316816001600160a01b0316634d547ada6040518163ffffffff1660e01b815260040160206040518083038186803b15801561110457600080fd5b505afa158015611118573d6000803e3d6000fd5b505050506040513d601f19601f8201168201806040525081019061113c91906113d4565b6001600160a01b0316145b6111635760405162461bcd60e51b815260040161026690611541565b6004816001600160a01b031663c6ee20d26040518163ffffffff1660e01b815260040160206040518083038186803b15801561119e57600080fd5b505afa1580156111b2573d6000803e3d6000fd5b505050506040513d601f19601f820116820180604052508101906111d69190611426565b60058111156111e7576111e76115e3565b148061127457506005816001600160a01b031663c6ee20d26040518163ffffffff1660e01b815260040160206040518083038186803b15801561122957600080fd5b505afa15801561123d573d6000803e3d6000fd5b505050506040513d601f19601f820116820180604052508101906112619190611426565b6005811115611272576112726115e3565b145b61127d57600080fd5b6002546000906112919060ff16600161131d565b905061129c8161133c565b6002805460ff191660ff928316179055336000908152600360205260408120549091610d1b91811690871661131d565b600080546001600160a01b03166112e257600080fd5b60208084015184516001600160a01b03166000908152600390925260409091205460ff161061131357506001611317565b5060005b92915050565b6000611329828461159e565b9392505050565b600061132982846115b6565b600060ff82111561139d5760405162461bcd60e51b815260206004820152602560248201527f53616665436173743a2076616c756520646f65736e27742066697420696e2038604482015264206269747360d81b6064820152608401610266565b5090565b803560ff811681146113b257600080fd5b919050565b6000602082840312156113c957600080fd5b8135611329816115f9565b6000602082840312156113e657600080fd5b8151611329816115f9565b6000806040838503121561140457600080fd5b823561140f816115f9565b915061141d602084016113a1565b90509250929050565b60006020828403121561143857600080fd5b81516006811061132957600080fd5b600080828403608081121561145b57600080fd5b606081121561146957600080fd5b506040516060810181811067ffffffffffffffff8211171561149b57634e487b7160e01b600052604160045260246000fd5b60405283356114a9816115f9565b81526020848101359082015260408085013590820152915060608301356114cf816115f9565b809150509250929050565b6000602082840312156114ec57600080fd5b611329826113a1565b6020808252602c908201527f546865206d61726b65742063616c6c6572206d757374206e6f7420626520612060408201526b6e756c6c206164647265737360a01b606082015260800190565b60208082526038908201527f55736572206d7573742062652074686520656d706c6f796572206f7220776f7260408201527f6b6572206f6620746869732072656c6174696f6e736869700000000000000000606082015260800190565b600082198211156115b1576115b16115cd565b500190565b6000828210156115c8576115c86115cd565b500390565b634e487b7160e01b600052601160045260246000fd5b634e487b7160e01b600052602160045260246000fd5b6001600160a01b038116811461160e57600080fd5b5056fea264697066735822122062ba6491d48a3ec45b548cf41dbc43f681d9de6fd6975a83d72d126a9dcac2d164736f6c63430008070033",
  "linkReferences": {},
  "deployedLinkReferences": {}
}