{
  "_format": "hh-sol-artifact-1",
  "contractName": "UserSummary",
  "sourceName": "contracts/user/UserSummary.sol",
  "abi": [
    {
      "inputs": [
        {
          "internalType": "address",
          "name": "universalAddress",
          "type": "address"
        }
      ],
      "stateMutability": "nonpayable",
      "type": "constructor"
    },
    {
      "anonymous": false,
      "inputs": [
        {
          "indexed": false,
          "internalType": "address",
          "name": "universalAddress",
          "type": "address"
        }
      ],
      "name": "UserSummaryUpdate",
      "type": "event"
    },
    {
      "inputs": [
        {
          "internalType": "address",
          "name": "_relationship",
          "type": "address"
        },
        {
          "internalType": "uint8",
          "name": "_amount",
          "type": "uint8"
        }
      ],
      "name": "decreaseReputation",
      "outputs": [],
      "stateMutability": "nonpayable",
      "type": "function"
    },
    {
      "inputs": [
        {
          "internalType": "address",
          "name": "_relationship",
          "type": "address"
        }
      ],
      "name": "decreaseSuccessfulPayout",
      "outputs": [],
      "stateMutability": "nonpayable",
      "type": "function"
    },
    {
      "inputs": [],
      "name": "employerDescription",
      "outputs": [
        {
          "internalType": "uint256",
          "name": "numSuccessfulPayouts",
          "type": "uint256"
        }
      ],
      "stateMutability": "view",
      "type": "function"
    },
    {
      "inputs": [
        {
          "components": [
            {
              "internalType": "address",
              "name": "market",
              "type": "address"
            },
            {
              "internalType": "uint256",
              "name": "marketReputation",
              "type": "uint256"
            },
            {
              "internalType": "uint256",
              "name": "universalReputation",
              "type": "uint256"
            }
          ],
          "internalType": "struct Evaluation.EvaluationState",
          "name": "evaluationState",
          "type": "tuple"
        },
        {
          "internalType": "address",
          "name": "market",
          "type": "address"
        }
      ],
      "name": "evaluateUser",
      "outputs": [
        {
          "internalType": "bool",
          "name": "",
          "type": "bool"
        }
      ],
      "stateMutability": "view",
      "type": "function"
    },
    {
      "inputs": [],
      "name": "getBadConsistencyCount",
      "outputs": [
        {
          "internalType": "uint8",
          "name": "",
          "type": "uint8"
        }
      ],
      "stateMutability": "nonpayable",
      "type": "function"
    },
    {
      "inputs": [
        {
          "internalType": "address",
          "name": "_relationship",
          "type": "address"
        },
        {
          "internalType": "uint8",
          "name": "_amount",
          "type": "uint8"
        }
      ],
      "name": "increaseReputation",
      "outputs": [],
      "stateMutability": "nonpayable",
      "type": "function"
    },
    {
      "inputs": [
        {
          "internalType": "address",
          "name": "_relationship",
          "type": "address"
        }
      ],
      "name": "increaseSuccessfulPayout",
      "outputs": [],
      "stateMutability": "nonpayable",
      "type": "function"
    },
    {
      "inputs": [],
      "name": "owner",
      "outputs": [
        {
          "internalType": "address",
          "name": "",
          "type": "address"
        }
      ],
      "stateMutability": "view",
      "type": "function"
    },
    {
      "inputs": [
        {
          "internalType": "uint8",
          "name": "amount",
          "type": "uint8"
        }
      ],
      "name": "setBadConsistencyCount",
      "outputs": [],
      "stateMutability": "nonpayable",
      "type": "function"
    },
    {
      "inputs": [],
      "name": "universalAddress",
      "outputs": [
        {
          "internalType": "address",
          "name": "",
          "type": "address"
        }
      ],
      "stateMutability": "view",
      "type": "function"
    },
    {
      "inputs": [],
      "name": "workerDescription",
      "outputs": [
        {
          "internalType": "uint8",
          "name": "universalReputation",
          "type": "uint8"
        },
        {
          "internalType": "uint8",
          "name": "badConsistencyCount",
          "type": "uint8"
        }
      ],
      "stateMutability": "view",
      "type": "function"
    }
  ],
  "bytecode": "0x608060405234801561001057600080fd5b50604051610f0e380380610f0e83398101604081905261002f91610054565b600080546001600160a01b0319166001600160a01b0392909216919091179055610084565b60006020828403121561006657600080fd5b81516001600160a01b038116811461007d57600080fd5b9392505050565b610e7b806100936000396000f3fe608060405234801561001057600080fd5b50600436106100a95760003560e01c8063ac02177911610071578063ac02177914610160578063c897d69514610173578063ccdb6b6414610190578063d2426591146101a3578063ec4cffae146101bb578063ff9a42ae146101ce57600080fd5b80631017b0f8146100ae57806332053e69146100e3578063526738791461010f578063668e3b70146101225780638da5cb5b14610135575b600080fd5b6002546100c49060ff8082169161010090041682565b6040805160ff9384168152929091166020830152015b60405180910390f35b61010d6100f1366004610d0e565b6002805460ff9092166101000261ff0019909216919091179055565b005b61010d61011d366004610beb565b6101f1565b61010d610130366004610c25565b610414565b600054610148906001600160a01b031681565b6040516001600160a01b0390911681526020016100da565b600154610148906001600160a01b031681565b600254610100900460ff1660405160ff90911681526020016100da565b61010d61019e366004610beb565b61069b565b6005546101ad9081565b6040519081526020016100da565b61010d6101c9366004610c25565b6108ad565b6101e16101dc366004610c7b565b610b00565b60405190151581526020016100da565b80336102185760405162461bcd60e51b815260040161020f90610d29565b60405180910390fd5b600081905060008054906101000a90046001600160a01b03166001600160a01b0316816001600160a01b0316638da5cb5b6040518163ffffffff1660e01b815260040160206040518083038186803b15801561027357600080fd5b505afa158015610287573d6000803e3d6000fd5b505050506040513d601f19601f820116820180604052508101906102ab9190610c08565b6001600160a01b03161480610354575060008054906101000a90046001600160a01b03166001600160a01b0316816001600160a01b0316634d547ada6040518163ffffffff1660e01b815260040160206040518083038186803b15801561031157600080fd5b505afa158015610325573d6000803e3d6000fd5b505050506040513d601f19601f820116820180604052508101906103499190610c08565b6001600160a01b0316145b6103705760405162461bcd60e51b815260040161020f90610d75565b6004816001600160a01b031663c6ee20d26040518163ffffffff1660e01b815260040160206040518083038186803b1580156103ab57600080fd5b505afa1580156103bf573d6000803e3d6000fd5b505050506040513d601f19601f820116820180604052508101906103e39190610c5a565b60048111156103f4576103f4610e17565b146103fe57600080fd5b60055461040c906001610b51565b600555505050565b81336104325760405162461bcd60e51b815260040161020f90610d29565b600081905060008054906101000a90046001600160a01b03166001600160a01b0316816001600160a01b0316638da5cb5b6040518163ffffffff1660e01b815260040160206040518083038186803b15801561048d57600080fd5b505afa1580156104a1573d6000803e3d6000fd5b505050506040513d601f19601f820116820180604052508101906104c59190610c08565b6001600160a01b0316148061056e575060008054906101000a90046001600160a01b03166001600160a01b0316816001600160a01b0316634d547ada6040518163ffffffff1660e01b815260040160206040518083038186803b15801561052b57600080fd5b505afa15801561053f573d6000803e3d6000fd5b505050506040513d601f19601f820116820180604052508101906105639190610c08565b6001600160a01b0316145b61058a5760405162461bcd60e51b815260040161020f90610d75565b6004816001600160a01b031663c6ee20d26040518163ffffffff1660e01b815260040160206040518083038186803b1580156105c557600080fd5b505afa1580156105d9573d6000803e3d6000fd5b505050506040513d601f19601f820116820180604052508101906105fd9190610c5a565b600481111561060e5761060e610e17565b1461061857600080fd5b60025460009061062c9060ff166001610b51565b905061063781610b64565b6002805460ff191660ff928316179055336000908152600360205260408120549091610667918116908716610b51565b905061067281610b64565b336000908152600360205260409020805460ff191660ff92909216919091179055505050505050565b80336106b95760405162461bcd60e51b815260040161020f90610d29565b600081905060008054906101000a90046001600160a01b03166001600160a01b0316816001600160a01b0316638da5cb5b6040518163ffffffff1660e01b815260040160206040518083038186803b15801561071457600080fd5b505afa158015610728573d6000803e3d6000fd5b505050506040513d601f19601f8201168201806040525081019061074c9190610c08565b6001600160a01b031614806107f5575060008054906101000a90046001600160a01b03166001600160a01b0316816001600160a01b0316634d547ada6040518163ffffffff1660e01b815260040160206040518083038186803b1580156107b257600080fd5b505afa1580156107c6573d6000803e3d6000fd5b505050506040513d601f19601f820116820180604052508101906107ea9190610c08565b6001600160a01b0316145b6108115760405162461bcd60e51b815260040161020f90610d75565b6004816001600160a01b031663c6ee20d26040518163ffffffff1660e01b815260040160206040518083038186803b15801561084c57600080fd5b505afa158015610860573d6000803e3d6000fd5b505050506040513d601f19601f820116820180604052508101906108849190610c5a565b600481111561089557610895610e17565b1461089f57600080fd5b60055461040c906001610bc9565b81336108cb5760405162461bcd60e51b815260040161020f90610d29565b600081905060008054906101000a90046001600160a01b03166001600160a01b0316816001600160a01b0316638da5cb5b6040518163ffffffff1660e01b815260040160206040518083038186803b15801561092657600080fd5b505afa15801561093a573d6000803e3d6000fd5b505050506040513d601f19601f8201168201806040525081019061095e9190610c08565b6001600160a01b03161480610a07575060008054906101000a90046001600160a01b03166001600160a01b0316816001600160a01b0316634d547ada6040518163ffffffff1660e01b815260040160206040518083038186803b1580156109c457600080fd5b505afa1580156109d8573d6000803e3d6000fd5b505050506040513d601f19601f820116820180604052508101906109fc9190610c08565b6001600160a01b0316145b610a235760405162461bcd60e51b815260040161020f90610d75565b6004816001600160a01b031663c6ee20d26040518163ffffffff1660e01b815260040160206040518083038186803b158015610a5e57600080fd5b505afa158015610a72573d6000803e3d6000fd5b505050506040513d601f19601f82011682018060405250810190610a969190610c5a565b6004811115610aa757610aa7610e17565b14610ab157600080fd5b600254600090610ac59060ff166001610bc9565b9050610ad081610b64565b6002805460ff191660ff928316179055336000908152600360205260408120549091610667918116908716610bc9565b600080546001600160a01b0316610b1657600080fd5b60208084015184516001600160a01b03166000908152600390925260409091205460ff1610610b4757506001610b4b565b5060005b92915050565b6000610b5d8284610dea565b9392505050565b600060ff821115610bc55760405162461bcd60e51b815260206004820152602560248201527f53616665436173743a2076616c756520646f65736e27742066697420696e2038604482015264206269747360d81b606482015260840161020f565b5090565b6000610b5d8284610dd2565b803560ff81168114610be657600080fd5b919050565b600060208284031215610bfd57600080fd5b8135610b5d81610e2d565b600060208284031215610c1a57600080fd5b8151610b5d81610e2d565b60008060408385031215610c3857600080fd5b8235610c4381610e2d565b9150610c5160208401610bd5565b90509250929050565b600060208284031215610c6c57600080fd5b815160058110610b5d57600080fd5b6000808284036080811215610c8f57600080fd5b6060811215610c9d57600080fd5b506040516060810181811067ffffffffffffffff82111715610ccf57634e487b7160e01b600052604160045260246000fd5b6040528335610cdd81610e2d565b8152602084810135908201526040808501359082015291506060830135610d0381610e2d565b809150509250929050565b600060208284031215610d2057600080fd5b610b5d82610bd5565b6020808252602c908201527f546865206d61726b65742063616c6c6572206d757374206e6f7420626520612060408201526b6e756c6c206164647265737360a01b606082015260800190565b60208082526038908201527f55736572206d7573742062652074686520656d706c6f796572206f7220776f7260408201527f6b6572206f6620746869732072656c6174696f6e736869700000000000000000606082015260800190565b60008219821115610de557610de5610e01565b500190565b600082821015610dfc57610dfc610e01565b500390565b634e487b7160e01b600052601160045260246000fd5b634e487b7160e01b600052602160045260246000fd5b6001600160a01b0381168114610e4257600080fd5b5056fea26469706673582212201d70bbae0114dba8c40b3ed19d8ce3f91828674a95af337ebac018332c54c03e64736f6c63430008070033",
  "linkReferences": {},
  "deployedLinkReferences": {}
}