{
  "_format": "hh-sol-artifact-1",
  "contractName": "DaiEscrow",
  "sourceName": "contracts/exchange/DaiEscrow.sol",
  "abi": [
    {
      "inputs": [
        {
          "internalType": "address",
          "name": "_depositor",
          "type": "address"
        },
        {
          "internalType": "address",
          "name": "_beneficiary",
          "type": "address"
        },
        {
          "internalType": "uint256",
          "name": "_wad",
          "type": "uint256"
        },
        {
          "internalType": "address",
          "name": "_daiTokenAddress",
          "type": "address"
        },
        {
          "internalType": "address",
          "name": "_cDaiTokenAddress",
          "type": "address"
        },
        {
          "internalType": "address",
          "name": "_banker",
          "type": "address"
        },
        {
          "internalType": "uint256",
          "name": "nonce",
          "type": "uint256"
        },
        {
          "internalType": "uint256",
          "name": "expiry",
          "type": "uint256"
        },
        {
          "internalType": "uint8",
          "name": "eV",
          "type": "uint8"
        },
        {
          "internalType": "bytes32",
          "name": "eR",
          "type": "bytes32"
        },
        {
          "internalType": "bytes32",
          "name": "eS",
          "type": "bytes32"
        }
      ],
      "stateMutability": "nonpayable",
      "type": "constructor"
    },
    {
      "inputs": [],
      "name": "REVIEW_TYPEHASH",
      "outputs": [
        {
          "internalType": "bytes32",
          "name": "",
          "type": "bytes32"
        }
      ],
      "stateMutability": "view",
      "type": "function"
    },
    {
      "inputs": [],
      "name": "SUBMIT_TYPEHASH",
      "outputs": [
        {
          "internalType": "bytes32",
          "name": "",
          "type": "bytes32"
        }
      ],
      "stateMutability": "view",
      "type": "function"
    },
    {
      "inputs": [],
      "name": "beneficiary",
      "outputs": [
        {
          "internalType": "address",
          "name": "",
          "type": "address"
        }
      ],
      "stateMutability": "view",
      "type": "function"
    },
    {
      "inputs": [],
      "name": "depositor",
      "outputs": [
        {
          "internalType": "address",
          "name": "",
          "type": "address"
        }
      ],
      "stateMutability": "view",
      "type": "function"
    },
    {
      "inputs": [],
      "name": "domain_separator",
      "outputs": [
        {
          "internalType": "bytes32",
          "name": "",
          "type": "bytes32"
        }
      ],
      "stateMutability": "view",
      "type": "function"
    },
    {
      "inputs": [],
      "name": "getTaskSolutionPointer",
      "outputs": [
        {
          "internalType": "bytes32",
          "name": "",
          "type": "bytes32"
        }
      ],
      "stateMutability": "view",
      "type": "function"
    },
    {
      "inputs": [],
      "name": "refundReward",
      "outputs": [],
      "stateMutability": "nonpayable",
      "type": "function"
    },
    {
      "inputs": [
        {
          "internalType": "bool",
          "name": "_approve",
          "type": "bool"
        },
        {
          "internalType": "uint8",
          "name": "_v",
          "type": "uint8"
        },
        {
          "internalType": "bytes32",
          "name": "_r",
          "type": "bytes32"
        },
        {
          "internalType": "bytes32",
          "name": "_s",
          "type": "bytes32"
        }
      ],
      "name": "review",
      "outputs": [],
      "stateMutability": "nonpayable",
      "type": "function"
    },
    {
      "inputs": [
        {
          "internalType": "uint256",
          "name": "stake",
          "type": "uint256"
        },
        {
          "internalType": "uint8",
          "name": "wV",
          "type": "uint8"
        },
        {
          "internalType": "bytes32",
          "name": "wR",
          "type": "bytes32"
        },
        {
          "internalType": "bytes32",
          "name": "wS",
          "type": "bytes32"
        }
      ],
      "name": "stakeReputation",
      "outputs": [],
      "stateMutability": "nonpayable",
      "type": "function"
    },
    {
      "inputs": [],
      "name": "state",
      "outputs": [
        {
          "internalType": "enum DaiEscrow.ContractState",
          "name": "",
          "type": "uint8"
        }
      ],
      "stateMutability": "view",
      "type": "function"
    },
    {
      "inputs": [],
      "name": "status",
      "outputs": [
        {
          "internalType": "enum DaiEscrow.Status",
          "name": "",
          "type": "uint8"
        }
      ],
      "stateMutability": "view",
      "type": "function"
    },
    {
      "inputs": [
        {
          "internalType": "bytes32",
          "name": "_submission",
          "type": "bytes32"
        },
        {
          "internalType": "uint8",
          "name": "_v",
          "type": "uint8"
        },
        {
          "internalType": "bytes32",
          "name": "_r",
          "type": "bytes32"
        },
        {
          "internalType": "bytes32",
          "name": "_s",
          "type": "bytes32"
        }
      ],
      "name": "submit",
      "outputs": [],
      "stateMutability": "nonpayable",
      "type": "function"
    },
    {
      "inputs": [],
      "name": "wad",
      "outputs": [
        {
          "internalType": "uint256",
          "name": "",
          "type": "uint256"
        }
      ],
      "stateMutability": "view",
      "type": "function"
    }
  ],
  "bytecode": "0x60a060405260006006553480156200001657600080fd5b506040516200150e3803806200150e833981016040819052620000399162000878565b6001600160a01b038b16620000b15760405162461bcd60e51b815260206004820152603360248201527f4465706f7369746f7220616464726573732063616e6e6f74206265203020776860448201527232b71031b932b0ba34b7339032b9b1b937bb9760691b60648201526084015b60405180910390fd5b6001600160a01b038a166200012f5760405162461bcd60e51b815260206004820152603560248201527f42656e656669636961727920616464726573732063616e6e6f7420626520302060448201527f7768656e206372656174696e6720657363726f772e00000000000000000000006064820152608401620000a8565b6001600160a01b038816620001a35760405162461bcd60e51b815260206004820152603360248201527f44616920746f6b656e20616464726573732063616e6e6f74206265203020776860448201527232b71031b932b0ba34b7339032b9b1b937bb9760691b6064820152608401620000a8565b6001600160a01b038716620002215760405162461bcd60e51b815260206004820152603460248201527f6344616920746f6b656e20616464726573732063616e6e6f742062652030207760448201527f68656e206372656174696e6720657363726f772e0000000000000000000000006064820152608401620000a8565b6001600160a01b038616620002925760405162461bcd60e51b815260206004820152603060248201527f42616e6b657220616464726573732063616e6e6f742062652030207768656e2060448201526f31b932b0ba34b7339032b9b1b937bb9760811b6064820152608401620000a8565b88620002e15760405162461bcd60e51b815260206004820181905260248201527f44616920616d6f756e742063616e6e6f7420626520657175616c20746f20302e6044820152606401620000a8565b600380546001600160a01b03199081166001600160a01b038b8116918217909355600480549092168a84161782556040516370a0823160e01b8152928e16918301919091526000916370a082319060240160206040518083038186803b1580156200034b57600080fd5b505afa15801562000360573d6000803e3d6000fd5b505050506040513d601f19601f8201168201806040525081019062000386919062000937565b9050898110156200039657600080fd5b604080518082018252600a81526944616920457363726f7760b01b6020918201528151808301835260018152603160f81b9082015281517f8b73c3c69bb8fe3d512ecc4cf759cc79239f7b179b0ffacaa9a75d522b39400f918101919091527f0bdbe35568d399a0401d60d11c76785045fec8c775dcb34589d4a0b9d540700d918101919091527fc89efdaa54c0f20c7adf612882df0950f5a951637e0307cdcb4c672f298b8bc660608201524660ff811660808301523060a08301529060c00160405160208183030381529060405280519060200120608081815250508a6002819055508c600160006101000a8154816001600160a01b0302191690836001600160a01b0316021790555060008054906101000a90046001600160a01b03166000806101000a8154816001600160a01b0302191690836001600160a01b031602179055506001600760016101000a81548160ff0219169083600281111562000503576200050362000978565b021790555062000517878787878762000535565b620005228c62000709565b505050505050505050505050506200098e565b600354600180546040516323f2ebc360e21b81526001600160a01b0391821660048201523060248201526044810189905260648101889052608481019290925260ff861660a483015260c4820185905260e4820184905290911690638fcbaf0c9061010401600060405180830381600087803b158015620005b557600080fd5b505af1158015620005ca573d6000803e3d6000fd5b505060035460015460025460405163f2d5d56b60e01b81526001600160a01b03928316600482015260248101919091529116925063f2d5d56b9150604401600060405180830381600087803b1580156200062357600080fd5b505af115801562000638573d6000803e3d6000fd5b5050600354600180546001600160a01b039283169450638fcbaf0c935090911690309062000668908a9062000951565b6040516001600160e01b031960e086901b1681526001600160a01b0393841660048201529290911660248301526044820152606481018790526000608482015260ff861660a482015260c4810185905260e4810184905261010401600060405180830381600087803b158015620006de57600080fd5b505af1158015620006f3573d6000803e3d6000fd5b50506007805461ffff1916905550505050505050565b60008060075460ff16600481111562000726576200072662000978565b14620007a95760405162461bcd60e51b8152602060048201526044602482018190527f43616e6e6f7420696e766f6b65207468697320657363726f772066756e637469908201527f6f6e2077697468207468652063757272656e7420636f6e7472616374207374616064820152633a3ab99760e11b608482015260a401620000a8565b6000546001600160a01b0316620008295760405162461bcd60e51b815260206004820152603760248201527f61737369676e4e657742656e656669636961727928293a2062656e656669636960448201527f61727920616464726573732063616e6e6f7420626520300000000000000000006064820152608401620000a8565b600080546001600160a01b0319166001600160a01b038416179055600780546001919060ff1916828002179055505050565b80516001600160a01b03811681146200087357600080fd5b919050565b60008060008060008060008060008060006101608c8e0312156200089b57600080fd5b620008a68c6200085b565b9a50620008b660208d016200085b565b995060408c01519850620008cd60608d016200085b565b9750620008dd60808d016200085b565b9650620008ed60a08d016200085b565b955060c08c0151945060e08c015193506101008c015160ff811681146200091357600080fd5b809350506101208c015191506101408c015190509295989b509295989b9093969950565b6000602082840312156200094a57600080fd5b5051919050565b600082198211156200097357634e487b7160e01b600052601160045260246000fd5b500190565b634e487b7160e01b600052602160045260246000fd5b608051610b56620009b8600039600081816101d7015281816102ed015261041e0152610b566000f3fe608060405234801561001057600080fd5b50600436106100cf5760003560e01c80637df38c5b1161008c578063b6f4140611610066578063b6f41406146101bf578063bfce14ea146101d2578063c19d93fb146101f9578063c7c4ff461461021857600080fd5b80637df38c5b1461018757806396118e441461019057806396c86cfc146101b757600080fd5b8063200d2ed2146100d457806325b0db0f146100f757806338af3eed1461010c5780633c86f6f31461013757806353318a871461016c5780635db28c661461017f575b600080fd5b6007546100e19060ff1681565b6040516100ee9190610a04565b60405180910390f35b61010a610105366004610967565b61022b565b005b60005461011f906001600160a01b031681565b6040516001600160a01b0390911681526020016100ee565b61015e7ffa5e0016fb62b8dffda8fd95249d438edcffd3689b40ac3b4281d4cf710609ae81565b6040519081526020016100ee565b61010a61017a3660046109ab565b610361565b61015e610494565b61015e60025481565b61015e7f62b607caa4d4e7fcbd31bf4c033cd30888b536567fadc83710fdf15f8d5cfc9e81565b61010a6104f8565b61010a6101cd3660046109ab565b610706565b61015e7f000000000000000000000000000000000000000000000000000000000000000081565b60075461020b90610100900460ff1681565b6040516100ee91906109ea565b60015461011f906001600160a01b031681565b6001546001600160a01b0316331461025e5760405162461bcd60e51b815260040161025590610a82565b60405180910390fd5b60038060075460ff16600481111561027857610278610af9565b146102955760405162461bcd60e51b815260040161025590610a18565b604080517ffa5e0016fb62b8dffda8fd95249d438edcffd3689b40ac3b4281d4cf710609ae602080830191909152871580158385015283518084038501815260608401855280519083012061190160f01b60808501527f0000000000000000000000000000000000000000000000000000000000000000608285015260a2808501919091528451808503909101815260c29093019093528151910120906103435761033e6107b3565b610359565b600780546002919060ff19166001835b02179055505b505050505050565b6000546001546001600160a01b039081169116146103915760405162461bcd60e51b815260040161025590610ab7565b60028060075460ff1660048111156103ab576103ab610af9565b146103c85760405162461bcd60e51b815260040161025590610a18565b604080517f62b607caa4d4e7fcbd31bf4c033cd30888b536567fadc83710fdf15f8d5cfc9e60208083019190915281830188905282518083038401815260608301845280519082012061190160f01b60808401527f0000000000000000000000000000000000000000000000000000000000000000608284015260a2808401919091528351808403909101815260c290920190925280519101206000546001600160a01b031661047757600080fd5b61048086600655565b600780546003919060ff1916600183610353565b6001546000906001600160a01b031633146104c15760405162461bcd60e51b815260040161025590610a82565b6000546001546001600160a01b039081169116146104f15760405162461bcd60e51b815260040161025590610ab7565b5060065490565b6000546001546001600160a01b039081169116146105285760405162461bcd60e51b815260040161025590610ab7565b600080600754610100900460ff16600281111561054757610547610af9565b146105c65760405162461bcd60e51b815260206004820152604360248201527f43616e6e6f7420696e766f6b65207468697320657363726f772066756e63746960448201527f6f6e2077697468207468652063757272656e7420636f6e7472616374207374616064820152623a329760e91b608482015260a401610255565b60018060075460ff1660048111156105e0576105e0610af9565b146105fd5760405162461bcd60e51b815260040161025590610a18565b6002546106665760405162461bcd60e51b815260206004820152603160248201527f5468657265206973206e6f2044414920746f207472616e73666572206261636b604482015270103a37903a3432903232b837b9b4ba37b960791b6064820152608401610255565b60035460015460025460405163a9059cbb60e01b81526001600160a01b039283166004820152602481019190915291169063a9059cbb90604401602060405180830381600087803b1580156106ba57600080fd5b505af11580156106ce573d6000803e3d6000fd5b505050506040513d601f19601f820116820180604052508101906106f29190610943565b50506007805461ff00191661020017905550565b60018060075460ff16600481111561072057610720610af9565b1461073d5760405162461bcd60e51b815260040161025590610a18565b600085156103435760405162461bcd60e51b815260206004820152603a60248201527f576f726b657220646f6573206e6f7420686176652074686520726570206e656360448201527f65737361727920746f206163636570742074686973206a6f622e0000000000006064820152608401610255565b6001546001600160a01b031633146107dd5760405162461bcd60e51b815260040161025590610a82565b6000546001600160a01b03166107f257600080fd5b600554600354600480546001546040516370a0823160e01b815230938101939093526001600160a01b0394851694635a446a7f948116939281169291169083906370a082319060240160206040518083038186803b15801561085357600080fd5b505afa158015610867573d6000803e3d6000fd5b505050506040513d601f19601f8201168201806040525081019061088b91906109d1565b6040516001600160e01b031960e087901b1681526001600160a01b0394851660048201529284166024840152921660448201526064810191909152608401602060405180830381600087803b1580156108e357600080fd5b505af11580156108f7573d6000803e3d6000fd5b505050506040513d601f19601f8201168201806040525081019061091b91906109d1565b506007805461ffff1916610204179055565b803560ff8116811461093e57600080fd5b919050565b60006020828403121561095557600080fd5b815161096081610b0f565b9392505050565b6000806000806080858703121561097d57600080fd5b843561098881610b0f565b93506109966020860161092d565b93969395505050506040820135916060013590565b600080600080608085870312156109c157600080fd5b843593506109966020860161092d565b6000602082840312156109e357600080fd5b5051919050565b60208101600383106109fe576109fe610af9565b91905290565b60208101600583106109fe576109fe610af9565b60208082526044908201527f43616e6e6f7420696e766f6b65207468697320657363726f772066756e63746960408201527f6f6e2077697468207468652063757272656e7420636f6e7472616374207374616060820152633a3ab99760e11b608082015260a00190565b6020808252818101527f4f776e65722063616e206f6e6c79207265736f6c766520636f6e74726163742e604082015260600190565b60208082526022908201527f576f726b65722063616e206f6e6c792063616c6c20746869732066756e63746960408201526137b760f11b606082015260800190565b634e487b7160e01b600052602160045260246000fd5b8015158114610b1d57600080fd5b5056fea2646970667358221220bb03696e9ea6e554f13492de3b2ceec1b76343c267bbf924fbaff9ad6e514bb764736f6c63430008070033",
  "linkReferences": {},
  "deployedLinkReferences": {}
}